{
	"contracts/EvolveStorage.sol": {
		"EvolveStorage": {
			"abi": [
				{
					"inputs": [],
					"stateMutability": "nonpayable",
					"type": "constructor"
				},
				{
					"anonymous": false,
					"inputs": [
						{
							"indexed": true,
							"internalType": "address",
							"name": "previousOwner",
							"type": "address"
						},
						{
							"indexed": true,
							"internalType": "address",
							"name": "newOwner",
							"type": "address"
						}
					],
					"name": "OwnershipTransferred",
					"type": "event"
				},
				{
					"inputs": [
						{
							"internalType": "uint256",
							"name": "_presetId",
							"type": "uint256"
						},
						{
							"internalType": "address[]",
							"name": "_teamA",
							"type": "address[]"
						},
						{
							"internalType": "address[]",
							"name": "_teamB",
							"type": "address[]"
						},
						{
							"internalType": "uint256",
							"name": "_priceRate",
							"type": "uint256"
						},
						{
							"internalType": "uint256",
							"name": "_createAt",
							"type": "uint256"
						}
					],
					"name": "addNewCompetion",
					"outputs": [
						{
							"internalType": "uint256",
							"name": "competionId",
							"type": "uint256"
						}
					],
					"stateMutability": "nonpayable",
					"type": "function"
				},
				{
					"inputs": [
						{
							"internalType": "uint256",
							"name": "_matchPrice",
							"type": "uint256"
						},
						{
							"internalType": "uint256",
							"name": "_numberOfTeamMemebr",
							"type": "uint256"
						},
						{
							"internalType": "uint256",
							"name": "_createAt",
							"type": "uint256"
						}
					],
					"name": "addNewPreset",
					"outputs": [
						{
							"internalType": "uint256",
							"name": "presetId",
							"type": "uint256"
						}
					],
					"stateMutability": "nonpayable",
					"type": "function"
				},
				{
					"inputs": [
						{
							"internalType": "uint256",
							"name": "",
							"type": "uint256"
						}
					],
					"name": "competionList",
					"outputs": [
						{
							"components": [
								{
									"internalType": "uint256",
									"name": "matchPrice",
									"type": "uint256"
								},
								{
									"internalType": "uint256",
									"name": "numberOfTeamMemebr",
									"type": "uint256"
								},
								{
									"internalType": "uint256",
									"name": "date",
									"type": "uint256"
								},
								{
									"internalType": "uint256",
									"name": "createAt",
									"type": "uint256"
								}
							],
							"internalType": "struct IEvolveStorage.Preset",
							"name": "preset",
							"type": "tuple"
						},
						{
							"internalType": "enum IEvolveStorage.CompetionStatus",
							"name": "status",
							"type": "uint8"
						},
						{
							"internalType": "enum IEvolveStorage.CompetionWinner",
							"name": "winners",
							"type": "uint8"
						},
						{
							"internalType": "uint256",
							"name": "priceRate",
							"type": "uint256"
						},
						{
							"internalType": "uint256",
							"name": "createAt",
							"type": "uint256"
						}
					],
					"stateMutability": "view",
					"type": "function"
				},
				{
					"inputs": [],
					"name": "factoryAddrss",
					"outputs": [
						{
							"internalType": "address",
							"name": "",
							"type": "address"
						}
					],
					"stateMutability": "view",
					"type": "function"
				},
				{
					"inputs": [
						{
							"internalType": "uint256",
							"name": "_competionId",
							"type": "uint256"
						}
					],
					"name": "getCompetion",
					"outputs": [
						{
							"internalType": "uint256",
							"name": "presetPrice",
							"type": "uint256"
						},
						{
							"internalType": "uint256",
							"name": "playerCount",
							"type": "uint256"
						},
						{
							"internalType": "address[]",
							"name": "_teamA",
							"type": "address[]"
						},
						{
							"internalType": "address[]",
							"name": "_teamB",
							"type": "address[]"
						},
						{
							"internalType": "uint256",
							"name": "_competionStatus",
							"type": "uint256"
						},
						{
							"internalType": "uint256",
							"name": "_competionWinner",
							"type": "uint256"
						},
						{
							"internalType": "uint256",
							"name": "_priceRate",
							"type": "uint256"
						}
					],
					"stateMutability": "view",
					"type": "function"
				},
				{
					"inputs": [
						{
							"internalType": "uint256",
							"name": "_presetId",
							"type": "uint256"
						}
					],
					"name": "getPreset",
					"outputs": [
						{
							"internalType": "uint256",
							"name": "matchPrice",
							"type": "uint256"
						},
						{
							"internalType": "uint256",
							"name": "numberOfTeamMemebr",
							"type": "uint256"
						}
					],
					"stateMutability": "view",
					"type": "function"
				},
				{
					"inputs": [],
					"name": "owner",
					"outputs": [
						{
							"internalType": "address",
							"name": "",
							"type": "address"
						}
					],
					"stateMutability": "view",
					"type": "function"
				},
				{
					"inputs": [
						{
							"internalType": "uint256",
							"name": "",
							"type": "uint256"
						}
					],
					"name": "presetList",
					"outputs": [
						{
							"internalType": "uint256",
							"name": "matchPrice",
							"type": "uint256"
						},
						{
							"internalType": "uint256",
							"name": "numberOfTeamMemebr",
							"type": "uint256"
						},
						{
							"internalType": "uint256",
							"name": "date",
							"type": "uint256"
						},
						{
							"internalType": "uint256",
							"name": "createAt",
							"type": "uint256"
						}
					],
					"stateMutability": "view",
					"type": "function"
				},
				{
					"inputs": [],
					"name": "renounceOwnership",
					"outputs": [],
					"stateMutability": "nonpayable",
					"type": "function"
				},
				{
					"inputs": [
						{
							"internalType": "address",
							"name": "newOwner",
							"type": "address"
						}
					],
					"name": "transferOwnership",
					"outputs": [],
					"stateMutability": "nonpayable",
					"type": "function"
				},
				{
					"inputs": [
						{
							"internalType": "uint256",
							"name": "_competionId",
							"type": "uint256"
						},
						{
							"internalType": "uint8",
							"name": "_status",
							"type": "uint8"
						}
					],
					"name": "updateCompetionStatus",
					"outputs": [
						{
							"internalType": "bool",
							"name": "",
							"type": "bool"
						}
					],
					"stateMutability": "nonpayable",
					"type": "function"
				},
				{
					"inputs": [
						{
							"internalType": "uint256",
							"name": "_competionId",
							"type": "uint256"
						},
						{
							"internalType": "uint8",
							"name": "_winnerTeam",
							"type": "uint8"
						}
					],
					"name": "updateCompetionWinner",
					"outputs": [
						{
							"internalType": "bool",
							"name": "",
							"type": "bool"
						}
					],
					"stateMutability": "nonpayable",
					"type": "function"
				},
				{
					"inputs": [
						{
							"internalType": "address",
							"name": "_factory",
							"type": "address"
						}
					],
					"name": "updateFactoryAddress",
					"outputs": [
						{
							"internalType": "bool",
							"name": "result",
							"type": "bool"
						}
					],
					"stateMutability": "nonpayable",
					"type": "function"
				}
			],
			"devdoc": {
				"kind": "dev",
				"methods": {
					"owner()": {
						"details": "Returns the address of the current owner."
					},
					"renounceOwnership()": {
						"details": "Leaves the contract without owner. It will not be possible to call `onlyOwner` functions anymore. Can only be called by the current owner. NOTE: Renouncing ownership will leave the contract without an owner, thereby removing any functionality that is only available to the owner."
					},
					"transferOwnership(address)": {
						"details": "Transfers ownership of the contract to a new account (`newOwner`). Can only be called by the current owner."
					}
				},
				"version": 1
			},
			"evm": {
				"assembly": "    /* \"contracts/EvolveStorage.sol\":303:5780  contract EvolveStorage is  Context, Ownable, IEvolveStorage{... */\n  mstore(0x40, 0x80)\n    /* \"contracts/EvolveStorage.sol\":473:474  0 */\n  0x00\n    /* \"contracts/EvolveStorage.sol\":435:474  uint256 internal startCompetitionId = 0 */\n  0x02\n  sstore\n    /* \"contracts/EvolveStorage.sol\":513:514  0 */\n  0x00\n    /* \"contracts/EvolveStorage.sol\":480:514  uint256 internal startPresetId = 0 */\n  0x03\n  sstore\n    /* \"contracts/EvolveStorage.sol\":647:705  constructor(){... */\n  callvalue\n  dup1\n  iszero\n  tag_1\n  jumpi\n  0x00\n  dup1\n  revert\ntag_1:\n  pop\n    /* \"@openzeppelin/contracts/access/Ownable.sol\":921:953  _transferOwnership(_msgSender()) */\n  tag_5\n    /* \"@openzeppelin/contracts/access/Ownable.sol\":940:952  _msgSender() */\n  tag_6\n    /* \"@openzeppelin/contracts/access/Ownable.sol\":940:950  _msgSender */\n  shl(0x20, tag_7)\n    /* \"@openzeppelin/contracts/access/Ownable.sol\":940:952  _msgSender() */\n  0x20\n  shr\n  jump\t// in\ntag_6:\n    /* \"@openzeppelin/contracts/access/Ownable.sol\":921:939  _transferOwnership */\n  shl(0x20, tag_8)\n    /* \"@openzeppelin/contracts/access/Ownable.sol\":921:953  _transferOwnership(_msgSender()) */\n  0x20\n  shr\n  jump\t// in\ntag_5:\n    /* \"contracts/EvolveStorage.sol\":686:698  _msgSender() */\n  tag_10\n    /* \"contracts/EvolveStorage.sol\":686:696  _msgSender */\n  shl(0x20, tag_7)\n    /* \"contracts/EvolveStorage.sol\":686:698  _msgSender() */\n  0x20\n  shr\n  jump\t// in\ntag_10:\n    /* \"contracts/EvolveStorage.sol\":670:683  factoryAddrss */\n  0x01\n  0x00\n    /* \"contracts/EvolveStorage.sol\":670:698  factoryAddrss = _msgSender() */\n  0x0100\n  exp\n  dup2\n  sload\n  dup2\n  0xffffffffffffffffffffffffffffffffffffffff\n  mul\n  not\n  and\n  swap1\n  dup4\n  0xffffffffffffffffffffffffffffffffffffffff\n  and\n  mul\n  or\n  swap1\n  sstore\n  pop\n    /* \"contracts/EvolveStorage.sol\":303:5780  contract EvolveStorage is  Context, Ownable, IEvolveStorage{... */\n  jump(tag_11)\n    /* \"@openzeppelin/contracts/utils/Context.sol\":640:736  function _msgSender() internal view virtual returns (address) {... */\ntag_7:\n    /* \"@openzeppelin/contracts/utils/Context.sol\":693:700  address */\n  0x00\n    /* \"@openzeppelin/contracts/utils/Context.sol\":719:729  msg.sender */\n  caller\n    /* \"@openzeppelin/contracts/utils/Context.sol\":712:729  return msg.sender */\n  swap1\n  pop\n    /* \"@openzeppelin/contracts/utils/Context.sol\":640:736  function _msgSender() internal view virtual returns (address) {... */\n  swap1\n  jump\t// out\n    /* \"@openzeppelin/contracts/access/Ownable.sol\":2270:2457  function _transferOwnership(address newOwner) internal virtual {... */\ntag_8:\n    /* \"@openzeppelin/contracts/access/Ownable.sol\":2343:2359  address oldOwner */\n  0x00\n    /* \"@openzeppelin/contracts/access/Ownable.sol\":2362:2368  _owner */\n  dup1\n  0x00\n  swap1\n  sload\n  swap1\n  0x0100\n  exp\n  swap1\n  div\n  0xffffffffffffffffffffffffffffffffffffffff\n  and\n    /* \"@openzeppelin/contracts/access/Ownable.sol\":2343:2368  address oldOwner = _owner */\n  swap1\n  pop\n    /* \"@openzeppelin/contracts/access/Ownable.sol\":2387:2395  newOwner */\n  dup2\n    /* \"@openzeppelin/contracts/access/Ownable.sol\":2378:2384  _owner */\n  0x00\n  dup1\n    /* \"@openzeppelin/contracts/access/Ownable.sol\":2378:2395  _owner = newOwner */\n  0x0100\n  exp\n  dup2\n  sload\n  dup2\n  0xffffffffffffffffffffffffffffffffffffffff\n  mul\n  not\n  and\n  swap1\n  dup4\n  0xffffffffffffffffffffffffffffffffffffffff\n  and\n  mul\n  or\n  swap1\n  sstore\n  pop\n    /* \"@openzeppelin/contracts/access/Ownable.sol\":2441:2449  newOwner */\n  dup2\n    /* \"@openzeppelin/contracts/access/Ownable.sol\":2410:2450  OwnershipTransferred(oldOwner, newOwner) */\n  0xffffffffffffffffffffffffffffffffffffffff\n  and\n    /* \"@openzeppelin/contracts/access/Ownable.sol\":2431:2439  oldOwner */\n  dup2\n    /* \"@openzeppelin/contracts/access/Ownable.sol\":2410:2450  OwnershipTransferred(oldOwner, newOwner) */\n  0xffffffffffffffffffffffffffffffffffffffff\n  and\n  0x8be0079c531659141344cd1fd0a4f28419497f9722a3daafe3b4186f6b6457e0\n  mload(0x40)\n  mload(0x40)\n  dup1\n  swap2\n  sub\n  swap1\n  log3\n    /* \"@openzeppelin/contracts/access/Ownable.sol\":2333:2457  {... */\n  pop\n    /* \"@openzeppelin/contracts/access/Ownable.sol\":2270:2457  function _transferOwnership(address newOwner) internal virtual {... */\n  pop\n  jump\t// out\n    /* \"contracts/EvolveStorage.sol\":303:5780  contract EvolveStorage is  Context, Ownable, IEvolveStorage{... */\ntag_11:\n  dataSize(sub_0)\n  dup1\n  dataOffset(sub_0)\n  0x00\n  codecopy\n  0x00\n  return\nstop\n\nsub_0: assembly {\n        /* \"contracts/EvolveStorage.sol\":303:5780  contract EvolveStorage is  Context, Ownable, IEvolveStorage{... */\n      mstore(0x40, 0x80)\n      callvalue\n      dup1\n      iszero\n      tag_1\n      jumpi\n      0x00\n      dup1\n      revert\n    tag_1:\n      pop\n      jumpi(tag_2, lt(calldatasize, 0x04))\n      shr(0xe0, calldataload(0x00))\n      dup1\n      0x84534890\n      gt\n      tag_16\n      jumpi\n      dup1\n      0xaabc4b3c\n      gt\n      tag_17\n      jumpi\n      dup1\n      0xaabc4b3c\n      eq\n      tag_12\n      jumpi\n      dup1\n      0xcaa9db89\n      eq\n      tag_13\n      jumpi\n      dup1\n      0xd4e3706a\n      eq\n      tag_14\n      jumpi\n      dup1\n      0xf2fde38b\n      eq\n      tag_15\n      jumpi\n      jump(tag_2)\n    tag_17:\n      dup1\n      0x84534890\n      eq\n      tag_9\n      jumpi\n      dup1\n      0x8da5cb5b\n      eq\n      tag_10\n      jumpi\n      dup1\n      0x985d8e00\n      eq\n      tag_11\n      jumpi\n      jump(tag_2)\n    tag_16:\n      dup1\n      0x4f03c754\n      eq\n      tag_3\n      jumpi\n      dup1\n      0x511b4db7\n      eq\n      tag_4\n      jumpi\n      dup1\n      0x551ee570\n      eq\n      tag_5\n      jumpi\n      dup1\n      0x715018a6\n      eq\n      tag_6\n      jumpi\n      dup1\n      0x7ae996bd\n      eq\n      tag_7\n      jumpi\n      dup1\n      0x7cb1c0d4\n      eq\n      tag_8\n      jumpi\n    tag_2:\n      0x00\n      dup1\n      revert\n        /* \"contracts/EvolveStorage.sol\":2417:3081  function updateCompetionStatus(uint _competionId, uint8 _status) external override ownerOrFactory returns(bool){... */\n    tag_3:\n      tag_18\n      0x04\n      dup1\n      calldatasize\n      sub\n      dup2\n      add\n      swap1\n      tag_19\n      swap2\n      swap1\n      tag_20\n      jump\t// in\n    tag_19:\n      tag_21\n      jump\t// in\n    tag_18:\n      mload(0x40)\n      tag_22\n      swap2\n      swap1\n      tag_23\n      jump\t// in\n    tag_22:\n      mload(0x40)\n      dup1\n      swap2\n      sub\n      swap1\n      return\n        /* \"contracts/EvolveStorage.sol\":538:582  mapping(uint256 => Preset) public presetList */\n    tag_4:\n      tag_24\n      0x04\n      dup1\n      calldatasize\n      sub\n      dup2\n      add\n      swap1\n      tag_25\n      swap2\n      swap1\n      tag_26\n      jump\t// in\n    tag_25:\n      tag_27\n      jump\t// in\n    tag_24:\n      mload(0x40)\n      tag_28\n      swap5\n      swap4\n      swap3\n      swap2\n      swap1\n      tag_29\n      jump\t// in\n    tag_28:\n      mload(0x40)\n      dup1\n      swap2\n      sub\n      swap1\n      return\n        /* \"contracts/EvolveStorage.sol\":1084:1244  function updateFactoryAddress(address _factory) external override onlyOwner returns(bool result){... */\n    tag_5:\n      tag_30\n      0x04\n      dup1\n      calldatasize\n      sub\n      dup2\n      add\n      swap1\n      tag_31\n      swap2\n      swap1\n      tag_32\n      jump\t// in\n    tag_31:\n      tag_33\n      jump\t// in\n    tag_30:\n      mload(0x40)\n      tag_34\n      swap2\n      swap1\n      tag_23\n      jump\t// in\n    tag_34:\n      mload(0x40)\n      dup1\n      swap2\n      sub\n      swap1\n      return\n        /* \"@openzeppelin/contracts/access/Ownable.sol\":1668:1769  function renounceOwnership() public virtual onlyOwner {... */\n    tag_6:\n      tag_35\n      tag_36\n      jump\t// in\n    tag_35:\n      stop\n        /* \"contracts/EvolveStorage.sol\":3899:4315  function addNewPreset(uint256 _matchPrice, uint256 _numberOfTeamMemebr, uint256 _createAt ) external override ownerOrFactory returns(uint presetId) {... */\n    tag_7:\n      tag_37\n      0x04\n      dup1\n      calldatasize\n      sub\n      dup2\n      add\n      swap1\n      tag_38\n      swap2\n      swap1\n      tag_39\n      jump\t// in\n    tag_38:\n      tag_40\n      jump\t// in\n    tag_37:\n      mload(0x40)\n      tag_41\n      swap2\n      swap1\n      tag_42\n      jump\t// in\n    tag_41:\n      mload(0x40)\n      dup1\n      swap2\n      sub\n      swap1\n      return\n        /* \"contracts/EvolveStorage.sol\":588:639  mapping(uint256 => Competion ) public competionList */\n    tag_8:\n      tag_43\n      0x04\n      dup1\n      calldatasize\n      sub\n      dup2\n      add\n      swap1\n      tag_44\n      swap2\n      swap1\n      tag_26\n      jump\t// in\n    tag_44:\n      tag_45\n      jump\t// in\n    tag_43:\n      mload(0x40)\n      tag_46\n      swap6\n      swap5\n      swap4\n      swap3\n      swap2\n      swap1\n      tag_47\n      jump\t// in\n    tag_46:\n      mload(0x40)\n      dup1\n      swap2\n      sub\n      swap1\n      return\n        /* \"contracts/EvolveStorage.sol\":3087:3634  function addNewCompetion(uint256 _presetId, address[] memory _teamA, address[] memory _teamB, uint256 _priceRate, uint256 _createAt) external override ownerOrFactory returns(uint competionId){... */\n    tag_9:\n      tag_48\n      0x04\n      dup1\n      calldatasize\n      sub\n      dup2\n      add\n      swap1\n      tag_49\n      swap2\n      swap1\n      tag_50\n      jump\t// in\n    tag_49:\n      tag_51\n      jump\t// in\n    tag_48:\n      mload(0x40)\n      tag_52\n      swap2\n      swap1\n      tag_42\n      jump\t// in\n    tag_52:\n      mload(0x40)\n      dup1\n      swap2\n      sub\n      swap1\n      return\n        /* \"@openzeppelin/contracts/access/Ownable.sol\":1036:1121  function owner() public view virtual returns (address) {... */\n    tag_10:\n      tag_53\n      tag_54\n      jump\t// in\n    tag_53:\n      mload(0x40)\n      tag_55\n      swap2\n      swap1\n      tag_56\n      jump\t// in\n    tag_55:\n      mload(0x40)\n      dup1\n      swap2\n      sub\n      swap1\n      return\n        /* \"contracts/EvolveStorage.sol\":1567:2352  function updateCompetionWinner(uint _competionId, uint8 _winnerTeam) external override ownerOrFactory returns(bool){... */\n    tag_11:\n      tag_57\n      0x04\n      dup1\n      calldatasize\n      sub\n      dup2\n      add\n      swap1\n      tag_58\n      swap2\n      swap1\n      tag_20\n      jump\t// in\n    tag_58:\n      tag_59\n      jump\t// in\n    tag_57:\n      mload(0x40)\n      tag_60\n      swap2\n      swap1\n      tag_23\n      jump\t// in\n    tag_60:\n      mload(0x40)\n      dup1\n      swap2\n      sub\n      swap1\n      return\n        /* \"contracts/EvolveStorage.sol\":4427:4639  function getPreset(uint256 _presetId) external view override returns(uint256 matchPrice,uint256 numberOfTeamMemebr){... */\n    tag_12:\n      tag_61\n      0x04\n      dup1\n      calldatasize\n      sub\n      dup2\n      add\n      swap1\n      tag_62\n      swap2\n      swap1\n      tag_26\n      jump\t// in\n    tag_62:\n      tag_63\n      jump\t// in\n    tag_61:\n      mload(0x40)\n      tag_64\n      swap3\n      swap2\n      swap1\n      tag_65\n      jump\t// in\n    tag_64:\n      mload(0x40)\n      dup1\n      swap2\n      sub\n      swap1\n      return\n        /* \"contracts/EvolveStorage.sol\":401:429  address public factoryAddrss */\n    tag_13:\n      tag_66\n      tag_67\n      jump\t// in\n    tag_66:\n      mload(0x40)\n      tag_68\n      swap2\n      swap1\n      tag_56\n      jump\t// in\n    tag_68:\n      mload(0x40)\n      dup1\n      swap2\n      sub\n      swap1\n      return\n        /* \"contracts/EvolveStorage.sol\":4645:5378  function getCompetion(uint256 _competionId) external view override ... */\n    tag_14:\n      tag_69\n      0x04\n      dup1\n      calldatasize\n      sub\n      dup2\n      add\n      swap1\n      tag_70\n      swap2\n      swap1\n      tag_26\n      jump\t// in\n    tag_70:\n      tag_71\n      jump\t// in\n    tag_69:\n      mload(0x40)\n      tag_72\n      swap8\n      swap7\n      swap6\n      swap5\n      swap4\n      swap3\n      swap2\n      swap1\n      tag_73\n      jump\t// in\n    tag_72:\n      mload(0x40)\n      dup1\n      swap2\n      sub\n      swap1\n      return\n        /* \"@openzeppelin/contracts/access/Ownable.sol\":1918:2116  function transferOwnership(address newOwner) public virtual onlyOwner {... */\n    tag_15:\n      tag_74\n      0x04\n      dup1\n      calldatasize\n      sub\n      dup2\n      add\n      swap1\n      tag_75\n      swap2\n      swap1\n      tag_32\n      jump\t// in\n    tag_75:\n      tag_76\n      jump\t// in\n    tag_74:\n      stop\n        /* \"contracts/EvolveStorage.sol\":2417:3081  function updateCompetionStatus(uint _competionId, uint8 _status) external override ownerOrFactory returns(bool){... */\n    tag_21:\n        /* \"contracts/EvolveStorage.sol\":2523:2527  bool */\n      0x00\n        /* \"contracts/EvolveStorage.sol\":936:949  factoryAddrss */\n      0x01\n      0x00\n      swap1\n      sload\n      swap1\n      0x0100\n      exp\n      swap1\n      div\n      0xffffffffffffffffffffffffffffffffffffffff\n      and\n        /* \"contracts/EvolveStorage.sol\":920:949  _msgSender() == factoryAddrss */\n      0xffffffffffffffffffffffffffffffffffffffff\n      and\n        /* \"contracts/EvolveStorage.sol\":920:932  _msgSender() */\n      tag_78\n        /* \"contracts/EvolveStorage.sol\":920:930  _msgSender */\n      tag_79\n        /* \"contracts/EvolveStorage.sol\":920:932  _msgSender() */\n      jump\t// in\n    tag_78:\n        /* \"contracts/EvolveStorage.sol\":920:949  _msgSender() == factoryAddrss */\n      0xffffffffffffffffffffffffffffffffffffffff\n      and\n      eq\n        /* \"contracts/EvolveStorage.sol\":920:976  _msgSender() == factoryAddrss || _msgSender() == owner() */\n      dup1\n      tag_80\n      jumpi\n      pop\n        /* \"contracts/EvolveStorage.sol\":969:976  owner() */\n      tag_81\n        /* \"contracts/EvolveStorage.sol\":969:974  owner */\n      tag_54\n        /* \"contracts/EvolveStorage.sol\":969:976  owner() */\n      jump\t// in\n    tag_81:\n        /* \"contracts/EvolveStorage.sol\":953:976  _msgSender() == owner() */\n      0xffffffffffffffffffffffffffffffffffffffff\n      and\n        /* \"contracts/EvolveStorage.sol\":953:965  _msgSender() */\n      tag_82\n        /* \"contracts/EvolveStorage.sol\":953:963  _msgSender */\n      tag_79\n        /* \"contracts/EvolveStorage.sol\":953:965  _msgSender() */\n      jump\t// in\n    tag_82:\n        /* \"contracts/EvolveStorage.sol\":953:976  _msgSender() == owner() */\n      0xffffffffffffffffffffffffffffffffffffffff\n      and\n      eq\n        /* \"contracts/EvolveStorage.sol\":920:976  _msgSender() == factoryAddrss || _msgSender() == owner() */\n    tag_80:\n        /* \"contracts/EvolveStorage.sol\":920:1000  _msgSender() == factoryAddrss || _msgSender() == owner() || owner() == tx.origin */\n      dup1\n      tag_83\n      jumpi\n      pop\n        /* \"contracts/EvolveStorage.sol\":991:1000  tx.origin */\n      origin\n        /* \"contracts/EvolveStorage.sol\":980:1000  owner() == tx.origin */\n      0xffffffffffffffffffffffffffffffffffffffff\n      and\n        /* \"contracts/EvolveStorage.sol\":980:987  owner() */\n      tag_84\n        /* \"contracts/EvolveStorage.sol\":980:985  owner */\n      tag_54\n        /* \"contracts/EvolveStorage.sol\":980:987  owner() */\n      jump\t// in\n    tag_84:\n        /* \"contracts/EvolveStorage.sol\":980:1000  owner() == tx.origin */\n      0xffffffffffffffffffffffffffffffffffffffff\n      and\n      eq\n        /* \"contracts/EvolveStorage.sol\":920:1000  _msgSender() == factoryAddrss || _msgSender() == owner() || owner() == tx.origin */\n    tag_83:\n        /* \"contracts/EvolveStorage.sol\":912:1059  require(_msgSender() == factoryAddrss || _msgSender() == owner() || owner() == tx.origin , \"To call this method you have to be owner or subAdmin!\") */\n      tag_85\n      jumpi\n      mload(0x40)\n      0x08c379a000000000000000000000000000000000000000000000000000000000\n      dup2\n      mstore\n      0x04\n      add\n      tag_86\n      swap1\n      tag_87\n      jump\t// in\n    tag_86:\n      mload(0x40)\n      dup1\n      swap2\n      sub\n      swap1\n      revert\n    tag_85:\n        /* \"contracts/EvolveStorage.sol\":2546:2581  isExistsCompetionList(_competionId) */\n      tag_89\n        /* \"contracts/EvolveStorage.sol\":2568:2580  _competionId */\n      dup4\n        /* \"contracts/EvolveStorage.sol\":2546:2567  isExistsCompetionList */\n      tag_90\n        /* \"contracts/EvolveStorage.sol\":2546:2581  isExistsCompetionList(_competionId) */\n      jump\t// in\n    tag_89:\n        /* \"contracts/EvolveStorage.sol\":2538:2629  require(isExistsCompetionList(_competionId), \"can't find competion with this competionId!\") */\n      tag_91\n      jumpi\n      mload(0x40)\n      0x08c379a000000000000000000000000000000000000000000000000000000000\n      dup2\n      mstore\n      0x04\n      add\n      tag_92\n      swap1\n      tag_93\n      jump\t// in\n    tag_92:\n      mload(0x40)\n      dup1\n      swap2\n      sub\n      swap1\n      revert\n    tag_91:\n        /* \"contracts/EvolveStorage.sol\":2658:2659  0 */\n      0x00\n        /* \"contracts/EvolveStorage.sol\":2647:2654  _status */\n      dup3\n        /* \"contracts/EvolveStorage.sol\":2647:2659  _status >= 0 */\n      0xff\n      and\n      lt\n      iszero\n        /* \"contracts/EvolveStorage.sol\":2647:2675  _status >= 0 && _status <= 2 */\n      dup1\n      iszero\n      tag_94\n      jumpi\n      pop\n        /* \"contracts/EvolveStorage.sol\":2674:2675  2 */\n      0x02\n        /* \"contracts/EvolveStorage.sol\":2663:2670  _status */\n      dup3\n        /* \"contracts/EvolveStorage.sol\":2663:2675  _status <= 2 */\n      0xff\n      and\n      gt\n      iszero\n        /* \"contracts/EvolveStorage.sol\":2647:2675  _status >= 0 && _status <= 2 */\n    tag_94:\n        /* \"contracts/EvolveStorage.sol\":2639:2720  require(_status >= 0 && _status <= 2, \"status need to be somting between 0 to 2\") */\n      tag_95\n      jumpi\n      mload(0x40)\n      0x08c379a000000000000000000000000000000000000000000000000000000000\n      dup2\n      mstore\n      0x04\n      add\n      tag_96\n      swap1\n      tag_97\n      jump\t// in\n    tag_96:\n      mload(0x40)\n      dup1\n      swap2\n      sub\n      swap1\n      revert\n    tag_95:\n        /* \"contracts/EvolveStorage.sol\":2730:2757  Competion storage competion */\n      0x00\n        /* \"contracts/EvolveStorage.sol\":2760:2773  competionList */\n      0x05\n        /* \"contracts/EvolveStorage.sol\":2760:2787  competionList[_competionId] */\n      0x00\n        /* \"contracts/EvolveStorage.sol\":2774:2786  _competionId */\n      dup6\n        /* \"contracts/EvolveStorage.sol\":2760:2787  competionList[_competionId] */\n      dup2\n      mstore\n      0x20\n      add\n      swap1\n      dup2\n      mstore\n      0x20\n      add\n      0x00\n      keccak256\n        /* \"contracts/EvolveStorage.sol\":2730:2787  Competion storage competion = competionList[_competionId] */\n      swap1\n      pop\n        /* \"contracts/EvolveStorage.sol\":2811:2812  0 */\n      0x00\n        /* \"contracts/EvolveStorage.sol\":2800:2807  _status */\n      dup4\n        /* \"contracts/EvolveStorage.sol\":2800:2812  _status == 0 */\n      0xff\n      and\n      eq\n        /* \"contracts/EvolveStorage.sol\":2797:3054  if(_status == 0){... */\n      iszero\n      tag_98\n      jumpi\n        /* \"contracts/EvolveStorage.sol\":2846:2869  CompetionStatus.PENDING */\n      0x00\n        /* \"contracts/EvolveStorage.sol\":2827:2836  competion */\n      dup2\n        /* \"contracts/EvolveStorage.sol\":2827:2843  competion.status */\n      0x06\n      add\n      0x00\n        /* \"contracts/EvolveStorage.sol\":2827:2869  competion.status = CompetionStatus.PENDING */\n      0x0100\n      exp\n      dup2\n      sload\n      dup2\n      0xff\n      mul\n      not\n      and\n      swap1\n      dup4\n      0x02\n      dup2\n      gt\n      iszero\n      tag_99\n      jumpi\n      tag_100\n      tag_101\n      jump\t// in\n    tag_100:\n    tag_99:\n      mul\n      or\n      swap1\n      sstore\n      pop\n        /* \"contracts/EvolveStorage.sol\":2797:3054  if(_status == 0){... */\n      jump(tag_102)\n    tag_98:\n        /* \"contracts/EvolveStorage.sol\":2899:2900  1 */\n      0x01\n        /* \"contracts/EvolveStorage.sol\":2888:2895  _status */\n      dup4\n        /* \"contracts/EvolveStorage.sol\":2888:2900  _status == 1 */\n      0xff\n      and\n      eq\n        /* \"contracts/EvolveStorage.sol\":2885:3054  if(_status == 1){... */\n      iszero\n      tag_103\n      jumpi\n        /* \"contracts/EvolveStorage.sol\":2934:2958  CompetionStatus.CANCELED */\n      0x01\n        /* \"contracts/EvolveStorage.sol\":2915:2924  competion */\n      dup2\n        /* \"contracts/EvolveStorage.sol\":2915:2931  competion.status */\n      0x06\n      add\n      0x00\n        /* \"contracts/EvolveStorage.sol\":2915:2958  competion.status = CompetionStatus.CANCELED */\n      0x0100\n      exp\n      dup2\n      sload\n      dup2\n      0xff\n      mul\n      not\n      and\n      swap1\n      dup4\n      0x02\n      dup2\n      gt\n      iszero\n      tag_104\n      jumpi\n      tag_105\n      tag_101\n      jump\t// in\n    tag_105:\n    tag_104:\n      mul\n      or\n      swap1\n      sstore\n      pop\n        /* \"contracts/EvolveStorage.sol\":2885:3054  if(_status == 1){... */\n      jump(tag_106)\n    tag_103:\n        /* \"contracts/EvolveStorage.sol\":2988:2989  2 */\n      0x02\n        /* \"contracts/EvolveStorage.sol\":2977:2984  _status */\n      dup4\n        /* \"contracts/EvolveStorage.sol\":2977:2989  _status == 2 */\n      0xff\n      and\n      eq\n        /* \"contracts/EvolveStorage.sol\":2974:3054  if(_status == 2){... */\n      iszero\n      tag_107\n      jumpi\n        /* \"contracts/EvolveStorage.sol\":3023:3043  CompetionStatus.DONE */\n      0x02\n        /* \"contracts/EvolveStorage.sol\":3004:3013  competion */\n      dup2\n        /* \"contracts/EvolveStorage.sol\":3004:3020  competion.status */\n      0x06\n      add\n      0x00\n        /* \"contracts/EvolveStorage.sol\":3004:3043  competion.status = CompetionStatus.DONE */\n      0x0100\n      exp\n      dup2\n      sload\n      dup2\n      0xff\n      mul\n      not\n      and\n      swap1\n      dup4\n      0x02\n      dup2\n      gt\n      iszero\n      tag_108\n      jumpi\n      tag_109\n      tag_101\n      jump\t// in\n    tag_109:\n    tag_108:\n      mul\n      or\n      swap1\n      sstore\n      pop\n        /* \"contracts/EvolveStorage.sol\":2974:3054  if(_status == 2){... */\n    tag_107:\n        /* \"contracts/EvolveStorage.sol\":2885:3054  if(_status == 1){... */\n    tag_106:\n        /* \"contracts/EvolveStorage.sol\":2797:3054  if(_status == 0){... */\n    tag_102:\n        /* \"contracts/EvolveStorage.sol\":3070:3074  true */\n      0x01\n        /* \"contracts/EvolveStorage.sol\":3063:3074  return true */\n      swap2\n      pop\n      pop\n        /* \"contracts/EvolveStorage.sol\":2417:3081  function updateCompetionStatus(uint _competionId, uint8 _status) external override ownerOrFactory returns(bool){... */\n      swap3\n      swap2\n      pop\n      pop\n      jump\t// out\n        /* \"contracts/EvolveStorage.sol\":538:582  mapping(uint256 => Preset) public presetList */\n    tag_27:\n      mstore(0x20, 0x04)\n      dup1\n      0x00\n      mstore\n      keccak256(0x00, 0x40)\n      0x00\n      swap2\n      pop\n      swap1\n      pop\n      dup1\n      0x00\n      add\n      sload\n      swap1\n      dup1\n      0x01\n      add\n      sload\n      swap1\n      dup1\n      0x02\n      add\n      sload\n      swap1\n      dup1\n      0x03\n      add\n      sload\n      swap1\n      pop\n      dup5\n      jump\t// out\n        /* \"contracts/EvolveStorage.sol\":1084:1244  function updateFactoryAddress(address _factory) external override onlyOwner returns(bool result){... */\n    tag_33:\n        /* \"contracts/EvolveStorage.sol\":1168:1179  bool result */\n      0x00\n        /* \"@openzeppelin/contracts/access/Ownable.sol\":1259:1271  _msgSender() */\n      tag_111\n        /* \"@openzeppelin/contracts/access/Ownable.sol\":1259:1269  _msgSender */\n      tag_79\n        /* \"@openzeppelin/contracts/access/Ownable.sol\":1259:1271  _msgSender() */\n      jump\t// in\n    tag_111:\n        /* \"@openzeppelin/contracts/access/Ownable.sol\":1248:1271  owner() == _msgSender() */\n      0xffffffffffffffffffffffffffffffffffffffff\n      and\n        /* \"@openzeppelin/contracts/access/Ownable.sol\":1248:1255  owner() */\n      tag_112\n        /* \"@openzeppelin/contracts/access/Ownable.sol\":1248:1253  owner */\n      tag_54\n        /* \"@openzeppelin/contracts/access/Ownable.sol\":1248:1255  owner() */\n      jump\t// in\n    tag_112:\n        /* \"@openzeppelin/contracts/access/Ownable.sol\":1248:1271  owner() == _msgSender() */\n      0xffffffffffffffffffffffffffffffffffffffff\n      and\n      eq\n        /* \"@openzeppelin/contracts/access/Ownable.sol\":1240:1308  require(owner() == _msgSender(), \"Ownable: caller is not the owner\") */\n      tag_113\n      jumpi\n      mload(0x40)\n      0x08c379a000000000000000000000000000000000000000000000000000000000\n      dup2\n      mstore\n      0x04\n      add\n      tag_114\n      swap1\n      tag_115\n      jump\t// in\n    tag_114:\n      mload(0x40)\n      dup1\n      swap2\n      sub\n      swap1\n      revert\n    tag_113:\n        /* \"contracts/EvolveStorage.sol\":1206:1214  _factory */\n      dup2\n        /* \"contracts/EvolveStorage.sol\":1190:1203  factoryAddrss */\n      0x01\n      0x00\n        /* \"contracts/EvolveStorage.sol\":1190:1214  factoryAddrss = _factory */\n      0x0100\n      exp\n      dup2\n      sload\n      dup2\n      0xffffffffffffffffffffffffffffffffffffffff\n      mul\n      not\n      and\n      swap1\n      dup4\n      0xffffffffffffffffffffffffffffffffffffffff\n      and\n      mul\n      or\n      swap1\n      sstore\n      pop\n        /* \"contracts/EvolveStorage.sol\":1233:1237  true */\n      0x01\n        /* \"contracts/EvolveStorage.sol\":1224:1237  result = true */\n      swap1\n      pop\n        /* \"contracts/EvolveStorage.sol\":1084:1244  function updateFactoryAddress(address _factory) external override onlyOwner returns(bool result){... */\n      swap2\n      swap1\n      pop\n      jump\t// out\n        /* \"@openzeppelin/contracts/access/Ownable.sol\":1668:1769  function renounceOwnership() public virtual onlyOwner {... */\n    tag_36:\n        /* \"@openzeppelin/contracts/access/Ownable.sol\":1259:1271  _msgSender() */\n      tag_118\n        /* \"@openzeppelin/contracts/access/Ownable.sol\":1259:1269  _msgSender */\n      tag_79\n        /* \"@openzeppelin/contracts/access/Ownable.sol\":1259:1271  _msgSender() */\n      jump\t// in\n    tag_118:\n        /* \"@openzeppelin/contracts/access/Ownable.sol\":1248:1271  owner() == _msgSender() */\n      0xffffffffffffffffffffffffffffffffffffffff\n      and\n        /* \"@openzeppelin/contracts/access/Ownable.sol\":1248:1255  owner() */\n      tag_119\n        /* \"@openzeppelin/contracts/access/Ownable.sol\":1248:1253  owner */\n      tag_54\n        /* \"@openzeppelin/contracts/access/Ownable.sol\":1248:1255  owner() */\n      jump\t// in\n    tag_119:\n        /* \"@openzeppelin/contracts/access/Ownable.sol\":1248:1271  owner() == _msgSender() */\n      0xffffffffffffffffffffffffffffffffffffffff\n      and\n      eq\n        /* \"@openzeppelin/contracts/access/Ownable.sol\":1240:1308  require(owner() == _msgSender(), \"Ownable: caller is not the owner\") */\n      tag_120\n      jumpi\n      mload(0x40)\n      0x08c379a000000000000000000000000000000000000000000000000000000000\n      dup2\n      mstore\n      0x04\n      add\n      tag_121\n      swap1\n      tag_115\n      jump\t// in\n    tag_121:\n      mload(0x40)\n      dup1\n      swap2\n      sub\n      swap1\n      revert\n    tag_120:\n        /* \"@openzeppelin/contracts/access/Ownable.sol\":1732:1762  _transferOwnership(address(0)) */\n      tag_123\n        /* \"@openzeppelin/contracts/access/Ownable.sol\":1759:1760  0 */\n      0x00\n        /* \"@openzeppelin/contracts/access/Ownable.sol\":1732:1750  _transferOwnership */\n      tag_124\n        /* \"@openzeppelin/contracts/access/Ownable.sol\":1732:1762  _transferOwnership(address(0)) */\n      jump\t// in\n    tag_123:\n        /* \"@openzeppelin/contracts/access/Ownable.sol\":1668:1769  function renounceOwnership() public virtual onlyOwner {... */\n      jump\t// out\n        /* \"contracts/EvolveStorage.sol\":3899:4315  function addNewPreset(uint256 _matchPrice, uint256 _numberOfTeamMemebr, uint256 _createAt ) external override ownerOrFactory returns(uint presetId) {... */\n    tag_40:\n        /* \"contracts/EvolveStorage.sol\":4032:4045  uint presetId */\n      0x00\n        /* \"contracts/EvolveStorage.sol\":936:949  factoryAddrss */\n      0x01\n      0x00\n      swap1\n      sload\n      swap1\n      0x0100\n      exp\n      swap1\n      div\n      0xffffffffffffffffffffffffffffffffffffffff\n      and\n        /* \"contracts/EvolveStorage.sol\":920:949  _msgSender() == factoryAddrss */\n      0xffffffffffffffffffffffffffffffffffffffff\n      and\n        /* \"contracts/EvolveStorage.sol\":920:932  _msgSender() */\n      tag_126\n        /* \"contracts/EvolveStorage.sol\":920:930  _msgSender */\n      tag_79\n        /* \"contracts/EvolveStorage.sol\":920:932  _msgSender() */\n      jump\t// in\n    tag_126:\n        /* \"contracts/EvolveStorage.sol\":920:949  _msgSender() == factoryAddrss */\n      0xffffffffffffffffffffffffffffffffffffffff\n      and\n      eq\n        /* \"contracts/EvolveStorage.sol\":920:976  _msgSender() == factoryAddrss || _msgSender() == owner() */\n      dup1\n      tag_127\n      jumpi\n      pop\n        /* \"contracts/EvolveStorage.sol\":969:976  owner() */\n      tag_128\n        /* \"contracts/EvolveStorage.sol\":969:974  owner */\n      tag_54\n        /* \"contracts/EvolveStorage.sol\":969:976  owner() */\n      jump\t// in\n    tag_128:\n        /* \"contracts/EvolveStorage.sol\":953:976  _msgSender() == owner() */\n      0xffffffffffffffffffffffffffffffffffffffff\n      and\n        /* \"contracts/EvolveStorage.sol\":953:965  _msgSender() */\n      tag_129\n        /* \"contracts/EvolveStorage.sol\":953:963  _msgSender */\n      tag_79\n        /* \"contracts/EvolveStorage.sol\":953:965  _msgSender() */\n      jump\t// in\n    tag_129:\n        /* \"contracts/EvolveStorage.sol\":953:976  _msgSender() == owner() */\n      0xffffffffffffffffffffffffffffffffffffffff\n      and\n      eq\n        /* \"contracts/EvolveStorage.sol\":920:976  _msgSender() == factoryAddrss || _msgSender() == owner() */\n    tag_127:\n        /* \"contracts/EvolveStorage.sol\":920:1000  _msgSender() == factoryAddrss || _msgSender() == owner() || owner() == tx.origin */\n      dup1\n      tag_130\n      jumpi\n      pop\n        /* \"contracts/EvolveStorage.sol\":991:1000  tx.origin */\n      origin\n        /* \"contracts/EvolveStorage.sol\":980:1000  owner() == tx.origin */\n      0xffffffffffffffffffffffffffffffffffffffff\n      and\n        /* \"contracts/EvolveStorage.sol\":980:987  owner() */\n      tag_131\n        /* \"contracts/EvolveStorage.sol\":980:985  owner */\n      tag_54\n        /* \"contracts/EvolveStorage.sol\":980:987  owner() */\n      jump\t// in\n    tag_131:\n        /* \"contracts/EvolveStorage.sol\":980:1000  owner() == tx.origin */\n      0xffffffffffffffffffffffffffffffffffffffff\n      and\n      eq\n        /* \"contracts/EvolveStorage.sol\":920:1000  _msgSender() == factoryAddrss || _msgSender() == owner() || owner() == tx.origin */\n    tag_130:\n        /* \"contracts/EvolveStorage.sol\":912:1059  require(_msgSender() == factoryAddrss || _msgSender() == owner() || owner() == tx.origin , \"To call this method you have to be owner or subAdmin!\") */\n      tag_132\n      jumpi\n      mload(0x40)\n      0x08c379a000000000000000000000000000000000000000000000000000000000\n      dup2\n      mstore\n      0x04\n      add\n      tag_133\n      swap1\n      tag_87\n      jump\t// in\n    tag_133:\n      mload(0x40)\n      dup1\n      swap2\n      sub\n      swap1\n      revert\n    tag_132:\n        /* \"contracts/EvolveStorage.sol\":4057:4075  uint _lastPresetId */\n      0x00\n        /* \"contracts/EvolveStorage.sol\":4078:4091  startPresetId */\n      sload(0x03)\n        /* \"contracts/EvolveStorage.sol\":4057:4091  uint _lastPresetId = startPresetId */\n      swap1\n      pop\n        /* \"contracts/EvolveStorage.sol\":4101:4128  Preset memory currentPreset */\n      0x00\n        /* \"contracts/EvolveStorage.sol\":4131:4199  Preset(_matchPrice, _numberOfTeamMemebr, block.timestamp, _createAt) */\n      mload(0x40)\n      dup1\n      0x80\n      add\n      0x40\n      mstore\n      dup1\n        /* \"contracts/EvolveStorage.sol\":4138:4149  _matchPrice */\n      dup8\n        /* \"contracts/EvolveStorage.sol\":4131:4199  Preset(_matchPrice, _numberOfTeamMemebr, block.timestamp, _createAt) */\n      dup2\n      mstore\n      0x20\n      add\n        /* \"contracts/EvolveStorage.sol\":4151:4170  _numberOfTeamMemebr */\n      dup7\n        /* \"contracts/EvolveStorage.sol\":4131:4199  Preset(_matchPrice, _numberOfTeamMemebr, block.timestamp, _createAt) */\n      dup2\n      mstore\n      0x20\n      add\n        /* \"contracts/EvolveStorage.sol\":4172:4187  block.timestamp */\n      timestamp\n        /* \"contracts/EvolveStorage.sol\":4131:4199  Preset(_matchPrice, _numberOfTeamMemebr, block.timestamp, _createAt) */\n      dup2\n      mstore\n      0x20\n      add\n        /* \"contracts/EvolveStorage.sol\":4189:4198  _createAt */\n      dup6\n        /* \"contracts/EvolveStorage.sol\":4131:4199  Preset(_matchPrice, _numberOfTeamMemebr, block.timestamp, _createAt) */\n      dup2\n      mstore\n      pop\n        /* \"contracts/EvolveStorage.sol\":4101:4199  Preset memory currentPreset = Preset(_matchPrice, _numberOfTeamMemebr, block.timestamp, _createAt) */\n      swap1\n      pop\n        /* \"contracts/EvolveStorage.sol\":4237:4250  currentPreset */\n      dup1\n        /* \"contracts/EvolveStorage.sol\":4209:4219  presetList */\n      0x04\n        /* \"contracts/EvolveStorage.sol\":4209:4234  presetList[_lastPresetId] */\n      0x00\n        /* \"contracts/EvolveStorage.sol\":4220:4233  _lastPresetId */\n      dup5\n        /* \"contracts/EvolveStorage.sol\":4209:4234  presetList[_lastPresetId] */\n      dup2\n      mstore\n      0x20\n      add\n      swap1\n      dup2\n      mstore\n      0x20\n      add\n      0x00\n      keccak256\n        /* \"contracts/EvolveStorage.sol\":4209:4250  presetList[_lastPresetId] = currentPreset */\n      0x00\n      dup3\n      add\n      mload\n      dup2\n      0x00\n      add\n      sstore\n      0x20\n      dup3\n      add\n      mload\n      dup2\n      0x01\n      add\n      sstore\n      0x40\n      dup3\n      add\n      mload\n      dup2\n      0x02\n      add\n      sstore\n      0x60\n      dup3\n      add\n      mload\n      dup2\n      0x03\n      add\n      sstore\n      swap1\n      pop\n      pop\n        /* \"contracts/EvolveStorage.sol\":4277:4278  1 */\n      0x01\n        /* \"contracts/EvolveStorage.sol\":4260:4273  startPresetId */\n      0x03\n      0x00\n        /* \"contracts/EvolveStorage.sol\":4260:4278  startPresetId += 1 */\n      dup3\n      dup3\n      sload\n      tag_135\n      swap2\n      swap1\n      tag_136\n      jump\t// in\n    tag_135:\n      swap3\n      pop\n      pop\n      dup2\n      swap1\n      sstore\n      pop\n        /* \"contracts/EvolveStorage.sol\":4295:4308  _lastPresetId */\n      dup2\n        /* \"contracts/EvolveStorage.sol\":4288:4308  return _lastPresetId */\n      swap3\n      pop\n      pop\n      pop\n        /* \"contracts/EvolveStorage.sol\":3899:4315  function addNewPreset(uint256 _matchPrice, uint256 _numberOfTeamMemebr, uint256 _createAt ) external override ownerOrFactory returns(uint presetId) {... */\n      swap4\n      swap3\n      pop\n      pop\n      pop\n      jump\t// out\n        /* \"contracts/EvolveStorage.sol\":588:639  mapping(uint256 => Competion ) public competionList */\n    tag_45:\n      mstore(0x20, 0x05)\n      dup1\n      0x00\n      mstore\n      keccak256(0x00, 0x40)\n      0x00\n      swap2\n      pop\n      swap1\n      pop\n      dup1\n      0x00\n      add\n      mload(0x40)\n      dup1\n      0x80\n      add\n      0x40\n      mstore\n      swap1\n      dup2\n      0x00\n      dup3\n      add\n      sload\n      dup2\n      mstore\n      0x20\n      add\n      0x01\n      dup3\n      add\n      sload\n      dup2\n      mstore\n      0x20\n      add\n      0x02\n      dup3\n      add\n      sload\n      dup2\n      mstore\n      0x20\n      add\n      0x03\n      dup3\n      add\n      sload\n      dup2\n      mstore\n      pop\n      pop\n      swap1\n      dup1\n      0x06\n      add\n      0x00\n      swap1\n      sload\n      swap1\n      0x0100\n      exp\n      swap1\n      div\n      0xff\n      and\n      swap1\n      dup1\n      0x06\n      add\n      0x01\n      swap1\n      sload\n      swap1\n      0x0100\n      exp\n      swap1\n      div\n      0xff\n      and\n      swap1\n      dup1\n      0x07\n      add\n      sload\n      swap1\n      dup1\n      0x08\n      add\n      sload\n      swap1\n      pop\n      dup6\n      jump\t// out\n        /* \"contracts/EvolveStorage.sol\":3087:3634  function addNewCompetion(uint256 _presetId, address[] memory _teamA, address[] memory _teamB, uint256 _priceRate, uint256 _createAt) external override ownerOrFactory returns(uint competionId){... */\n    tag_51:\n        /* \"contracts/EvolveStorage.sol\":3261:3277  uint competionId */\n      0x00\n        /* \"contracts/EvolveStorage.sol\":936:949  factoryAddrss */\n      0x01\n      0x00\n      swap1\n      sload\n      swap1\n      0x0100\n      exp\n      swap1\n      div\n      0xffffffffffffffffffffffffffffffffffffffff\n      and\n        /* \"contracts/EvolveStorage.sol\":920:949  _msgSender() == factoryAddrss */\n      0xffffffffffffffffffffffffffffffffffffffff\n      and\n        /* \"contracts/EvolveStorage.sol\":920:932  _msgSender() */\n      tag_138\n        /* \"contracts/EvolveStorage.sol\":920:930  _msgSender */\n      tag_79\n        /* \"contracts/EvolveStorage.sol\":920:932  _msgSender() */\n      jump\t// in\n    tag_138:\n        /* \"contracts/EvolveStorage.sol\":920:949  _msgSender() == factoryAddrss */\n      0xffffffffffffffffffffffffffffffffffffffff\n      and\n      eq\n        /* \"contracts/EvolveStorage.sol\":920:976  _msgSender() == factoryAddrss || _msgSender() == owner() */\n      dup1\n      tag_139\n      jumpi\n      pop\n        /* \"contracts/EvolveStorage.sol\":969:976  owner() */\n      tag_140\n        /* \"contracts/EvolveStorage.sol\":969:974  owner */\n      tag_54\n        /* \"contracts/EvolveStorage.sol\":969:976  owner() */\n      jump\t// in\n    tag_140:\n        /* \"contracts/EvolveStorage.sol\":953:976  _msgSender() == owner() */\n      0xffffffffffffffffffffffffffffffffffffffff\n      and\n        /* \"contracts/EvolveStorage.sol\":953:965  _msgSender() */\n      tag_141\n        /* \"contracts/EvolveStorage.sol\":953:963  _msgSender */\n      tag_79\n        /* \"contracts/EvolveStorage.sol\":953:965  _msgSender() */\n      jump\t// in\n    tag_141:\n        /* \"contracts/EvolveStorage.sol\":953:976  _msgSender() == owner() */\n      0xffffffffffffffffffffffffffffffffffffffff\n      and\n      eq\n        /* \"contracts/EvolveStorage.sol\":920:976  _msgSender() == factoryAddrss || _msgSender() == owner() */\n    tag_139:\n        /* \"contracts/EvolveStorage.sol\":920:1000  _msgSender() == factoryAddrss || _msgSender() == owner() || owner() == tx.origin */\n      dup1\n      tag_142\n      jumpi\n      pop\n        /* \"contracts/EvolveStorage.sol\":991:1000  tx.origin */\n      origin\n        /* \"contracts/EvolveStorage.sol\":980:1000  owner() == tx.origin */\n      0xffffffffffffffffffffffffffffffffffffffff\n      and\n        /* \"contracts/EvolveStorage.sol\":980:987  owner() */\n      tag_143\n        /* \"contracts/EvolveStorage.sol\":980:985  owner */\n      tag_54\n        /* \"contracts/EvolveStorage.sol\":980:987  owner() */\n      jump\t// in\n    tag_143:\n        /* \"contracts/EvolveStorage.sol\":980:1000  owner() == tx.origin */\n      0xffffffffffffffffffffffffffffffffffffffff\n      and\n      eq\n        /* \"contracts/EvolveStorage.sol\":920:1000  _msgSender() == factoryAddrss || _msgSender() == owner() || owner() == tx.origin */\n    tag_142:\n        /* \"contracts/EvolveStorage.sol\":912:1059  require(_msgSender() == factoryAddrss || _msgSender() == owner() || owner() == tx.origin , \"To call this method you have to be owner or subAdmin!\") */\n      tag_144\n      jumpi\n      mload(0x40)\n      0x08c379a000000000000000000000000000000000000000000000000000000000\n      dup2\n      mstore\n      0x04\n      add\n      tag_145\n      swap1\n      tag_87\n      jump\t// in\n    tag_145:\n      mload(0x40)\n      dup1\n      swap2\n      sub\n      swap1\n      revert\n    tag_144:\n        /* \"contracts/EvolveStorage.sol\":3296:3325  isExistsPresetList(_presetId) */\n      tag_147\n        /* \"contracts/EvolveStorage.sol\":3315:3324  _presetId */\n      dup7\n        /* \"contracts/EvolveStorage.sol\":3296:3314  isExistsPresetList */\n      tag_148\n        /* \"contracts/EvolveStorage.sol\":3296:3325  isExistsPresetList(_presetId) */\n      jump\t// in\n    tag_147:\n        /* \"contracts/EvolveStorage.sol\":3288:3361  require(isExistsPresetList(_presetId), \"can't find preset with this id!\") */\n      tag_149\n      jumpi\n      mload(0x40)\n      0x08c379a000000000000000000000000000000000000000000000000000000000\n      dup2\n      mstore\n      0x04\n      add\n      tag_150\n      swap1\n      tag_151\n      jump\t// in\n    tag_150:\n      mload(0x40)\n      dup1\n      swap2\n      sub\n      swap1\n      revert\n    tag_149:\n        /* \"contracts/EvolveStorage.sol\":3407:3524  Competion(presetList[_presetId],_teamA, _teamB, CompetionStatus.PENDING, CompetionWinner.OPEN, _priceRate, _createAt) */\n      mload(0x40)\n      dup1\n      0xe0\n      add\n      0x40\n      mstore\n      dup1\n        /* \"contracts/EvolveStorage.sol\":3417:3427  presetList */\n      0x04\n        /* \"contracts/EvolveStorage.sol\":3417:3438  presetList[_presetId] */\n      0x00\n        /* \"contracts/EvolveStorage.sol\":3428:3437  _presetId */\n      dup10\n        /* \"contracts/EvolveStorage.sol\":3417:3438  presetList[_presetId] */\n      dup2\n      mstore\n      0x20\n      add\n      swap1\n      dup2\n      mstore\n      0x20\n      add\n      0x00\n      keccak256\n        /* \"contracts/EvolveStorage.sol\":3407:3524  Competion(presetList[_presetId],_teamA, _teamB, CompetionStatus.PENDING, CompetionWinner.OPEN, _priceRate, _createAt) */\n      mload(0x40)\n      dup1\n      0x80\n      add\n      0x40\n      mstore\n      swap1\n      dup2\n      0x00\n      dup3\n      add\n      sload\n      dup2\n      mstore\n      0x20\n      add\n      0x01\n      dup3\n      add\n      sload\n      dup2\n      mstore\n      0x20\n      add\n      0x02\n      dup3\n      add\n      sload\n      dup2\n      mstore\n      0x20\n      add\n      0x03\n      dup3\n      add\n      sload\n      dup2\n      mstore\n      pop\n      pop\n      dup2\n      mstore\n      0x20\n      add\n        /* \"contracts/EvolveStorage.sol\":3439:3445  _teamA */\n      dup7\n        /* \"contracts/EvolveStorage.sol\":3407:3524  Competion(presetList[_presetId],_teamA, _teamB, CompetionStatus.PENDING, CompetionWinner.OPEN, _priceRate, _createAt) */\n      dup2\n      mstore\n      0x20\n      add\n        /* \"contracts/EvolveStorage.sol\":3447:3453  _teamB */\n      dup6\n        /* \"contracts/EvolveStorage.sol\":3407:3524  Competion(presetList[_presetId],_teamA, _teamB, CompetionStatus.PENDING, CompetionWinner.OPEN, _priceRate, _createAt) */\n      dup2\n      mstore\n      0x20\n      add\n        /* \"contracts/EvolveStorage.sol\":3455:3478  CompetionStatus.PENDING */\n      0x00\n        /* \"contracts/EvolveStorage.sol\":3407:3524  Competion(presetList[_presetId],_teamA, _teamB, CompetionStatus.PENDING, CompetionWinner.OPEN, _priceRate, _createAt) */\n      0x02\n      dup2\n      gt\n      iszero\n      tag_152\n      jumpi\n      tag_153\n      tag_101\n      jump\t// in\n    tag_153:\n    tag_152:\n      dup2\n      mstore\n      0x20\n      add\n        /* \"contracts/EvolveStorage.sol\":3480:3500  CompetionWinner.OPEN */\n      0x03\n        /* \"contracts/EvolveStorage.sol\":3407:3524  Competion(presetList[_presetId],_teamA, _teamB, CompetionStatus.PENDING, CompetionWinner.OPEN, _priceRate, _createAt) */\n      dup1\n      dup2\n      gt\n      iszero\n      tag_154\n      jumpi\n      tag_155\n      tag_101\n      jump\t// in\n    tag_155:\n    tag_154:\n      dup2\n      mstore\n      0x20\n      add\n        /* \"contracts/EvolveStorage.sol\":3502:3512  _priceRate */\n      dup5\n        /* \"contracts/EvolveStorage.sol\":3407:3524  Competion(presetList[_presetId],_teamA, _teamB, CompetionStatus.PENDING, CompetionWinner.OPEN, _priceRate, _createAt) */\n      dup2\n      mstore\n      0x20\n      add\n        /* \"contracts/EvolveStorage.sol\":3514:3523  _createAt */\n      dup4\n        /* \"contracts/EvolveStorage.sol\":3407:3524  Competion(presetList[_presetId],_teamA, _teamB, CompetionStatus.PENDING, CompetionWinner.OPEN, _priceRate, _createAt) */\n      dup2\n      mstore\n      pop\n        /* \"contracts/EvolveStorage.sol\":3371:3384  competionList */\n      0x05\n        /* \"contracts/EvolveStorage.sol\":3371:3404  competionList[startCompetitionId] */\n      0x00\n        /* \"contracts/EvolveStorage.sol\":3385:3403  startCompetitionId */\n      sload(0x02)\n        /* \"contracts/EvolveStorage.sol\":3371:3404  competionList[startCompetitionId] */\n      dup2\n      mstore\n      0x20\n      add\n      swap1\n      dup2\n      mstore\n      0x20\n      add\n      0x00\n      keccak256\n        /* \"contracts/EvolveStorage.sol\":3371:3524  competionList[startCompetitionId] = Competion(presetList[_presetId],_teamA, _teamB, CompetionStatus.PENDING, CompetionWinner.OPEN, _priceRate, _createAt) */\n      0x00\n      dup3\n      add\n      mload\n      dup2\n      0x00\n      add\n      0x00\n      dup3\n      add\n      mload\n      dup2\n      0x00\n      add\n      sstore\n      0x20\n      dup3\n      add\n      mload\n      dup2\n      0x01\n      add\n      sstore\n      0x40\n      dup3\n      add\n      mload\n      dup2\n      0x02\n      add\n      sstore\n      0x60\n      dup3\n      add\n      mload\n      dup2\n      0x03\n      add\n      sstore\n      pop\n      pop\n      0x20\n      dup3\n      add\n      mload\n      dup2\n      0x04\n      add\n      swap1\n      dup1\n      mload\n      swap1\n      0x20\n      add\n      swap1\n      tag_156\n      swap3\n      swap2\n      swap1\n      tag_157\n      jump\t// in\n    tag_156:\n      pop\n      0x40\n      dup3\n      add\n      mload\n      dup2\n      0x05\n      add\n      swap1\n      dup1\n      mload\n      swap1\n      0x20\n      add\n      swap1\n      tag_158\n      swap3\n      swap2\n      swap1\n      tag_157\n      jump\t// in\n    tag_158:\n      pop\n      0x60\n      dup3\n      add\n      mload\n      dup2\n      0x06\n      add\n      exp(0x0100, 0x00)\n      dup2\n      sload\n      dup2\n      0xff\n      mul\n      not\n      and\n      swap1\n      dup4\n      0x02\n      dup2\n      gt\n      iszero\n      tag_159\n      jumpi\n      tag_160\n      tag_101\n      jump\t// in\n    tag_160:\n    tag_159:\n      mul\n      or\n      swap1\n      sstore\n      pop\n      0x80\n      dup3\n      add\n      mload\n      dup2\n      0x06\n      add\n      exp(0x0100, 0x01)\n      dup2\n      sload\n      dup2\n      0xff\n      mul\n      not\n      and\n      swap1\n      dup4\n      0x03\n      dup2\n      gt\n      iszero\n      tag_161\n      jumpi\n      tag_162\n      tag_101\n      jump\t// in\n    tag_162:\n    tag_161:\n      mul\n      or\n      swap1\n      sstore\n      pop\n      0xa0\n      dup3\n      add\n      mload\n      dup2\n      0x07\n      add\n      sstore\n      0xc0\n      dup3\n      add\n      mload\n      dup2\n      0x08\n      add\n      sstore\n      swap1\n      pop\n      pop\n        /* \"contracts/EvolveStorage.sol\":3548:3566  startCompetitionId */\n      sload(0x02)\n        /* \"contracts/EvolveStorage.sol\":3534:3566  competionId = startCompetitionId */\n      swap1\n      pop\n        /* \"contracts/EvolveStorage.sol\":3598:3599  1 */\n      0x01\n        /* \"contracts/EvolveStorage.sol\":3576:3594  startCompetitionId */\n      0x02\n      0x00\n        /* \"contracts/EvolveStorage.sol\":3576:3599  startCompetitionId += 1 */\n      dup3\n      dup3\n      sload\n      tag_163\n      swap2\n      swap1\n      tag_136\n      jump\t// in\n    tag_163:\n      swap3\n      pop\n      pop\n      dup2\n      swap1\n      sstore\n      pop\n        /* \"contracts/EvolveStorage.sol\":3087:3634  function addNewCompetion(uint256 _presetId, address[] memory _teamA, address[] memory _teamB, uint256 _priceRate, uint256 _createAt) external override ownerOrFactory returns(uint competionId){... */\n      swap6\n      swap5\n      pop\n      pop\n      pop\n      pop\n      pop\n      jump\t// out\n        /* \"@openzeppelin/contracts/access/Ownable.sol\":1036:1121  function owner() public view virtual returns (address) {... */\n    tag_54:\n        /* \"@openzeppelin/contracts/access/Ownable.sol\":1082:1089  address */\n      0x00\n        /* \"@openzeppelin/contracts/access/Ownable.sol\":1108:1114  _owner */\n      dup1\n      0x00\n      swap1\n      sload\n      swap1\n      0x0100\n      exp\n      swap1\n      div\n      0xffffffffffffffffffffffffffffffffffffffff\n      and\n        /* \"@openzeppelin/contracts/access/Ownable.sol\":1101:1114  return _owner */\n      swap1\n      pop\n        /* \"@openzeppelin/contracts/access/Ownable.sol\":1036:1121  function owner() public view virtual returns (address) {... */\n      swap1\n      jump\t// out\n        /* \"contracts/EvolveStorage.sol\":1567:2352  function updateCompetionWinner(uint _competionId, uint8 _winnerTeam) external override ownerOrFactory returns(bool){... */\n    tag_59:\n        /* \"contracts/EvolveStorage.sol\":1677:1681  bool */\n      0x00\n        /* \"contracts/EvolveStorage.sol\":936:949  factoryAddrss */\n      0x01\n      0x00\n      swap1\n      sload\n      swap1\n      0x0100\n      exp\n      swap1\n      div\n      0xffffffffffffffffffffffffffffffffffffffff\n      and\n        /* \"contracts/EvolveStorage.sol\":920:949  _msgSender() == factoryAddrss */\n      0xffffffffffffffffffffffffffffffffffffffff\n      and\n        /* \"contracts/EvolveStorage.sol\":920:932  _msgSender() */\n      tag_166\n        /* \"contracts/EvolveStorage.sol\":920:930  _msgSender */\n      tag_79\n        /* \"contracts/EvolveStorage.sol\":920:932  _msgSender() */\n      jump\t// in\n    tag_166:\n        /* \"contracts/EvolveStorage.sol\":920:949  _msgSender() == factoryAddrss */\n      0xffffffffffffffffffffffffffffffffffffffff\n      and\n      eq\n        /* \"contracts/EvolveStorage.sol\":920:976  _msgSender() == factoryAddrss || _msgSender() == owner() */\n      dup1\n      tag_167\n      jumpi\n      pop\n        /* \"contracts/EvolveStorage.sol\":969:976  owner() */\n      tag_168\n        /* \"contracts/EvolveStorage.sol\":969:974  owner */\n      tag_54\n        /* \"contracts/EvolveStorage.sol\":969:976  owner() */\n      jump\t// in\n    tag_168:\n        /* \"contracts/EvolveStorage.sol\":953:976  _msgSender() == owner() */\n      0xffffffffffffffffffffffffffffffffffffffff\n      and\n        /* \"contracts/EvolveStorage.sol\":953:965  _msgSender() */\n      tag_169\n        /* \"contracts/EvolveStorage.sol\":953:963  _msgSender */\n      tag_79\n        /* \"contracts/EvolveStorage.sol\":953:965  _msgSender() */\n      jump\t// in\n    tag_169:\n        /* \"contracts/EvolveStorage.sol\":953:976  _msgSender() == owner() */\n      0xffffffffffffffffffffffffffffffffffffffff\n      and\n      eq\n        /* \"contracts/EvolveStorage.sol\":920:976  _msgSender() == factoryAddrss || _msgSender() == owner() */\n    tag_167:\n        /* \"contracts/EvolveStorage.sol\":920:1000  _msgSender() == factoryAddrss || _msgSender() == owner() || owner() == tx.origin */\n      dup1\n      tag_170\n      jumpi\n      pop\n        /* \"contracts/EvolveStorage.sol\":991:1000  tx.origin */\n      origin\n        /* \"contracts/EvolveStorage.sol\":980:1000  owner() == tx.origin */\n      0xffffffffffffffffffffffffffffffffffffffff\n      and\n        /* \"contracts/EvolveStorage.sol\":980:987  owner() */\n      tag_171\n        /* \"contracts/EvolveStorage.sol\":980:985  owner */\n      tag_54\n        /* \"contracts/EvolveStorage.sol\":980:987  owner() */\n      jump\t// in\n    tag_171:\n        /* \"contracts/EvolveStorage.sol\":980:1000  owner() == tx.origin */\n      0xffffffffffffffffffffffffffffffffffffffff\n      and\n      eq\n        /* \"contracts/EvolveStorage.sol\":920:1000  _msgSender() == factoryAddrss || _msgSender() == owner() || owner() == tx.origin */\n    tag_170:\n        /* \"contracts/EvolveStorage.sol\":912:1059  require(_msgSender() == factoryAddrss || _msgSender() == owner() || owner() == tx.origin , \"To call this method you have to be owner or subAdmin!\") */\n      tag_172\n      jumpi\n      mload(0x40)\n      0x08c379a000000000000000000000000000000000000000000000000000000000\n      dup2\n      mstore\n      0x04\n      add\n      tag_173\n      swap1\n      tag_87\n      jump\t// in\n    tag_173:\n      mload(0x40)\n      dup1\n      swap2\n      sub\n      swap1\n      revert\n    tag_172:\n        /* \"contracts/EvolveStorage.sol\":1700:1735  isExistsCompetionList(_competionId) */\n      tag_175\n        /* \"contracts/EvolveStorage.sol\":1722:1734  _competionId */\n      dup4\n        /* \"contracts/EvolveStorage.sol\":1700:1721  isExistsCompetionList */\n      tag_90\n        /* \"contracts/EvolveStorage.sol\":1700:1735  isExistsCompetionList(_competionId) */\n      jump\t// in\n    tag_175:\n        /* \"contracts/EvolveStorage.sol\":1692:1783  require(isExistsCompetionList(_competionId), \"can't find competion with this competionId!\") */\n      tag_176\n      jumpi\n      mload(0x40)\n      0x08c379a000000000000000000000000000000000000000000000000000000000\n      dup2\n      mstore\n      0x04\n      add\n      tag_177\n      swap1\n      tag_93\n      jump\t// in\n    tag_177:\n      mload(0x40)\n      dup1\n      swap2\n      sub\n      swap1\n      revert\n    tag_176:\n        /* \"contracts/EvolveStorage.sol\":1816:1817  0 */\n      0x00\n        /* \"contracts/EvolveStorage.sol\":1801:1812  _winnerTeam */\n      dup3\n        /* \"contracts/EvolveStorage.sol\":1801:1817  _winnerTeam >= 0 */\n      0xff\n      and\n      lt\n      iszero\n        /* \"contracts/EvolveStorage.sol\":1801:1837  _winnerTeam >= 0 && _winnerTeam <= 3 */\n      dup1\n      iszero\n      tag_178\n      jumpi\n      pop\n        /* \"contracts/EvolveStorage.sol\":1836:1837  3 */\n      0x03\n        /* \"contracts/EvolveStorage.sol\":1821:1832  _winnerTeam */\n      dup3\n        /* \"contracts/EvolveStorage.sol\":1821:1837  _winnerTeam <= 3 */\n      0xff\n      and\n      gt\n      iszero\n        /* \"contracts/EvolveStorage.sol\":1801:1837  _winnerTeam >= 0 && _winnerTeam <= 3 */\n    tag_178:\n        /* \"contracts/EvolveStorage.sol\":1793:1882  require(_winnerTeam >= 0 && _winnerTeam <= 3, \"winner need to be somting between 0 to 3\") */\n      tag_179\n      jumpi\n      mload(0x40)\n      0x08c379a000000000000000000000000000000000000000000000000000000000\n      dup2\n      mstore\n      0x04\n      add\n      tag_180\n      swap1\n      tag_181\n      jump\t// in\n    tag_180:\n      mload(0x40)\n      dup1\n      swap2\n      sub\n      swap1\n      revert\n    tag_179:\n        /* \"contracts/EvolveStorage.sol\":1892:1919  Competion storage competion */\n      0x00\n        /* \"contracts/EvolveStorage.sol\":1922:1935  competionList */\n      0x05\n        /* \"contracts/EvolveStorage.sol\":1922:1949  competionList[_competionId] */\n      0x00\n        /* \"contracts/EvolveStorage.sol\":1936:1948  _competionId */\n      dup6\n        /* \"contracts/EvolveStorage.sol\":1922:1949  competionList[_competionId] */\n      dup2\n      mstore\n      0x20\n      add\n      swap1\n      dup2\n      mstore\n      0x20\n      add\n      0x00\n      keccak256\n        /* \"contracts/EvolveStorage.sol\":1892:1949  Competion storage competion = competionList[_competionId] */\n      swap1\n      pop\n        /* \"contracts/EvolveStorage.sol\":1977:1978  0 */\n      0x00\n        /* \"contracts/EvolveStorage.sol\":1962:1973  _winnerTeam */\n      dup4\n        /* \"contracts/EvolveStorage.sol\":1962:1978  _winnerTeam == 0 */\n      0xff\n      and\n      eq\n        /* \"contracts/EvolveStorage.sol\":1959:2316  if(_winnerTeam == 0){... */\n      iszero\n      tag_182\n      jumpi\n        /* \"contracts/EvolveStorage.sol\":2013:2034  CompetionWinner.TEAMA */\n      0x00\n        /* \"contracts/EvolveStorage.sol\":1993:2002  competion */\n      dup2\n        /* \"contracts/EvolveStorage.sol\":1993:2010  competion.winners */\n      0x06\n      add\n      0x01\n        /* \"contracts/EvolveStorage.sol\":1993:2034  competion.winners = CompetionWinner.TEAMA */\n      0x0100\n      exp\n      dup2\n      sload\n      dup2\n      0xff\n      mul\n      not\n      and\n      swap1\n      dup4\n      0x03\n      dup2\n      gt\n      iszero\n      tag_183\n      jumpi\n      tag_184\n      tag_101\n      jump\t// in\n    tag_184:\n    tag_183:\n      mul\n      or\n      swap1\n      sstore\n      pop\n        /* \"contracts/EvolveStorage.sol\":1959:2316  if(_winnerTeam == 0){... */\n      jump(tag_185)\n    tag_182:\n        /* \"contracts/EvolveStorage.sol\":2068:2069  1 */\n      0x01\n        /* \"contracts/EvolveStorage.sol\":2053:2064  _winnerTeam */\n      dup4\n        /* \"contracts/EvolveStorage.sol\":2053:2069  _winnerTeam == 1 */\n      0xff\n      and\n      eq\n        /* \"contracts/EvolveStorage.sol\":2050:2316  if(_winnerTeam == 1){... */\n      iszero\n      tag_186\n      jumpi\n        /* \"contracts/EvolveStorage.sol\":2104:2125  CompetionWinner.TEAMB */\n      0x01\n        /* \"contracts/EvolveStorage.sol\":2084:2093  competion */\n      dup2\n        /* \"contracts/EvolveStorage.sol\":2084:2101  competion.winners */\n      0x06\n      add\n      0x01\n        /* \"contracts/EvolveStorage.sol\":2084:2125  competion.winners = CompetionWinner.TEAMB */\n      0x0100\n      exp\n      dup2\n      sload\n      dup2\n      0xff\n      mul\n      not\n      and\n      swap1\n      dup4\n      0x03\n      dup2\n      gt\n      iszero\n      tag_187\n      jumpi\n      tag_188\n      tag_101\n      jump\t// in\n    tag_188:\n    tag_187:\n      mul\n      or\n      swap1\n      sstore\n      pop\n        /* \"contracts/EvolveStorage.sol\":2050:2316  if(_winnerTeam == 1){... */\n      jump(tag_189)\n    tag_186:\n        /* \"contracts/EvolveStorage.sol\":2159:2160  2 */\n      0x02\n        /* \"contracts/EvolveStorage.sol\":2144:2155  _winnerTeam */\n      dup4\n        /* \"contracts/EvolveStorage.sol\":2144:2160  _winnerTeam == 2 */\n      0xff\n      and\n      eq\n        /* \"contracts/EvolveStorage.sol\":2141:2316  if(_winnerTeam == 2){... */\n      iszero\n      tag_190\n      jumpi\n        /* \"contracts/EvolveStorage.sol\":2195:2215  CompetionWinner.DRAW */\n      0x02\n        /* \"contracts/EvolveStorage.sol\":2175:2184  competion */\n      dup2\n        /* \"contracts/EvolveStorage.sol\":2175:2192  competion.winners */\n      0x06\n      add\n      0x01\n        /* \"contracts/EvolveStorage.sol\":2175:2215  competion.winners = CompetionWinner.DRAW */\n      0x0100\n      exp\n      dup2\n      sload\n      dup2\n      0xff\n      mul\n      not\n      and\n      swap1\n      dup4\n      0x03\n      dup2\n      gt\n      iszero\n      tag_191\n      jumpi\n      tag_192\n      tag_101\n      jump\t// in\n    tag_192:\n    tag_191:\n      mul\n      or\n      swap1\n      sstore\n      pop\n        /* \"contracts/EvolveStorage.sol\":2141:2316  if(_winnerTeam == 2){... */\n      jump(tag_193)\n    tag_190:\n        /* \"contracts/EvolveStorage.sol\":2249:2250  3 */\n      0x03\n        /* \"contracts/EvolveStorage.sol\":2234:2245  _winnerTeam */\n      dup4\n        /* \"contracts/EvolveStorage.sol\":2234:2250  _winnerTeam == 3 */\n      0xff\n      and\n      eq\n        /* \"contracts/EvolveStorage.sol\":2231:2316  if(_winnerTeam == 3){... */\n      iszero\n      tag_194\n      jumpi\n        /* \"contracts/EvolveStorage.sol\":2285:2305  CompetionWinner.OPEN */\n      0x03\n        /* \"contracts/EvolveStorage.sol\":2265:2274  competion */\n      dup2\n        /* \"contracts/EvolveStorage.sol\":2265:2282  competion.winners */\n      0x06\n      add\n      0x01\n        /* \"contracts/EvolveStorage.sol\":2265:2305  competion.winners = CompetionWinner.OPEN */\n      0x0100\n      exp\n      dup2\n      sload\n      dup2\n      0xff\n      mul\n      not\n      and\n      swap1\n      dup4\n      0x03\n      dup2\n      gt\n      iszero\n      tag_195\n      jumpi\n      tag_196\n      tag_101\n      jump\t// in\n    tag_196:\n    tag_195:\n      mul\n      or\n      swap1\n      sstore\n      pop\n        /* \"contracts/EvolveStorage.sol\":2231:2316  if(_winnerTeam == 3){... */\n    tag_194:\n        /* \"contracts/EvolveStorage.sol\":2141:2316  if(_winnerTeam == 2){... */\n    tag_193:\n        /* \"contracts/EvolveStorage.sol\":2050:2316  if(_winnerTeam == 1){... */\n    tag_189:\n        /* \"contracts/EvolveStorage.sol\":1959:2316  if(_winnerTeam == 0){... */\n    tag_185:\n        /* \"contracts/EvolveStorage.sol\":2341:2345  true */\n      0x01\n        /* \"contracts/EvolveStorage.sol\":2334:2345  return true */\n      swap2\n      pop\n      pop\n        /* \"contracts/EvolveStorage.sol\":1567:2352  function updateCompetionWinner(uint _competionId, uint8 _winnerTeam) external override ownerOrFactory returns(bool){... */\n      swap3\n      swap2\n      pop\n      pop\n      jump\t// out\n        /* \"contracts/EvolveStorage.sol\":4427:4639  function getPreset(uint256 _presetId) external view override returns(uint256 matchPrice,uint256 numberOfTeamMemebr){... */\n    tag_63:\n        /* \"contracts/EvolveStorage.sol\":4496:4514  uint256 matchPrice */\n      0x00\n        /* \"contracts/EvolveStorage.sol\":4515:4541  uint256 numberOfTeamMemebr */\n      dup1\n        /* \"contracts/EvolveStorage.sol\":4557:4567  presetList */\n      0x04\n        /* \"contracts/EvolveStorage.sol\":4557:4578  presetList[_presetId] */\n      0x00\n        /* \"contracts/EvolveStorage.sol\":4568:4577  _presetId */\n      dup5\n        /* \"contracts/EvolveStorage.sol\":4557:4578  presetList[_presetId] */\n      dup2\n      mstore\n      0x20\n      add\n      swap1\n      dup2\n      mstore\n      0x20\n      add\n      0x00\n      keccak256\n        /* \"contracts/EvolveStorage.sol\":4557:4589  presetList[_presetId].matchPrice */\n      0x00\n      add\n      sload\n        /* \"contracts/EvolveStorage.sol\":4591:4601  presetList */\n      0x04\n        /* \"contracts/EvolveStorage.sol\":4591:4612  presetList[_presetId] */\n      0x00\n        /* \"contracts/EvolveStorage.sol\":4602:4611  _presetId */\n      dup6\n        /* \"contracts/EvolveStorage.sol\":4591:4612  presetList[_presetId] */\n      dup2\n      mstore\n      0x20\n      add\n      swap1\n      dup2\n      mstore\n      0x20\n      add\n      0x00\n      keccak256\n        /* \"contracts/EvolveStorage.sol\":4591:4631  presetList[_presetId].numberOfTeamMemebr */\n      0x01\n      add\n      sload\n        /* \"contracts/EvolveStorage.sol\":4549:4632  return (presetList[_presetId].matchPrice, presetList[_presetId].numberOfTeamMemebr) */\n      swap2\n      pop\n      swap2\n      pop\n        /* \"contracts/EvolveStorage.sol\":4427:4639  function getPreset(uint256 _presetId) external view override returns(uint256 matchPrice,uint256 numberOfTeamMemebr){... */\n      swap2\n      pop\n      swap2\n      jump\t// out\n        /* \"contracts/EvolveStorage.sol\":401:429  address public factoryAddrss */\n    tag_67:\n      0x01\n      0x00\n      swap1\n      sload\n      swap1\n      0x0100\n      exp\n      swap1\n      div\n      0xffffffffffffffffffffffffffffffffffffffff\n      and\n      dup2\n      jump\t// out\n        /* \"contracts/EvolveStorage.sol\":4645:5378  function getCompetion(uint256 _competionId) external view override ... */\n    tag_71:\n        /* \"contracts/EvolveStorage.sol\":4729:4748  uint256 presetPrice */\n      0x00\n        /* \"contracts/EvolveStorage.sol\":4749:4768  uint256 playerCount */\n      dup1\n        /* \"contracts/EvolveStorage.sol\":4769:4792  address[] memory _teamA */\n      0x60\n        /* \"contracts/EvolveStorage.sol\":4794:4817  address[] memory _teamB */\n      dup1\n        /* \"contracts/EvolveStorage.sol\":4819:4840  uint _competionStatus */\n      0x00\n        /* \"contracts/EvolveStorage.sol\":4842:4863  uint _competionWinner */\n      dup1\n        /* \"contracts/EvolveStorage.sol\":4865:4883  uint256 _priceRate */\n      0x00\n        /* \"contracts/EvolveStorage.sol\":4894:4923  Preset memory competionPreset */\n      dup1\n        /* \"contracts/EvolveStorage.sol\":4926:4939  competionList */\n      0x05\n        /* \"contracts/EvolveStorage.sol\":4926:4953  competionList[_competionId] */\n      0x00\n        /* \"contracts/EvolveStorage.sol\":4940:4952  _competionId */\n      dup11\n        /* \"contracts/EvolveStorage.sol\":4926:4953  competionList[_competionId] */\n      dup2\n      mstore\n      0x20\n      add\n      swap1\n      dup2\n      mstore\n      0x20\n      add\n      0x00\n      keccak256\n        /* \"contracts/EvolveStorage.sol\":4926:4960  competionList[_competionId].preset */\n      0x00\n      add\n        /* \"contracts/EvolveStorage.sol\":4894:4960  Preset memory competionPreset = competionList[_competionId].preset */\n      mload(0x40)\n      dup1\n      0x80\n      add\n      0x40\n      mstore\n      swap1\n      dup2\n      0x00\n      dup3\n      add\n      sload\n      dup2\n      mstore\n      0x20\n      add\n      0x01\n      dup3\n      add\n      sload\n      dup2\n      mstore\n      0x20\n      add\n      0x02\n      dup3\n      add\n      sload\n      dup2\n      mstore\n      0x20\n      add\n      0x03\n      dup3\n      add\n      sload\n      dup2\n      mstore\n      pop\n      pop\n      swap1\n      pop\n        /* \"contracts/EvolveStorage.sol\":4984:4999  competionPreset */\n      dup1\n        /* \"contracts/EvolveStorage.sol\":4984:5010  competionPreset.matchPrice */\n      0x00\n      add\n      mload\n        /* \"contracts/EvolveStorage.sol\":4970:5010  presetPrice = competionPreset.matchPrice */\n      swap8\n      pop\n        /* \"contracts/EvolveStorage.sol\":5034:5049  competionPreset */\n      dup1\n        /* \"contracts/EvolveStorage.sol\":5034:5068  competionPreset.numberOfTeamMemebr */\n      0x20\n      add\n      mload\n        /* \"contracts/EvolveStorage.sol\":5020:5068  playerCount = competionPreset.numberOfTeamMemebr */\n      swap7\n      pop\n        /* \"contracts/EvolveStorage.sol\":5087:5100  competionList */\n      0x05\n        /* \"contracts/EvolveStorage.sol\":5087:5114  competionList[_competionId] */\n      0x00\n        /* \"contracts/EvolveStorage.sol\":5101:5113  _competionId */\n      dup11\n        /* \"contracts/EvolveStorage.sol\":5087:5114  competionList[_competionId] */\n      dup2\n      mstore\n      0x20\n      add\n      swap1\n      dup2\n      mstore\n      0x20\n      add\n      0x00\n      keccak256\n        /* \"contracts/EvolveStorage.sol\":5087:5120  competionList[_competionId].teamA */\n      0x04\n      add\n        /* \"contracts/EvolveStorage.sol\":5078:5120  _teamA = competionList[_competionId].teamA */\n      dup1\n      sload\n      dup1\n      0x20\n      mul\n      0x20\n      add\n      mload(0x40)\n      swap1\n      dup2\n      add\n      0x40\n      mstore\n      dup1\n      swap3\n      swap2\n      swap1\n      dup2\n      dup2\n      mstore\n      0x20\n      add\n      dup3\n      dup1\n      sload\n      dup1\n      iszero\n      tag_199\n      jumpi\n      0x20\n      mul\n      dup3\n      add\n      swap2\n      swap1\n      0x00\n      mstore\n      keccak256(0x00, 0x20)\n      swap1\n    tag_200:\n      dup2\n      0x00\n      swap1\n      sload\n      swap1\n      0x0100\n      exp\n      swap1\n      div\n      0xffffffffffffffffffffffffffffffffffffffff\n      and\n      0xffffffffffffffffffffffffffffffffffffffff\n      and\n      dup2\n      mstore\n      0x20\n      add\n      swap1\n      0x01\n      add\n      swap1\n      dup1\n      dup4\n      gt\n      tag_200\n      jumpi\n    tag_199:\n      pop\n      pop\n      pop\n      pop\n      pop\n      swap6\n      pop\n        /* \"contracts/EvolveStorage.sol\":5139:5152  competionList */\n      0x05\n        /* \"contracts/EvolveStorage.sol\":5139:5166  competionList[_competionId] */\n      0x00\n        /* \"contracts/EvolveStorage.sol\":5153:5165  _competionId */\n      dup11\n        /* \"contracts/EvolveStorage.sol\":5139:5166  competionList[_competionId] */\n      dup2\n      mstore\n      0x20\n      add\n      swap1\n      dup2\n      mstore\n      0x20\n      add\n      0x00\n      keccak256\n        /* \"contracts/EvolveStorage.sol\":5139:5172  competionList[_competionId].teamB */\n      0x05\n      add\n        /* \"contracts/EvolveStorage.sol\":5130:5172  _teamB = competionList[_competionId].teamB */\n      dup1\n      sload\n      dup1\n      0x20\n      mul\n      0x20\n      add\n      mload(0x40)\n      swap1\n      dup2\n      add\n      0x40\n      mstore\n      dup1\n      swap3\n      swap2\n      swap1\n      dup2\n      dup2\n      mstore\n      0x20\n      add\n      dup3\n      dup1\n      sload\n      dup1\n      iszero\n      tag_201\n      jumpi\n      0x20\n      mul\n      dup3\n      add\n      swap2\n      swap1\n      0x00\n      mstore\n      keccak256(0x00, 0x20)\n      swap1\n    tag_202:\n      dup2\n      0x00\n      swap1\n      sload\n      swap1\n      0x0100\n      exp\n      swap1\n      div\n      0xffffffffffffffffffffffffffffffffffffffff\n      and\n      0xffffffffffffffffffffffffffffffffffffffff\n      and\n      dup2\n      mstore\n      0x20\n      add\n      swap1\n      0x01\n      add\n      swap1\n      dup1\n      dup4\n      gt\n      tag_202\n      jumpi\n    tag_201:\n      pop\n      pop\n      pop\n      pop\n      pop\n      swap5\n      pop\n        /* \"contracts/EvolveStorage.sol\":5206:5219  competionList */\n      0x05\n        /* \"contracts/EvolveStorage.sol\":5206:5233  competionList[_competionId] */\n      0x00\n        /* \"contracts/EvolveStorage.sol\":5220:5232  _competionId */\n      dup11\n        /* \"contracts/EvolveStorage.sol\":5206:5233  competionList[_competionId] */\n      dup2\n      mstore\n      0x20\n      add\n      swap1\n      dup2\n      mstore\n      0x20\n      add\n      0x00\n      keccak256\n        /* \"contracts/EvolveStorage.sol\":5206:5240  competionList[_competionId].status */\n      0x06\n      add\n      0x00\n      swap1\n      sload\n      swap1\n      0x0100\n      exp\n      swap1\n      div\n      0xff\n      and\n        /* \"contracts/EvolveStorage.sol\":5201:5241  uint(competionList[_competionId].status) */\n      0x02\n      dup2\n      gt\n      iszero\n      tag_203\n      jumpi\n      tag_204\n      tag_101\n      jump\t// in\n    tag_204:\n    tag_203:\n        /* \"contracts/EvolveStorage.sol\":5182:5241  _competionStatus = uint(competionList[_competionId].status) */\n      swap4\n      pop\n        /* \"contracts/EvolveStorage.sol\":5275:5288  competionList */\n      0x05\n        /* \"contracts/EvolveStorage.sol\":5275:5302  competionList[_competionId] */\n      0x00\n        /* \"contracts/EvolveStorage.sol\":5289:5301  _competionId */\n      dup11\n        /* \"contracts/EvolveStorage.sol\":5275:5302  competionList[_competionId] */\n      dup2\n      mstore\n      0x20\n      add\n      swap1\n      dup2\n      mstore\n      0x20\n      add\n      0x00\n      keccak256\n        /* \"contracts/EvolveStorage.sol\":5275:5310  competionList[_competionId].winners */\n      0x06\n      add\n      0x01\n      swap1\n      sload\n      swap1\n      0x0100\n      exp\n      swap1\n      div\n      0xff\n      and\n        /* \"contracts/EvolveStorage.sol\":5270:5311  uint(competionList[_competionId].winners) */\n      0x03\n      dup2\n      gt\n      iszero\n      tag_205\n      jumpi\n      tag_206\n      tag_101\n      jump\t// in\n    tag_206:\n    tag_205:\n        /* \"contracts/EvolveStorage.sol\":5251:5311  _competionWinner = uint(competionList[_competionId].winners) */\n      swap3\n      pop\n        /* \"contracts/EvolveStorage.sol\":5334:5347  competionList */\n      0x05\n        /* \"contracts/EvolveStorage.sol\":5334:5361  competionList[_competionId] */\n      0x00\n        /* \"contracts/EvolveStorage.sol\":5348:5360  _competionId */\n      dup11\n        /* \"contracts/EvolveStorage.sol\":5334:5361  competionList[_competionId] */\n      dup2\n      mstore\n      0x20\n      add\n      swap1\n      dup2\n      mstore\n      0x20\n      add\n      0x00\n      keccak256\n        /* \"contracts/EvolveStorage.sol\":5334:5371  competionList[_competionId].priceRate */\n      0x07\n      add\n      sload\n        /* \"contracts/EvolveStorage.sol\":5321:5371  _priceRate = competionList[_competionId].priceRate */\n      swap2\n      pop\n        /* \"contracts/EvolveStorage.sol\":4884:5378  {... */\n      pop\n        /* \"contracts/EvolveStorage.sol\":4645:5378  function getCompetion(uint256 _competionId) external view override ... */\n      swap2\n      swap4\n      swap6\n      swap8\n      swap1\n      swap3\n      swap5\n      swap7\n      pop\n      jump\t// out\n        /* \"@openzeppelin/contracts/access/Ownable.sol\":1918:2116  function transferOwnership(address newOwner) public virtual onlyOwner {... */\n    tag_76:\n        /* \"@openzeppelin/contracts/access/Ownable.sol\":1259:1271  _msgSender() */\n      tag_208\n        /* \"@openzeppelin/contracts/access/Ownable.sol\":1259:1269  _msgSender */\n      tag_79\n        /* \"@openzeppelin/contracts/access/Ownable.sol\":1259:1271  _msgSender() */\n      jump\t// in\n    tag_208:\n        /* \"@openzeppelin/contracts/access/Ownable.sol\":1248:1271  owner() == _msgSender() */\n      0xffffffffffffffffffffffffffffffffffffffff\n      and\n        /* \"@openzeppelin/contracts/access/Ownable.sol\":1248:1255  owner() */\n      tag_209\n        /* \"@openzeppelin/contracts/access/Ownable.sol\":1248:1253  owner */\n      tag_54\n        /* \"@openzeppelin/contracts/access/Ownable.sol\":1248:1255  owner() */\n      jump\t// in\n    tag_209:\n        /* \"@openzeppelin/contracts/access/Ownable.sol\":1248:1271  owner() == _msgSender() */\n      0xffffffffffffffffffffffffffffffffffffffff\n      and\n      eq\n        /* \"@openzeppelin/contracts/access/Ownable.sol\":1240:1308  require(owner() == _msgSender(), \"Ownable: caller is not the owner\") */\n      tag_210\n      jumpi\n      mload(0x40)\n      0x08c379a000000000000000000000000000000000000000000000000000000000\n      dup2\n      mstore\n      0x04\n      add\n      tag_211\n      swap1\n      tag_115\n      jump\t// in\n    tag_211:\n      mload(0x40)\n      dup1\n      swap2\n      sub\n      swap1\n      revert\n    tag_210:\n        /* \"@openzeppelin/contracts/access/Ownable.sol\":2026:2027  0 */\n      0x00\n        /* \"@openzeppelin/contracts/access/Ownable.sol\":2006:2028  newOwner != address(0) */\n      0xffffffffffffffffffffffffffffffffffffffff\n      and\n        /* \"@openzeppelin/contracts/access/Ownable.sol\":2006:2014  newOwner */\n      dup2\n        /* \"@openzeppelin/contracts/access/Ownable.sol\":2006:2028  newOwner != address(0) */\n      0xffffffffffffffffffffffffffffffffffffffff\n      and\n      eq\n      iszero\n        /* \"@openzeppelin/contracts/access/Ownable.sol\":1998:2071  require(newOwner != address(0), \"Ownable: new owner is the zero address\") */\n      tag_213\n      jumpi\n      mload(0x40)\n      0x08c379a000000000000000000000000000000000000000000000000000000000\n      dup2\n      mstore\n      0x04\n      add\n      tag_214\n      swap1\n      tag_215\n      jump\t// in\n    tag_214:\n      mload(0x40)\n      dup1\n      swap2\n      sub\n      swap1\n      revert\n    tag_213:\n        /* \"@openzeppelin/contracts/access/Ownable.sol\":2081:2109  _transferOwnership(newOwner) */\n      tag_216\n        /* \"@openzeppelin/contracts/access/Ownable.sol\":2100:2108  newOwner */\n      dup2\n        /* \"@openzeppelin/contracts/access/Ownable.sol\":2081:2099  _transferOwnership */\n      tag_124\n        /* \"@openzeppelin/contracts/access/Ownable.sol\":2081:2109  _transferOwnership(newOwner) */\n      jump\t// in\n    tag_216:\n        /* \"@openzeppelin/contracts/access/Ownable.sol\":1918:2116  function transferOwnership(address newOwner) public virtual onlyOwner {... */\n      pop\n      jump\t// out\n        /* \"@openzeppelin/contracts/utils/Context.sol\":640:736  function _msgSender() internal view virtual returns (address) {... */\n    tag_79:\n        /* \"@openzeppelin/contracts/utils/Context.sol\":693:700  address */\n      0x00\n        /* \"@openzeppelin/contracts/utils/Context.sol\":719:729  msg.sender */\n      caller\n        /* \"@openzeppelin/contracts/utils/Context.sol\":712:729  return msg.sender */\n      swap1\n      pop\n        /* \"@openzeppelin/contracts/utils/Context.sol\":640:736  function _msgSender() internal view virtual returns (address) {... */\n      swap1\n      jump\t// out\n        /* \"contracts/EvolveStorage.sol\":5412:5597  function isExistsCompetionList(uint key) internal view returns (bool) {... */\n    tag_90:\n        /* \"contracts/EvolveStorage.sol\":5476:5480  bool */\n      0x00\n        /* \"contracts/EvolveStorage.sol\":5530:5531  0 */\n      dup1\n        /* \"contracts/EvolveStorage.sol\":5495:5508  competionList */\n      0x05\n        /* \"contracts/EvolveStorage.sol\":5495:5513  competionList[key] */\n      0x00\n        /* \"contracts/EvolveStorage.sol\":5509:5512  key */\n      dup5\n        /* \"contracts/EvolveStorage.sol\":5495:5513  competionList[key] */\n      dup2\n      mstore\n      0x20\n      add\n      swap1\n      dup2\n      mstore\n      0x20\n      add\n      0x00\n      keccak256\n        /* \"contracts/EvolveStorage.sol\":5495:5519  competionList[key].teamA */\n      0x04\n      add\n        /* \"contracts/EvolveStorage.sol\":5495:5526  competionList[key].teamA.length */\n      dup1\n      sload\n      swap1\n      pop\n        /* \"contracts/EvolveStorage.sol\":5495:5531  competionList[key].teamA.length != 0 */\n      eq\n        /* \"contracts/EvolveStorage.sol\":5492:5568  if(competionList[key].teamA.length != 0){... */\n      tag_219\n      jumpi\n        /* \"contracts/EvolveStorage.sol\":5553:5557  true */\n      0x01\n        /* \"contracts/EvolveStorage.sol\":5546:5557  return true */\n      swap1\n      pop\n      jump(tag_218)\n        /* \"contracts/EvolveStorage.sol\":5492:5568  if(competionList[key].teamA.length != 0){... */\n    tag_219:\n        /* \"contracts/EvolveStorage.sol\":5585:5590  false */\n      0x00\n        /* \"contracts/EvolveStorage.sol\":5578:5590  return false */\n      swap1\n      pop\n        /* \"contracts/EvolveStorage.sol\":5412:5597  function isExistsCompetionList(uint key) internal view returns (bool) {... */\n    tag_218:\n      swap2\n      swap1\n      pop\n      jump\t// out\n        /* \"@openzeppelin/contracts/access/Ownable.sol\":2270:2457  function _transferOwnership(address newOwner) internal virtual {... */\n    tag_124:\n        /* \"@openzeppelin/contracts/access/Ownable.sol\":2343:2359  address oldOwner */\n      0x00\n        /* \"@openzeppelin/contracts/access/Ownable.sol\":2362:2368  _owner */\n      dup1\n      0x00\n      swap1\n      sload\n      swap1\n      0x0100\n      exp\n      swap1\n      div\n      0xffffffffffffffffffffffffffffffffffffffff\n      and\n        /* \"@openzeppelin/contracts/access/Ownable.sol\":2343:2368  address oldOwner = _owner */\n      swap1\n      pop\n        /* \"@openzeppelin/contracts/access/Ownable.sol\":2387:2395  newOwner */\n      dup2\n        /* \"@openzeppelin/contracts/access/Ownable.sol\":2378:2384  _owner */\n      0x00\n      dup1\n        /* \"@openzeppelin/contracts/access/Ownable.sol\":2378:2395  _owner = newOwner */\n      0x0100\n      exp\n      dup2\n      sload\n      dup2\n      0xffffffffffffffffffffffffffffffffffffffff\n      mul\n      not\n      and\n      swap1\n      dup4\n      0xffffffffffffffffffffffffffffffffffffffff\n      and\n      mul\n      or\n      swap1\n      sstore\n      pop\n        /* \"@openzeppelin/contracts/access/Ownable.sol\":2441:2449  newOwner */\n      dup2\n        /* \"@openzeppelin/contracts/access/Ownable.sol\":2410:2450  OwnershipTransferred(oldOwner, newOwner) */\n      0xffffffffffffffffffffffffffffffffffffffff\n      and\n        /* \"@openzeppelin/contracts/access/Ownable.sol\":2431:2439  oldOwner */\n      dup2\n        /* \"@openzeppelin/contracts/access/Ownable.sol\":2410:2450  OwnershipTransferred(oldOwner, newOwner) */\n      0xffffffffffffffffffffffffffffffffffffffff\n      and\n      0x8be0079c531659141344cd1fd0a4f28419497f9722a3daafe3b4186f6b6457e0\n      mload(0x40)\n      mload(0x40)\n      dup1\n      swap2\n      sub\n      swap1\n      log3\n        /* \"@openzeppelin/contracts/access/Ownable.sol\":2333:2457  {... */\n      pop\n        /* \"@openzeppelin/contracts/access/Ownable.sol\":2270:2457  function _transferOwnership(address newOwner) internal virtual {... */\n      pop\n      jump\t// out\n        /* \"contracts/EvolveStorage.sol\":5603:5777  function isExistsPresetList(uint256 key) internal view returns (bool) {... */\n    tag_148:\n        /* \"contracts/EvolveStorage.sol\":5667:5671  bool */\n      0x00\n        /* \"contracts/EvolveStorage.sol\":5710:5711  0 */\n      dup1\n        /* \"contracts/EvolveStorage.sol\":5686:5696  presetList */\n      0x04\n        /* \"contracts/EvolveStorage.sol\":5686:5701  presetList[key] */\n      0x00\n        /* \"contracts/EvolveStorage.sol\":5697:5700  key */\n      dup5\n        /* \"contracts/EvolveStorage.sol\":5686:5701  presetList[key] */\n      dup2\n      mstore\n      0x20\n      add\n      swap1\n      dup2\n      mstore\n      0x20\n      add\n      0x00\n      keccak256\n        /* \"contracts/EvolveStorage.sol\":5686:5706  presetList[key].date */\n      0x02\n      add\n      sload\n        /* \"contracts/EvolveStorage.sol\":5686:5711  presetList[key].date != 0 */\n      eq\n        /* \"contracts/EvolveStorage.sol\":5683:5748  if(presetList[key].date != 0){... */\n      tag_222\n      jumpi\n        /* \"contracts/EvolveStorage.sol\":5733:5737  true */\n      0x01\n        /* \"contracts/EvolveStorage.sol\":5726:5737  return true */\n      swap1\n      pop\n      jump(tag_221)\n        /* \"contracts/EvolveStorage.sol\":5683:5748  if(presetList[key].date != 0){... */\n    tag_222:\n        /* \"contracts/EvolveStorage.sol\":5765:5770  false */\n      0x00\n        /* \"contracts/EvolveStorage.sol\":5758:5770  return false */\n      swap1\n      pop\n        /* \"contracts/EvolveStorage.sol\":5603:5777  function isExistsPresetList(uint256 key) internal view returns (bool) {... */\n    tag_221:\n      swap2\n      swap1\n      pop\n      jump\t// out\n    tag_157:\n      dup3\n      dup1\n      sload\n      dup3\n      dup3\n      sstore\n      swap1\n      0x00\n      mstore\n      keccak256(0x00, 0x20)\n      swap1\n      dup2\n      add\n      swap3\n      dup3\n      iszero\n      tag_223\n      jumpi\n      swap2\n      0x20\n      mul\n      dup3\n      add\n    tag_224:\n      dup3\n      dup2\n      gt\n      iszero\n      tag_225\n      jumpi\n      dup3\n      mload\n      dup3\n      exp(0x0100, 0x00)\n      dup2\n      sload\n      dup2\n      0xffffffffffffffffffffffffffffffffffffffff\n      mul\n      not\n      and\n      swap1\n      dup4\n      0xffffffffffffffffffffffffffffffffffffffff\n      and\n      mul\n      or\n      swap1\n      sstore\n      pop\n      swap2\n      0x20\n      add\n      swap2\n      swap1\n      0x01\n      add\n      swap1\n      jump(tag_224)\n    tag_225:\n    tag_223:\n      pop\n      swap1\n      pop\n      tag_226\n      swap2\n      swap1\n      tag_227\n      jump\t// in\n    tag_226:\n      pop\n      swap1\n      jump\t// out\n    tag_227:\n    tag_228:\n      dup1\n      dup3\n      gt\n      iszero\n      tag_229\n      jumpi\n      0x00\n      dup2\n      0x00\n      swap1\n      sstore\n      pop\n      0x01\n      add\n      jump(tag_228)\n    tag_229:\n      pop\n      swap1\n      jump\t// out\n        /* \"#utility.yul\":7:82   */\n    tag_230:\n        /* \"#utility.yul\":40:46   */\n      0x00\n        /* \"#utility.yul\":73:75   */\n      0x40\n        /* \"#utility.yul\":67:76   */\n      mload\n        /* \"#utility.yul\":57:76   */\n      swap1\n      pop\n        /* \"#utility.yul\":7:82   */\n      swap1\n      jump\t// out\n        /* \"#utility.yul\":88:205   */\n    tag_231:\n        /* \"#utility.yul\":197:198   */\n      0x00\n        /* \"#utility.yul\":194:195   */\n      dup1\n        /* \"#utility.yul\":187:199   */\n      revert\n        /* \"#utility.yul\":211:328   */\n    tag_232:\n        /* \"#utility.yul\":320:321   */\n      0x00\n        /* \"#utility.yul\":317:318   */\n      dup1\n        /* \"#utility.yul\":310:322   */\n      revert\n        /* \"#utility.yul\":334:411   */\n    tag_233:\n        /* \"#utility.yul\":371:378   */\n      0x00\n        /* \"#utility.yul\":400:405   */\n      dup2\n        /* \"#utility.yul\":389:405   */\n      swap1\n      pop\n        /* \"#utility.yul\":334:411   */\n      swap2\n      swap1\n      pop\n      jump\t// out\n        /* \"#utility.yul\":417:539   */\n    tag_234:\n        /* \"#utility.yul\":490:514   */\n      tag_295\n        /* \"#utility.yul\":508:513   */\n      dup2\n        /* \"#utility.yul\":490:514   */\n      tag_233\n      jump\t// in\n    tag_295:\n        /* \"#utility.yul\":483:488   */\n      dup2\n        /* \"#utility.yul\":480:515   */\n      eq\n        /* \"#utility.yul\":470:533   */\n      tag_296\n      jumpi\n        /* \"#utility.yul\":529:530   */\n      0x00\n        /* \"#utility.yul\":526:527   */\n      dup1\n        /* \"#utility.yul\":519:531   */\n      revert\n        /* \"#utility.yul\":470:533   */\n    tag_296:\n        /* \"#utility.yul\":417:539   */\n      pop\n      jump\t// out\n        /* \"#utility.yul\":545:684   */\n    tag_235:\n        /* \"#utility.yul\":591:596   */\n      0x00\n        /* \"#utility.yul\":629:635   */\n      dup2\n        /* \"#utility.yul\":616:636   */\n      calldataload\n        /* \"#utility.yul\":607:636   */\n      swap1\n      pop\n        /* \"#utility.yul\":645:678   */\n      tag_298\n        /* \"#utility.yul\":672:677   */\n      dup2\n        /* \"#utility.yul\":645:678   */\n      tag_234\n      jump\t// in\n    tag_298:\n        /* \"#utility.yul\":545:684   */\n      swap3\n      swap2\n      pop\n      pop\n      jump\t// out\n        /* \"#utility.yul\":690:776   */\n    tag_236:\n        /* \"#utility.yul\":725:732   */\n      0x00\n        /* \"#utility.yul\":765:769   */\n      0xff\n        /* \"#utility.yul\":758:763   */\n      dup3\n        /* \"#utility.yul\":754:770   */\n      and\n        /* \"#utility.yul\":743:770   */\n      swap1\n      pop\n        /* \"#utility.yul\":690:776   */\n      swap2\n      swap1\n      pop\n      jump\t// out\n        /* \"#utility.yul\":782:900   */\n    tag_237:\n        /* \"#utility.yul\":853:875   */\n      tag_301\n        /* \"#utility.yul\":869:874   */\n      dup2\n        /* \"#utility.yul\":853:875   */\n      tag_236\n      jump\t// in\n    tag_301:\n        /* \"#utility.yul\":846:851   */\n      dup2\n        /* \"#utility.yul\":843:876   */\n      eq\n        /* \"#utility.yul\":833:894   */\n      tag_302\n      jumpi\n        /* \"#utility.yul\":890:891   */\n      0x00\n        /* \"#utility.yul\":887:888   */\n      dup1\n        /* \"#utility.yul\":880:892   */\n      revert\n        /* \"#utility.yul\":833:894   */\n    tag_302:\n        /* \"#utility.yul\":782:900   */\n      pop\n      jump\t// out\n        /* \"#utility.yul\":906:1041   */\n    tag_238:\n        /* \"#utility.yul\":950:955   */\n      0x00\n        /* \"#utility.yul\":988:994   */\n      dup2\n        /* \"#utility.yul\":975:995   */\n      calldataload\n        /* \"#utility.yul\":966:995   */\n      swap1\n      pop\n        /* \"#utility.yul\":1004:1035   */\n      tag_304\n        /* \"#utility.yul\":1029:1034   */\n      dup2\n        /* \"#utility.yul\":1004:1035   */\n      tag_237\n      jump\t// in\n    tag_304:\n        /* \"#utility.yul\":906:1041   */\n      swap3\n      swap2\n      pop\n      pop\n      jump\t// out\n        /* \"#utility.yul\":1047:1517   */\n    tag_20:\n        /* \"#utility.yul\":1113:1119   */\n      0x00\n        /* \"#utility.yul\":1121:1127   */\n      dup1\n        /* \"#utility.yul\":1170:1172   */\n      0x40\n        /* \"#utility.yul\":1158:1167   */\n      dup4\n        /* \"#utility.yul\":1149:1156   */\n      dup6\n        /* \"#utility.yul\":1145:1168   */\n      sub\n        /* \"#utility.yul\":1141:1173   */\n      slt\n        /* \"#utility.yul\":1138:1257   */\n      iszero\n      tag_306\n      jumpi\n        /* \"#utility.yul\":1176:1255   */\n      tag_307\n      tag_231\n      jump\t// in\n    tag_307:\n        /* \"#utility.yul\":1138:1257   */\n    tag_306:\n        /* \"#utility.yul\":1296:1297   */\n      0x00\n        /* \"#utility.yul\":1321:1374   */\n      tag_308\n        /* \"#utility.yul\":1366:1373   */\n      dup6\n        /* \"#utility.yul\":1357:1363   */\n      dup3\n        /* \"#utility.yul\":1346:1355   */\n      dup7\n        /* \"#utility.yul\":1342:1364   */\n      add\n        /* \"#utility.yul\":1321:1374   */\n      tag_235\n      jump\t// in\n    tag_308:\n        /* \"#utility.yul\":1311:1374   */\n      swap3\n      pop\n        /* \"#utility.yul\":1267:1384   */\n      pop\n        /* \"#utility.yul\":1423:1425   */\n      0x20\n        /* \"#utility.yul\":1449:1500   */\n      tag_309\n        /* \"#utility.yul\":1492:1499   */\n      dup6\n        /* \"#utility.yul\":1483:1489   */\n      dup3\n        /* \"#utility.yul\":1472:1481   */\n      dup7\n        /* \"#utility.yul\":1468:1490   */\n      add\n        /* \"#utility.yul\":1449:1500   */\n      tag_238\n      jump\t// in\n    tag_309:\n        /* \"#utility.yul\":1439:1500   */\n      swap2\n      pop\n        /* \"#utility.yul\":1394:1510   */\n      pop\n        /* \"#utility.yul\":1047:1517   */\n      swap3\n      pop\n      swap3\n      swap1\n      pop\n      jump\t// out\n        /* \"#utility.yul\":1523:1613   */\n    tag_239:\n        /* \"#utility.yul\":1557:1564   */\n      0x00\n        /* \"#utility.yul\":1600:1605   */\n      dup2\n        /* \"#utility.yul\":1593:1606   */\n      iszero\n        /* \"#utility.yul\":1586:1607   */\n      iszero\n        /* \"#utility.yul\":1575:1607   */\n      swap1\n      pop\n        /* \"#utility.yul\":1523:1613   */\n      swap2\n      swap1\n      pop\n      jump\t// out\n        /* \"#utility.yul\":1619:1728   */\n    tag_240:\n        /* \"#utility.yul\":1700:1721   */\n      tag_312\n        /* \"#utility.yul\":1715:1720   */\n      dup2\n        /* \"#utility.yul\":1700:1721   */\n      tag_239\n      jump\t// in\n    tag_312:\n        /* \"#utility.yul\":1695:1698   */\n      dup3\n        /* \"#utility.yul\":1688:1722   */\n      mstore\n        /* \"#utility.yul\":1619:1728   */\n      pop\n      pop\n      jump\t// out\n        /* \"#utility.yul\":1734:1944   */\n    tag_23:\n        /* \"#utility.yul\":1821:1825   */\n      0x00\n        /* \"#utility.yul\":1859:1861   */\n      0x20\n        /* \"#utility.yul\":1848:1857   */\n      dup3\n        /* \"#utility.yul\":1844:1862   */\n      add\n        /* \"#utility.yul\":1836:1862   */\n      swap1\n      pop\n        /* \"#utility.yul\":1872:1937   */\n      tag_314\n        /* \"#utility.yul\":1934:1935   */\n      0x00\n        /* \"#utility.yul\":1923:1932   */\n      dup4\n        /* \"#utility.yul\":1919:1936   */\n      add\n        /* \"#utility.yul\":1910:1916   */\n      dup5\n        /* \"#utility.yul\":1872:1937   */\n      tag_240\n      jump\t// in\n    tag_314:\n        /* \"#utility.yul\":1734:1944   */\n      swap3\n      swap2\n      pop\n      pop\n      jump\t// out\n        /* \"#utility.yul\":1950:2279   */\n    tag_26:\n        /* \"#utility.yul\":2009:2015   */\n      0x00\n        /* \"#utility.yul\":2058:2060   */\n      0x20\n        /* \"#utility.yul\":2046:2055   */\n      dup3\n        /* \"#utility.yul\":2037:2044   */\n      dup5\n        /* \"#utility.yul\":2033:2056   */\n      sub\n        /* \"#utility.yul\":2029:2061   */\n      slt\n        /* \"#utility.yul\":2026:2145   */\n      iszero\n      tag_316\n      jumpi\n        /* \"#utility.yul\":2064:2143   */\n      tag_317\n      tag_231\n      jump\t// in\n    tag_317:\n        /* \"#utility.yul\":2026:2145   */\n    tag_316:\n        /* \"#utility.yul\":2184:2185   */\n      0x00\n        /* \"#utility.yul\":2209:2262   */\n      tag_318\n        /* \"#utility.yul\":2254:2261   */\n      dup5\n        /* \"#utility.yul\":2245:2251   */\n      dup3\n        /* \"#utility.yul\":2234:2243   */\n      dup6\n        /* \"#utility.yul\":2230:2252   */\n      add\n        /* \"#utility.yul\":2209:2262   */\n      tag_235\n      jump\t// in\n    tag_318:\n        /* \"#utility.yul\":2199:2262   */\n      swap2\n      pop\n        /* \"#utility.yul\":2155:2272   */\n      pop\n        /* \"#utility.yul\":1950:2279   */\n      swap3\n      swap2\n      pop\n      pop\n      jump\t// out\n        /* \"#utility.yul\":2285:2403   */\n    tag_241:\n        /* \"#utility.yul\":2372:2396   */\n      tag_320\n        /* \"#utility.yul\":2390:2395   */\n      dup2\n        /* \"#utility.yul\":2372:2396   */\n      tag_233\n      jump\t// in\n    tag_320:\n        /* \"#utility.yul\":2367:2370   */\n      dup3\n        /* \"#utility.yul\":2360:2397   */\n      mstore\n        /* \"#utility.yul\":2285:2403   */\n      pop\n      pop\n      jump\t// out\n        /* \"#utility.yul\":2409:2962   */\n    tag_29:\n        /* \"#utility.yul\":2586:2590   */\n      0x00\n        /* \"#utility.yul\":2624:2627   */\n      0x80\n        /* \"#utility.yul\":2613:2622   */\n      dup3\n        /* \"#utility.yul\":2609:2628   */\n      add\n        /* \"#utility.yul\":2601:2628   */\n      swap1\n      pop\n        /* \"#utility.yul\":2638:2709   */\n      tag_322\n        /* \"#utility.yul\":2706:2707   */\n      0x00\n        /* \"#utility.yul\":2695:2704   */\n      dup4\n        /* \"#utility.yul\":2691:2708   */\n      add\n        /* \"#utility.yul\":2682:2688   */\n      dup8\n        /* \"#utility.yul\":2638:2709   */\n      tag_241\n      jump\t// in\n    tag_322:\n        /* \"#utility.yul\":2719:2791   */\n      tag_323\n        /* \"#utility.yul\":2787:2789   */\n      0x20\n        /* \"#utility.yul\":2776:2785   */\n      dup4\n        /* \"#utility.yul\":2772:2790   */\n      add\n        /* \"#utility.yul\":2763:2769   */\n      dup7\n        /* \"#utility.yul\":2719:2791   */\n      tag_241\n      jump\t// in\n    tag_323:\n        /* \"#utility.yul\":2801:2873   */\n      tag_324\n        /* \"#utility.yul\":2869:2871   */\n      0x40\n        /* \"#utility.yul\":2858:2867   */\n      dup4\n        /* \"#utility.yul\":2854:2872   */\n      add\n        /* \"#utility.yul\":2845:2851   */\n      dup6\n        /* \"#utility.yul\":2801:2873   */\n      tag_241\n      jump\t// in\n    tag_324:\n        /* \"#utility.yul\":2883:2955   */\n      tag_325\n        /* \"#utility.yul\":2951:2953   */\n      0x60\n        /* \"#utility.yul\":2940:2949   */\n      dup4\n        /* \"#utility.yul\":2936:2954   */\n      add\n        /* \"#utility.yul\":2927:2933   */\n      dup5\n        /* \"#utility.yul\":2883:2955   */\n      tag_241\n      jump\t// in\n    tag_325:\n        /* \"#utility.yul\":2409:2962   */\n      swap6\n      swap5\n      pop\n      pop\n      pop\n      pop\n      pop\n      jump\t// out\n        /* \"#utility.yul\":2968:3094   */\n    tag_242:\n        /* \"#utility.yul\":3005:3012   */\n      0x00\n        /* \"#utility.yul\":3045:3087   */\n      0xffffffffffffffffffffffffffffffffffffffff\n        /* \"#utility.yul\":3038:3043   */\n      dup3\n        /* \"#utility.yul\":3034:3088   */\n      and\n        /* \"#utility.yul\":3023:3088   */\n      swap1\n      pop\n        /* \"#utility.yul\":2968:3094   */\n      swap2\n      swap1\n      pop\n      jump\t// out\n        /* \"#utility.yul\":3100:3196   */\n    tag_243:\n        /* \"#utility.yul\":3137:3144   */\n      0x00\n        /* \"#utility.yul\":3166:3190   */\n      tag_328\n        /* \"#utility.yul\":3184:3189   */\n      dup3\n        /* \"#utility.yul\":3166:3190   */\n      tag_242\n      jump\t// in\n    tag_328:\n        /* \"#utility.yul\":3155:3190   */\n      swap1\n      pop\n        /* \"#utility.yul\":3100:3196   */\n      swap2\n      swap1\n      pop\n      jump\t// out\n        /* \"#utility.yul\":3202:3324   */\n    tag_244:\n        /* \"#utility.yul\":3275:3299   */\n      tag_330\n        /* \"#utility.yul\":3293:3298   */\n      dup2\n        /* \"#utility.yul\":3275:3299   */\n      tag_243\n      jump\t// in\n    tag_330:\n        /* \"#utility.yul\":3268:3273   */\n      dup2\n        /* \"#utility.yul\":3265:3300   */\n      eq\n        /* \"#utility.yul\":3255:3318   */\n      tag_331\n      jumpi\n        /* \"#utility.yul\":3314:3315   */\n      0x00\n        /* \"#utility.yul\":3311:3312   */\n      dup1\n        /* \"#utility.yul\":3304:3316   */\n      revert\n        /* \"#utility.yul\":3255:3318   */\n    tag_331:\n        /* \"#utility.yul\":3202:3324   */\n      pop\n      jump\t// out\n        /* \"#utility.yul\":3330:3469   */\n    tag_245:\n        /* \"#utility.yul\":3376:3381   */\n      0x00\n        /* \"#utility.yul\":3414:3420   */\n      dup2\n        /* \"#utility.yul\":3401:3421   */\n      calldataload\n        /* \"#utility.yul\":3392:3421   */\n      swap1\n      pop\n        /* \"#utility.yul\":3430:3463   */\n      tag_333\n        /* \"#utility.yul\":3457:3462   */\n      dup2\n        /* \"#utility.yul\":3430:3463   */\n      tag_244\n      jump\t// in\n    tag_333:\n        /* \"#utility.yul\":3330:3469   */\n      swap3\n      swap2\n      pop\n      pop\n      jump\t// out\n        /* \"#utility.yul\":3475:3804   */\n    tag_32:\n        /* \"#utility.yul\":3534:3540   */\n      0x00\n        /* \"#utility.yul\":3583:3585   */\n      0x20\n        /* \"#utility.yul\":3571:3580   */\n      dup3\n        /* \"#utility.yul\":3562:3569   */\n      dup5\n        /* \"#utility.yul\":3558:3581   */\n      sub\n        /* \"#utility.yul\":3554:3586   */\n      slt\n        /* \"#utility.yul\":3551:3670   */\n      iszero\n      tag_335\n      jumpi\n        /* \"#utility.yul\":3589:3668   */\n      tag_336\n      tag_231\n      jump\t// in\n    tag_336:\n        /* \"#utility.yul\":3551:3670   */\n    tag_335:\n        /* \"#utility.yul\":3709:3710   */\n      0x00\n        /* \"#utility.yul\":3734:3787   */\n      tag_337\n        /* \"#utility.yul\":3779:3786   */\n      dup5\n        /* \"#utility.yul\":3770:3776   */\n      dup3\n        /* \"#utility.yul\":3759:3768   */\n      dup6\n        /* \"#utility.yul\":3755:3777   */\n      add\n        /* \"#utility.yul\":3734:3787   */\n      tag_245\n      jump\t// in\n    tag_337:\n        /* \"#utility.yul\":3724:3787   */\n      swap2\n      pop\n        /* \"#utility.yul\":3680:3797   */\n      pop\n        /* \"#utility.yul\":3475:3804   */\n      swap3\n      swap2\n      pop\n      pop\n      jump\t// out\n        /* \"#utility.yul\":3810:4429   */\n    tag_39:\n        /* \"#utility.yul\":3887:3893   */\n      0x00\n        /* \"#utility.yul\":3895:3901   */\n      dup1\n        /* \"#utility.yul\":3903:3909   */\n      0x00\n        /* \"#utility.yul\":3952:3954   */\n      0x60\n        /* \"#utility.yul\":3940:3949   */\n      dup5\n        /* \"#utility.yul\":3931:3938   */\n      dup7\n        /* \"#utility.yul\":3927:3950   */\n      sub\n        /* \"#utility.yul\":3923:3955   */\n      slt\n        /* \"#utility.yul\":3920:4039   */\n      iszero\n      tag_339\n      jumpi\n        /* \"#utility.yul\":3958:4037   */\n      tag_340\n      tag_231\n      jump\t// in\n    tag_340:\n        /* \"#utility.yul\":3920:4039   */\n    tag_339:\n        /* \"#utility.yul\":4078:4079   */\n      0x00\n        /* \"#utility.yul\":4103:4156   */\n      tag_341\n        /* \"#utility.yul\":4148:4155   */\n      dup7\n        /* \"#utility.yul\":4139:4145   */\n      dup3\n        /* \"#utility.yul\":4128:4137   */\n      dup8\n        /* \"#utility.yul\":4124:4146   */\n      add\n        /* \"#utility.yul\":4103:4156   */\n      tag_235\n      jump\t// in\n    tag_341:\n        /* \"#utility.yul\":4093:4156   */\n      swap4\n      pop\n        /* \"#utility.yul\":4049:4166   */\n      pop\n        /* \"#utility.yul\":4205:4207   */\n      0x20\n        /* \"#utility.yul\":4231:4284   */\n      tag_342\n        /* \"#utility.yul\":4276:4283   */\n      dup7\n        /* \"#utility.yul\":4267:4273   */\n      dup3\n        /* \"#utility.yul\":4256:4265   */\n      dup8\n        /* \"#utility.yul\":4252:4274   */\n      add\n        /* \"#utility.yul\":4231:4284   */\n      tag_235\n      jump\t// in\n    tag_342:\n        /* \"#utility.yul\":4221:4284   */\n      swap3\n      pop\n        /* \"#utility.yul\":4176:4294   */\n      pop\n        /* \"#utility.yul\":4333:4335   */\n      0x40\n        /* \"#utility.yul\":4359:4412   */\n      tag_343\n        /* \"#utility.yul\":4404:4411   */\n      dup7\n        /* \"#utility.yul\":4395:4401   */\n      dup3\n        /* \"#utility.yul\":4384:4393   */\n      dup8\n        /* \"#utility.yul\":4380:4402   */\n      add\n        /* \"#utility.yul\":4359:4412   */\n      tag_235\n      jump\t// in\n    tag_343:\n        /* \"#utility.yul\":4349:4412   */\n      swap2\n      pop\n        /* \"#utility.yul\":4304:4422   */\n      pop\n        /* \"#utility.yul\":3810:4429   */\n      swap3\n      pop\n      swap3\n      pop\n      swap3\n      jump\t// out\n        /* \"#utility.yul\":4435:4657   */\n    tag_42:\n        /* \"#utility.yul\":4528:4532   */\n      0x00\n        /* \"#utility.yul\":4566:4568   */\n      0x20\n        /* \"#utility.yul\":4555:4564   */\n      dup3\n        /* \"#utility.yul\":4551:4569   */\n      add\n        /* \"#utility.yul\":4543:4569   */\n      swap1\n      pop\n        /* \"#utility.yul\":4579:4650   */\n      tag_345\n        /* \"#utility.yul\":4647:4648   */\n      0x00\n        /* \"#utility.yul\":4636:4645   */\n      dup4\n        /* \"#utility.yul\":4632:4649   */\n      add\n        /* \"#utility.yul\":4623:4629   */\n      dup5\n        /* \"#utility.yul\":4579:4650   */\n      tag_241\n      jump\t// in\n    tag_345:\n        /* \"#utility.yul\":4435:4657   */\n      swap3\n      swap2\n      pop\n      pop\n      jump\t// out\n        /* \"#utility.yul\":4663:4771   */\n    tag_246:\n        /* \"#utility.yul\":4740:4764   */\n      tag_347\n        /* \"#utility.yul\":4758:4763   */\n      dup2\n        /* \"#utility.yul\":4740:4764   */\n      tag_233\n      jump\t// in\n    tag_347:\n        /* \"#utility.yul\":4735:4738   */\n      dup3\n        /* \"#utility.yul\":4728:4765   */\n      mstore\n        /* \"#utility.yul\":4663:4771   */\n      pop\n      pop\n      jump\t// out\n        /* \"#utility.yul\":4845:5720   */\n    tag_247:\n        /* \"#utility.yul\":4988:4992   */\n      0x80\n        /* \"#utility.yul\":4983:4986   */\n      dup3\n        /* \"#utility.yul\":4979:4993   */\n      add\n        /* \"#utility.yul\":5081:5085   */\n      0x00\n        /* \"#utility.yul\":5074:5079   */\n      dup3\n        /* \"#utility.yul\":5070:5086   */\n      add\n        /* \"#utility.yul\":5064:5087   */\n      mload\n        /* \"#utility.yul\":5100:5163   */\n      tag_349\n        /* \"#utility.yul\":5157:5161   */\n      0x00\n        /* \"#utility.yul\":5152:5155   */\n      dup6\n        /* \"#utility.yul\":5148:5162   */\n      add\n        /* \"#utility.yul\":5134:5146   */\n      dup3\n        /* \"#utility.yul\":5100:5163   */\n      tag_246\n      jump\t// in\n    tag_349:\n        /* \"#utility.yul\":5003:5173   */\n      pop\n        /* \"#utility.yul\":5269:5273   */\n      0x20\n        /* \"#utility.yul\":5262:5267   */\n      dup3\n        /* \"#utility.yul\":5258:5274   */\n      add\n        /* \"#utility.yul\":5252:5275   */\n      mload\n        /* \"#utility.yul\":5288:5351   */\n      tag_350\n        /* \"#utility.yul\":5345:5349   */\n      0x20\n        /* \"#utility.yul\":5340:5343   */\n      dup6\n        /* \"#utility.yul\":5336:5350   */\n      add\n        /* \"#utility.yul\":5322:5334   */\n      dup3\n        /* \"#utility.yul\":5288:5351   */\n      tag_246\n      jump\t// in\n    tag_350:\n        /* \"#utility.yul\":5183:5361   */\n      pop\n        /* \"#utility.yul\":5443:5447   */\n      0x40\n        /* \"#utility.yul\":5436:5441   */\n      dup3\n        /* \"#utility.yul\":5432:5448   */\n      add\n        /* \"#utility.yul\":5426:5449   */\n      mload\n        /* \"#utility.yul\":5462:5525   */\n      tag_351\n        /* \"#utility.yul\":5519:5523   */\n      0x40\n        /* \"#utility.yul\":5514:5517   */\n      dup6\n        /* \"#utility.yul\":5510:5524   */\n      add\n        /* \"#utility.yul\":5496:5508   */\n      dup3\n        /* \"#utility.yul\":5462:5525   */\n      tag_246\n      jump\t// in\n    tag_351:\n        /* \"#utility.yul\":5371:5535   */\n      pop\n        /* \"#utility.yul\":5621:5625   */\n      0x60\n        /* \"#utility.yul\":5614:5619   */\n      dup3\n        /* \"#utility.yul\":5610:5626   */\n      add\n        /* \"#utility.yul\":5604:5627   */\n      mload\n        /* \"#utility.yul\":5640:5703   */\n      tag_352\n        /* \"#utility.yul\":5697:5701   */\n      0x60\n        /* \"#utility.yul\":5692:5695   */\n      dup6\n        /* \"#utility.yul\":5688:5702   */\n      add\n        /* \"#utility.yul\":5674:5686   */\n      dup3\n        /* \"#utility.yul\":5640:5703   */\n      tag_246\n      jump\t// in\n    tag_352:\n        /* \"#utility.yul\":5545:5713   */\n      pop\n        /* \"#utility.yul\":4957:5720   */\n      pop\n        /* \"#utility.yul\":4845:5720   */\n      pop\n      pop\n      jump\t// out\n        /* \"#utility.yul\":5726:5906   */\n    tag_101:\n        /* \"#utility.yul\":5774:5851   */\n      0x4e487b7100000000000000000000000000000000000000000000000000000000\n        /* \"#utility.yul\":5771:5772   */\n      0x00\n        /* \"#utility.yul\":5764:5852   */\n      mstore\n        /* \"#utility.yul\":5871:5875   */\n      0x21\n        /* \"#utility.yul\":5868:5869   */\n      0x04\n        /* \"#utility.yul\":5861:5876   */\n      mstore\n        /* \"#utility.yul\":5895:5899   */\n      0x24\n        /* \"#utility.yul\":5892:5893   */\n      0x00\n        /* \"#utility.yul\":5885:5900   */\n      revert\n        /* \"#utility.yul\":5912:6036   */\n    tag_248:\n        /* \"#utility.yul\":6004:6005   */\n      0x03\n        /* \"#utility.yul\":5997:6002   */\n      dup2\n        /* \"#utility.yul\":5994:6006   */\n      lt\n        /* \"#utility.yul\":5984:6030   */\n      tag_355\n      jumpi\n        /* \"#utility.yul\":6010:6028   */\n      tag_356\n      tag_101\n      jump\t// in\n    tag_356:\n        /* \"#utility.yul\":5984:6030   */\n    tag_355:\n        /* \"#utility.yul\":5912:6036   */\n      pop\n      jump\t// out\n        /* \"#utility.yul\":6042:6191   */\n    tag_249:\n        /* \"#utility.yul\":6098:6105   */\n      0x00\n        /* \"#utility.yul\":6127:6132   */\n      dup2\n        /* \"#utility.yul\":6116:6132   */\n      swap1\n      pop\n        /* \"#utility.yul\":6133:6185   */\n      tag_358\n        /* \"#utility.yul\":6179:6184   */\n      dup3\n        /* \"#utility.yul\":6133:6185   */\n      tag_248\n      jump\t// in\n    tag_358:\n        /* \"#utility.yul\":6042:6191   */\n      swap2\n      swap1\n      pop\n      jump\t// out\n        /* \"#utility.yul\":6197:6346   */\n    tag_250:\n        /* \"#utility.yul\":6264:6273   */\n      0x00\n        /* \"#utility.yul\":6297:6340   */\n      tag_360\n        /* \"#utility.yul\":6334:6339   */\n      dup3\n        /* \"#utility.yul\":6297:6340   */\n      tag_249\n      jump\t// in\n    tag_360:\n        /* \"#utility.yul\":6284:6340   */\n      swap1\n      pop\n        /* \"#utility.yul\":6197:6346   */\n      swap2\n      swap1\n      pop\n      jump\t// out\n        /* \"#utility.yul\":6352:6517   */\n    tag_251:\n        /* \"#utility.yul\":6456:6510   */\n      tag_362\n        /* \"#utility.yul\":6504:6509   */\n      dup2\n        /* \"#utility.yul\":6456:6510   */\n      tag_250\n      jump\t// in\n    tag_362:\n        /* \"#utility.yul\":6451:6454   */\n      dup3\n        /* \"#utility.yul\":6444:6511   */\n      mstore\n        /* \"#utility.yul\":6352:6517   */\n      pop\n      pop\n      jump\t// out\n        /* \"#utility.yul\":6523:6647   */\n    tag_252:\n        /* \"#utility.yul\":6615:6616   */\n      0x04\n        /* \"#utility.yul\":6608:6613   */\n      dup2\n        /* \"#utility.yul\":6605:6617   */\n      lt\n        /* \"#utility.yul\":6595:6641   */\n      tag_364\n      jumpi\n        /* \"#utility.yul\":6621:6639   */\n      tag_365\n      tag_101\n      jump\t// in\n    tag_365:\n        /* \"#utility.yul\":6595:6641   */\n    tag_364:\n        /* \"#utility.yul\":6523:6647   */\n      pop\n      jump\t// out\n        /* \"#utility.yul\":6653:6802   */\n    tag_253:\n        /* \"#utility.yul\":6709:6716   */\n      0x00\n        /* \"#utility.yul\":6738:6743   */\n      dup2\n        /* \"#utility.yul\":6727:6743   */\n      swap1\n      pop\n        /* \"#utility.yul\":6744:6796   */\n      tag_367\n        /* \"#utility.yul\":6790:6795   */\n      dup3\n        /* \"#utility.yul\":6744:6796   */\n      tag_252\n      jump\t// in\n    tag_367:\n        /* \"#utility.yul\":6653:6802   */\n      swap2\n      swap1\n      pop\n      jump\t// out\n        /* \"#utility.yul\":6808:6957   */\n    tag_254:\n        /* \"#utility.yul\":6875:6884   */\n      0x00\n        /* \"#utility.yul\":6908:6951   */\n      tag_369\n        /* \"#utility.yul\":6945:6950   */\n      dup3\n        /* \"#utility.yul\":6908:6951   */\n      tag_253\n      jump\t// in\n    tag_369:\n        /* \"#utility.yul\":6895:6951   */\n      swap1\n      pop\n        /* \"#utility.yul\":6808:6957   */\n      swap2\n      swap1\n      pop\n      jump\t// out\n        /* \"#utility.yul\":6963:7128   */\n    tag_255:\n        /* \"#utility.yul\":7067:7121   */\n      tag_371\n        /* \"#utility.yul\":7115:7120   */\n      dup2\n        /* \"#utility.yul\":7067:7121   */\n      tag_254\n      jump\t// in\n    tag_371:\n        /* \"#utility.yul\":7062:7065   */\n      dup3\n        /* \"#utility.yul\":7055:7122   */\n      mstore\n        /* \"#utility.yul\":6963:7128   */\n      pop\n      pop\n      jump\t// out\n        /* \"#utility.yul\":7134:7961   */\n    tag_47:\n        /* \"#utility.yul\":7419:7423   */\n      0x00\n        /* \"#utility.yul\":7457:7460   */\n      0x0100\n        /* \"#utility.yul\":7446:7455   */\n      dup3\n        /* \"#utility.yul\":7442:7461   */\n      add\n        /* \"#utility.yul\":7434:7461   */\n      swap1\n      pop\n        /* \"#utility.yul\":7471:7588   */\n      tag_373\n        /* \"#utility.yul\":7585:7586   */\n      0x00\n        /* \"#utility.yul\":7574:7583   */\n      dup4\n        /* \"#utility.yul\":7570:7587   */\n      add\n        /* \"#utility.yul\":7561:7567   */\n      dup9\n        /* \"#utility.yul\":7471:7588   */\n      tag_247\n      jump\t// in\n    tag_373:\n        /* \"#utility.yul\":7598:7688   */\n      tag_374\n        /* \"#utility.yul\":7683:7686   */\n      0x80\n        /* \"#utility.yul\":7672:7681   */\n      dup4\n        /* \"#utility.yul\":7668:7687   */\n      add\n        /* \"#utility.yul\":7659:7665   */\n      dup8\n        /* \"#utility.yul\":7598:7688   */\n      tag_251\n      jump\t// in\n    tag_374:\n        /* \"#utility.yul\":7698:7788   */\n      tag_375\n        /* \"#utility.yul\":7783:7786   */\n      0xa0\n        /* \"#utility.yul\":7772:7781   */\n      dup4\n        /* \"#utility.yul\":7768:7787   */\n      add\n        /* \"#utility.yul\":7759:7765   */\n      dup7\n        /* \"#utility.yul\":7698:7788   */\n      tag_255\n      jump\t// in\n    tag_375:\n        /* \"#utility.yul\":7798:7871   */\n      tag_376\n        /* \"#utility.yul\":7866:7869   */\n      0xc0\n        /* \"#utility.yul\":7855:7864   */\n      dup4\n        /* \"#utility.yul\":7851:7870   */\n      add\n        /* \"#utility.yul\":7842:7848   */\n      dup6\n        /* \"#utility.yul\":7798:7871   */\n      tag_241\n      jump\t// in\n    tag_376:\n        /* \"#utility.yul\":7881:7954   */\n      tag_377\n        /* \"#utility.yul\":7949:7952   */\n      0xe0\n        /* \"#utility.yul\":7938:7947   */\n      dup4\n        /* \"#utility.yul\":7934:7953   */\n      add\n        /* \"#utility.yul\":7925:7931   */\n      dup5\n        /* \"#utility.yul\":7881:7954   */\n      tag_241\n      jump\t// in\n    tag_377:\n        /* \"#utility.yul\":7134:7961   */\n      swap7\n      swap6\n      pop\n      pop\n      pop\n      pop\n      pop\n      pop\n      jump\t// out\n        /* \"#utility.yul\":7967:8084   */\n    tag_256:\n        /* \"#utility.yul\":8076:8077   */\n      0x00\n        /* \"#utility.yul\":8073:8074   */\n      dup1\n        /* \"#utility.yul\":8066:8078   */\n      revert\n        /* \"#utility.yul\":8090:8192   */\n    tag_257:\n        /* \"#utility.yul\":8131:8137   */\n      0x00\n        /* \"#utility.yul\":8182:8184   */\n      0x1f\n        /* \"#utility.yul\":8178:8185   */\n      not\n        /* \"#utility.yul\":8173:8175   */\n      0x1f\n        /* \"#utility.yul\":8166:8171   */\n      dup4\n        /* \"#utility.yul\":8162:8176   */\n      add\n        /* \"#utility.yul\":8158:8186   */\n      and\n        /* \"#utility.yul\":8148:8186   */\n      swap1\n      pop\n        /* \"#utility.yul\":8090:8192   */\n      swap2\n      swap1\n      pop\n      jump\t// out\n        /* \"#utility.yul\":8198:8378   */\n    tag_258:\n        /* \"#utility.yul\":8246:8323   */\n      0x4e487b7100000000000000000000000000000000000000000000000000000000\n        /* \"#utility.yul\":8243:8244   */\n      0x00\n        /* \"#utility.yul\":8236:8324   */\n      mstore\n        /* \"#utility.yul\":8343:8347   */\n      0x41\n        /* \"#utility.yul\":8340:8341   */\n      0x04\n        /* \"#utility.yul\":8333:8348   */\n      mstore\n        /* \"#utility.yul\":8367:8371   */\n      0x24\n        /* \"#utility.yul\":8364:8365   */\n      0x00\n        /* \"#utility.yul\":8357:8372   */\n      revert\n        /* \"#utility.yul\":8384:8665   */\n    tag_259:\n        /* \"#utility.yul\":8467:8494   */\n      tag_382\n        /* \"#utility.yul\":8489:8493   */\n      dup3\n        /* \"#utility.yul\":8467:8494   */\n      tag_257\n      jump\t// in\n    tag_382:\n        /* \"#utility.yul\":8459:8465   */\n      dup2\n        /* \"#utility.yul\":8455:8495   */\n      add\n        /* \"#utility.yul\":8597:8603   */\n      dup2\n        /* \"#utility.yul\":8585:8595   */\n      dup2\n        /* \"#utility.yul\":8582:8604   */\n      lt\n        /* \"#utility.yul\":8561:8579   */\n      0xffffffffffffffff\n        /* \"#utility.yul\":8549:8559   */\n      dup3\n        /* \"#utility.yul\":8546:8580   */\n      gt\n        /* \"#utility.yul\":8543:8605   */\n      or\n        /* \"#utility.yul\":8540:8628   */\n      iszero\n      tag_383\n      jumpi\n        /* \"#utility.yul\":8608:8626   */\n      tag_384\n      tag_258\n      jump\t// in\n    tag_384:\n        /* \"#utility.yul\":8540:8628   */\n    tag_383:\n        /* \"#utility.yul\":8648:8658   */\n      dup1\n        /* \"#utility.yul\":8644:8646   */\n      0x40\n        /* \"#utility.yul\":8637:8659   */\n      mstore\n        /* \"#utility.yul\":8427:8665   */\n      pop\n        /* \"#utility.yul\":8384:8665   */\n      pop\n      pop\n      jump\t// out\n        /* \"#utility.yul\":8671:8800   */\n    tag_260:\n        /* \"#utility.yul\":8705:8711   */\n      0x00\n        /* \"#utility.yul\":8732:8752   */\n      tag_386\n      tag_230\n      jump\t// in\n    tag_386:\n        /* \"#utility.yul\":8722:8752   */\n      swap1\n      pop\n        /* \"#utility.yul\":8761:8794   */\n      tag_387\n        /* \"#utility.yul\":8789:8793   */\n      dup3\n        /* \"#utility.yul\":8781:8787   */\n      dup3\n        /* \"#utility.yul\":8761:8794   */\n      tag_259\n      jump\t// in\n    tag_387:\n        /* \"#utility.yul\":8671:8800   */\n      swap2\n      swap1\n      pop\n      jump\t// out\n        /* \"#utility.yul\":8806:9117   */\n    tag_261:\n        /* \"#utility.yul\":8883:8887   */\n      0x00\n        /* \"#utility.yul\":8973:8991   */\n      0xffffffffffffffff\n        /* \"#utility.yul\":8965:8971   */\n      dup3\n        /* \"#utility.yul\":8962:8992   */\n      gt\n        /* \"#utility.yul\":8959:9015   */\n      iszero\n      tag_389\n      jumpi\n        /* \"#utility.yul\":8995:9013   */\n      tag_390\n      tag_258\n      jump\t// in\n    tag_390:\n        /* \"#utility.yul\":8959:9015   */\n    tag_389:\n        /* \"#utility.yul\":9045:9049   */\n      0x20\n        /* \"#utility.yul\":9037:9043   */\n      dup3\n        /* \"#utility.yul\":9033:9050   */\n      mul\n        /* \"#utility.yul\":9025:9050   */\n      swap1\n      pop\n        /* \"#utility.yul\":9105:9109   */\n      0x20\n        /* \"#utility.yul\":9099:9103   */\n      dup2\n        /* \"#utility.yul\":9095:9110   */\n      add\n        /* \"#utility.yul\":9087:9110   */\n      swap1\n      pop\n        /* \"#utility.yul\":8806:9117   */\n      swap2\n      swap1\n      pop\n      jump\t// out\n        /* \"#utility.yul\":9123:9240   */\n    tag_262:\n        /* \"#utility.yul\":9232:9233   */\n      0x00\n        /* \"#utility.yul\":9229:9230   */\n      dup1\n        /* \"#utility.yul\":9222:9234   */\n      revert\n        /* \"#utility.yul\":9263:9973   */\n    tag_263:\n        /* \"#utility.yul\":9359:9364   */\n      0x00\n        /* \"#utility.yul\":9384:9465   */\n      tag_393\n        /* \"#utility.yul\":9400:9464   */\n      tag_394\n        /* \"#utility.yul\":9457:9463   */\n      dup5\n        /* \"#utility.yul\":9400:9464   */\n      tag_261\n      jump\t// in\n    tag_394:\n        /* \"#utility.yul\":9384:9465   */\n      tag_260\n      jump\t// in\n    tag_393:\n        /* \"#utility.yul\":9375:9465   */\n      swap1\n      pop\n        /* \"#utility.yul\":9485:9490   */\n      dup1\n        /* \"#utility.yul\":9514:9520   */\n      dup4\n        /* \"#utility.yul\":9507:9512   */\n      dup3\n        /* \"#utility.yul\":9500:9521   */\n      mstore\n        /* \"#utility.yul\":9548:9552   */\n      0x20\n        /* \"#utility.yul\":9541:9546   */\n      dup3\n        /* \"#utility.yul\":9537:9553   */\n      add\n        /* \"#utility.yul\":9530:9553   */\n      swap1\n      pop\n        /* \"#utility.yul\":9601:9605   */\n      0x20\n        /* \"#utility.yul\":9593:9599   */\n      dup5\n        /* \"#utility.yul\":9589:9606   */\n      mul\n        /* \"#utility.yul\":9581:9587   */\n      dup4\n        /* \"#utility.yul\":9577:9607   */\n      add\n        /* \"#utility.yul\":9630:9633   */\n      dup6\n        /* \"#utility.yul\":9622:9628   */\n      dup2\n        /* \"#utility.yul\":9619:9634   */\n      gt\n        /* \"#utility.yul\":9616:9738   */\n      iszero\n      tag_395\n      jumpi\n        /* \"#utility.yul\":9649:9728   */\n      tag_396\n      tag_262\n      jump\t// in\n    tag_396:\n        /* \"#utility.yul\":9616:9738   */\n    tag_395:\n        /* \"#utility.yul\":9764:9770   */\n      dup4\n        /* \"#utility.yul\":9747:9967   */\n    tag_397:\n        /* \"#utility.yul\":9781:9787   */\n      dup2\n        /* \"#utility.yul\":9776:9779   */\n      dup2\n        /* \"#utility.yul\":9773:9788   */\n      lt\n        /* \"#utility.yul\":9747:9967   */\n      iszero\n      tag_399\n      jumpi\n        /* \"#utility.yul\":9856:9859   */\n      dup1\n        /* \"#utility.yul\":9885:9922   */\n      tag_400\n        /* \"#utility.yul\":9918:9921   */\n      dup9\n        /* \"#utility.yul\":9906:9916   */\n      dup3\n        /* \"#utility.yul\":9885:9922   */\n      tag_245\n      jump\t// in\n    tag_400:\n        /* \"#utility.yul\":9880:9883   */\n      dup5\n        /* \"#utility.yul\":9873:9923   */\n      mstore\n        /* \"#utility.yul\":9952:9956   */\n      0x20\n        /* \"#utility.yul\":9947:9950   */\n      dup5\n        /* \"#utility.yul\":9943:9957   */\n      add\n        /* \"#utility.yul\":9936:9957   */\n      swap4\n      pop\n        /* \"#utility.yul\":9823:9967   */\n      pop\n        /* \"#utility.yul\":9807:9811   */\n      0x20\n        /* \"#utility.yul\":9802:9805   */\n      dup2\n        /* \"#utility.yul\":9798:9812   */\n      add\n        /* \"#utility.yul\":9791:9812   */\n      swap1\n      pop\n        /* \"#utility.yul\":9747:9967   */\n      jump(tag_397)\n    tag_399:\n        /* \"#utility.yul\":9751:9772   */\n      pop\n        /* \"#utility.yul\":9365:9973   */\n      pop\n      pop\n        /* \"#utility.yul\":9263:9973   */\n      swap4\n      swap3\n      pop\n      pop\n      pop\n      jump\t// out\n        /* \"#utility.yul\":9996:10366   */\n    tag_264:\n        /* \"#utility.yul\":10067:10072   */\n      0x00\n        /* \"#utility.yul\":10116:10119   */\n      dup3\n        /* \"#utility.yul\":10109:10113   */\n      0x1f\n        /* \"#utility.yul\":10101:10107   */\n      dup4\n        /* \"#utility.yul\":10097:10114   */\n      add\n        /* \"#utility.yul\":10093:10120   */\n      slt\n        /* \"#utility.yul\":10083:10205   */\n      tag_402\n      jumpi\n        /* \"#utility.yul\":10124:10203   */\n      tag_403\n      tag_256\n      jump\t// in\n    tag_403:\n        /* \"#utility.yul\":10083:10205   */\n    tag_402:\n        /* \"#utility.yul\":10241:10247   */\n      dup2\n        /* \"#utility.yul\":10228:10248   */\n      calldataload\n        /* \"#utility.yul\":10266:10360   */\n      tag_404\n        /* \"#utility.yul\":10356:10359   */\n      dup5\n        /* \"#utility.yul\":10348:10354   */\n      dup3\n        /* \"#utility.yul\":10341:10345   */\n      0x20\n        /* \"#utility.yul\":10333:10339   */\n      dup7\n        /* \"#utility.yul\":10329:10346   */\n      add\n        /* \"#utility.yul\":10266:10360   */\n      tag_263\n      jump\t// in\n    tag_404:\n        /* \"#utility.yul\":10257:10360   */\n      swap2\n      pop\n        /* \"#utility.yul\":10073:10366   */\n      pop\n        /* \"#utility.yul\":9996:10366   */\n      swap3\n      swap2\n      pop\n      pop\n      jump\t// out\n        /* \"#utility.yul\":10372:11703   */\n    tag_50:\n        /* \"#utility.yul\":10517:10523   */\n      0x00\n        /* \"#utility.yul\":10525:10531   */\n      dup1\n        /* \"#utility.yul\":10533:10539   */\n      0x00\n        /* \"#utility.yul\":10541:10547   */\n      dup1\n        /* \"#utility.yul\":10549:10555   */\n      0x00\n        /* \"#utility.yul\":10598:10601   */\n      0xa0\n        /* \"#utility.yul\":10586:10595   */\n      dup7\n        /* \"#utility.yul\":10577:10584   */\n      dup9\n        /* \"#utility.yul\":10573:10596   */\n      sub\n        /* \"#utility.yul\":10569:10602   */\n      slt\n        /* \"#utility.yul\":10566:10686   */\n      iszero\n      tag_406\n      jumpi\n        /* \"#utility.yul\":10605:10684   */\n      tag_407\n      tag_231\n      jump\t// in\n    tag_407:\n        /* \"#utility.yul\":10566:10686   */\n    tag_406:\n        /* \"#utility.yul\":10725:10726   */\n      0x00\n        /* \"#utility.yul\":10750:10803   */\n      tag_408\n        /* \"#utility.yul\":10795:10802   */\n      dup9\n        /* \"#utility.yul\":10786:10792   */\n      dup3\n        /* \"#utility.yul\":10775:10784   */\n      dup10\n        /* \"#utility.yul\":10771:10793   */\n      add\n        /* \"#utility.yul\":10750:10803   */\n      tag_235\n      jump\t// in\n    tag_408:\n        /* \"#utility.yul\":10740:10803   */\n      swap6\n      pop\n        /* \"#utility.yul\":10696:10813   */\n      pop\n        /* \"#utility.yul\":10880:10882   */\n      0x20\n        /* \"#utility.yul\":10869:10878   */\n      dup7\n        /* \"#utility.yul\":10865:10883   */\n      add\n        /* \"#utility.yul\":10852:10884   */\n      calldataload\n        /* \"#utility.yul\":10911:10929   */\n      0xffffffffffffffff\n        /* \"#utility.yul\":10903:10909   */\n      dup2\n        /* \"#utility.yul\":10900:10930   */\n      gt\n        /* \"#utility.yul\":10897:11014   */\n      iszero\n      tag_409\n      jumpi\n        /* \"#utility.yul\":10933:11012   */\n      tag_410\n      tag_232\n      jump\t// in\n    tag_410:\n        /* \"#utility.yul\":10897:11014   */\n    tag_409:\n        /* \"#utility.yul\":11038:11116   */\n      tag_411\n        /* \"#utility.yul\":11108:11115   */\n      dup9\n        /* \"#utility.yul\":11099:11105   */\n      dup3\n        /* \"#utility.yul\":11088:11097   */\n      dup10\n        /* \"#utility.yul\":11084:11106   */\n      add\n        /* \"#utility.yul\":11038:11116   */\n      tag_264\n      jump\t// in\n    tag_411:\n        /* \"#utility.yul\":11028:11116   */\n      swap5\n      pop\n        /* \"#utility.yul\":10823:11126   */\n      pop\n        /* \"#utility.yul\":11193:11195   */\n      0x40\n        /* \"#utility.yul\":11182:11191   */\n      dup7\n        /* \"#utility.yul\":11178:11196   */\n      add\n        /* \"#utility.yul\":11165:11197   */\n      calldataload\n        /* \"#utility.yul\":11224:11242   */\n      0xffffffffffffffff\n        /* \"#utility.yul\":11216:11222   */\n      dup2\n        /* \"#utility.yul\":11213:11243   */\n      gt\n        /* \"#utility.yul\":11210:11327   */\n      iszero\n      tag_412\n      jumpi\n        /* \"#utility.yul\":11246:11325   */\n      tag_413\n      tag_232\n      jump\t// in\n    tag_413:\n        /* \"#utility.yul\":11210:11327   */\n    tag_412:\n        /* \"#utility.yul\":11351:11429   */\n      tag_414\n        /* \"#utility.yul\":11421:11428   */\n      dup9\n        /* \"#utility.yul\":11412:11418   */\n      dup3\n        /* \"#utility.yul\":11401:11410   */\n      dup10\n        /* \"#utility.yul\":11397:11419   */\n      add\n        /* \"#utility.yul\":11351:11429   */\n      tag_264\n      jump\t// in\n    tag_414:\n        /* \"#utility.yul\":11341:11429   */\n      swap4\n      pop\n        /* \"#utility.yul\":11136:11439   */\n      pop\n        /* \"#utility.yul\":11478:11480   */\n      0x60\n        /* \"#utility.yul\":11504:11557   */\n      tag_415\n        /* \"#utility.yul\":11549:11556   */\n      dup9\n        /* \"#utility.yul\":11540:11546   */\n      dup3\n        /* \"#utility.yul\":11529:11538   */\n      dup10\n        /* \"#utility.yul\":11525:11547   */\n      add\n        /* \"#utility.yul\":11504:11557   */\n      tag_235\n      jump\t// in\n    tag_415:\n        /* \"#utility.yul\":11494:11557   */\n      swap3\n      pop\n        /* \"#utility.yul\":11449:11567   */\n      pop\n        /* \"#utility.yul\":11606:11609   */\n      0x80\n        /* \"#utility.yul\":11633:11686   */\n      tag_416\n        /* \"#utility.yul\":11678:11685   */\n      dup9\n        /* \"#utility.yul\":11669:11675   */\n      dup3\n        /* \"#utility.yul\":11658:11667   */\n      dup10\n        /* \"#utility.yul\":11654:11676   */\n      add\n        /* \"#utility.yul\":11633:11686   */\n      tag_235\n      jump\t// in\n    tag_416:\n        /* \"#utility.yul\":11623:11686   */\n      swap2\n      pop\n        /* \"#utility.yul\":11577:11696   */\n      pop\n        /* \"#utility.yul\":10372:11703   */\n      swap3\n      swap6\n      pop\n      swap3\n      swap6\n      swap1\n      swap4\n      pop\n      jump\t// out\n        /* \"#utility.yul\":11709:11827   */\n    tag_265:\n        /* \"#utility.yul\":11796:11820   */\n      tag_418\n        /* \"#utility.yul\":11814:11819   */\n      dup2\n        /* \"#utility.yul\":11796:11820   */\n      tag_243\n      jump\t// in\n    tag_418:\n        /* \"#utility.yul\":11791:11794   */\n      dup3\n        /* \"#utility.yul\":11784:11821   */\n      mstore\n        /* \"#utility.yul\":11709:11827   */\n      pop\n      pop\n      jump\t// out\n        /* \"#utility.yul\":11833:12055   */\n    tag_56:\n        /* \"#utility.yul\":11926:11930   */\n      0x00\n        /* \"#utility.yul\":11964:11966   */\n      0x20\n        /* \"#utility.yul\":11953:11962   */\n      dup3\n        /* \"#utility.yul\":11949:11967   */\n      add\n        /* \"#utility.yul\":11941:11967   */\n      swap1\n      pop\n        /* \"#utility.yul\":11977:12048   */\n      tag_420\n        /* \"#utility.yul\":12045:12046   */\n      0x00\n        /* \"#utility.yul\":12034:12043   */\n      dup4\n        /* \"#utility.yul\":12030:12047   */\n      add\n        /* \"#utility.yul\":12021:12027   */\n      dup5\n        /* \"#utility.yul\":11977:12048   */\n      tag_265\n      jump\t// in\n    tag_420:\n        /* \"#utility.yul\":11833:12055   */\n      swap3\n      swap2\n      pop\n      pop\n      jump\t// out\n        /* \"#utility.yul\":12061:12393   */\n    tag_65:\n        /* \"#utility.yul\":12182:12186   */\n      0x00\n        /* \"#utility.yul\":12220:12222   */\n      0x40\n        /* \"#utility.yul\":12209:12218   */\n      dup3\n        /* \"#utility.yul\":12205:12223   */\n      add\n        /* \"#utility.yul\":12197:12223   */\n      swap1\n      pop\n        /* \"#utility.yul\":12233:12304   */\n      tag_422\n        /* \"#utility.yul\":12301:12302   */\n      0x00\n        /* \"#utility.yul\":12290:12299   */\n      dup4\n        /* \"#utility.yul\":12286:12303   */\n      add\n        /* \"#utility.yul\":12277:12283   */\n      dup6\n        /* \"#utility.yul\":12233:12304   */\n      tag_241\n      jump\t// in\n    tag_422:\n        /* \"#utility.yul\":12314:12386   */\n      tag_423\n        /* \"#utility.yul\":12382:12384   */\n      0x20\n        /* \"#utility.yul\":12371:12380   */\n      dup4\n        /* \"#utility.yul\":12367:12385   */\n      add\n        /* \"#utility.yul\":12358:12364   */\n      dup5\n        /* \"#utility.yul\":12314:12386   */\n      tag_241\n      jump\t// in\n    tag_423:\n        /* \"#utility.yul\":12061:12393   */\n      swap4\n      swap3\n      pop\n      pop\n      pop\n      jump\t// out\n        /* \"#utility.yul\":12399:12513   */\n    tag_266:\n        /* \"#utility.yul\":12466:12472   */\n      0x00\n        /* \"#utility.yul\":12500:12505   */\n      dup2\n        /* \"#utility.yul\":12494:12506   */\n      mload\n        /* \"#utility.yul\":12484:12506   */\n      swap1\n      pop\n        /* \"#utility.yul\":12399:12513   */\n      swap2\n      swap1\n      pop\n      jump\t// out\n        /* \"#utility.yul\":12519:12703   */\n    tag_267:\n        /* \"#utility.yul\":12618:12629   */\n      0x00\n        /* \"#utility.yul\":12652:12658   */\n      dup3\n        /* \"#utility.yul\":12647:12650   */\n      dup3\n        /* \"#utility.yul\":12640:12659   */\n      mstore\n        /* \"#utility.yul\":12692:12696   */\n      0x20\n        /* \"#utility.yul\":12687:12690   */\n      dup3\n        /* \"#utility.yul\":12683:12697   */\n      add\n        /* \"#utility.yul\":12668:12697   */\n      swap1\n      pop\n        /* \"#utility.yul\":12519:12703   */\n      swap3\n      swap2\n      pop\n      pop\n      jump\t// out\n        /* \"#utility.yul\":12709:12841   */\n    tag_268:\n        /* \"#utility.yul\":12776:12780   */\n      0x00\n        /* \"#utility.yul\":12799:12802   */\n      dup2\n        /* \"#utility.yul\":12791:12802   */\n      swap1\n      pop\n        /* \"#utility.yul\":12829:12833   */\n      0x20\n        /* \"#utility.yul\":12824:12827   */\n      dup3\n        /* \"#utility.yul\":12820:12834   */\n      add\n        /* \"#utility.yul\":12812:12834   */\n      swap1\n      pop\n        /* \"#utility.yul\":12709:12841   */\n      swap2\n      swap1\n      pop\n      jump\t// out\n        /* \"#utility.yul\":12847:12955   */\n    tag_269:\n        /* \"#utility.yul\":12924:12948   */\n      tag_428\n        /* \"#utility.yul\":12942:12947   */\n      dup2\n        /* \"#utility.yul\":12924:12948   */\n      tag_243\n      jump\t// in\n    tag_428:\n        /* \"#utility.yul\":12919:12922   */\n      dup3\n        /* \"#utility.yul\":12912:12949   */\n      mstore\n        /* \"#utility.yul\":12847:12955   */\n      pop\n      pop\n      jump\t// out\n        /* \"#utility.yul\":12961:13140   */\n    tag_270:\n        /* \"#utility.yul\":13030:13040   */\n      0x00\n        /* \"#utility.yul\":13051:13097   */\n      tag_430\n        /* \"#utility.yul\":13093:13096   */\n      dup4\n        /* \"#utility.yul\":13085:13091   */\n      dup4\n        /* \"#utility.yul\":13051:13097   */\n      tag_269\n      jump\t// in\n    tag_430:\n        /* \"#utility.yul\":13129:13133   */\n      0x20\n        /* \"#utility.yul\":13124:13127   */\n      dup4\n        /* \"#utility.yul\":13120:13134   */\n      add\n        /* \"#utility.yul\":13106:13134   */\n      swap1\n      pop\n        /* \"#utility.yul\":12961:13140   */\n      swap3\n      swap2\n      pop\n      pop\n      jump\t// out\n        /* \"#utility.yul\":13146:13259   */\n    tag_271:\n        /* \"#utility.yul\":13216:13220   */\n      0x00\n        /* \"#utility.yul\":13248:13252   */\n      0x20\n        /* \"#utility.yul\":13243:13246   */\n      dup3\n        /* \"#utility.yul\":13239:13253   */\n      add\n        /* \"#utility.yul\":13231:13253   */\n      swap1\n      pop\n        /* \"#utility.yul\":13146:13259   */\n      swap2\n      swap1\n      pop\n      jump\t// out\n        /* \"#utility.yul\":13295:14027   */\n    tag_272:\n        /* \"#utility.yul\":13414:13417   */\n      0x00\n        /* \"#utility.yul\":13443:13497   */\n      tag_433\n        /* \"#utility.yul\":13491:13496   */\n      dup3\n        /* \"#utility.yul\":13443:13497   */\n      tag_266\n      jump\t// in\n    tag_433:\n        /* \"#utility.yul\":13513:13599   */\n      tag_434\n        /* \"#utility.yul\":13592:13598   */\n      dup2\n        /* \"#utility.yul\":13587:13590   */\n      dup6\n        /* \"#utility.yul\":13513:13599   */\n      tag_267\n      jump\t// in\n    tag_434:\n        /* \"#utility.yul\":13506:13599   */\n      swap4\n      pop\n        /* \"#utility.yul\":13623:13679   */\n      tag_435\n        /* \"#utility.yul\":13673:13678   */\n      dup4\n        /* \"#utility.yul\":13623:13679   */\n      tag_268\n      jump\t// in\n    tag_435:\n        /* \"#utility.yul\":13702:13709   */\n      dup1\n        /* \"#utility.yul\":13733:13734   */\n      0x00\n        /* \"#utility.yul\":13718:14002   */\n    tag_436:\n        /* \"#utility.yul\":13743:13749   */\n      dup4\n        /* \"#utility.yul\":13740:13741   */\n      dup2\n        /* \"#utility.yul\":13737:13750   */\n      lt\n        /* \"#utility.yul\":13718:14002   */\n      iszero\n      tag_438\n      jumpi\n        /* \"#utility.yul\":13819:13825   */\n      dup2\n        /* \"#utility.yul\":13813:13826   */\n      mload\n        /* \"#utility.yul\":13846:13909   */\n      tag_439\n        /* \"#utility.yul\":13905:13908   */\n      dup9\n        /* \"#utility.yul\":13890:13903   */\n      dup3\n        /* \"#utility.yul\":13846:13909   */\n      tag_270\n      jump\t// in\n    tag_439:\n        /* \"#utility.yul\":13839:13909   */\n      swap8\n      pop\n        /* \"#utility.yul\":13932:13992   */\n      tag_440\n        /* \"#utility.yul\":13985:13991   */\n      dup4\n        /* \"#utility.yul\":13932:13992   */\n      tag_271\n      jump\t// in\n    tag_440:\n        /* \"#utility.yul\":13922:13992   */\n      swap3\n      pop\n        /* \"#utility.yul\":13778:14002   */\n      pop\n        /* \"#utility.yul\":13765:13766   */\n      0x01\n        /* \"#utility.yul\":13762:13763   */\n      dup2\n        /* \"#utility.yul\":13758:13767   */\n      add\n        /* \"#utility.yul\":13753:13767   */\n      swap1\n      pop\n        /* \"#utility.yul\":13718:14002   */\n      jump(tag_436)\n    tag_438:\n        /* \"#utility.yul\":13722:13736   */\n      pop\n        /* \"#utility.yul\":14018:14021   */\n      dup6\n        /* \"#utility.yul\":14011:14021   */\n      swap4\n      pop\n        /* \"#utility.yul\":13419:14027   */\n      pop\n      pop\n      pop\n        /* \"#utility.yul\":13295:14027   */\n      swap3\n      swap2\n      pop\n      pop\n      jump\t// out\n        /* \"#utility.yul\":14033:15221   */\n    tag_73:\n        /* \"#utility.yul\":14394:14398   */\n      0x00\n        /* \"#utility.yul\":14432:14435   */\n      0xe0\n        /* \"#utility.yul\":14421:14430   */\n      dup3\n        /* \"#utility.yul\":14417:14436   */\n      add\n        /* \"#utility.yul\":14409:14436   */\n      swap1\n      pop\n        /* \"#utility.yul\":14446:14517   */\n      tag_442\n        /* \"#utility.yul\":14514:14515   */\n      0x00\n        /* \"#utility.yul\":14503:14512   */\n      dup4\n        /* \"#utility.yul\":14499:14516   */\n      add\n        /* \"#utility.yul\":14490:14496   */\n      dup11\n        /* \"#utility.yul\":14446:14517   */\n      tag_241\n      jump\t// in\n    tag_442:\n        /* \"#utility.yul\":14527:14599   */\n      tag_443\n        /* \"#utility.yul\":14595:14597   */\n      0x20\n        /* \"#utility.yul\":14584:14593   */\n      dup4\n        /* \"#utility.yul\":14580:14598   */\n      add\n        /* \"#utility.yul\":14571:14577   */\n      dup10\n        /* \"#utility.yul\":14527:14599   */\n      tag_241\n      jump\t// in\n    tag_443:\n        /* \"#utility.yul\":14646:14655   */\n      dup2\n        /* \"#utility.yul\":14640:14644   */\n      dup2\n        /* \"#utility.yul\":14636:14656   */\n      sub\n        /* \"#utility.yul\":14631:14633   */\n      0x40\n        /* \"#utility.yul\":14620:14629   */\n      dup4\n        /* \"#utility.yul\":14616:14634   */\n      add\n        /* \"#utility.yul\":14609:14657   */\n      mstore\n        /* \"#utility.yul\":14674:14782   */\n      tag_444\n        /* \"#utility.yul\":14777:14781   */\n      dup2\n        /* \"#utility.yul\":14768:14774   */\n      dup9\n        /* \"#utility.yul\":14674:14782   */\n      tag_272\n      jump\t// in\n    tag_444:\n        /* \"#utility.yul\":14666:14782   */\n      swap1\n      pop\n        /* \"#utility.yul\":14829:14838   */\n      dup2\n        /* \"#utility.yul\":14823:14827   */\n      dup2\n        /* \"#utility.yul\":14819:14839   */\n      sub\n        /* \"#utility.yul\":14814:14816   */\n      0x60\n        /* \"#utility.yul\":14803:14812   */\n      dup4\n        /* \"#utility.yul\":14799:14817   */\n      add\n        /* \"#utility.yul\":14792:14840   */\n      mstore\n        /* \"#utility.yul\":14857:14965   */\n      tag_445\n        /* \"#utility.yul\":14960:14964   */\n      dup2\n        /* \"#utility.yul\":14951:14957   */\n      dup8\n        /* \"#utility.yul\":14857:14965   */\n      tag_272\n      jump\t// in\n    tag_445:\n        /* \"#utility.yul\":14849:14965   */\n      swap1\n      pop\n        /* \"#utility.yul\":14975:15048   */\n      tag_446\n        /* \"#utility.yul\":15043:15046   */\n      0x80\n        /* \"#utility.yul\":15032:15041   */\n      dup4\n        /* \"#utility.yul\":15028:15047   */\n      add\n        /* \"#utility.yul\":15019:15025   */\n      dup7\n        /* \"#utility.yul\":14975:15048   */\n      tag_241\n      jump\t// in\n    tag_446:\n        /* \"#utility.yul\":15058:15131   */\n      tag_447\n        /* \"#utility.yul\":15126:15129   */\n      0xa0\n        /* \"#utility.yul\":15115:15124   */\n      dup4\n        /* \"#utility.yul\":15111:15130   */\n      add\n        /* \"#utility.yul\":15102:15108   */\n      dup6\n        /* \"#utility.yul\":15058:15131   */\n      tag_241\n      jump\t// in\n    tag_447:\n        /* \"#utility.yul\":15141:15214   */\n      tag_448\n        /* \"#utility.yul\":15209:15212   */\n      0xc0\n        /* \"#utility.yul\":15198:15207   */\n      dup4\n        /* \"#utility.yul\":15194:15213   */\n      add\n        /* \"#utility.yul\":15185:15191   */\n      dup5\n        /* \"#utility.yul\":15141:15214   */\n      tag_241\n      jump\t// in\n    tag_448:\n        /* \"#utility.yul\":14033:15221   */\n      swap9\n      swap8\n      pop\n      pop\n      pop\n      pop\n      pop\n      pop\n      pop\n      pop\n      jump\t// out\n        /* \"#utility.yul\":15227:15396   */\n    tag_273:\n        /* \"#utility.yul\":15311:15322   */\n      0x00\n        /* \"#utility.yul\":15345:15351   */\n      dup3\n        /* \"#utility.yul\":15340:15343   */\n      dup3\n        /* \"#utility.yul\":15333:15352   */\n      mstore\n        /* \"#utility.yul\":15385:15389   */\n      0x20\n        /* \"#utility.yul\":15380:15383   */\n      dup3\n        /* \"#utility.yul\":15376:15390   */\n      add\n        /* \"#utility.yul\":15361:15390   */\n      swap1\n      pop\n        /* \"#utility.yul\":15227:15396   */\n      swap3\n      swap2\n      pop\n      pop\n      jump\t// out\n        /* \"#utility.yul\":15402:15642   */\n    tag_274:\n        /* \"#utility.yul\":15542:15576   */\n      0x546f2063616c6c2074686973206d6574686f6420796f75206861766520746f20\n        /* \"#utility.yul\":15538:15539   */\n      0x00\n        /* \"#utility.yul\":15530:15536   */\n      dup3\n        /* \"#utility.yul\":15526:15540   */\n      add\n        /* \"#utility.yul\":15519:15577   */\n      mstore\n        /* \"#utility.yul\":15611:15634   */\n      0x6265206f776e6572206f722073756241646d696e210000000000000000000000\n        /* \"#utility.yul\":15606:15608   */\n      0x20\n        /* \"#utility.yul\":15598:15604   */\n      dup3\n        /* \"#utility.yul\":15594:15609   */\n      add\n        /* \"#utility.yul\":15587:15635   */\n      mstore\n        /* \"#utility.yul\":15402:15642   */\n      pop\n      jump\t// out\n        /* \"#utility.yul\":15648:16014   */\n    tag_275:\n        /* \"#utility.yul\":15790:15793   */\n      0x00\n        /* \"#utility.yul\":15811:15878   */\n      tag_452\n        /* \"#utility.yul\":15875:15877   */\n      0x35\n        /* \"#utility.yul\":15870:15873   */\n      dup4\n        /* \"#utility.yul\":15811:15878   */\n      tag_273\n      jump\t// in\n    tag_452:\n        /* \"#utility.yul\":15804:15878   */\n      swap2\n      pop\n        /* \"#utility.yul\":15887:15980   */\n      tag_453\n        /* \"#utility.yul\":15976:15979   */\n      dup3\n        /* \"#utility.yul\":15887:15980   */\n      tag_274\n      jump\t// in\n    tag_453:\n        /* \"#utility.yul\":16005:16007   */\n      0x40\n        /* \"#utility.yul\":16000:16003   */\n      dup3\n        /* \"#utility.yul\":15996:16008   */\n      add\n        /* \"#utility.yul\":15989:16008   */\n      swap1\n      pop\n        /* \"#utility.yul\":15648:16014   */\n      swap2\n      swap1\n      pop\n      jump\t// out\n        /* \"#utility.yul\":16020:16439   */\n    tag_87:\n        /* \"#utility.yul\":16186:16190   */\n      0x00\n        /* \"#utility.yul\":16224:16226   */\n      0x20\n        /* \"#utility.yul\":16213:16222   */\n      dup3\n        /* \"#utility.yul\":16209:16227   */\n      add\n        /* \"#utility.yul\":16201:16227   */\n      swap1\n      pop\n        /* \"#utility.yul\":16273:16282   */\n      dup2\n        /* \"#utility.yul\":16267:16271   */\n      dup2\n        /* \"#utility.yul\":16263:16283   */\n      sub\n        /* \"#utility.yul\":16259:16260   */\n      0x00\n        /* \"#utility.yul\":16248:16257   */\n      dup4\n        /* \"#utility.yul\":16244:16261   */\n      add\n        /* \"#utility.yul\":16237:16284   */\n      mstore\n        /* \"#utility.yul\":16301:16432   */\n      tag_455\n        /* \"#utility.yul\":16427:16431   */\n      dup2\n        /* \"#utility.yul\":16301:16432   */\n      tag_275\n      jump\t// in\n    tag_455:\n        /* \"#utility.yul\":16293:16432   */\n      swap1\n      pop\n        /* \"#utility.yul\":16020:16439   */\n      swap2\n      swap1\n      pop\n      jump\t// out\n        /* \"#utility.yul\":16445:16675   */\n    tag_276:\n        /* \"#utility.yul\":16585:16619   */\n      0x63616e27742066696e6420636f6d706574696f6e207769746820746869732063\n        /* \"#utility.yul\":16581:16582   */\n      0x00\n        /* \"#utility.yul\":16573:16579   */\n      dup3\n        /* \"#utility.yul\":16569:16583   */\n      add\n        /* \"#utility.yul\":16562:16620   */\n      mstore\n        /* \"#utility.yul\":16654:16667   */\n      0x6f6d706574696f6e496421000000000000000000000000000000000000000000\n        /* \"#utility.yul\":16649:16651   */\n      0x20\n        /* \"#utility.yul\":16641:16647   */\n      dup3\n        /* \"#utility.yul\":16637:16652   */\n      add\n        /* \"#utility.yul\":16630:16668   */\n      mstore\n        /* \"#utility.yul\":16445:16675   */\n      pop\n      jump\t// out\n        /* \"#utility.yul\":16681:17047   */\n    tag_277:\n        /* \"#utility.yul\":16823:16826   */\n      0x00\n        /* \"#utility.yul\":16844:16911   */\n      tag_458\n        /* \"#utility.yul\":16908:16910   */\n      0x2b\n        /* \"#utility.yul\":16903:16906   */\n      dup4\n        /* \"#utility.yul\":16844:16911   */\n      tag_273\n      jump\t// in\n    tag_458:\n        /* \"#utility.yul\":16837:16911   */\n      swap2\n      pop\n        /* \"#utility.yul\":16920:17013   */\n      tag_459\n        /* \"#utility.yul\":17009:17012   */\n      dup3\n        /* \"#utility.yul\":16920:17013   */\n      tag_276\n      jump\t// in\n    tag_459:\n        /* \"#utility.yul\":17038:17040   */\n      0x40\n        /* \"#utility.yul\":17033:17036   */\n      dup3\n        /* \"#utility.yul\":17029:17041   */\n      add\n        /* \"#utility.yul\":17022:17041   */\n      swap1\n      pop\n        /* \"#utility.yul\":16681:17047   */\n      swap2\n      swap1\n      pop\n      jump\t// out\n        /* \"#utility.yul\":17053:17472   */\n    tag_93:\n        /* \"#utility.yul\":17219:17223   */\n      0x00\n        /* \"#utility.yul\":17257:17259   */\n      0x20\n        /* \"#utility.yul\":17246:17255   */\n      dup3\n        /* \"#utility.yul\":17242:17260   */\n      add\n        /* \"#utility.yul\":17234:17260   */\n      swap1\n      pop\n        /* \"#utility.yul\":17306:17315   */\n      dup2\n        /* \"#utility.yul\":17300:17304   */\n      dup2\n        /* \"#utility.yul\":17296:17316   */\n      sub\n        /* \"#utility.yul\":17292:17293   */\n      0x00\n        /* \"#utility.yul\":17281:17290   */\n      dup4\n        /* \"#utility.yul\":17277:17294   */\n      add\n        /* \"#utility.yul\":17270:17317   */\n      mstore\n        /* \"#utility.yul\":17334:17465   */\n      tag_461\n        /* \"#utility.yul\":17460:17464   */\n      dup2\n        /* \"#utility.yul\":17334:17465   */\n      tag_277\n      jump\t// in\n    tag_461:\n        /* \"#utility.yul\":17326:17465   */\n      swap1\n      pop\n        /* \"#utility.yul\":17053:17472   */\n      swap2\n      swap1\n      pop\n      jump\t// out\n        /* \"#utility.yul\":17478:17705   */\n    tag_278:\n        /* \"#utility.yul\":17618:17652   */\n      0x737461747573206e65656420746f20626520736f6d74696e6720626574776565\n        /* \"#utility.yul\":17614:17615   */\n      0x00\n        /* \"#utility.yul\":17606:17612   */\n      dup3\n        /* \"#utility.yul\":17602:17616   */\n      add\n        /* \"#utility.yul\":17595:17653   */\n      mstore\n        /* \"#utility.yul\":17687:17697   */\n      0x6e203020746f2032000000000000000000000000000000000000000000000000\n        /* \"#utility.yul\":17682:17684   */\n      0x20\n        /* \"#utility.yul\":17674:17680   */\n      dup3\n        /* \"#utility.yul\":17670:17685   */\n      add\n        /* \"#utility.yul\":17663:17698   */\n      mstore\n        /* \"#utility.yul\":17478:17705   */\n      pop\n      jump\t// out\n        /* \"#utility.yul\":17711:18077   */\n    tag_279:\n        /* \"#utility.yul\":17853:17856   */\n      0x00\n        /* \"#utility.yul\":17874:17941   */\n      tag_464\n        /* \"#utility.yul\":17938:17940   */\n      0x28\n        /* \"#utility.yul\":17933:17936   */\n      dup4\n        /* \"#utility.yul\":17874:17941   */\n      tag_273\n      jump\t// in\n    tag_464:\n        /* \"#utility.yul\":17867:17941   */\n      swap2\n      pop\n        /* \"#utility.yul\":17950:18043   */\n      tag_465\n        /* \"#utility.yul\":18039:18042   */\n      dup3\n        /* \"#utility.yul\":17950:18043   */\n      tag_278\n      jump\t// in\n    tag_465:\n        /* \"#utility.yul\":18068:18070   */\n      0x40\n        /* \"#utility.yul\":18063:18066   */\n      dup3\n        /* \"#utility.yul\":18059:18071   */\n      add\n        /* \"#utility.yul\":18052:18071   */\n      swap1\n      pop\n        /* \"#utility.yul\":17711:18077   */\n      swap2\n      swap1\n      pop\n      jump\t// out\n        /* \"#utility.yul\":18083:18502   */\n    tag_97:\n        /* \"#utility.yul\":18249:18253   */\n      0x00\n        /* \"#utility.yul\":18287:18289   */\n      0x20\n        /* \"#utility.yul\":18276:18285   */\n      dup3\n        /* \"#utility.yul\":18272:18290   */\n      add\n        /* \"#utility.yul\":18264:18290   */\n      swap1\n      pop\n        /* \"#utility.yul\":18336:18345   */\n      dup2\n        /* \"#utility.yul\":18330:18334   */\n      dup2\n        /* \"#utility.yul\":18326:18346   */\n      sub\n        /* \"#utility.yul\":18322:18323   */\n      0x00\n        /* \"#utility.yul\":18311:18320   */\n      dup4\n        /* \"#utility.yul\":18307:18324   */\n      add\n        /* \"#utility.yul\":18300:18347   */\n      mstore\n        /* \"#utility.yul\":18364:18495   */\n      tag_467\n        /* \"#utility.yul\":18490:18494   */\n      dup2\n        /* \"#utility.yul\":18364:18495   */\n      tag_279\n      jump\t// in\n    tag_467:\n        /* \"#utility.yul\":18356:18495   */\n      swap1\n      pop\n        /* \"#utility.yul\":18083:18502   */\n      swap2\n      swap1\n      pop\n      jump\t// out\n        /* \"#utility.yul\":18508:18690   */\n    tag_280:\n        /* \"#utility.yul\":18648:18682   */\n      0x4f776e61626c653a2063616c6c6572206973206e6f7420746865206f776e6572\n        /* \"#utility.yul\":18644:18645   */\n      0x00\n        /* \"#utility.yul\":18636:18642   */\n      dup3\n        /* \"#utility.yul\":18632:18646   */\n      add\n        /* \"#utility.yul\":18625:18683   */\n      mstore\n        /* \"#utility.yul\":18508:18690   */\n      pop\n      jump\t// out\n        /* \"#utility.yul\":18696:19062   */\n    tag_281:\n        /* \"#utility.yul\":18838:18841   */\n      0x00\n        /* \"#utility.yul\":18859:18926   */\n      tag_470\n        /* \"#utility.yul\":18923:18925   */\n      0x20\n        /* \"#utility.yul\":18918:18921   */\n      dup4\n        /* \"#utility.yul\":18859:18926   */\n      tag_273\n      jump\t// in\n    tag_470:\n        /* \"#utility.yul\":18852:18926   */\n      swap2\n      pop\n        /* \"#utility.yul\":18935:19028   */\n      tag_471\n        /* \"#utility.yul\":19024:19027   */\n      dup3\n        /* \"#utility.yul\":18935:19028   */\n      tag_280\n      jump\t// in\n    tag_471:\n        /* \"#utility.yul\":19053:19055   */\n      0x20\n        /* \"#utility.yul\":19048:19051   */\n      dup3\n        /* \"#utility.yul\":19044:19056   */\n      add\n        /* \"#utility.yul\":19037:19056   */\n      swap1\n      pop\n        /* \"#utility.yul\":18696:19062   */\n      swap2\n      swap1\n      pop\n      jump\t// out\n        /* \"#utility.yul\":19068:19487   */\n    tag_115:\n        /* \"#utility.yul\":19234:19238   */\n      0x00\n        /* \"#utility.yul\":19272:19274   */\n      0x20\n        /* \"#utility.yul\":19261:19270   */\n      dup3\n        /* \"#utility.yul\":19257:19275   */\n      add\n        /* \"#utility.yul\":19249:19275   */\n      swap1\n      pop\n        /* \"#utility.yul\":19321:19330   */\n      dup2\n        /* \"#utility.yul\":19315:19319   */\n      dup2\n        /* \"#utility.yul\":19311:19331   */\n      sub\n        /* \"#utility.yul\":19307:19308   */\n      0x00\n        /* \"#utility.yul\":19296:19305   */\n      dup4\n        /* \"#utility.yul\":19292:19309   */\n      add\n        /* \"#utility.yul\":19285:19332   */\n      mstore\n        /* \"#utility.yul\":19349:19480   */\n      tag_473\n        /* \"#utility.yul\":19475:19479   */\n      dup2\n        /* \"#utility.yul\":19349:19480   */\n      tag_281\n      jump\t// in\n    tag_473:\n        /* \"#utility.yul\":19341:19480   */\n      swap1\n      pop\n        /* \"#utility.yul\":19068:19487   */\n      swap2\n      swap1\n      pop\n      jump\t// out\n        /* \"#utility.yul\":19493:19673   */\n    tag_282:\n        /* \"#utility.yul\":19541:19618   */\n      0x4e487b7100000000000000000000000000000000000000000000000000000000\n        /* \"#utility.yul\":19538:19539   */\n      0x00\n        /* \"#utility.yul\":19531:19619   */\n      mstore\n        /* \"#utility.yul\":19638:19642   */\n      0x11\n        /* \"#utility.yul\":19635:19636   */\n      0x04\n        /* \"#utility.yul\":19628:19643   */\n      mstore\n        /* \"#utility.yul\":19662:19666   */\n      0x24\n        /* \"#utility.yul\":19659:19660   */\n      0x00\n        /* \"#utility.yul\":19652:19667   */\n      revert\n        /* \"#utility.yul\":19679:19984   */\n    tag_136:\n        /* \"#utility.yul\":19719:19722   */\n      0x00\n        /* \"#utility.yul\":19738:19758   */\n      tag_476\n        /* \"#utility.yul\":19756:19757   */\n      dup3\n        /* \"#utility.yul\":19738:19758   */\n      tag_233\n      jump\t// in\n    tag_476:\n        /* \"#utility.yul\":19733:19758   */\n      swap2\n      pop\n        /* \"#utility.yul\":19772:19792   */\n      tag_477\n        /* \"#utility.yul\":19790:19791   */\n      dup4\n        /* \"#utility.yul\":19772:19792   */\n      tag_233\n      jump\t// in\n    tag_477:\n        /* \"#utility.yul\":19767:19792   */\n      swap3\n      pop\n        /* \"#utility.yul\":19926:19927   */\n      dup3\n        /* \"#utility.yul\":19858:19924   */\n      0xffffffffffffffffffffffffffffffffffffffffffffffffffffffffffffffff\n        /* \"#utility.yul\":19854:19928   */\n      sub\n        /* \"#utility.yul\":19851:19852   */\n      dup3\n        /* \"#utility.yul\":19848:19929   */\n      gt\n        /* \"#utility.yul\":19845:19952   */\n      iszero\n      tag_478\n      jumpi\n        /* \"#utility.yul\":19932:19950   */\n      tag_479\n      tag_282\n      jump\t// in\n    tag_479:\n        /* \"#utility.yul\":19845:19952   */\n    tag_478:\n        /* \"#utility.yul\":19976:19977   */\n      dup3\n        /* \"#utility.yul\":19973:19974   */\n      dup3\n        /* \"#utility.yul\":19969:19978   */\n      add\n        /* \"#utility.yul\":19962:19978   */\n      swap1\n      pop\n        /* \"#utility.yul\":19679:19984   */\n      swap3\n      swap2\n      pop\n      pop\n      jump\t// out\n        /* \"#utility.yul\":19990:20171   */\n    tag_283:\n        /* \"#utility.yul\":20130:20163   */\n      0x63616e27742066696e6420707265736574207769746820746869732069642100\n        /* \"#utility.yul\":20126:20127   */\n      0x00\n        /* \"#utility.yul\":20118:20124   */\n      dup3\n        /* \"#utility.yul\":20114:20128   */\n      add\n        /* \"#utility.yul\":20107:20164   */\n      mstore\n        /* \"#utility.yul\":19990:20171   */\n      pop\n      jump\t// out\n        /* \"#utility.yul\":20177:20543   */\n    tag_284:\n        /* \"#utility.yul\":20319:20322   */\n      0x00\n        /* \"#utility.yul\":20340:20407   */\n      tag_482\n        /* \"#utility.yul\":20404:20406   */\n      0x1f\n        /* \"#utility.yul\":20399:20402   */\n      dup4\n        /* \"#utility.yul\":20340:20407   */\n      tag_273\n      jump\t// in\n    tag_482:\n        /* \"#utility.yul\":20333:20407   */\n      swap2\n      pop\n        /* \"#utility.yul\":20416:20509   */\n      tag_483\n        /* \"#utility.yul\":20505:20508   */\n      dup3\n        /* \"#utility.yul\":20416:20509   */\n      tag_283\n      jump\t// in\n    tag_483:\n        /* \"#utility.yul\":20534:20536   */\n      0x20\n        /* \"#utility.yul\":20529:20532   */\n      dup3\n        /* \"#utility.yul\":20525:20537   */\n      add\n        /* \"#utility.yul\":20518:20537   */\n      swap1\n      pop\n        /* \"#utility.yul\":20177:20543   */\n      swap2\n      swap1\n      pop\n      jump\t// out\n        /* \"#utility.yul\":20549:20968   */\n    tag_151:\n        /* \"#utility.yul\":20715:20719   */\n      0x00\n        /* \"#utility.yul\":20753:20755   */\n      0x20\n        /* \"#utility.yul\":20742:20751   */\n      dup3\n        /* \"#utility.yul\":20738:20756   */\n      add\n        /* \"#utility.yul\":20730:20756   */\n      swap1\n      pop\n        /* \"#utility.yul\":20802:20811   */\n      dup2\n        /* \"#utility.yul\":20796:20800   */\n      dup2\n        /* \"#utility.yul\":20792:20812   */\n      sub\n        /* \"#utility.yul\":20788:20789   */\n      0x00\n        /* \"#utility.yul\":20777:20786   */\n      dup4\n        /* \"#utility.yul\":20773:20790   */\n      add\n        /* \"#utility.yul\":20766:20813   */\n      mstore\n        /* \"#utility.yul\":20830:20961   */\n      tag_485\n        /* \"#utility.yul\":20956:20960   */\n      dup2\n        /* \"#utility.yul\":20830:20961   */\n      tag_284\n      jump\t// in\n    tag_485:\n        /* \"#utility.yul\":20822:20961   */\n      swap1\n      pop\n        /* \"#utility.yul\":20549:20968   */\n      swap2\n      swap1\n      pop\n      jump\t// out\n        /* \"#utility.yul\":20974:21201   */\n    tag_285:\n        /* \"#utility.yul\":21114:21148   */\n      0x77696e6e6572206e65656420746f20626520736f6d74696e6720626574776565\n        /* \"#utility.yul\":21110:21111   */\n      0x00\n        /* \"#utility.yul\":21102:21108   */\n      dup3\n        /* \"#utility.yul\":21098:21112   */\n      add\n        /* \"#utility.yul\":21091:21149   */\n      mstore\n        /* \"#utility.yul\":21183:21193   */\n      0x6e203020746f2033000000000000000000000000000000000000000000000000\n        /* \"#utility.yul\":21178:21180   */\n      0x20\n        /* \"#utility.yul\":21170:21176   */\n      dup3\n        /* \"#utility.yul\":21166:21181   */\n      add\n        /* \"#utility.yul\":21159:21194   */\n      mstore\n        /* \"#utility.yul\":20974:21201   */\n      pop\n      jump\t// out\n        /* \"#utility.yul\":21207:21573   */\n    tag_286:\n        /* \"#utility.yul\":21349:21352   */\n      0x00\n        /* \"#utility.yul\":21370:21437   */\n      tag_488\n        /* \"#utility.yul\":21434:21436   */\n      0x28\n        /* \"#utility.yul\":21429:21432   */\n      dup4\n        /* \"#utility.yul\":21370:21437   */\n      tag_273\n      jump\t// in\n    tag_488:\n        /* \"#utility.yul\":21363:21437   */\n      swap2\n      pop\n        /* \"#utility.yul\":21446:21539   */\n      tag_489\n        /* \"#utility.yul\":21535:21538   */\n      dup3\n        /* \"#utility.yul\":21446:21539   */\n      tag_285\n      jump\t// in\n    tag_489:\n        /* \"#utility.yul\":21564:21566   */\n      0x40\n        /* \"#utility.yul\":21559:21562   */\n      dup3\n        /* \"#utility.yul\":21555:21567   */\n      add\n        /* \"#utility.yul\":21548:21567   */\n      swap1\n      pop\n        /* \"#utility.yul\":21207:21573   */\n      swap2\n      swap1\n      pop\n      jump\t// out\n        /* \"#utility.yul\":21579:21998   */\n    tag_181:\n        /* \"#utility.yul\":21745:21749   */\n      0x00\n        /* \"#utility.yul\":21783:21785   */\n      0x20\n        /* \"#utility.yul\":21772:21781   */\n      dup3\n        /* \"#utility.yul\":21768:21786   */\n      add\n        /* \"#utility.yul\":21760:21786   */\n      swap1\n      pop\n        /* \"#utility.yul\":21832:21841   */\n      dup2\n        /* \"#utility.yul\":21826:21830   */\n      dup2\n        /* \"#utility.yul\":21822:21842   */\n      sub\n        /* \"#utility.yul\":21818:21819   */\n      0x00\n        /* \"#utility.yul\":21807:21816   */\n      dup4\n        /* \"#utility.yul\":21803:21820   */\n      add\n        /* \"#utility.yul\":21796:21843   */\n      mstore\n        /* \"#utility.yul\":21860:21991   */\n      tag_491\n        /* \"#utility.yul\":21986:21990   */\n      dup2\n        /* \"#utility.yul\":21860:21991   */\n      tag_286\n      jump\t// in\n    tag_491:\n        /* \"#utility.yul\":21852:21991   */\n      swap1\n      pop\n        /* \"#utility.yul\":21579:21998   */\n      swap2\n      swap1\n      pop\n      jump\t// out\n        /* \"#utility.yul\":22004:22229   */\n    tag_287:\n        /* \"#utility.yul\":22144:22178   */\n      0x4f776e61626c653a206e6577206f776e657220697320746865207a65726f2061\n        /* \"#utility.yul\":22140:22141   */\n      0x00\n        /* \"#utility.yul\":22132:22138   */\n      dup3\n        /* \"#utility.yul\":22128:22142   */\n      add\n        /* \"#utility.yul\":22121:22179   */\n      mstore\n        /* \"#utility.yul\":22213:22221   */\n      0x6464726573730000000000000000000000000000000000000000000000000000\n        /* \"#utility.yul\":22208:22210   */\n      0x20\n        /* \"#utility.yul\":22200:22206   */\n      dup3\n        /* \"#utility.yul\":22196:22211   */\n      add\n        /* \"#utility.yul\":22189:22222   */\n      mstore\n        /* \"#utility.yul\":22004:22229   */\n      pop\n      jump\t// out\n        /* \"#utility.yul\":22235:22601   */\n    tag_288:\n        /* \"#utility.yul\":22377:22380   */\n      0x00\n        /* \"#utility.yul\":22398:22465   */\n      tag_494\n        /* \"#utility.yul\":22462:22464   */\n      0x26\n        /* \"#utility.yul\":22457:22460   */\n      dup4\n        /* \"#utility.yul\":22398:22465   */\n      tag_273\n      jump\t// in\n    tag_494:\n        /* \"#utility.yul\":22391:22465   */\n      swap2\n      pop\n        /* \"#utility.yul\":22474:22567   */\n      tag_495\n        /* \"#utility.yul\":22563:22566   */\n      dup3\n        /* \"#utility.yul\":22474:22567   */\n      tag_287\n      jump\t// in\n    tag_495:\n        /* \"#utility.yul\":22592:22594   */\n      0x40\n        /* \"#utility.yul\":22587:22590   */\n      dup3\n        /* \"#utility.yul\":22583:22595   */\n      add\n        /* \"#utility.yul\":22576:22595   */\n      swap1\n      pop\n        /* \"#utility.yul\":22235:22601   */\n      swap2\n      swap1\n      pop\n      jump\t// out\n        /* \"#utility.yul\":22607:23026   */\n    tag_215:\n        /* \"#utility.yul\":22773:22777   */\n      0x00\n        /* \"#utility.yul\":22811:22813   */\n      0x20\n        /* \"#utility.yul\":22800:22809   */\n      dup3\n        /* \"#utility.yul\":22796:22814   */\n      add\n        /* \"#utility.yul\":22788:22814   */\n      swap1\n      pop\n        /* \"#utility.yul\":22860:22869   */\n      dup2\n        /* \"#utility.yul\":22854:22858   */\n      dup2\n        /* \"#utility.yul\":22850:22870   */\n      sub\n        /* \"#utility.yul\":22846:22847   */\n      0x00\n        /* \"#utility.yul\":22835:22844   */\n      dup4\n        /* \"#utility.yul\":22831:22848   */\n      add\n        /* \"#utility.yul\":22824:22871   */\n      mstore\n        /* \"#utility.yul\":22888:23019   */\n      tag_497\n        /* \"#utility.yul\":23014:23018   */\n      dup2\n        /* \"#utility.yul\":22888:23019   */\n      tag_288\n      jump\t// in\n    tag_497:\n        /* \"#utility.yul\":22880:23019   */\n      swap1\n      pop\n        /* \"#utility.yul\":22607:23026   */\n      swap2\n      swap1\n      pop\n      jump\t// out\n\n    auxdata: 0xa26469706673582212206e4d0a457fb6b2704711a8b589aee2f8271c68cc3e3bba9d4692d33a685dbad464736f6c63430008090033\n}\n",
				"bytecode": {
					"linkReferences": {},
					"object": "6080604052600060025560006003553480156200001b57600080fd5b506200003c620000306200009260201b60201c565b6200009a60201b60201c565b6200004c6200009260201b60201c565b600160006101000a81548173ffffffffffffffffffffffffffffffffffffffff021916908373ffffffffffffffffffffffffffffffffffffffff1602179055506200015e565b600033905090565b60008060009054906101000a900473ffffffffffffffffffffffffffffffffffffffff169050816000806101000a81548173ffffffffffffffffffffffffffffffffffffffff021916908373ffffffffffffffffffffffffffffffffffffffff1602179055508173ffffffffffffffffffffffffffffffffffffffff168173ffffffffffffffffffffffffffffffffffffffff167f8be0079c531659141344cd1fd0a4f28419497f9722a3daafe3b4186f6b6457e060405160405180910390a35050565b6120b7806200016e6000396000f3fe608060405234801561001057600080fd5b50600436106100cf5760003560e01c8063845348901161008c578063aabc4b3c11610066578063aabc4b3c14610253578063caa9db8914610284578063d4e3706a146102a2578063f2fde38b146102d8576100cf565b806384534890146101d55780638da5cb5b14610205578063985d8e0014610223576100cf565b80634f03c754146100d4578063511b4db714610104578063551ee57014610137578063715018a6146101675780637ae996bd146101715780637cb1c0d4146101a1575b600080fd5b6100ee60048036038101906100e99190611538565b6102f4565b6040516100fb9190611593565b60405180910390f35b61011e600480360381019061011991906115ae565b610587565b60405161012e94939291906115ea565b60405180910390f35b610151600480360381019061014c919061168d565b6105b7565b60405161015e9190611593565b60405180910390f35b61016f61067f565b005b61018b600480360381019061018691906116ba565b610707565b604051610198919061170d565b60405180910390f35b6101bb60048036038101906101b691906115ae565b6108b2565b6040516101cc95949392919061184b565b60405180910390f35b6101ef60048036038101906101ea91906119f8565b610934565b6040516101fc919061170d565b60405180910390f35b61020d610c54565b60405161021a9190611aba565b60405180910390f35b61023d60048036038101906102389190611538565b610c7d565b60405161024a9190611593565b60405180910390f35b61026d600480360381019061026891906115ae565b610f4f565b60405161027b929190611ad5565b60405180910390f35b61028c610f89565b6040516102999190611aba565b60405180910390f35b6102bc60048036038101906102b791906115ae565b610faf565b6040516102cf9796959493929190611bbc565b60405180910390f35b6102f260048036038101906102ed919061168d565b6111e3565b005b6000600160009054906101000a900473ffffffffffffffffffffffffffffffffffffffff1673ffffffffffffffffffffffffffffffffffffffff166103376112db565b73ffffffffffffffffffffffffffffffffffffffff161480610392575061035c610c54565b73ffffffffffffffffffffffffffffffffffffffff1661037a6112db565b73ffffffffffffffffffffffffffffffffffffffff16145b806103cf57503273ffffffffffffffffffffffffffffffffffffffff166103b7610c54565b73ffffffffffffffffffffffffffffffffffffffff16145b61040e576040517f08c379a000000000000000000000000000000000000000000000000000000000815260040161040590611cbc565b60405180910390fd5b610417836112e3565b610456576040517f08c379a000000000000000000000000000000000000000000000000000000000815260040161044d90611d4e565b60405180910390fd5b60008260ff161015801561046e575060028260ff1611155b6104ad576040517f08c379a00000000000000000000000000000000000000000000000000000000081526004016104a490611de0565b60405180910390fd5b600060056000858152602001908152602001600020905060008360ff1614156105025760008160060160006101000a81548160ff021916908360028111156104f8576104f761178c565b5b021790555061057c565b60018360ff1614156105405760018160060160006101000a81548160ff021916908360028111156105365761053561178c565b5b021790555061057b565b60028360ff16141561057a5760028160060160006101000a81548160ff021916908360028111156105745761057361178c565b5b02179055505b5b5b600191505092915050565b60046020528060005260406000206000915090508060000154908060010154908060020154908060030154905084565b60006105c16112db565b73ffffffffffffffffffffffffffffffffffffffff166105df610c54565b73ffffffffffffffffffffffffffffffffffffffff1614610635576040517f08c379a000000000000000000000000000000000000000000000000000000000815260040161062c90611e4c565b60405180910390fd5b81600160006101000a81548173ffffffffffffffffffffffffffffffffffffffff021916908373ffffffffffffffffffffffffffffffffffffffff16021790555060019050919050565b6106876112db565b73ffffffffffffffffffffffffffffffffffffffff166106a5610c54565b73ffffffffffffffffffffffffffffffffffffffff16146106fb576040517f08c379a00000000000000000000000000000000000000000000000000000000081526004016106f290611e4c565b60405180910390fd5b6107056000611318565b565b6000600160009054906101000a900473ffffffffffffffffffffffffffffffffffffffff1673ffffffffffffffffffffffffffffffffffffffff1661074a6112db565b73ffffffffffffffffffffffffffffffffffffffff1614806107a5575061076f610c54565b73ffffffffffffffffffffffffffffffffffffffff1661078d6112db565b73ffffffffffffffffffffffffffffffffffffffff16145b806107e257503273ffffffffffffffffffffffffffffffffffffffff166107ca610c54565b73ffffffffffffffffffffffffffffffffffffffff16145b610821576040517f08c379a000000000000000000000000000000000000000000000000000000000815260040161081890611cbc565b60405180910390fd5b600060035490506000604051806080016040528087815260200186815260200142815260200185815250905080600460008481526020019081526020016000206000820151816000015560208201518160010155604082015181600201556060820151816003015590505060016003600082825461089f9190611e9b565b9250508190555081925050509392505050565b600560205280600052604060002060009150905080600001604051806080016040529081600082015481526020016001820154815260200160028201548152602001600382015481525050908060060160009054906101000a900460ff16908060060160019054906101000a900460ff16908060070154908060080154905085565b6000600160009054906101000a900473ffffffffffffffffffffffffffffffffffffffff1673ffffffffffffffffffffffffffffffffffffffff166109776112db565b73ffffffffffffffffffffffffffffffffffffffff1614806109d2575061099c610c54565b73ffffffffffffffffffffffffffffffffffffffff166109ba6112db565b73ffffffffffffffffffffffffffffffffffffffff16145b80610a0f57503273ffffffffffffffffffffffffffffffffffffffff166109f7610c54565b73ffffffffffffffffffffffffffffffffffffffff16145b610a4e576040517f08c379a0000000000000000000000000000000000000000000000000000000008152600401610a4590611cbc565b60405180910390fd5b610a57866113dc565b610a96576040517f08c379a0000000000000000000000000000000000000000000000000000000008152600401610a8d90611f3d565b60405180910390fd5b6040518060e0016040528060046000898152602001908152602001600020604051806080016040529081600082015481526020016001820154815260200160028201548152602001600382015481525050815260200186815260200185815260200160006002811115610b0c57610b0b61178c565b5b8152602001600380811115610b2457610b2361178c565b5b8152602001848152602001838152506005600060025481526020019081526020016000206000820151816000016000820151816000015560208201518160010155604082015181600201556060820151816003015550506020820151816004019080519060200190610b9792919061140e565b506040820151816005019080519060200190610bb492919061140e565b5060608201518160060160006101000a81548160ff02191690836002811115610be057610bdf61178c565b5b021790555060808201518160060160016101000a81548160ff02191690836003811115610c1057610c0f61178c565b5b021790555060a0820151816007015560c082015181600801559050506002549050600160026000828254610c449190611e9b565b9250508190555095945050505050565b60008060009054906101000a900473ffffffffffffffffffffffffffffffffffffffff16905090565b6000600160009054906101000a900473ffffffffffffffffffffffffffffffffffffffff1673ffffffffffffffffffffffffffffffffffffffff16610cc06112db565b73ffffffffffffffffffffffffffffffffffffffff161480610d1b5750610ce5610c54565b73ffffffffffffffffffffffffffffffffffffffff16610d036112db565b73ffffffffffffffffffffffffffffffffffffffff16145b80610d5857503273ffffffffffffffffffffffffffffffffffffffff16610d40610c54565b73ffffffffffffffffffffffffffffffffffffffff16145b610d97576040517f08c379a0000000000000000000000000000000000000000000000000000000008152600401610d8e90611cbc565b60405180910390fd5b610da0836112e3565b610ddf576040517f08c379a0000000000000000000000000000000000000000000000000000000008152600401610dd690611d4e565b60405180910390fd5b60008260ff1610158015610df7575060038260ff1611155b610e36576040517f08c379a0000000000000000000000000000000000000000000000000000000008152600401610e2d90611fcf565b60405180910390fd5b600060056000858152602001908152602001600020905060008360ff161415610e8b5760008160060160016101000a81548160ff02191690836003811115610e8157610e8061178c565b5b0217905550610f44565b60018360ff161415610ec95760018160060160016101000a81548160ff02191690836003811115610ebf57610ebe61178c565b5b0217905550610f43565b60028360ff161415610f075760028160060160016101000a81548160ff02191690836003811115610efd57610efc61178c565b5b0217905550610f42565b60038360ff161415610f415760038160060160016101000a81548160ff02191690836003811115610f3b57610f3a61178c565b5b02179055505b5b5b5b600191505092915050565b6000806004600084815260200190815260200160002060000154600460008581526020019081526020016000206001015491509150915091565b600160009054906101000a900473ffffffffffffffffffffffffffffffffffffffff1681565b600080606080600080600080600560008a815260200190815260200160002060000160405180608001604052908160008201548152602001600182015481526020016002820154815260200160038201548152505090508060000151975080602001519650600560008a81526020019081526020016000206004018054806020026020016040519081016040528092919081815260200182805480156110aa57602002820191906000526020600020905b8160009054906101000a900473ffffffffffffffffffffffffffffffffffffffff1673ffffffffffffffffffffffffffffffffffffffff1681526020019060010190808311611060575b50505050509550600560008a815260200190815260200160002060050180548060200260200160405190810160405280929190818152602001828054801561114757602002820191906000526020600020905b8160009054906101000a900473ffffffffffffffffffffffffffffffffffffffff1673ffffffffffffffffffffffffffffffffffffffff16815260200190600101908083116110fd575b50505050509450600560008a815260200190815260200160002060060160009054906101000a900460ff1660028111156111845761118361178c565b5b9350600560008a815260200190815260200160002060060160019054906101000a900460ff1660038111156111bc576111bb61178c565b5b9250600560008a815260200190815260200160002060070154915050919395979092949650565b6111eb6112db565b73ffffffffffffffffffffffffffffffffffffffff16611209610c54565b73ffffffffffffffffffffffffffffffffffffffff161461125f576040517f08c379a000000000000000000000000000000000000000000000000000000000815260040161125690611e4c565b60405180910390fd5b600073ffffffffffffffffffffffffffffffffffffffff168173ffffffffffffffffffffffffffffffffffffffff1614156112cf576040517f08c379a00000000000000000000000000000000000000000000000000000000081526004016112c690612061565b60405180910390fd5b6112d881611318565b50565b600033905090565b60008060056000848152602001908152602001600020600401805490501461130e5760019050611313565b600090505b919050565b60008060009054906101000a900473ffffffffffffffffffffffffffffffffffffffff169050816000806101000a81548173ffffffffffffffffffffffffffffffffffffffff021916908373ffffffffffffffffffffffffffffffffffffffff1602179055508173ffffffffffffffffffffffffffffffffffffffff168173ffffffffffffffffffffffffffffffffffffffff167f8be0079c531659141344cd1fd0a4f28419497f9722a3daafe3b4186f6b6457e060405160405180910390a35050565b6000806004600084815260200190815260200160002060020154146114045760019050611409565b600090505b919050565b828054828255906000526020600020908101928215611487579160200282015b828111156114865782518260006101000a81548173ffffffffffffffffffffffffffffffffffffffff021916908373ffffffffffffffffffffffffffffffffffffffff1602179055509160200191906001019061142e565b5b5090506114949190611498565b5090565b5b808211156114b1576000816000905550600101611499565b5090565b6000604051905090565b600080fd5b600080fd5b6000819050919050565b6114dc816114c9565b81146114e757600080fd5b50565b6000813590506114f9816114d3565b92915050565b600060ff82169050919050565b611515816114ff565b811461152057600080fd5b50565b6000813590506115328161150c565b92915050565b6000806040838503121561154f5761154e6114bf565b5b600061155d858286016114ea565b925050602061156e85828601611523565b9150509250929050565b60008115159050919050565b61158d81611578565b82525050565b60006020820190506115a86000830184611584565b92915050565b6000602082840312156115c4576115c36114bf565b5b60006115d2848285016114ea565b91505092915050565b6115e4816114c9565b82525050565b60006080820190506115ff60008301876115db565b61160c60208301866115db565b61161960408301856115db565b61162660608301846115db565b95945050505050565b600073ffffffffffffffffffffffffffffffffffffffff82169050919050565b600061165a8261162f565b9050919050565b61166a8161164f565b811461167557600080fd5b50565b60008135905061168781611661565b92915050565b6000602082840312156116a3576116a26114bf565b5b60006116b184828501611678565b91505092915050565b6000806000606084860312156116d3576116d26114bf565b5b60006116e1868287016114ea565b93505060206116f2868287016114ea565b9250506040611703868287016114ea565b9150509250925092565b600060208201905061172260008301846115db565b92915050565b611731816114c9565b82525050565b60808201600082015161174d6000850182611728565b5060208201516117606020850182611728565b5060408201516117736040850182611728565b5060608201516117866060850182611728565b50505050565b7f4e487b7100000000000000000000000000000000000000000000000000000000600052602160045260246000fd5b600381106117cc576117cb61178c565b5b50565b60008190506117dd826117bb565b919050565b60006117ed826117cf565b9050919050565b6117fd816117e2565b82525050565b600481106118145761181361178c565b5b50565b600081905061182582611803565b919050565b600061183582611817565b9050919050565b6118458161182a565b82525050565b6000610100820190506118616000830188611737565b61186e60808301876117f4565b61187b60a083018661183c565b61188860c08301856115db565b61189560e08301846115db565b9695505050505050565b600080fd5b6000601f19601f8301169050919050565b7f4e487b7100000000000000000000000000000000000000000000000000000000600052604160045260246000fd5b6118ed826118a4565b810181811067ffffffffffffffff8211171561190c5761190b6118b5565b5b80604052505050565b600061191f6114b5565b905061192b82826118e4565b919050565b600067ffffffffffffffff82111561194b5761194a6118b5565b5b602082029050602081019050919050565b600080fd5b600061197461196f84611930565b611915565b905080838252602082019050602084028301858111156119975761199661195c565b5b835b818110156119c057806119ac8882611678565b845260208401935050602081019050611999565b5050509392505050565b600082601f8301126119df576119de61189f565b5b81356119ef848260208601611961565b91505092915050565b600080600080600060a08688031215611a1457611a136114bf565b5b6000611a22888289016114ea565b955050602086013567ffffffffffffffff811115611a4357611a426114c4565b5b611a4f888289016119ca565b945050604086013567ffffffffffffffff811115611a7057611a6f6114c4565b5b611a7c888289016119ca565b9350506060611a8d888289016114ea565b9250506080611a9e888289016114ea565b9150509295509295909350565b611ab48161164f565b82525050565b6000602082019050611acf6000830184611aab565b92915050565b6000604082019050611aea60008301856115db565b611af760208301846115db565b9392505050565b600081519050919050565b600082825260208201905092915050565b6000819050602082019050919050565b611b338161164f565b82525050565b6000611b458383611b2a565b60208301905092915050565b6000602082019050919050565b6000611b6982611afe565b611b738185611b09565b9350611b7e83611b1a565b8060005b83811015611baf578151611b968882611b39565b9750611ba183611b51565b925050600181019050611b82565b5085935050505092915050565b600060e082019050611bd1600083018a6115db565b611bde60208301896115db565b8181036040830152611bf08188611b5e565b90508181036060830152611c048187611b5e565b9050611c1360808301866115db565b611c2060a08301856115db565b611c2d60c08301846115db565b98975050505050505050565b600082825260208201905092915050565b7f546f2063616c6c2074686973206d6574686f6420796f75206861766520746f2060008201527f6265206f776e6572206f722073756241646d696e210000000000000000000000602082015250565b6000611ca6603583611c39565b9150611cb182611c4a565b604082019050919050565b60006020820190508181036000830152611cd581611c99565b9050919050565b7f63616e27742066696e6420636f6d706574696f6e20776974682074686973206360008201527f6f6d706574696f6e496421000000000000000000000000000000000000000000602082015250565b6000611d38602b83611c39565b9150611d4382611cdc565b604082019050919050565b60006020820190508181036000830152611d6781611d2b565b9050919050565b7f737461747573206e65656420746f20626520736f6d74696e672062657477656560008201527f6e203020746f2032000000000000000000000000000000000000000000000000602082015250565b6000611dca602883611c39565b9150611dd582611d6e565b604082019050919050565b60006020820190508181036000830152611df981611dbd565b9050919050565b7f4f776e61626c653a2063616c6c6572206973206e6f7420746865206f776e6572600082015250565b6000611e36602083611c39565b9150611e4182611e00565b602082019050919050565b60006020820190508181036000830152611e6581611e29565b9050919050565b7f4e487b7100000000000000000000000000000000000000000000000000000000600052601160045260246000fd5b6000611ea6826114c9565b9150611eb1836114c9565b9250827fffffffffffffffffffffffffffffffffffffffffffffffffffffffffffffffff03821115611ee657611ee5611e6c565b5b828201905092915050565b7f63616e27742066696e6420707265736574207769746820746869732069642100600082015250565b6000611f27601f83611c39565b9150611f3282611ef1565b602082019050919050565b60006020820190508181036000830152611f5681611f1a565b9050919050565b7f77696e6e6572206e65656420746f20626520736f6d74696e672062657477656560008201527f6e203020746f2033000000000000000000000000000000000000000000000000602082015250565b6000611fb9602883611c39565b9150611fc482611f5d565b604082019050919050565b60006020820190508181036000830152611fe881611fac565b9050919050565b7f4f776e61626c653a206e6577206f776e657220697320746865207a65726f206160008201527f6464726573730000000000000000000000000000000000000000000000000000602082015250565b600061204b602683611c39565b915061205682611fef565b604082019050919050565b6000602082019050818103600083015261207a8161203e565b905091905056fea26469706673582212206e4d0a457fb6b2704711a8b589aee2f8271c68cc3e3bba9d4692d33a685dbad464736f6c63430008090033",
					"opcodes": "PUSH1 0x80 PUSH1 0x40 MSTORE PUSH1 0x0 PUSH1 0x2 SSTORE PUSH1 0x0 PUSH1 0x3 SSTORE CALLVALUE DUP1 ISZERO PUSH3 0x1B JUMPI PUSH1 0x0 DUP1 REVERT JUMPDEST POP PUSH3 0x3C PUSH3 0x30 PUSH3 0x92 PUSH1 0x20 SHL PUSH1 0x20 SHR JUMP JUMPDEST PUSH3 0x9A PUSH1 0x20 SHL PUSH1 0x20 SHR JUMP JUMPDEST PUSH3 0x4C PUSH3 0x92 PUSH1 0x20 SHL PUSH1 0x20 SHR JUMP JUMPDEST PUSH1 0x1 PUSH1 0x0 PUSH2 0x100 EXP DUP2 SLOAD DUP2 PUSH20 0xFFFFFFFFFFFFFFFFFFFFFFFFFFFFFFFFFFFFFFFF MUL NOT AND SWAP1 DUP4 PUSH20 0xFFFFFFFFFFFFFFFFFFFFFFFFFFFFFFFFFFFFFFFF AND MUL OR SWAP1 SSTORE POP PUSH3 0x15E JUMP JUMPDEST PUSH1 0x0 CALLER SWAP1 POP SWAP1 JUMP JUMPDEST PUSH1 0x0 DUP1 PUSH1 0x0 SWAP1 SLOAD SWAP1 PUSH2 0x100 EXP SWAP1 DIV PUSH20 0xFFFFFFFFFFFFFFFFFFFFFFFFFFFFFFFFFFFFFFFF AND SWAP1 POP DUP2 PUSH1 0x0 DUP1 PUSH2 0x100 EXP DUP2 SLOAD DUP2 PUSH20 0xFFFFFFFFFFFFFFFFFFFFFFFFFFFFFFFFFFFFFFFF MUL NOT AND SWAP1 DUP4 PUSH20 0xFFFFFFFFFFFFFFFFFFFFFFFFFFFFFFFFFFFFFFFF AND MUL OR SWAP1 SSTORE POP DUP2 PUSH20 0xFFFFFFFFFFFFFFFFFFFFFFFFFFFFFFFFFFFFFFFF AND DUP2 PUSH20 0xFFFFFFFFFFFFFFFFFFFFFFFFFFFFFFFFFFFFFFFF AND PUSH32 0x8BE0079C531659141344CD1FD0A4F28419497F9722A3DAAFE3B4186F6B6457E0 PUSH1 0x40 MLOAD PUSH1 0x40 MLOAD DUP1 SWAP2 SUB SWAP1 LOG3 POP POP JUMP JUMPDEST PUSH2 0x20B7 DUP1 PUSH3 0x16E PUSH1 0x0 CODECOPY PUSH1 0x0 RETURN INVALID PUSH1 0x80 PUSH1 0x40 MSTORE CALLVALUE DUP1 ISZERO PUSH2 0x10 JUMPI PUSH1 0x0 DUP1 REVERT JUMPDEST POP PUSH1 0x4 CALLDATASIZE LT PUSH2 0xCF JUMPI PUSH1 0x0 CALLDATALOAD PUSH1 0xE0 SHR DUP1 PUSH4 0x84534890 GT PUSH2 0x8C JUMPI DUP1 PUSH4 0xAABC4B3C GT PUSH2 0x66 JUMPI DUP1 PUSH4 0xAABC4B3C EQ PUSH2 0x253 JUMPI DUP1 PUSH4 0xCAA9DB89 EQ PUSH2 0x284 JUMPI DUP1 PUSH4 0xD4E3706A EQ PUSH2 0x2A2 JUMPI DUP1 PUSH4 0xF2FDE38B EQ PUSH2 0x2D8 JUMPI PUSH2 0xCF JUMP JUMPDEST DUP1 PUSH4 0x84534890 EQ PUSH2 0x1D5 JUMPI DUP1 PUSH4 0x8DA5CB5B EQ PUSH2 0x205 JUMPI DUP1 PUSH4 0x985D8E00 EQ PUSH2 0x223 JUMPI PUSH2 0xCF JUMP JUMPDEST DUP1 PUSH4 0x4F03C754 EQ PUSH2 0xD4 JUMPI DUP1 PUSH4 0x511B4DB7 EQ PUSH2 0x104 JUMPI DUP1 PUSH4 0x551EE570 EQ PUSH2 0x137 JUMPI DUP1 PUSH4 0x715018A6 EQ PUSH2 0x167 JUMPI DUP1 PUSH4 0x7AE996BD EQ PUSH2 0x171 JUMPI DUP1 PUSH4 0x7CB1C0D4 EQ PUSH2 0x1A1 JUMPI JUMPDEST PUSH1 0x0 DUP1 REVERT JUMPDEST PUSH2 0xEE PUSH1 0x4 DUP1 CALLDATASIZE SUB DUP2 ADD SWAP1 PUSH2 0xE9 SWAP2 SWAP1 PUSH2 0x1538 JUMP JUMPDEST PUSH2 0x2F4 JUMP JUMPDEST PUSH1 0x40 MLOAD PUSH2 0xFB SWAP2 SWAP1 PUSH2 0x1593 JUMP JUMPDEST PUSH1 0x40 MLOAD DUP1 SWAP2 SUB SWAP1 RETURN JUMPDEST PUSH2 0x11E PUSH1 0x4 DUP1 CALLDATASIZE SUB DUP2 ADD SWAP1 PUSH2 0x119 SWAP2 SWAP1 PUSH2 0x15AE JUMP JUMPDEST PUSH2 0x587 JUMP JUMPDEST PUSH1 0x40 MLOAD PUSH2 0x12E SWAP5 SWAP4 SWAP3 SWAP2 SWAP1 PUSH2 0x15EA JUMP JUMPDEST PUSH1 0x40 MLOAD DUP1 SWAP2 SUB SWAP1 RETURN JUMPDEST PUSH2 0x151 PUSH1 0x4 DUP1 CALLDATASIZE SUB DUP2 ADD SWAP1 PUSH2 0x14C SWAP2 SWAP1 PUSH2 0x168D JUMP JUMPDEST PUSH2 0x5B7 JUMP JUMPDEST PUSH1 0x40 MLOAD PUSH2 0x15E SWAP2 SWAP1 PUSH2 0x1593 JUMP JUMPDEST PUSH1 0x40 MLOAD DUP1 SWAP2 SUB SWAP1 RETURN JUMPDEST PUSH2 0x16F PUSH2 0x67F JUMP JUMPDEST STOP JUMPDEST PUSH2 0x18B PUSH1 0x4 DUP1 CALLDATASIZE SUB DUP2 ADD SWAP1 PUSH2 0x186 SWAP2 SWAP1 PUSH2 0x16BA JUMP JUMPDEST PUSH2 0x707 JUMP JUMPDEST PUSH1 0x40 MLOAD PUSH2 0x198 SWAP2 SWAP1 PUSH2 0x170D JUMP JUMPDEST PUSH1 0x40 MLOAD DUP1 SWAP2 SUB SWAP1 RETURN JUMPDEST PUSH2 0x1BB PUSH1 0x4 DUP1 CALLDATASIZE SUB DUP2 ADD SWAP1 PUSH2 0x1B6 SWAP2 SWAP1 PUSH2 0x15AE JUMP JUMPDEST PUSH2 0x8B2 JUMP JUMPDEST PUSH1 0x40 MLOAD PUSH2 0x1CC SWAP6 SWAP5 SWAP4 SWAP3 SWAP2 SWAP1 PUSH2 0x184B JUMP JUMPDEST PUSH1 0x40 MLOAD DUP1 SWAP2 SUB SWAP1 RETURN JUMPDEST PUSH2 0x1EF PUSH1 0x4 DUP1 CALLDATASIZE SUB DUP2 ADD SWAP1 PUSH2 0x1EA SWAP2 SWAP1 PUSH2 0x19F8 JUMP JUMPDEST PUSH2 0x934 JUMP JUMPDEST PUSH1 0x40 MLOAD PUSH2 0x1FC SWAP2 SWAP1 PUSH2 0x170D JUMP JUMPDEST PUSH1 0x40 MLOAD DUP1 SWAP2 SUB SWAP1 RETURN JUMPDEST PUSH2 0x20D PUSH2 0xC54 JUMP JUMPDEST PUSH1 0x40 MLOAD PUSH2 0x21A SWAP2 SWAP1 PUSH2 0x1ABA JUMP JUMPDEST PUSH1 0x40 MLOAD DUP1 SWAP2 SUB SWAP1 RETURN JUMPDEST PUSH2 0x23D PUSH1 0x4 DUP1 CALLDATASIZE SUB DUP2 ADD SWAP1 PUSH2 0x238 SWAP2 SWAP1 PUSH2 0x1538 JUMP JUMPDEST PUSH2 0xC7D JUMP JUMPDEST PUSH1 0x40 MLOAD PUSH2 0x24A SWAP2 SWAP1 PUSH2 0x1593 JUMP JUMPDEST PUSH1 0x40 MLOAD DUP1 SWAP2 SUB SWAP1 RETURN JUMPDEST PUSH2 0x26D PUSH1 0x4 DUP1 CALLDATASIZE SUB DUP2 ADD SWAP1 PUSH2 0x268 SWAP2 SWAP1 PUSH2 0x15AE JUMP JUMPDEST PUSH2 0xF4F JUMP JUMPDEST PUSH1 0x40 MLOAD PUSH2 0x27B SWAP3 SWAP2 SWAP1 PUSH2 0x1AD5 JUMP JUMPDEST PUSH1 0x40 MLOAD DUP1 SWAP2 SUB SWAP1 RETURN JUMPDEST PUSH2 0x28C PUSH2 0xF89 JUMP JUMPDEST PUSH1 0x40 MLOAD PUSH2 0x299 SWAP2 SWAP1 PUSH2 0x1ABA JUMP JUMPDEST PUSH1 0x40 MLOAD DUP1 SWAP2 SUB SWAP1 RETURN JUMPDEST PUSH2 0x2BC PUSH1 0x4 DUP1 CALLDATASIZE SUB DUP2 ADD SWAP1 PUSH2 0x2B7 SWAP2 SWAP1 PUSH2 0x15AE JUMP JUMPDEST PUSH2 0xFAF JUMP JUMPDEST PUSH1 0x40 MLOAD PUSH2 0x2CF SWAP8 SWAP7 SWAP6 SWAP5 SWAP4 SWAP3 SWAP2 SWAP1 PUSH2 0x1BBC JUMP JUMPDEST PUSH1 0x40 MLOAD DUP1 SWAP2 SUB SWAP1 RETURN JUMPDEST PUSH2 0x2F2 PUSH1 0x4 DUP1 CALLDATASIZE SUB DUP2 ADD SWAP1 PUSH2 0x2ED SWAP2 SWAP1 PUSH2 0x168D JUMP JUMPDEST PUSH2 0x11E3 JUMP JUMPDEST STOP JUMPDEST PUSH1 0x0 PUSH1 0x1 PUSH1 0x0 SWAP1 SLOAD SWAP1 PUSH2 0x100 EXP SWAP1 DIV PUSH20 0xFFFFFFFFFFFFFFFFFFFFFFFFFFFFFFFFFFFFFFFF AND PUSH20 0xFFFFFFFFFFFFFFFFFFFFFFFFFFFFFFFFFFFFFFFF AND PUSH2 0x337 PUSH2 0x12DB JUMP JUMPDEST PUSH20 0xFFFFFFFFFFFFFFFFFFFFFFFFFFFFFFFFFFFFFFFF AND EQ DUP1 PUSH2 0x392 JUMPI POP PUSH2 0x35C PUSH2 0xC54 JUMP JUMPDEST PUSH20 0xFFFFFFFFFFFFFFFFFFFFFFFFFFFFFFFFFFFFFFFF AND PUSH2 0x37A PUSH2 0x12DB JUMP JUMPDEST PUSH20 0xFFFFFFFFFFFFFFFFFFFFFFFFFFFFFFFFFFFFFFFF AND EQ JUMPDEST DUP1 PUSH2 0x3CF JUMPI POP ORIGIN PUSH20 0xFFFFFFFFFFFFFFFFFFFFFFFFFFFFFFFFFFFFFFFF AND PUSH2 0x3B7 PUSH2 0xC54 JUMP JUMPDEST PUSH20 0xFFFFFFFFFFFFFFFFFFFFFFFFFFFFFFFFFFFFFFFF AND EQ JUMPDEST PUSH2 0x40E JUMPI PUSH1 0x40 MLOAD PUSH32 0x8C379A000000000000000000000000000000000000000000000000000000000 DUP2 MSTORE PUSH1 0x4 ADD PUSH2 0x405 SWAP1 PUSH2 0x1CBC JUMP JUMPDEST PUSH1 0x40 MLOAD DUP1 SWAP2 SUB SWAP1 REVERT JUMPDEST PUSH2 0x417 DUP4 PUSH2 0x12E3 JUMP JUMPDEST PUSH2 0x456 JUMPI PUSH1 0x40 MLOAD PUSH32 0x8C379A000000000000000000000000000000000000000000000000000000000 DUP2 MSTORE PUSH1 0x4 ADD PUSH2 0x44D SWAP1 PUSH2 0x1D4E JUMP JUMPDEST PUSH1 0x40 MLOAD DUP1 SWAP2 SUB SWAP1 REVERT JUMPDEST PUSH1 0x0 DUP3 PUSH1 0xFF AND LT ISZERO DUP1 ISZERO PUSH2 0x46E JUMPI POP PUSH1 0x2 DUP3 PUSH1 0xFF AND GT ISZERO JUMPDEST PUSH2 0x4AD JUMPI PUSH1 0x40 MLOAD PUSH32 0x8C379A000000000000000000000000000000000000000000000000000000000 DUP2 MSTORE PUSH1 0x4 ADD PUSH2 0x4A4 SWAP1 PUSH2 0x1DE0 JUMP JUMPDEST PUSH1 0x40 MLOAD DUP1 SWAP2 SUB SWAP1 REVERT JUMPDEST PUSH1 0x0 PUSH1 0x5 PUSH1 0x0 DUP6 DUP2 MSTORE PUSH1 0x20 ADD SWAP1 DUP2 MSTORE PUSH1 0x20 ADD PUSH1 0x0 KECCAK256 SWAP1 POP PUSH1 0x0 DUP4 PUSH1 0xFF AND EQ ISZERO PUSH2 0x502 JUMPI PUSH1 0x0 DUP2 PUSH1 0x6 ADD PUSH1 0x0 PUSH2 0x100 EXP DUP2 SLOAD DUP2 PUSH1 0xFF MUL NOT AND SWAP1 DUP4 PUSH1 0x2 DUP2 GT ISZERO PUSH2 0x4F8 JUMPI PUSH2 0x4F7 PUSH2 0x178C JUMP JUMPDEST JUMPDEST MUL OR SWAP1 SSTORE POP PUSH2 0x57C JUMP JUMPDEST PUSH1 0x1 DUP4 PUSH1 0xFF AND EQ ISZERO PUSH2 0x540 JUMPI PUSH1 0x1 DUP2 PUSH1 0x6 ADD PUSH1 0x0 PUSH2 0x100 EXP DUP2 SLOAD DUP2 PUSH1 0xFF MUL NOT AND SWAP1 DUP4 PUSH1 0x2 DUP2 GT ISZERO PUSH2 0x536 JUMPI PUSH2 0x535 PUSH2 0x178C JUMP JUMPDEST JUMPDEST MUL OR SWAP1 SSTORE POP PUSH2 0x57B JUMP JUMPDEST PUSH1 0x2 DUP4 PUSH1 0xFF AND EQ ISZERO PUSH2 0x57A JUMPI PUSH1 0x2 DUP2 PUSH1 0x6 ADD PUSH1 0x0 PUSH2 0x100 EXP DUP2 SLOAD DUP2 PUSH1 0xFF MUL NOT AND SWAP1 DUP4 PUSH1 0x2 DUP2 GT ISZERO PUSH2 0x574 JUMPI PUSH2 0x573 PUSH2 0x178C JUMP JUMPDEST JUMPDEST MUL OR SWAP1 SSTORE POP JUMPDEST JUMPDEST JUMPDEST PUSH1 0x1 SWAP2 POP POP SWAP3 SWAP2 POP POP JUMP JUMPDEST PUSH1 0x4 PUSH1 0x20 MSTORE DUP1 PUSH1 0x0 MSTORE PUSH1 0x40 PUSH1 0x0 KECCAK256 PUSH1 0x0 SWAP2 POP SWAP1 POP DUP1 PUSH1 0x0 ADD SLOAD SWAP1 DUP1 PUSH1 0x1 ADD SLOAD SWAP1 DUP1 PUSH1 0x2 ADD SLOAD SWAP1 DUP1 PUSH1 0x3 ADD SLOAD SWAP1 POP DUP5 JUMP JUMPDEST PUSH1 0x0 PUSH2 0x5C1 PUSH2 0x12DB JUMP JUMPDEST PUSH20 0xFFFFFFFFFFFFFFFFFFFFFFFFFFFFFFFFFFFFFFFF AND PUSH2 0x5DF PUSH2 0xC54 JUMP JUMPDEST PUSH20 0xFFFFFFFFFFFFFFFFFFFFFFFFFFFFFFFFFFFFFFFF AND EQ PUSH2 0x635 JUMPI PUSH1 0x40 MLOAD PUSH32 0x8C379A000000000000000000000000000000000000000000000000000000000 DUP2 MSTORE PUSH1 0x4 ADD PUSH2 0x62C SWAP1 PUSH2 0x1E4C JUMP JUMPDEST PUSH1 0x40 MLOAD DUP1 SWAP2 SUB SWAP1 REVERT JUMPDEST DUP2 PUSH1 0x1 PUSH1 0x0 PUSH2 0x100 EXP DUP2 SLOAD DUP2 PUSH20 0xFFFFFFFFFFFFFFFFFFFFFFFFFFFFFFFFFFFFFFFF MUL NOT AND SWAP1 DUP4 PUSH20 0xFFFFFFFFFFFFFFFFFFFFFFFFFFFFFFFFFFFFFFFF AND MUL OR SWAP1 SSTORE POP PUSH1 0x1 SWAP1 POP SWAP2 SWAP1 POP JUMP JUMPDEST PUSH2 0x687 PUSH2 0x12DB JUMP JUMPDEST PUSH20 0xFFFFFFFFFFFFFFFFFFFFFFFFFFFFFFFFFFFFFFFF AND PUSH2 0x6A5 PUSH2 0xC54 JUMP JUMPDEST PUSH20 0xFFFFFFFFFFFFFFFFFFFFFFFFFFFFFFFFFFFFFFFF AND EQ PUSH2 0x6FB JUMPI PUSH1 0x40 MLOAD PUSH32 0x8C379A000000000000000000000000000000000000000000000000000000000 DUP2 MSTORE PUSH1 0x4 ADD PUSH2 0x6F2 SWAP1 PUSH2 0x1E4C JUMP JUMPDEST PUSH1 0x40 MLOAD DUP1 SWAP2 SUB SWAP1 REVERT JUMPDEST PUSH2 0x705 PUSH1 0x0 PUSH2 0x1318 JUMP JUMPDEST JUMP JUMPDEST PUSH1 0x0 PUSH1 0x1 PUSH1 0x0 SWAP1 SLOAD SWAP1 PUSH2 0x100 EXP SWAP1 DIV PUSH20 0xFFFFFFFFFFFFFFFFFFFFFFFFFFFFFFFFFFFFFFFF AND PUSH20 0xFFFFFFFFFFFFFFFFFFFFFFFFFFFFFFFFFFFFFFFF AND PUSH2 0x74A PUSH2 0x12DB JUMP JUMPDEST PUSH20 0xFFFFFFFFFFFFFFFFFFFFFFFFFFFFFFFFFFFFFFFF AND EQ DUP1 PUSH2 0x7A5 JUMPI POP PUSH2 0x76F PUSH2 0xC54 JUMP JUMPDEST PUSH20 0xFFFFFFFFFFFFFFFFFFFFFFFFFFFFFFFFFFFFFFFF AND PUSH2 0x78D PUSH2 0x12DB JUMP JUMPDEST PUSH20 0xFFFFFFFFFFFFFFFFFFFFFFFFFFFFFFFFFFFFFFFF AND EQ JUMPDEST DUP1 PUSH2 0x7E2 JUMPI POP ORIGIN PUSH20 0xFFFFFFFFFFFFFFFFFFFFFFFFFFFFFFFFFFFFFFFF AND PUSH2 0x7CA PUSH2 0xC54 JUMP JUMPDEST PUSH20 0xFFFFFFFFFFFFFFFFFFFFFFFFFFFFFFFFFFFFFFFF AND EQ JUMPDEST PUSH2 0x821 JUMPI PUSH1 0x40 MLOAD PUSH32 0x8C379A000000000000000000000000000000000000000000000000000000000 DUP2 MSTORE PUSH1 0x4 ADD PUSH2 0x818 SWAP1 PUSH2 0x1CBC JUMP JUMPDEST PUSH1 0x40 MLOAD DUP1 SWAP2 SUB SWAP1 REVERT JUMPDEST PUSH1 0x0 PUSH1 0x3 SLOAD SWAP1 POP PUSH1 0x0 PUSH1 0x40 MLOAD DUP1 PUSH1 0x80 ADD PUSH1 0x40 MSTORE DUP1 DUP8 DUP2 MSTORE PUSH1 0x20 ADD DUP7 DUP2 MSTORE PUSH1 0x20 ADD TIMESTAMP DUP2 MSTORE PUSH1 0x20 ADD DUP6 DUP2 MSTORE POP SWAP1 POP DUP1 PUSH1 0x4 PUSH1 0x0 DUP5 DUP2 MSTORE PUSH1 0x20 ADD SWAP1 DUP2 MSTORE PUSH1 0x20 ADD PUSH1 0x0 KECCAK256 PUSH1 0x0 DUP3 ADD MLOAD DUP2 PUSH1 0x0 ADD SSTORE PUSH1 0x20 DUP3 ADD MLOAD DUP2 PUSH1 0x1 ADD SSTORE PUSH1 0x40 DUP3 ADD MLOAD DUP2 PUSH1 0x2 ADD SSTORE PUSH1 0x60 DUP3 ADD MLOAD DUP2 PUSH1 0x3 ADD SSTORE SWAP1 POP POP PUSH1 0x1 PUSH1 0x3 PUSH1 0x0 DUP3 DUP3 SLOAD PUSH2 0x89F SWAP2 SWAP1 PUSH2 0x1E9B JUMP JUMPDEST SWAP3 POP POP DUP2 SWAP1 SSTORE POP DUP2 SWAP3 POP POP POP SWAP4 SWAP3 POP POP POP JUMP JUMPDEST PUSH1 0x5 PUSH1 0x20 MSTORE DUP1 PUSH1 0x0 MSTORE PUSH1 0x40 PUSH1 0x0 KECCAK256 PUSH1 0x0 SWAP2 POP SWAP1 POP DUP1 PUSH1 0x0 ADD PUSH1 0x40 MLOAD DUP1 PUSH1 0x80 ADD PUSH1 0x40 MSTORE SWAP1 DUP2 PUSH1 0x0 DUP3 ADD SLOAD DUP2 MSTORE PUSH1 0x20 ADD PUSH1 0x1 DUP3 ADD SLOAD DUP2 MSTORE PUSH1 0x20 ADD PUSH1 0x2 DUP3 ADD SLOAD DUP2 MSTORE PUSH1 0x20 ADD PUSH1 0x3 DUP3 ADD SLOAD DUP2 MSTORE POP POP SWAP1 DUP1 PUSH1 0x6 ADD PUSH1 0x0 SWAP1 SLOAD SWAP1 PUSH2 0x100 EXP SWAP1 DIV PUSH1 0xFF AND SWAP1 DUP1 PUSH1 0x6 ADD PUSH1 0x1 SWAP1 SLOAD SWAP1 PUSH2 0x100 EXP SWAP1 DIV PUSH1 0xFF AND SWAP1 DUP1 PUSH1 0x7 ADD SLOAD SWAP1 DUP1 PUSH1 0x8 ADD SLOAD SWAP1 POP DUP6 JUMP JUMPDEST PUSH1 0x0 PUSH1 0x1 PUSH1 0x0 SWAP1 SLOAD SWAP1 PUSH2 0x100 EXP SWAP1 DIV PUSH20 0xFFFFFFFFFFFFFFFFFFFFFFFFFFFFFFFFFFFFFFFF AND PUSH20 0xFFFFFFFFFFFFFFFFFFFFFFFFFFFFFFFFFFFFFFFF AND PUSH2 0x977 PUSH2 0x12DB JUMP JUMPDEST PUSH20 0xFFFFFFFFFFFFFFFFFFFFFFFFFFFFFFFFFFFFFFFF AND EQ DUP1 PUSH2 0x9D2 JUMPI POP PUSH2 0x99C PUSH2 0xC54 JUMP JUMPDEST PUSH20 0xFFFFFFFFFFFFFFFFFFFFFFFFFFFFFFFFFFFFFFFF AND PUSH2 0x9BA PUSH2 0x12DB JUMP JUMPDEST PUSH20 0xFFFFFFFFFFFFFFFFFFFFFFFFFFFFFFFFFFFFFFFF AND EQ JUMPDEST DUP1 PUSH2 0xA0F JUMPI POP ORIGIN PUSH20 0xFFFFFFFFFFFFFFFFFFFFFFFFFFFFFFFFFFFFFFFF AND PUSH2 0x9F7 PUSH2 0xC54 JUMP JUMPDEST PUSH20 0xFFFFFFFFFFFFFFFFFFFFFFFFFFFFFFFFFFFFFFFF AND EQ JUMPDEST PUSH2 0xA4E JUMPI PUSH1 0x40 MLOAD PUSH32 0x8C379A000000000000000000000000000000000000000000000000000000000 DUP2 MSTORE PUSH1 0x4 ADD PUSH2 0xA45 SWAP1 PUSH2 0x1CBC JUMP JUMPDEST PUSH1 0x40 MLOAD DUP1 SWAP2 SUB SWAP1 REVERT JUMPDEST PUSH2 0xA57 DUP7 PUSH2 0x13DC JUMP JUMPDEST PUSH2 0xA96 JUMPI PUSH1 0x40 MLOAD PUSH32 0x8C379A000000000000000000000000000000000000000000000000000000000 DUP2 MSTORE PUSH1 0x4 ADD PUSH2 0xA8D SWAP1 PUSH2 0x1F3D JUMP JUMPDEST PUSH1 0x40 MLOAD DUP1 SWAP2 SUB SWAP1 REVERT JUMPDEST PUSH1 0x40 MLOAD DUP1 PUSH1 0xE0 ADD PUSH1 0x40 MSTORE DUP1 PUSH1 0x4 PUSH1 0x0 DUP10 DUP2 MSTORE PUSH1 0x20 ADD SWAP1 DUP2 MSTORE PUSH1 0x20 ADD PUSH1 0x0 KECCAK256 PUSH1 0x40 MLOAD DUP1 PUSH1 0x80 ADD PUSH1 0x40 MSTORE SWAP1 DUP2 PUSH1 0x0 DUP3 ADD SLOAD DUP2 MSTORE PUSH1 0x20 ADD PUSH1 0x1 DUP3 ADD SLOAD DUP2 MSTORE PUSH1 0x20 ADD PUSH1 0x2 DUP3 ADD SLOAD DUP2 MSTORE PUSH1 0x20 ADD PUSH1 0x3 DUP3 ADD SLOAD DUP2 MSTORE POP POP DUP2 MSTORE PUSH1 0x20 ADD DUP7 DUP2 MSTORE PUSH1 0x20 ADD DUP6 DUP2 MSTORE PUSH1 0x20 ADD PUSH1 0x0 PUSH1 0x2 DUP2 GT ISZERO PUSH2 0xB0C JUMPI PUSH2 0xB0B PUSH2 0x178C JUMP JUMPDEST JUMPDEST DUP2 MSTORE PUSH1 0x20 ADD PUSH1 0x3 DUP1 DUP2 GT ISZERO PUSH2 0xB24 JUMPI PUSH2 0xB23 PUSH2 0x178C JUMP JUMPDEST JUMPDEST DUP2 MSTORE PUSH1 0x20 ADD DUP5 DUP2 MSTORE PUSH1 0x20 ADD DUP4 DUP2 MSTORE POP PUSH1 0x5 PUSH1 0x0 PUSH1 0x2 SLOAD DUP2 MSTORE PUSH1 0x20 ADD SWAP1 DUP2 MSTORE PUSH1 0x20 ADD PUSH1 0x0 KECCAK256 PUSH1 0x0 DUP3 ADD MLOAD DUP2 PUSH1 0x0 ADD PUSH1 0x0 DUP3 ADD MLOAD DUP2 PUSH1 0x0 ADD SSTORE PUSH1 0x20 DUP3 ADD MLOAD DUP2 PUSH1 0x1 ADD SSTORE PUSH1 0x40 DUP3 ADD MLOAD DUP2 PUSH1 0x2 ADD SSTORE PUSH1 0x60 DUP3 ADD MLOAD DUP2 PUSH1 0x3 ADD SSTORE POP POP PUSH1 0x20 DUP3 ADD MLOAD DUP2 PUSH1 0x4 ADD SWAP1 DUP1 MLOAD SWAP1 PUSH1 0x20 ADD SWAP1 PUSH2 0xB97 SWAP3 SWAP2 SWAP1 PUSH2 0x140E JUMP JUMPDEST POP PUSH1 0x40 DUP3 ADD MLOAD DUP2 PUSH1 0x5 ADD SWAP1 DUP1 MLOAD SWAP1 PUSH1 0x20 ADD SWAP1 PUSH2 0xBB4 SWAP3 SWAP2 SWAP1 PUSH2 0x140E JUMP JUMPDEST POP PUSH1 0x60 DUP3 ADD MLOAD DUP2 PUSH1 0x6 ADD PUSH1 0x0 PUSH2 0x100 EXP DUP2 SLOAD DUP2 PUSH1 0xFF MUL NOT AND SWAP1 DUP4 PUSH1 0x2 DUP2 GT ISZERO PUSH2 0xBE0 JUMPI PUSH2 0xBDF PUSH2 0x178C JUMP JUMPDEST JUMPDEST MUL OR SWAP1 SSTORE POP PUSH1 0x80 DUP3 ADD MLOAD DUP2 PUSH1 0x6 ADD PUSH1 0x1 PUSH2 0x100 EXP DUP2 SLOAD DUP2 PUSH1 0xFF MUL NOT AND SWAP1 DUP4 PUSH1 0x3 DUP2 GT ISZERO PUSH2 0xC10 JUMPI PUSH2 0xC0F PUSH2 0x178C JUMP JUMPDEST JUMPDEST MUL OR SWAP1 SSTORE POP PUSH1 0xA0 DUP3 ADD MLOAD DUP2 PUSH1 0x7 ADD SSTORE PUSH1 0xC0 DUP3 ADD MLOAD DUP2 PUSH1 0x8 ADD SSTORE SWAP1 POP POP PUSH1 0x2 SLOAD SWAP1 POP PUSH1 0x1 PUSH1 0x2 PUSH1 0x0 DUP3 DUP3 SLOAD PUSH2 0xC44 SWAP2 SWAP1 PUSH2 0x1E9B JUMP JUMPDEST SWAP3 POP POP DUP2 SWAP1 SSTORE POP SWAP6 SWAP5 POP POP POP POP POP JUMP JUMPDEST PUSH1 0x0 DUP1 PUSH1 0x0 SWAP1 SLOAD SWAP1 PUSH2 0x100 EXP SWAP1 DIV PUSH20 0xFFFFFFFFFFFFFFFFFFFFFFFFFFFFFFFFFFFFFFFF AND SWAP1 POP SWAP1 JUMP JUMPDEST PUSH1 0x0 PUSH1 0x1 PUSH1 0x0 SWAP1 SLOAD SWAP1 PUSH2 0x100 EXP SWAP1 DIV PUSH20 0xFFFFFFFFFFFFFFFFFFFFFFFFFFFFFFFFFFFFFFFF AND PUSH20 0xFFFFFFFFFFFFFFFFFFFFFFFFFFFFFFFFFFFFFFFF AND PUSH2 0xCC0 PUSH2 0x12DB JUMP JUMPDEST PUSH20 0xFFFFFFFFFFFFFFFFFFFFFFFFFFFFFFFFFFFFFFFF AND EQ DUP1 PUSH2 0xD1B JUMPI POP PUSH2 0xCE5 PUSH2 0xC54 JUMP JUMPDEST PUSH20 0xFFFFFFFFFFFFFFFFFFFFFFFFFFFFFFFFFFFFFFFF AND PUSH2 0xD03 PUSH2 0x12DB JUMP JUMPDEST PUSH20 0xFFFFFFFFFFFFFFFFFFFFFFFFFFFFFFFFFFFFFFFF AND EQ JUMPDEST DUP1 PUSH2 0xD58 JUMPI POP ORIGIN PUSH20 0xFFFFFFFFFFFFFFFFFFFFFFFFFFFFFFFFFFFFFFFF AND PUSH2 0xD40 PUSH2 0xC54 JUMP JUMPDEST PUSH20 0xFFFFFFFFFFFFFFFFFFFFFFFFFFFFFFFFFFFFFFFF AND EQ JUMPDEST PUSH2 0xD97 JUMPI PUSH1 0x40 MLOAD PUSH32 0x8C379A000000000000000000000000000000000000000000000000000000000 DUP2 MSTORE PUSH1 0x4 ADD PUSH2 0xD8E SWAP1 PUSH2 0x1CBC JUMP JUMPDEST PUSH1 0x40 MLOAD DUP1 SWAP2 SUB SWAP1 REVERT JUMPDEST PUSH2 0xDA0 DUP4 PUSH2 0x12E3 JUMP JUMPDEST PUSH2 0xDDF JUMPI PUSH1 0x40 MLOAD PUSH32 0x8C379A000000000000000000000000000000000000000000000000000000000 DUP2 MSTORE PUSH1 0x4 ADD PUSH2 0xDD6 SWAP1 PUSH2 0x1D4E JUMP JUMPDEST PUSH1 0x40 MLOAD DUP1 SWAP2 SUB SWAP1 REVERT JUMPDEST PUSH1 0x0 DUP3 PUSH1 0xFF AND LT ISZERO DUP1 ISZERO PUSH2 0xDF7 JUMPI POP PUSH1 0x3 DUP3 PUSH1 0xFF AND GT ISZERO JUMPDEST PUSH2 0xE36 JUMPI PUSH1 0x40 MLOAD PUSH32 0x8C379A000000000000000000000000000000000000000000000000000000000 DUP2 MSTORE PUSH1 0x4 ADD PUSH2 0xE2D SWAP1 PUSH2 0x1FCF JUMP JUMPDEST PUSH1 0x40 MLOAD DUP1 SWAP2 SUB SWAP1 REVERT JUMPDEST PUSH1 0x0 PUSH1 0x5 PUSH1 0x0 DUP6 DUP2 MSTORE PUSH1 0x20 ADD SWAP1 DUP2 MSTORE PUSH1 0x20 ADD PUSH1 0x0 KECCAK256 SWAP1 POP PUSH1 0x0 DUP4 PUSH1 0xFF AND EQ ISZERO PUSH2 0xE8B JUMPI PUSH1 0x0 DUP2 PUSH1 0x6 ADD PUSH1 0x1 PUSH2 0x100 EXP DUP2 SLOAD DUP2 PUSH1 0xFF MUL NOT AND SWAP1 DUP4 PUSH1 0x3 DUP2 GT ISZERO PUSH2 0xE81 JUMPI PUSH2 0xE80 PUSH2 0x178C JUMP JUMPDEST JUMPDEST MUL OR SWAP1 SSTORE POP PUSH2 0xF44 JUMP JUMPDEST PUSH1 0x1 DUP4 PUSH1 0xFF AND EQ ISZERO PUSH2 0xEC9 JUMPI PUSH1 0x1 DUP2 PUSH1 0x6 ADD PUSH1 0x1 PUSH2 0x100 EXP DUP2 SLOAD DUP2 PUSH1 0xFF MUL NOT AND SWAP1 DUP4 PUSH1 0x3 DUP2 GT ISZERO PUSH2 0xEBF JUMPI PUSH2 0xEBE PUSH2 0x178C JUMP JUMPDEST JUMPDEST MUL OR SWAP1 SSTORE POP PUSH2 0xF43 JUMP JUMPDEST PUSH1 0x2 DUP4 PUSH1 0xFF AND EQ ISZERO PUSH2 0xF07 JUMPI PUSH1 0x2 DUP2 PUSH1 0x6 ADD PUSH1 0x1 PUSH2 0x100 EXP DUP2 SLOAD DUP2 PUSH1 0xFF MUL NOT AND SWAP1 DUP4 PUSH1 0x3 DUP2 GT ISZERO PUSH2 0xEFD JUMPI PUSH2 0xEFC PUSH2 0x178C JUMP JUMPDEST JUMPDEST MUL OR SWAP1 SSTORE POP PUSH2 0xF42 JUMP JUMPDEST PUSH1 0x3 DUP4 PUSH1 0xFF AND EQ ISZERO PUSH2 0xF41 JUMPI PUSH1 0x3 DUP2 PUSH1 0x6 ADD PUSH1 0x1 PUSH2 0x100 EXP DUP2 SLOAD DUP2 PUSH1 0xFF MUL NOT AND SWAP1 DUP4 PUSH1 0x3 DUP2 GT ISZERO PUSH2 0xF3B JUMPI PUSH2 0xF3A PUSH2 0x178C JUMP JUMPDEST JUMPDEST MUL OR SWAP1 SSTORE POP JUMPDEST JUMPDEST JUMPDEST JUMPDEST PUSH1 0x1 SWAP2 POP POP SWAP3 SWAP2 POP POP JUMP JUMPDEST PUSH1 0x0 DUP1 PUSH1 0x4 PUSH1 0x0 DUP5 DUP2 MSTORE PUSH1 0x20 ADD SWAP1 DUP2 MSTORE PUSH1 0x20 ADD PUSH1 0x0 KECCAK256 PUSH1 0x0 ADD SLOAD PUSH1 0x4 PUSH1 0x0 DUP6 DUP2 MSTORE PUSH1 0x20 ADD SWAP1 DUP2 MSTORE PUSH1 0x20 ADD PUSH1 0x0 KECCAK256 PUSH1 0x1 ADD SLOAD SWAP2 POP SWAP2 POP SWAP2 POP SWAP2 JUMP JUMPDEST PUSH1 0x1 PUSH1 0x0 SWAP1 SLOAD SWAP1 PUSH2 0x100 EXP SWAP1 DIV PUSH20 0xFFFFFFFFFFFFFFFFFFFFFFFFFFFFFFFFFFFFFFFF AND DUP2 JUMP JUMPDEST PUSH1 0x0 DUP1 PUSH1 0x60 DUP1 PUSH1 0x0 DUP1 PUSH1 0x0 DUP1 PUSH1 0x5 PUSH1 0x0 DUP11 DUP2 MSTORE PUSH1 0x20 ADD SWAP1 DUP2 MSTORE PUSH1 0x20 ADD PUSH1 0x0 KECCAK256 PUSH1 0x0 ADD PUSH1 0x40 MLOAD DUP1 PUSH1 0x80 ADD PUSH1 0x40 MSTORE SWAP1 DUP2 PUSH1 0x0 DUP3 ADD SLOAD DUP2 MSTORE PUSH1 0x20 ADD PUSH1 0x1 DUP3 ADD SLOAD DUP2 MSTORE PUSH1 0x20 ADD PUSH1 0x2 DUP3 ADD SLOAD DUP2 MSTORE PUSH1 0x20 ADD PUSH1 0x3 DUP3 ADD SLOAD DUP2 MSTORE POP POP SWAP1 POP DUP1 PUSH1 0x0 ADD MLOAD SWAP8 POP DUP1 PUSH1 0x20 ADD MLOAD SWAP7 POP PUSH1 0x5 PUSH1 0x0 DUP11 DUP2 MSTORE PUSH1 0x20 ADD SWAP1 DUP2 MSTORE PUSH1 0x20 ADD PUSH1 0x0 KECCAK256 PUSH1 0x4 ADD DUP1 SLOAD DUP1 PUSH1 0x20 MUL PUSH1 0x20 ADD PUSH1 0x40 MLOAD SWAP1 DUP2 ADD PUSH1 0x40 MSTORE DUP1 SWAP3 SWAP2 SWAP1 DUP2 DUP2 MSTORE PUSH1 0x20 ADD DUP3 DUP1 SLOAD DUP1 ISZERO PUSH2 0x10AA JUMPI PUSH1 0x20 MUL DUP3 ADD SWAP2 SWAP1 PUSH1 0x0 MSTORE PUSH1 0x20 PUSH1 0x0 KECCAK256 SWAP1 JUMPDEST DUP2 PUSH1 0x0 SWAP1 SLOAD SWAP1 PUSH2 0x100 EXP SWAP1 DIV PUSH20 0xFFFFFFFFFFFFFFFFFFFFFFFFFFFFFFFFFFFFFFFF AND PUSH20 0xFFFFFFFFFFFFFFFFFFFFFFFFFFFFFFFFFFFFFFFF AND DUP2 MSTORE PUSH1 0x20 ADD SWAP1 PUSH1 0x1 ADD SWAP1 DUP1 DUP4 GT PUSH2 0x1060 JUMPI JUMPDEST POP POP POP POP POP SWAP6 POP PUSH1 0x5 PUSH1 0x0 DUP11 DUP2 MSTORE PUSH1 0x20 ADD SWAP1 DUP2 MSTORE PUSH1 0x20 ADD PUSH1 0x0 KECCAK256 PUSH1 0x5 ADD DUP1 SLOAD DUP1 PUSH1 0x20 MUL PUSH1 0x20 ADD PUSH1 0x40 MLOAD SWAP1 DUP2 ADD PUSH1 0x40 MSTORE DUP1 SWAP3 SWAP2 SWAP1 DUP2 DUP2 MSTORE PUSH1 0x20 ADD DUP3 DUP1 SLOAD DUP1 ISZERO PUSH2 0x1147 JUMPI PUSH1 0x20 MUL DUP3 ADD SWAP2 SWAP1 PUSH1 0x0 MSTORE PUSH1 0x20 PUSH1 0x0 KECCAK256 SWAP1 JUMPDEST DUP2 PUSH1 0x0 SWAP1 SLOAD SWAP1 PUSH2 0x100 EXP SWAP1 DIV PUSH20 0xFFFFFFFFFFFFFFFFFFFFFFFFFFFFFFFFFFFFFFFF AND PUSH20 0xFFFFFFFFFFFFFFFFFFFFFFFFFFFFFFFFFFFFFFFF AND DUP2 MSTORE PUSH1 0x20 ADD SWAP1 PUSH1 0x1 ADD SWAP1 DUP1 DUP4 GT PUSH2 0x10FD JUMPI JUMPDEST POP POP POP POP POP SWAP5 POP PUSH1 0x5 PUSH1 0x0 DUP11 DUP2 MSTORE PUSH1 0x20 ADD SWAP1 DUP2 MSTORE PUSH1 0x20 ADD PUSH1 0x0 KECCAK256 PUSH1 0x6 ADD PUSH1 0x0 SWAP1 SLOAD SWAP1 PUSH2 0x100 EXP SWAP1 DIV PUSH1 0xFF AND PUSH1 0x2 DUP2 GT ISZERO PUSH2 0x1184 JUMPI PUSH2 0x1183 PUSH2 0x178C JUMP JUMPDEST JUMPDEST SWAP4 POP PUSH1 0x5 PUSH1 0x0 DUP11 DUP2 MSTORE PUSH1 0x20 ADD SWAP1 DUP2 MSTORE PUSH1 0x20 ADD PUSH1 0x0 KECCAK256 PUSH1 0x6 ADD PUSH1 0x1 SWAP1 SLOAD SWAP1 PUSH2 0x100 EXP SWAP1 DIV PUSH1 0xFF AND PUSH1 0x3 DUP2 GT ISZERO PUSH2 0x11BC JUMPI PUSH2 0x11BB PUSH2 0x178C JUMP JUMPDEST JUMPDEST SWAP3 POP PUSH1 0x5 PUSH1 0x0 DUP11 DUP2 MSTORE PUSH1 0x20 ADD SWAP1 DUP2 MSTORE PUSH1 0x20 ADD PUSH1 0x0 KECCAK256 PUSH1 0x7 ADD SLOAD SWAP2 POP POP SWAP2 SWAP4 SWAP6 SWAP8 SWAP1 SWAP3 SWAP5 SWAP7 POP JUMP JUMPDEST PUSH2 0x11EB PUSH2 0x12DB JUMP JUMPDEST PUSH20 0xFFFFFFFFFFFFFFFFFFFFFFFFFFFFFFFFFFFFFFFF AND PUSH2 0x1209 PUSH2 0xC54 JUMP JUMPDEST PUSH20 0xFFFFFFFFFFFFFFFFFFFFFFFFFFFFFFFFFFFFFFFF AND EQ PUSH2 0x125F JUMPI PUSH1 0x40 MLOAD PUSH32 0x8C379A000000000000000000000000000000000000000000000000000000000 DUP2 MSTORE PUSH1 0x4 ADD PUSH2 0x1256 SWAP1 PUSH2 0x1E4C JUMP JUMPDEST PUSH1 0x40 MLOAD DUP1 SWAP2 SUB SWAP1 REVERT JUMPDEST PUSH1 0x0 PUSH20 0xFFFFFFFFFFFFFFFFFFFFFFFFFFFFFFFFFFFFFFFF AND DUP2 PUSH20 0xFFFFFFFFFFFFFFFFFFFFFFFFFFFFFFFFFFFFFFFF AND EQ ISZERO PUSH2 0x12CF JUMPI PUSH1 0x40 MLOAD PUSH32 0x8C379A000000000000000000000000000000000000000000000000000000000 DUP2 MSTORE PUSH1 0x4 ADD PUSH2 0x12C6 SWAP1 PUSH2 0x2061 JUMP JUMPDEST PUSH1 0x40 MLOAD DUP1 SWAP2 SUB SWAP1 REVERT JUMPDEST PUSH2 0x12D8 DUP2 PUSH2 0x1318 JUMP JUMPDEST POP JUMP JUMPDEST PUSH1 0x0 CALLER SWAP1 POP SWAP1 JUMP JUMPDEST PUSH1 0x0 DUP1 PUSH1 0x5 PUSH1 0x0 DUP5 DUP2 MSTORE PUSH1 0x20 ADD SWAP1 DUP2 MSTORE PUSH1 0x20 ADD PUSH1 0x0 KECCAK256 PUSH1 0x4 ADD DUP1 SLOAD SWAP1 POP EQ PUSH2 0x130E JUMPI PUSH1 0x1 SWAP1 POP PUSH2 0x1313 JUMP JUMPDEST PUSH1 0x0 SWAP1 POP JUMPDEST SWAP2 SWAP1 POP JUMP JUMPDEST PUSH1 0x0 DUP1 PUSH1 0x0 SWAP1 SLOAD SWAP1 PUSH2 0x100 EXP SWAP1 DIV PUSH20 0xFFFFFFFFFFFFFFFFFFFFFFFFFFFFFFFFFFFFFFFF AND SWAP1 POP DUP2 PUSH1 0x0 DUP1 PUSH2 0x100 EXP DUP2 SLOAD DUP2 PUSH20 0xFFFFFFFFFFFFFFFFFFFFFFFFFFFFFFFFFFFFFFFF MUL NOT AND SWAP1 DUP4 PUSH20 0xFFFFFFFFFFFFFFFFFFFFFFFFFFFFFFFFFFFFFFFF AND MUL OR SWAP1 SSTORE POP DUP2 PUSH20 0xFFFFFFFFFFFFFFFFFFFFFFFFFFFFFFFFFFFFFFFF AND DUP2 PUSH20 0xFFFFFFFFFFFFFFFFFFFFFFFFFFFFFFFFFFFFFFFF AND PUSH32 0x8BE0079C531659141344CD1FD0A4F28419497F9722A3DAAFE3B4186F6B6457E0 PUSH1 0x40 MLOAD PUSH1 0x40 MLOAD DUP1 SWAP2 SUB SWAP1 LOG3 POP POP JUMP JUMPDEST PUSH1 0x0 DUP1 PUSH1 0x4 PUSH1 0x0 DUP5 DUP2 MSTORE PUSH1 0x20 ADD SWAP1 DUP2 MSTORE PUSH1 0x20 ADD PUSH1 0x0 KECCAK256 PUSH1 0x2 ADD SLOAD EQ PUSH2 0x1404 JUMPI PUSH1 0x1 SWAP1 POP PUSH2 0x1409 JUMP JUMPDEST PUSH1 0x0 SWAP1 POP JUMPDEST SWAP2 SWAP1 POP JUMP JUMPDEST DUP3 DUP1 SLOAD DUP3 DUP3 SSTORE SWAP1 PUSH1 0x0 MSTORE PUSH1 0x20 PUSH1 0x0 KECCAK256 SWAP1 DUP2 ADD SWAP3 DUP3 ISZERO PUSH2 0x1487 JUMPI SWAP2 PUSH1 0x20 MUL DUP3 ADD JUMPDEST DUP3 DUP2 GT ISZERO PUSH2 0x1486 JUMPI DUP3 MLOAD DUP3 PUSH1 0x0 PUSH2 0x100 EXP DUP2 SLOAD DUP2 PUSH20 0xFFFFFFFFFFFFFFFFFFFFFFFFFFFFFFFFFFFFFFFF MUL NOT AND SWAP1 DUP4 PUSH20 0xFFFFFFFFFFFFFFFFFFFFFFFFFFFFFFFFFFFFFFFF AND MUL OR SWAP1 SSTORE POP SWAP2 PUSH1 0x20 ADD SWAP2 SWAP1 PUSH1 0x1 ADD SWAP1 PUSH2 0x142E JUMP JUMPDEST JUMPDEST POP SWAP1 POP PUSH2 0x1494 SWAP2 SWAP1 PUSH2 0x1498 JUMP JUMPDEST POP SWAP1 JUMP JUMPDEST JUMPDEST DUP1 DUP3 GT ISZERO PUSH2 0x14B1 JUMPI PUSH1 0x0 DUP2 PUSH1 0x0 SWAP1 SSTORE POP PUSH1 0x1 ADD PUSH2 0x1499 JUMP JUMPDEST POP SWAP1 JUMP JUMPDEST PUSH1 0x0 PUSH1 0x40 MLOAD SWAP1 POP SWAP1 JUMP JUMPDEST PUSH1 0x0 DUP1 REVERT JUMPDEST PUSH1 0x0 DUP1 REVERT JUMPDEST PUSH1 0x0 DUP2 SWAP1 POP SWAP2 SWAP1 POP JUMP JUMPDEST PUSH2 0x14DC DUP2 PUSH2 0x14C9 JUMP JUMPDEST DUP2 EQ PUSH2 0x14E7 JUMPI PUSH1 0x0 DUP1 REVERT JUMPDEST POP JUMP JUMPDEST PUSH1 0x0 DUP2 CALLDATALOAD SWAP1 POP PUSH2 0x14F9 DUP2 PUSH2 0x14D3 JUMP JUMPDEST SWAP3 SWAP2 POP POP JUMP JUMPDEST PUSH1 0x0 PUSH1 0xFF DUP3 AND SWAP1 POP SWAP2 SWAP1 POP JUMP JUMPDEST PUSH2 0x1515 DUP2 PUSH2 0x14FF JUMP JUMPDEST DUP2 EQ PUSH2 0x1520 JUMPI PUSH1 0x0 DUP1 REVERT JUMPDEST POP JUMP JUMPDEST PUSH1 0x0 DUP2 CALLDATALOAD SWAP1 POP PUSH2 0x1532 DUP2 PUSH2 0x150C JUMP JUMPDEST SWAP3 SWAP2 POP POP JUMP JUMPDEST PUSH1 0x0 DUP1 PUSH1 0x40 DUP4 DUP6 SUB SLT ISZERO PUSH2 0x154F JUMPI PUSH2 0x154E PUSH2 0x14BF JUMP JUMPDEST JUMPDEST PUSH1 0x0 PUSH2 0x155D DUP6 DUP3 DUP7 ADD PUSH2 0x14EA JUMP JUMPDEST SWAP3 POP POP PUSH1 0x20 PUSH2 0x156E DUP6 DUP3 DUP7 ADD PUSH2 0x1523 JUMP JUMPDEST SWAP2 POP POP SWAP3 POP SWAP3 SWAP1 POP JUMP JUMPDEST PUSH1 0x0 DUP2 ISZERO ISZERO SWAP1 POP SWAP2 SWAP1 POP JUMP JUMPDEST PUSH2 0x158D DUP2 PUSH2 0x1578 JUMP JUMPDEST DUP3 MSTORE POP POP JUMP JUMPDEST PUSH1 0x0 PUSH1 0x20 DUP3 ADD SWAP1 POP PUSH2 0x15A8 PUSH1 0x0 DUP4 ADD DUP5 PUSH2 0x1584 JUMP JUMPDEST SWAP3 SWAP2 POP POP JUMP JUMPDEST PUSH1 0x0 PUSH1 0x20 DUP3 DUP5 SUB SLT ISZERO PUSH2 0x15C4 JUMPI PUSH2 0x15C3 PUSH2 0x14BF JUMP JUMPDEST JUMPDEST PUSH1 0x0 PUSH2 0x15D2 DUP5 DUP3 DUP6 ADD PUSH2 0x14EA JUMP JUMPDEST SWAP2 POP POP SWAP3 SWAP2 POP POP JUMP JUMPDEST PUSH2 0x15E4 DUP2 PUSH2 0x14C9 JUMP JUMPDEST DUP3 MSTORE POP POP JUMP JUMPDEST PUSH1 0x0 PUSH1 0x80 DUP3 ADD SWAP1 POP PUSH2 0x15FF PUSH1 0x0 DUP4 ADD DUP8 PUSH2 0x15DB JUMP JUMPDEST PUSH2 0x160C PUSH1 0x20 DUP4 ADD DUP7 PUSH2 0x15DB JUMP JUMPDEST PUSH2 0x1619 PUSH1 0x40 DUP4 ADD DUP6 PUSH2 0x15DB JUMP JUMPDEST PUSH2 0x1626 PUSH1 0x60 DUP4 ADD DUP5 PUSH2 0x15DB JUMP JUMPDEST SWAP6 SWAP5 POP POP POP POP POP JUMP JUMPDEST PUSH1 0x0 PUSH20 0xFFFFFFFFFFFFFFFFFFFFFFFFFFFFFFFFFFFFFFFF DUP3 AND SWAP1 POP SWAP2 SWAP1 POP JUMP JUMPDEST PUSH1 0x0 PUSH2 0x165A DUP3 PUSH2 0x162F JUMP JUMPDEST SWAP1 POP SWAP2 SWAP1 POP JUMP JUMPDEST PUSH2 0x166A DUP2 PUSH2 0x164F JUMP JUMPDEST DUP2 EQ PUSH2 0x1675 JUMPI PUSH1 0x0 DUP1 REVERT JUMPDEST POP JUMP JUMPDEST PUSH1 0x0 DUP2 CALLDATALOAD SWAP1 POP PUSH2 0x1687 DUP2 PUSH2 0x1661 JUMP JUMPDEST SWAP3 SWAP2 POP POP JUMP JUMPDEST PUSH1 0x0 PUSH1 0x20 DUP3 DUP5 SUB SLT ISZERO PUSH2 0x16A3 JUMPI PUSH2 0x16A2 PUSH2 0x14BF JUMP JUMPDEST JUMPDEST PUSH1 0x0 PUSH2 0x16B1 DUP5 DUP3 DUP6 ADD PUSH2 0x1678 JUMP JUMPDEST SWAP2 POP POP SWAP3 SWAP2 POP POP JUMP JUMPDEST PUSH1 0x0 DUP1 PUSH1 0x0 PUSH1 0x60 DUP5 DUP7 SUB SLT ISZERO PUSH2 0x16D3 JUMPI PUSH2 0x16D2 PUSH2 0x14BF JUMP JUMPDEST JUMPDEST PUSH1 0x0 PUSH2 0x16E1 DUP7 DUP3 DUP8 ADD PUSH2 0x14EA JUMP JUMPDEST SWAP4 POP POP PUSH1 0x20 PUSH2 0x16F2 DUP7 DUP3 DUP8 ADD PUSH2 0x14EA JUMP JUMPDEST SWAP3 POP POP PUSH1 0x40 PUSH2 0x1703 DUP7 DUP3 DUP8 ADD PUSH2 0x14EA JUMP JUMPDEST SWAP2 POP POP SWAP3 POP SWAP3 POP SWAP3 JUMP JUMPDEST PUSH1 0x0 PUSH1 0x20 DUP3 ADD SWAP1 POP PUSH2 0x1722 PUSH1 0x0 DUP4 ADD DUP5 PUSH2 0x15DB JUMP JUMPDEST SWAP3 SWAP2 POP POP JUMP JUMPDEST PUSH2 0x1731 DUP2 PUSH2 0x14C9 JUMP JUMPDEST DUP3 MSTORE POP POP JUMP JUMPDEST PUSH1 0x80 DUP3 ADD PUSH1 0x0 DUP3 ADD MLOAD PUSH2 0x174D PUSH1 0x0 DUP6 ADD DUP3 PUSH2 0x1728 JUMP JUMPDEST POP PUSH1 0x20 DUP3 ADD MLOAD PUSH2 0x1760 PUSH1 0x20 DUP6 ADD DUP3 PUSH2 0x1728 JUMP JUMPDEST POP PUSH1 0x40 DUP3 ADD MLOAD PUSH2 0x1773 PUSH1 0x40 DUP6 ADD DUP3 PUSH2 0x1728 JUMP JUMPDEST POP PUSH1 0x60 DUP3 ADD MLOAD PUSH2 0x1786 PUSH1 0x60 DUP6 ADD DUP3 PUSH2 0x1728 JUMP JUMPDEST POP POP POP POP JUMP JUMPDEST PUSH32 0x4E487B7100000000000000000000000000000000000000000000000000000000 PUSH1 0x0 MSTORE PUSH1 0x21 PUSH1 0x4 MSTORE PUSH1 0x24 PUSH1 0x0 REVERT JUMPDEST PUSH1 0x3 DUP2 LT PUSH2 0x17CC JUMPI PUSH2 0x17CB PUSH2 0x178C JUMP JUMPDEST JUMPDEST POP JUMP JUMPDEST PUSH1 0x0 DUP2 SWAP1 POP PUSH2 0x17DD DUP3 PUSH2 0x17BB JUMP JUMPDEST SWAP2 SWAP1 POP JUMP JUMPDEST PUSH1 0x0 PUSH2 0x17ED DUP3 PUSH2 0x17CF JUMP JUMPDEST SWAP1 POP SWAP2 SWAP1 POP JUMP JUMPDEST PUSH2 0x17FD DUP2 PUSH2 0x17E2 JUMP JUMPDEST DUP3 MSTORE POP POP JUMP JUMPDEST PUSH1 0x4 DUP2 LT PUSH2 0x1814 JUMPI PUSH2 0x1813 PUSH2 0x178C JUMP JUMPDEST JUMPDEST POP JUMP JUMPDEST PUSH1 0x0 DUP2 SWAP1 POP PUSH2 0x1825 DUP3 PUSH2 0x1803 JUMP JUMPDEST SWAP2 SWAP1 POP JUMP JUMPDEST PUSH1 0x0 PUSH2 0x1835 DUP3 PUSH2 0x1817 JUMP JUMPDEST SWAP1 POP SWAP2 SWAP1 POP JUMP JUMPDEST PUSH2 0x1845 DUP2 PUSH2 0x182A JUMP JUMPDEST DUP3 MSTORE POP POP JUMP JUMPDEST PUSH1 0x0 PUSH2 0x100 DUP3 ADD SWAP1 POP PUSH2 0x1861 PUSH1 0x0 DUP4 ADD DUP9 PUSH2 0x1737 JUMP JUMPDEST PUSH2 0x186E PUSH1 0x80 DUP4 ADD DUP8 PUSH2 0x17F4 JUMP JUMPDEST PUSH2 0x187B PUSH1 0xA0 DUP4 ADD DUP7 PUSH2 0x183C JUMP JUMPDEST PUSH2 0x1888 PUSH1 0xC0 DUP4 ADD DUP6 PUSH2 0x15DB JUMP JUMPDEST PUSH2 0x1895 PUSH1 0xE0 DUP4 ADD DUP5 PUSH2 0x15DB JUMP JUMPDEST SWAP7 SWAP6 POP POP POP POP POP POP JUMP JUMPDEST PUSH1 0x0 DUP1 REVERT JUMPDEST PUSH1 0x0 PUSH1 0x1F NOT PUSH1 0x1F DUP4 ADD AND SWAP1 POP SWAP2 SWAP1 POP JUMP JUMPDEST PUSH32 0x4E487B7100000000000000000000000000000000000000000000000000000000 PUSH1 0x0 MSTORE PUSH1 0x41 PUSH1 0x4 MSTORE PUSH1 0x24 PUSH1 0x0 REVERT JUMPDEST PUSH2 0x18ED DUP3 PUSH2 0x18A4 JUMP JUMPDEST DUP2 ADD DUP2 DUP2 LT PUSH8 0xFFFFFFFFFFFFFFFF DUP3 GT OR ISZERO PUSH2 0x190C JUMPI PUSH2 0x190B PUSH2 0x18B5 JUMP JUMPDEST JUMPDEST DUP1 PUSH1 0x40 MSTORE POP POP POP JUMP JUMPDEST PUSH1 0x0 PUSH2 0x191F PUSH2 0x14B5 JUMP JUMPDEST SWAP1 POP PUSH2 0x192B DUP3 DUP3 PUSH2 0x18E4 JUMP JUMPDEST SWAP2 SWAP1 POP JUMP JUMPDEST PUSH1 0x0 PUSH8 0xFFFFFFFFFFFFFFFF DUP3 GT ISZERO PUSH2 0x194B JUMPI PUSH2 0x194A PUSH2 0x18B5 JUMP JUMPDEST JUMPDEST PUSH1 0x20 DUP3 MUL SWAP1 POP PUSH1 0x20 DUP2 ADD SWAP1 POP SWAP2 SWAP1 POP JUMP JUMPDEST PUSH1 0x0 DUP1 REVERT JUMPDEST PUSH1 0x0 PUSH2 0x1974 PUSH2 0x196F DUP5 PUSH2 0x1930 JUMP JUMPDEST PUSH2 0x1915 JUMP JUMPDEST SWAP1 POP DUP1 DUP4 DUP3 MSTORE PUSH1 0x20 DUP3 ADD SWAP1 POP PUSH1 0x20 DUP5 MUL DUP4 ADD DUP6 DUP2 GT ISZERO PUSH2 0x1997 JUMPI PUSH2 0x1996 PUSH2 0x195C JUMP JUMPDEST JUMPDEST DUP4 JUMPDEST DUP2 DUP2 LT ISZERO PUSH2 0x19C0 JUMPI DUP1 PUSH2 0x19AC DUP9 DUP3 PUSH2 0x1678 JUMP JUMPDEST DUP5 MSTORE PUSH1 0x20 DUP5 ADD SWAP4 POP POP PUSH1 0x20 DUP2 ADD SWAP1 POP PUSH2 0x1999 JUMP JUMPDEST POP POP POP SWAP4 SWAP3 POP POP POP JUMP JUMPDEST PUSH1 0x0 DUP3 PUSH1 0x1F DUP4 ADD SLT PUSH2 0x19DF JUMPI PUSH2 0x19DE PUSH2 0x189F JUMP JUMPDEST JUMPDEST DUP2 CALLDATALOAD PUSH2 0x19EF DUP5 DUP3 PUSH1 0x20 DUP7 ADD PUSH2 0x1961 JUMP JUMPDEST SWAP2 POP POP SWAP3 SWAP2 POP POP JUMP JUMPDEST PUSH1 0x0 DUP1 PUSH1 0x0 DUP1 PUSH1 0x0 PUSH1 0xA0 DUP7 DUP9 SUB SLT ISZERO PUSH2 0x1A14 JUMPI PUSH2 0x1A13 PUSH2 0x14BF JUMP JUMPDEST JUMPDEST PUSH1 0x0 PUSH2 0x1A22 DUP9 DUP3 DUP10 ADD PUSH2 0x14EA JUMP JUMPDEST SWAP6 POP POP PUSH1 0x20 DUP7 ADD CALLDATALOAD PUSH8 0xFFFFFFFFFFFFFFFF DUP2 GT ISZERO PUSH2 0x1A43 JUMPI PUSH2 0x1A42 PUSH2 0x14C4 JUMP JUMPDEST JUMPDEST PUSH2 0x1A4F DUP9 DUP3 DUP10 ADD PUSH2 0x19CA JUMP JUMPDEST SWAP5 POP POP PUSH1 0x40 DUP7 ADD CALLDATALOAD PUSH8 0xFFFFFFFFFFFFFFFF DUP2 GT ISZERO PUSH2 0x1A70 JUMPI PUSH2 0x1A6F PUSH2 0x14C4 JUMP JUMPDEST JUMPDEST PUSH2 0x1A7C DUP9 DUP3 DUP10 ADD PUSH2 0x19CA JUMP JUMPDEST SWAP4 POP POP PUSH1 0x60 PUSH2 0x1A8D DUP9 DUP3 DUP10 ADD PUSH2 0x14EA JUMP JUMPDEST SWAP3 POP POP PUSH1 0x80 PUSH2 0x1A9E DUP9 DUP3 DUP10 ADD PUSH2 0x14EA JUMP JUMPDEST SWAP2 POP POP SWAP3 SWAP6 POP SWAP3 SWAP6 SWAP1 SWAP4 POP JUMP JUMPDEST PUSH2 0x1AB4 DUP2 PUSH2 0x164F JUMP JUMPDEST DUP3 MSTORE POP POP JUMP JUMPDEST PUSH1 0x0 PUSH1 0x20 DUP3 ADD SWAP1 POP PUSH2 0x1ACF PUSH1 0x0 DUP4 ADD DUP5 PUSH2 0x1AAB JUMP JUMPDEST SWAP3 SWAP2 POP POP JUMP JUMPDEST PUSH1 0x0 PUSH1 0x40 DUP3 ADD SWAP1 POP PUSH2 0x1AEA PUSH1 0x0 DUP4 ADD DUP6 PUSH2 0x15DB JUMP JUMPDEST PUSH2 0x1AF7 PUSH1 0x20 DUP4 ADD DUP5 PUSH2 0x15DB JUMP JUMPDEST SWAP4 SWAP3 POP POP POP JUMP JUMPDEST PUSH1 0x0 DUP2 MLOAD SWAP1 POP SWAP2 SWAP1 POP JUMP JUMPDEST PUSH1 0x0 DUP3 DUP3 MSTORE PUSH1 0x20 DUP3 ADD SWAP1 POP SWAP3 SWAP2 POP POP JUMP JUMPDEST PUSH1 0x0 DUP2 SWAP1 POP PUSH1 0x20 DUP3 ADD SWAP1 POP SWAP2 SWAP1 POP JUMP JUMPDEST PUSH2 0x1B33 DUP2 PUSH2 0x164F JUMP JUMPDEST DUP3 MSTORE POP POP JUMP JUMPDEST PUSH1 0x0 PUSH2 0x1B45 DUP4 DUP4 PUSH2 0x1B2A JUMP JUMPDEST PUSH1 0x20 DUP4 ADD SWAP1 POP SWAP3 SWAP2 POP POP JUMP JUMPDEST PUSH1 0x0 PUSH1 0x20 DUP3 ADD SWAP1 POP SWAP2 SWAP1 POP JUMP JUMPDEST PUSH1 0x0 PUSH2 0x1B69 DUP3 PUSH2 0x1AFE JUMP JUMPDEST PUSH2 0x1B73 DUP2 DUP6 PUSH2 0x1B09 JUMP JUMPDEST SWAP4 POP PUSH2 0x1B7E DUP4 PUSH2 0x1B1A JUMP JUMPDEST DUP1 PUSH1 0x0 JUMPDEST DUP4 DUP2 LT ISZERO PUSH2 0x1BAF JUMPI DUP2 MLOAD PUSH2 0x1B96 DUP9 DUP3 PUSH2 0x1B39 JUMP JUMPDEST SWAP8 POP PUSH2 0x1BA1 DUP4 PUSH2 0x1B51 JUMP JUMPDEST SWAP3 POP POP PUSH1 0x1 DUP2 ADD SWAP1 POP PUSH2 0x1B82 JUMP JUMPDEST POP DUP6 SWAP4 POP POP POP POP SWAP3 SWAP2 POP POP JUMP JUMPDEST PUSH1 0x0 PUSH1 0xE0 DUP3 ADD SWAP1 POP PUSH2 0x1BD1 PUSH1 0x0 DUP4 ADD DUP11 PUSH2 0x15DB JUMP JUMPDEST PUSH2 0x1BDE PUSH1 0x20 DUP4 ADD DUP10 PUSH2 0x15DB JUMP JUMPDEST DUP2 DUP2 SUB PUSH1 0x40 DUP4 ADD MSTORE PUSH2 0x1BF0 DUP2 DUP9 PUSH2 0x1B5E JUMP JUMPDEST SWAP1 POP DUP2 DUP2 SUB PUSH1 0x60 DUP4 ADD MSTORE PUSH2 0x1C04 DUP2 DUP8 PUSH2 0x1B5E JUMP JUMPDEST SWAP1 POP PUSH2 0x1C13 PUSH1 0x80 DUP4 ADD DUP7 PUSH2 0x15DB JUMP JUMPDEST PUSH2 0x1C20 PUSH1 0xA0 DUP4 ADD DUP6 PUSH2 0x15DB JUMP JUMPDEST PUSH2 0x1C2D PUSH1 0xC0 DUP4 ADD DUP5 PUSH2 0x15DB JUMP JUMPDEST SWAP9 SWAP8 POP POP POP POP POP POP POP POP JUMP JUMPDEST PUSH1 0x0 DUP3 DUP3 MSTORE PUSH1 0x20 DUP3 ADD SWAP1 POP SWAP3 SWAP2 POP POP JUMP JUMPDEST PUSH32 0x546F2063616C6C2074686973206D6574686F6420796F75206861766520746F20 PUSH1 0x0 DUP3 ADD MSTORE PUSH32 0x6265206F776E6572206F722073756241646D696E210000000000000000000000 PUSH1 0x20 DUP3 ADD MSTORE POP JUMP JUMPDEST PUSH1 0x0 PUSH2 0x1CA6 PUSH1 0x35 DUP4 PUSH2 0x1C39 JUMP JUMPDEST SWAP2 POP PUSH2 0x1CB1 DUP3 PUSH2 0x1C4A JUMP JUMPDEST PUSH1 0x40 DUP3 ADD SWAP1 POP SWAP2 SWAP1 POP JUMP JUMPDEST PUSH1 0x0 PUSH1 0x20 DUP3 ADD SWAP1 POP DUP2 DUP2 SUB PUSH1 0x0 DUP4 ADD MSTORE PUSH2 0x1CD5 DUP2 PUSH2 0x1C99 JUMP JUMPDEST SWAP1 POP SWAP2 SWAP1 POP JUMP JUMPDEST PUSH32 0x63616E27742066696E6420636F6D706574696F6E207769746820746869732063 PUSH1 0x0 DUP3 ADD MSTORE PUSH32 0x6F6D706574696F6E496421000000000000000000000000000000000000000000 PUSH1 0x20 DUP3 ADD MSTORE POP JUMP JUMPDEST PUSH1 0x0 PUSH2 0x1D38 PUSH1 0x2B DUP4 PUSH2 0x1C39 JUMP JUMPDEST SWAP2 POP PUSH2 0x1D43 DUP3 PUSH2 0x1CDC JUMP JUMPDEST PUSH1 0x40 DUP3 ADD SWAP1 POP SWAP2 SWAP1 POP JUMP JUMPDEST PUSH1 0x0 PUSH1 0x20 DUP3 ADD SWAP1 POP DUP2 DUP2 SUB PUSH1 0x0 DUP4 ADD MSTORE PUSH2 0x1D67 DUP2 PUSH2 0x1D2B JUMP JUMPDEST SWAP1 POP SWAP2 SWAP1 POP JUMP JUMPDEST PUSH32 0x737461747573206E65656420746F20626520736F6D74696E6720626574776565 PUSH1 0x0 DUP3 ADD MSTORE PUSH32 0x6E203020746F2032000000000000000000000000000000000000000000000000 PUSH1 0x20 DUP3 ADD MSTORE POP JUMP JUMPDEST PUSH1 0x0 PUSH2 0x1DCA PUSH1 0x28 DUP4 PUSH2 0x1C39 JUMP JUMPDEST SWAP2 POP PUSH2 0x1DD5 DUP3 PUSH2 0x1D6E JUMP JUMPDEST PUSH1 0x40 DUP3 ADD SWAP1 POP SWAP2 SWAP1 POP JUMP JUMPDEST PUSH1 0x0 PUSH1 0x20 DUP3 ADD SWAP1 POP DUP2 DUP2 SUB PUSH1 0x0 DUP4 ADD MSTORE PUSH2 0x1DF9 DUP2 PUSH2 0x1DBD JUMP JUMPDEST SWAP1 POP SWAP2 SWAP1 POP JUMP JUMPDEST PUSH32 0x4F776E61626C653A2063616C6C6572206973206E6F7420746865206F776E6572 PUSH1 0x0 DUP3 ADD MSTORE POP JUMP JUMPDEST PUSH1 0x0 PUSH2 0x1E36 PUSH1 0x20 DUP4 PUSH2 0x1C39 JUMP JUMPDEST SWAP2 POP PUSH2 0x1E41 DUP3 PUSH2 0x1E00 JUMP JUMPDEST PUSH1 0x20 DUP3 ADD SWAP1 POP SWAP2 SWAP1 POP JUMP JUMPDEST PUSH1 0x0 PUSH1 0x20 DUP3 ADD SWAP1 POP DUP2 DUP2 SUB PUSH1 0x0 DUP4 ADD MSTORE PUSH2 0x1E65 DUP2 PUSH2 0x1E29 JUMP JUMPDEST SWAP1 POP SWAP2 SWAP1 POP JUMP JUMPDEST PUSH32 0x4E487B7100000000000000000000000000000000000000000000000000000000 PUSH1 0x0 MSTORE PUSH1 0x11 PUSH1 0x4 MSTORE PUSH1 0x24 PUSH1 0x0 REVERT JUMPDEST PUSH1 0x0 PUSH2 0x1EA6 DUP3 PUSH2 0x14C9 JUMP JUMPDEST SWAP2 POP PUSH2 0x1EB1 DUP4 PUSH2 0x14C9 JUMP JUMPDEST SWAP3 POP DUP3 PUSH32 0xFFFFFFFFFFFFFFFFFFFFFFFFFFFFFFFFFFFFFFFFFFFFFFFFFFFFFFFFFFFFFFFF SUB DUP3 GT ISZERO PUSH2 0x1EE6 JUMPI PUSH2 0x1EE5 PUSH2 0x1E6C JUMP JUMPDEST JUMPDEST DUP3 DUP3 ADD SWAP1 POP SWAP3 SWAP2 POP POP JUMP JUMPDEST PUSH32 0x63616E27742066696E6420707265736574207769746820746869732069642100 PUSH1 0x0 DUP3 ADD MSTORE POP JUMP JUMPDEST PUSH1 0x0 PUSH2 0x1F27 PUSH1 0x1F DUP4 PUSH2 0x1C39 JUMP JUMPDEST SWAP2 POP PUSH2 0x1F32 DUP3 PUSH2 0x1EF1 JUMP JUMPDEST PUSH1 0x20 DUP3 ADD SWAP1 POP SWAP2 SWAP1 POP JUMP JUMPDEST PUSH1 0x0 PUSH1 0x20 DUP3 ADD SWAP1 POP DUP2 DUP2 SUB PUSH1 0x0 DUP4 ADD MSTORE PUSH2 0x1F56 DUP2 PUSH2 0x1F1A JUMP JUMPDEST SWAP1 POP SWAP2 SWAP1 POP JUMP JUMPDEST PUSH32 0x77696E6E6572206E65656420746F20626520736F6D74696E6720626574776565 PUSH1 0x0 DUP3 ADD MSTORE PUSH32 0x6E203020746F2033000000000000000000000000000000000000000000000000 PUSH1 0x20 DUP3 ADD MSTORE POP JUMP JUMPDEST PUSH1 0x0 PUSH2 0x1FB9 PUSH1 0x28 DUP4 PUSH2 0x1C39 JUMP JUMPDEST SWAP2 POP PUSH2 0x1FC4 DUP3 PUSH2 0x1F5D JUMP JUMPDEST PUSH1 0x40 DUP3 ADD SWAP1 POP SWAP2 SWAP1 POP JUMP JUMPDEST PUSH1 0x0 PUSH1 0x20 DUP3 ADD SWAP1 POP DUP2 DUP2 SUB PUSH1 0x0 DUP4 ADD MSTORE PUSH2 0x1FE8 DUP2 PUSH2 0x1FAC JUMP JUMPDEST SWAP1 POP SWAP2 SWAP1 POP JUMP JUMPDEST PUSH32 0x4F776E61626C653A206E6577206F776E657220697320746865207A65726F2061 PUSH1 0x0 DUP3 ADD MSTORE PUSH32 0x6464726573730000000000000000000000000000000000000000000000000000 PUSH1 0x20 DUP3 ADD MSTORE POP JUMP JUMPDEST PUSH1 0x0 PUSH2 0x204B PUSH1 0x26 DUP4 PUSH2 0x1C39 JUMP JUMPDEST SWAP2 POP PUSH2 0x2056 DUP3 PUSH2 0x1FEF JUMP JUMPDEST PUSH1 0x40 DUP3 ADD SWAP1 POP SWAP2 SWAP1 POP JUMP JUMPDEST PUSH1 0x0 PUSH1 0x20 DUP3 ADD SWAP1 POP DUP2 DUP2 SUB PUSH1 0x0 DUP4 ADD MSTORE PUSH2 0x207A DUP2 PUSH2 0x203E JUMP JUMPDEST SWAP1 POP SWAP2 SWAP1 POP JUMP INVALID LOG2 PUSH5 0x6970667358 0x22 SLT KECCAK256 PUSH15 0x4D0A457FB6B2704711A8B589AEE2F8 0x27 SHR PUSH9 0xCC3E3BBA9D4692D33A PUSH9 0x5DBAD464736F6C6343 STOP ADDMOD MULMOD STOP CALLER "
				},
				"gasEstimates": {
					"creation": {
						"codeDepositCost": "1675000",
						"executionCost": "infinite",
						"totalCost": "infinite"
					},
					"external": {
						"addNewCompetion(uint256,address[],address[],uint256,uint256)": "infinite",
						"addNewPreset(uint256,uint256,uint256)": "infinite",
						"competionList(uint256)": "infinite",
						"factoryAddrss()": "2558",
						"getCompetion(uint256)": "infinite",
						"getPreset(uint256)": "infinite",
						"owner()": "2567",
						"presetList(uint256)": "infinite",
						"renounceOwnership()": "30441",
						"transferOwnership(address)": "30811",
						"updateCompetionStatus(uint256,uint8)": "infinite",
						"updateCompetionWinner(uint256,uint8)": "32209",
						"updateFactoryAddress(address)": "27209"
					},
					"internal": {
						"isExistsCompetionList(uint256)": "2260",
						"isExistsPresetList(uint256)": "2252"
					}
				},
				"methodIdentifiers": {
					"addNewCompetion(uint256,address[],address[],uint256,uint256)": "84534890",
					"addNewPreset(uint256,uint256,uint256)": "7ae996bd",
					"competionList(uint256)": "7cb1c0d4",
					"factoryAddrss()": "caa9db89",
					"getCompetion(uint256)": "d4e3706a",
					"getPreset(uint256)": "aabc4b3c",
					"owner()": "8da5cb5b",
					"presetList(uint256)": "511b4db7",
					"renounceOwnership()": "715018a6",
					"transferOwnership(address)": "f2fde38b",
					"updateCompetionStatus(uint256,uint8)": "4f03c754",
					"updateCompetionWinner(uint256,uint8)": "985d8e00",
					"updateFactoryAddress(address)": "551ee570"
				}
			},
			"storageLayout": {
				"storage": [
					{
						"astId": 7,
						"contract": "contracts/EvolveStorage.sol:EvolveStorage",
						"label": "_owner",
						"offset": 0,
						"slot": "0",
						"type": "t_address"
					},
					{
						"astId": 456,
						"contract": "contracts/EvolveStorage.sol:EvolveStorage",
						"label": "factoryAddrss",
						"offset": 0,
						"slot": "1",
						"type": "t_address"
					},
					{
						"astId": 459,
						"contract": "contracts/EvolveStorage.sol:EvolveStorage",
						"label": "startCompetitionId",
						"offset": 0,
						"slot": "2",
						"type": "t_uint256"
					},
					{
						"astId": 462,
						"contract": "contracts/EvolveStorage.sol:EvolveStorage",
						"label": "startPresetId",
						"offset": 0,
						"slot": "3",
						"type": "t_uint256"
					},
					{
						"astId": 467,
						"contract": "contracts/EvolveStorage.sol:EvolveStorage",
						"label": "presetList",
						"offset": 0,
						"slot": "4",
						"type": "t_mapping(t_uint256,t_struct(Preset)943_storage)"
					},
					{
						"astId": 472,
						"contract": "contracts/EvolveStorage.sol:EvolveStorage",
						"label": "competionList",
						"offset": 0,
						"slot": "5",
						"type": "t_mapping(t_uint256,t_struct(Competion)963_storage)"
					}
				],
				"types": {
					"t_address": {
						"encoding": "inplace",
						"label": "address",
						"numberOfBytes": "20"
					},
					"t_array(t_address)dyn_storage": {
						"base": "t_address",
						"encoding": "dynamic_array",
						"label": "address[]",
						"numberOfBytes": "32"
					},
					"t_enum(CompetionStatus)967": {
						"encoding": "inplace",
						"label": "enum IEvolveStorage.CompetionStatus",
						"numberOfBytes": "1"
					},
					"t_enum(CompetionWinner)972": {
						"encoding": "inplace",
						"label": "enum IEvolveStorage.CompetionWinner",
						"numberOfBytes": "1"
					},
					"t_mapping(t_uint256,t_struct(Competion)963_storage)": {
						"encoding": "mapping",
						"key": "t_uint256",
						"label": "mapping(uint256 => struct IEvolveStorage.Competion)",
						"numberOfBytes": "32",
						"value": "t_struct(Competion)963_storage"
					},
					"t_mapping(t_uint256,t_struct(Preset)943_storage)": {
						"encoding": "mapping",
						"key": "t_uint256",
						"label": "mapping(uint256 => struct IEvolveStorage.Preset)",
						"numberOfBytes": "32",
						"value": "t_struct(Preset)943_storage"
					},
					"t_struct(Competion)963_storage": {
						"encoding": "inplace",
						"label": "struct IEvolveStorage.Competion",
						"members": [
							{
								"astId": 946,
								"contract": "contracts/EvolveStorage.sol:EvolveStorage",
								"label": "preset",
								"offset": 0,
								"slot": "0",
								"type": "t_struct(Preset)943_storage"
							},
							{
								"astId": 949,
								"contract": "contracts/EvolveStorage.sol:EvolveStorage",
								"label": "teamA",
								"offset": 0,
								"slot": "4",
								"type": "t_array(t_address)dyn_storage"
							},
							{
								"astId": 952,
								"contract": "contracts/EvolveStorage.sol:EvolveStorage",
								"label": "teamB",
								"offset": 0,
								"slot": "5",
								"type": "t_array(t_address)dyn_storage"
							},
							{
								"astId": 955,
								"contract": "contracts/EvolveStorage.sol:EvolveStorage",
								"label": "status",
								"offset": 0,
								"slot": "6",
								"type": "t_enum(CompetionStatus)967"
							},
							{
								"astId": 958,
								"contract": "contracts/EvolveStorage.sol:EvolveStorage",
								"label": "winners",
								"offset": 1,
								"slot": "6",
								"type": "t_enum(CompetionWinner)972"
							},
							{
								"astId": 960,
								"contract": "contracts/EvolveStorage.sol:EvolveStorage",
								"label": "priceRate",
								"offset": 0,
								"slot": "7",
								"type": "t_uint256"
							},
							{
								"astId": 962,
								"contract": "contracts/EvolveStorage.sol:EvolveStorage",
								"label": "createAt",
								"offset": 0,
								"slot": "8",
								"type": "t_uint256"
							}
						],
						"numberOfBytes": "288"
					},
					"t_struct(Preset)943_storage": {
						"encoding": "inplace",
						"label": "struct IEvolveStorage.Preset",
						"members": [
							{
								"astId": 936,
								"contract": "contracts/EvolveStorage.sol:EvolveStorage",
								"label": "matchPrice",
								"offset": 0,
								"slot": "0",
								"type": "t_uint256"
							},
							{
								"astId": 938,
								"contract": "contracts/EvolveStorage.sol:EvolveStorage",
								"label": "numberOfTeamMemebr",
								"offset": 0,
								"slot": "1",
								"type": "t_uint256"
							},
							{
								"astId": 940,
								"contract": "contracts/EvolveStorage.sol:EvolveStorage",
								"label": "date",
								"offset": 0,
								"slot": "2",
								"type": "t_uint256"
							},
							{
								"astId": 942,
								"contract": "contracts/EvolveStorage.sol:EvolveStorage",
								"label": "createAt",
								"offset": 0,
								"slot": "3",
								"type": "t_uint256"
							}
						],
						"numberOfBytes": "128"
					},
					"t_uint256": {
						"encoding": "inplace",
						"label": "uint256",
						"numberOfBytes": "32"
					}
				}
			},
			"userdoc": {
				"kind": "user",
				"methods": {},
				"version": 1
			}
		}
	}
}