{
	"contracts/EvolveStorage.sol": {
		"EvolveStorage": {
			"abi": [
				{
					"inputs": [],
					"stateMutability": "nonpayable",
					"type": "constructor"
				},
				{
					"anonymous": false,
					"inputs": [
						{
							"indexed": true,
							"internalType": "address",
							"name": "previousOwner",
							"type": "address"
						},
						{
							"indexed": true,
							"internalType": "address",
							"name": "newOwner",
							"type": "address"
						}
					],
					"name": "OwnershipTransferred",
					"type": "event"
				},
				{
					"inputs": [
						{
							"internalType": "uint256",
							"name": "_presetId",
							"type": "uint256"
						},
						{
							"internalType": "address[]",
							"name": "_teamA",
							"type": "address[]"
						},
						{
							"internalType": "address[]",
							"name": "_teamB",
							"type": "address[]"
						},
						{
							"internalType": "uint256",
							"name": "_priceRate",
							"type": "uint256"
						},
						{
							"internalType": "uint256",
							"name": "_createAt",
							"type": "uint256"
						}
					],
					"name": "addNewCompetion",
					"outputs": [
						{
							"internalType": "uint256",
							"name": "competionId",
							"type": "uint256"
						}
					],
					"stateMutability": "nonpayable",
					"type": "function"
				},
				{
					"inputs": [
						{
							"internalType": "uint256",
							"name": "_matchPrice",
							"type": "uint256"
						},
						{
							"internalType": "uint256",
							"name": "_numberOfTeamMemebr",
							"type": "uint256"
						},
						{
							"internalType": "uint256",
							"name": "_createAt",
							"type": "uint256"
						}
					],
					"name": "addNewPreset",
					"outputs": [
						{
							"internalType": "uint256",
							"name": "presetId",
							"type": "uint256"
						}
					],
					"stateMutability": "nonpayable",
					"type": "function"
				},
				{
					"inputs": [
						{
							"internalType": "uint256",
							"name": "",
							"type": "uint256"
						}
					],
					"name": "competionList",
					"outputs": [
						{
							"components": [
								{
									"internalType": "uint256",
									"name": "matchPrice",
									"type": "uint256"
								},
								{
									"internalType": "uint256",
									"name": "numberOfTeamMemebr",
									"type": "uint256"
								},
								{
									"internalType": "uint256",
									"name": "date",
									"type": "uint256"
								},
								{
									"internalType": "uint256",
									"name": "createAt",
									"type": "uint256"
								}
							],
							"internalType": "struct IEvolveStorage.Preset",
							"name": "preset",
							"type": "tuple"
						},
						{
							"internalType": "enum IEvolveStorage.CompetionStatus",
							"name": "status",
							"type": "uint8"
						},
						{
							"internalType": "enum IEvolveStorage.CompetionWinner",
							"name": "winners",
							"type": "uint8"
						},
						{
							"internalType": "uint256",
							"name": "priceRate",
							"type": "uint256"
						},
						{
							"internalType": "uint256",
							"name": "createAt",
							"type": "uint256"
						}
					],
					"stateMutability": "view",
					"type": "function"
				},
				{
					"inputs": [],
					"name": "factoryAddrss",
					"outputs": [
						{
							"internalType": "address",
							"name": "",
							"type": "address"
						}
					],
					"stateMutability": "view",
					"type": "function"
				},
				{
					"inputs": [
						{
							"internalType": "uint256",
							"name": "_competionId",
							"type": "uint256"
						}
					],
					"name": "getCompetion",
					"outputs": [
						{
							"internalType": "uint256",
							"name": "presetPrice",
							"type": "uint256"
						},
						{
							"internalType": "uint256",
							"name": "playerCount",
							"type": "uint256"
						},
						{
							"internalType": "address[]",
							"name": "_teamA",
							"type": "address[]"
						},
						{
							"internalType": "address[]",
							"name": "_teamB",
							"type": "address[]"
						},
						{
							"internalType": "uint256",
							"name": "_competionStatus",
							"type": "uint256"
						},
						{
							"internalType": "uint256",
							"name": "_competionWinner",
							"type": "uint256"
						},
						{
							"internalType": "uint256",
							"name": "_priceRate",
							"type": "uint256"
						}
					],
					"stateMutability": "view",
					"type": "function"
				},
				{
					"inputs": [],
					"name": "getLastCompetion",
					"outputs": [
						{
							"internalType": "uint256",
							"name": "competionId",
							"type": "uint256"
						}
					],
					"stateMutability": "view",
					"type": "function"
				},
				{
					"inputs": [
						{
							"internalType": "uint256",
							"name": "_presetId",
							"type": "uint256"
						}
					],
					"name": "getPreset",
					"outputs": [
						{
							"internalType": "uint256",
							"name": "matchPrice",
							"type": "uint256"
						},
						{
							"internalType": "uint256",
							"name": "numberOfTeamMemebr",
							"type": "uint256"
						}
					],
					"stateMutability": "view",
					"type": "function"
				},
				{
					"inputs": [],
					"name": "owner",
					"outputs": [
						{
							"internalType": "address",
							"name": "",
							"type": "address"
						}
					],
					"stateMutability": "view",
					"type": "function"
				},
				{
					"inputs": [
						{
							"internalType": "uint256",
							"name": "",
							"type": "uint256"
						}
					],
					"name": "presetList",
					"outputs": [
						{
							"internalType": "uint256",
							"name": "matchPrice",
							"type": "uint256"
						},
						{
							"internalType": "uint256",
							"name": "numberOfTeamMemebr",
							"type": "uint256"
						},
						{
							"internalType": "uint256",
							"name": "date",
							"type": "uint256"
						},
						{
							"internalType": "uint256",
							"name": "createAt",
							"type": "uint256"
						}
					],
					"stateMutability": "view",
					"type": "function"
				},
				{
					"inputs": [],
					"name": "renounceOwnership",
					"outputs": [],
					"stateMutability": "nonpayable",
					"type": "function"
				},
				{
					"inputs": [
						{
							"internalType": "address",
							"name": "newOwner",
							"type": "address"
						}
					],
					"name": "transferOwnership",
					"outputs": [],
					"stateMutability": "nonpayable",
					"type": "function"
				},
				{
					"inputs": [
						{
							"internalType": "uint256",
							"name": "_competionId",
							"type": "uint256"
						},
						{
							"internalType": "uint8",
							"name": "_status",
							"type": "uint8"
						}
					],
					"name": "updateCompetionStatus",
					"outputs": [
						{
							"internalType": "bool",
							"name": "",
							"type": "bool"
						}
					],
					"stateMutability": "nonpayable",
					"type": "function"
				},
				{
					"inputs": [
						{
							"internalType": "uint256",
							"name": "_competionId",
							"type": "uint256"
						},
						{
							"internalType": "uint8",
							"name": "_winnerTeam",
							"type": "uint8"
						}
					],
					"name": "updateCompetionWinner",
					"outputs": [
						{
							"internalType": "bool",
							"name": "",
							"type": "bool"
						}
					],
					"stateMutability": "nonpayable",
					"type": "function"
				},
				{
					"inputs": [
						{
							"internalType": "address",
							"name": "_factory",
							"type": "address"
						}
					],
					"name": "updateFactoryAddress",
					"outputs": [
						{
							"internalType": "bool",
							"name": "result",
							"type": "bool"
						}
					],
					"stateMutability": "nonpayable",
					"type": "function"
				}
			],
			"devdoc": {
				"kind": "dev",
				"methods": {
					"owner()": {
						"details": "Returns the address of the current owner."
					},
					"renounceOwnership()": {
						"details": "Leaves the contract without owner. It will not be possible to call `onlyOwner` functions anymore. Can only be called by the current owner. NOTE: Renouncing ownership will leave the contract without an owner, thereby removing any functionality that is only available to the owner."
					},
					"transferOwnership(address)": {
						"details": "Transfers ownership of the contract to a new account (`newOwner`). Can only be called by the current owner."
					}
				},
				"version": 1
			},
			"evm": {
				"assembly": "    /* \"contracts/EvolveStorage.sol\":303:5929  contract EvolveStorage is  Context, Ownable, IEvolveStorage{... */\n  mstore(0x40, 0x80)\n    /* \"contracts/EvolveStorage.sol\":473:474  0 */\n  0x00\n    /* \"contracts/EvolveStorage.sol\":435:474  uint256 internal startCompetitionId = 0 */\n  0x02\n  sstore\n    /* \"contracts/EvolveStorage.sol\":513:514  0 */\n  0x00\n    /* \"contracts/EvolveStorage.sol\":480:514  uint256 internal startPresetId = 0 */\n  0x03\n  sstore\n    /* \"contracts/EvolveStorage.sol\":647:705  constructor(){... */\n  callvalue\n  dup1\n  iszero\n  tag_1\n  jumpi\n  0x00\n  dup1\n  revert\ntag_1:\n  pop\n    /* \"@openzeppelin/contracts/access/Ownable.sol\":921:953  _transferOwnership(_msgSender()) */\n  tag_5\n    /* \"@openzeppelin/contracts/access/Ownable.sol\":940:952  _msgSender() */\n  tag_6\n    /* \"@openzeppelin/contracts/access/Ownable.sol\":940:950  _msgSender */\n  shl(0x20, tag_7)\n    /* \"@openzeppelin/contracts/access/Ownable.sol\":940:952  _msgSender() */\n  0x20\n  shr\n  jump\t// in\ntag_6:\n    /* \"@openzeppelin/contracts/access/Ownable.sol\":921:939  _transferOwnership */\n  shl(0x20, tag_8)\n    /* \"@openzeppelin/contracts/access/Ownable.sol\":921:953  _transferOwnership(_msgSender()) */\n  0x20\n  shr\n  jump\t// in\ntag_5:\n    /* \"contracts/EvolveStorage.sol\":686:698  _msgSender() */\n  tag_10\n    /* \"contracts/EvolveStorage.sol\":686:696  _msgSender */\n  shl(0x20, tag_7)\n    /* \"contracts/EvolveStorage.sol\":686:698  _msgSender() */\n  0x20\n  shr\n  jump\t// in\ntag_10:\n    /* \"contracts/EvolveStorage.sol\":670:683  factoryAddrss */\n  0x01\n  0x00\n    /* \"contracts/EvolveStorage.sol\":670:698  factoryAddrss = _msgSender() */\n  0x0100\n  exp\n  dup2\n  sload\n  dup2\n  0xffffffffffffffffffffffffffffffffffffffff\n  mul\n  not\n  and\n  swap1\n  dup4\n  0xffffffffffffffffffffffffffffffffffffffff\n  and\n  mul\n  or\n  swap1\n  sstore\n  pop\n    /* \"contracts/EvolveStorage.sol\":303:5929  contract EvolveStorage is  Context, Ownable, IEvolveStorage{... */\n  jump(tag_11)\n    /* \"@openzeppelin/contracts/utils/Context.sol\":640:736  function _msgSender() internal view virtual returns (address) {... */\ntag_7:\n    /* \"@openzeppelin/contracts/utils/Context.sol\":693:700  address */\n  0x00\n    /* \"@openzeppelin/contracts/utils/Context.sol\":719:729  msg.sender */\n  caller\n    /* \"@openzeppelin/contracts/utils/Context.sol\":712:729  return msg.sender */\n  swap1\n  pop\n    /* \"@openzeppelin/contracts/utils/Context.sol\":640:736  function _msgSender() internal view virtual returns (address) {... */\n  swap1\n  jump\t// out\n    /* \"@openzeppelin/contracts/access/Ownable.sol\":2270:2457  function _transferOwnership(address newOwner) internal virtual {... */\ntag_8:\n    /* \"@openzeppelin/contracts/access/Ownable.sol\":2343:2359  address oldOwner */\n  0x00\n    /* \"@openzeppelin/contracts/access/Ownable.sol\":2362:2368  _owner */\n  dup1\n  0x00\n  swap1\n  sload\n  swap1\n  0x0100\n  exp\n  swap1\n  div\n  0xffffffffffffffffffffffffffffffffffffffff\n  and\n    /* \"@openzeppelin/contracts/access/Ownable.sol\":2343:2368  address oldOwner = _owner */\n  swap1\n  pop\n    /* \"@openzeppelin/contracts/access/Ownable.sol\":2387:2395  newOwner */\n  dup2\n    /* \"@openzeppelin/contracts/access/Ownable.sol\":2378:2384  _owner */\n  0x00\n  dup1\n    /* \"@openzeppelin/contracts/access/Ownable.sol\":2378:2395  _owner = newOwner */\n  0x0100\n  exp\n  dup2\n  sload\n  dup2\n  0xffffffffffffffffffffffffffffffffffffffff\n  mul\n  not\n  and\n  swap1\n  dup4\n  0xffffffffffffffffffffffffffffffffffffffff\n  and\n  mul\n  or\n  swap1\n  sstore\n  pop\n    /* \"@openzeppelin/contracts/access/Ownable.sol\":2441:2449  newOwner */\n  dup2\n    /* \"@openzeppelin/contracts/access/Ownable.sol\":2410:2450  OwnershipTransferred(oldOwner, newOwner) */\n  0xffffffffffffffffffffffffffffffffffffffff\n  and\n    /* \"@openzeppelin/contracts/access/Ownable.sol\":2431:2439  oldOwner */\n  dup2\n    /* \"@openzeppelin/contracts/access/Ownable.sol\":2410:2450  OwnershipTransferred(oldOwner, newOwner) */\n  0xffffffffffffffffffffffffffffffffffffffff\n  and\n  0x8be0079c531659141344cd1fd0a4f28419497f9722a3daafe3b4186f6b6457e0\n  mload(0x40)\n  mload(0x40)\n  dup1\n  swap2\n  sub\n  swap1\n  log3\n    /* \"@openzeppelin/contracts/access/Ownable.sol\":2333:2457  {... */\n  pop\n    /* \"@openzeppelin/contracts/access/Ownable.sol\":2270:2457  function _transferOwnership(address newOwner) internal virtual {... */\n  pop\n  jump\t// out\n    /* \"contracts/EvolveStorage.sol\":303:5929  contract EvolveStorage is  Context, Ownable, IEvolveStorage{... */\ntag_11:\n  dataSize(sub_0)\n  dup1\n  dataOffset(sub_0)\n  0x00\n  codecopy\n  0x00\n  return\nstop\n\nsub_0: assembly {\n        /* \"contracts/EvolveStorage.sol\":303:5929  contract EvolveStorage is  Context, Ownable, IEvolveStorage{... */\n      mstore(0x40, 0x80)\n      callvalue\n      dup1\n      iszero\n      tag_1\n      jumpi\n      0x00\n      dup1\n      revert\n    tag_1:\n      pop\n      jumpi(tag_2, lt(calldatasize, 0x04))\n      shr(0xe0, calldataload(0x00))\n      dup1\n      0x84534890\n      gt\n      tag_17\n      jumpi\n      dup1\n      0xaabc4b3c\n      gt\n      tag_18\n      jumpi\n      dup1\n      0xaabc4b3c\n      eq\n      tag_13\n      jumpi\n      dup1\n      0xcaa9db89\n      eq\n      tag_14\n      jumpi\n      dup1\n      0xd4e3706a\n      eq\n      tag_15\n      jumpi\n      dup1\n      0xf2fde38b\n      eq\n      tag_16\n      jumpi\n      jump(tag_2)\n    tag_18:\n      dup1\n      0x84534890\n      eq\n      tag_10\n      jumpi\n      dup1\n      0x8da5cb5b\n      eq\n      tag_11\n      jumpi\n      dup1\n      0x985d8e00\n      eq\n      tag_12\n      jumpi\n      jump(tag_2)\n    tag_17:\n      dup1\n      0x69040f67\n      gt\n      tag_19\n      jumpi\n      dup1\n      0x69040f67\n      eq\n      tag_6\n      jumpi\n      dup1\n      0x715018a6\n      eq\n      tag_7\n      jumpi\n      dup1\n      0x7ae996bd\n      eq\n      tag_8\n      jumpi\n      dup1\n      0x7cb1c0d4\n      eq\n      tag_9\n      jumpi\n      jump(tag_2)\n    tag_19:\n      dup1\n      0x4f03c754\n      eq\n      tag_3\n      jumpi\n      dup1\n      0x511b4db7\n      eq\n      tag_4\n      jumpi\n      dup1\n      0x551ee570\n      eq\n      tag_5\n      jumpi\n    tag_2:\n      0x00\n      dup1\n      revert\n        /* \"contracts/EvolveStorage.sol\":2417:3081  function updateCompetionStatus(uint _competionId, uint8 _status) external override ownerOrFactory returns(bool){... */\n    tag_3:\n      tag_20\n      0x04\n      dup1\n      calldatasize\n      sub\n      dup2\n      add\n      swap1\n      tag_21\n      swap2\n      swap1\n      tag_22\n      jump\t// in\n    tag_21:\n      tag_23\n      jump\t// in\n    tag_20:\n      mload(0x40)\n      tag_24\n      swap2\n      swap1\n      tag_25\n      jump\t// in\n    tag_24:\n      mload(0x40)\n      dup1\n      swap2\n      sub\n      swap1\n      return\n        /* \"contracts/EvolveStorage.sol\":538:582  mapping(uint256 => Preset) public presetList */\n    tag_4:\n      tag_26\n      0x04\n      dup1\n      calldatasize\n      sub\n      dup2\n      add\n      swap1\n      tag_27\n      swap2\n      swap1\n      tag_28\n      jump\t// in\n    tag_27:\n      tag_29\n      jump\t// in\n    tag_26:\n      mload(0x40)\n      tag_30\n      swap5\n      swap4\n      swap3\n      swap2\n      swap1\n      tag_31\n      jump\t// in\n    tag_30:\n      mload(0x40)\n      dup1\n      swap2\n      sub\n      swap1\n      return\n        /* \"contracts/EvolveStorage.sol\":1084:1244  function updateFactoryAddress(address _factory) external override onlyOwner returns(bool result){... */\n    tag_5:\n      tag_32\n      0x04\n      dup1\n      calldatasize\n      sub\n      dup2\n      add\n      swap1\n      tag_33\n      swap2\n      swap1\n      tag_34\n      jump\t// in\n    tag_33:\n      tag_35\n      jump\t// in\n    tag_32:\n      mload(0x40)\n      tag_36\n      swap2\n      swap1\n      tag_25\n      jump\t// in\n    tag_36:\n      mload(0x40)\n      dup1\n      swap2\n      sub\n      swap1\n      return\n        /* \"contracts/EvolveStorage.sol\":5402:5527  function getLastCompetion() external view override returns(uint256 competionId){... */\n    tag_6:\n      tag_37\n      tag_38\n      jump\t// in\n    tag_37:\n      mload(0x40)\n      tag_39\n      swap2\n      swap1\n      tag_40\n      jump\t// in\n    tag_39:\n      mload(0x40)\n      dup1\n      swap2\n      sub\n      swap1\n      return\n        /* \"@openzeppelin/contracts/access/Ownable.sol\":1668:1769  function renounceOwnership() public virtual onlyOwner {... */\n    tag_7:\n      tag_41\n      tag_42\n      jump\t// in\n    tag_41:\n      stop\n        /* \"contracts/EvolveStorage.sol\":3917:4333  function addNewPreset(uint256 _matchPrice, uint256 _numberOfTeamMemebr, uint256 _createAt ) external override ownerOrFactory returns(uint presetId) {... */\n    tag_8:\n      tag_43\n      0x04\n      dup1\n      calldatasize\n      sub\n      dup2\n      add\n      swap1\n      tag_44\n      swap2\n      swap1\n      tag_45\n      jump\t// in\n    tag_44:\n      tag_46\n      jump\t// in\n    tag_43:\n      mload(0x40)\n      tag_47\n      swap2\n      swap1\n      tag_40\n      jump\t// in\n    tag_47:\n      mload(0x40)\n      dup1\n      swap2\n      sub\n      swap1\n      return\n        /* \"contracts/EvolveStorage.sol\":588:639  mapping(uint256 => Competion ) public competionList */\n    tag_9:\n      tag_48\n      0x04\n      dup1\n      calldatasize\n      sub\n      dup2\n      add\n      swap1\n      tag_49\n      swap2\n      swap1\n      tag_28\n      jump\t// in\n    tag_49:\n      tag_50\n      jump\t// in\n    tag_48:\n      mload(0x40)\n      tag_51\n      swap6\n      swap5\n      swap4\n      swap3\n      swap2\n      swap1\n      tag_52\n      jump\t// in\n    tag_51:\n      mload(0x40)\n      dup1\n      swap2\n      sub\n      swap1\n      return\n        /* \"contracts/EvolveStorage.sol\":3087:3652  function addNewCompetion(uint256 _presetId, address[] calldata _teamA, address[] calldata _teamB, uint256 _priceRate, uint256 _createAt) external override ownerOrFactory returns(uint competionId){... */\n    tag_10:\n      tag_53\n      0x04\n      dup1\n      calldatasize\n      sub\n      dup2\n      add\n      swap1\n      tag_54\n      swap2\n      swap1\n      tag_55\n      jump\t// in\n    tag_54:\n      tag_56\n      jump\t// in\n    tag_53:\n      mload(0x40)\n      tag_57\n      swap2\n      swap1\n      tag_40\n      jump\t// in\n    tag_57:\n      mload(0x40)\n      dup1\n      swap2\n      sub\n      swap1\n      return\n        /* \"@openzeppelin/contracts/access/Ownable.sol\":1036:1121  function owner() public view virtual returns (address) {... */\n    tag_11:\n      tag_58\n      tag_59\n      jump\t// in\n    tag_58:\n      mload(0x40)\n      tag_60\n      swap2\n      swap1\n      tag_61\n      jump\t// in\n    tag_60:\n      mload(0x40)\n      dup1\n      swap2\n      sub\n      swap1\n      return\n        /* \"contracts/EvolveStorage.sol\":1567:2352  function updateCompetionWinner(uint _competionId, uint8 _winnerTeam) external override ownerOrFactory returns(bool){... */\n    tag_12:\n      tag_62\n      0x04\n      dup1\n      calldatasize\n      sub\n      dup2\n      add\n      swap1\n      tag_63\n      swap2\n      swap1\n      tag_22\n      jump\t// in\n    tag_63:\n      tag_64\n      jump\t// in\n    tag_62:\n      mload(0x40)\n      tag_65\n      swap2\n      swap1\n      tag_25\n      jump\t// in\n    tag_65:\n      mload(0x40)\n      dup1\n      swap2\n      sub\n      swap1\n      return\n        /* \"contracts/EvolveStorage.sol\":4445:4657  function getPreset(uint256 _presetId) external view override returns(uint256 matchPrice,uint256 numberOfTeamMemebr){... */\n    tag_13:\n      tag_66\n      0x04\n      dup1\n      calldatasize\n      sub\n      dup2\n      add\n      swap1\n      tag_67\n      swap2\n      swap1\n      tag_28\n      jump\t// in\n    tag_67:\n      tag_68\n      jump\t// in\n    tag_66:\n      mload(0x40)\n      tag_69\n      swap3\n      swap2\n      swap1\n      tag_70\n      jump\t// in\n    tag_69:\n      mload(0x40)\n      dup1\n      swap2\n      sub\n      swap1\n      return\n        /* \"contracts/EvolveStorage.sol\":401:429  address public factoryAddrss */\n    tag_14:\n      tag_71\n      tag_72\n      jump\t// in\n    tag_71:\n      mload(0x40)\n      tag_73\n      swap2\n      swap1\n      tag_61\n      jump\t// in\n    tag_73:\n      mload(0x40)\n      dup1\n      swap2\n      sub\n      swap1\n      return\n        /* \"contracts/EvolveStorage.sol\":4663:5396  function getCompetion(uint256 _competionId) external view override ... */\n    tag_15:\n      tag_74\n      0x04\n      dup1\n      calldatasize\n      sub\n      dup2\n      add\n      swap1\n      tag_75\n      swap2\n      swap1\n      tag_28\n      jump\t// in\n    tag_75:\n      tag_76\n      jump\t// in\n    tag_74:\n      mload(0x40)\n      tag_77\n      swap8\n      swap7\n      swap6\n      swap5\n      swap4\n      swap3\n      swap2\n      swap1\n      tag_78\n      jump\t// in\n    tag_77:\n      mload(0x40)\n      dup1\n      swap2\n      sub\n      swap1\n      return\n        /* \"@openzeppelin/contracts/access/Ownable.sol\":1918:2116  function transferOwnership(address newOwner) public virtual onlyOwner {... */\n    tag_16:\n      tag_79\n      0x04\n      dup1\n      calldatasize\n      sub\n      dup2\n      add\n      swap1\n      tag_80\n      swap2\n      swap1\n      tag_34\n      jump\t// in\n    tag_80:\n      tag_81\n      jump\t// in\n    tag_79:\n      stop\n        /* \"contracts/EvolveStorage.sol\":2417:3081  function updateCompetionStatus(uint _competionId, uint8 _status) external override ownerOrFactory returns(bool){... */\n    tag_23:\n        /* \"contracts/EvolveStorage.sol\":2523:2527  bool */\n      0x00\n        /* \"contracts/EvolveStorage.sol\":936:949  factoryAddrss */\n      0x01\n      0x00\n      swap1\n      sload\n      swap1\n      0x0100\n      exp\n      swap1\n      div\n      0xffffffffffffffffffffffffffffffffffffffff\n      and\n        /* \"contracts/EvolveStorage.sol\":920:949  _msgSender() == factoryAddrss */\n      0xffffffffffffffffffffffffffffffffffffffff\n      and\n        /* \"contracts/EvolveStorage.sol\":920:932  _msgSender() */\n      tag_83\n        /* \"contracts/EvolveStorage.sol\":920:930  _msgSender */\n      tag_84\n        /* \"contracts/EvolveStorage.sol\":920:932  _msgSender() */\n      jump\t// in\n    tag_83:\n        /* \"contracts/EvolveStorage.sol\":920:949  _msgSender() == factoryAddrss */\n      0xffffffffffffffffffffffffffffffffffffffff\n      and\n      eq\n        /* \"contracts/EvolveStorage.sol\":920:976  _msgSender() == factoryAddrss || _msgSender() == owner() */\n      dup1\n      tag_85\n      jumpi\n      pop\n        /* \"contracts/EvolveStorage.sol\":969:976  owner() */\n      tag_86\n        /* \"contracts/EvolveStorage.sol\":969:974  owner */\n      tag_59\n        /* \"contracts/EvolveStorage.sol\":969:976  owner() */\n      jump\t// in\n    tag_86:\n        /* \"contracts/EvolveStorage.sol\":953:976  _msgSender() == owner() */\n      0xffffffffffffffffffffffffffffffffffffffff\n      and\n        /* \"contracts/EvolveStorage.sol\":953:965  _msgSender() */\n      tag_87\n        /* \"contracts/EvolveStorage.sol\":953:963  _msgSender */\n      tag_84\n        /* \"contracts/EvolveStorage.sol\":953:965  _msgSender() */\n      jump\t// in\n    tag_87:\n        /* \"contracts/EvolveStorage.sol\":953:976  _msgSender() == owner() */\n      0xffffffffffffffffffffffffffffffffffffffff\n      and\n      eq\n        /* \"contracts/EvolveStorage.sol\":920:976  _msgSender() == factoryAddrss || _msgSender() == owner() */\n    tag_85:\n        /* \"contracts/EvolveStorage.sol\":920:1000  _msgSender() == factoryAddrss || _msgSender() == owner() || owner() == tx.origin */\n      dup1\n      tag_88\n      jumpi\n      pop\n        /* \"contracts/EvolveStorage.sol\":991:1000  tx.origin */\n      origin\n        /* \"contracts/EvolveStorage.sol\":980:1000  owner() == tx.origin */\n      0xffffffffffffffffffffffffffffffffffffffff\n      and\n        /* \"contracts/EvolveStorage.sol\":980:987  owner() */\n      tag_89\n        /* \"contracts/EvolveStorage.sol\":980:985  owner */\n      tag_59\n        /* \"contracts/EvolveStorage.sol\":980:987  owner() */\n      jump\t// in\n    tag_89:\n        /* \"contracts/EvolveStorage.sol\":980:1000  owner() == tx.origin */\n      0xffffffffffffffffffffffffffffffffffffffff\n      and\n      eq\n        /* \"contracts/EvolveStorage.sol\":920:1000  _msgSender() == factoryAddrss || _msgSender() == owner() || owner() == tx.origin */\n    tag_88:\n        /* \"contracts/EvolveStorage.sol\":912:1059  require(_msgSender() == factoryAddrss || _msgSender() == owner() || owner() == tx.origin , \"To call this method you have to be owner or subAdmin!\") */\n      tag_90\n      jumpi\n      mload(0x40)\n      0x08c379a000000000000000000000000000000000000000000000000000000000\n      dup2\n      mstore\n      0x04\n      add\n      tag_91\n      swap1\n      tag_92\n      jump\t// in\n    tag_91:\n      mload(0x40)\n      dup1\n      swap2\n      sub\n      swap1\n      revert\n    tag_90:\n        /* \"contracts/EvolveStorage.sol\":2546:2581  isExistsCompetionList(_competionId) */\n      tag_94\n        /* \"contracts/EvolveStorage.sol\":2568:2580  _competionId */\n      dup4\n        /* \"contracts/EvolveStorage.sol\":2546:2567  isExistsCompetionList */\n      tag_95\n        /* \"contracts/EvolveStorage.sol\":2546:2581  isExistsCompetionList(_competionId) */\n      jump\t// in\n    tag_94:\n        /* \"contracts/EvolveStorage.sol\":2538:2629  require(isExistsCompetionList(_competionId), \"can't find competion with this competionId!\") */\n      tag_96\n      jumpi\n      mload(0x40)\n      0x08c379a000000000000000000000000000000000000000000000000000000000\n      dup2\n      mstore\n      0x04\n      add\n      tag_97\n      swap1\n      tag_98\n      jump\t// in\n    tag_97:\n      mload(0x40)\n      dup1\n      swap2\n      sub\n      swap1\n      revert\n    tag_96:\n        /* \"contracts/EvolveStorage.sol\":2658:2659  0 */\n      0x00\n        /* \"contracts/EvolveStorage.sol\":2647:2654  _status */\n      dup3\n        /* \"contracts/EvolveStorage.sol\":2647:2659  _status >= 0 */\n      0xff\n      and\n      lt\n      iszero\n        /* \"contracts/EvolveStorage.sol\":2647:2675  _status >= 0 && _status <= 2 */\n      dup1\n      iszero\n      tag_99\n      jumpi\n      pop\n        /* \"contracts/EvolveStorage.sol\":2674:2675  2 */\n      0x02\n        /* \"contracts/EvolveStorage.sol\":2663:2670  _status */\n      dup3\n        /* \"contracts/EvolveStorage.sol\":2663:2675  _status <= 2 */\n      0xff\n      and\n      gt\n      iszero\n        /* \"contracts/EvolveStorage.sol\":2647:2675  _status >= 0 && _status <= 2 */\n    tag_99:\n        /* \"contracts/EvolveStorage.sol\":2639:2720  require(_status >= 0 && _status <= 2, \"status need to be somting between 0 to 2\") */\n      tag_100\n      jumpi\n      mload(0x40)\n      0x08c379a000000000000000000000000000000000000000000000000000000000\n      dup2\n      mstore\n      0x04\n      add\n      tag_101\n      swap1\n      tag_102\n      jump\t// in\n    tag_101:\n      mload(0x40)\n      dup1\n      swap2\n      sub\n      swap1\n      revert\n    tag_100:\n        /* \"contracts/EvolveStorage.sol\":2730:2757  Competion storage competion */\n      0x00\n        /* \"contracts/EvolveStorage.sol\":2760:2773  competionList */\n      0x05\n        /* \"contracts/EvolveStorage.sol\":2760:2787  competionList[_competionId] */\n      0x00\n        /* \"contracts/EvolveStorage.sol\":2774:2786  _competionId */\n      dup6\n        /* \"contracts/EvolveStorage.sol\":2760:2787  competionList[_competionId] */\n      dup2\n      mstore\n      0x20\n      add\n      swap1\n      dup2\n      mstore\n      0x20\n      add\n      0x00\n      keccak256\n        /* \"contracts/EvolveStorage.sol\":2730:2787  Competion storage competion = competionList[_competionId] */\n      swap1\n      pop\n        /* \"contracts/EvolveStorage.sol\":2811:2812  0 */\n      0x00\n        /* \"contracts/EvolveStorage.sol\":2800:2807  _status */\n      dup4\n        /* \"contracts/EvolveStorage.sol\":2800:2812  _status == 0 */\n      0xff\n      and\n      eq\n        /* \"contracts/EvolveStorage.sol\":2797:3054  if(_status == 0){... */\n      iszero\n      tag_103\n      jumpi\n        /* \"contracts/EvolveStorage.sol\":2846:2869  CompetionStatus.PENDING */\n      0x00\n        /* \"contracts/EvolveStorage.sol\":2827:2836  competion */\n      dup2\n        /* \"contracts/EvolveStorage.sol\":2827:2843  competion.status */\n      0x06\n      add\n      0x00\n        /* \"contracts/EvolveStorage.sol\":2827:2869  competion.status = CompetionStatus.PENDING */\n      0x0100\n      exp\n      dup2\n      sload\n      dup2\n      0xff\n      mul\n      not\n      and\n      swap1\n      dup4\n      0x02\n      dup2\n      gt\n      iszero\n      tag_104\n      jumpi\n      tag_105\n      tag_106\n      jump\t// in\n    tag_105:\n    tag_104:\n      mul\n      or\n      swap1\n      sstore\n      pop\n        /* \"contracts/EvolveStorage.sol\":2797:3054  if(_status == 0){... */\n      jump(tag_107)\n    tag_103:\n        /* \"contracts/EvolveStorage.sol\":2899:2900  1 */\n      0x01\n        /* \"contracts/EvolveStorage.sol\":2888:2895  _status */\n      dup4\n        /* \"contracts/EvolveStorage.sol\":2888:2900  _status == 1 */\n      0xff\n      and\n      eq\n        /* \"contracts/EvolveStorage.sol\":2885:3054  if(_status == 1){... */\n      iszero\n      tag_108\n      jumpi\n        /* \"contracts/EvolveStorage.sol\":2934:2958  CompetionStatus.CANCELED */\n      0x01\n        /* \"contracts/EvolveStorage.sol\":2915:2924  competion */\n      dup2\n        /* \"contracts/EvolveStorage.sol\":2915:2931  competion.status */\n      0x06\n      add\n      0x00\n        /* \"contracts/EvolveStorage.sol\":2915:2958  competion.status = CompetionStatus.CANCELED */\n      0x0100\n      exp\n      dup2\n      sload\n      dup2\n      0xff\n      mul\n      not\n      and\n      swap1\n      dup4\n      0x02\n      dup2\n      gt\n      iszero\n      tag_109\n      jumpi\n      tag_110\n      tag_106\n      jump\t// in\n    tag_110:\n    tag_109:\n      mul\n      or\n      swap1\n      sstore\n      pop\n        /* \"contracts/EvolveStorage.sol\":2885:3054  if(_status == 1){... */\n      jump(tag_111)\n    tag_108:\n        /* \"contracts/EvolveStorage.sol\":2988:2989  2 */\n      0x02\n        /* \"contracts/EvolveStorage.sol\":2977:2984  _status */\n      dup4\n        /* \"contracts/EvolveStorage.sol\":2977:2989  _status == 2 */\n      0xff\n      and\n      eq\n        /* \"contracts/EvolveStorage.sol\":2974:3054  if(_status == 2){... */\n      iszero\n      tag_112\n      jumpi\n        /* \"contracts/EvolveStorage.sol\":3023:3043  CompetionStatus.DONE */\n      0x02\n        /* \"contracts/EvolveStorage.sol\":3004:3013  competion */\n      dup2\n        /* \"contracts/EvolveStorage.sol\":3004:3020  competion.status */\n      0x06\n      add\n      0x00\n        /* \"contracts/EvolveStorage.sol\":3004:3043  competion.status = CompetionStatus.DONE */\n      0x0100\n      exp\n      dup2\n      sload\n      dup2\n      0xff\n      mul\n      not\n      and\n      swap1\n      dup4\n      0x02\n      dup2\n      gt\n      iszero\n      tag_113\n      jumpi\n      tag_114\n      tag_106\n      jump\t// in\n    tag_114:\n    tag_113:\n      mul\n      or\n      swap1\n      sstore\n      pop\n        /* \"contracts/EvolveStorage.sol\":2974:3054  if(_status == 2){... */\n    tag_112:\n        /* \"contracts/EvolveStorage.sol\":2885:3054  if(_status == 1){... */\n    tag_111:\n        /* \"contracts/EvolveStorage.sol\":2797:3054  if(_status == 0){... */\n    tag_107:\n        /* \"contracts/EvolveStorage.sol\":3070:3074  true */\n      0x01\n        /* \"contracts/EvolveStorage.sol\":3063:3074  return true */\n      swap2\n      pop\n      pop\n        /* \"contracts/EvolveStorage.sol\":2417:3081  function updateCompetionStatus(uint _competionId, uint8 _status) external override ownerOrFactory returns(bool){... */\n      swap3\n      swap2\n      pop\n      pop\n      jump\t// out\n        /* \"contracts/EvolveStorage.sol\":538:582  mapping(uint256 => Preset) public presetList */\n    tag_29:\n      mstore(0x20, 0x04)\n      dup1\n      0x00\n      mstore\n      keccak256(0x00, 0x40)\n      0x00\n      swap2\n      pop\n      swap1\n      pop\n      dup1\n      0x00\n      add\n      sload\n      swap1\n      dup1\n      0x01\n      add\n      sload\n      swap1\n      dup1\n      0x02\n      add\n      sload\n      swap1\n      dup1\n      0x03\n      add\n      sload\n      swap1\n      pop\n      dup5\n      jump\t// out\n        /* \"contracts/EvolveStorage.sol\":1084:1244  function updateFactoryAddress(address _factory) external override onlyOwner returns(bool result){... */\n    tag_35:\n        /* \"contracts/EvolveStorage.sol\":1168:1179  bool result */\n      0x00\n        /* \"@openzeppelin/contracts/access/Ownable.sol\":1259:1271  _msgSender() */\n      tag_116\n        /* \"@openzeppelin/contracts/access/Ownable.sol\":1259:1269  _msgSender */\n      tag_84\n        /* \"@openzeppelin/contracts/access/Ownable.sol\":1259:1271  _msgSender() */\n      jump\t// in\n    tag_116:\n        /* \"@openzeppelin/contracts/access/Ownable.sol\":1248:1271  owner() == _msgSender() */\n      0xffffffffffffffffffffffffffffffffffffffff\n      and\n        /* \"@openzeppelin/contracts/access/Ownable.sol\":1248:1255  owner() */\n      tag_117\n        /* \"@openzeppelin/contracts/access/Ownable.sol\":1248:1253  owner */\n      tag_59\n        /* \"@openzeppelin/contracts/access/Ownable.sol\":1248:1255  owner() */\n      jump\t// in\n    tag_117:\n        /* \"@openzeppelin/contracts/access/Ownable.sol\":1248:1271  owner() == _msgSender() */\n      0xffffffffffffffffffffffffffffffffffffffff\n      and\n      eq\n        /* \"@openzeppelin/contracts/access/Ownable.sol\":1240:1308  require(owner() == _msgSender(), \"Ownable: caller is not the owner\") */\n      tag_118\n      jumpi\n      mload(0x40)\n      0x08c379a000000000000000000000000000000000000000000000000000000000\n      dup2\n      mstore\n      0x04\n      add\n      tag_119\n      swap1\n      tag_120\n      jump\t// in\n    tag_119:\n      mload(0x40)\n      dup1\n      swap2\n      sub\n      swap1\n      revert\n    tag_118:\n        /* \"contracts/EvolveStorage.sol\":1206:1214  _factory */\n      dup2\n        /* \"contracts/EvolveStorage.sol\":1190:1203  factoryAddrss */\n      0x01\n      0x00\n        /* \"contracts/EvolveStorage.sol\":1190:1214  factoryAddrss = _factory */\n      0x0100\n      exp\n      dup2\n      sload\n      dup2\n      0xffffffffffffffffffffffffffffffffffffffff\n      mul\n      not\n      and\n      swap1\n      dup4\n      0xffffffffffffffffffffffffffffffffffffffff\n      and\n      mul\n      or\n      swap1\n      sstore\n      pop\n        /* \"contracts/EvolveStorage.sol\":1233:1237  true */\n      0x01\n        /* \"contracts/EvolveStorage.sol\":1224:1237  result = true */\n      swap1\n      pop\n        /* \"contracts/EvolveStorage.sol\":1084:1244  function updateFactoryAddress(address _factory) external override onlyOwner returns(bool result){... */\n      swap2\n      swap1\n      pop\n      jump\t// out\n        /* \"contracts/EvolveStorage.sol\":5402:5527  function getLastCompetion() external view override returns(uint256 competionId){... */\n    tag_38:\n        /* \"contracts/EvolveStorage.sol\":5461:5480  uint256 competionId */\n      0x00\n        /* \"contracts/EvolveStorage.sol\":5519:5520  1 */\n      0x01\n        /* \"contracts/EvolveStorage.sol\":5498:5516  startCompetitionId */\n      sload(0x02)\n        /* \"contracts/EvolveStorage.sol\":5498:5520  startCompetitionId - 1 */\n      tag_123\n      swap2\n      swap1\n      tag_124\n      jump\t// in\n    tag_123:\n        /* \"contracts/EvolveStorage.sol\":5491:5520  return startCompetitionId - 1 */\n      swap1\n      pop\n        /* \"contracts/EvolveStorage.sol\":5402:5527  function getLastCompetion() external view override returns(uint256 competionId){... */\n      swap1\n      jump\t// out\n        /* \"@openzeppelin/contracts/access/Ownable.sol\":1668:1769  function renounceOwnership() public virtual onlyOwner {... */\n    tag_42:\n        /* \"@openzeppelin/contracts/access/Ownable.sol\":1259:1271  _msgSender() */\n      tag_126\n        /* \"@openzeppelin/contracts/access/Ownable.sol\":1259:1269  _msgSender */\n      tag_84\n        /* \"@openzeppelin/contracts/access/Ownable.sol\":1259:1271  _msgSender() */\n      jump\t// in\n    tag_126:\n        /* \"@openzeppelin/contracts/access/Ownable.sol\":1248:1271  owner() == _msgSender() */\n      0xffffffffffffffffffffffffffffffffffffffff\n      and\n        /* \"@openzeppelin/contracts/access/Ownable.sol\":1248:1255  owner() */\n      tag_127\n        /* \"@openzeppelin/contracts/access/Ownable.sol\":1248:1253  owner */\n      tag_59\n        /* \"@openzeppelin/contracts/access/Ownable.sol\":1248:1255  owner() */\n      jump\t// in\n    tag_127:\n        /* \"@openzeppelin/contracts/access/Ownable.sol\":1248:1271  owner() == _msgSender() */\n      0xffffffffffffffffffffffffffffffffffffffff\n      and\n      eq\n        /* \"@openzeppelin/contracts/access/Ownable.sol\":1240:1308  require(owner() == _msgSender(), \"Ownable: caller is not the owner\") */\n      tag_128\n      jumpi\n      mload(0x40)\n      0x08c379a000000000000000000000000000000000000000000000000000000000\n      dup2\n      mstore\n      0x04\n      add\n      tag_129\n      swap1\n      tag_120\n      jump\t// in\n    tag_129:\n      mload(0x40)\n      dup1\n      swap2\n      sub\n      swap1\n      revert\n    tag_128:\n        /* \"@openzeppelin/contracts/access/Ownable.sol\":1732:1762  _transferOwnership(address(0)) */\n      tag_131\n        /* \"@openzeppelin/contracts/access/Ownable.sol\":1759:1760  0 */\n      0x00\n        /* \"@openzeppelin/contracts/access/Ownable.sol\":1732:1750  _transferOwnership */\n      tag_132\n        /* \"@openzeppelin/contracts/access/Ownable.sol\":1732:1762  _transferOwnership(address(0)) */\n      jump\t// in\n    tag_131:\n        /* \"@openzeppelin/contracts/access/Ownable.sol\":1668:1769  function renounceOwnership() public virtual onlyOwner {... */\n      jump\t// out\n        /* \"contracts/EvolveStorage.sol\":3917:4333  function addNewPreset(uint256 _matchPrice, uint256 _numberOfTeamMemebr, uint256 _createAt ) external override ownerOrFactory returns(uint presetId) {... */\n    tag_46:\n        /* \"contracts/EvolveStorage.sol\":4050:4063  uint presetId */\n      0x00\n        /* \"contracts/EvolveStorage.sol\":936:949  factoryAddrss */\n      0x01\n      0x00\n      swap1\n      sload\n      swap1\n      0x0100\n      exp\n      swap1\n      div\n      0xffffffffffffffffffffffffffffffffffffffff\n      and\n        /* \"contracts/EvolveStorage.sol\":920:949  _msgSender() == factoryAddrss */\n      0xffffffffffffffffffffffffffffffffffffffff\n      and\n        /* \"contracts/EvolveStorage.sol\":920:932  _msgSender() */\n      tag_134\n        /* \"contracts/EvolveStorage.sol\":920:930  _msgSender */\n      tag_84\n        /* \"contracts/EvolveStorage.sol\":920:932  _msgSender() */\n      jump\t// in\n    tag_134:\n        /* \"contracts/EvolveStorage.sol\":920:949  _msgSender() == factoryAddrss */\n      0xffffffffffffffffffffffffffffffffffffffff\n      and\n      eq\n        /* \"contracts/EvolveStorage.sol\":920:976  _msgSender() == factoryAddrss || _msgSender() == owner() */\n      dup1\n      tag_135\n      jumpi\n      pop\n        /* \"contracts/EvolveStorage.sol\":969:976  owner() */\n      tag_136\n        /* \"contracts/EvolveStorage.sol\":969:974  owner */\n      tag_59\n        /* \"contracts/EvolveStorage.sol\":969:976  owner() */\n      jump\t// in\n    tag_136:\n        /* \"contracts/EvolveStorage.sol\":953:976  _msgSender() == owner() */\n      0xffffffffffffffffffffffffffffffffffffffff\n      and\n        /* \"contracts/EvolveStorage.sol\":953:965  _msgSender() */\n      tag_137\n        /* \"contracts/EvolveStorage.sol\":953:963  _msgSender */\n      tag_84\n        /* \"contracts/EvolveStorage.sol\":953:965  _msgSender() */\n      jump\t// in\n    tag_137:\n        /* \"contracts/EvolveStorage.sol\":953:976  _msgSender() == owner() */\n      0xffffffffffffffffffffffffffffffffffffffff\n      and\n      eq\n        /* \"contracts/EvolveStorage.sol\":920:976  _msgSender() == factoryAddrss || _msgSender() == owner() */\n    tag_135:\n        /* \"contracts/EvolveStorage.sol\":920:1000  _msgSender() == factoryAddrss || _msgSender() == owner() || owner() == tx.origin */\n      dup1\n      tag_138\n      jumpi\n      pop\n        /* \"contracts/EvolveStorage.sol\":991:1000  tx.origin */\n      origin\n        /* \"contracts/EvolveStorage.sol\":980:1000  owner() == tx.origin */\n      0xffffffffffffffffffffffffffffffffffffffff\n      and\n        /* \"contracts/EvolveStorage.sol\":980:987  owner() */\n      tag_139\n        /* \"contracts/EvolveStorage.sol\":980:985  owner */\n      tag_59\n        /* \"contracts/EvolveStorage.sol\":980:987  owner() */\n      jump\t// in\n    tag_139:\n        /* \"contracts/EvolveStorage.sol\":980:1000  owner() == tx.origin */\n      0xffffffffffffffffffffffffffffffffffffffff\n      and\n      eq\n        /* \"contracts/EvolveStorage.sol\":920:1000  _msgSender() == factoryAddrss || _msgSender() == owner() || owner() == tx.origin */\n    tag_138:\n        /* \"contracts/EvolveStorage.sol\":912:1059  require(_msgSender() == factoryAddrss || _msgSender() == owner() || owner() == tx.origin , \"To call this method you have to be owner or subAdmin!\") */\n      tag_140\n      jumpi\n      mload(0x40)\n      0x08c379a000000000000000000000000000000000000000000000000000000000\n      dup2\n      mstore\n      0x04\n      add\n      tag_141\n      swap1\n      tag_92\n      jump\t// in\n    tag_141:\n      mload(0x40)\n      dup1\n      swap2\n      sub\n      swap1\n      revert\n    tag_140:\n        /* \"contracts/EvolveStorage.sol\":4075:4093  uint _lastPresetId */\n      0x00\n        /* \"contracts/EvolveStorage.sol\":4096:4109  startPresetId */\n      sload(0x03)\n        /* \"contracts/EvolveStorage.sol\":4075:4109  uint _lastPresetId = startPresetId */\n      swap1\n      pop\n        /* \"contracts/EvolveStorage.sol\":4119:4146  Preset memory currentPreset */\n      0x00\n        /* \"contracts/EvolveStorage.sol\":4149:4217  Preset(_matchPrice, _numberOfTeamMemebr, block.timestamp, _createAt) */\n      mload(0x40)\n      dup1\n      0x80\n      add\n      0x40\n      mstore\n      dup1\n        /* \"contracts/EvolveStorage.sol\":4156:4167  _matchPrice */\n      dup8\n        /* \"contracts/EvolveStorage.sol\":4149:4217  Preset(_matchPrice, _numberOfTeamMemebr, block.timestamp, _createAt) */\n      dup2\n      mstore\n      0x20\n      add\n        /* \"contracts/EvolveStorage.sol\":4169:4188  _numberOfTeamMemebr */\n      dup7\n        /* \"contracts/EvolveStorage.sol\":4149:4217  Preset(_matchPrice, _numberOfTeamMemebr, block.timestamp, _createAt) */\n      dup2\n      mstore\n      0x20\n      add\n        /* \"contracts/EvolveStorage.sol\":4190:4205  block.timestamp */\n      timestamp\n        /* \"contracts/EvolveStorage.sol\":4149:4217  Preset(_matchPrice, _numberOfTeamMemebr, block.timestamp, _createAt) */\n      dup2\n      mstore\n      0x20\n      add\n        /* \"contracts/EvolveStorage.sol\":4207:4216  _createAt */\n      dup6\n        /* \"contracts/EvolveStorage.sol\":4149:4217  Preset(_matchPrice, _numberOfTeamMemebr, block.timestamp, _createAt) */\n      dup2\n      mstore\n      pop\n        /* \"contracts/EvolveStorage.sol\":4119:4217  Preset memory currentPreset = Preset(_matchPrice, _numberOfTeamMemebr, block.timestamp, _createAt) */\n      swap1\n      pop\n        /* \"contracts/EvolveStorage.sol\":4255:4268  currentPreset */\n      dup1\n        /* \"contracts/EvolveStorage.sol\":4227:4237  presetList */\n      0x04\n        /* \"contracts/EvolveStorage.sol\":4227:4252  presetList[_lastPresetId] */\n      0x00\n        /* \"contracts/EvolveStorage.sol\":4238:4251  _lastPresetId */\n      dup5\n        /* \"contracts/EvolveStorage.sol\":4227:4252  presetList[_lastPresetId] */\n      dup2\n      mstore\n      0x20\n      add\n      swap1\n      dup2\n      mstore\n      0x20\n      add\n      0x00\n      keccak256\n        /* \"contracts/EvolveStorage.sol\":4227:4268  presetList[_lastPresetId] = currentPreset */\n      0x00\n      dup3\n      add\n      mload\n      dup2\n      0x00\n      add\n      sstore\n      0x20\n      dup3\n      add\n      mload\n      dup2\n      0x01\n      add\n      sstore\n      0x40\n      dup3\n      add\n      mload\n      dup2\n      0x02\n      add\n      sstore\n      0x60\n      dup3\n      add\n      mload\n      dup2\n      0x03\n      add\n      sstore\n      swap1\n      pop\n      pop\n        /* \"contracts/EvolveStorage.sol\":4295:4296  1 */\n      0x01\n        /* \"contracts/EvolveStorage.sol\":4278:4291  startPresetId */\n      0x03\n      0x00\n        /* \"contracts/EvolveStorage.sol\":4278:4296  startPresetId += 1 */\n      dup3\n      dup3\n      sload\n      tag_143\n      swap2\n      swap1\n      tag_144\n      jump\t// in\n    tag_143:\n      swap3\n      pop\n      pop\n      dup2\n      swap1\n      sstore\n      pop\n        /* \"contracts/EvolveStorage.sol\":4313:4326  _lastPresetId */\n      dup2\n        /* \"contracts/EvolveStorage.sol\":4306:4326  return _lastPresetId */\n      swap3\n      pop\n      pop\n      pop\n        /* \"contracts/EvolveStorage.sol\":3917:4333  function addNewPreset(uint256 _matchPrice, uint256 _numberOfTeamMemebr, uint256 _createAt ) external override ownerOrFactory returns(uint presetId) {... */\n      swap4\n      swap3\n      pop\n      pop\n      pop\n      jump\t// out\n        /* \"contracts/EvolveStorage.sol\":588:639  mapping(uint256 => Competion ) public competionList */\n    tag_50:\n      mstore(0x20, 0x05)\n      dup1\n      0x00\n      mstore\n      keccak256(0x00, 0x40)\n      0x00\n      swap2\n      pop\n      swap1\n      pop\n      dup1\n      0x00\n      add\n      mload(0x40)\n      dup1\n      0x80\n      add\n      0x40\n      mstore\n      swap1\n      dup2\n      0x00\n      dup3\n      add\n      sload\n      dup2\n      mstore\n      0x20\n      add\n      0x01\n      dup3\n      add\n      sload\n      dup2\n      mstore\n      0x20\n      add\n      0x02\n      dup3\n      add\n      sload\n      dup2\n      mstore\n      0x20\n      add\n      0x03\n      dup3\n      add\n      sload\n      dup2\n      mstore\n      pop\n      pop\n      swap1\n      dup1\n      0x06\n      add\n      0x00\n      swap1\n      sload\n      swap1\n      0x0100\n      exp\n      swap1\n      div\n      0xff\n      and\n      swap1\n      dup1\n      0x06\n      add\n      0x01\n      swap1\n      sload\n      swap1\n      0x0100\n      exp\n      swap1\n      div\n      0xff\n      and\n      swap1\n      dup1\n      0x07\n      add\n      sload\n      swap1\n      dup1\n      0x08\n      add\n      sload\n      swap1\n      pop\n      dup6\n      jump\t// out\n        /* \"contracts/EvolveStorage.sol\":3087:3652  function addNewCompetion(uint256 _presetId, address[] calldata _teamA, address[] calldata _teamB, uint256 _priceRate, uint256 _createAt) external override ownerOrFactory returns(uint competionId){... */\n    tag_56:\n        /* \"contracts/EvolveStorage.sol\":3265:3281  uint competionId */\n      0x00\n        /* \"contracts/EvolveStorage.sol\":936:949  factoryAddrss */\n      0x01\n      0x00\n      swap1\n      sload\n      swap1\n      0x0100\n      exp\n      swap1\n      div\n      0xffffffffffffffffffffffffffffffffffffffff\n      and\n        /* \"contracts/EvolveStorage.sol\":920:949  _msgSender() == factoryAddrss */\n      0xffffffffffffffffffffffffffffffffffffffff\n      and\n        /* \"contracts/EvolveStorage.sol\":920:932  _msgSender() */\n      tag_146\n        /* \"contracts/EvolveStorage.sol\":920:930  _msgSender */\n      tag_84\n        /* \"contracts/EvolveStorage.sol\":920:932  _msgSender() */\n      jump\t// in\n    tag_146:\n        /* \"contracts/EvolveStorage.sol\":920:949  _msgSender() == factoryAddrss */\n      0xffffffffffffffffffffffffffffffffffffffff\n      and\n      eq\n        /* \"contracts/EvolveStorage.sol\":920:976  _msgSender() == factoryAddrss || _msgSender() == owner() */\n      dup1\n      tag_147\n      jumpi\n      pop\n        /* \"contracts/EvolveStorage.sol\":969:976  owner() */\n      tag_148\n        /* \"contracts/EvolveStorage.sol\":969:974  owner */\n      tag_59\n        /* \"contracts/EvolveStorage.sol\":969:976  owner() */\n      jump\t// in\n    tag_148:\n        /* \"contracts/EvolveStorage.sol\":953:976  _msgSender() == owner() */\n      0xffffffffffffffffffffffffffffffffffffffff\n      and\n        /* \"contracts/EvolveStorage.sol\":953:965  _msgSender() */\n      tag_149\n        /* \"contracts/EvolveStorage.sol\":953:963  _msgSender */\n      tag_84\n        /* \"contracts/EvolveStorage.sol\":953:965  _msgSender() */\n      jump\t// in\n    tag_149:\n        /* \"contracts/EvolveStorage.sol\":953:976  _msgSender() == owner() */\n      0xffffffffffffffffffffffffffffffffffffffff\n      and\n      eq\n        /* \"contracts/EvolveStorage.sol\":920:976  _msgSender() == factoryAddrss || _msgSender() == owner() */\n    tag_147:\n        /* \"contracts/EvolveStorage.sol\":920:1000  _msgSender() == factoryAddrss || _msgSender() == owner() || owner() == tx.origin */\n      dup1\n      tag_150\n      jumpi\n      pop\n        /* \"contracts/EvolveStorage.sol\":991:1000  tx.origin */\n      origin\n        /* \"contracts/EvolveStorage.sol\":980:1000  owner() == tx.origin */\n      0xffffffffffffffffffffffffffffffffffffffff\n      and\n        /* \"contracts/EvolveStorage.sol\":980:987  owner() */\n      tag_151\n        /* \"contracts/EvolveStorage.sol\":980:985  owner */\n      tag_59\n        /* \"contracts/EvolveStorage.sol\":980:987  owner() */\n      jump\t// in\n    tag_151:\n        /* \"contracts/EvolveStorage.sol\":980:1000  owner() == tx.origin */\n      0xffffffffffffffffffffffffffffffffffffffff\n      and\n      eq\n        /* \"contracts/EvolveStorage.sol\":920:1000  _msgSender() == factoryAddrss || _msgSender() == owner() || owner() == tx.origin */\n    tag_150:\n        /* \"contracts/EvolveStorage.sol\":912:1059  require(_msgSender() == factoryAddrss || _msgSender() == owner() || owner() == tx.origin , \"To call this method you have to be owner or subAdmin!\") */\n      tag_152\n      jumpi\n      mload(0x40)\n      0x08c379a000000000000000000000000000000000000000000000000000000000\n      dup2\n      mstore\n      0x04\n      add\n      tag_153\n      swap1\n      tag_92\n      jump\t// in\n    tag_153:\n      mload(0x40)\n      dup1\n      swap2\n      sub\n      swap1\n      revert\n    tag_152:\n        /* \"contracts/EvolveStorage.sol\":3300:3329  isExistsPresetList(_presetId) */\n      tag_155\n        /* \"contracts/EvolveStorage.sol\":3319:3328  _presetId */\n      dup9\n        /* \"contracts/EvolveStorage.sol\":3300:3318  isExistsPresetList */\n      tag_156\n        /* \"contracts/EvolveStorage.sol\":3300:3329  isExistsPresetList(_presetId) */\n      jump\t// in\n    tag_155:\n        /* \"contracts/EvolveStorage.sol\":3292:3365  require(isExistsPresetList(_presetId), \"can't find preset with this id!\") */\n      tag_157\n      jumpi\n      mload(0x40)\n      0x08c379a000000000000000000000000000000000000000000000000000000000\n      dup2\n      mstore\n      0x04\n      add\n      tag_158\n      swap1\n      tag_159\n      jump\t// in\n    tag_158:\n      mload(0x40)\n      dup1\n      swap2\n      sub\n      swap1\n      revert\n    tag_157:\n        /* \"contracts/EvolveStorage.sol\":3411:3528  Competion(presetList[_presetId],_teamA, _teamB, CompetionStatus.PENDING, CompetionWinner.OPEN, _priceRate, _createAt) */\n      mload(0x40)\n      dup1\n      0xe0\n      add\n      0x40\n      mstore\n      dup1\n        /* \"contracts/EvolveStorage.sol\":3421:3431  presetList */\n      0x04\n        /* \"contracts/EvolveStorage.sol\":3421:3442  presetList[_presetId] */\n      0x00\n        /* \"contracts/EvolveStorage.sol\":3432:3441  _presetId */\n      dup12\n        /* \"contracts/EvolveStorage.sol\":3421:3442  presetList[_presetId] */\n      dup2\n      mstore\n      0x20\n      add\n      swap1\n      dup2\n      mstore\n      0x20\n      add\n      0x00\n      keccak256\n        /* \"contracts/EvolveStorage.sol\":3411:3528  Competion(presetList[_presetId],_teamA, _teamB, CompetionStatus.PENDING, CompetionWinner.OPEN, _priceRate, _createAt) */\n      mload(0x40)\n      dup1\n      0x80\n      add\n      0x40\n      mstore\n      swap1\n      dup2\n      0x00\n      dup3\n      add\n      sload\n      dup2\n      mstore\n      0x20\n      add\n      0x01\n      dup3\n      add\n      sload\n      dup2\n      mstore\n      0x20\n      add\n      0x02\n      dup3\n      add\n      sload\n      dup2\n      mstore\n      0x20\n      add\n      0x03\n      dup3\n      add\n      sload\n      dup2\n      mstore\n      pop\n      pop\n      dup2\n      mstore\n      0x20\n      add\n        /* \"contracts/EvolveStorage.sol\":3443:3449  _teamA */\n      dup9\n      dup9\n        /* \"contracts/EvolveStorage.sol\":3411:3528  Competion(presetList[_presetId],_teamA, _teamB, CompetionStatus.PENDING, CompetionWinner.OPEN, _priceRate, _createAt) */\n      dup1\n      dup1\n      0x20\n      mul\n      0x20\n      add\n      mload(0x40)\n      swap1\n      dup2\n      add\n      0x40\n      mstore\n      dup1\n      swap4\n      swap3\n      swap2\n      swap1\n      dup2\n      dup2\n      mstore\n      0x20\n      add\n      dup4\n      dup4\n      0x20\n      mul\n      dup1\n      dup3\n      dup5\n      calldatacopy\n      0x00\n      dup2\n      dup5\n      add\n      mstore\n      not(0x1f)\n      0x1f\n      dup3\n      add\n      and\n      swap1\n      pop\n      dup1\n      dup4\n      add\n      swap3\n      pop\n      pop\n      pop\n      pop\n      pop\n      pop\n      pop\n      dup2\n      mstore\n      0x20\n      add\n        /* \"contracts/EvolveStorage.sol\":3451:3457  _teamB */\n      dup7\n      dup7\n        /* \"contracts/EvolveStorage.sol\":3411:3528  Competion(presetList[_presetId],_teamA, _teamB, CompetionStatus.PENDING, CompetionWinner.OPEN, _priceRate, _createAt) */\n      dup1\n      dup1\n      0x20\n      mul\n      0x20\n      add\n      mload(0x40)\n      swap1\n      dup2\n      add\n      0x40\n      mstore\n      dup1\n      swap4\n      swap3\n      swap2\n      swap1\n      dup2\n      dup2\n      mstore\n      0x20\n      add\n      dup4\n      dup4\n      0x20\n      mul\n      dup1\n      dup3\n      dup5\n      calldatacopy\n      0x00\n      dup2\n      dup5\n      add\n      mstore\n      not(0x1f)\n      0x1f\n      dup3\n      add\n      and\n      swap1\n      pop\n      dup1\n      dup4\n      add\n      swap3\n      pop\n      pop\n      pop\n      pop\n      pop\n      pop\n      pop\n      dup2\n      mstore\n      0x20\n      add\n        /* \"contracts/EvolveStorage.sol\":3459:3482  CompetionStatus.PENDING */\n      0x00\n        /* \"contracts/EvolveStorage.sol\":3411:3528  Competion(presetList[_presetId],_teamA, _teamB, CompetionStatus.PENDING, CompetionWinner.OPEN, _priceRate, _createAt) */\n      0x02\n      dup2\n      gt\n      iszero\n      tag_160\n      jumpi\n      tag_161\n      tag_106\n      jump\t// in\n    tag_161:\n    tag_160:\n      dup2\n      mstore\n      0x20\n      add\n        /* \"contracts/EvolveStorage.sol\":3484:3504  CompetionWinner.OPEN */\n      0x03\n        /* \"contracts/EvolveStorage.sol\":3411:3528  Competion(presetList[_presetId],_teamA, _teamB, CompetionStatus.PENDING, CompetionWinner.OPEN, _priceRate, _createAt) */\n      dup1\n      dup2\n      gt\n      iszero\n      tag_162\n      jumpi\n      tag_163\n      tag_106\n      jump\t// in\n    tag_163:\n    tag_162:\n      dup2\n      mstore\n      0x20\n      add\n        /* \"contracts/EvolveStorage.sol\":3506:3516  _priceRate */\n      dup5\n        /* \"contracts/EvolveStorage.sol\":3411:3528  Competion(presetList[_presetId],_teamA, _teamB, CompetionStatus.PENDING, CompetionWinner.OPEN, _priceRate, _createAt) */\n      dup2\n      mstore\n      0x20\n      add\n        /* \"contracts/EvolveStorage.sol\":3518:3527  _createAt */\n      dup4\n        /* \"contracts/EvolveStorage.sol\":3411:3528  Competion(presetList[_presetId],_teamA, _teamB, CompetionStatus.PENDING, CompetionWinner.OPEN, _priceRate, _createAt) */\n      dup2\n      mstore\n      pop\n        /* \"contracts/EvolveStorage.sol\":3375:3388  competionList */\n      0x05\n        /* \"contracts/EvolveStorage.sol\":3375:3408  competionList[startCompetitionId] */\n      0x00\n        /* \"contracts/EvolveStorage.sol\":3389:3407  startCompetitionId */\n      sload(0x02)\n        /* \"contracts/EvolveStorage.sol\":3375:3408  competionList[startCompetitionId] */\n      dup2\n      mstore\n      0x20\n      add\n      swap1\n      dup2\n      mstore\n      0x20\n      add\n      0x00\n      keccak256\n        /* \"contracts/EvolveStorage.sol\":3375:3528  competionList[startCompetitionId] = Competion(presetList[_presetId],_teamA, _teamB, CompetionStatus.PENDING, CompetionWinner.OPEN, _priceRate, _createAt) */\n      0x00\n      dup3\n      add\n      mload\n      dup2\n      0x00\n      add\n      0x00\n      dup3\n      add\n      mload\n      dup2\n      0x00\n      add\n      sstore\n      0x20\n      dup3\n      add\n      mload\n      dup2\n      0x01\n      add\n      sstore\n      0x40\n      dup3\n      add\n      mload\n      dup2\n      0x02\n      add\n      sstore\n      0x60\n      dup3\n      add\n      mload\n      dup2\n      0x03\n      add\n      sstore\n      pop\n      pop\n      0x20\n      dup3\n      add\n      mload\n      dup2\n      0x04\n      add\n      swap1\n      dup1\n      mload\n      swap1\n      0x20\n      add\n      swap1\n      tag_164\n      swap3\n      swap2\n      swap1\n      tag_165\n      jump\t// in\n    tag_164:\n      pop\n      0x40\n      dup3\n      add\n      mload\n      dup2\n      0x05\n      add\n      swap1\n      dup1\n      mload\n      swap1\n      0x20\n      add\n      swap1\n      tag_166\n      swap3\n      swap2\n      swap1\n      tag_165\n      jump\t// in\n    tag_166:\n      pop\n      0x60\n      dup3\n      add\n      mload\n      dup2\n      0x06\n      add\n      exp(0x0100, 0x00)\n      dup2\n      sload\n      dup2\n      0xff\n      mul\n      not\n      and\n      swap1\n      dup4\n      0x02\n      dup2\n      gt\n      iszero\n      tag_167\n      jumpi\n      tag_168\n      tag_106\n      jump\t// in\n    tag_168:\n    tag_167:\n      mul\n      or\n      swap1\n      sstore\n      pop\n      0x80\n      dup3\n      add\n      mload\n      dup2\n      0x06\n      add\n      exp(0x0100, 0x01)\n      dup2\n      sload\n      dup2\n      0xff\n      mul\n      not\n      and\n      swap1\n      dup4\n      0x03\n      dup2\n      gt\n      iszero\n      tag_169\n      jumpi\n      tag_170\n      tag_106\n      jump\t// in\n    tag_170:\n    tag_169:\n      mul\n      or\n      swap1\n      sstore\n      pop\n      0xa0\n      dup3\n      add\n      mload\n      dup2\n      0x07\n      add\n      sstore\n      0xc0\n      dup3\n      add\n      mload\n      dup2\n      0x08\n      add\n      sstore\n      swap1\n      pop\n      pop\n        /* \"contracts/EvolveStorage.sol\":3538:3560  uint256 resCompetionId */\n      0x00\n        /* \"contracts/EvolveStorage.sol\":3563:3581  startCompetitionId */\n      sload(0x02)\n        /* \"contracts/EvolveStorage.sol\":3538:3581  uint256 resCompetionId = startCompetitionId */\n      swap1\n      pop\n        /* \"contracts/EvolveStorage.sol\":3613:3614  1 */\n      0x01\n        /* \"contracts/EvolveStorage.sol\":3591:3609  startCompetitionId */\n      0x02\n      0x00\n        /* \"contracts/EvolveStorage.sol\":3591:3614  startCompetitionId += 1 */\n      dup3\n      dup3\n      sload\n      tag_171\n      swap2\n      swap1\n      tag_144\n      jump\t// in\n    tag_171:\n      swap3\n      pop\n      pop\n      dup2\n      swap1\n      sstore\n      pop\n        /* \"contracts/EvolveStorage.sol\":3631:3645  resCompetionId */\n      dup1\n        /* \"contracts/EvolveStorage.sol\":3624:3645  return resCompetionId */\n      swap2\n      pop\n      pop\n        /* \"contracts/EvolveStorage.sol\":3087:3652  function addNewCompetion(uint256 _presetId, address[] calldata _teamA, address[] calldata _teamB, uint256 _priceRate, uint256 _createAt) external override ownerOrFactory returns(uint competionId){... */\n      swap8\n      swap7\n      pop\n      pop\n      pop\n      pop\n      pop\n      pop\n      pop\n      jump\t// out\n        /* \"@openzeppelin/contracts/access/Ownable.sol\":1036:1121  function owner() public view virtual returns (address) {... */\n    tag_59:\n        /* \"@openzeppelin/contracts/access/Ownable.sol\":1082:1089  address */\n      0x00\n        /* \"@openzeppelin/contracts/access/Ownable.sol\":1108:1114  _owner */\n      dup1\n      0x00\n      swap1\n      sload\n      swap1\n      0x0100\n      exp\n      swap1\n      div\n      0xffffffffffffffffffffffffffffffffffffffff\n      and\n        /* \"@openzeppelin/contracts/access/Ownable.sol\":1101:1114  return _owner */\n      swap1\n      pop\n        /* \"@openzeppelin/contracts/access/Ownable.sol\":1036:1121  function owner() public view virtual returns (address) {... */\n      swap1\n      jump\t// out\n        /* \"contracts/EvolveStorage.sol\":1567:2352  function updateCompetionWinner(uint _competionId, uint8 _winnerTeam) external override ownerOrFactory returns(bool){... */\n    tag_64:\n        /* \"contracts/EvolveStorage.sol\":1677:1681  bool */\n      0x00\n        /* \"contracts/EvolveStorage.sol\":936:949  factoryAddrss */\n      0x01\n      0x00\n      swap1\n      sload\n      swap1\n      0x0100\n      exp\n      swap1\n      div\n      0xffffffffffffffffffffffffffffffffffffffff\n      and\n        /* \"contracts/EvolveStorage.sol\":920:949  _msgSender() == factoryAddrss */\n      0xffffffffffffffffffffffffffffffffffffffff\n      and\n        /* \"contracts/EvolveStorage.sol\":920:932  _msgSender() */\n      tag_174\n        /* \"contracts/EvolveStorage.sol\":920:930  _msgSender */\n      tag_84\n        /* \"contracts/EvolveStorage.sol\":920:932  _msgSender() */\n      jump\t// in\n    tag_174:\n        /* \"contracts/EvolveStorage.sol\":920:949  _msgSender() == factoryAddrss */\n      0xffffffffffffffffffffffffffffffffffffffff\n      and\n      eq\n        /* \"contracts/EvolveStorage.sol\":920:976  _msgSender() == factoryAddrss || _msgSender() == owner() */\n      dup1\n      tag_175\n      jumpi\n      pop\n        /* \"contracts/EvolveStorage.sol\":969:976  owner() */\n      tag_176\n        /* \"contracts/EvolveStorage.sol\":969:974  owner */\n      tag_59\n        /* \"contracts/EvolveStorage.sol\":969:976  owner() */\n      jump\t// in\n    tag_176:\n        /* \"contracts/EvolveStorage.sol\":953:976  _msgSender() == owner() */\n      0xffffffffffffffffffffffffffffffffffffffff\n      and\n        /* \"contracts/EvolveStorage.sol\":953:965  _msgSender() */\n      tag_177\n        /* \"contracts/EvolveStorage.sol\":953:963  _msgSender */\n      tag_84\n        /* \"contracts/EvolveStorage.sol\":953:965  _msgSender() */\n      jump\t// in\n    tag_177:\n        /* \"contracts/EvolveStorage.sol\":953:976  _msgSender() == owner() */\n      0xffffffffffffffffffffffffffffffffffffffff\n      and\n      eq\n        /* \"contracts/EvolveStorage.sol\":920:976  _msgSender() == factoryAddrss || _msgSender() == owner() */\n    tag_175:\n        /* \"contracts/EvolveStorage.sol\":920:1000  _msgSender() == factoryAddrss || _msgSender() == owner() || owner() == tx.origin */\n      dup1\n      tag_178\n      jumpi\n      pop\n        /* \"contracts/EvolveStorage.sol\":991:1000  tx.origin */\n      origin\n        /* \"contracts/EvolveStorage.sol\":980:1000  owner() == tx.origin */\n      0xffffffffffffffffffffffffffffffffffffffff\n      and\n        /* \"contracts/EvolveStorage.sol\":980:987  owner() */\n      tag_179\n        /* \"contracts/EvolveStorage.sol\":980:985  owner */\n      tag_59\n        /* \"contracts/EvolveStorage.sol\":980:987  owner() */\n      jump\t// in\n    tag_179:\n        /* \"contracts/EvolveStorage.sol\":980:1000  owner() == tx.origin */\n      0xffffffffffffffffffffffffffffffffffffffff\n      and\n      eq\n        /* \"contracts/EvolveStorage.sol\":920:1000  _msgSender() == factoryAddrss || _msgSender() == owner() || owner() == tx.origin */\n    tag_178:\n        /* \"contracts/EvolveStorage.sol\":912:1059  require(_msgSender() == factoryAddrss || _msgSender() == owner() || owner() == tx.origin , \"To call this method you have to be owner or subAdmin!\") */\n      tag_180\n      jumpi\n      mload(0x40)\n      0x08c379a000000000000000000000000000000000000000000000000000000000\n      dup2\n      mstore\n      0x04\n      add\n      tag_181\n      swap1\n      tag_92\n      jump\t// in\n    tag_181:\n      mload(0x40)\n      dup1\n      swap2\n      sub\n      swap1\n      revert\n    tag_180:\n        /* \"contracts/EvolveStorage.sol\":1700:1735  isExistsCompetionList(_competionId) */\n      tag_183\n        /* \"contracts/EvolveStorage.sol\":1722:1734  _competionId */\n      dup4\n        /* \"contracts/EvolveStorage.sol\":1700:1721  isExistsCompetionList */\n      tag_95\n        /* \"contracts/EvolveStorage.sol\":1700:1735  isExistsCompetionList(_competionId) */\n      jump\t// in\n    tag_183:\n        /* \"contracts/EvolveStorage.sol\":1692:1783  require(isExistsCompetionList(_competionId), \"can't find competion with this competionId!\") */\n      tag_184\n      jumpi\n      mload(0x40)\n      0x08c379a000000000000000000000000000000000000000000000000000000000\n      dup2\n      mstore\n      0x04\n      add\n      tag_185\n      swap1\n      tag_98\n      jump\t// in\n    tag_185:\n      mload(0x40)\n      dup1\n      swap2\n      sub\n      swap1\n      revert\n    tag_184:\n        /* \"contracts/EvolveStorage.sol\":1816:1817  0 */\n      0x00\n        /* \"contracts/EvolveStorage.sol\":1801:1812  _winnerTeam */\n      dup3\n        /* \"contracts/EvolveStorage.sol\":1801:1817  _winnerTeam >= 0 */\n      0xff\n      and\n      lt\n      iszero\n        /* \"contracts/EvolveStorage.sol\":1801:1837  _winnerTeam >= 0 && _winnerTeam <= 3 */\n      dup1\n      iszero\n      tag_186\n      jumpi\n      pop\n        /* \"contracts/EvolveStorage.sol\":1836:1837  3 */\n      0x03\n        /* \"contracts/EvolveStorage.sol\":1821:1832  _winnerTeam */\n      dup3\n        /* \"contracts/EvolveStorage.sol\":1821:1837  _winnerTeam <= 3 */\n      0xff\n      and\n      gt\n      iszero\n        /* \"contracts/EvolveStorage.sol\":1801:1837  _winnerTeam >= 0 && _winnerTeam <= 3 */\n    tag_186:\n        /* \"contracts/EvolveStorage.sol\":1793:1882  require(_winnerTeam >= 0 && _winnerTeam <= 3, \"winner need to be somting between 0 to 3\") */\n      tag_187\n      jumpi\n      mload(0x40)\n      0x08c379a000000000000000000000000000000000000000000000000000000000\n      dup2\n      mstore\n      0x04\n      add\n      tag_188\n      swap1\n      tag_189\n      jump\t// in\n    tag_188:\n      mload(0x40)\n      dup1\n      swap2\n      sub\n      swap1\n      revert\n    tag_187:\n        /* \"contracts/EvolveStorage.sol\":1892:1919  Competion storage competion */\n      0x00\n        /* \"contracts/EvolveStorage.sol\":1922:1935  competionList */\n      0x05\n        /* \"contracts/EvolveStorage.sol\":1922:1949  competionList[_competionId] */\n      0x00\n        /* \"contracts/EvolveStorage.sol\":1936:1948  _competionId */\n      dup6\n        /* \"contracts/EvolveStorage.sol\":1922:1949  competionList[_competionId] */\n      dup2\n      mstore\n      0x20\n      add\n      swap1\n      dup2\n      mstore\n      0x20\n      add\n      0x00\n      keccak256\n        /* \"contracts/EvolveStorage.sol\":1892:1949  Competion storage competion = competionList[_competionId] */\n      swap1\n      pop\n        /* \"contracts/EvolveStorage.sol\":1977:1978  0 */\n      0x00\n        /* \"contracts/EvolveStorage.sol\":1962:1973  _winnerTeam */\n      dup4\n        /* \"contracts/EvolveStorage.sol\":1962:1978  _winnerTeam == 0 */\n      0xff\n      and\n      eq\n        /* \"contracts/EvolveStorage.sol\":1959:2316  if(_winnerTeam == 0){... */\n      iszero\n      tag_190\n      jumpi\n        /* \"contracts/EvolveStorage.sol\":2013:2034  CompetionWinner.TEAMA */\n      0x00\n        /* \"contracts/EvolveStorage.sol\":1993:2002  competion */\n      dup2\n        /* \"contracts/EvolveStorage.sol\":1993:2010  competion.winners */\n      0x06\n      add\n      0x01\n        /* \"contracts/EvolveStorage.sol\":1993:2034  competion.winners = CompetionWinner.TEAMA */\n      0x0100\n      exp\n      dup2\n      sload\n      dup2\n      0xff\n      mul\n      not\n      and\n      swap1\n      dup4\n      0x03\n      dup2\n      gt\n      iszero\n      tag_191\n      jumpi\n      tag_192\n      tag_106\n      jump\t// in\n    tag_192:\n    tag_191:\n      mul\n      or\n      swap1\n      sstore\n      pop\n        /* \"contracts/EvolveStorage.sol\":1959:2316  if(_winnerTeam == 0){... */\n      jump(tag_193)\n    tag_190:\n        /* \"contracts/EvolveStorage.sol\":2068:2069  1 */\n      0x01\n        /* \"contracts/EvolveStorage.sol\":2053:2064  _winnerTeam */\n      dup4\n        /* \"contracts/EvolveStorage.sol\":2053:2069  _winnerTeam == 1 */\n      0xff\n      and\n      eq\n        /* \"contracts/EvolveStorage.sol\":2050:2316  if(_winnerTeam == 1){... */\n      iszero\n      tag_194\n      jumpi\n        /* \"contracts/EvolveStorage.sol\":2104:2125  CompetionWinner.TEAMB */\n      0x01\n        /* \"contracts/EvolveStorage.sol\":2084:2093  competion */\n      dup2\n        /* \"contracts/EvolveStorage.sol\":2084:2101  competion.winners */\n      0x06\n      add\n      0x01\n        /* \"contracts/EvolveStorage.sol\":2084:2125  competion.winners = CompetionWinner.TEAMB */\n      0x0100\n      exp\n      dup2\n      sload\n      dup2\n      0xff\n      mul\n      not\n      and\n      swap1\n      dup4\n      0x03\n      dup2\n      gt\n      iszero\n      tag_195\n      jumpi\n      tag_196\n      tag_106\n      jump\t// in\n    tag_196:\n    tag_195:\n      mul\n      or\n      swap1\n      sstore\n      pop\n        /* \"contracts/EvolveStorage.sol\":2050:2316  if(_winnerTeam == 1){... */\n      jump(tag_197)\n    tag_194:\n        /* \"contracts/EvolveStorage.sol\":2159:2160  2 */\n      0x02\n        /* \"contracts/EvolveStorage.sol\":2144:2155  _winnerTeam */\n      dup4\n        /* \"contracts/EvolveStorage.sol\":2144:2160  _winnerTeam == 2 */\n      0xff\n      and\n      eq\n        /* \"contracts/EvolveStorage.sol\":2141:2316  if(_winnerTeam == 2){... */\n      iszero\n      tag_198\n      jumpi\n        /* \"contracts/EvolveStorage.sol\":2195:2215  CompetionWinner.DRAW */\n      0x02\n        /* \"contracts/EvolveStorage.sol\":2175:2184  competion */\n      dup2\n        /* \"contracts/EvolveStorage.sol\":2175:2192  competion.winners */\n      0x06\n      add\n      0x01\n        /* \"contracts/EvolveStorage.sol\":2175:2215  competion.winners = CompetionWinner.DRAW */\n      0x0100\n      exp\n      dup2\n      sload\n      dup2\n      0xff\n      mul\n      not\n      and\n      swap1\n      dup4\n      0x03\n      dup2\n      gt\n      iszero\n      tag_199\n      jumpi\n      tag_200\n      tag_106\n      jump\t// in\n    tag_200:\n    tag_199:\n      mul\n      or\n      swap1\n      sstore\n      pop\n        /* \"contracts/EvolveStorage.sol\":2141:2316  if(_winnerTeam == 2){... */\n      jump(tag_201)\n    tag_198:\n        /* \"contracts/EvolveStorage.sol\":2249:2250  3 */\n      0x03\n        /* \"contracts/EvolveStorage.sol\":2234:2245  _winnerTeam */\n      dup4\n        /* \"contracts/EvolveStorage.sol\":2234:2250  _winnerTeam == 3 */\n      0xff\n      and\n      eq\n        /* \"contracts/EvolveStorage.sol\":2231:2316  if(_winnerTeam == 3){... */\n      iszero\n      tag_202\n      jumpi\n        /* \"contracts/EvolveStorage.sol\":2285:2305  CompetionWinner.OPEN */\n      0x03\n        /* \"contracts/EvolveStorage.sol\":2265:2274  competion */\n      dup2\n        /* \"contracts/EvolveStorage.sol\":2265:2282  competion.winners */\n      0x06\n      add\n      0x01\n        /* \"contracts/EvolveStorage.sol\":2265:2305  competion.winners = CompetionWinner.OPEN */\n      0x0100\n      exp\n      dup2\n      sload\n      dup2\n      0xff\n      mul\n      not\n      and\n      swap1\n      dup4\n      0x03\n      dup2\n      gt\n      iszero\n      tag_203\n      jumpi\n      tag_204\n      tag_106\n      jump\t// in\n    tag_204:\n    tag_203:\n      mul\n      or\n      swap1\n      sstore\n      pop\n        /* \"contracts/EvolveStorage.sol\":2231:2316  if(_winnerTeam == 3){... */\n    tag_202:\n        /* \"contracts/EvolveStorage.sol\":2141:2316  if(_winnerTeam == 2){... */\n    tag_201:\n        /* \"contracts/EvolveStorage.sol\":2050:2316  if(_winnerTeam == 1){... */\n    tag_197:\n        /* \"contracts/EvolveStorage.sol\":1959:2316  if(_winnerTeam == 0){... */\n    tag_193:\n        /* \"contracts/EvolveStorage.sol\":2341:2345  true */\n      0x01\n        /* \"contracts/EvolveStorage.sol\":2334:2345  return true */\n      swap2\n      pop\n      pop\n        /* \"contracts/EvolveStorage.sol\":1567:2352  function updateCompetionWinner(uint _competionId, uint8 _winnerTeam) external override ownerOrFactory returns(bool){... */\n      swap3\n      swap2\n      pop\n      pop\n      jump\t// out\n        /* \"contracts/EvolveStorage.sol\":4445:4657  function getPreset(uint256 _presetId) external view override returns(uint256 matchPrice,uint256 numberOfTeamMemebr){... */\n    tag_68:\n        /* \"contracts/EvolveStorage.sol\":4514:4532  uint256 matchPrice */\n      0x00\n        /* \"contracts/EvolveStorage.sol\":4533:4559  uint256 numberOfTeamMemebr */\n      dup1\n        /* \"contracts/EvolveStorage.sol\":4575:4585  presetList */\n      0x04\n        /* \"contracts/EvolveStorage.sol\":4575:4596  presetList[_presetId] */\n      0x00\n        /* \"contracts/EvolveStorage.sol\":4586:4595  _presetId */\n      dup5\n        /* \"contracts/EvolveStorage.sol\":4575:4596  presetList[_presetId] */\n      dup2\n      mstore\n      0x20\n      add\n      swap1\n      dup2\n      mstore\n      0x20\n      add\n      0x00\n      keccak256\n        /* \"contracts/EvolveStorage.sol\":4575:4607  presetList[_presetId].matchPrice */\n      0x00\n      add\n      sload\n        /* \"contracts/EvolveStorage.sol\":4609:4619  presetList */\n      0x04\n        /* \"contracts/EvolveStorage.sol\":4609:4630  presetList[_presetId] */\n      0x00\n        /* \"contracts/EvolveStorage.sol\":4620:4629  _presetId */\n      dup6\n        /* \"contracts/EvolveStorage.sol\":4609:4630  presetList[_presetId] */\n      dup2\n      mstore\n      0x20\n      add\n      swap1\n      dup2\n      mstore\n      0x20\n      add\n      0x00\n      keccak256\n        /* \"contracts/EvolveStorage.sol\":4609:4649  presetList[_presetId].numberOfTeamMemebr */\n      0x01\n      add\n      sload\n        /* \"contracts/EvolveStorage.sol\":4567:4650  return (presetList[_presetId].matchPrice, presetList[_presetId].numberOfTeamMemebr) */\n      swap2\n      pop\n      swap2\n      pop\n        /* \"contracts/EvolveStorage.sol\":4445:4657  function getPreset(uint256 _presetId) external view override returns(uint256 matchPrice,uint256 numberOfTeamMemebr){... */\n      swap2\n      pop\n      swap2\n      jump\t// out\n        /* \"contracts/EvolveStorage.sol\":401:429  address public factoryAddrss */\n    tag_72:\n      0x01\n      0x00\n      swap1\n      sload\n      swap1\n      0x0100\n      exp\n      swap1\n      div\n      0xffffffffffffffffffffffffffffffffffffffff\n      and\n      dup2\n      jump\t// out\n        /* \"contracts/EvolveStorage.sol\":4663:5396  function getCompetion(uint256 _competionId) external view override ... */\n    tag_76:\n        /* \"contracts/EvolveStorage.sol\":4747:4766  uint256 presetPrice */\n      0x00\n        /* \"contracts/EvolveStorage.sol\":4767:4786  uint256 playerCount */\n      dup1\n        /* \"contracts/EvolveStorage.sol\":4787:4810  address[] memory _teamA */\n      0x60\n        /* \"contracts/EvolveStorage.sol\":4812:4835  address[] memory _teamB */\n      dup1\n        /* \"contracts/EvolveStorage.sol\":4837:4858  uint _competionStatus */\n      0x00\n        /* \"contracts/EvolveStorage.sol\":4860:4881  uint _competionWinner */\n      dup1\n        /* \"contracts/EvolveStorage.sol\":4883:4901  uint256 _priceRate */\n      0x00\n        /* \"contracts/EvolveStorage.sol\":4912:4941  Preset memory competionPreset */\n      dup1\n        /* \"contracts/EvolveStorage.sol\":4944:4957  competionList */\n      0x05\n        /* \"contracts/EvolveStorage.sol\":4944:4971  competionList[_competionId] */\n      0x00\n        /* \"contracts/EvolveStorage.sol\":4958:4970  _competionId */\n      dup11\n        /* \"contracts/EvolveStorage.sol\":4944:4971  competionList[_competionId] */\n      dup2\n      mstore\n      0x20\n      add\n      swap1\n      dup2\n      mstore\n      0x20\n      add\n      0x00\n      keccak256\n        /* \"contracts/EvolveStorage.sol\":4944:4978  competionList[_competionId].preset */\n      0x00\n      add\n        /* \"contracts/EvolveStorage.sol\":4912:4978  Preset memory competionPreset = competionList[_competionId].preset */\n      mload(0x40)\n      dup1\n      0x80\n      add\n      0x40\n      mstore\n      swap1\n      dup2\n      0x00\n      dup3\n      add\n      sload\n      dup2\n      mstore\n      0x20\n      add\n      0x01\n      dup3\n      add\n      sload\n      dup2\n      mstore\n      0x20\n      add\n      0x02\n      dup3\n      add\n      sload\n      dup2\n      mstore\n      0x20\n      add\n      0x03\n      dup3\n      add\n      sload\n      dup2\n      mstore\n      pop\n      pop\n      swap1\n      pop\n        /* \"contracts/EvolveStorage.sol\":5002:5017  competionPreset */\n      dup1\n        /* \"contracts/EvolveStorage.sol\":5002:5028  competionPreset.matchPrice */\n      0x00\n      add\n      mload\n        /* \"contracts/EvolveStorage.sol\":4988:5028  presetPrice = competionPreset.matchPrice */\n      swap8\n      pop\n        /* \"contracts/EvolveStorage.sol\":5052:5067  competionPreset */\n      dup1\n        /* \"contracts/EvolveStorage.sol\":5052:5086  competionPreset.numberOfTeamMemebr */\n      0x20\n      add\n      mload\n        /* \"contracts/EvolveStorage.sol\":5038:5086  playerCount = competionPreset.numberOfTeamMemebr */\n      swap7\n      pop\n        /* \"contracts/EvolveStorage.sol\":5105:5118  competionList */\n      0x05\n        /* \"contracts/EvolveStorage.sol\":5105:5132  competionList[_competionId] */\n      0x00\n        /* \"contracts/EvolveStorage.sol\":5119:5131  _competionId */\n      dup11\n        /* \"contracts/EvolveStorage.sol\":5105:5132  competionList[_competionId] */\n      dup2\n      mstore\n      0x20\n      add\n      swap1\n      dup2\n      mstore\n      0x20\n      add\n      0x00\n      keccak256\n        /* \"contracts/EvolveStorage.sol\":5105:5138  competionList[_competionId].teamA */\n      0x04\n      add\n        /* \"contracts/EvolveStorage.sol\":5096:5138  _teamA = competionList[_competionId].teamA */\n      dup1\n      sload\n      dup1\n      0x20\n      mul\n      0x20\n      add\n      mload(0x40)\n      swap1\n      dup2\n      add\n      0x40\n      mstore\n      dup1\n      swap3\n      swap2\n      swap1\n      dup2\n      dup2\n      mstore\n      0x20\n      add\n      dup3\n      dup1\n      sload\n      dup1\n      iszero\n      tag_207\n      jumpi\n      0x20\n      mul\n      dup3\n      add\n      swap2\n      swap1\n      0x00\n      mstore\n      keccak256(0x00, 0x20)\n      swap1\n    tag_208:\n      dup2\n      0x00\n      swap1\n      sload\n      swap1\n      0x0100\n      exp\n      swap1\n      div\n      0xffffffffffffffffffffffffffffffffffffffff\n      and\n      0xffffffffffffffffffffffffffffffffffffffff\n      and\n      dup2\n      mstore\n      0x20\n      add\n      swap1\n      0x01\n      add\n      swap1\n      dup1\n      dup4\n      gt\n      tag_208\n      jumpi\n    tag_207:\n      pop\n      pop\n      pop\n      pop\n      pop\n      swap6\n      pop\n        /* \"contracts/EvolveStorage.sol\":5157:5170  competionList */\n      0x05\n        /* \"contracts/EvolveStorage.sol\":5157:5184  competionList[_competionId] */\n      0x00\n        /* \"contracts/EvolveStorage.sol\":5171:5183  _competionId */\n      dup11\n        /* \"contracts/EvolveStorage.sol\":5157:5184  competionList[_competionId] */\n      dup2\n      mstore\n      0x20\n      add\n      swap1\n      dup2\n      mstore\n      0x20\n      add\n      0x00\n      keccak256\n        /* \"contracts/EvolveStorage.sol\":5157:5190  competionList[_competionId].teamB */\n      0x05\n      add\n        /* \"contracts/EvolveStorage.sol\":5148:5190  _teamB = competionList[_competionId].teamB */\n      dup1\n      sload\n      dup1\n      0x20\n      mul\n      0x20\n      add\n      mload(0x40)\n      swap1\n      dup2\n      add\n      0x40\n      mstore\n      dup1\n      swap3\n      swap2\n      swap1\n      dup2\n      dup2\n      mstore\n      0x20\n      add\n      dup3\n      dup1\n      sload\n      dup1\n      iszero\n      tag_209\n      jumpi\n      0x20\n      mul\n      dup3\n      add\n      swap2\n      swap1\n      0x00\n      mstore\n      keccak256(0x00, 0x20)\n      swap1\n    tag_210:\n      dup2\n      0x00\n      swap1\n      sload\n      swap1\n      0x0100\n      exp\n      swap1\n      div\n      0xffffffffffffffffffffffffffffffffffffffff\n      and\n      0xffffffffffffffffffffffffffffffffffffffff\n      and\n      dup2\n      mstore\n      0x20\n      add\n      swap1\n      0x01\n      add\n      swap1\n      dup1\n      dup4\n      gt\n      tag_210\n      jumpi\n    tag_209:\n      pop\n      pop\n      pop\n      pop\n      pop\n      swap5\n      pop\n        /* \"contracts/EvolveStorage.sol\":5224:5237  competionList */\n      0x05\n        /* \"contracts/EvolveStorage.sol\":5224:5251  competionList[_competionId] */\n      0x00\n        /* \"contracts/EvolveStorage.sol\":5238:5250  _competionId */\n      dup11\n        /* \"contracts/EvolveStorage.sol\":5224:5251  competionList[_competionId] */\n      dup2\n      mstore\n      0x20\n      add\n      swap1\n      dup2\n      mstore\n      0x20\n      add\n      0x00\n      keccak256\n        /* \"contracts/EvolveStorage.sol\":5224:5258  competionList[_competionId].status */\n      0x06\n      add\n      0x00\n      swap1\n      sload\n      swap1\n      0x0100\n      exp\n      swap1\n      div\n      0xff\n      and\n        /* \"contracts/EvolveStorage.sol\":5219:5259  uint(competionList[_competionId].status) */\n      0x02\n      dup2\n      gt\n      iszero\n      tag_211\n      jumpi\n      tag_212\n      tag_106\n      jump\t// in\n    tag_212:\n    tag_211:\n        /* \"contracts/EvolveStorage.sol\":5200:5259  _competionStatus = uint(competionList[_competionId].status) */\n      swap4\n      pop\n        /* \"contracts/EvolveStorage.sol\":5293:5306  competionList */\n      0x05\n        /* \"contracts/EvolveStorage.sol\":5293:5320  competionList[_competionId] */\n      0x00\n        /* \"contracts/EvolveStorage.sol\":5307:5319  _competionId */\n      dup11\n        /* \"contracts/EvolveStorage.sol\":5293:5320  competionList[_competionId] */\n      dup2\n      mstore\n      0x20\n      add\n      swap1\n      dup2\n      mstore\n      0x20\n      add\n      0x00\n      keccak256\n        /* \"contracts/EvolveStorage.sol\":5293:5328  competionList[_competionId].winners */\n      0x06\n      add\n      0x01\n      swap1\n      sload\n      swap1\n      0x0100\n      exp\n      swap1\n      div\n      0xff\n      and\n        /* \"contracts/EvolveStorage.sol\":5288:5329  uint(competionList[_competionId].winners) */\n      0x03\n      dup2\n      gt\n      iszero\n      tag_213\n      jumpi\n      tag_214\n      tag_106\n      jump\t// in\n    tag_214:\n    tag_213:\n        /* \"contracts/EvolveStorage.sol\":5269:5329  _competionWinner = uint(competionList[_competionId].winners) */\n      swap3\n      pop\n        /* \"contracts/EvolveStorage.sol\":5352:5365  competionList */\n      0x05\n        /* \"contracts/EvolveStorage.sol\":5352:5379  competionList[_competionId] */\n      0x00\n        /* \"contracts/EvolveStorage.sol\":5366:5378  _competionId */\n      dup11\n        /* \"contracts/EvolveStorage.sol\":5352:5379  competionList[_competionId] */\n      dup2\n      mstore\n      0x20\n      add\n      swap1\n      dup2\n      mstore\n      0x20\n      add\n      0x00\n      keccak256\n        /* \"contracts/EvolveStorage.sol\":5352:5389  competionList[_competionId].priceRate */\n      0x07\n      add\n      sload\n        /* \"contracts/EvolveStorage.sol\":5339:5389  _priceRate = competionList[_competionId].priceRate */\n      swap2\n      pop\n        /* \"contracts/EvolveStorage.sol\":4902:5396  {... */\n      pop\n        /* \"contracts/EvolveStorage.sol\":4663:5396  function getCompetion(uint256 _competionId) external view override ... */\n      swap2\n      swap4\n      swap6\n      swap8\n      swap1\n      swap3\n      swap5\n      swap7\n      pop\n      jump\t// out\n        /* \"@openzeppelin/contracts/access/Ownable.sol\":1918:2116  function transferOwnership(address newOwner) public virtual onlyOwner {... */\n    tag_81:\n        /* \"@openzeppelin/contracts/access/Ownable.sol\":1259:1271  _msgSender() */\n      tag_216\n        /* \"@openzeppelin/contracts/access/Ownable.sol\":1259:1269  _msgSender */\n      tag_84\n        /* \"@openzeppelin/contracts/access/Ownable.sol\":1259:1271  _msgSender() */\n      jump\t// in\n    tag_216:\n        /* \"@openzeppelin/contracts/access/Ownable.sol\":1248:1271  owner() == _msgSender() */\n      0xffffffffffffffffffffffffffffffffffffffff\n      and\n        /* \"@openzeppelin/contracts/access/Ownable.sol\":1248:1255  owner() */\n      tag_217\n        /* \"@openzeppelin/contracts/access/Ownable.sol\":1248:1253  owner */\n      tag_59\n        /* \"@openzeppelin/contracts/access/Ownable.sol\":1248:1255  owner() */\n      jump\t// in\n    tag_217:\n        /* \"@openzeppelin/contracts/access/Ownable.sol\":1248:1271  owner() == _msgSender() */\n      0xffffffffffffffffffffffffffffffffffffffff\n      and\n      eq\n        /* \"@openzeppelin/contracts/access/Ownable.sol\":1240:1308  require(owner() == _msgSender(), \"Ownable: caller is not the owner\") */\n      tag_218\n      jumpi\n      mload(0x40)\n      0x08c379a000000000000000000000000000000000000000000000000000000000\n      dup2\n      mstore\n      0x04\n      add\n      tag_219\n      swap1\n      tag_120\n      jump\t// in\n    tag_219:\n      mload(0x40)\n      dup1\n      swap2\n      sub\n      swap1\n      revert\n    tag_218:\n        /* \"@openzeppelin/contracts/access/Ownable.sol\":2026:2027  0 */\n      0x00\n        /* \"@openzeppelin/contracts/access/Ownable.sol\":2006:2028  newOwner != address(0) */\n      0xffffffffffffffffffffffffffffffffffffffff\n      and\n        /* \"@openzeppelin/contracts/access/Ownable.sol\":2006:2014  newOwner */\n      dup2\n        /* \"@openzeppelin/contracts/access/Ownable.sol\":2006:2028  newOwner != address(0) */\n      0xffffffffffffffffffffffffffffffffffffffff\n      and\n      eq\n      iszero\n        /* \"@openzeppelin/contracts/access/Ownable.sol\":1998:2071  require(newOwner != address(0), \"Ownable: new owner is the zero address\") */\n      tag_221\n      jumpi\n      mload(0x40)\n      0x08c379a000000000000000000000000000000000000000000000000000000000\n      dup2\n      mstore\n      0x04\n      add\n      tag_222\n      swap1\n      tag_223\n      jump\t// in\n    tag_222:\n      mload(0x40)\n      dup1\n      swap2\n      sub\n      swap1\n      revert\n    tag_221:\n        /* \"@openzeppelin/contracts/access/Ownable.sol\":2081:2109  _transferOwnership(newOwner) */\n      tag_224\n        /* \"@openzeppelin/contracts/access/Ownable.sol\":2100:2108  newOwner */\n      dup2\n        /* \"@openzeppelin/contracts/access/Ownable.sol\":2081:2099  _transferOwnership */\n      tag_132\n        /* \"@openzeppelin/contracts/access/Ownable.sol\":2081:2109  _transferOwnership(newOwner) */\n      jump\t// in\n    tag_224:\n        /* \"@openzeppelin/contracts/access/Ownable.sol\":1918:2116  function transferOwnership(address newOwner) public virtual onlyOwner {... */\n      pop\n      jump\t// out\n        /* \"@openzeppelin/contracts/utils/Context.sol\":640:736  function _msgSender() internal view virtual returns (address) {... */\n    tag_84:\n        /* \"@openzeppelin/contracts/utils/Context.sol\":693:700  address */\n      0x00\n        /* \"@openzeppelin/contracts/utils/Context.sol\":719:729  msg.sender */\n      caller\n        /* \"@openzeppelin/contracts/utils/Context.sol\":712:729  return msg.sender */\n      swap1\n      pop\n        /* \"@openzeppelin/contracts/utils/Context.sol\":640:736  function _msgSender() internal view virtual returns (address) {... */\n      swap1\n      jump\t// out\n        /* \"contracts/EvolveStorage.sol\":5561:5746  function isExistsCompetionList(uint key) internal view returns (bool) {... */\n    tag_95:\n        /* \"contracts/EvolveStorage.sol\":5625:5629  bool */\n      0x00\n        /* \"contracts/EvolveStorage.sol\":5679:5680  0 */\n      dup1\n        /* \"contracts/EvolveStorage.sol\":5644:5657  competionList */\n      0x05\n        /* \"contracts/EvolveStorage.sol\":5644:5662  competionList[key] */\n      0x00\n        /* \"contracts/EvolveStorage.sol\":5658:5661  key */\n      dup5\n        /* \"contracts/EvolveStorage.sol\":5644:5662  competionList[key] */\n      dup2\n      mstore\n      0x20\n      add\n      swap1\n      dup2\n      mstore\n      0x20\n      add\n      0x00\n      keccak256\n        /* \"contracts/EvolveStorage.sol\":5644:5668  competionList[key].teamA */\n      0x04\n      add\n        /* \"contracts/EvolveStorage.sol\":5644:5675  competionList[key].teamA.length */\n      dup1\n      sload\n      swap1\n      pop\n        /* \"contracts/EvolveStorage.sol\":5644:5680  competionList[key].teamA.length != 0 */\n      eq\n        /* \"contracts/EvolveStorage.sol\":5641:5717  if(competionList[key].teamA.length != 0){... */\n      tag_227\n      jumpi\n        /* \"contracts/EvolveStorage.sol\":5702:5706  true */\n      0x01\n        /* \"contracts/EvolveStorage.sol\":5695:5706  return true */\n      swap1\n      pop\n      jump(tag_226)\n        /* \"contracts/EvolveStorage.sol\":5641:5717  if(competionList[key].teamA.length != 0){... */\n    tag_227:\n        /* \"contracts/EvolveStorage.sol\":5734:5739  false */\n      0x00\n        /* \"contracts/EvolveStorage.sol\":5727:5739  return false */\n      swap1\n      pop\n        /* \"contracts/EvolveStorage.sol\":5561:5746  function isExistsCompetionList(uint key) internal view returns (bool) {... */\n    tag_226:\n      swap2\n      swap1\n      pop\n      jump\t// out\n        /* \"@openzeppelin/contracts/access/Ownable.sol\":2270:2457  function _transferOwnership(address newOwner) internal virtual {... */\n    tag_132:\n        /* \"@openzeppelin/contracts/access/Ownable.sol\":2343:2359  address oldOwner */\n      0x00\n        /* \"@openzeppelin/contracts/access/Ownable.sol\":2362:2368  _owner */\n      dup1\n      0x00\n      swap1\n      sload\n      swap1\n      0x0100\n      exp\n      swap1\n      div\n      0xffffffffffffffffffffffffffffffffffffffff\n      and\n        /* \"@openzeppelin/contracts/access/Ownable.sol\":2343:2368  address oldOwner = _owner */\n      swap1\n      pop\n        /* \"@openzeppelin/contracts/access/Ownable.sol\":2387:2395  newOwner */\n      dup2\n        /* \"@openzeppelin/contracts/access/Ownable.sol\":2378:2384  _owner */\n      0x00\n      dup1\n        /* \"@openzeppelin/contracts/access/Ownable.sol\":2378:2395  _owner = newOwner */\n      0x0100\n      exp\n      dup2\n      sload\n      dup2\n      0xffffffffffffffffffffffffffffffffffffffff\n      mul\n      not\n      and\n      swap1\n      dup4\n      0xffffffffffffffffffffffffffffffffffffffff\n      and\n      mul\n      or\n      swap1\n      sstore\n      pop\n        /* \"@openzeppelin/contracts/access/Ownable.sol\":2441:2449  newOwner */\n      dup2\n        /* \"@openzeppelin/contracts/access/Ownable.sol\":2410:2450  OwnershipTransferred(oldOwner, newOwner) */\n      0xffffffffffffffffffffffffffffffffffffffff\n      and\n        /* \"@openzeppelin/contracts/access/Ownable.sol\":2431:2439  oldOwner */\n      dup2\n        /* \"@openzeppelin/contracts/access/Ownable.sol\":2410:2450  OwnershipTransferred(oldOwner, newOwner) */\n      0xffffffffffffffffffffffffffffffffffffffff\n      and\n      0x8be0079c531659141344cd1fd0a4f28419497f9722a3daafe3b4186f6b6457e0\n      mload(0x40)\n      mload(0x40)\n      dup1\n      swap2\n      sub\n      swap1\n      log3\n        /* \"@openzeppelin/contracts/access/Ownable.sol\":2333:2457  {... */\n      pop\n        /* \"@openzeppelin/contracts/access/Ownable.sol\":2270:2457  function _transferOwnership(address newOwner) internal virtual {... */\n      pop\n      jump\t// out\n        /* \"contracts/EvolveStorage.sol\":5752:5926  function isExistsPresetList(uint256 key) internal view returns (bool) {... */\n    tag_156:\n        /* \"contracts/EvolveStorage.sol\":5816:5820  bool */\n      0x00\n        /* \"contracts/EvolveStorage.sol\":5859:5860  0 */\n      dup1\n        /* \"contracts/EvolveStorage.sol\":5835:5845  presetList */\n      0x04\n        /* \"contracts/EvolveStorage.sol\":5835:5850  presetList[key] */\n      0x00\n        /* \"contracts/EvolveStorage.sol\":5846:5849  key */\n      dup5\n        /* \"contracts/EvolveStorage.sol\":5835:5850  presetList[key] */\n      dup2\n      mstore\n      0x20\n      add\n      swap1\n      dup2\n      mstore\n      0x20\n      add\n      0x00\n      keccak256\n        /* \"contracts/EvolveStorage.sol\":5835:5855  presetList[key].date */\n      0x02\n      add\n      sload\n        /* \"contracts/EvolveStorage.sol\":5835:5860  presetList[key].date != 0 */\n      eq\n        /* \"contracts/EvolveStorage.sol\":5832:5897  if(presetList[key].date != 0){... */\n      tag_230\n      jumpi\n        /* \"contracts/EvolveStorage.sol\":5882:5886  true */\n      0x01\n        /* \"contracts/EvolveStorage.sol\":5875:5886  return true */\n      swap1\n      pop\n      jump(tag_229)\n        /* \"contracts/EvolveStorage.sol\":5832:5897  if(presetList[key].date != 0){... */\n    tag_230:\n        /* \"contracts/EvolveStorage.sol\":5914:5919  false */\n      0x00\n        /* \"contracts/EvolveStorage.sol\":5907:5919  return false */\n      swap1\n      pop\n        /* \"contracts/EvolveStorage.sol\":5752:5926  function isExistsPresetList(uint256 key) internal view returns (bool) {... */\n    tag_229:\n      swap2\n      swap1\n      pop\n      jump\t// out\n    tag_165:\n      dup3\n      dup1\n      sload\n      dup3\n      dup3\n      sstore\n      swap1\n      0x00\n      mstore\n      keccak256(0x00, 0x20)\n      swap1\n      dup2\n      add\n      swap3\n      dup3\n      iszero\n      tag_231\n      jumpi\n      swap2\n      0x20\n      mul\n      dup3\n      add\n    tag_232:\n      dup3\n      dup2\n      gt\n      iszero\n      tag_233\n      jumpi\n      dup3\n      mload\n      dup3\n      exp(0x0100, 0x00)\n      dup2\n      sload\n      dup2\n      0xffffffffffffffffffffffffffffffffffffffff\n      mul\n      not\n      and\n      swap1\n      dup4\n      0xffffffffffffffffffffffffffffffffffffffff\n      and\n      mul\n      or\n      swap1\n      sstore\n      pop\n      swap2\n      0x20\n      add\n      swap2\n      swap1\n      0x01\n      add\n      swap1\n      jump(tag_232)\n    tag_233:\n    tag_231:\n      pop\n      swap1\n      pop\n      tag_234\n      swap2\n      swap1\n      tag_235\n      jump\t// in\n    tag_234:\n      pop\n      swap1\n      jump\t// out\n    tag_235:\n    tag_236:\n      dup1\n      dup3\n      gt\n      iszero\n      tag_237\n      jumpi\n      0x00\n      dup2\n      0x00\n      swap1\n      sstore\n      pop\n      0x01\n      add\n      jump(tag_236)\n    tag_237:\n      pop\n      swap1\n      jump\t// out\n        /* \"#utility.yul\":88:205   */\n    tag_239:\n        /* \"#utility.yul\":197:198   */\n      0x00\n        /* \"#utility.yul\":194:195   */\n      dup1\n        /* \"#utility.yul\":187:199   */\n      revert\n        /* \"#utility.yul\":211:328   */\n    tag_240:\n        /* \"#utility.yul\":320:321   */\n      0x00\n        /* \"#utility.yul\":317:318   */\n      dup1\n        /* \"#utility.yul\":310:322   */\n      revert\n        /* \"#utility.yul\":334:411   */\n    tag_241:\n        /* \"#utility.yul\":371:378   */\n      0x00\n        /* \"#utility.yul\":400:405   */\n      dup2\n        /* \"#utility.yul\":389:405   */\n      swap1\n      pop\n        /* \"#utility.yul\":334:411   */\n      swap2\n      swap1\n      pop\n      jump\t// out\n        /* \"#utility.yul\":417:539   */\n    tag_242:\n        /* \"#utility.yul\":490:514   */\n      tag_298\n        /* \"#utility.yul\":508:513   */\n      dup2\n        /* \"#utility.yul\":490:514   */\n      tag_241\n      jump\t// in\n    tag_298:\n        /* \"#utility.yul\":483:488   */\n      dup2\n        /* \"#utility.yul\":480:515   */\n      eq\n        /* \"#utility.yul\":470:533   */\n      tag_299\n      jumpi\n        /* \"#utility.yul\":529:530   */\n      0x00\n        /* \"#utility.yul\":526:527   */\n      dup1\n        /* \"#utility.yul\":519:531   */\n      revert\n        /* \"#utility.yul\":470:533   */\n    tag_299:\n        /* \"#utility.yul\":417:539   */\n      pop\n      jump\t// out\n        /* \"#utility.yul\":545:684   */\n    tag_243:\n        /* \"#utility.yul\":591:596   */\n      0x00\n        /* \"#utility.yul\":629:635   */\n      dup2\n        /* \"#utility.yul\":616:636   */\n      calldataload\n        /* \"#utility.yul\":607:636   */\n      swap1\n      pop\n        /* \"#utility.yul\":645:678   */\n      tag_301\n        /* \"#utility.yul\":672:677   */\n      dup2\n        /* \"#utility.yul\":645:678   */\n      tag_242\n      jump\t// in\n    tag_301:\n        /* \"#utility.yul\":545:684   */\n      swap3\n      swap2\n      pop\n      pop\n      jump\t// out\n        /* \"#utility.yul\":690:776   */\n    tag_244:\n        /* \"#utility.yul\":725:732   */\n      0x00\n        /* \"#utility.yul\":765:769   */\n      0xff\n        /* \"#utility.yul\":758:763   */\n      dup3\n        /* \"#utility.yul\":754:770   */\n      and\n        /* \"#utility.yul\":743:770   */\n      swap1\n      pop\n        /* \"#utility.yul\":690:776   */\n      swap2\n      swap1\n      pop\n      jump\t// out\n        /* \"#utility.yul\":782:900   */\n    tag_245:\n        /* \"#utility.yul\":853:875   */\n      tag_304\n        /* \"#utility.yul\":869:874   */\n      dup2\n        /* \"#utility.yul\":853:875   */\n      tag_244\n      jump\t// in\n    tag_304:\n        /* \"#utility.yul\":846:851   */\n      dup2\n        /* \"#utility.yul\":843:876   */\n      eq\n        /* \"#utility.yul\":833:894   */\n      tag_305\n      jumpi\n        /* \"#utility.yul\":890:891   */\n      0x00\n        /* \"#utility.yul\":887:888   */\n      dup1\n        /* \"#utility.yul\":880:892   */\n      revert\n        /* \"#utility.yul\":833:894   */\n    tag_305:\n        /* \"#utility.yul\":782:900   */\n      pop\n      jump\t// out\n        /* \"#utility.yul\":906:1041   */\n    tag_246:\n        /* \"#utility.yul\":950:955   */\n      0x00\n        /* \"#utility.yul\":988:994   */\n      dup2\n        /* \"#utility.yul\":975:995   */\n      calldataload\n        /* \"#utility.yul\":966:995   */\n      swap1\n      pop\n        /* \"#utility.yul\":1004:1035   */\n      tag_307\n        /* \"#utility.yul\":1029:1034   */\n      dup2\n        /* \"#utility.yul\":1004:1035   */\n      tag_245\n      jump\t// in\n    tag_307:\n        /* \"#utility.yul\":906:1041   */\n      swap3\n      swap2\n      pop\n      pop\n      jump\t// out\n        /* \"#utility.yul\":1047:1517   */\n    tag_22:\n        /* \"#utility.yul\":1113:1119   */\n      0x00\n        /* \"#utility.yul\":1121:1127   */\n      dup1\n        /* \"#utility.yul\":1170:1172   */\n      0x40\n        /* \"#utility.yul\":1158:1167   */\n      dup4\n        /* \"#utility.yul\":1149:1156   */\n      dup6\n        /* \"#utility.yul\":1145:1168   */\n      sub\n        /* \"#utility.yul\":1141:1173   */\n      slt\n        /* \"#utility.yul\":1138:1257   */\n      iszero\n      tag_309\n      jumpi\n        /* \"#utility.yul\":1176:1255   */\n      tag_310\n      tag_239\n      jump\t// in\n    tag_310:\n        /* \"#utility.yul\":1138:1257   */\n    tag_309:\n        /* \"#utility.yul\":1296:1297   */\n      0x00\n        /* \"#utility.yul\":1321:1374   */\n      tag_311\n        /* \"#utility.yul\":1366:1373   */\n      dup6\n        /* \"#utility.yul\":1357:1363   */\n      dup3\n        /* \"#utility.yul\":1346:1355   */\n      dup7\n        /* \"#utility.yul\":1342:1364   */\n      add\n        /* \"#utility.yul\":1321:1374   */\n      tag_243\n      jump\t// in\n    tag_311:\n        /* \"#utility.yul\":1311:1374   */\n      swap3\n      pop\n        /* \"#utility.yul\":1267:1384   */\n      pop\n        /* \"#utility.yul\":1423:1425   */\n      0x20\n        /* \"#utility.yul\":1449:1500   */\n      tag_312\n        /* \"#utility.yul\":1492:1499   */\n      dup6\n        /* \"#utility.yul\":1483:1489   */\n      dup3\n        /* \"#utility.yul\":1472:1481   */\n      dup7\n        /* \"#utility.yul\":1468:1490   */\n      add\n        /* \"#utility.yul\":1449:1500   */\n      tag_246\n      jump\t// in\n    tag_312:\n        /* \"#utility.yul\":1439:1500   */\n      swap2\n      pop\n        /* \"#utility.yul\":1394:1510   */\n      pop\n        /* \"#utility.yul\":1047:1517   */\n      swap3\n      pop\n      swap3\n      swap1\n      pop\n      jump\t// out\n        /* \"#utility.yul\":1523:1613   */\n    tag_247:\n        /* \"#utility.yul\":1557:1564   */\n      0x00\n        /* \"#utility.yul\":1600:1605   */\n      dup2\n        /* \"#utility.yul\":1593:1606   */\n      iszero\n        /* \"#utility.yul\":1586:1607   */\n      iszero\n        /* \"#utility.yul\":1575:1607   */\n      swap1\n      pop\n        /* \"#utility.yul\":1523:1613   */\n      swap2\n      swap1\n      pop\n      jump\t// out\n        /* \"#utility.yul\":1619:1728   */\n    tag_248:\n        /* \"#utility.yul\":1700:1721   */\n      tag_315\n        /* \"#utility.yul\":1715:1720   */\n      dup2\n        /* \"#utility.yul\":1700:1721   */\n      tag_247\n      jump\t// in\n    tag_315:\n        /* \"#utility.yul\":1695:1698   */\n      dup3\n        /* \"#utility.yul\":1688:1722   */\n      mstore\n        /* \"#utility.yul\":1619:1728   */\n      pop\n      pop\n      jump\t// out\n        /* \"#utility.yul\":1734:1944   */\n    tag_25:\n        /* \"#utility.yul\":1821:1825   */\n      0x00\n        /* \"#utility.yul\":1859:1861   */\n      0x20\n        /* \"#utility.yul\":1848:1857   */\n      dup3\n        /* \"#utility.yul\":1844:1862   */\n      add\n        /* \"#utility.yul\":1836:1862   */\n      swap1\n      pop\n        /* \"#utility.yul\":1872:1937   */\n      tag_317\n        /* \"#utility.yul\":1934:1935   */\n      0x00\n        /* \"#utility.yul\":1923:1932   */\n      dup4\n        /* \"#utility.yul\":1919:1936   */\n      add\n        /* \"#utility.yul\":1910:1916   */\n      dup5\n        /* \"#utility.yul\":1872:1937   */\n      tag_248\n      jump\t// in\n    tag_317:\n        /* \"#utility.yul\":1734:1944   */\n      swap3\n      swap2\n      pop\n      pop\n      jump\t// out\n        /* \"#utility.yul\":1950:2279   */\n    tag_28:\n        /* \"#utility.yul\":2009:2015   */\n      0x00\n        /* \"#utility.yul\":2058:2060   */\n      0x20\n        /* \"#utility.yul\":2046:2055   */\n      dup3\n        /* \"#utility.yul\":2037:2044   */\n      dup5\n        /* \"#utility.yul\":2033:2056   */\n      sub\n        /* \"#utility.yul\":2029:2061   */\n      slt\n        /* \"#utility.yul\":2026:2145   */\n      iszero\n      tag_319\n      jumpi\n        /* \"#utility.yul\":2064:2143   */\n      tag_320\n      tag_239\n      jump\t// in\n    tag_320:\n        /* \"#utility.yul\":2026:2145   */\n    tag_319:\n        /* \"#utility.yul\":2184:2185   */\n      0x00\n        /* \"#utility.yul\":2209:2262   */\n      tag_321\n        /* \"#utility.yul\":2254:2261   */\n      dup5\n        /* \"#utility.yul\":2245:2251   */\n      dup3\n        /* \"#utility.yul\":2234:2243   */\n      dup6\n        /* \"#utility.yul\":2230:2252   */\n      add\n        /* \"#utility.yul\":2209:2262   */\n      tag_243\n      jump\t// in\n    tag_321:\n        /* \"#utility.yul\":2199:2262   */\n      swap2\n      pop\n        /* \"#utility.yul\":2155:2272   */\n      pop\n        /* \"#utility.yul\":1950:2279   */\n      swap3\n      swap2\n      pop\n      pop\n      jump\t// out\n        /* \"#utility.yul\":2285:2403   */\n    tag_249:\n        /* \"#utility.yul\":2372:2396   */\n      tag_323\n        /* \"#utility.yul\":2390:2395   */\n      dup2\n        /* \"#utility.yul\":2372:2396   */\n      tag_241\n      jump\t// in\n    tag_323:\n        /* \"#utility.yul\":2367:2370   */\n      dup3\n        /* \"#utility.yul\":2360:2397   */\n      mstore\n        /* \"#utility.yul\":2285:2403   */\n      pop\n      pop\n      jump\t// out\n        /* \"#utility.yul\":2409:2962   */\n    tag_31:\n        /* \"#utility.yul\":2586:2590   */\n      0x00\n        /* \"#utility.yul\":2624:2627   */\n      0x80\n        /* \"#utility.yul\":2613:2622   */\n      dup3\n        /* \"#utility.yul\":2609:2628   */\n      add\n        /* \"#utility.yul\":2601:2628   */\n      swap1\n      pop\n        /* \"#utility.yul\":2638:2709   */\n      tag_325\n        /* \"#utility.yul\":2706:2707   */\n      0x00\n        /* \"#utility.yul\":2695:2704   */\n      dup4\n        /* \"#utility.yul\":2691:2708   */\n      add\n        /* \"#utility.yul\":2682:2688   */\n      dup8\n        /* \"#utility.yul\":2638:2709   */\n      tag_249\n      jump\t// in\n    tag_325:\n        /* \"#utility.yul\":2719:2791   */\n      tag_326\n        /* \"#utility.yul\":2787:2789   */\n      0x20\n        /* \"#utility.yul\":2776:2785   */\n      dup4\n        /* \"#utility.yul\":2772:2790   */\n      add\n        /* \"#utility.yul\":2763:2769   */\n      dup7\n        /* \"#utility.yul\":2719:2791   */\n      tag_249\n      jump\t// in\n    tag_326:\n        /* \"#utility.yul\":2801:2873   */\n      tag_327\n        /* \"#utility.yul\":2869:2871   */\n      0x40\n        /* \"#utility.yul\":2858:2867   */\n      dup4\n        /* \"#utility.yul\":2854:2872   */\n      add\n        /* \"#utility.yul\":2845:2851   */\n      dup6\n        /* \"#utility.yul\":2801:2873   */\n      tag_249\n      jump\t// in\n    tag_327:\n        /* \"#utility.yul\":2883:2955   */\n      tag_328\n        /* \"#utility.yul\":2951:2953   */\n      0x60\n        /* \"#utility.yul\":2940:2949   */\n      dup4\n        /* \"#utility.yul\":2936:2954   */\n      add\n        /* \"#utility.yul\":2927:2933   */\n      dup5\n        /* \"#utility.yul\":2883:2955   */\n      tag_249\n      jump\t// in\n    tag_328:\n        /* \"#utility.yul\":2409:2962   */\n      swap6\n      swap5\n      pop\n      pop\n      pop\n      pop\n      pop\n      jump\t// out\n        /* \"#utility.yul\":2968:3094   */\n    tag_250:\n        /* \"#utility.yul\":3005:3012   */\n      0x00\n        /* \"#utility.yul\":3045:3087   */\n      0xffffffffffffffffffffffffffffffffffffffff\n        /* \"#utility.yul\":3038:3043   */\n      dup3\n        /* \"#utility.yul\":3034:3088   */\n      and\n        /* \"#utility.yul\":3023:3088   */\n      swap1\n      pop\n        /* \"#utility.yul\":2968:3094   */\n      swap2\n      swap1\n      pop\n      jump\t// out\n        /* \"#utility.yul\":3100:3196   */\n    tag_251:\n        /* \"#utility.yul\":3137:3144   */\n      0x00\n        /* \"#utility.yul\":3166:3190   */\n      tag_331\n        /* \"#utility.yul\":3184:3189   */\n      dup3\n        /* \"#utility.yul\":3166:3190   */\n      tag_250\n      jump\t// in\n    tag_331:\n        /* \"#utility.yul\":3155:3190   */\n      swap1\n      pop\n        /* \"#utility.yul\":3100:3196   */\n      swap2\n      swap1\n      pop\n      jump\t// out\n        /* \"#utility.yul\":3202:3324   */\n    tag_252:\n        /* \"#utility.yul\":3275:3299   */\n      tag_333\n        /* \"#utility.yul\":3293:3298   */\n      dup2\n        /* \"#utility.yul\":3275:3299   */\n      tag_251\n      jump\t// in\n    tag_333:\n        /* \"#utility.yul\":3268:3273   */\n      dup2\n        /* \"#utility.yul\":3265:3300   */\n      eq\n        /* \"#utility.yul\":3255:3318   */\n      tag_334\n      jumpi\n        /* \"#utility.yul\":3314:3315   */\n      0x00\n        /* \"#utility.yul\":3311:3312   */\n      dup1\n        /* \"#utility.yul\":3304:3316   */\n      revert\n        /* \"#utility.yul\":3255:3318   */\n    tag_334:\n        /* \"#utility.yul\":3202:3324   */\n      pop\n      jump\t// out\n        /* \"#utility.yul\":3330:3469   */\n    tag_253:\n        /* \"#utility.yul\":3376:3381   */\n      0x00\n        /* \"#utility.yul\":3414:3420   */\n      dup2\n        /* \"#utility.yul\":3401:3421   */\n      calldataload\n        /* \"#utility.yul\":3392:3421   */\n      swap1\n      pop\n        /* \"#utility.yul\":3430:3463   */\n      tag_336\n        /* \"#utility.yul\":3457:3462   */\n      dup2\n        /* \"#utility.yul\":3430:3463   */\n      tag_252\n      jump\t// in\n    tag_336:\n        /* \"#utility.yul\":3330:3469   */\n      swap3\n      swap2\n      pop\n      pop\n      jump\t// out\n        /* \"#utility.yul\":3475:3804   */\n    tag_34:\n        /* \"#utility.yul\":3534:3540   */\n      0x00\n        /* \"#utility.yul\":3583:3585   */\n      0x20\n        /* \"#utility.yul\":3571:3580   */\n      dup3\n        /* \"#utility.yul\":3562:3569   */\n      dup5\n        /* \"#utility.yul\":3558:3581   */\n      sub\n        /* \"#utility.yul\":3554:3586   */\n      slt\n        /* \"#utility.yul\":3551:3670   */\n      iszero\n      tag_338\n      jumpi\n        /* \"#utility.yul\":3589:3668   */\n      tag_339\n      tag_239\n      jump\t// in\n    tag_339:\n        /* \"#utility.yul\":3551:3670   */\n    tag_338:\n        /* \"#utility.yul\":3709:3710   */\n      0x00\n        /* \"#utility.yul\":3734:3787   */\n      tag_340\n        /* \"#utility.yul\":3779:3786   */\n      dup5\n        /* \"#utility.yul\":3770:3776   */\n      dup3\n        /* \"#utility.yul\":3759:3768   */\n      dup6\n        /* \"#utility.yul\":3755:3777   */\n      add\n        /* \"#utility.yul\":3734:3787   */\n      tag_253\n      jump\t// in\n    tag_340:\n        /* \"#utility.yul\":3724:3787   */\n      swap2\n      pop\n        /* \"#utility.yul\":3680:3797   */\n      pop\n        /* \"#utility.yul\":3475:3804   */\n      swap3\n      swap2\n      pop\n      pop\n      jump\t// out\n        /* \"#utility.yul\":3810:4032   */\n    tag_40:\n        /* \"#utility.yul\":3903:3907   */\n      0x00\n        /* \"#utility.yul\":3941:3943   */\n      0x20\n        /* \"#utility.yul\":3930:3939   */\n      dup3\n        /* \"#utility.yul\":3926:3944   */\n      add\n        /* \"#utility.yul\":3918:3944   */\n      swap1\n      pop\n        /* \"#utility.yul\":3954:4025   */\n      tag_342\n        /* \"#utility.yul\":4022:4023   */\n      0x00\n        /* \"#utility.yul\":4011:4020   */\n      dup4\n        /* \"#utility.yul\":4007:4024   */\n      add\n        /* \"#utility.yul\":3998:4004   */\n      dup5\n        /* \"#utility.yul\":3954:4025   */\n      tag_249\n      jump\t// in\n    tag_342:\n        /* \"#utility.yul\":3810:4032   */\n      swap3\n      swap2\n      pop\n      pop\n      jump\t// out\n        /* \"#utility.yul\":4038:4657   */\n    tag_45:\n        /* \"#utility.yul\":4115:4121   */\n      0x00\n        /* \"#utility.yul\":4123:4129   */\n      dup1\n        /* \"#utility.yul\":4131:4137   */\n      0x00\n        /* \"#utility.yul\":4180:4182   */\n      0x60\n        /* \"#utility.yul\":4168:4177   */\n      dup5\n        /* \"#utility.yul\":4159:4166   */\n      dup7\n        /* \"#utility.yul\":4155:4178   */\n      sub\n        /* \"#utility.yul\":4151:4183   */\n      slt\n        /* \"#utility.yul\":4148:4267   */\n      iszero\n      tag_344\n      jumpi\n        /* \"#utility.yul\":4186:4265   */\n      tag_345\n      tag_239\n      jump\t// in\n    tag_345:\n        /* \"#utility.yul\":4148:4267   */\n    tag_344:\n        /* \"#utility.yul\":4306:4307   */\n      0x00\n        /* \"#utility.yul\":4331:4384   */\n      tag_346\n        /* \"#utility.yul\":4376:4383   */\n      dup7\n        /* \"#utility.yul\":4367:4373   */\n      dup3\n        /* \"#utility.yul\":4356:4365   */\n      dup8\n        /* \"#utility.yul\":4352:4374   */\n      add\n        /* \"#utility.yul\":4331:4384   */\n      tag_243\n      jump\t// in\n    tag_346:\n        /* \"#utility.yul\":4321:4384   */\n      swap4\n      pop\n        /* \"#utility.yul\":4277:4394   */\n      pop\n        /* \"#utility.yul\":4433:4435   */\n      0x20\n        /* \"#utility.yul\":4459:4512   */\n      tag_347\n        /* \"#utility.yul\":4504:4511   */\n      dup7\n        /* \"#utility.yul\":4495:4501   */\n      dup3\n        /* \"#utility.yul\":4484:4493   */\n      dup8\n        /* \"#utility.yul\":4480:4502   */\n      add\n        /* \"#utility.yul\":4459:4512   */\n      tag_243\n      jump\t// in\n    tag_347:\n        /* \"#utility.yul\":4449:4512   */\n      swap3\n      pop\n        /* \"#utility.yul\":4404:4522   */\n      pop\n        /* \"#utility.yul\":4561:4563   */\n      0x40\n        /* \"#utility.yul\":4587:4640   */\n      tag_348\n        /* \"#utility.yul\":4632:4639   */\n      dup7\n        /* \"#utility.yul\":4623:4629   */\n      dup3\n        /* \"#utility.yul\":4612:4621   */\n      dup8\n        /* \"#utility.yul\":4608:4630   */\n      add\n        /* \"#utility.yul\":4587:4640   */\n      tag_243\n      jump\t// in\n    tag_348:\n        /* \"#utility.yul\":4577:4640   */\n      swap2\n      pop\n        /* \"#utility.yul\":4532:4650   */\n      pop\n        /* \"#utility.yul\":4038:4657   */\n      swap3\n      pop\n      swap3\n      pop\n      swap3\n      jump\t// out\n        /* \"#utility.yul\":4663:4771   */\n    tag_254:\n        /* \"#utility.yul\":4740:4764   */\n      tag_350\n        /* \"#utility.yul\":4758:4763   */\n      dup2\n        /* \"#utility.yul\":4740:4764   */\n      tag_241\n      jump\t// in\n    tag_350:\n        /* \"#utility.yul\":4735:4738   */\n      dup3\n        /* \"#utility.yul\":4728:4765   */\n      mstore\n        /* \"#utility.yul\":4663:4771   */\n      pop\n      pop\n      jump\t// out\n        /* \"#utility.yul\":4845:5720   */\n    tag_255:\n        /* \"#utility.yul\":4988:4992   */\n      0x80\n        /* \"#utility.yul\":4983:4986   */\n      dup3\n        /* \"#utility.yul\":4979:4993   */\n      add\n        /* \"#utility.yul\":5081:5085   */\n      0x00\n        /* \"#utility.yul\":5074:5079   */\n      dup3\n        /* \"#utility.yul\":5070:5086   */\n      add\n        /* \"#utility.yul\":5064:5087   */\n      mload\n        /* \"#utility.yul\":5100:5163   */\n      tag_352\n        /* \"#utility.yul\":5157:5161   */\n      0x00\n        /* \"#utility.yul\":5152:5155   */\n      dup6\n        /* \"#utility.yul\":5148:5162   */\n      add\n        /* \"#utility.yul\":5134:5146   */\n      dup3\n        /* \"#utility.yul\":5100:5163   */\n      tag_254\n      jump\t// in\n    tag_352:\n        /* \"#utility.yul\":5003:5173   */\n      pop\n        /* \"#utility.yul\":5269:5273   */\n      0x20\n        /* \"#utility.yul\":5262:5267   */\n      dup3\n        /* \"#utility.yul\":5258:5274   */\n      add\n        /* \"#utility.yul\":5252:5275   */\n      mload\n        /* \"#utility.yul\":5288:5351   */\n      tag_353\n        /* \"#utility.yul\":5345:5349   */\n      0x20\n        /* \"#utility.yul\":5340:5343   */\n      dup6\n        /* \"#utility.yul\":5336:5350   */\n      add\n        /* \"#utility.yul\":5322:5334   */\n      dup3\n        /* \"#utility.yul\":5288:5351   */\n      tag_254\n      jump\t// in\n    tag_353:\n        /* \"#utility.yul\":5183:5361   */\n      pop\n        /* \"#utility.yul\":5443:5447   */\n      0x40\n        /* \"#utility.yul\":5436:5441   */\n      dup3\n        /* \"#utility.yul\":5432:5448   */\n      add\n        /* \"#utility.yul\":5426:5449   */\n      mload\n        /* \"#utility.yul\":5462:5525   */\n      tag_354\n        /* \"#utility.yul\":5519:5523   */\n      0x40\n        /* \"#utility.yul\":5514:5517   */\n      dup6\n        /* \"#utility.yul\":5510:5524   */\n      add\n        /* \"#utility.yul\":5496:5508   */\n      dup3\n        /* \"#utility.yul\":5462:5525   */\n      tag_254\n      jump\t// in\n    tag_354:\n        /* \"#utility.yul\":5371:5535   */\n      pop\n        /* \"#utility.yul\":5621:5625   */\n      0x60\n        /* \"#utility.yul\":5614:5619   */\n      dup3\n        /* \"#utility.yul\":5610:5626   */\n      add\n        /* \"#utility.yul\":5604:5627   */\n      mload\n        /* \"#utility.yul\":5640:5703   */\n      tag_355\n        /* \"#utility.yul\":5697:5701   */\n      0x60\n        /* \"#utility.yul\":5692:5695   */\n      dup6\n        /* \"#utility.yul\":5688:5702   */\n      add\n        /* \"#utility.yul\":5674:5686   */\n      dup3\n        /* \"#utility.yul\":5640:5703   */\n      tag_254\n      jump\t// in\n    tag_355:\n        /* \"#utility.yul\":5545:5713   */\n      pop\n        /* \"#utility.yul\":4957:5720   */\n      pop\n        /* \"#utility.yul\":4845:5720   */\n      pop\n      pop\n      jump\t// out\n        /* \"#utility.yul\":5726:5906   */\n    tag_106:\n        /* \"#utility.yul\":5774:5851   */\n      0x4e487b7100000000000000000000000000000000000000000000000000000000\n        /* \"#utility.yul\":5771:5772   */\n      0x00\n        /* \"#utility.yul\":5764:5852   */\n      mstore\n        /* \"#utility.yul\":5871:5875   */\n      0x21\n        /* \"#utility.yul\":5868:5869   */\n      0x04\n        /* \"#utility.yul\":5861:5876   */\n      mstore\n        /* \"#utility.yul\":5895:5899   */\n      0x24\n        /* \"#utility.yul\":5892:5893   */\n      0x00\n        /* \"#utility.yul\":5885:5900   */\n      revert\n        /* \"#utility.yul\":5912:6036   */\n    tag_256:\n        /* \"#utility.yul\":6004:6005   */\n      0x03\n        /* \"#utility.yul\":5997:6002   */\n      dup2\n        /* \"#utility.yul\":5994:6006   */\n      lt\n        /* \"#utility.yul\":5984:6030   */\n      tag_358\n      jumpi\n        /* \"#utility.yul\":6010:6028   */\n      tag_359\n      tag_106\n      jump\t// in\n    tag_359:\n        /* \"#utility.yul\":5984:6030   */\n    tag_358:\n        /* \"#utility.yul\":5912:6036   */\n      pop\n      jump\t// out\n        /* \"#utility.yul\":6042:6191   */\n    tag_257:\n        /* \"#utility.yul\":6098:6105   */\n      0x00\n        /* \"#utility.yul\":6127:6132   */\n      dup2\n        /* \"#utility.yul\":6116:6132   */\n      swap1\n      pop\n        /* \"#utility.yul\":6133:6185   */\n      tag_361\n        /* \"#utility.yul\":6179:6184   */\n      dup3\n        /* \"#utility.yul\":6133:6185   */\n      tag_256\n      jump\t// in\n    tag_361:\n        /* \"#utility.yul\":6042:6191   */\n      swap2\n      swap1\n      pop\n      jump\t// out\n        /* \"#utility.yul\":6197:6346   */\n    tag_258:\n        /* \"#utility.yul\":6264:6273   */\n      0x00\n        /* \"#utility.yul\":6297:6340   */\n      tag_363\n        /* \"#utility.yul\":6334:6339   */\n      dup3\n        /* \"#utility.yul\":6297:6340   */\n      tag_257\n      jump\t// in\n    tag_363:\n        /* \"#utility.yul\":6284:6340   */\n      swap1\n      pop\n        /* \"#utility.yul\":6197:6346   */\n      swap2\n      swap1\n      pop\n      jump\t// out\n        /* \"#utility.yul\":6352:6517   */\n    tag_259:\n        /* \"#utility.yul\":6456:6510   */\n      tag_365\n        /* \"#utility.yul\":6504:6509   */\n      dup2\n        /* \"#utility.yul\":6456:6510   */\n      tag_258\n      jump\t// in\n    tag_365:\n        /* \"#utility.yul\":6451:6454   */\n      dup3\n        /* \"#utility.yul\":6444:6511   */\n      mstore\n        /* \"#utility.yul\":6352:6517   */\n      pop\n      pop\n      jump\t// out\n        /* \"#utility.yul\":6523:6647   */\n    tag_260:\n        /* \"#utility.yul\":6615:6616   */\n      0x04\n        /* \"#utility.yul\":6608:6613   */\n      dup2\n        /* \"#utility.yul\":6605:6617   */\n      lt\n        /* \"#utility.yul\":6595:6641   */\n      tag_367\n      jumpi\n        /* \"#utility.yul\":6621:6639   */\n      tag_368\n      tag_106\n      jump\t// in\n    tag_368:\n        /* \"#utility.yul\":6595:6641   */\n    tag_367:\n        /* \"#utility.yul\":6523:6647   */\n      pop\n      jump\t// out\n        /* \"#utility.yul\":6653:6802   */\n    tag_261:\n        /* \"#utility.yul\":6709:6716   */\n      0x00\n        /* \"#utility.yul\":6738:6743   */\n      dup2\n        /* \"#utility.yul\":6727:6743   */\n      swap1\n      pop\n        /* \"#utility.yul\":6744:6796   */\n      tag_370\n        /* \"#utility.yul\":6790:6795   */\n      dup3\n        /* \"#utility.yul\":6744:6796   */\n      tag_260\n      jump\t// in\n    tag_370:\n        /* \"#utility.yul\":6653:6802   */\n      swap2\n      swap1\n      pop\n      jump\t// out\n        /* \"#utility.yul\":6808:6957   */\n    tag_262:\n        /* \"#utility.yul\":6875:6884   */\n      0x00\n        /* \"#utility.yul\":6908:6951   */\n      tag_372\n        /* \"#utility.yul\":6945:6950   */\n      dup3\n        /* \"#utility.yul\":6908:6951   */\n      tag_261\n      jump\t// in\n    tag_372:\n        /* \"#utility.yul\":6895:6951   */\n      swap1\n      pop\n        /* \"#utility.yul\":6808:6957   */\n      swap2\n      swap1\n      pop\n      jump\t// out\n        /* \"#utility.yul\":6963:7128   */\n    tag_263:\n        /* \"#utility.yul\":7067:7121   */\n      tag_374\n        /* \"#utility.yul\":7115:7120   */\n      dup2\n        /* \"#utility.yul\":7067:7121   */\n      tag_262\n      jump\t// in\n    tag_374:\n        /* \"#utility.yul\":7062:7065   */\n      dup3\n        /* \"#utility.yul\":7055:7122   */\n      mstore\n        /* \"#utility.yul\":6963:7128   */\n      pop\n      pop\n      jump\t// out\n        /* \"#utility.yul\":7134:7961   */\n    tag_52:\n        /* \"#utility.yul\":7419:7423   */\n      0x00\n        /* \"#utility.yul\":7457:7460   */\n      0x0100\n        /* \"#utility.yul\":7446:7455   */\n      dup3\n        /* \"#utility.yul\":7442:7461   */\n      add\n        /* \"#utility.yul\":7434:7461   */\n      swap1\n      pop\n        /* \"#utility.yul\":7471:7588   */\n      tag_376\n        /* \"#utility.yul\":7585:7586   */\n      0x00\n        /* \"#utility.yul\":7574:7583   */\n      dup4\n        /* \"#utility.yul\":7570:7587   */\n      add\n        /* \"#utility.yul\":7561:7567   */\n      dup9\n        /* \"#utility.yul\":7471:7588   */\n      tag_255\n      jump\t// in\n    tag_376:\n        /* \"#utility.yul\":7598:7688   */\n      tag_377\n        /* \"#utility.yul\":7683:7686   */\n      0x80\n        /* \"#utility.yul\":7672:7681   */\n      dup4\n        /* \"#utility.yul\":7668:7687   */\n      add\n        /* \"#utility.yul\":7659:7665   */\n      dup8\n        /* \"#utility.yul\":7598:7688   */\n      tag_259\n      jump\t// in\n    tag_377:\n        /* \"#utility.yul\":7698:7788   */\n      tag_378\n        /* \"#utility.yul\":7783:7786   */\n      0xa0\n        /* \"#utility.yul\":7772:7781   */\n      dup4\n        /* \"#utility.yul\":7768:7787   */\n      add\n        /* \"#utility.yul\":7759:7765   */\n      dup7\n        /* \"#utility.yul\":7698:7788   */\n      tag_263\n      jump\t// in\n    tag_378:\n        /* \"#utility.yul\":7798:7871   */\n      tag_379\n        /* \"#utility.yul\":7866:7869   */\n      0xc0\n        /* \"#utility.yul\":7855:7864   */\n      dup4\n        /* \"#utility.yul\":7851:7870   */\n      add\n        /* \"#utility.yul\":7842:7848   */\n      dup6\n        /* \"#utility.yul\":7798:7871   */\n      tag_249\n      jump\t// in\n    tag_379:\n        /* \"#utility.yul\":7881:7954   */\n      tag_380\n        /* \"#utility.yul\":7949:7952   */\n      0xe0\n        /* \"#utility.yul\":7938:7947   */\n      dup4\n        /* \"#utility.yul\":7934:7953   */\n      add\n        /* \"#utility.yul\":7925:7931   */\n      dup5\n        /* \"#utility.yul\":7881:7954   */\n      tag_249\n      jump\t// in\n    tag_380:\n        /* \"#utility.yul\":7134:7961   */\n      swap7\n      swap6\n      pop\n      pop\n      pop\n      pop\n      pop\n      pop\n      jump\t// out\n        /* \"#utility.yul\":7967:8084   */\n    tag_264:\n        /* \"#utility.yul\":8076:8077   */\n      0x00\n        /* \"#utility.yul\":8073:8074   */\n      dup1\n        /* \"#utility.yul\":8066:8078   */\n      revert\n        /* \"#utility.yul\":8090:8207   */\n    tag_265:\n        /* \"#utility.yul\":8199:8200   */\n      0x00\n        /* \"#utility.yul\":8196:8197   */\n      dup1\n        /* \"#utility.yul\":8189:8201   */\n      revert\n        /* \"#utility.yul\":8213:8330   */\n    tag_266:\n        /* \"#utility.yul\":8322:8323   */\n      0x00\n        /* \"#utility.yul\":8319:8320   */\n      dup1\n        /* \"#utility.yul\":8312:8324   */\n      revert\n        /* \"#utility.yul\":8353:8921   */\n    tag_267:\n        /* \"#utility.yul\":8426:8434   */\n      0x00\n        /* \"#utility.yul\":8436:8442   */\n      dup1\n        /* \"#utility.yul\":8486:8489   */\n      dup4\n        /* \"#utility.yul\":8479:8483   */\n      0x1f\n        /* \"#utility.yul\":8471:8477   */\n      dup5\n        /* \"#utility.yul\":8467:8484   */\n      add\n        /* \"#utility.yul\":8463:8490   */\n      slt\n        /* \"#utility.yul\":8453:8575   */\n      tag_385\n      jumpi\n        /* \"#utility.yul\":8494:8573   */\n      tag_386\n      tag_264\n      jump\t// in\n    tag_386:\n        /* \"#utility.yul\":8453:8575   */\n    tag_385:\n        /* \"#utility.yul\":8607:8613   */\n      dup3\n        /* \"#utility.yul\":8594:8614   */\n      calldataload\n        /* \"#utility.yul\":8584:8614   */\n      swap1\n      pop\n        /* \"#utility.yul\":8637:8655   */\n      0xffffffffffffffff\n        /* \"#utility.yul\":8629:8635   */\n      dup2\n        /* \"#utility.yul\":8626:8656   */\n      gt\n        /* \"#utility.yul\":8623:8740   */\n      iszero\n      tag_387\n      jumpi\n        /* \"#utility.yul\":8659:8738   */\n      tag_388\n      tag_265\n      jump\t// in\n    tag_388:\n        /* \"#utility.yul\":8623:8740   */\n    tag_387:\n        /* \"#utility.yul\":8773:8777   */\n      0x20\n        /* \"#utility.yul\":8765:8771   */\n      dup4\n        /* \"#utility.yul\":8761:8778   */\n      add\n        /* \"#utility.yul\":8749:8778   */\n      swap2\n      pop\n        /* \"#utility.yul\":8827:8830   */\n      dup4\n        /* \"#utility.yul\":8819:8823   */\n      0x20\n        /* \"#utility.yul\":8811:8817   */\n      dup3\n        /* \"#utility.yul\":8807:8824   */\n      mul\n        /* \"#utility.yul\":8797:8805   */\n      dup4\n        /* \"#utility.yul\":8793:8825   */\n      add\n        /* \"#utility.yul\":8790:8831   */\n      gt\n        /* \"#utility.yul\":8787:8915   */\n      iszero\n      tag_389\n      jumpi\n        /* \"#utility.yul\":8834:8913   */\n      tag_390\n      tag_266\n      jump\t// in\n    tag_390:\n        /* \"#utility.yul\":8787:8915   */\n    tag_389:\n        /* \"#utility.yul\":8353:8921   */\n      swap3\n      pop\n      swap3\n      swap1\n      pop\n      jump\t// out\n        /* \"#utility.yul\":8927:10298   */\n    tag_55:\n        /* \"#utility.yul\":9076:9082   */\n      0x00\n        /* \"#utility.yul\":9084:9090   */\n      dup1\n        /* \"#utility.yul\":9092:9098   */\n      0x00\n        /* \"#utility.yul\":9100:9106   */\n      dup1\n        /* \"#utility.yul\":9108:9114   */\n      0x00\n        /* \"#utility.yul\":9116:9122   */\n      dup1\n        /* \"#utility.yul\":9124:9130   */\n      0x00\n        /* \"#utility.yul\":9173:9176   */\n      0xa0\n        /* \"#utility.yul\":9161:9170   */\n      dup9\n        /* \"#utility.yul\":9152:9159   */\n      dup11\n        /* \"#utility.yul\":9148:9171   */\n      sub\n        /* \"#utility.yul\":9144:9177   */\n      slt\n        /* \"#utility.yul\":9141:9261   */\n      iszero\n      tag_392\n      jumpi\n        /* \"#utility.yul\":9180:9259   */\n      tag_393\n      tag_239\n      jump\t// in\n    tag_393:\n        /* \"#utility.yul\":9141:9261   */\n    tag_392:\n        /* \"#utility.yul\":9300:9301   */\n      0x00\n        /* \"#utility.yul\":9325:9378   */\n      tag_394\n        /* \"#utility.yul\":9370:9377   */\n      dup11\n        /* \"#utility.yul\":9361:9367   */\n      dup3\n        /* \"#utility.yul\":9350:9359   */\n      dup12\n        /* \"#utility.yul\":9346:9368   */\n      add\n        /* \"#utility.yul\":9325:9378   */\n      tag_243\n      jump\t// in\n    tag_394:\n        /* \"#utility.yul\":9315:9378   */\n      swap8\n      pop\n        /* \"#utility.yul\":9271:9388   */\n      pop\n        /* \"#utility.yul\":9455:9457   */\n      0x20\n        /* \"#utility.yul\":9444:9453   */\n      dup9\n        /* \"#utility.yul\":9440:9458   */\n      add\n        /* \"#utility.yul\":9427:9459   */\n      calldataload\n        /* \"#utility.yul\":9486:9504   */\n      0xffffffffffffffff\n        /* \"#utility.yul\":9478:9484   */\n      dup2\n        /* \"#utility.yul\":9475:9505   */\n      gt\n        /* \"#utility.yul\":9472:9589   */\n      iszero\n      tag_395\n      jumpi\n        /* \"#utility.yul\":9508:9587   */\n      tag_396\n      tag_240\n      jump\t// in\n    tag_396:\n        /* \"#utility.yul\":9472:9589   */\n    tag_395:\n        /* \"#utility.yul\":9621:9701   */\n      tag_397\n        /* \"#utility.yul\":9693:9700   */\n      dup11\n        /* \"#utility.yul\":9684:9690   */\n      dup3\n        /* \"#utility.yul\":9673:9682   */\n      dup12\n        /* \"#utility.yul\":9669:9691   */\n      add\n        /* \"#utility.yul\":9621:9701   */\n      tag_267\n      jump\t// in\n    tag_397:\n        /* \"#utility.yul\":9603:9701   */\n      swap7\n      pop\n      swap7\n      pop\n        /* \"#utility.yul\":9398:9711   */\n      pop\n        /* \"#utility.yul\":9778:9780   */\n      0x40\n        /* \"#utility.yul\":9767:9776   */\n      dup9\n        /* \"#utility.yul\":9763:9781   */\n      add\n        /* \"#utility.yul\":9750:9782   */\n      calldataload\n        /* \"#utility.yul\":9809:9827   */\n      0xffffffffffffffff\n        /* \"#utility.yul\":9801:9807   */\n      dup2\n        /* \"#utility.yul\":9798:9828   */\n      gt\n        /* \"#utility.yul\":9795:9912   */\n      iszero\n      tag_398\n      jumpi\n        /* \"#utility.yul\":9831:9910   */\n      tag_399\n      tag_240\n      jump\t// in\n    tag_399:\n        /* \"#utility.yul\":9795:9912   */\n    tag_398:\n        /* \"#utility.yul\":9944:10024   */\n      tag_400\n        /* \"#utility.yul\":10016:10023   */\n      dup11\n        /* \"#utility.yul\":10007:10013   */\n      dup3\n        /* \"#utility.yul\":9996:10005   */\n      dup12\n        /* \"#utility.yul\":9992:10014   */\n      add\n        /* \"#utility.yul\":9944:10024   */\n      tag_267\n      jump\t// in\n    tag_400:\n        /* \"#utility.yul\":9926:10024   */\n      swap5\n      pop\n      swap5\n      pop\n        /* \"#utility.yul\":9721:10034   */\n      pop\n        /* \"#utility.yul\":10073:10075   */\n      0x60\n        /* \"#utility.yul\":10099:10152   */\n      tag_401\n        /* \"#utility.yul\":10144:10151   */\n      dup11\n        /* \"#utility.yul\":10135:10141   */\n      dup3\n        /* \"#utility.yul\":10124:10133   */\n      dup12\n        /* \"#utility.yul\":10120:10142   */\n      add\n        /* \"#utility.yul\":10099:10152   */\n      tag_243\n      jump\t// in\n    tag_401:\n        /* \"#utility.yul\":10089:10152   */\n      swap3\n      pop\n        /* \"#utility.yul\":10044:10162   */\n      pop\n        /* \"#utility.yul\":10201:10204   */\n      0x80\n        /* \"#utility.yul\":10228:10281   */\n      tag_402\n        /* \"#utility.yul\":10273:10280   */\n      dup11\n        /* \"#utility.yul\":10264:10270   */\n      dup3\n        /* \"#utility.yul\":10253:10262   */\n      dup12\n        /* \"#utility.yul\":10249:10271   */\n      add\n        /* \"#utility.yul\":10228:10281   */\n      tag_243\n      jump\t// in\n    tag_402:\n        /* \"#utility.yul\":10218:10281   */\n      swap2\n      pop\n        /* \"#utility.yul\":10172:10291   */\n      pop\n        /* \"#utility.yul\":8927:10298   */\n      swap3\n      swap6\n      swap9\n      swap2\n      swap5\n      swap8\n      pop\n      swap3\n      swap6\n      pop\n      jump\t// out\n        /* \"#utility.yul\":10304:10422   */\n    tag_268:\n        /* \"#utility.yul\":10391:10415   */\n      tag_404\n        /* \"#utility.yul\":10409:10414   */\n      dup2\n        /* \"#utility.yul\":10391:10415   */\n      tag_251\n      jump\t// in\n    tag_404:\n        /* \"#utility.yul\":10386:10389   */\n      dup3\n        /* \"#utility.yul\":10379:10416   */\n      mstore\n        /* \"#utility.yul\":10304:10422   */\n      pop\n      pop\n      jump\t// out\n        /* \"#utility.yul\":10428:10650   */\n    tag_61:\n        /* \"#utility.yul\":10521:10525   */\n      0x00\n        /* \"#utility.yul\":10559:10561   */\n      0x20\n        /* \"#utility.yul\":10548:10557   */\n      dup3\n        /* \"#utility.yul\":10544:10562   */\n      add\n        /* \"#utility.yul\":10536:10562   */\n      swap1\n      pop\n        /* \"#utility.yul\":10572:10643   */\n      tag_406\n        /* \"#utility.yul\":10640:10641   */\n      0x00\n        /* \"#utility.yul\":10629:10638   */\n      dup4\n        /* \"#utility.yul\":10625:10642   */\n      add\n        /* \"#utility.yul\":10616:10622   */\n      dup5\n        /* \"#utility.yul\":10572:10643   */\n      tag_268\n      jump\t// in\n    tag_406:\n        /* \"#utility.yul\":10428:10650   */\n      swap3\n      swap2\n      pop\n      pop\n      jump\t// out\n        /* \"#utility.yul\":10656:10988   */\n    tag_70:\n        /* \"#utility.yul\":10777:10781   */\n      0x00\n        /* \"#utility.yul\":10815:10817   */\n      0x40\n        /* \"#utility.yul\":10804:10813   */\n      dup3\n        /* \"#utility.yul\":10800:10818   */\n      add\n        /* \"#utility.yul\":10792:10818   */\n      swap1\n      pop\n        /* \"#utility.yul\":10828:10899   */\n      tag_408\n        /* \"#utility.yul\":10896:10897   */\n      0x00\n        /* \"#utility.yul\":10885:10894   */\n      dup4\n        /* \"#utility.yul\":10881:10898   */\n      add\n        /* \"#utility.yul\":10872:10878   */\n      dup6\n        /* \"#utility.yul\":10828:10899   */\n      tag_249\n      jump\t// in\n    tag_408:\n        /* \"#utility.yul\":10909:10981   */\n      tag_409\n        /* \"#utility.yul\":10977:10979   */\n      0x20\n        /* \"#utility.yul\":10966:10975   */\n      dup4\n        /* \"#utility.yul\":10962:10980   */\n      add\n        /* \"#utility.yul\":10953:10959   */\n      dup5\n        /* \"#utility.yul\":10909:10981   */\n      tag_249\n      jump\t// in\n    tag_409:\n        /* \"#utility.yul\":10656:10988   */\n      swap4\n      swap3\n      pop\n      pop\n      pop\n      jump\t// out\n        /* \"#utility.yul\":10994:11108   */\n    tag_269:\n        /* \"#utility.yul\":11061:11067   */\n      0x00\n        /* \"#utility.yul\":11095:11100   */\n      dup2\n        /* \"#utility.yul\":11089:11101   */\n      mload\n        /* \"#utility.yul\":11079:11101   */\n      swap1\n      pop\n        /* \"#utility.yul\":10994:11108   */\n      swap2\n      swap1\n      pop\n      jump\t// out\n        /* \"#utility.yul\":11114:11298   */\n    tag_270:\n        /* \"#utility.yul\":11213:11224   */\n      0x00\n        /* \"#utility.yul\":11247:11253   */\n      dup3\n        /* \"#utility.yul\":11242:11245   */\n      dup3\n        /* \"#utility.yul\":11235:11254   */\n      mstore\n        /* \"#utility.yul\":11287:11291   */\n      0x20\n        /* \"#utility.yul\":11282:11285   */\n      dup3\n        /* \"#utility.yul\":11278:11292   */\n      add\n        /* \"#utility.yul\":11263:11292   */\n      swap1\n      pop\n        /* \"#utility.yul\":11114:11298   */\n      swap3\n      swap2\n      pop\n      pop\n      jump\t// out\n        /* \"#utility.yul\":11304:11436   */\n    tag_271:\n        /* \"#utility.yul\":11371:11375   */\n      0x00\n        /* \"#utility.yul\":11394:11397   */\n      dup2\n        /* \"#utility.yul\":11386:11397   */\n      swap1\n      pop\n        /* \"#utility.yul\":11424:11428   */\n      0x20\n        /* \"#utility.yul\":11419:11422   */\n      dup3\n        /* \"#utility.yul\":11415:11429   */\n      add\n        /* \"#utility.yul\":11407:11429   */\n      swap1\n      pop\n        /* \"#utility.yul\":11304:11436   */\n      swap2\n      swap1\n      pop\n      jump\t// out\n        /* \"#utility.yul\":11442:11550   */\n    tag_272:\n        /* \"#utility.yul\":11519:11543   */\n      tag_414\n        /* \"#utility.yul\":11537:11542   */\n      dup2\n        /* \"#utility.yul\":11519:11543   */\n      tag_251\n      jump\t// in\n    tag_414:\n        /* \"#utility.yul\":11514:11517   */\n      dup3\n        /* \"#utility.yul\":11507:11544   */\n      mstore\n        /* \"#utility.yul\":11442:11550   */\n      pop\n      pop\n      jump\t// out\n        /* \"#utility.yul\":11556:11735   */\n    tag_273:\n        /* \"#utility.yul\":11625:11635   */\n      0x00\n        /* \"#utility.yul\":11646:11692   */\n      tag_416\n        /* \"#utility.yul\":11688:11691   */\n      dup4\n        /* \"#utility.yul\":11680:11686   */\n      dup4\n        /* \"#utility.yul\":11646:11692   */\n      tag_272\n      jump\t// in\n    tag_416:\n        /* \"#utility.yul\":11724:11728   */\n      0x20\n        /* \"#utility.yul\":11719:11722   */\n      dup4\n        /* \"#utility.yul\":11715:11729   */\n      add\n        /* \"#utility.yul\":11701:11729   */\n      swap1\n      pop\n        /* \"#utility.yul\":11556:11735   */\n      swap3\n      swap2\n      pop\n      pop\n      jump\t// out\n        /* \"#utility.yul\":11741:11854   */\n    tag_274:\n        /* \"#utility.yul\":11811:11815   */\n      0x00\n        /* \"#utility.yul\":11843:11847   */\n      0x20\n        /* \"#utility.yul\":11838:11841   */\n      dup3\n        /* \"#utility.yul\":11834:11848   */\n      add\n        /* \"#utility.yul\":11826:11848   */\n      swap1\n      pop\n        /* \"#utility.yul\":11741:11854   */\n      swap2\n      swap1\n      pop\n      jump\t// out\n        /* \"#utility.yul\":11890:12622   */\n    tag_275:\n        /* \"#utility.yul\":12009:12012   */\n      0x00\n        /* \"#utility.yul\":12038:12092   */\n      tag_419\n        /* \"#utility.yul\":12086:12091   */\n      dup3\n        /* \"#utility.yul\":12038:12092   */\n      tag_269\n      jump\t// in\n    tag_419:\n        /* \"#utility.yul\":12108:12194   */\n      tag_420\n        /* \"#utility.yul\":12187:12193   */\n      dup2\n        /* \"#utility.yul\":12182:12185   */\n      dup6\n        /* \"#utility.yul\":12108:12194   */\n      tag_270\n      jump\t// in\n    tag_420:\n        /* \"#utility.yul\":12101:12194   */\n      swap4\n      pop\n        /* \"#utility.yul\":12218:12274   */\n      tag_421\n        /* \"#utility.yul\":12268:12273   */\n      dup4\n        /* \"#utility.yul\":12218:12274   */\n      tag_271\n      jump\t// in\n    tag_421:\n        /* \"#utility.yul\":12297:12304   */\n      dup1\n        /* \"#utility.yul\":12328:12329   */\n      0x00\n        /* \"#utility.yul\":12313:12597   */\n    tag_422:\n        /* \"#utility.yul\":12338:12344   */\n      dup4\n        /* \"#utility.yul\":12335:12336   */\n      dup2\n        /* \"#utility.yul\":12332:12345   */\n      lt\n        /* \"#utility.yul\":12313:12597   */\n      iszero\n      tag_424\n      jumpi\n        /* \"#utility.yul\":12414:12420   */\n      dup2\n        /* \"#utility.yul\":12408:12421   */\n      mload\n        /* \"#utility.yul\":12441:12504   */\n      tag_425\n        /* \"#utility.yul\":12500:12503   */\n      dup9\n        /* \"#utility.yul\":12485:12498   */\n      dup3\n        /* \"#utility.yul\":12441:12504   */\n      tag_273\n      jump\t// in\n    tag_425:\n        /* \"#utility.yul\":12434:12504   */\n      swap8\n      pop\n        /* \"#utility.yul\":12527:12587   */\n      tag_426\n        /* \"#utility.yul\":12580:12586   */\n      dup4\n        /* \"#utility.yul\":12527:12587   */\n      tag_274\n      jump\t// in\n    tag_426:\n        /* \"#utility.yul\":12517:12587   */\n      swap3\n      pop\n        /* \"#utility.yul\":12373:12597   */\n      pop\n        /* \"#utility.yul\":12360:12361   */\n      0x01\n        /* \"#utility.yul\":12357:12358   */\n      dup2\n        /* \"#utility.yul\":12353:12362   */\n      add\n        /* \"#utility.yul\":12348:12362   */\n      swap1\n      pop\n        /* \"#utility.yul\":12313:12597   */\n      jump(tag_422)\n    tag_424:\n        /* \"#utility.yul\":12317:12331   */\n      pop\n        /* \"#utility.yul\":12613:12616   */\n      dup6\n        /* \"#utility.yul\":12606:12616   */\n      swap4\n      pop\n        /* \"#utility.yul\":12014:12622   */\n      pop\n      pop\n      pop\n        /* \"#utility.yul\":11890:12622   */\n      swap3\n      swap2\n      pop\n      pop\n      jump\t// out\n        /* \"#utility.yul\":12628:13816   */\n    tag_78:\n        /* \"#utility.yul\":12989:12993   */\n      0x00\n        /* \"#utility.yul\":13027:13030   */\n      0xe0\n        /* \"#utility.yul\":13016:13025   */\n      dup3\n        /* \"#utility.yul\":13012:13031   */\n      add\n        /* \"#utility.yul\":13004:13031   */\n      swap1\n      pop\n        /* \"#utility.yul\":13041:13112   */\n      tag_428\n        /* \"#utility.yul\":13109:13110   */\n      0x00\n        /* \"#utility.yul\":13098:13107   */\n      dup4\n        /* \"#utility.yul\":13094:13111   */\n      add\n        /* \"#utility.yul\":13085:13091   */\n      dup11\n        /* \"#utility.yul\":13041:13112   */\n      tag_249\n      jump\t// in\n    tag_428:\n        /* \"#utility.yul\":13122:13194   */\n      tag_429\n        /* \"#utility.yul\":13190:13192   */\n      0x20\n        /* \"#utility.yul\":13179:13188   */\n      dup4\n        /* \"#utility.yul\":13175:13193   */\n      add\n        /* \"#utility.yul\":13166:13172   */\n      dup10\n        /* \"#utility.yul\":13122:13194   */\n      tag_249\n      jump\t// in\n    tag_429:\n        /* \"#utility.yul\":13241:13250   */\n      dup2\n        /* \"#utility.yul\":13235:13239   */\n      dup2\n        /* \"#utility.yul\":13231:13251   */\n      sub\n        /* \"#utility.yul\":13226:13228   */\n      0x40\n        /* \"#utility.yul\":13215:13224   */\n      dup4\n        /* \"#utility.yul\":13211:13229   */\n      add\n        /* \"#utility.yul\":13204:13252   */\n      mstore\n        /* \"#utility.yul\":13269:13377   */\n      tag_430\n        /* \"#utility.yul\":13372:13376   */\n      dup2\n        /* \"#utility.yul\":13363:13369   */\n      dup9\n        /* \"#utility.yul\":13269:13377   */\n      tag_275\n      jump\t// in\n    tag_430:\n        /* \"#utility.yul\":13261:13377   */\n      swap1\n      pop\n        /* \"#utility.yul\":13424:13433   */\n      dup2\n        /* \"#utility.yul\":13418:13422   */\n      dup2\n        /* \"#utility.yul\":13414:13434   */\n      sub\n        /* \"#utility.yul\":13409:13411   */\n      0x60\n        /* \"#utility.yul\":13398:13407   */\n      dup4\n        /* \"#utility.yul\":13394:13412   */\n      add\n        /* \"#utility.yul\":13387:13435   */\n      mstore\n        /* \"#utility.yul\":13452:13560   */\n      tag_431\n        /* \"#utility.yul\":13555:13559   */\n      dup2\n        /* \"#utility.yul\":13546:13552   */\n      dup8\n        /* \"#utility.yul\":13452:13560   */\n      tag_275\n      jump\t// in\n    tag_431:\n        /* \"#utility.yul\":13444:13560   */\n      swap1\n      pop\n        /* \"#utility.yul\":13570:13643   */\n      tag_432\n        /* \"#utility.yul\":13638:13641   */\n      0x80\n        /* \"#utility.yul\":13627:13636   */\n      dup4\n        /* \"#utility.yul\":13623:13642   */\n      add\n        /* \"#utility.yul\":13614:13620   */\n      dup7\n        /* \"#utility.yul\":13570:13643   */\n      tag_249\n      jump\t// in\n    tag_432:\n        /* \"#utility.yul\":13653:13726   */\n      tag_433\n        /* \"#utility.yul\":13721:13724   */\n      0xa0\n        /* \"#utility.yul\":13710:13719   */\n      dup4\n        /* \"#utility.yul\":13706:13725   */\n      add\n        /* \"#utility.yul\":13697:13703   */\n      dup6\n        /* \"#utility.yul\":13653:13726   */\n      tag_249\n      jump\t// in\n    tag_433:\n        /* \"#utility.yul\":13736:13809   */\n      tag_434\n        /* \"#utility.yul\":13804:13807   */\n      0xc0\n        /* \"#utility.yul\":13793:13802   */\n      dup4\n        /* \"#utility.yul\":13789:13808   */\n      add\n        /* \"#utility.yul\":13780:13786   */\n      dup5\n        /* \"#utility.yul\":13736:13809   */\n      tag_249\n      jump\t// in\n    tag_434:\n        /* \"#utility.yul\":12628:13816   */\n      swap9\n      swap8\n      pop\n      pop\n      pop\n      pop\n      pop\n      pop\n      pop\n      pop\n      jump\t// out\n        /* \"#utility.yul\":13822:13991   */\n    tag_276:\n        /* \"#utility.yul\":13906:13917   */\n      0x00\n        /* \"#utility.yul\":13940:13946   */\n      dup3\n        /* \"#utility.yul\":13935:13938   */\n      dup3\n        /* \"#utility.yul\":13928:13947   */\n      mstore\n        /* \"#utility.yul\":13980:13984   */\n      0x20\n        /* \"#utility.yul\":13975:13978   */\n      dup3\n        /* \"#utility.yul\":13971:13985   */\n      add\n        /* \"#utility.yul\":13956:13985   */\n      swap1\n      pop\n        /* \"#utility.yul\":13822:13991   */\n      swap3\n      swap2\n      pop\n      pop\n      jump\t// out\n        /* \"#utility.yul\":13997:14237   */\n    tag_277:\n        /* \"#utility.yul\":14137:14171   */\n      0x546f2063616c6c2074686973206d6574686f6420796f75206861766520746f20\n        /* \"#utility.yul\":14133:14134   */\n      0x00\n        /* \"#utility.yul\":14125:14131   */\n      dup3\n        /* \"#utility.yul\":14121:14135   */\n      add\n        /* \"#utility.yul\":14114:14172   */\n      mstore\n        /* \"#utility.yul\":14206:14229   */\n      0x6265206f776e6572206f722073756241646d696e210000000000000000000000\n        /* \"#utility.yul\":14201:14203   */\n      0x20\n        /* \"#utility.yul\":14193:14199   */\n      dup3\n        /* \"#utility.yul\":14189:14204   */\n      add\n        /* \"#utility.yul\":14182:14230   */\n      mstore\n        /* \"#utility.yul\":13997:14237   */\n      pop\n      jump\t// out\n        /* \"#utility.yul\":14243:14609   */\n    tag_278:\n        /* \"#utility.yul\":14385:14388   */\n      0x00\n        /* \"#utility.yul\":14406:14473   */\n      tag_438\n        /* \"#utility.yul\":14470:14472   */\n      0x35\n        /* \"#utility.yul\":14465:14468   */\n      dup4\n        /* \"#utility.yul\":14406:14473   */\n      tag_276\n      jump\t// in\n    tag_438:\n        /* \"#utility.yul\":14399:14473   */\n      swap2\n      pop\n        /* \"#utility.yul\":14482:14575   */\n      tag_439\n        /* \"#utility.yul\":14571:14574   */\n      dup3\n        /* \"#utility.yul\":14482:14575   */\n      tag_277\n      jump\t// in\n    tag_439:\n        /* \"#utility.yul\":14600:14602   */\n      0x40\n        /* \"#utility.yul\":14595:14598   */\n      dup3\n        /* \"#utility.yul\":14591:14603   */\n      add\n        /* \"#utility.yul\":14584:14603   */\n      swap1\n      pop\n        /* \"#utility.yul\":14243:14609   */\n      swap2\n      swap1\n      pop\n      jump\t// out\n        /* \"#utility.yul\":14615:15034   */\n    tag_92:\n        /* \"#utility.yul\":14781:14785   */\n      0x00\n        /* \"#utility.yul\":14819:14821   */\n      0x20\n        /* \"#utility.yul\":14808:14817   */\n      dup3\n        /* \"#utility.yul\":14804:14822   */\n      add\n        /* \"#utility.yul\":14796:14822   */\n      swap1\n      pop\n        /* \"#utility.yul\":14868:14877   */\n      dup2\n        /* \"#utility.yul\":14862:14866   */\n      dup2\n        /* \"#utility.yul\":14858:14878   */\n      sub\n        /* \"#utility.yul\":14854:14855   */\n      0x00\n        /* \"#utility.yul\":14843:14852   */\n      dup4\n        /* \"#utility.yul\":14839:14856   */\n      add\n        /* \"#utility.yul\":14832:14879   */\n      mstore\n        /* \"#utility.yul\":14896:15027   */\n      tag_441\n        /* \"#utility.yul\":15022:15026   */\n      dup2\n        /* \"#utility.yul\":14896:15027   */\n      tag_278\n      jump\t// in\n    tag_441:\n        /* \"#utility.yul\":14888:15027   */\n      swap1\n      pop\n        /* \"#utility.yul\":14615:15034   */\n      swap2\n      swap1\n      pop\n      jump\t// out\n        /* \"#utility.yul\":15040:15270   */\n    tag_279:\n        /* \"#utility.yul\":15180:15214   */\n      0x63616e27742066696e6420636f6d706574696f6e207769746820746869732063\n        /* \"#utility.yul\":15176:15177   */\n      0x00\n        /* \"#utility.yul\":15168:15174   */\n      dup3\n        /* \"#utility.yul\":15164:15178   */\n      add\n        /* \"#utility.yul\":15157:15215   */\n      mstore\n        /* \"#utility.yul\":15249:15262   */\n      0x6f6d706574696f6e496421000000000000000000000000000000000000000000\n        /* \"#utility.yul\":15244:15246   */\n      0x20\n        /* \"#utility.yul\":15236:15242   */\n      dup3\n        /* \"#utility.yul\":15232:15247   */\n      add\n        /* \"#utility.yul\":15225:15263   */\n      mstore\n        /* \"#utility.yul\":15040:15270   */\n      pop\n      jump\t// out\n        /* \"#utility.yul\":15276:15642   */\n    tag_280:\n        /* \"#utility.yul\":15418:15421   */\n      0x00\n        /* \"#utility.yul\":15439:15506   */\n      tag_444\n        /* \"#utility.yul\":15503:15505   */\n      0x2b\n        /* \"#utility.yul\":15498:15501   */\n      dup4\n        /* \"#utility.yul\":15439:15506   */\n      tag_276\n      jump\t// in\n    tag_444:\n        /* \"#utility.yul\":15432:15506   */\n      swap2\n      pop\n        /* \"#utility.yul\":15515:15608   */\n      tag_445\n        /* \"#utility.yul\":15604:15607   */\n      dup3\n        /* \"#utility.yul\":15515:15608   */\n      tag_279\n      jump\t// in\n    tag_445:\n        /* \"#utility.yul\":15633:15635   */\n      0x40\n        /* \"#utility.yul\":15628:15631   */\n      dup3\n        /* \"#utility.yul\":15624:15636   */\n      add\n        /* \"#utility.yul\":15617:15636   */\n      swap1\n      pop\n        /* \"#utility.yul\":15276:15642   */\n      swap2\n      swap1\n      pop\n      jump\t// out\n        /* \"#utility.yul\":15648:16067   */\n    tag_98:\n        /* \"#utility.yul\":15814:15818   */\n      0x00\n        /* \"#utility.yul\":15852:15854   */\n      0x20\n        /* \"#utility.yul\":15841:15850   */\n      dup3\n        /* \"#utility.yul\":15837:15855   */\n      add\n        /* \"#utility.yul\":15829:15855   */\n      swap1\n      pop\n        /* \"#utility.yul\":15901:15910   */\n      dup2\n        /* \"#utility.yul\":15895:15899   */\n      dup2\n        /* \"#utility.yul\":15891:15911   */\n      sub\n        /* \"#utility.yul\":15887:15888   */\n      0x00\n        /* \"#utility.yul\":15876:15885   */\n      dup4\n        /* \"#utility.yul\":15872:15889   */\n      add\n        /* \"#utility.yul\":15865:15912   */\n      mstore\n        /* \"#utility.yul\":15929:16060   */\n      tag_447\n        /* \"#utility.yul\":16055:16059   */\n      dup2\n        /* \"#utility.yul\":15929:16060   */\n      tag_280\n      jump\t// in\n    tag_447:\n        /* \"#utility.yul\":15921:16060   */\n      swap1\n      pop\n        /* \"#utility.yul\":15648:16067   */\n      swap2\n      swap1\n      pop\n      jump\t// out\n        /* \"#utility.yul\":16073:16300   */\n    tag_281:\n        /* \"#utility.yul\":16213:16247   */\n      0x737461747573206e65656420746f20626520736f6d74696e6720626574776565\n        /* \"#utility.yul\":16209:16210   */\n      0x00\n        /* \"#utility.yul\":16201:16207   */\n      dup3\n        /* \"#utility.yul\":16197:16211   */\n      add\n        /* \"#utility.yul\":16190:16248   */\n      mstore\n        /* \"#utility.yul\":16282:16292   */\n      0x6e203020746f2032000000000000000000000000000000000000000000000000\n        /* \"#utility.yul\":16277:16279   */\n      0x20\n        /* \"#utility.yul\":16269:16275   */\n      dup3\n        /* \"#utility.yul\":16265:16280   */\n      add\n        /* \"#utility.yul\":16258:16293   */\n      mstore\n        /* \"#utility.yul\":16073:16300   */\n      pop\n      jump\t// out\n        /* \"#utility.yul\":16306:16672   */\n    tag_282:\n        /* \"#utility.yul\":16448:16451   */\n      0x00\n        /* \"#utility.yul\":16469:16536   */\n      tag_450\n        /* \"#utility.yul\":16533:16535   */\n      0x28\n        /* \"#utility.yul\":16528:16531   */\n      dup4\n        /* \"#utility.yul\":16469:16536   */\n      tag_276\n      jump\t// in\n    tag_450:\n        /* \"#utility.yul\":16462:16536   */\n      swap2\n      pop\n        /* \"#utility.yul\":16545:16638   */\n      tag_451\n        /* \"#utility.yul\":16634:16637   */\n      dup3\n        /* \"#utility.yul\":16545:16638   */\n      tag_281\n      jump\t// in\n    tag_451:\n        /* \"#utility.yul\":16663:16665   */\n      0x40\n        /* \"#utility.yul\":16658:16661   */\n      dup3\n        /* \"#utility.yul\":16654:16666   */\n      add\n        /* \"#utility.yul\":16647:16666   */\n      swap1\n      pop\n        /* \"#utility.yul\":16306:16672   */\n      swap2\n      swap1\n      pop\n      jump\t// out\n        /* \"#utility.yul\":16678:17097   */\n    tag_102:\n        /* \"#utility.yul\":16844:16848   */\n      0x00\n        /* \"#utility.yul\":16882:16884   */\n      0x20\n        /* \"#utility.yul\":16871:16880   */\n      dup3\n        /* \"#utility.yul\":16867:16885   */\n      add\n        /* \"#utility.yul\":16859:16885   */\n      swap1\n      pop\n        /* \"#utility.yul\":16931:16940   */\n      dup2\n        /* \"#utility.yul\":16925:16929   */\n      dup2\n        /* \"#utility.yul\":16921:16941   */\n      sub\n        /* \"#utility.yul\":16917:16918   */\n      0x00\n        /* \"#utility.yul\":16906:16915   */\n      dup4\n        /* \"#utility.yul\":16902:16919   */\n      add\n        /* \"#utility.yul\":16895:16942   */\n      mstore\n        /* \"#utility.yul\":16959:17090   */\n      tag_453\n        /* \"#utility.yul\":17085:17089   */\n      dup2\n        /* \"#utility.yul\":16959:17090   */\n      tag_282\n      jump\t// in\n    tag_453:\n        /* \"#utility.yul\":16951:17090   */\n      swap1\n      pop\n        /* \"#utility.yul\":16678:17097   */\n      swap2\n      swap1\n      pop\n      jump\t// out\n        /* \"#utility.yul\":17103:17285   */\n    tag_283:\n        /* \"#utility.yul\":17243:17277   */\n      0x4f776e61626c653a2063616c6c6572206973206e6f7420746865206f776e6572\n        /* \"#utility.yul\":17239:17240   */\n      0x00\n        /* \"#utility.yul\":17231:17237   */\n      dup3\n        /* \"#utility.yul\":17227:17241   */\n      add\n        /* \"#utility.yul\":17220:17278   */\n      mstore\n        /* \"#utility.yul\":17103:17285   */\n      pop\n      jump\t// out\n        /* \"#utility.yul\":17291:17657   */\n    tag_284:\n        /* \"#utility.yul\":17433:17436   */\n      0x00\n        /* \"#utility.yul\":17454:17521   */\n      tag_456\n        /* \"#utility.yul\":17518:17520   */\n      0x20\n        /* \"#utility.yul\":17513:17516   */\n      dup4\n        /* \"#utility.yul\":17454:17521   */\n      tag_276\n      jump\t// in\n    tag_456:\n        /* \"#utility.yul\":17447:17521   */\n      swap2\n      pop\n        /* \"#utility.yul\":17530:17623   */\n      tag_457\n        /* \"#utility.yul\":17619:17622   */\n      dup3\n        /* \"#utility.yul\":17530:17623   */\n      tag_283\n      jump\t// in\n    tag_457:\n        /* \"#utility.yul\":17648:17650   */\n      0x20\n        /* \"#utility.yul\":17643:17646   */\n      dup3\n        /* \"#utility.yul\":17639:17651   */\n      add\n        /* \"#utility.yul\":17632:17651   */\n      swap1\n      pop\n        /* \"#utility.yul\":17291:17657   */\n      swap2\n      swap1\n      pop\n      jump\t// out\n        /* \"#utility.yul\":17663:18082   */\n    tag_120:\n        /* \"#utility.yul\":17829:17833   */\n      0x00\n        /* \"#utility.yul\":17867:17869   */\n      0x20\n        /* \"#utility.yul\":17856:17865   */\n      dup3\n        /* \"#utility.yul\":17852:17870   */\n      add\n        /* \"#utility.yul\":17844:17870   */\n      swap1\n      pop\n        /* \"#utility.yul\":17916:17925   */\n      dup2\n        /* \"#utility.yul\":17910:17914   */\n      dup2\n        /* \"#utility.yul\":17906:17926   */\n      sub\n        /* \"#utility.yul\":17902:17903   */\n      0x00\n        /* \"#utility.yul\":17891:17900   */\n      dup4\n        /* \"#utility.yul\":17887:17904   */\n      add\n        /* \"#utility.yul\":17880:17927   */\n      mstore\n        /* \"#utility.yul\":17944:18075   */\n      tag_459\n        /* \"#utility.yul\":18070:18074   */\n      dup2\n        /* \"#utility.yul\":17944:18075   */\n      tag_284\n      jump\t// in\n    tag_459:\n        /* \"#utility.yul\":17936:18075   */\n      swap1\n      pop\n        /* \"#utility.yul\":17663:18082   */\n      swap2\n      swap1\n      pop\n      jump\t// out\n        /* \"#utility.yul\":18088:18268   */\n    tag_285:\n        /* \"#utility.yul\":18136:18213   */\n      0x4e487b7100000000000000000000000000000000000000000000000000000000\n        /* \"#utility.yul\":18133:18134   */\n      0x00\n        /* \"#utility.yul\":18126:18214   */\n      mstore\n        /* \"#utility.yul\":18233:18237   */\n      0x11\n        /* \"#utility.yul\":18230:18231   */\n      0x04\n        /* \"#utility.yul\":18223:18238   */\n      mstore\n        /* \"#utility.yul\":18257:18261   */\n      0x24\n        /* \"#utility.yul\":18254:18255   */\n      0x00\n        /* \"#utility.yul\":18247:18262   */\n      revert\n        /* \"#utility.yul\":18274:18465   */\n    tag_124:\n        /* \"#utility.yul\":18314:18318   */\n      0x00\n        /* \"#utility.yul\":18334:18354   */\n      tag_462\n        /* \"#utility.yul\":18352:18353   */\n      dup3\n        /* \"#utility.yul\":18334:18354   */\n      tag_241\n      jump\t// in\n    tag_462:\n        /* \"#utility.yul\":18329:18354   */\n      swap2\n      pop\n        /* \"#utility.yul\":18368:18388   */\n      tag_463\n        /* \"#utility.yul\":18386:18387   */\n      dup4\n        /* \"#utility.yul\":18368:18388   */\n      tag_241\n      jump\t// in\n    tag_463:\n        /* \"#utility.yul\":18363:18388   */\n      swap3\n      pop\n        /* \"#utility.yul\":18407:18408   */\n      dup3\n        /* \"#utility.yul\":18404:18405   */\n      dup3\n        /* \"#utility.yul\":18401:18409   */\n      lt\n        /* \"#utility.yul\":18398:18432   */\n      iszero\n      tag_464\n      jumpi\n        /* \"#utility.yul\":18412:18430   */\n      tag_465\n      tag_285\n      jump\t// in\n    tag_465:\n        /* \"#utility.yul\":18398:18432   */\n    tag_464:\n        /* \"#utility.yul\":18457:18458   */\n      dup3\n        /* \"#utility.yul\":18454:18455   */\n      dup3\n        /* \"#utility.yul\":18450:18459   */\n      sub\n        /* \"#utility.yul\":18442:18459   */\n      swap1\n      pop\n        /* \"#utility.yul\":18274:18465   */\n      swap3\n      swap2\n      pop\n      pop\n      jump\t// out\n        /* \"#utility.yul\":18471:18776   */\n    tag_144:\n        /* \"#utility.yul\":18511:18514   */\n      0x00\n        /* \"#utility.yul\":18530:18550   */\n      tag_467\n        /* \"#utility.yul\":18548:18549   */\n      dup3\n        /* \"#utility.yul\":18530:18550   */\n      tag_241\n      jump\t// in\n    tag_467:\n        /* \"#utility.yul\":18525:18550   */\n      swap2\n      pop\n        /* \"#utility.yul\":18564:18584   */\n      tag_468\n        /* \"#utility.yul\":18582:18583   */\n      dup4\n        /* \"#utility.yul\":18564:18584   */\n      tag_241\n      jump\t// in\n    tag_468:\n        /* \"#utility.yul\":18559:18584   */\n      swap3\n      pop\n        /* \"#utility.yul\":18718:18719   */\n      dup3\n        /* \"#utility.yul\":18650:18716   */\n      0xffffffffffffffffffffffffffffffffffffffffffffffffffffffffffffffff\n        /* \"#utility.yul\":18646:18720   */\n      sub\n        /* \"#utility.yul\":18643:18644   */\n      dup3\n        /* \"#utility.yul\":18640:18721   */\n      gt\n        /* \"#utility.yul\":18637:18744   */\n      iszero\n      tag_469\n      jumpi\n        /* \"#utility.yul\":18724:18742   */\n      tag_470\n      tag_285\n      jump\t// in\n    tag_470:\n        /* \"#utility.yul\":18637:18744   */\n    tag_469:\n        /* \"#utility.yul\":18768:18769   */\n      dup3\n        /* \"#utility.yul\":18765:18766   */\n      dup3\n        /* \"#utility.yul\":18761:18770   */\n      add\n        /* \"#utility.yul\":18754:18770   */\n      swap1\n      pop\n        /* \"#utility.yul\":18471:18776   */\n      swap3\n      swap2\n      pop\n      pop\n      jump\t// out\n        /* \"#utility.yul\":18782:18963   */\n    tag_286:\n        /* \"#utility.yul\":18922:18955   */\n      0x63616e27742066696e6420707265736574207769746820746869732069642100\n        /* \"#utility.yul\":18918:18919   */\n      0x00\n        /* \"#utility.yul\":18910:18916   */\n      dup3\n        /* \"#utility.yul\":18906:18920   */\n      add\n        /* \"#utility.yul\":18899:18956   */\n      mstore\n        /* \"#utility.yul\":18782:18963   */\n      pop\n      jump\t// out\n        /* \"#utility.yul\":18969:19335   */\n    tag_287:\n        /* \"#utility.yul\":19111:19114   */\n      0x00\n        /* \"#utility.yul\":19132:19199   */\n      tag_473\n        /* \"#utility.yul\":19196:19198   */\n      0x1f\n        /* \"#utility.yul\":19191:19194   */\n      dup4\n        /* \"#utility.yul\":19132:19199   */\n      tag_276\n      jump\t// in\n    tag_473:\n        /* \"#utility.yul\":19125:19199   */\n      swap2\n      pop\n        /* \"#utility.yul\":19208:19301   */\n      tag_474\n        /* \"#utility.yul\":19297:19300   */\n      dup3\n        /* \"#utility.yul\":19208:19301   */\n      tag_286\n      jump\t// in\n    tag_474:\n        /* \"#utility.yul\":19326:19328   */\n      0x20\n        /* \"#utility.yul\":19321:19324   */\n      dup3\n        /* \"#utility.yul\":19317:19329   */\n      add\n        /* \"#utility.yul\":19310:19329   */\n      swap1\n      pop\n        /* \"#utility.yul\":18969:19335   */\n      swap2\n      swap1\n      pop\n      jump\t// out\n        /* \"#utility.yul\":19341:19760   */\n    tag_159:\n        /* \"#utility.yul\":19507:19511   */\n      0x00\n        /* \"#utility.yul\":19545:19547   */\n      0x20\n        /* \"#utility.yul\":19534:19543   */\n      dup3\n        /* \"#utility.yul\":19530:19548   */\n      add\n        /* \"#utility.yul\":19522:19548   */\n      swap1\n      pop\n        /* \"#utility.yul\":19594:19603   */\n      dup2\n        /* \"#utility.yul\":19588:19592   */\n      dup2\n        /* \"#utility.yul\":19584:19604   */\n      sub\n        /* \"#utility.yul\":19580:19581   */\n      0x00\n        /* \"#utility.yul\":19569:19578   */\n      dup4\n        /* \"#utility.yul\":19565:19582   */\n      add\n        /* \"#utility.yul\":19558:19605   */\n      mstore\n        /* \"#utility.yul\":19622:19753   */\n      tag_476\n        /* \"#utility.yul\":19748:19752   */\n      dup2\n        /* \"#utility.yul\":19622:19753   */\n      tag_287\n      jump\t// in\n    tag_476:\n        /* \"#utility.yul\":19614:19753   */\n      swap1\n      pop\n        /* \"#utility.yul\":19341:19760   */\n      swap2\n      swap1\n      pop\n      jump\t// out\n        /* \"#utility.yul\":19766:19993   */\n    tag_288:\n        /* \"#utility.yul\":19906:19940   */\n      0x77696e6e6572206e65656420746f20626520736f6d74696e6720626574776565\n        /* \"#utility.yul\":19902:19903   */\n      0x00\n        /* \"#utility.yul\":19894:19900   */\n      dup3\n        /* \"#utility.yul\":19890:19904   */\n      add\n        /* \"#utility.yul\":19883:19941   */\n      mstore\n        /* \"#utility.yul\":19975:19985   */\n      0x6e203020746f2033000000000000000000000000000000000000000000000000\n        /* \"#utility.yul\":19970:19972   */\n      0x20\n        /* \"#utility.yul\":19962:19968   */\n      dup3\n        /* \"#utility.yul\":19958:19973   */\n      add\n        /* \"#utility.yul\":19951:19986   */\n      mstore\n        /* \"#utility.yul\":19766:19993   */\n      pop\n      jump\t// out\n        /* \"#utility.yul\":19999:20365   */\n    tag_289:\n        /* \"#utility.yul\":20141:20144   */\n      0x00\n        /* \"#utility.yul\":20162:20229   */\n      tag_479\n        /* \"#utility.yul\":20226:20228   */\n      0x28\n        /* \"#utility.yul\":20221:20224   */\n      dup4\n        /* \"#utility.yul\":20162:20229   */\n      tag_276\n      jump\t// in\n    tag_479:\n        /* \"#utility.yul\":20155:20229   */\n      swap2\n      pop\n        /* \"#utility.yul\":20238:20331   */\n      tag_480\n        /* \"#utility.yul\":20327:20330   */\n      dup3\n        /* \"#utility.yul\":20238:20331   */\n      tag_288\n      jump\t// in\n    tag_480:\n        /* \"#utility.yul\":20356:20358   */\n      0x40\n        /* \"#utility.yul\":20351:20354   */\n      dup3\n        /* \"#utility.yul\":20347:20359   */\n      add\n        /* \"#utility.yul\":20340:20359   */\n      swap1\n      pop\n        /* \"#utility.yul\":19999:20365   */\n      swap2\n      swap1\n      pop\n      jump\t// out\n        /* \"#utility.yul\":20371:20790   */\n    tag_189:\n        /* \"#utility.yul\":20537:20541   */\n      0x00\n        /* \"#utility.yul\":20575:20577   */\n      0x20\n        /* \"#utility.yul\":20564:20573   */\n      dup3\n        /* \"#utility.yul\":20560:20578   */\n      add\n        /* \"#utility.yul\":20552:20578   */\n      swap1\n      pop\n        /* \"#utility.yul\":20624:20633   */\n      dup2\n        /* \"#utility.yul\":20618:20622   */\n      dup2\n        /* \"#utility.yul\":20614:20634   */\n      sub\n        /* \"#utility.yul\":20610:20611   */\n      0x00\n        /* \"#utility.yul\":20599:20608   */\n      dup4\n        /* \"#utility.yul\":20595:20612   */\n      add\n        /* \"#utility.yul\":20588:20635   */\n      mstore\n        /* \"#utility.yul\":20652:20783   */\n      tag_482\n        /* \"#utility.yul\":20778:20782   */\n      dup2\n        /* \"#utility.yul\":20652:20783   */\n      tag_289\n      jump\t// in\n    tag_482:\n        /* \"#utility.yul\":20644:20783   */\n      swap1\n      pop\n        /* \"#utility.yul\":20371:20790   */\n      swap2\n      swap1\n      pop\n      jump\t// out\n        /* \"#utility.yul\":20796:21021   */\n    tag_290:\n        /* \"#utility.yul\":20936:20970   */\n      0x4f776e61626c653a206e6577206f776e657220697320746865207a65726f2061\n        /* \"#utility.yul\":20932:20933   */\n      0x00\n        /* \"#utility.yul\":20924:20930   */\n      dup3\n        /* \"#utility.yul\":20920:20934   */\n      add\n        /* \"#utility.yul\":20913:20971   */\n      mstore\n        /* \"#utility.yul\":21005:21013   */\n      0x6464726573730000000000000000000000000000000000000000000000000000\n        /* \"#utility.yul\":21000:21002   */\n      0x20\n        /* \"#utility.yul\":20992:20998   */\n      dup3\n        /* \"#utility.yul\":20988:21003   */\n      add\n        /* \"#utility.yul\":20981:21014   */\n      mstore\n        /* \"#utility.yul\":20796:21021   */\n      pop\n      jump\t// out\n        /* \"#utility.yul\":21027:21393   */\n    tag_291:\n        /* \"#utility.yul\":21169:21172   */\n      0x00\n        /* \"#utility.yul\":21190:21257   */\n      tag_485\n        /* \"#utility.yul\":21254:21256   */\n      0x26\n        /* \"#utility.yul\":21249:21252   */\n      dup4\n        /* \"#utility.yul\":21190:21257   */\n      tag_276\n      jump\t// in\n    tag_485:\n        /* \"#utility.yul\":21183:21257   */\n      swap2\n      pop\n        /* \"#utility.yul\":21266:21359   */\n      tag_486\n        /* \"#utility.yul\":21355:21358   */\n      dup3\n        /* \"#utility.yul\":21266:21359   */\n      tag_290\n      jump\t// in\n    tag_486:\n        /* \"#utility.yul\":21384:21386   */\n      0x40\n        /* \"#utility.yul\":21379:21382   */\n      dup3\n        /* \"#utility.yul\":21375:21387   */\n      add\n        /* \"#utility.yul\":21368:21387   */\n      swap1\n      pop\n        /* \"#utility.yul\":21027:21393   */\n      swap2\n      swap1\n      pop\n      jump\t// out\n        /* \"#utility.yul\":21399:21818   */\n    tag_223:\n        /* \"#utility.yul\":21565:21569   */\n      0x00\n        /* \"#utility.yul\":21603:21605   */\n      0x20\n        /* \"#utility.yul\":21592:21601   */\n      dup3\n        /* \"#utility.yul\":21588:21606   */\n      add\n        /* \"#utility.yul\":21580:21606   */\n      swap1\n      pop\n        /* \"#utility.yul\":21652:21661   */\n      dup2\n        /* \"#utility.yul\":21646:21650   */\n      dup2\n        /* \"#utility.yul\":21642:21662   */\n      sub\n        /* \"#utility.yul\":21638:21639   */\n      0x00\n        /* \"#utility.yul\":21627:21636   */\n      dup4\n        /* \"#utility.yul\":21623:21640   */\n      add\n        /* \"#utility.yul\":21616:21663   */\n      mstore\n        /* \"#utility.yul\":21680:21811   */\n      tag_488\n        /* \"#utility.yul\":21806:21810   */\n      dup2\n        /* \"#utility.yul\":21680:21811   */\n      tag_291\n      jump\t// in\n    tag_488:\n        /* \"#utility.yul\":21672:21811   */\n      swap1\n      pop\n        /* \"#utility.yul\":21399:21818   */\n      swap2\n      swap1\n      pop\n      jump\t// out\n\n    auxdata: 0xa2646970667358221220044aa684e66067227db58bed6f59de6bb31fc764a761e79061e50655fe00952764736f6c63430008090033\n}\n",
				"bytecode": {
					"linkReferences": {},
					"object": "6080604052600060025560006003553480156200001b57600080fd5b506200003c620000306200009260201b60201c565b6200009a60201b60201c565b6200004c6200009260201b60201c565b600160006101000a81548173ffffffffffffffffffffffffffffffffffffffff021916908373ffffffffffffffffffffffffffffffffffffffff1602179055506200015e565b600033905090565b60008060009054906101000a900473ffffffffffffffffffffffffffffffffffffffff169050816000806101000a81548173ffffffffffffffffffffffffffffffffffffffff021916908373ffffffffffffffffffffffffffffffffffffffff1602179055508173ffffffffffffffffffffffffffffffffffffffff168173ffffffffffffffffffffffffffffffffffffffff167f8be0079c531659141344cd1fd0a4f28419497f9722a3daafe3b4186f6b6457e060405160405180910390a35050565b6120cf806200016e6000396000f3fe608060405234801561001057600080fd5b50600436106100ea5760003560e01c8063845348901161008c578063aabc4b3c11610066578063aabc4b3c1461028c578063caa9db89146102bd578063d4e3706a146102db578063f2fde38b14610311576100ea565b8063845348901461020e5780638da5cb5b1461023e578063985d8e001461025c576100ea565b806369040f67116100c857806369040f6714610182578063715018a6146101a05780637ae996bd146101aa5780637cb1c0d4146101da576100ea565b80634f03c754146100ef578063511b4db71461011f578063551ee57014610152575b600080fd5b61010960048036038101906101049190611607565b61032d565b6040516101169190611662565b60405180910390f35b6101396004803603810190610134919061167d565b6105c0565b60405161014994939291906116b9565b60405180910390f35b61016c6004803603810190610167919061175c565b6105f0565b6040516101799190611662565b60405180910390f35b61018a6106b8565b6040516101979190611789565b60405180910390f35b6101a86106ce565b005b6101c460048036038101906101bf91906117a4565b610756565b6040516101d19190611789565b60405180910390f35b6101f460048036038101906101ef919061167d565b610901565b60405161020595949392919061191a565b60405180910390f35b610228600480360381019061022391906119d3565b610983565b6040516102359190611789565b60405180910390f35b610246610d2d565b6040516102539190611a9e565b60405180910390f35b61027660048036038101906102719190611607565b610d56565b6040516102839190611662565b60405180910390f35b6102a660048036038101906102a1919061167d565b611028565b6040516102b4929190611ab9565b60405180910390f35b6102c5611062565b6040516102d29190611a9e565b60405180910390f35b6102f560048036038101906102f0919061167d565b611088565b6040516103089796959493929190611ba0565b60405180910390f35b61032b6004803603810190610326919061175c565b6112bc565b005b6000600160009054906101000a900473ffffffffffffffffffffffffffffffffffffffff1673ffffffffffffffffffffffffffffffffffffffff166103706113b4565b73ffffffffffffffffffffffffffffffffffffffff1614806103cb5750610395610d2d565b73ffffffffffffffffffffffffffffffffffffffff166103b36113b4565b73ffffffffffffffffffffffffffffffffffffffff16145b8061040857503273ffffffffffffffffffffffffffffffffffffffff166103f0610d2d565b73ffffffffffffffffffffffffffffffffffffffff16145b610447576040517f08c379a000000000000000000000000000000000000000000000000000000000815260040161043e90611ca0565b60405180910390fd5b610450836113bc565b61048f576040517f08c379a000000000000000000000000000000000000000000000000000000000815260040161048690611d32565b60405180910390fd5b60008260ff16101580156104a7575060028260ff1611155b6104e6576040517f08c379a00000000000000000000000000000000000000000000000000000000081526004016104dd90611dc4565b60405180910390fd5b600060056000858152602001908152602001600020905060008360ff16141561053b5760008160060160006101000a81548160ff021916908360028111156105315761053061185b565b5b02179055506105b5565b60018360ff1614156105795760018160060160006101000a81548160ff0219169083600281111561056f5761056e61185b565b5b02179055506105b4565b60028360ff1614156105b35760028160060160006101000a81548160ff021916908360028111156105ad576105ac61185b565b5b02179055505b5b5b600191505092915050565b60046020528060005260406000206000915090508060000154908060010154908060020154908060030154905084565b60006105fa6113b4565b73ffffffffffffffffffffffffffffffffffffffff16610618610d2d565b73ffffffffffffffffffffffffffffffffffffffff161461066e576040517f08c379a000000000000000000000000000000000000000000000000000000000815260040161066590611e30565b60405180910390fd5b81600160006101000a81548173ffffffffffffffffffffffffffffffffffffffff021916908373ffffffffffffffffffffffffffffffffffffffff16021790555060019050919050565b600060016002546106c99190611e7f565b905090565b6106d66113b4565b73ffffffffffffffffffffffffffffffffffffffff166106f4610d2d565b73ffffffffffffffffffffffffffffffffffffffff161461074a576040517f08c379a000000000000000000000000000000000000000000000000000000000815260040161074190611e30565b60405180910390fd5b61075460006113f1565b565b6000600160009054906101000a900473ffffffffffffffffffffffffffffffffffffffff1673ffffffffffffffffffffffffffffffffffffffff166107996113b4565b73ffffffffffffffffffffffffffffffffffffffff1614806107f457506107be610d2d565b73ffffffffffffffffffffffffffffffffffffffff166107dc6113b4565b73ffffffffffffffffffffffffffffffffffffffff16145b8061083157503273ffffffffffffffffffffffffffffffffffffffff16610819610d2d565b73ffffffffffffffffffffffffffffffffffffffff16145b610870576040517f08c379a000000000000000000000000000000000000000000000000000000000815260040161086790611ca0565b60405180910390fd5b60006003549050600060405180608001604052808781526020018681526020014281526020018581525090508060046000848152602001908152602001600020600082015181600001556020820151816001015560408201518160020155606082015181600301559050506001600360008282546108ee9190611eb3565b9250508190555081925050509392505050565b600560205280600052604060002060009150905080600001604051806080016040529081600082015481526020016001820154815260200160028201548152602001600382015481525050908060060160009054906101000a900460ff16908060060160019054906101000a900460ff16908060070154908060080154905085565b6000600160009054906101000a900473ffffffffffffffffffffffffffffffffffffffff1673ffffffffffffffffffffffffffffffffffffffff166109c66113b4565b73ffffffffffffffffffffffffffffffffffffffff161480610a2157506109eb610d2d565b73ffffffffffffffffffffffffffffffffffffffff16610a096113b4565b73ffffffffffffffffffffffffffffffffffffffff16145b80610a5e57503273ffffffffffffffffffffffffffffffffffffffff16610a46610d2d565b73ffffffffffffffffffffffffffffffffffffffff16145b610a9d576040517f08c379a0000000000000000000000000000000000000000000000000000000008152600401610a9490611ca0565b60405180910390fd5b610aa6886114b5565b610ae5576040517f08c379a0000000000000000000000000000000000000000000000000000000008152600401610adc90611f55565b60405180910390fd5b6040518060e00160405280600460008b81526020019081526020016000206040518060800160405290816000820154815260200160018201548152602001600282015481526020016003820154815250508152602001888880806020026020016040519081016040528093929190818152602001838360200280828437600081840152601f19601f820116905080830192505050505050508152602001868680806020026020016040519081016040528093929190818152602001838360200280828437600081840152601f19601f82011690508083019250505050505050815260200160006002811115610bdd57610bdc61185b565b5b8152602001600380811115610bf557610bf461185b565b5b8152602001848152602001838152506005600060025481526020019081526020016000206000820151816000016000820151816000015560208201518160010155604082015181600201556060820151816003015550506020820151816004019080519060200190610c689291906114e7565b506040820151816005019080519060200190610c859291906114e7565b5060608201518160060160006101000a81548160ff02191690836002811115610cb157610cb061185b565b5b021790555060808201518160060160016101000a81548160ff02191690836003811115610ce157610ce061185b565b5b021790555060a0820151816007015560c0820151816008015590505060006002549050600160026000828254610d179190611eb3565b9250508190555080915050979650505050505050565b60008060009054906101000a900473ffffffffffffffffffffffffffffffffffffffff16905090565b6000600160009054906101000a900473ffffffffffffffffffffffffffffffffffffffff1673ffffffffffffffffffffffffffffffffffffffff16610d996113b4565b73ffffffffffffffffffffffffffffffffffffffff161480610df45750610dbe610d2d565b73ffffffffffffffffffffffffffffffffffffffff16610ddc6113b4565b73ffffffffffffffffffffffffffffffffffffffff16145b80610e3157503273ffffffffffffffffffffffffffffffffffffffff16610e19610d2d565b73ffffffffffffffffffffffffffffffffffffffff16145b610e70576040517f08c379a0000000000000000000000000000000000000000000000000000000008152600401610e6790611ca0565b60405180910390fd5b610e79836113bc565b610eb8576040517f08c379a0000000000000000000000000000000000000000000000000000000008152600401610eaf90611d32565b60405180910390fd5b60008260ff1610158015610ed0575060038260ff1611155b610f0f576040517f08c379a0000000000000000000000000000000000000000000000000000000008152600401610f0690611fe7565b60405180910390fd5b600060056000858152602001908152602001600020905060008360ff161415610f645760008160060160016101000a81548160ff02191690836003811115610f5a57610f5961185b565b5b021790555061101d565b60018360ff161415610fa25760018160060160016101000a81548160ff02191690836003811115610f9857610f9761185b565b5b021790555061101c565b60028360ff161415610fe05760028160060160016101000a81548160ff02191690836003811115610fd657610fd561185b565b5b021790555061101b565b60038360ff16141561101a5760038160060160016101000a81548160ff021916908360038111156110145761101361185b565b5b02179055505b5b5b5b600191505092915050565b6000806004600084815260200190815260200160002060000154600460008581526020019081526020016000206001015491509150915091565b600160009054906101000a900473ffffffffffffffffffffffffffffffffffffffff1681565b600080606080600080600080600560008a815260200190815260200160002060000160405180608001604052908160008201548152602001600182015481526020016002820154815260200160038201548152505090508060000151975080602001519650600560008a815260200190815260200160002060040180548060200260200160405190810160405280929190818152602001828054801561118357602002820191906000526020600020905b8160009054906101000a900473ffffffffffffffffffffffffffffffffffffffff1673ffffffffffffffffffffffffffffffffffffffff1681526020019060010190808311611139575b50505050509550600560008a815260200190815260200160002060050180548060200260200160405190810160405280929190818152602001828054801561122057602002820191906000526020600020905b8160009054906101000a900473ffffffffffffffffffffffffffffffffffffffff1673ffffffffffffffffffffffffffffffffffffffff16815260200190600101908083116111d6575b50505050509450600560008a815260200190815260200160002060060160009054906101000a900460ff16600281111561125d5761125c61185b565b5b9350600560008a815260200190815260200160002060060160019054906101000a900460ff1660038111156112955761129461185b565b5b9250600560008a815260200190815260200160002060070154915050919395979092949650565b6112c46113b4565b73ffffffffffffffffffffffffffffffffffffffff166112e2610d2d565b73ffffffffffffffffffffffffffffffffffffffff1614611338576040517f08c379a000000000000000000000000000000000000000000000000000000000815260040161132f90611e30565b60405180910390fd5b600073ffffffffffffffffffffffffffffffffffffffff168173ffffffffffffffffffffffffffffffffffffffff1614156113a8576040517f08c379a000000000000000000000000000000000000000000000000000000000815260040161139f90612079565b60405180910390fd5b6113b1816113f1565b50565b600033905090565b6000806005600084815260200190815260200160002060040180549050146113e757600190506113ec565b600090505b919050565b60008060009054906101000a900473ffffffffffffffffffffffffffffffffffffffff169050816000806101000a81548173ffffffffffffffffffffffffffffffffffffffff021916908373ffffffffffffffffffffffffffffffffffffffff1602179055508173ffffffffffffffffffffffffffffffffffffffff168173ffffffffffffffffffffffffffffffffffffffff167f8be0079c531659141344cd1fd0a4f28419497f9722a3daafe3b4186f6b6457e060405160405180910390a35050565b6000806004600084815260200190815260200160002060020154146114dd57600190506114e2565b600090505b919050565b828054828255906000526020600020908101928215611560579160200282015b8281111561155f5782518260006101000a81548173ffffffffffffffffffffffffffffffffffffffff021916908373ffffffffffffffffffffffffffffffffffffffff16021790555091602001919060010190611507565b5b50905061156d9190611571565b5090565b5b8082111561158a576000816000905550600101611572565b5090565b600080fd5b600080fd5b6000819050919050565b6115ab81611598565b81146115b657600080fd5b50565b6000813590506115c8816115a2565b92915050565b600060ff82169050919050565b6115e4816115ce565b81146115ef57600080fd5b50565b600081359050611601816115db565b92915050565b6000806040838503121561161e5761161d61158e565b5b600061162c858286016115b9565b925050602061163d858286016115f2565b9150509250929050565b60008115159050919050565b61165c81611647565b82525050565b60006020820190506116776000830184611653565b92915050565b6000602082840312156116935761169261158e565b5b60006116a1848285016115b9565b91505092915050565b6116b381611598565b82525050565b60006080820190506116ce60008301876116aa565b6116db60208301866116aa565b6116e860408301856116aa565b6116f560608301846116aa565b95945050505050565b600073ffffffffffffffffffffffffffffffffffffffff82169050919050565b6000611729826116fe565b9050919050565b6117398161171e565b811461174457600080fd5b50565b60008135905061175681611730565b92915050565b6000602082840312156117725761177161158e565b5b600061178084828501611747565b91505092915050565b600060208201905061179e60008301846116aa565b92915050565b6000806000606084860312156117bd576117bc61158e565b5b60006117cb868287016115b9565b93505060206117dc868287016115b9565b92505060406117ed868287016115b9565b9150509250925092565b61180081611598565b82525050565b60808201600082015161181c60008501826117f7565b50602082015161182f60208501826117f7565b50604082015161184260408501826117f7565b50606082015161185560608501826117f7565b50505050565b7f4e487b7100000000000000000000000000000000000000000000000000000000600052602160045260246000fd5b6003811061189b5761189a61185b565b5b50565b60008190506118ac8261188a565b919050565b60006118bc8261189e565b9050919050565b6118cc816118b1565b82525050565b600481106118e3576118e261185b565b5b50565b60008190506118f4826118d2565b919050565b6000611904826118e6565b9050919050565b611914816118f9565b82525050565b6000610100820190506119306000830188611806565b61193d60808301876118c3565b61194a60a083018661190b565b61195760c08301856116aa565b61196460e08301846116aa565b9695505050505050565b600080fd5b600080fd5b600080fd5b60008083601f8401126119935761199261196e565b5b8235905067ffffffffffffffff8111156119b0576119af611973565b5b6020830191508360208202830111156119cc576119cb611978565b5b9250929050565b600080600080600080600060a0888a0312156119f2576119f161158e565b5b6000611a008a828b016115b9565b975050602088013567ffffffffffffffff811115611a2157611a20611593565b5b611a2d8a828b0161197d565b9650965050604088013567ffffffffffffffff811115611a5057611a4f611593565b5b611a5c8a828b0161197d565b94509450506060611a6f8a828b016115b9565b9250506080611a808a828b016115b9565b91505092959891949750929550565b611a988161171e565b82525050565b6000602082019050611ab36000830184611a8f565b92915050565b6000604082019050611ace60008301856116aa565b611adb60208301846116aa565b9392505050565b600081519050919050565b600082825260208201905092915050565b6000819050602082019050919050565b611b178161171e565b82525050565b6000611b298383611b0e565b60208301905092915050565b6000602082019050919050565b6000611b4d82611ae2565b611b578185611aed565b9350611b6283611afe565b8060005b83811015611b93578151611b7a8882611b1d565b9750611b8583611b35565b925050600181019050611b66565b5085935050505092915050565b600060e082019050611bb5600083018a6116aa565b611bc260208301896116aa565b8181036040830152611bd48188611b42565b90508181036060830152611be88187611b42565b9050611bf760808301866116aa565b611c0460a08301856116aa565b611c1160c08301846116aa565b98975050505050505050565b600082825260208201905092915050565b7f546f2063616c6c2074686973206d6574686f6420796f75206861766520746f2060008201527f6265206f776e6572206f722073756241646d696e210000000000000000000000602082015250565b6000611c8a603583611c1d565b9150611c9582611c2e565b604082019050919050565b60006020820190508181036000830152611cb981611c7d565b9050919050565b7f63616e27742066696e6420636f6d706574696f6e20776974682074686973206360008201527f6f6d706574696f6e496421000000000000000000000000000000000000000000602082015250565b6000611d1c602b83611c1d565b9150611d2782611cc0565b604082019050919050565b60006020820190508181036000830152611d4b81611d0f565b9050919050565b7f737461747573206e65656420746f20626520736f6d74696e672062657477656560008201527f6e203020746f2032000000000000000000000000000000000000000000000000602082015250565b6000611dae602883611c1d565b9150611db982611d52565b604082019050919050565b60006020820190508181036000830152611ddd81611da1565b9050919050565b7f4f776e61626c653a2063616c6c6572206973206e6f7420746865206f776e6572600082015250565b6000611e1a602083611c1d565b9150611e2582611de4565b602082019050919050565b60006020820190508181036000830152611e4981611e0d565b9050919050565b7f4e487b7100000000000000000000000000000000000000000000000000000000600052601160045260246000fd5b6000611e8a82611598565b9150611e9583611598565b925082821015611ea857611ea7611e50565b5b828203905092915050565b6000611ebe82611598565b9150611ec983611598565b9250827fffffffffffffffffffffffffffffffffffffffffffffffffffffffffffffffff03821115611efe57611efd611e50565b5b828201905092915050565b7f63616e27742066696e6420707265736574207769746820746869732069642100600082015250565b6000611f3f601f83611c1d565b9150611f4a82611f09565b602082019050919050565b60006020820190508181036000830152611f6e81611f32565b9050919050565b7f77696e6e6572206e65656420746f20626520736f6d74696e672062657477656560008201527f6e203020746f2033000000000000000000000000000000000000000000000000602082015250565b6000611fd1602883611c1d565b9150611fdc82611f75565b604082019050919050565b6000602082019050818103600083015261200081611fc4565b9050919050565b7f4f776e61626c653a206e6577206f776e657220697320746865207a65726f206160008201527f6464726573730000000000000000000000000000000000000000000000000000602082015250565b6000612063602683611c1d565b915061206e82612007565b604082019050919050565b6000602082019050818103600083015261209281612056565b905091905056fea2646970667358221220044aa684e66067227db58bed6f59de6bb31fc764a761e79061e50655fe00952764736f6c63430008090033",
					"opcodes": "PUSH1 0x80 PUSH1 0x40 MSTORE PUSH1 0x0 PUSH1 0x2 SSTORE PUSH1 0x0 PUSH1 0x3 SSTORE CALLVALUE DUP1 ISZERO PUSH3 0x1B JUMPI PUSH1 0x0 DUP1 REVERT JUMPDEST POP PUSH3 0x3C PUSH3 0x30 PUSH3 0x92 PUSH1 0x20 SHL PUSH1 0x20 SHR JUMP JUMPDEST PUSH3 0x9A PUSH1 0x20 SHL PUSH1 0x20 SHR JUMP JUMPDEST PUSH3 0x4C PUSH3 0x92 PUSH1 0x20 SHL PUSH1 0x20 SHR JUMP JUMPDEST PUSH1 0x1 PUSH1 0x0 PUSH2 0x100 EXP DUP2 SLOAD DUP2 PUSH20 0xFFFFFFFFFFFFFFFFFFFFFFFFFFFFFFFFFFFFFFFF MUL NOT AND SWAP1 DUP4 PUSH20 0xFFFFFFFFFFFFFFFFFFFFFFFFFFFFFFFFFFFFFFFF AND MUL OR SWAP1 SSTORE POP PUSH3 0x15E JUMP JUMPDEST PUSH1 0x0 CALLER SWAP1 POP SWAP1 JUMP JUMPDEST PUSH1 0x0 DUP1 PUSH1 0x0 SWAP1 SLOAD SWAP1 PUSH2 0x100 EXP SWAP1 DIV PUSH20 0xFFFFFFFFFFFFFFFFFFFFFFFFFFFFFFFFFFFFFFFF AND SWAP1 POP DUP2 PUSH1 0x0 DUP1 PUSH2 0x100 EXP DUP2 SLOAD DUP2 PUSH20 0xFFFFFFFFFFFFFFFFFFFFFFFFFFFFFFFFFFFFFFFF MUL NOT AND SWAP1 DUP4 PUSH20 0xFFFFFFFFFFFFFFFFFFFFFFFFFFFFFFFFFFFFFFFF AND MUL OR SWAP1 SSTORE POP DUP2 PUSH20 0xFFFFFFFFFFFFFFFFFFFFFFFFFFFFFFFFFFFFFFFF AND DUP2 PUSH20 0xFFFFFFFFFFFFFFFFFFFFFFFFFFFFFFFFFFFFFFFF AND PUSH32 0x8BE0079C531659141344CD1FD0A4F28419497F9722A3DAAFE3B4186F6B6457E0 PUSH1 0x40 MLOAD PUSH1 0x40 MLOAD DUP1 SWAP2 SUB SWAP1 LOG3 POP POP JUMP JUMPDEST PUSH2 0x20CF DUP1 PUSH3 0x16E PUSH1 0x0 CODECOPY PUSH1 0x0 RETURN INVALID PUSH1 0x80 PUSH1 0x40 MSTORE CALLVALUE DUP1 ISZERO PUSH2 0x10 JUMPI PUSH1 0x0 DUP1 REVERT JUMPDEST POP PUSH1 0x4 CALLDATASIZE LT PUSH2 0xEA JUMPI PUSH1 0x0 CALLDATALOAD PUSH1 0xE0 SHR DUP1 PUSH4 0x84534890 GT PUSH2 0x8C JUMPI DUP1 PUSH4 0xAABC4B3C GT PUSH2 0x66 JUMPI DUP1 PUSH4 0xAABC4B3C EQ PUSH2 0x28C JUMPI DUP1 PUSH4 0xCAA9DB89 EQ PUSH2 0x2BD JUMPI DUP1 PUSH4 0xD4E3706A EQ PUSH2 0x2DB JUMPI DUP1 PUSH4 0xF2FDE38B EQ PUSH2 0x311 JUMPI PUSH2 0xEA JUMP JUMPDEST DUP1 PUSH4 0x84534890 EQ PUSH2 0x20E JUMPI DUP1 PUSH4 0x8DA5CB5B EQ PUSH2 0x23E JUMPI DUP1 PUSH4 0x985D8E00 EQ PUSH2 0x25C JUMPI PUSH2 0xEA JUMP JUMPDEST DUP1 PUSH4 0x69040F67 GT PUSH2 0xC8 JUMPI DUP1 PUSH4 0x69040F67 EQ PUSH2 0x182 JUMPI DUP1 PUSH4 0x715018A6 EQ PUSH2 0x1A0 JUMPI DUP1 PUSH4 0x7AE996BD EQ PUSH2 0x1AA JUMPI DUP1 PUSH4 0x7CB1C0D4 EQ PUSH2 0x1DA JUMPI PUSH2 0xEA JUMP JUMPDEST DUP1 PUSH4 0x4F03C754 EQ PUSH2 0xEF JUMPI DUP1 PUSH4 0x511B4DB7 EQ PUSH2 0x11F JUMPI DUP1 PUSH4 0x551EE570 EQ PUSH2 0x152 JUMPI JUMPDEST PUSH1 0x0 DUP1 REVERT JUMPDEST PUSH2 0x109 PUSH1 0x4 DUP1 CALLDATASIZE SUB DUP2 ADD SWAP1 PUSH2 0x104 SWAP2 SWAP1 PUSH2 0x1607 JUMP JUMPDEST PUSH2 0x32D JUMP JUMPDEST PUSH1 0x40 MLOAD PUSH2 0x116 SWAP2 SWAP1 PUSH2 0x1662 JUMP JUMPDEST PUSH1 0x40 MLOAD DUP1 SWAP2 SUB SWAP1 RETURN JUMPDEST PUSH2 0x139 PUSH1 0x4 DUP1 CALLDATASIZE SUB DUP2 ADD SWAP1 PUSH2 0x134 SWAP2 SWAP1 PUSH2 0x167D JUMP JUMPDEST PUSH2 0x5C0 JUMP JUMPDEST PUSH1 0x40 MLOAD PUSH2 0x149 SWAP5 SWAP4 SWAP3 SWAP2 SWAP1 PUSH2 0x16B9 JUMP JUMPDEST PUSH1 0x40 MLOAD DUP1 SWAP2 SUB SWAP1 RETURN JUMPDEST PUSH2 0x16C PUSH1 0x4 DUP1 CALLDATASIZE SUB DUP2 ADD SWAP1 PUSH2 0x167 SWAP2 SWAP1 PUSH2 0x175C JUMP JUMPDEST PUSH2 0x5F0 JUMP JUMPDEST PUSH1 0x40 MLOAD PUSH2 0x179 SWAP2 SWAP1 PUSH2 0x1662 JUMP JUMPDEST PUSH1 0x40 MLOAD DUP1 SWAP2 SUB SWAP1 RETURN JUMPDEST PUSH2 0x18A PUSH2 0x6B8 JUMP JUMPDEST PUSH1 0x40 MLOAD PUSH2 0x197 SWAP2 SWAP1 PUSH2 0x1789 JUMP JUMPDEST PUSH1 0x40 MLOAD DUP1 SWAP2 SUB SWAP1 RETURN JUMPDEST PUSH2 0x1A8 PUSH2 0x6CE JUMP JUMPDEST STOP JUMPDEST PUSH2 0x1C4 PUSH1 0x4 DUP1 CALLDATASIZE SUB DUP2 ADD SWAP1 PUSH2 0x1BF SWAP2 SWAP1 PUSH2 0x17A4 JUMP JUMPDEST PUSH2 0x756 JUMP JUMPDEST PUSH1 0x40 MLOAD PUSH2 0x1D1 SWAP2 SWAP1 PUSH2 0x1789 JUMP JUMPDEST PUSH1 0x40 MLOAD DUP1 SWAP2 SUB SWAP1 RETURN JUMPDEST PUSH2 0x1F4 PUSH1 0x4 DUP1 CALLDATASIZE SUB DUP2 ADD SWAP1 PUSH2 0x1EF SWAP2 SWAP1 PUSH2 0x167D JUMP JUMPDEST PUSH2 0x901 JUMP JUMPDEST PUSH1 0x40 MLOAD PUSH2 0x205 SWAP6 SWAP5 SWAP4 SWAP3 SWAP2 SWAP1 PUSH2 0x191A JUMP JUMPDEST PUSH1 0x40 MLOAD DUP1 SWAP2 SUB SWAP1 RETURN JUMPDEST PUSH2 0x228 PUSH1 0x4 DUP1 CALLDATASIZE SUB DUP2 ADD SWAP1 PUSH2 0x223 SWAP2 SWAP1 PUSH2 0x19D3 JUMP JUMPDEST PUSH2 0x983 JUMP JUMPDEST PUSH1 0x40 MLOAD PUSH2 0x235 SWAP2 SWAP1 PUSH2 0x1789 JUMP JUMPDEST PUSH1 0x40 MLOAD DUP1 SWAP2 SUB SWAP1 RETURN JUMPDEST PUSH2 0x246 PUSH2 0xD2D JUMP JUMPDEST PUSH1 0x40 MLOAD PUSH2 0x253 SWAP2 SWAP1 PUSH2 0x1A9E JUMP JUMPDEST PUSH1 0x40 MLOAD DUP1 SWAP2 SUB SWAP1 RETURN JUMPDEST PUSH2 0x276 PUSH1 0x4 DUP1 CALLDATASIZE SUB DUP2 ADD SWAP1 PUSH2 0x271 SWAP2 SWAP1 PUSH2 0x1607 JUMP JUMPDEST PUSH2 0xD56 JUMP JUMPDEST PUSH1 0x40 MLOAD PUSH2 0x283 SWAP2 SWAP1 PUSH2 0x1662 JUMP JUMPDEST PUSH1 0x40 MLOAD DUP1 SWAP2 SUB SWAP1 RETURN JUMPDEST PUSH2 0x2A6 PUSH1 0x4 DUP1 CALLDATASIZE SUB DUP2 ADD SWAP1 PUSH2 0x2A1 SWAP2 SWAP1 PUSH2 0x167D JUMP JUMPDEST PUSH2 0x1028 JUMP JUMPDEST PUSH1 0x40 MLOAD PUSH2 0x2B4 SWAP3 SWAP2 SWAP1 PUSH2 0x1AB9 JUMP JUMPDEST PUSH1 0x40 MLOAD DUP1 SWAP2 SUB SWAP1 RETURN JUMPDEST PUSH2 0x2C5 PUSH2 0x1062 JUMP JUMPDEST PUSH1 0x40 MLOAD PUSH2 0x2D2 SWAP2 SWAP1 PUSH2 0x1A9E JUMP JUMPDEST PUSH1 0x40 MLOAD DUP1 SWAP2 SUB SWAP1 RETURN JUMPDEST PUSH2 0x2F5 PUSH1 0x4 DUP1 CALLDATASIZE SUB DUP2 ADD SWAP1 PUSH2 0x2F0 SWAP2 SWAP1 PUSH2 0x167D JUMP JUMPDEST PUSH2 0x1088 JUMP JUMPDEST PUSH1 0x40 MLOAD PUSH2 0x308 SWAP8 SWAP7 SWAP6 SWAP5 SWAP4 SWAP3 SWAP2 SWAP1 PUSH2 0x1BA0 JUMP JUMPDEST PUSH1 0x40 MLOAD DUP1 SWAP2 SUB SWAP1 RETURN JUMPDEST PUSH2 0x32B PUSH1 0x4 DUP1 CALLDATASIZE SUB DUP2 ADD SWAP1 PUSH2 0x326 SWAP2 SWAP1 PUSH2 0x175C JUMP JUMPDEST PUSH2 0x12BC JUMP JUMPDEST STOP JUMPDEST PUSH1 0x0 PUSH1 0x1 PUSH1 0x0 SWAP1 SLOAD SWAP1 PUSH2 0x100 EXP SWAP1 DIV PUSH20 0xFFFFFFFFFFFFFFFFFFFFFFFFFFFFFFFFFFFFFFFF AND PUSH20 0xFFFFFFFFFFFFFFFFFFFFFFFFFFFFFFFFFFFFFFFF AND PUSH2 0x370 PUSH2 0x13B4 JUMP JUMPDEST PUSH20 0xFFFFFFFFFFFFFFFFFFFFFFFFFFFFFFFFFFFFFFFF AND EQ DUP1 PUSH2 0x3CB JUMPI POP PUSH2 0x395 PUSH2 0xD2D JUMP JUMPDEST PUSH20 0xFFFFFFFFFFFFFFFFFFFFFFFFFFFFFFFFFFFFFFFF AND PUSH2 0x3B3 PUSH2 0x13B4 JUMP JUMPDEST PUSH20 0xFFFFFFFFFFFFFFFFFFFFFFFFFFFFFFFFFFFFFFFF AND EQ JUMPDEST DUP1 PUSH2 0x408 JUMPI POP ORIGIN PUSH20 0xFFFFFFFFFFFFFFFFFFFFFFFFFFFFFFFFFFFFFFFF AND PUSH2 0x3F0 PUSH2 0xD2D JUMP JUMPDEST PUSH20 0xFFFFFFFFFFFFFFFFFFFFFFFFFFFFFFFFFFFFFFFF AND EQ JUMPDEST PUSH2 0x447 JUMPI PUSH1 0x40 MLOAD PUSH32 0x8C379A000000000000000000000000000000000000000000000000000000000 DUP2 MSTORE PUSH1 0x4 ADD PUSH2 0x43E SWAP1 PUSH2 0x1CA0 JUMP JUMPDEST PUSH1 0x40 MLOAD DUP1 SWAP2 SUB SWAP1 REVERT JUMPDEST PUSH2 0x450 DUP4 PUSH2 0x13BC JUMP JUMPDEST PUSH2 0x48F JUMPI PUSH1 0x40 MLOAD PUSH32 0x8C379A000000000000000000000000000000000000000000000000000000000 DUP2 MSTORE PUSH1 0x4 ADD PUSH2 0x486 SWAP1 PUSH2 0x1D32 JUMP JUMPDEST PUSH1 0x40 MLOAD DUP1 SWAP2 SUB SWAP1 REVERT JUMPDEST PUSH1 0x0 DUP3 PUSH1 0xFF AND LT ISZERO DUP1 ISZERO PUSH2 0x4A7 JUMPI POP PUSH1 0x2 DUP3 PUSH1 0xFF AND GT ISZERO JUMPDEST PUSH2 0x4E6 JUMPI PUSH1 0x40 MLOAD PUSH32 0x8C379A000000000000000000000000000000000000000000000000000000000 DUP2 MSTORE PUSH1 0x4 ADD PUSH2 0x4DD SWAP1 PUSH2 0x1DC4 JUMP JUMPDEST PUSH1 0x40 MLOAD DUP1 SWAP2 SUB SWAP1 REVERT JUMPDEST PUSH1 0x0 PUSH1 0x5 PUSH1 0x0 DUP6 DUP2 MSTORE PUSH1 0x20 ADD SWAP1 DUP2 MSTORE PUSH1 0x20 ADD PUSH1 0x0 KECCAK256 SWAP1 POP PUSH1 0x0 DUP4 PUSH1 0xFF AND EQ ISZERO PUSH2 0x53B JUMPI PUSH1 0x0 DUP2 PUSH1 0x6 ADD PUSH1 0x0 PUSH2 0x100 EXP DUP2 SLOAD DUP2 PUSH1 0xFF MUL NOT AND SWAP1 DUP4 PUSH1 0x2 DUP2 GT ISZERO PUSH2 0x531 JUMPI PUSH2 0x530 PUSH2 0x185B JUMP JUMPDEST JUMPDEST MUL OR SWAP1 SSTORE POP PUSH2 0x5B5 JUMP JUMPDEST PUSH1 0x1 DUP4 PUSH1 0xFF AND EQ ISZERO PUSH2 0x579 JUMPI PUSH1 0x1 DUP2 PUSH1 0x6 ADD PUSH1 0x0 PUSH2 0x100 EXP DUP2 SLOAD DUP2 PUSH1 0xFF MUL NOT AND SWAP1 DUP4 PUSH1 0x2 DUP2 GT ISZERO PUSH2 0x56F JUMPI PUSH2 0x56E PUSH2 0x185B JUMP JUMPDEST JUMPDEST MUL OR SWAP1 SSTORE POP PUSH2 0x5B4 JUMP JUMPDEST PUSH1 0x2 DUP4 PUSH1 0xFF AND EQ ISZERO PUSH2 0x5B3 JUMPI PUSH1 0x2 DUP2 PUSH1 0x6 ADD PUSH1 0x0 PUSH2 0x100 EXP DUP2 SLOAD DUP2 PUSH1 0xFF MUL NOT AND SWAP1 DUP4 PUSH1 0x2 DUP2 GT ISZERO PUSH2 0x5AD JUMPI PUSH2 0x5AC PUSH2 0x185B JUMP JUMPDEST JUMPDEST MUL OR SWAP1 SSTORE POP JUMPDEST JUMPDEST JUMPDEST PUSH1 0x1 SWAP2 POP POP SWAP3 SWAP2 POP POP JUMP JUMPDEST PUSH1 0x4 PUSH1 0x20 MSTORE DUP1 PUSH1 0x0 MSTORE PUSH1 0x40 PUSH1 0x0 KECCAK256 PUSH1 0x0 SWAP2 POP SWAP1 POP DUP1 PUSH1 0x0 ADD SLOAD SWAP1 DUP1 PUSH1 0x1 ADD SLOAD SWAP1 DUP1 PUSH1 0x2 ADD SLOAD SWAP1 DUP1 PUSH1 0x3 ADD SLOAD SWAP1 POP DUP5 JUMP JUMPDEST PUSH1 0x0 PUSH2 0x5FA PUSH2 0x13B4 JUMP JUMPDEST PUSH20 0xFFFFFFFFFFFFFFFFFFFFFFFFFFFFFFFFFFFFFFFF AND PUSH2 0x618 PUSH2 0xD2D JUMP JUMPDEST PUSH20 0xFFFFFFFFFFFFFFFFFFFFFFFFFFFFFFFFFFFFFFFF AND EQ PUSH2 0x66E JUMPI PUSH1 0x40 MLOAD PUSH32 0x8C379A000000000000000000000000000000000000000000000000000000000 DUP2 MSTORE PUSH1 0x4 ADD PUSH2 0x665 SWAP1 PUSH2 0x1E30 JUMP JUMPDEST PUSH1 0x40 MLOAD DUP1 SWAP2 SUB SWAP1 REVERT JUMPDEST DUP2 PUSH1 0x1 PUSH1 0x0 PUSH2 0x100 EXP DUP2 SLOAD DUP2 PUSH20 0xFFFFFFFFFFFFFFFFFFFFFFFFFFFFFFFFFFFFFFFF MUL NOT AND SWAP1 DUP4 PUSH20 0xFFFFFFFFFFFFFFFFFFFFFFFFFFFFFFFFFFFFFFFF AND MUL OR SWAP1 SSTORE POP PUSH1 0x1 SWAP1 POP SWAP2 SWAP1 POP JUMP JUMPDEST PUSH1 0x0 PUSH1 0x1 PUSH1 0x2 SLOAD PUSH2 0x6C9 SWAP2 SWAP1 PUSH2 0x1E7F JUMP JUMPDEST SWAP1 POP SWAP1 JUMP JUMPDEST PUSH2 0x6D6 PUSH2 0x13B4 JUMP JUMPDEST PUSH20 0xFFFFFFFFFFFFFFFFFFFFFFFFFFFFFFFFFFFFFFFF AND PUSH2 0x6F4 PUSH2 0xD2D JUMP JUMPDEST PUSH20 0xFFFFFFFFFFFFFFFFFFFFFFFFFFFFFFFFFFFFFFFF AND EQ PUSH2 0x74A JUMPI PUSH1 0x40 MLOAD PUSH32 0x8C379A000000000000000000000000000000000000000000000000000000000 DUP2 MSTORE PUSH1 0x4 ADD PUSH2 0x741 SWAP1 PUSH2 0x1E30 JUMP JUMPDEST PUSH1 0x40 MLOAD DUP1 SWAP2 SUB SWAP1 REVERT JUMPDEST PUSH2 0x754 PUSH1 0x0 PUSH2 0x13F1 JUMP JUMPDEST JUMP JUMPDEST PUSH1 0x0 PUSH1 0x1 PUSH1 0x0 SWAP1 SLOAD SWAP1 PUSH2 0x100 EXP SWAP1 DIV PUSH20 0xFFFFFFFFFFFFFFFFFFFFFFFFFFFFFFFFFFFFFFFF AND PUSH20 0xFFFFFFFFFFFFFFFFFFFFFFFFFFFFFFFFFFFFFFFF AND PUSH2 0x799 PUSH2 0x13B4 JUMP JUMPDEST PUSH20 0xFFFFFFFFFFFFFFFFFFFFFFFFFFFFFFFFFFFFFFFF AND EQ DUP1 PUSH2 0x7F4 JUMPI POP PUSH2 0x7BE PUSH2 0xD2D JUMP JUMPDEST PUSH20 0xFFFFFFFFFFFFFFFFFFFFFFFFFFFFFFFFFFFFFFFF AND PUSH2 0x7DC PUSH2 0x13B4 JUMP JUMPDEST PUSH20 0xFFFFFFFFFFFFFFFFFFFFFFFFFFFFFFFFFFFFFFFF AND EQ JUMPDEST DUP1 PUSH2 0x831 JUMPI POP ORIGIN PUSH20 0xFFFFFFFFFFFFFFFFFFFFFFFFFFFFFFFFFFFFFFFF AND PUSH2 0x819 PUSH2 0xD2D JUMP JUMPDEST PUSH20 0xFFFFFFFFFFFFFFFFFFFFFFFFFFFFFFFFFFFFFFFF AND EQ JUMPDEST PUSH2 0x870 JUMPI PUSH1 0x40 MLOAD PUSH32 0x8C379A000000000000000000000000000000000000000000000000000000000 DUP2 MSTORE PUSH1 0x4 ADD PUSH2 0x867 SWAP1 PUSH2 0x1CA0 JUMP JUMPDEST PUSH1 0x40 MLOAD DUP1 SWAP2 SUB SWAP1 REVERT JUMPDEST PUSH1 0x0 PUSH1 0x3 SLOAD SWAP1 POP PUSH1 0x0 PUSH1 0x40 MLOAD DUP1 PUSH1 0x80 ADD PUSH1 0x40 MSTORE DUP1 DUP8 DUP2 MSTORE PUSH1 0x20 ADD DUP7 DUP2 MSTORE PUSH1 0x20 ADD TIMESTAMP DUP2 MSTORE PUSH1 0x20 ADD DUP6 DUP2 MSTORE POP SWAP1 POP DUP1 PUSH1 0x4 PUSH1 0x0 DUP5 DUP2 MSTORE PUSH1 0x20 ADD SWAP1 DUP2 MSTORE PUSH1 0x20 ADD PUSH1 0x0 KECCAK256 PUSH1 0x0 DUP3 ADD MLOAD DUP2 PUSH1 0x0 ADD SSTORE PUSH1 0x20 DUP3 ADD MLOAD DUP2 PUSH1 0x1 ADD SSTORE PUSH1 0x40 DUP3 ADD MLOAD DUP2 PUSH1 0x2 ADD SSTORE PUSH1 0x60 DUP3 ADD MLOAD DUP2 PUSH1 0x3 ADD SSTORE SWAP1 POP POP PUSH1 0x1 PUSH1 0x3 PUSH1 0x0 DUP3 DUP3 SLOAD PUSH2 0x8EE SWAP2 SWAP1 PUSH2 0x1EB3 JUMP JUMPDEST SWAP3 POP POP DUP2 SWAP1 SSTORE POP DUP2 SWAP3 POP POP POP SWAP4 SWAP3 POP POP POP JUMP JUMPDEST PUSH1 0x5 PUSH1 0x20 MSTORE DUP1 PUSH1 0x0 MSTORE PUSH1 0x40 PUSH1 0x0 KECCAK256 PUSH1 0x0 SWAP2 POP SWAP1 POP DUP1 PUSH1 0x0 ADD PUSH1 0x40 MLOAD DUP1 PUSH1 0x80 ADD PUSH1 0x40 MSTORE SWAP1 DUP2 PUSH1 0x0 DUP3 ADD SLOAD DUP2 MSTORE PUSH1 0x20 ADD PUSH1 0x1 DUP3 ADD SLOAD DUP2 MSTORE PUSH1 0x20 ADD PUSH1 0x2 DUP3 ADD SLOAD DUP2 MSTORE PUSH1 0x20 ADD PUSH1 0x3 DUP3 ADD SLOAD DUP2 MSTORE POP POP SWAP1 DUP1 PUSH1 0x6 ADD PUSH1 0x0 SWAP1 SLOAD SWAP1 PUSH2 0x100 EXP SWAP1 DIV PUSH1 0xFF AND SWAP1 DUP1 PUSH1 0x6 ADD PUSH1 0x1 SWAP1 SLOAD SWAP1 PUSH2 0x100 EXP SWAP1 DIV PUSH1 0xFF AND SWAP1 DUP1 PUSH1 0x7 ADD SLOAD SWAP1 DUP1 PUSH1 0x8 ADD SLOAD SWAP1 POP DUP6 JUMP JUMPDEST PUSH1 0x0 PUSH1 0x1 PUSH1 0x0 SWAP1 SLOAD SWAP1 PUSH2 0x100 EXP SWAP1 DIV PUSH20 0xFFFFFFFFFFFFFFFFFFFFFFFFFFFFFFFFFFFFFFFF AND PUSH20 0xFFFFFFFFFFFFFFFFFFFFFFFFFFFFFFFFFFFFFFFF AND PUSH2 0x9C6 PUSH2 0x13B4 JUMP JUMPDEST PUSH20 0xFFFFFFFFFFFFFFFFFFFFFFFFFFFFFFFFFFFFFFFF AND EQ DUP1 PUSH2 0xA21 JUMPI POP PUSH2 0x9EB PUSH2 0xD2D JUMP JUMPDEST PUSH20 0xFFFFFFFFFFFFFFFFFFFFFFFFFFFFFFFFFFFFFFFF AND PUSH2 0xA09 PUSH2 0x13B4 JUMP JUMPDEST PUSH20 0xFFFFFFFFFFFFFFFFFFFFFFFFFFFFFFFFFFFFFFFF AND EQ JUMPDEST DUP1 PUSH2 0xA5E JUMPI POP ORIGIN PUSH20 0xFFFFFFFFFFFFFFFFFFFFFFFFFFFFFFFFFFFFFFFF AND PUSH2 0xA46 PUSH2 0xD2D JUMP JUMPDEST PUSH20 0xFFFFFFFFFFFFFFFFFFFFFFFFFFFFFFFFFFFFFFFF AND EQ JUMPDEST PUSH2 0xA9D JUMPI PUSH1 0x40 MLOAD PUSH32 0x8C379A000000000000000000000000000000000000000000000000000000000 DUP2 MSTORE PUSH1 0x4 ADD PUSH2 0xA94 SWAP1 PUSH2 0x1CA0 JUMP JUMPDEST PUSH1 0x40 MLOAD DUP1 SWAP2 SUB SWAP1 REVERT JUMPDEST PUSH2 0xAA6 DUP9 PUSH2 0x14B5 JUMP JUMPDEST PUSH2 0xAE5 JUMPI PUSH1 0x40 MLOAD PUSH32 0x8C379A000000000000000000000000000000000000000000000000000000000 DUP2 MSTORE PUSH1 0x4 ADD PUSH2 0xADC SWAP1 PUSH2 0x1F55 JUMP JUMPDEST PUSH1 0x40 MLOAD DUP1 SWAP2 SUB SWAP1 REVERT JUMPDEST PUSH1 0x40 MLOAD DUP1 PUSH1 0xE0 ADD PUSH1 0x40 MSTORE DUP1 PUSH1 0x4 PUSH1 0x0 DUP12 DUP2 MSTORE PUSH1 0x20 ADD SWAP1 DUP2 MSTORE PUSH1 0x20 ADD PUSH1 0x0 KECCAK256 PUSH1 0x40 MLOAD DUP1 PUSH1 0x80 ADD PUSH1 0x40 MSTORE SWAP1 DUP2 PUSH1 0x0 DUP3 ADD SLOAD DUP2 MSTORE PUSH1 0x20 ADD PUSH1 0x1 DUP3 ADD SLOAD DUP2 MSTORE PUSH1 0x20 ADD PUSH1 0x2 DUP3 ADD SLOAD DUP2 MSTORE PUSH1 0x20 ADD PUSH1 0x3 DUP3 ADD SLOAD DUP2 MSTORE POP POP DUP2 MSTORE PUSH1 0x20 ADD DUP9 DUP9 DUP1 DUP1 PUSH1 0x20 MUL PUSH1 0x20 ADD PUSH1 0x40 MLOAD SWAP1 DUP2 ADD PUSH1 0x40 MSTORE DUP1 SWAP4 SWAP3 SWAP2 SWAP1 DUP2 DUP2 MSTORE PUSH1 0x20 ADD DUP4 DUP4 PUSH1 0x20 MUL DUP1 DUP3 DUP5 CALLDATACOPY PUSH1 0x0 DUP2 DUP5 ADD MSTORE PUSH1 0x1F NOT PUSH1 0x1F DUP3 ADD AND SWAP1 POP DUP1 DUP4 ADD SWAP3 POP POP POP POP POP POP POP DUP2 MSTORE PUSH1 0x20 ADD DUP7 DUP7 DUP1 DUP1 PUSH1 0x20 MUL PUSH1 0x20 ADD PUSH1 0x40 MLOAD SWAP1 DUP2 ADD PUSH1 0x40 MSTORE DUP1 SWAP4 SWAP3 SWAP2 SWAP1 DUP2 DUP2 MSTORE PUSH1 0x20 ADD DUP4 DUP4 PUSH1 0x20 MUL DUP1 DUP3 DUP5 CALLDATACOPY PUSH1 0x0 DUP2 DUP5 ADD MSTORE PUSH1 0x1F NOT PUSH1 0x1F DUP3 ADD AND SWAP1 POP DUP1 DUP4 ADD SWAP3 POP POP POP POP POP POP POP DUP2 MSTORE PUSH1 0x20 ADD PUSH1 0x0 PUSH1 0x2 DUP2 GT ISZERO PUSH2 0xBDD JUMPI PUSH2 0xBDC PUSH2 0x185B JUMP JUMPDEST JUMPDEST DUP2 MSTORE PUSH1 0x20 ADD PUSH1 0x3 DUP1 DUP2 GT ISZERO PUSH2 0xBF5 JUMPI PUSH2 0xBF4 PUSH2 0x185B JUMP JUMPDEST JUMPDEST DUP2 MSTORE PUSH1 0x20 ADD DUP5 DUP2 MSTORE PUSH1 0x20 ADD DUP4 DUP2 MSTORE POP PUSH1 0x5 PUSH1 0x0 PUSH1 0x2 SLOAD DUP2 MSTORE PUSH1 0x20 ADD SWAP1 DUP2 MSTORE PUSH1 0x20 ADD PUSH1 0x0 KECCAK256 PUSH1 0x0 DUP3 ADD MLOAD DUP2 PUSH1 0x0 ADD PUSH1 0x0 DUP3 ADD MLOAD DUP2 PUSH1 0x0 ADD SSTORE PUSH1 0x20 DUP3 ADD MLOAD DUP2 PUSH1 0x1 ADD SSTORE PUSH1 0x40 DUP3 ADD MLOAD DUP2 PUSH1 0x2 ADD SSTORE PUSH1 0x60 DUP3 ADD MLOAD DUP2 PUSH1 0x3 ADD SSTORE POP POP PUSH1 0x20 DUP3 ADD MLOAD DUP2 PUSH1 0x4 ADD SWAP1 DUP1 MLOAD SWAP1 PUSH1 0x20 ADD SWAP1 PUSH2 0xC68 SWAP3 SWAP2 SWAP1 PUSH2 0x14E7 JUMP JUMPDEST POP PUSH1 0x40 DUP3 ADD MLOAD DUP2 PUSH1 0x5 ADD SWAP1 DUP1 MLOAD SWAP1 PUSH1 0x20 ADD SWAP1 PUSH2 0xC85 SWAP3 SWAP2 SWAP1 PUSH2 0x14E7 JUMP JUMPDEST POP PUSH1 0x60 DUP3 ADD MLOAD DUP2 PUSH1 0x6 ADD PUSH1 0x0 PUSH2 0x100 EXP DUP2 SLOAD DUP2 PUSH1 0xFF MUL NOT AND SWAP1 DUP4 PUSH1 0x2 DUP2 GT ISZERO PUSH2 0xCB1 JUMPI PUSH2 0xCB0 PUSH2 0x185B JUMP JUMPDEST JUMPDEST MUL OR SWAP1 SSTORE POP PUSH1 0x80 DUP3 ADD MLOAD DUP2 PUSH1 0x6 ADD PUSH1 0x1 PUSH2 0x100 EXP DUP2 SLOAD DUP2 PUSH1 0xFF MUL NOT AND SWAP1 DUP4 PUSH1 0x3 DUP2 GT ISZERO PUSH2 0xCE1 JUMPI PUSH2 0xCE0 PUSH2 0x185B JUMP JUMPDEST JUMPDEST MUL OR SWAP1 SSTORE POP PUSH1 0xA0 DUP3 ADD MLOAD DUP2 PUSH1 0x7 ADD SSTORE PUSH1 0xC0 DUP3 ADD MLOAD DUP2 PUSH1 0x8 ADD SSTORE SWAP1 POP POP PUSH1 0x0 PUSH1 0x2 SLOAD SWAP1 POP PUSH1 0x1 PUSH1 0x2 PUSH1 0x0 DUP3 DUP3 SLOAD PUSH2 0xD17 SWAP2 SWAP1 PUSH2 0x1EB3 JUMP JUMPDEST SWAP3 POP POP DUP2 SWAP1 SSTORE POP DUP1 SWAP2 POP POP SWAP8 SWAP7 POP POP POP POP POP POP POP JUMP JUMPDEST PUSH1 0x0 DUP1 PUSH1 0x0 SWAP1 SLOAD SWAP1 PUSH2 0x100 EXP SWAP1 DIV PUSH20 0xFFFFFFFFFFFFFFFFFFFFFFFFFFFFFFFFFFFFFFFF AND SWAP1 POP SWAP1 JUMP JUMPDEST PUSH1 0x0 PUSH1 0x1 PUSH1 0x0 SWAP1 SLOAD SWAP1 PUSH2 0x100 EXP SWAP1 DIV PUSH20 0xFFFFFFFFFFFFFFFFFFFFFFFFFFFFFFFFFFFFFFFF AND PUSH20 0xFFFFFFFFFFFFFFFFFFFFFFFFFFFFFFFFFFFFFFFF AND PUSH2 0xD99 PUSH2 0x13B4 JUMP JUMPDEST PUSH20 0xFFFFFFFFFFFFFFFFFFFFFFFFFFFFFFFFFFFFFFFF AND EQ DUP1 PUSH2 0xDF4 JUMPI POP PUSH2 0xDBE PUSH2 0xD2D JUMP JUMPDEST PUSH20 0xFFFFFFFFFFFFFFFFFFFFFFFFFFFFFFFFFFFFFFFF AND PUSH2 0xDDC PUSH2 0x13B4 JUMP JUMPDEST PUSH20 0xFFFFFFFFFFFFFFFFFFFFFFFFFFFFFFFFFFFFFFFF AND EQ JUMPDEST DUP1 PUSH2 0xE31 JUMPI POP ORIGIN PUSH20 0xFFFFFFFFFFFFFFFFFFFFFFFFFFFFFFFFFFFFFFFF AND PUSH2 0xE19 PUSH2 0xD2D JUMP JUMPDEST PUSH20 0xFFFFFFFFFFFFFFFFFFFFFFFFFFFFFFFFFFFFFFFF AND EQ JUMPDEST PUSH2 0xE70 JUMPI PUSH1 0x40 MLOAD PUSH32 0x8C379A000000000000000000000000000000000000000000000000000000000 DUP2 MSTORE PUSH1 0x4 ADD PUSH2 0xE67 SWAP1 PUSH2 0x1CA0 JUMP JUMPDEST PUSH1 0x40 MLOAD DUP1 SWAP2 SUB SWAP1 REVERT JUMPDEST PUSH2 0xE79 DUP4 PUSH2 0x13BC JUMP JUMPDEST PUSH2 0xEB8 JUMPI PUSH1 0x40 MLOAD PUSH32 0x8C379A000000000000000000000000000000000000000000000000000000000 DUP2 MSTORE PUSH1 0x4 ADD PUSH2 0xEAF SWAP1 PUSH2 0x1D32 JUMP JUMPDEST PUSH1 0x40 MLOAD DUP1 SWAP2 SUB SWAP1 REVERT JUMPDEST PUSH1 0x0 DUP3 PUSH1 0xFF AND LT ISZERO DUP1 ISZERO PUSH2 0xED0 JUMPI POP PUSH1 0x3 DUP3 PUSH1 0xFF AND GT ISZERO JUMPDEST PUSH2 0xF0F JUMPI PUSH1 0x40 MLOAD PUSH32 0x8C379A000000000000000000000000000000000000000000000000000000000 DUP2 MSTORE PUSH1 0x4 ADD PUSH2 0xF06 SWAP1 PUSH2 0x1FE7 JUMP JUMPDEST PUSH1 0x40 MLOAD DUP1 SWAP2 SUB SWAP1 REVERT JUMPDEST PUSH1 0x0 PUSH1 0x5 PUSH1 0x0 DUP6 DUP2 MSTORE PUSH1 0x20 ADD SWAP1 DUP2 MSTORE PUSH1 0x20 ADD PUSH1 0x0 KECCAK256 SWAP1 POP PUSH1 0x0 DUP4 PUSH1 0xFF AND EQ ISZERO PUSH2 0xF64 JUMPI PUSH1 0x0 DUP2 PUSH1 0x6 ADD PUSH1 0x1 PUSH2 0x100 EXP DUP2 SLOAD DUP2 PUSH1 0xFF MUL NOT AND SWAP1 DUP4 PUSH1 0x3 DUP2 GT ISZERO PUSH2 0xF5A JUMPI PUSH2 0xF59 PUSH2 0x185B JUMP JUMPDEST JUMPDEST MUL OR SWAP1 SSTORE POP PUSH2 0x101D JUMP JUMPDEST PUSH1 0x1 DUP4 PUSH1 0xFF AND EQ ISZERO PUSH2 0xFA2 JUMPI PUSH1 0x1 DUP2 PUSH1 0x6 ADD PUSH1 0x1 PUSH2 0x100 EXP DUP2 SLOAD DUP2 PUSH1 0xFF MUL NOT AND SWAP1 DUP4 PUSH1 0x3 DUP2 GT ISZERO PUSH2 0xF98 JUMPI PUSH2 0xF97 PUSH2 0x185B JUMP JUMPDEST JUMPDEST MUL OR SWAP1 SSTORE POP PUSH2 0x101C JUMP JUMPDEST PUSH1 0x2 DUP4 PUSH1 0xFF AND EQ ISZERO PUSH2 0xFE0 JUMPI PUSH1 0x2 DUP2 PUSH1 0x6 ADD PUSH1 0x1 PUSH2 0x100 EXP DUP2 SLOAD DUP2 PUSH1 0xFF MUL NOT AND SWAP1 DUP4 PUSH1 0x3 DUP2 GT ISZERO PUSH2 0xFD6 JUMPI PUSH2 0xFD5 PUSH2 0x185B JUMP JUMPDEST JUMPDEST MUL OR SWAP1 SSTORE POP PUSH2 0x101B JUMP JUMPDEST PUSH1 0x3 DUP4 PUSH1 0xFF AND EQ ISZERO PUSH2 0x101A JUMPI PUSH1 0x3 DUP2 PUSH1 0x6 ADD PUSH1 0x1 PUSH2 0x100 EXP DUP2 SLOAD DUP2 PUSH1 0xFF MUL NOT AND SWAP1 DUP4 PUSH1 0x3 DUP2 GT ISZERO PUSH2 0x1014 JUMPI PUSH2 0x1013 PUSH2 0x185B JUMP JUMPDEST JUMPDEST MUL OR SWAP1 SSTORE POP JUMPDEST JUMPDEST JUMPDEST JUMPDEST PUSH1 0x1 SWAP2 POP POP SWAP3 SWAP2 POP POP JUMP JUMPDEST PUSH1 0x0 DUP1 PUSH1 0x4 PUSH1 0x0 DUP5 DUP2 MSTORE PUSH1 0x20 ADD SWAP1 DUP2 MSTORE PUSH1 0x20 ADD PUSH1 0x0 KECCAK256 PUSH1 0x0 ADD SLOAD PUSH1 0x4 PUSH1 0x0 DUP6 DUP2 MSTORE PUSH1 0x20 ADD SWAP1 DUP2 MSTORE PUSH1 0x20 ADD PUSH1 0x0 KECCAK256 PUSH1 0x1 ADD SLOAD SWAP2 POP SWAP2 POP SWAP2 POP SWAP2 JUMP JUMPDEST PUSH1 0x1 PUSH1 0x0 SWAP1 SLOAD SWAP1 PUSH2 0x100 EXP SWAP1 DIV PUSH20 0xFFFFFFFFFFFFFFFFFFFFFFFFFFFFFFFFFFFFFFFF AND DUP2 JUMP JUMPDEST PUSH1 0x0 DUP1 PUSH1 0x60 DUP1 PUSH1 0x0 DUP1 PUSH1 0x0 DUP1 PUSH1 0x5 PUSH1 0x0 DUP11 DUP2 MSTORE PUSH1 0x20 ADD SWAP1 DUP2 MSTORE PUSH1 0x20 ADD PUSH1 0x0 KECCAK256 PUSH1 0x0 ADD PUSH1 0x40 MLOAD DUP1 PUSH1 0x80 ADD PUSH1 0x40 MSTORE SWAP1 DUP2 PUSH1 0x0 DUP3 ADD SLOAD DUP2 MSTORE PUSH1 0x20 ADD PUSH1 0x1 DUP3 ADD SLOAD DUP2 MSTORE PUSH1 0x20 ADD PUSH1 0x2 DUP3 ADD SLOAD DUP2 MSTORE PUSH1 0x20 ADD PUSH1 0x3 DUP3 ADD SLOAD DUP2 MSTORE POP POP SWAP1 POP DUP1 PUSH1 0x0 ADD MLOAD SWAP8 POP DUP1 PUSH1 0x20 ADD MLOAD SWAP7 POP PUSH1 0x5 PUSH1 0x0 DUP11 DUP2 MSTORE PUSH1 0x20 ADD SWAP1 DUP2 MSTORE PUSH1 0x20 ADD PUSH1 0x0 KECCAK256 PUSH1 0x4 ADD DUP1 SLOAD DUP1 PUSH1 0x20 MUL PUSH1 0x20 ADD PUSH1 0x40 MLOAD SWAP1 DUP2 ADD PUSH1 0x40 MSTORE DUP1 SWAP3 SWAP2 SWAP1 DUP2 DUP2 MSTORE PUSH1 0x20 ADD DUP3 DUP1 SLOAD DUP1 ISZERO PUSH2 0x1183 JUMPI PUSH1 0x20 MUL DUP3 ADD SWAP2 SWAP1 PUSH1 0x0 MSTORE PUSH1 0x20 PUSH1 0x0 KECCAK256 SWAP1 JUMPDEST DUP2 PUSH1 0x0 SWAP1 SLOAD SWAP1 PUSH2 0x100 EXP SWAP1 DIV PUSH20 0xFFFFFFFFFFFFFFFFFFFFFFFFFFFFFFFFFFFFFFFF AND PUSH20 0xFFFFFFFFFFFFFFFFFFFFFFFFFFFFFFFFFFFFFFFF AND DUP2 MSTORE PUSH1 0x20 ADD SWAP1 PUSH1 0x1 ADD SWAP1 DUP1 DUP4 GT PUSH2 0x1139 JUMPI JUMPDEST POP POP POP POP POP SWAP6 POP PUSH1 0x5 PUSH1 0x0 DUP11 DUP2 MSTORE PUSH1 0x20 ADD SWAP1 DUP2 MSTORE PUSH1 0x20 ADD PUSH1 0x0 KECCAK256 PUSH1 0x5 ADD DUP1 SLOAD DUP1 PUSH1 0x20 MUL PUSH1 0x20 ADD PUSH1 0x40 MLOAD SWAP1 DUP2 ADD PUSH1 0x40 MSTORE DUP1 SWAP3 SWAP2 SWAP1 DUP2 DUP2 MSTORE PUSH1 0x20 ADD DUP3 DUP1 SLOAD DUP1 ISZERO PUSH2 0x1220 JUMPI PUSH1 0x20 MUL DUP3 ADD SWAP2 SWAP1 PUSH1 0x0 MSTORE PUSH1 0x20 PUSH1 0x0 KECCAK256 SWAP1 JUMPDEST DUP2 PUSH1 0x0 SWAP1 SLOAD SWAP1 PUSH2 0x100 EXP SWAP1 DIV PUSH20 0xFFFFFFFFFFFFFFFFFFFFFFFFFFFFFFFFFFFFFFFF AND PUSH20 0xFFFFFFFFFFFFFFFFFFFFFFFFFFFFFFFFFFFFFFFF AND DUP2 MSTORE PUSH1 0x20 ADD SWAP1 PUSH1 0x1 ADD SWAP1 DUP1 DUP4 GT PUSH2 0x11D6 JUMPI JUMPDEST POP POP POP POP POP SWAP5 POP PUSH1 0x5 PUSH1 0x0 DUP11 DUP2 MSTORE PUSH1 0x20 ADD SWAP1 DUP2 MSTORE PUSH1 0x20 ADD PUSH1 0x0 KECCAK256 PUSH1 0x6 ADD PUSH1 0x0 SWAP1 SLOAD SWAP1 PUSH2 0x100 EXP SWAP1 DIV PUSH1 0xFF AND PUSH1 0x2 DUP2 GT ISZERO PUSH2 0x125D JUMPI PUSH2 0x125C PUSH2 0x185B JUMP JUMPDEST JUMPDEST SWAP4 POP PUSH1 0x5 PUSH1 0x0 DUP11 DUP2 MSTORE PUSH1 0x20 ADD SWAP1 DUP2 MSTORE PUSH1 0x20 ADD PUSH1 0x0 KECCAK256 PUSH1 0x6 ADD PUSH1 0x1 SWAP1 SLOAD SWAP1 PUSH2 0x100 EXP SWAP1 DIV PUSH1 0xFF AND PUSH1 0x3 DUP2 GT ISZERO PUSH2 0x1295 JUMPI PUSH2 0x1294 PUSH2 0x185B JUMP JUMPDEST JUMPDEST SWAP3 POP PUSH1 0x5 PUSH1 0x0 DUP11 DUP2 MSTORE PUSH1 0x20 ADD SWAP1 DUP2 MSTORE PUSH1 0x20 ADD PUSH1 0x0 KECCAK256 PUSH1 0x7 ADD SLOAD SWAP2 POP POP SWAP2 SWAP4 SWAP6 SWAP8 SWAP1 SWAP3 SWAP5 SWAP7 POP JUMP JUMPDEST PUSH2 0x12C4 PUSH2 0x13B4 JUMP JUMPDEST PUSH20 0xFFFFFFFFFFFFFFFFFFFFFFFFFFFFFFFFFFFFFFFF AND PUSH2 0x12E2 PUSH2 0xD2D JUMP JUMPDEST PUSH20 0xFFFFFFFFFFFFFFFFFFFFFFFFFFFFFFFFFFFFFFFF AND EQ PUSH2 0x1338 JUMPI PUSH1 0x40 MLOAD PUSH32 0x8C379A000000000000000000000000000000000000000000000000000000000 DUP2 MSTORE PUSH1 0x4 ADD PUSH2 0x132F SWAP1 PUSH2 0x1E30 JUMP JUMPDEST PUSH1 0x40 MLOAD DUP1 SWAP2 SUB SWAP1 REVERT JUMPDEST PUSH1 0x0 PUSH20 0xFFFFFFFFFFFFFFFFFFFFFFFFFFFFFFFFFFFFFFFF AND DUP2 PUSH20 0xFFFFFFFFFFFFFFFFFFFFFFFFFFFFFFFFFFFFFFFF AND EQ ISZERO PUSH2 0x13A8 JUMPI PUSH1 0x40 MLOAD PUSH32 0x8C379A000000000000000000000000000000000000000000000000000000000 DUP2 MSTORE PUSH1 0x4 ADD PUSH2 0x139F SWAP1 PUSH2 0x2079 JUMP JUMPDEST PUSH1 0x40 MLOAD DUP1 SWAP2 SUB SWAP1 REVERT JUMPDEST PUSH2 0x13B1 DUP2 PUSH2 0x13F1 JUMP JUMPDEST POP JUMP JUMPDEST PUSH1 0x0 CALLER SWAP1 POP SWAP1 JUMP JUMPDEST PUSH1 0x0 DUP1 PUSH1 0x5 PUSH1 0x0 DUP5 DUP2 MSTORE PUSH1 0x20 ADD SWAP1 DUP2 MSTORE PUSH1 0x20 ADD PUSH1 0x0 KECCAK256 PUSH1 0x4 ADD DUP1 SLOAD SWAP1 POP EQ PUSH2 0x13E7 JUMPI PUSH1 0x1 SWAP1 POP PUSH2 0x13EC JUMP JUMPDEST PUSH1 0x0 SWAP1 POP JUMPDEST SWAP2 SWAP1 POP JUMP JUMPDEST PUSH1 0x0 DUP1 PUSH1 0x0 SWAP1 SLOAD SWAP1 PUSH2 0x100 EXP SWAP1 DIV PUSH20 0xFFFFFFFFFFFFFFFFFFFFFFFFFFFFFFFFFFFFFFFF AND SWAP1 POP DUP2 PUSH1 0x0 DUP1 PUSH2 0x100 EXP DUP2 SLOAD DUP2 PUSH20 0xFFFFFFFFFFFFFFFFFFFFFFFFFFFFFFFFFFFFFFFF MUL NOT AND SWAP1 DUP4 PUSH20 0xFFFFFFFFFFFFFFFFFFFFFFFFFFFFFFFFFFFFFFFF AND MUL OR SWAP1 SSTORE POP DUP2 PUSH20 0xFFFFFFFFFFFFFFFFFFFFFFFFFFFFFFFFFFFFFFFF AND DUP2 PUSH20 0xFFFFFFFFFFFFFFFFFFFFFFFFFFFFFFFFFFFFFFFF AND PUSH32 0x8BE0079C531659141344CD1FD0A4F28419497F9722A3DAAFE3B4186F6B6457E0 PUSH1 0x40 MLOAD PUSH1 0x40 MLOAD DUP1 SWAP2 SUB SWAP1 LOG3 POP POP JUMP JUMPDEST PUSH1 0x0 DUP1 PUSH1 0x4 PUSH1 0x0 DUP5 DUP2 MSTORE PUSH1 0x20 ADD SWAP1 DUP2 MSTORE PUSH1 0x20 ADD PUSH1 0x0 KECCAK256 PUSH1 0x2 ADD SLOAD EQ PUSH2 0x14DD JUMPI PUSH1 0x1 SWAP1 POP PUSH2 0x14E2 JUMP JUMPDEST PUSH1 0x0 SWAP1 POP JUMPDEST SWAP2 SWAP1 POP JUMP JUMPDEST DUP3 DUP1 SLOAD DUP3 DUP3 SSTORE SWAP1 PUSH1 0x0 MSTORE PUSH1 0x20 PUSH1 0x0 KECCAK256 SWAP1 DUP2 ADD SWAP3 DUP3 ISZERO PUSH2 0x1560 JUMPI SWAP2 PUSH1 0x20 MUL DUP3 ADD JUMPDEST DUP3 DUP2 GT ISZERO PUSH2 0x155F JUMPI DUP3 MLOAD DUP3 PUSH1 0x0 PUSH2 0x100 EXP DUP2 SLOAD DUP2 PUSH20 0xFFFFFFFFFFFFFFFFFFFFFFFFFFFFFFFFFFFFFFFF MUL NOT AND SWAP1 DUP4 PUSH20 0xFFFFFFFFFFFFFFFFFFFFFFFFFFFFFFFFFFFFFFFF AND MUL OR SWAP1 SSTORE POP SWAP2 PUSH1 0x20 ADD SWAP2 SWAP1 PUSH1 0x1 ADD SWAP1 PUSH2 0x1507 JUMP JUMPDEST JUMPDEST POP SWAP1 POP PUSH2 0x156D SWAP2 SWAP1 PUSH2 0x1571 JUMP JUMPDEST POP SWAP1 JUMP JUMPDEST JUMPDEST DUP1 DUP3 GT ISZERO PUSH2 0x158A JUMPI PUSH1 0x0 DUP2 PUSH1 0x0 SWAP1 SSTORE POP PUSH1 0x1 ADD PUSH2 0x1572 JUMP JUMPDEST POP SWAP1 JUMP JUMPDEST PUSH1 0x0 DUP1 REVERT JUMPDEST PUSH1 0x0 DUP1 REVERT JUMPDEST PUSH1 0x0 DUP2 SWAP1 POP SWAP2 SWAP1 POP JUMP JUMPDEST PUSH2 0x15AB DUP2 PUSH2 0x1598 JUMP JUMPDEST DUP2 EQ PUSH2 0x15B6 JUMPI PUSH1 0x0 DUP1 REVERT JUMPDEST POP JUMP JUMPDEST PUSH1 0x0 DUP2 CALLDATALOAD SWAP1 POP PUSH2 0x15C8 DUP2 PUSH2 0x15A2 JUMP JUMPDEST SWAP3 SWAP2 POP POP JUMP JUMPDEST PUSH1 0x0 PUSH1 0xFF DUP3 AND SWAP1 POP SWAP2 SWAP1 POP JUMP JUMPDEST PUSH2 0x15E4 DUP2 PUSH2 0x15CE JUMP JUMPDEST DUP2 EQ PUSH2 0x15EF JUMPI PUSH1 0x0 DUP1 REVERT JUMPDEST POP JUMP JUMPDEST PUSH1 0x0 DUP2 CALLDATALOAD SWAP1 POP PUSH2 0x1601 DUP2 PUSH2 0x15DB JUMP JUMPDEST SWAP3 SWAP2 POP POP JUMP JUMPDEST PUSH1 0x0 DUP1 PUSH1 0x40 DUP4 DUP6 SUB SLT ISZERO PUSH2 0x161E JUMPI PUSH2 0x161D PUSH2 0x158E JUMP JUMPDEST JUMPDEST PUSH1 0x0 PUSH2 0x162C DUP6 DUP3 DUP7 ADD PUSH2 0x15B9 JUMP JUMPDEST SWAP3 POP POP PUSH1 0x20 PUSH2 0x163D DUP6 DUP3 DUP7 ADD PUSH2 0x15F2 JUMP JUMPDEST SWAP2 POP POP SWAP3 POP SWAP3 SWAP1 POP JUMP JUMPDEST PUSH1 0x0 DUP2 ISZERO ISZERO SWAP1 POP SWAP2 SWAP1 POP JUMP JUMPDEST PUSH2 0x165C DUP2 PUSH2 0x1647 JUMP JUMPDEST DUP3 MSTORE POP POP JUMP JUMPDEST PUSH1 0x0 PUSH1 0x20 DUP3 ADD SWAP1 POP PUSH2 0x1677 PUSH1 0x0 DUP4 ADD DUP5 PUSH2 0x1653 JUMP JUMPDEST SWAP3 SWAP2 POP POP JUMP JUMPDEST PUSH1 0x0 PUSH1 0x20 DUP3 DUP5 SUB SLT ISZERO PUSH2 0x1693 JUMPI PUSH2 0x1692 PUSH2 0x158E JUMP JUMPDEST JUMPDEST PUSH1 0x0 PUSH2 0x16A1 DUP5 DUP3 DUP6 ADD PUSH2 0x15B9 JUMP JUMPDEST SWAP2 POP POP SWAP3 SWAP2 POP POP JUMP JUMPDEST PUSH2 0x16B3 DUP2 PUSH2 0x1598 JUMP JUMPDEST DUP3 MSTORE POP POP JUMP JUMPDEST PUSH1 0x0 PUSH1 0x80 DUP3 ADD SWAP1 POP PUSH2 0x16CE PUSH1 0x0 DUP4 ADD DUP8 PUSH2 0x16AA JUMP JUMPDEST PUSH2 0x16DB PUSH1 0x20 DUP4 ADD DUP7 PUSH2 0x16AA JUMP JUMPDEST PUSH2 0x16E8 PUSH1 0x40 DUP4 ADD DUP6 PUSH2 0x16AA JUMP JUMPDEST PUSH2 0x16F5 PUSH1 0x60 DUP4 ADD DUP5 PUSH2 0x16AA JUMP JUMPDEST SWAP6 SWAP5 POP POP POP POP POP JUMP JUMPDEST PUSH1 0x0 PUSH20 0xFFFFFFFFFFFFFFFFFFFFFFFFFFFFFFFFFFFFFFFF DUP3 AND SWAP1 POP SWAP2 SWAP1 POP JUMP JUMPDEST PUSH1 0x0 PUSH2 0x1729 DUP3 PUSH2 0x16FE JUMP JUMPDEST SWAP1 POP SWAP2 SWAP1 POP JUMP JUMPDEST PUSH2 0x1739 DUP2 PUSH2 0x171E JUMP JUMPDEST DUP2 EQ PUSH2 0x1744 JUMPI PUSH1 0x0 DUP1 REVERT JUMPDEST POP JUMP JUMPDEST PUSH1 0x0 DUP2 CALLDATALOAD SWAP1 POP PUSH2 0x1756 DUP2 PUSH2 0x1730 JUMP JUMPDEST SWAP3 SWAP2 POP POP JUMP JUMPDEST PUSH1 0x0 PUSH1 0x20 DUP3 DUP5 SUB SLT ISZERO PUSH2 0x1772 JUMPI PUSH2 0x1771 PUSH2 0x158E JUMP JUMPDEST JUMPDEST PUSH1 0x0 PUSH2 0x1780 DUP5 DUP3 DUP6 ADD PUSH2 0x1747 JUMP JUMPDEST SWAP2 POP POP SWAP3 SWAP2 POP POP JUMP JUMPDEST PUSH1 0x0 PUSH1 0x20 DUP3 ADD SWAP1 POP PUSH2 0x179E PUSH1 0x0 DUP4 ADD DUP5 PUSH2 0x16AA JUMP JUMPDEST SWAP3 SWAP2 POP POP JUMP JUMPDEST PUSH1 0x0 DUP1 PUSH1 0x0 PUSH1 0x60 DUP5 DUP7 SUB SLT ISZERO PUSH2 0x17BD JUMPI PUSH2 0x17BC PUSH2 0x158E JUMP JUMPDEST JUMPDEST PUSH1 0x0 PUSH2 0x17CB DUP7 DUP3 DUP8 ADD PUSH2 0x15B9 JUMP JUMPDEST SWAP4 POP POP PUSH1 0x20 PUSH2 0x17DC DUP7 DUP3 DUP8 ADD PUSH2 0x15B9 JUMP JUMPDEST SWAP3 POP POP PUSH1 0x40 PUSH2 0x17ED DUP7 DUP3 DUP8 ADD PUSH2 0x15B9 JUMP JUMPDEST SWAP2 POP POP SWAP3 POP SWAP3 POP SWAP3 JUMP JUMPDEST PUSH2 0x1800 DUP2 PUSH2 0x1598 JUMP JUMPDEST DUP3 MSTORE POP POP JUMP JUMPDEST PUSH1 0x80 DUP3 ADD PUSH1 0x0 DUP3 ADD MLOAD PUSH2 0x181C PUSH1 0x0 DUP6 ADD DUP3 PUSH2 0x17F7 JUMP JUMPDEST POP PUSH1 0x20 DUP3 ADD MLOAD PUSH2 0x182F PUSH1 0x20 DUP6 ADD DUP3 PUSH2 0x17F7 JUMP JUMPDEST POP PUSH1 0x40 DUP3 ADD MLOAD PUSH2 0x1842 PUSH1 0x40 DUP6 ADD DUP3 PUSH2 0x17F7 JUMP JUMPDEST POP PUSH1 0x60 DUP3 ADD MLOAD PUSH2 0x1855 PUSH1 0x60 DUP6 ADD DUP3 PUSH2 0x17F7 JUMP JUMPDEST POP POP POP POP JUMP JUMPDEST PUSH32 0x4E487B7100000000000000000000000000000000000000000000000000000000 PUSH1 0x0 MSTORE PUSH1 0x21 PUSH1 0x4 MSTORE PUSH1 0x24 PUSH1 0x0 REVERT JUMPDEST PUSH1 0x3 DUP2 LT PUSH2 0x189B JUMPI PUSH2 0x189A PUSH2 0x185B JUMP JUMPDEST JUMPDEST POP JUMP JUMPDEST PUSH1 0x0 DUP2 SWAP1 POP PUSH2 0x18AC DUP3 PUSH2 0x188A JUMP JUMPDEST SWAP2 SWAP1 POP JUMP JUMPDEST PUSH1 0x0 PUSH2 0x18BC DUP3 PUSH2 0x189E JUMP JUMPDEST SWAP1 POP SWAP2 SWAP1 POP JUMP JUMPDEST PUSH2 0x18CC DUP2 PUSH2 0x18B1 JUMP JUMPDEST DUP3 MSTORE POP POP JUMP JUMPDEST PUSH1 0x4 DUP2 LT PUSH2 0x18E3 JUMPI PUSH2 0x18E2 PUSH2 0x185B JUMP JUMPDEST JUMPDEST POP JUMP JUMPDEST PUSH1 0x0 DUP2 SWAP1 POP PUSH2 0x18F4 DUP3 PUSH2 0x18D2 JUMP JUMPDEST SWAP2 SWAP1 POP JUMP JUMPDEST PUSH1 0x0 PUSH2 0x1904 DUP3 PUSH2 0x18E6 JUMP JUMPDEST SWAP1 POP SWAP2 SWAP1 POP JUMP JUMPDEST PUSH2 0x1914 DUP2 PUSH2 0x18F9 JUMP JUMPDEST DUP3 MSTORE POP POP JUMP JUMPDEST PUSH1 0x0 PUSH2 0x100 DUP3 ADD SWAP1 POP PUSH2 0x1930 PUSH1 0x0 DUP4 ADD DUP9 PUSH2 0x1806 JUMP JUMPDEST PUSH2 0x193D PUSH1 0x80 DUP4 ADD DUP8 PUSH2 0x18C3 JUMP JUMPDEST PUSH2 0x194A PUSH1 0xA0 DUP4 ADD DUP7 PUSH2 0x190B JUMP JUMPDEST PUSH2 0x1957 PUSH1 0xC0 DUP4 ADD DUP6 PUSH2 0x16AA JUMP JUMPDEST PUSH2 0x1964 PUSH1 0xE0 DUP4 ADD DUP5 PUSH2 0x16AA JUMP JUMPDEST SWAP7 SWAP6 POP POP POP POP POP POP JUMP JUMPDEST PUSH1 0x0 DUP1 REVERT JUMPDEST PUSH1 0x0 DUP1 REVERT JUMPDEST PUSH1 0x0 DUP1 REVERT JUMPDEST PUSH1 0x0 DUP1 DUP4 PUSH1 0x1F DUP5 ADD SLT PUSH2 0x1993 JUMPI PUSH2 0x1992 PUSH2 0x196E JUMP JUMPDEST JUMPDEST DUP3 CALLDATALOAD SWAP1 POP PUSH8 0xFFFFFFFFFFFFFFFF DUP2 GT ISZERO PUSH2 0x19B0 JUMPI PUSH2 0x19AF PUSH2 0x1973 JUMP JUMPDEST JUMPDEST PUSH1 0x20 DUP4 ADD SWAP2 POP DUP4 PUSH1 0x20 DUP3 MUL DUP4 ADD GT ISZERO PUSH2 0x19CC JUMPI PUSH2 0x19CB PUSH2 0x1978 JUMP JUMPDEST JUMPDEST SWAP3 POP SWAP3 SWAP1 POP JUMP JUMPDEST PUSH1 0x0 DUP1 PUSH1 0x0 DUP1 PUSH1 0x0 DUP1 PUSH1 0x0 PUSH1 0xA0 DUP9 DUP11 SUB SLT ISZERO PUSH2 0x19F2 JUMPI PUSH2 0x19F1 PUSH2 0x158E JUMP JUMPDEST JUMPDEST PUSH1 0x0 PUSH2 0x1A00 DUP11 DUP3 DUP12 ADD PUSH2 0x15B9 JUMP JUMPDEST SWAP8 POP POP PUSH1 0x20 DUP9 ADD CALLDATALOAD PUSH8 0xFFFFFFFFFFFFFFFF DUP2 GT ISZERO PUSH2 0x1A21 JUMPI PUSH2 0x1A20 PUSH2 0x1593 JUMP JUMPDEST JUMPDEST PUSH2 0x1A2D DUP11 DUP3 DUP12 ADD PUSH2 0x197D JUMP JUMPDEST SWAP7 POP SWAP7 POP POP PUSH1 0x40 DUP9 ADD CALLDATALOAD PUSH8 0xFFFFFFFFFFFFFFFF DUP2 GT ISZERO PUSH2 0x1A50 JUMPI PUSH2 0x1A4F PUSH2 0x1593 JUMP JUMPDEST JUMPDEST PUSH2 0x1A5C DUP11 DUP3 DUP12 ADD PUSH2 0x197D JUMP JUMPDEST SWAP5 POP SWAP5 POP POP PUSH1 0x60 PUSH2 0x1A6F DUP11 DUP3 DUP12 ADD PUSH2 0x15B9 JUMP JUMPDEST SWAP3 POP POP PUSH1 0x80 PUSH2 0x1A80 DUP11 DUP3 DUP12 ADD PUSH2 0x15B9 JUMP JUMPDEST SWAP2 POP POP SWAP3 SWAP6 SWAP9 SWAP2 SWAP5 SWAP8 POP SWAP3 SWAP6 POP JUMP JUMPDEST PUSH2 0x1A98 DUP2 PUSH2 0x171E JUMP JUMPDEST DUP3 MSTORE POP POP JUMP JUMPDEST PUSH1 0x0 PUSH1 0x20 DUP3 ADD SWAP1 POP PUSH2 0x1AB3 PUSH1 0x0 DUP4 ADD DUP5 PUSH2 0x1A8F JUMP JUMPDEST SWAP3 SWAP2 POP POP JUMP JUMPDEST PUSH1 0x0 PUSH1 0x40 DUP3 ADD SWAP1 POP PUSH2 0x1ACE PUSH1 0x0 DUP4 ADD DUP6 PUSH2 0x16AA JUMP JUMPDEST PUSH2 0x1ADB PUSH1 0x20 DUP4 ADD DUP5 PUSH2 0x16AA JUMP JUMPDEST SWAP4 SWAP3 POP POP POP JUMP JUMPDEST PUSH1 0x0 DUP2 MLOAD SWAP1 POP SWAP2 SWAP1 POP JUMP JUMPDEST PUSH1 0x0 DUP3 DUP3 MSTORE PUSH1 0x20 DUP3 ADD SWAP1 POP SWAP3 SWAP2 POP POP JUMP JUMPDEST PUSH1 0x0 DUP2 SWAP1 POP PUSH1 0x20 DUP3 ADD SWAP1 POP SWAP2 SWAP1 POP JUMP JUMPDEST PUSH2 0x1B17 DUP2 PUSH2 0x171E JUMP JUMPDEST DUP3 MSTORE POP POP JUMP JUMPDEST PUSH1 0x0 PUSH2 0x1B29 DUP4 DUP4 PUSH2 0x1B0E JUMP JUMPDEST PUSH1 0x20 DUP4 ADD SWAP1 POP SWAP3 SWAP2 POP POP JUMP JUMPDEST PUSH1 0x0 PUSH1 0x20 DUP3 ADD SWAP1 POP SWAP2 SWAP1 POP JUMP JUMPDEST PUSH1 0x0 PUSH2 0x1B4D DUP3 PUSH2 0x1AE2 JUMP JUMPDEST PUSH2 0x1B57 DUP2 DUP6 PUSH2 0x1AED JUMP JUMPDEST SWAP4 POP PUSH2 0x1B62 DUP4 PUSH2 0x1AFE JUMP JUMPDEST DUP1 PUSH1 0x0 JUMPDEST DUP4 DUP2 LT ISZERO PUSH2 0x1B93 JUMPI DUP2 MLOAD PUSH2 0x1B7A DUP9 DUP3 PUSH2 0x1B1D JUMP JUMPDEST SWAP8 POP PUSH2 0x1B85 DUP4 PUSH2 0x1B35 JUMP JUMPDEST SWAP3 POP POP PUSH1 0x1 DUP2 ADD SWAP1 POP PUSH2 0x1B66 JUMP JUMPDEST POP DUP6 SWAP4 POP POP POP POP SWAP3 SWAP2 POP POP JUMP JUMPDEST PUSH1 0x0 PUSH1 0xE0 DUP3 ADD SWAP1 POP PUSH2 0x1BB5 PUSH1 0x0 DUP4 ADD DUP11 PUSH2 0x16AA JUMP JUMPDEST PUSH2 0x1BC2 PUSH1 0x20 DUP4 ADD DUP10 PUSH2 0x16AA JUMP JUMPDEST DUP2 DUP2 SUB PUSH1 0x40 DUP4 ADD MSTORE PUSH2 0x1BD4 DUP2 DUP9 PUSH2 0x1B42 JUMP JUMPDEST SWAP1 POP DUP2 DUP2 SUB PUSH1 0x60 DUP4 ADD MSTORE PUSH2 0x1BE8 DUP2 DUP8 PUSH2 0x1B42 JUMP JUMPDEST SWAP1 POP PUSH2 0x1BF7 PUSH1 0x80 DUP4 ADD DUP7 PUSH2 0x16AA JUMP JUMPDEST PUSH2 0x1C04 PUSH1 0xA0 DUP4 ADD DUP6 PUSH2 0x16AA JUMP JUMPDEST PUSH2 0x1C11 PUSH1 0xC0 DUP4 ADD DUP5 PUSH2 0x16AA JUMP JUMPDEST SWAP9 SWAP8 POP POP POP POP POP POP POP POP JUMP JUMPDEST PUSH1 0x0 DUP3 DUP3 MSTORE PUSH1 0x20 DUP3 ADD SWAP1 POP SWAP3 SWAP2 POP POP JUMP JUMPDEST PUSH32 0x546F2063616C6C2074686973206D6574686F6420796F75206861766520746F20 PUSH1 0x0 DUP3 ADD MSTORE PUSH32 0x6265206F776E6572206F722073756241646D696E210000000000000000000000 PUSH1 0x20 DUP3 ADD MSTORE POP JUMP JUMPDEST PUSH1 0x0 PUSH2 0x1C8A PUSH1 0x35 DUP4 PUSH2 0x1C1D JUMP JUMPDEST SWAP2 POP PUSH2 0x1C95 DUP3 PUSH2 0x1C2E JUMP JUMPDEST PUSH1 0x40 DUP3 ADD SWAP1 POP SWAP2 SWAP1 POP JUMP JUMPDEST PUSH1 0x0 PUSH1 0x20 DUP3 ADD SWAP1 POP DUP2 DUP2 SUB PUSH1 0x0 DUP4 ADD MSTORE PUSH2 0x1CB9 DUP2 PUSH2 0x1C7D JUMP JUMPDEST SWAP1 POP SWAP2 SWAP1 POP JUMP JUMPDEST PUSH32 0x63616E27742066696E6420636F6D706574696F6E207769746820746869732063 PUSH1 0x0 DUP3 ADD MSTORE PUSH32 0x6F6D706574696F6E496421000000000000000000000000000000000000000000 PUSH1 0x20 DUP3 ADD MSTORE POP JUMP JUMPDEST PUSH1 0x0 PUSH2 0x1D1C PUSH1 0x2B DUP4 PUSH2 0x1C1D JUMP JUMPDEST SWAP2 POP PUSH2 0x1D27 DUP3 PUSH2 0x1CC0 JUMP JUMPDEST PUSH1 0x40 DUP3 ADD SWAP1 POP SWAP2 SWAP1 POP JUMP JUMPDEST PUSH1 0x0 PUSH1 0x20 DUP3 ADD SWAP1 POP DUP2 DUP2 SUB PUSH1 0x0 DUP4 ADD MSTORE PUSH2 0x1D4B DUP2 PUSH2 0x1D0F JUMP JUMPDEST SWAP1 POP SWAP2 SWAP1 POP JUMP JUMPDEST PUSH32 0x737461747573206E65656420746F20626520736F6D74696E6720626574776565 PUSH1 0x0 DUP3 ADD MSTORE PUSH32 0x6E203020746F2032000000000000000000000000000000000000000000000000 PUSH1 0x20 DUP3 ADD MSTORE POP JUMP JUMPDEST PUSH1 0x0 PUSH2 0x1DAE PUSH1 0x28 DUP4 PUSH2 0x1C1D JUMP JUMPDEST SWAP2 POP PUSH2 0x1DB9 DUP3 PUSH2 0x1D52 JUMP JUMPDEST PUSH1 0x40 DUP3 ADD SWAP1 POP SWAP2 SWAP1 POP JUMP JUMPDEST PUSH1 0x0 PUSH1 0x20 DUP3 ADD SWAP1 POP DUP2 DUP2 SUB PUSH1 0x0 DUP4 ADD MSTORE PUSH2 0x1DDD DUP2 PUSH2 0x1DA1 JUMP JUMPDEST SWAP1 POP SWAP2 SWAP1 POP JUMP JUMPDEST PUSH32 0x4F776E61626C653A2063616C6C6572206973206E6F7420746865206F776E6572 PUSH1 0x0 DUP3 ADD MSTORE POP JUMP JUMPDEST PUSH1 0x0 PUSH2 0x1E1A PUSH1 0x20 DUP4 PUSH2 0x1C1D JUMP JUMPDEST SWAP2 POP PUSH2 0x1E25 DUP3 PUSH2 0x1DE4 JUMP JUMPDEST PUSH1 0x20 DUP3 ADD SWAP1 POP SWAP2 SWAP1 POP JUMP JUMPDEST PUSH1 0x0 PUSH1 0x20 DUP3 ADD SWAP1 POP DUP2 DUP2 SUB PUSH1 0x0 DUP4 ADD MSTORE PUSH2 0x1E49 DUP2 PUSH2 0x1E0D JUMP JUMPDEST SWAP1 POP SWAP2 SWAP1 POP JUMP JUMPDEST PUSH32 0x4E487B7100000000000000000000000000000000000000000000000000000000 PUSH1 0x0 MSTORE PUSH1 0x11 PUSH1 0x4 MSTORE PUSH1 0x24 PUSH1 0x0 REVERT JUMPDEST PUSH1 0x0 PUSH2 0x1E8A DUP3 PUSH2 0x1598 JUMP JUMPDEST SWAP2 POP PUSH2 0x1E95 DUP4 PUSH2 0x1598 JUMP JUMPDEST SWAP3 POP DUP3 DUP3 LT ISZERO PUSH2 0x1EA8 JUMPI PUSH2 0x1EA7 PUSH2 0x1E50 JUMP JUMPDEST JUMPDEST DUP3 DUP3 SUB SWAP1 POP SWAP3 SWAP2 POP POP JUMP JUMPDEST PUSH1 0x0 PUSH2 0x1EBE DUP3 PUSH2 0x1598 JUMP JUMPDEST SWAP2 POP PUSH2 0x1EC9 DUP4 PUSH2 0x1598 JUMP JUMPDEST SWAP3 POP DUP3 PUSH32 0xFFFFFFFFFFFFFFFFFFFFFFFFFFFFFFFFFFFFFFFFFFFFFFFFFFFFFFFFFFFFFFFF SUB DUP3 GT ISZERO PUSH2 0x1EFE JUMPI PUSH2 0x1EFD PUSH2 0x1E50 JUMP JUMPDEST JUMPDEST DUP3 DUP3 ADD SWAP1 POP SWAP3 SWAP2 POP POP JUMP JUMPDEST PUSH32 0x63616E27742066696E6420707265736574207769746820746869732069642100 PUSH1 0x0 DUP3 ADD MSTORE POP JUMP JUMPDEST PUSH1 0x0 PUSH2 0x1F3F PUSH1 0x1F DUP4 PUSH2 0x1C1D JUMP JUMPDEST SWAP2 POP PUSH2 0x1F4A DUP3 PUSH2 0x1F09 JUMP JUMPDEST PUSH1 0x20 DUP3 ADD SWAP1 POP SWAP2 SWAP1 POP JUMP JUMPDEST PUSH1 0x0 PUSH1 0x20 DUP3 ADD SWAP1 POP DUP2 DUP2 SUB PUSH1 0x0 DUP4 ADD MSTORE PUSH2 0x1F6E DUP2 PUSH2 0x1F32 JUMP JUMPDEST SWAP1 POP SWAP2 SWAP1 POP JUMP JUMPDEST PUSH32 0x77696E6E6572206E65656420746F20626520736F6D74696E6720626574776565 PUSH1 0x0 DUP3 ADD MSTORE PUSH32 0x6E203020746F2033000000000000000000000000000000000000000000000000 PUSH1 0x20 DUP3 ADD MSTORE POP JUMP JUMPDEST PUSH1 0x0 PUSH2 0x1FD1 PUSH1 0x28 DUP4 PUSH2 0x1C1D JUMP JUMPDEST SWAP2 POP PUSH2 0x1FDC DUP3 PUSH2 0x1F75 JUMP JUMPDEST PUSH1 0x40 DUP3 ADD SWAP1 POP SWAP2 SWAP1 POP JUMP JUMPDEST PUSH1 0x0 PUSH1 0x20 DUP3 ADD SWAP1 POP DUP2 DUP2 SUB PUSH1 0x0 DUP4 ADD MSTORE PUSH2 0x2000 DUP2 PUSH2 0x1FC4 JUMP JUMPDEST SWAP1 POP SWAP2 SWAP1 POP JUMP JUMPDEST PUSH32 0x4F776E61626C653A206E6577206F776E657220697320746865207A65726F2061 PUSH1 0x0 DUP3 ADD MSTORE PUSH32 0x6464726573730000000000000000000000000000000000000000000000000000 PUSH1 0x20 DUP3 ADD MSTORE POP JUMP JUMPDEST PUSH1 0x0 PUSH2 0x2063 PUSH1 0x26 DUP4 PUSH2 0x1C1D JUMP JUMPDEST SWAP2 POP PUSH2 0x206E DUP3 PUSH2 0x2007 JUMP JUMPDEST PUSH1 0x40 DUP3 ADD SWAP1 POP SWAP2 SWAP1 POP JUMP JUMPDEST PUSH1 0x0 PUSH1 0x20 DUP3 ADD SWAP1 POP DUP2 DUP2 SUB PUSH1 0x0 DUP4 ADD MSTORE PUSH2 0x2092 DUP2 PUSH2 0x2056 JUMP JUMPDEST SWAP1 POP SWAP2 SWAP1 POP JUMP INVALID LOG2 PUSH5 0x6970667358 0x22 SLT KECCAK256 DIV 0x4A 0xA6 DUP5 0xE6 PUSH1 0x67 0x22 PUSH30 0xB58BED6F59DE6BB31FC764A761E79061E50655FE00952764736F6C634300 ADDMOD MULMOD STOP CALLER "
				},
				"gasEstimates": {
					"creation": {
						"codeDepositCost": "1679800",
						"executionCost": "infinite",
						"totalCost": "infinite"
					},
					"external": {
						"addNewCompetion(uint256,address[],address[],uint256,uint256)": "infinite",
						"addNewPreset(uint256,uint256,uint256)": "infinite",
						"competionList(uint256)": "infinite",
						"factoryAddrss()": "2558",
						"getCompetion(uint256)": "infinite",
						"getLastCompetion()": "infinite",
						"getPreset(uint256)": "infinite",
						"owner()": "2567",
						"presetList(uint256)": "infinite",
						"renounceOwnership()": "30419",
						"transferOwnership(address)": "30811",
						"updateCompetionStatus(uint256,uint8)": "infinite",
						"updateCompetionWinner(uint256,uint8)": "32209",
						"updateFactoryAddress(address)": "27232"
					},
					"internal": {
						"isExistsCompetionList(uint256)": "2260",
						"isExistsPresetList(uint256)": "2252"
					}
				},
				"methodIdentifiers": {
					"addNewCompetion(uint256,address[],address[],uint256,uint256)": "84534890",
					"addNewPreset(uint256,uint256,uint256)": "7ae996bd",
					"competionList(uint256)": "7cb1c0d4",
					"factoryAddrss()": "caa9db89",
					"getCompetion(uint256)": "d4e3706a",
					"getLastCompetion()": "69040f67",
					"getPreset(uint256)": "aabc4b3c",
					"owner()": "8da5cb5b",
					"presetList(uint256)": "511b4db7",
					"renounceOwnership()": "715018a6",
					"transferOwnership(address)": "f2fde38b",
					"updateCompetionStatus(uint256,uint8)": "4f03c754",
					"updateCompetionWinner(uint256,uint8)": "985d8e00",
					"updateFactoryAddress(address)": "551ee570"
				}
			},
			"storageLayout": {
				"storage": [
					{
						"astId": 7,
						"contract": "contracts/EvolveStorage.sol:EvolveStorage",
						"label": "_owner",
						"offset": 0,
						"slot": "0",
						"type": "t_address"
					},
					{
						"astId": 456,
						"contract": "contracts/EvolveStorage.sol:EvolveStorage",
						"label": "factoryAddrss",
						"offset": 0,
						"slot": "1",
						"type": "t_address"
					},
					{
						"astId": 459,
						"contract": "contracts/EvolveStorage.sol:EvolveStorage",
						"label": "startCompetitionId",
						"offset": 0,
						"slot": "2",
						"type": "t_uint256"
					},
					{
						"astId": 462,
						"contract": "contracts/EvolveStorage.sol:EvolveStorage",
						"label": "startPresetId",
						"offset": 0,
						"slot": "3",
						"type": "t_uint256"
					},
					{
						"astId": 467,
						"contract": "contracts/EvolveStorage.sol:EvolveStorage",
						"label": "presetList",
						"offset": 0,
						"slot": "4",
						"type": "t_mapping(t_uint256,t_struct(Preset)954_storage)"
					},
					{
						"astId": 472,
						"contract": "contracts/EvolveStorage.sol:EvolveStorage",
						"label": "competionList",
						"offset": 0,
						"slot": "5",
						"type": "t_mapping(t_uint256,t_struct(Competion)974_storage)"
					}
				],
				"types": {
					"t_address": {
						"encoding": "inplace",
						"label": "address",
						"numberOfBytes": "20"
					},
					"t_array(t_address)dyn_storage": {
						"base": "t_address",
						"encoding": "dynamic_array",
						"label": "address[]",
						"numberOfBytes": "32"
					},
					"t_enum(CompetionStatus)978": {
						"encoding": "inplace",
						"label": "enum IEvolveStorage.CompetionStatus",
						"numberOfBytes": "1"
					},
					"t_enum(CompetionWinner)983": {
						"encoding": "inplace",
						"label": "enum IEvolveStorage.CompetionWinner",
						"numberOfBytes": "1"
					},
					"t_mapping(t_uint256,t_struct(Competion)974_storage)": {
						"encoding": "mapping",
						"key": "t_uint256",
						"label": "mapping(uint256 => struct IEvolveStorage.Competion)",
						"numberOfBytes": "32",
						"value": "t_struct(Competion)974_storage"
					},
					"t_mapping(t_uint256,t_struct(Preset)954_storage)": {
						"encoding": "mapping",
						"key": "t_uint256",
						"label": "mapping(uint256 => struct IEvolveStorage.Preset)",
						"numberOfBytes": "32",
						"value": "t_struct(Preset)954_storage"
					},
					"t_struct(Competion)974_storage": {
						"encoding": "inplace",
						"label": "struct IEvolveStorage.Competion",
						"members": [
							{
								"astId": 957,
								"contract": "contracts/EvolveStorage.sol:EvolveStorage",
								"label": "preset",
								"offset": 0,
								"slot": "0",
								"type": "t_struct(Preset)954_storage"
							},
							{
								"astId": 960,
								"contract": "contracts/EvolveStorage.sol:EvolveStorage",
								"label": "teamA",
								"offset": 0,
								"slot": "4",
								"type": "t_array(t_address)dyn_storage"
							},
							{
								"astId": 963,
								"contract": "contracts/EvolveStorage.sol:EvolveStorage",
								"label": "teamB",
								"offset": 0,
								"slot": "5",
								"type": "t_array(t_address)dyn_storage"
							},
							{
								"astId": 966,
								"contract": "contracts/EvolveStorage.sol:EvolveStorage",
								"label": "status",
								"offset": 0,
								"slot": "6",
								"type": "t_enum(CompetionStatus)978"
							},
							{
								"astId": 969,
								"contract": "contracts/EvolveStorage.sol:EvolveStorage",
								"label": "winners",
								"offset": 1,
								"slot": "6",
								"type": "t_enum(CompetionWinner)983"
							},
							{
								"astId": 971,
								"contract": "contracts/EvolveStorage.sol:EvolveStorage",
								"label": "priceRate",
								"offset": 0,
								"slot": "7",
								"type": "t_uint256"
							},
							{
								"astId": 973,
								"contract": "contracts/EvolveStorage.sol:EvolveStorage",
								"label": "createAt",
								"offset": 0,
								"slot": "8",
								"type": "t_uint256"
							}
						],
						"numberOfBytes": "288"
					},
					"t_struct(Preset)954_storage": {
						"encoding": "inplace",
						"label": "struct IEvolveStorage.Preset",
						"members": [
							{
								"astId": 947,
								"contract": "contracts/EvolveStorage.sol:EvolveStorage",
								"label": "matchPrice",
								"offset": 0,
								"slot": "0",
								"type": "t_uint256"
							},
							{
								"astId": 949,
								"contract": "contracts/EvolveStorage.sol:EvolveStorage",
								"label": "numberOfTeamMemebr",
								"offset": 0,
								"slot": "1",
								"type": "t_uint256"
							},
							{
								"astId": 951,
								"contract": "contracts/EvolveStorage.sol:EvolveStorage",
								"label": "date",
								"offset": 0,
								"slot": "2",
								"type": "t_uint256"
							},
							{
								"astId": 953,
								"contract": "contracts/EvolveStorage.sol:EvolveStorage",
								"label": "createAt",
								"offset": 0,
								"slot": "3",
								"type": "t_uint256"
							}
						],
						"numberOfBytes": "128"
					},
					"t_uint256": {
						"encoding": "inplace",
						"label": "uint256",
						"numberOfBytes": "32"
					}
				}
			},
			"userdoc": {
				"kind": "user",
				"methods": {},
				"version": 1
			}
		}
	}
}