{
	"contracts/EvolveStorage.sol": {
		"EvolveStorage": {
			"abi": [
				{
					"inputs": [],
					"stateMutability": "nonpayable",
					"type": "constructor"
				},
				{
					"anonymous": false,
					"inputs": [
						{
							"indexed": true,
							"internalType": "address",
							"name": "previousOwner",
							"type": "address"
						},
						{
							"indexed": true,
							"internalType": "address",
							"name": "newOwner",
							"type": "address"
						}
					],
					"name": "OwnershipTransferred",
					"type": "event"
				},
				{
					"inputs": [
						{
							"internalType": "uint256",
							"name": "_presetId",
							"type": "uint256"
						},
						{
							"internalType": "address[]",
							"name": "_teamA",
							"type": "address[]"
						},
						{
							"internalType": "address[]",
							"name": "_teamB",
							"type": "address[]"
						},
						{
							"internalType": "uint256",
							"name": "_priceRate",
							"type": "uint256"
						},
						{
							"internalType": "uint256",
							"name": "_createAt",
							"type": "uint256"
						}
					],
					"name": "addNewCompetion",
					"outputs": [
						{
							"internalType": "uint256",
							"name": "competitionId",
							"type": "uint256"
						}
					],
					"stateMutability": "nonpayable",
					"type": "function"
				},
				{
					"inputs": [
						{
							"internalType": "uint256",
							"name": "_matchPrice",
							"type": "uint256"
						},
						{
							"internalType": "uint256",
							"name": "_numberOfTeamMemebr",
							"type": "uint256"
						},
						{
							"internalType": "uint256",
							"name": "_createAt",
							"type": "uint256"
						}
					],
					"name": "addNewPreset",
					"outputs": [
						{
							"internalType": "uint256",
							"name": "presetId",
							"type": "uint256"
						}
					],
					"stateMutability": "nonpayable",
					"type": "function"
				},
				{
					"inputs": [
						{
							"internalType": "uint256",
							"name": "",
							"type": "uint256"
						}
					],
					"name": "competionList",
					"outputs": [
						{
							"components": [
								{
									"internalType": "uint256",
									"name": "matchPrice",
									"type": "uint256"
								},
								{
									"internalType": "uint256",
									"name": "numberOfTeamMemebr",
									"type": "uint256"
								},
								{
									"internalType": "uint256",
									"name": "date",
									"type": "uint256"
								},
								{
									"internalType": "uint256",
									"name": "createAt",
									"type": "uint256"
								}
							],
							"internalType": "struct IEvolveStorage.Preset",
							"name": "preset",
							"type": "tuple"
						},
						{
							"internalType": "enum IEvolveStorage.CompetionStatus",
							"name": "status",
							"type": "uint8"
						},
						{
							"internalType": "enum IEvolveStorage.CompetionWinner",
							"name": "winners",
							"type": "uint8"
						},
						{
							"internalType": "uint256",
							"name": "priceRate",
							"type": "uint256"
						},
						{
							"internalType": "uint256",
							"name": "createAt",
							"type": "uint256"
						}
					],
					"stateMutability": "view",
					"type": "function"
				},
				{
					"inputs": [],
					"name": "factoryAddrss",
					"outputs": [
						{
							"internalType": "address",
							"name": "",
							"type": "address"
						}
					],
					"stateMutability": "view",
					"type": "function"
				},
				{
					"inputs": [
						{
							"internalType": "uint256",
							"name": "_competionId",
							"type": "uint256"
						}
					],
					"name": "getCompetion",
					"outputs": [
						{
							"internalType": "uint256",
							"name": "presetPrice",
							"type": "uint256"
						},
						{
							"internalType": "uint256",
							"name": "playerCount",
							"type": "uint256"
						},
						{
							"internalType": "address[]",
							"name": "_teamA",
							"type": "address[]"
						},
						{
							"internalType": "address[]",
							"name": "_teamB",
							"type": "address[]"
						},
						{
							"internalType": "uint256",
							"name": "_competionStatus",
							"type": "uint256"
						},
						{
							"internalType": "uint256",
							"name": "_competionWinner",
							"type": "uint256"
						},
						{
							"internalType": "uint256",
							"name": "_priceRate",
							"type": "uint256"
						}
					],
					"stateMutability": "view",
					"type": "function"
				},
				{
					"inputs": [
						{
							"internalType": "uint256",
							"name": "_presetId",
							"type": "uint256"
						}
					],
					"name": "getPreset",
					"outputs": [
						{
							"internalType": "uint256",
							"name": "matchPrice",
							"type": "uint256"
						},
						{
							"internalType": "uint256",
							"name": "numberOfTeamMemebr",
							"type": "uint256"
						}
					],
					"stateMutability": "view",
					"type": "function"
				},
				{
					"inputs": [],
					"name": "owner",
					"outputs": [
						{
							"internalType": "address",
							"name": "",
							"type": "address"
						}
					],
					"stateMutability": "view",
					"type": "function"
				},
				{
					"inputs": [
						{
							"internalType": "uint256",
							"name": "",
							"type": "uint256"
						}
					],
					"name": "presetList",
					"outputs": [
						{
							"internalType": "uint256",
							"name": "matchPrice",
							"type": "uint256"
						},
						{
							"internalType": "uint256",
							"name": "numberOfTeamMemebr",
							"type": "uint256"
						},
						{
							"internalType": "uint256",
							"name": "date",
							"type": "uint256"
						},
						{
							"internalType": "uint256",
							"name": "createAt",
							"type": "uint256"
						}
					],
					"stateMutability": "view",
					"type": "function"
				},
				{
					"inputs": [],
					"name": "renounceOwnership",
					"outputs": [],
					"stateMutability": "nonpayable",
					"type": "function"
				},
				{
					"inputs": [],
					"name": "startCompetitionId",
					"outputs": [
						{
							"internalType": "uint256",
							"name": "",
							"type": "uint256"
						}
					],
					"stateMutability": "view",
					"type": "function"
				},
				{
					"inputs": [],
					"name": "startPresetId",
					"outputs": [
						{
							"internalType": "uint256",
							"name": "",
							"type": "uint256"
						}
					],
					"stateMutability": "view",
					"type": "function"
				},
				{
					"inputs": [
						{
							"internalType": "address",
							"name": "newOwner",
							"type": "address"
						}
					],
					"name": "transferOwnership",
					"outputs": [],
					"stateMutability": "nonpayable",
					"type": "function"
				},
				{
					"inputs": [
						{
							"internalType": "uint256",
							"name": "_competionId",
							"type": "uint256"
						},
						{
							"internalType": "uint8",
							"name": "_status",
							"type": "uint8"
						}
					],
					"name": "updateCompetionStatus",
					"outputs": [
						{
							"internalType": "bool",
							"name": "",
							"type": "bool"
						}
					],
					"stateMutability": "nonpayable",
					"type": "function"
				},
				{
					"inputs": [
						{
							"internalType": "uint256",
							"name": "_competionId",
							"type": "uint256"
						},
						{
							"internalType": "uint8",
							"name": "_winnerTeam",
							"type": "uint8"
						}
					],
					"name": "updateCompetionWinner",
					"outputs": [
						{
							"internalType": "bool",
							"name": "",
							"type": "bool"
						}
					],
					"stateMutability": "nonpayable",
					"type": "function"
				},
				{
					"inputs": [
						{
							"internalType": "address",
							"name": "_factory",
							"type": "address"
						}
					],
					"name": "updateFactoryAddress",
					"outputs": [
						{
							"internalType": "bool",
							"name": "result",
							"type": "bool"
						}
					],
					"stateMutability": "nonpayable",
					"type": "function"
				}
			],
			"devdoc": {
				"kind": "dev",
				"methods": {
					"owner()": {
						"details": "Returns the address of the current owner."
					},
					"renounceOwnership()": {
						"details": "Leaves the contract without owner. It will not be possible to call `onlyOwner` functions anymore. Can only be called by the current owner. NOTE: Renouncing ownership will leave the contract without an owner, thereby removing any functionality that is only available to the owner."
					},
					"transferOwnership(address)": {
						"details": "Transfers ownership of the contract to a new account (`newOwner`). Can only be called by the current owner."
					}
				},
				"version": 1
			},
			"evm": {
				"assembly": "    /* \"contracts/EvolveStorage.sol\":303:5762  contract EvolveStorage is  Context, Ownable, IEvolveStorage{... */\n  mstore(0x40, 0x80)\n    /* \"contracts/EvolveStorage.sol\":471:472  0 */\n  0x00\n    /* \"contracts/EvolveStorage.sol\":435:472  uint256 public startCompetitionId = 0 */\n  0x02\n  sstore\n    /* \"contracts/EvolveStorage.sol\":509:510  0 */\n  0x00\n    /* \"contracts/EvolveStorage.sol\":478:510  uint256 public startPresetId = 0 */\n  0x03\n  sstore\n    /* \"contracts/EvolveStorage.sol\":626:684  constructor(){... */\n  callvalue\n  dup1\n  iszero\n  tag_1\n  jumpi\n  0x00\n  dup1\n  revert\ntag_1:\n  pop\n    /* \"@openzeppelin/contracts/access/Ownable.sol\":921:953  _transferOwnership(_msgSender()) */\n  tag_5\n    /* \"@openzeppelin/contracts/access/Ownable.sol\":940:952  _msgSender() */\n  tag_6\n    /* \"@openzeppelin/contracts/access/Ownable.sol\":940:950  _msgSender */\n  shl(0x20, tag_7)\n    /* \"@openzeppelin/contracts/access/Ownable.sol\":940:952  _msgSender() */\n  0x20\n  shr\n  jump\t// in\ntag_6:\n    /* \"@openzeppelin/contracts/access/Ownable.sol\":921:939  _transferOwnership */\n  shl(0x20, tag_8)\n    /* \"@openzeppelin/contracts/access/Ownable.sol\":921:953  _transferOwnership(_msgSender()) */\n  0x20\n  shr\n  jump\t// in\ntag_5:\n    /* \"contracts/EvolveStorage.sol\":665:677  _msgSender() */\n  tag_10\n    /* \"contracts/EvolveStorage.sol\":665:675  _msgSender */\n  shl(0x20, tag_7)\n    /* \"contracts/EvolveStorage.sol\":665:677  _msgSender() */\n  0x20\n  shr\n  jump\t// in\ntag_10:\n    /* \"contracts/EvolveStorage.sol\":649:662  factoryAddrss */\n  0x01\n  0x00\n    /* \"contracts/EvolveStorage.sol\":649:677  factoryAddrss = _msgSender() */\n  0x0100\n  exp\n  dup2\n  sload\n  dup2\n  0xffffffffffffffffffffffffffffffffffffffff\n  mul\n  not\n  and\n  swap1\n  dup4\n  0xffffffffffffffffffffffffffffffffffffffff\n  and\n  mul\n  or\n  swap1\n  sstore\n  pop\n    /* \"contracts/EvolveStorage.sol\":303:5762  contract EvolveStorage is  Context, Ownable, IEvolveStorage{... */\n  jump(tag_11)\n    /* \"@openzeppelin/contracts/utils/Context.sol\":640:736  function _msgSender() internal view virtual returns (address) {... */\ntag_7:\n    /* \"@openzeppelin/contracts/utils/Context.sol\":693:700  address */\n  0x00\n    /* \"@openzeppelin/contracts/utils/Context.sol\":719:729  msg.sender */\n  caller\n    /* \"@openzeppelin/contracts/utils/Context.sol\":712:729  return msg.sender */\n  swap1\n  pop\n    /* \"@openzeppelin/contracts/utils/Context.sol\":640:736  function _msgSender() internal view virtual returns (address) {... */\n  swap1\n  jump\t// out\n    /* \"@openzeppelin/contracts/access/Ownable.sol\":2270:2457  function _transferOwnership(address newOwner) internal virtual {... */\ntag_8:\n    /* \"@openzeppelin/contracts/access/Ownable.sol\":2343:2359  address oldOwner */\n  0x00\n    /* \"@openzeppelin/contracts/access/Ownable.sol\":2362:2368  _owner */\n  dup1\n  0x00\n  swap1\n  sload\n  swap1\n  0x0100\n  exp\n  swap1\n  div\n  0xffffffffffffffffffffffffffffffffffffffff\n  and\n    /* \"@openzeppelin/contracts/access/Ownable.sol\":2343:2368  address oldOwner = _owner */\n  swap1\n  pop\n    /* \"@openzeppelin/contracts/access/Ownable.sol\":2387:2395  newOwner */\n  dup2\n    /* \"@openzeppelin/contracts/access/Ownable.sol\":2378:2384  _owner */\n  0x00\n  dup1\n    /* \"@openzeppelin/contracts/access/Ownable.sol\":2378:2395  _owner = newOwner */\n  0x0100\n  exp\n  dup2\n  sload\n  dup2\n  0xffffffffffffffffffffffffffffffffffffffff\n  mul\n  not\n  and\n  swap1\n  dup4\n  0xffffffffffffffffffffffffffffffffffffffff\n  and\n  mul\n  or\n  swap1\n  sstore\n  pop\n    /* \"@openzeppelin/contracts/access/Ownable.sol\":2441:2449  newOwner */\n  dup2\n    /* \"@openzeppelin/contracts/access/Ownable.sol\":2410:2450  OwnershipTransferred(oldOwner, newOwner) */\n  0xffffffffffffffffffffffffffffffffffffffff\n  and\n    /* \"@openzeppelin/contracts/access/Ownable.sol\":2431:2439  oldOwner */\n  dup2\n    /* \"@openzeppelin/contracts/access/Ownable.sol\":2410:2450  OwnershipTransferred(oldOwner, newOwner) */\n  0xffffffffffffffffffffffffffffffffffffffff\n  and\n  0x8be0079c531659141344cd1fd0a4f28419497f9722a3daafe3b4186f6b6457e0\n  mload(0x40)\n  mload(0x40)\n  dup1\n  swap2\n  sub\n  swap1\n  log3\n    /* \"@openzeppelin/contracts/access/Ownable.sol\":2333:2457  {... */\n  pop\n    /* \"@openzeppelin/contracts/access/Ownable.sol\":2270:2457  function _transferOwnership(address newOwner) internal virtual {... */\n  pop\n  jump\t// out\n    /* \"contracts/EvolveStorage.sol\":303:5762  contract EvolveStorage is  Context, Ownable, IEvolveStorage{... */\ntag_11:\n  dataSize(sub_0)\n  dup1\n  dataOffset(sub_0)\n  0x00\n  codecopy\n  0x00\n  return\nstop\n\nsub_0: assembly {\n        /* \"contracts/EvolveStorage.sol\":303:5762  contract EvolveStorage is  Context, Ownable, IEvolveStorage{... */\n      mstore(0x40, 0x80)\n      callvalue\n      dup1\n      iszero\n      tag_1\n      jumpi\n      0x00\n      dup1\n      revert\n    tag_1:\n      pop\n      jumpi(tag_2, lt(calldatasize, 0x04))\n      shr(0xe0, calldataload(0x00))\n      dup1\n      0x84534890\n      gt\n      tag_18\n      jumpi\n      dup1\n      0xcaa9db89\n      gt\n      tag_19\n      jumpi\n      dup1\n      0xcaa9db89\n      eq\n      tag_14\n      jumpi\n      dup1\n      0xd4e3706a\n      eq\n      tag_15\n      jumpi\n      dup1\n      0xe98ce444\n      eq\n      tag_16\n      jumpi\n      dup1\n      0xf2fde38b\n      eq\n      tag_17\n      jumpi\n      jump(tag_2)\n    tag_19:\n      dup1\n      0x84534890\n      eq\n      tag_10\n      jumpi\n      dup1\n      0x8da5cb5b\n      eq\n      tag_11\n      jumpi\n      dup1\n      0x985d8e00\n      eq\n      tag_12\n      jumpi\n      dup1\n      0xaabc4b3c\n      eq\n      tag_13\n      jumpi\n      jump(tag_2)\n    tag_18:\n      dup1\n      0x63db17a4\n      gt\n      tag_20\n      jumpi\n      dup1\n      0x63db17a4\n      eq\n      tag_6\n      jumpi\n      dup1\n      0x715018a6\n      eq\n      tag_7\n      jumpi\n      dup1\n      0x7ae996bd\n      eq\n      tag_8\n      jumpi\n      dup1\n      0x7cb1c0d4\n      eq\n      tag_9\n      jumpi\n      jump(tag_2)\n    tag_20:\n      dup1\n      0x4f03c754\n      eq\n      tag_3\n      jumpi\n      dup1\n      0x511b4db7\n      eq\n      tag_4\n      jumpi\n      dup1\n      0x551ee570\n      eq\n      tag_5\n      jumpi\n    tag_2:\n      0x00\n      dup1\n      revert\n        /* \"contracts/EvolveStorage.sol\":2396:3060  function updateCompetionStatus(uint _competionId, uint8 _status) external override ownerOrFactory returns(bool){... */\n    tag_3:\n      tag_21\n      0x04\n      dup1\n      calldatasize\n      sub\n      dup2\n      add\n      swap1\n      tag_22\n      swap2\n      swap1\n      tag_23\n      jump\t// in\n    tag_22:\n      tag_24\n      jump\t// in\n    tag_21:\n      mload(0x40)\n      tag_25\n      swap2\n      swap1\n      tag_26\n      jump\t// in\n    tag_25:\n      mload(0x40)\n      dup1\n      swap2\n      sub\n      swap1\n      return\n        /* \"contracts/EvolveStorage.sol\":517:561  mapping(uint256 => Preset) public presetList */\n    tag_4:\n      tag_27\n      0x04\n      dup1\n      calldatasize\n      sub\n      dup2\n      add\n      swap1\n      tag_28\n      swap2\n      swap1\n      tag_29\n      jump\t// in\n    tag_28:\n      tag_30\n      jump\t// in\n    tag_27:\n      mload(0x40)\n      tag_31\n      swap5\n      swap4\n      swap3\n      swap2\n      swap1\n      tag_32\n      jump\t// in\n    tag_31:\n      mload(0x40)\n      dup1\n      swap2\n      sub\n      swap1\n      return\n        /* \"contracts/EvolveStorage.sol\":1063:1223  function updateFactoryAddress(address _factory) external override onlyOwner returns(bool result){... */\n    tag_5:\n      tag_33\n      0x04\n      dup1\n      calldatasize\n      sub\n      dup2\n      add\n      swap1\n      tag_34\n      swap2\n      swap1\n      tag_35\n      jump\t// in\n    tag_34:\n      tag_36\n      jump\t// in\n    tag_33:\n      mload(0x40)\n      tag_37\n      swap2\n      swap1\n      tag_26\n      jump\t// in\n    tag_37:\n      mload(0x40)\n      dup1\n      swap2\n      sub\n      swap1\n      return\n        /* \"contracts/EvolveStorage.sol\":435:472  uint256 public startCompetitionId = 0 */\n    tag_6:\n      tag_38\n      tag_39\n      jump\t// in\n    tag_38:\n      mload(0x40)\n      tag_40\n      swap2\n      swap1\n      tag_41\n      jump\t// in\n    tag_40:\n      mload(0x40)\n      dup1\n      swap2\n      sub\n      swap1\n      return\n        /* \"@openzeppelin/contracts/access/Ownable.sol\":1668:1769  function renounceOwnership() public virtual onlyOwner {... */\n    tag_7:\n      tag_42\n      tag_43\n      jump\t// in\n    tag_42:\n      stop\n        /* \"contracts/EvolveStorage.sol\":3886:4302  function addNewPreset(uint256 _matchPrice, uint256 _numberOfTeamMemebr, uint256 _createAt ) external override ownerOrFactory returns(uint presetId) {... */\n    tag_8:\n      tag_44\n      0x04\n      dup1\n      calldatasize\n      sub\n      dup2\n      add\n      swap1\n      tag_45\n      swap2\n      swap1\n      tag_46\n      jump\t// in\n    tag_45:\n      tag_47\n      jump\t// in\n    tag_44:\n      mload(0x40)\n      tag_48\n      swap2\n      swap1\n      tag_41\n      jump\t// in\n    tag_48:\n      mload(0x40)\n      dup1\n      swap2\n      sub\n      swap1\n      return\n        /* \"contracts/EvolveStorage.sol\":567:618  mapping(uint256 => Competion ) public competionList */\n    tag_9:\n      tag_49\n      0x04\n      dup1\n      calldatasize\n      sub\n      dup2\n      add\n      swap1\n      tag_50\n      swap2\n      swap1\n      tag_29\n      jump\t// in\n    tag_50:\n      tag_51\n      jump\t// in\n    tag_49:\n      mload(0x40)\n      tag_52\n      swap6\n      swap5\n      swap4\n      swap3\n      swap2\n      swap1\n      tag_53\n      jump\t// in\n    tag_52:\n      mload(0x40)\n      dup1\n      swap2\n      sub\n      swap1\n      return\n        /* \"contracts/EvolveStorage.sol\":3066:3621  function addNewCompetion(uint256 _presetId, address[] calldata _teamA, address[] calldata _teamB, uint256 _priceRate, uint256 _createAt) external override ownerOrFactory returns(uint256 competitionId){... */\n    tag_10:\n      tag_54\n      0x04\n      dup1\n      calldatasize\n      sub\n      dup2\n      add\n      swap1\n      tag_55\n      swap2\n      swap1\n      tag_56\n      jump\t// in\n    tag_55:\n      tag_57\n      jump\t// in\n    tag_54:\n      mload(0x40)\n      tag_58\n      swap2\n      swap1\n      tag_41\n      jump\t// in\n    tag_58:\n      mload(0x40)\n      dup1\n      swap2\n      sub\n      swap1\n      return\n        /* \"@openzeppelin/contracts/access/Ownable.sol\":1036:1121  function owner() public view virtual returns (address) {... */\n    tag_11:\n      tag_59\n      tag_60\n      jump\t// in\n    tag_59:\n      mload(0x40)\n      tag_61\n      swap2\n      swap1\n      tag_62\n      jump\t// in\n    tag_61:\n      mload(0x40)\n      dup1\n      swap2\n      sub\n      swap1\n      return\n        /* \"contracts/EvolveStorage.sol\":1546:2331  function updateCompetionWinner(uint _competionId, uint8 _winnerTeam) external override ownerOrFactory returns(bool){... */\n    tag_12:\n      tag_63\n      0x04\n      dup1\n      calldatasize\n      sub\n      dup2\n      add\n      swap1\n      tag_64\n      swap2\n      swap1\n      tag_23\n      jump\t// in\n    tag_64:\n      tag_65\n      jump\t// in\n    tag_63:\n      mload(0x40)\n      tag_66\n      swap2\n      swap1\n      tag_26\n      jump\t// in\n    tag_66:\n      mload(0x40)\n      dup1\n      swap2\n      sub\n      swap1\n      return\n        /* \"contracts/EvolveStorage.sol\":4414:4626  function getPreset(uint256 _presetId) external view override returns(uint256 matchPrice,uint256 numberOfTeamMemebr){... */\n    tag_13:\n      tag_67\n      0x04\n      dup1\n      calldatasize\n      sub\n      dup2\n      add\n      swap1\n      tag_68\n      swap2\n      swap1\n      tag_29\n      jump\t// in\n    tag_68:\n      tag_69\n      jump\t// in\n    tag_67:\n      mload(0x40)\n      tag_70\n      swap3\n      swap2\n      swap1\n      tag_71\n      jump\t// in\n    tag_70:\n      mload(0x40)\n      dup1\n      swap2\n      sub\n      swap1\n      return\n        /* \"contracts/EvolveStorage.sol\":401:429  address public factoryAddrss */\n    tag_14:\n      tag_72\n      tag_73\n      jump\t// in\n    tag_72:\n      mload(0x40)\n      tag_74\n      swap2\n      swap1\n      tag_62\n      jump\t// in\n    tag_74:\n      mload(0x40)\n      dup1\n      swap2\n      sub\n      swap1\n      return\n        /* \"contracts/EvolveStorage.sol\":4632:5365  function getCompetion(uint256 _competionId) external view override ... */\n    tag_15:\n      tag_75\n      0x04\n      dup1\n      calldatasize\n      sub\n      dup2\n      add\n      swap1\n      tag_76\n      swap2\n      swap1\n      tag_29\n      jump\t// in\n    tag_76:\n      tag_77\n      jump\t// in\n    tag_75:\n      mload(0x40)\n      tag_78\n      swap8\n      swap7\n      swap6\n      swap5\n      swap4\n      swap3\n      swap2\n      swap1\n      tag_79\n      jump\t// in\n    tag_78:\n      mload(0x40)\n      dup1\n      swap2\n      sub\n      swap1\n      return\n        /* \"contracts/EvolveStorage.sol\":478:510  uint256 public startPresetId = 0 */\n    tag_16:\n      tag_80\n      tag_81\n      jump\t// in\n    tag_80:\n      mload(0x40)\n      tag_82\n      swap2\n      swap1\n      tag_41\n      jump\t// in\n    tag_82:\n      mload(0x40)\n      dup1\n      swap2\n      sub\n      swap1\n      return\n        /* \"@openzeppelin/contracts/access/Ownable.sol\":1918:2116  function transferOwnership(address newOwner) public virtual onlyOwner {... */\n    tag_17:\n      tag_83\n      0x04\n      dup1\n      calldatasize\n      sub\n      dup2\n      add\n      swap1\n      tag_84\n      swap2\n      swap1\n      tag_35\n      jump\t// in\n    tag_84:\n      tag_85\n      jump\t// in\n    tag_83:\n      stop\n        /* \"contracts/EvolveStorage.sol\":2396:3060  function updateCompetionStatus(uint _competionId, uint8 _status) external override ownerOrFactory returns(bool){... */\n    tag_24:\n        /* \"contracts/EvolveStorage.sol\":2502:2506  bool */\n      0x00\n        /* \"contracts/EvolveStorage.sol\":915:928  factoryAddrss */\n      0x01\n      0x00\n      swap1\n      sload\n      swap1\n      0x0100\n      exp\n      swap1\n      div\n      0xffffffffffffffffffffffffffffffffffffffff\n      and\n        /* \"contracts/EvolveStorage.sol\":899:928  _msgSender() == factoryAddrss */\n      0xffffffffffffffffffffffffffffffffffffffff\n      and\n        /* \"contracts/EvolveStorage.sol\":899:911  _msgSender() */\n      tag_87\n        /* \"contracts/EvolveStorage.sol\":899:909  _msgSender */\n      tag_88\n        /* \"contracts/EvolveStorage.sol\":899:911  _msgSender() */\n      jump\t// in\n    tag_87:\n        /* \"contracts/EvolveStorage.sol\":899:928  _msgSender() == factoryAddrss */\n      0xffffffffffffffffffffffffffffffffffffffff\n      and\n      eq\n        /* \"contracts/EvolveStorage.sol\":899:955  _msgSender() == factoryAddrss || _msgSender() == owner() */\n      dup1\n      tag_89\n      jumpi\n      pop\n        /* \"contracts/EvolveStorage.sol\":948:955  owner() */\n      tag_90\n        /* \"contracts/EvolveStorage.sol\":948:953  owner */\n      tag_60\n        /* \"contracts/EvolveStorage.sol\":948:955  owner() */\n      jump\t// in\n    tag_90:\n        /* \"contracts/EvolveStorage.sol\":932:955  _msgSender() == owner() */\n      0xffffffffffffffffffffffffffffffffffffffff\n      and\n        /* \"contracts/EvolveStorage.sol\":932:944  _msgSender() */\n      tag_91\n        /* \"contracts/EvolveStorage.sol\":932:942  _msgSender */\n      tag_88\n        /* \"contracts/EvolveStorage.sol\":932:944  _msgSender() */\n      jump\t// in\n    tag_91:\n        /* \"contracts/EvolveStorage.sol\":932:955  _msgSender() == owner() */\n      0xffffffffffffffffffffffffffffffffffffffff\n      and\n      eq\n        /* \"contracts/EvolveStorage.sol\":899:955  _msgSender() == factoryAddrss || _msgSender() == owner() */\n    tag_89:\n        /* \"contracts/EvolveStorage.sol\":899:979  _msgSender() == factoryAddrss || _msgSender() == owner() || owner() == tx.origin */\n      dup1\n      tag_92\n      jumpi\n      pop\n        /* \"contracts/EvolveStorage.sol\":970:979  tx.origin */\n      origin\n        /* \"contracts/EvolveStorage.sol\":959:979  owner() == tx.origin */\n      0xffffffffffffffffffffffffffffffffffffffff\n      and\n        /* \"contracts/EvolveStorage.sol\":959:966  owner() */\n      tag_93\n        /* \"contracts/EvolveStorage.sol\":959:964  owner */\n      tag_60\n        /* \"contracts/EvolveStorage.sol\":959:966  owner() */\n      jump\t// in\n    tag_93:\n        /* \"contracts/EvolveStorage.sol\":959:979  owner() == tx.origin */\n      0xffffffffffffffffffffffffffffffffffffffff\n      and\n      eq\n        /* \"contracts/EvolveStorage.sol\":899:979  _msgSender() == factoryAddrss || _msgSender() == owner() || owner() == tx.origin */\n    tag_92:\n        /* \"contracts/EvolveStorage.sol\":891:1038  require(_msgSender() == factoryAddrss || _msgSender() == owner() || owner() == tx.origin , \"To call this method you have to be owner or subAdmin!\") */\n      tag_94\n      jumpi\n      mload(0x40)\n      0x08c379a000000000000000000000000000000000000000000000000000000000\n      dup2\n      mstore\n      0x04\n      add\n      tag_95\n      swap1\n      tag_96\n      jump\t// in\n    tag_95:\n      mload(0x40)\n      dup1\n      swap2\n      sub\n      swap1\n      revert\n    tag_94:\n        /* \"contracts/EvolveStorage.sol\":2525:2560  isExistsCompetionList(_competionId) */\n      tag_98\n        /* \"contracts/EvolveStorage.sol\":2547:2559  _competionId */\n      dup4\n        /* \"contracts/EvolveStorage.sol\":2525:2546  isExistsCompetionList */\n      tag_99\n        /* \"contracts/EvolveStorage.sol\":2525:2560  isExistsCompetionList(_competionId) */\n      jump\t// in\n    tag_98:\n        /* \"contracts/EvolveStorage.sol\":2517:2608  require(isExistsCompetionList(_competionId), \"can't find competion with this competionId!\") */\n      tag_100\n      jumpi\n      mload(0x40)\n      0x08c379a000000000000000000000000000000000000000000000000000000000\n      dup2\n      mstore\n      0x04\n      add\n      tag_101\n      swap1\n      tag_102\n      jump\t// in\n    tag_101:\n      mload(0x40)\n      dup1\n      swap2\n      sub\n      swap1\n      revert\n    tag_100:\n        /* \"contracts/EvolveStorage.sol\":2637:2638  0 */\n      0x00\n        /* \"contracts/EvolveStorage.sol\":2626:2633  _status */\n      dup3\n        /* \"contracts/EvolveStorage.sol\":2626:2638  _status >= 0 */\n      0xff\n      and\n      lt\n      iszero\n        /* \"contracts/EvolveStorage.sol\":2626:2654  _status >= 0 && _status <= 2 */\n      dup1\n      iszero\n      tag_103\n      jumpi\n      pop\n        /* \"contracts/EvolveStorage.sol\":2653:2654  2 */\n      0x02\n        /* \"contracts/EvolveStorage.sol\":2642:2649  _status */\n      dup3\n        /* \"contracts/EvolveStorage.sol\":2642:2654  _status <= 2 */\n      0xff\n      and\n      gt\n      iszero\n        /* \"contracts/EvolveStorage.sol\":2626:2654  _status >= 0 && _status <= 2 */\n    tag_103:\n        /* \"contracts/EvolveStorage.sol\":2618:2699  require(_status >= 0 && _status <= 2, \"status need to be somting between 0 to 2\") */\n      tag_104\n      jumpi\n      mload(0x40)\n      0x08c379a000000000000000000000000000000000000000000000000000000000\n      dup2\n      mstore\n      0x04\n      add\n      tag_105\n      swap1\n      tag_106\n      jump\t// in\n    tag_105:\n      mload(0x40)\n      dup1\n      swap2\n      sub\n      swap1\n      revert\n    tag_104:\n        /* \"contracts/EvolveStorage.sol\":2709:2736  Competion storage competion */\n      0x00\n        /* \"contracts/EvolveStorage.sol\":2739:2752  competionList */\n      0x05\n        /* \"contracts/EvolveStorage.sol\":2739:2766  competionList[_competionId] */\n      0x00\n        /* \"contracts/EvolveStorage.sol\":2753:2765  _competionId */\n      dup6\n        /* \"contracts/EvolveStorage.sol\":2739:2766  competionList[_competionId] */\n      dup2\n      mstore\n      0x20\n      add\n      swap1\n      dup2\n      mstore\n      0x20\n      add\n      0x00\n      keccak256\n        /* \"contracts/EvolveStorage.sol\":2709:2766  Competion storage competion = competionList[_competionId] */\n      swap1\n      pop\n        /* \"contracts/EvolveStorage.sol\":2790:2791  0 */\n      0x00\n        /* \"contracts/EvolveStorage.sol\":2779:2786  _status */\n      dup4\n        /* \"contracts/EvolveStorage.sol\":2779:2791  _status == 0 */\n      0xff\n      and\n      eq\n        /* \"contracts/EvolveStorage.sol\":2776:3033  if(_status == 0){... */\n      iszero\n      tag_107\n      jumpi\n        /* \"contracts/EvolveStorage.sol\":2825:2848  CompetionStatus.PENDING */\n      0x00\n        /* \"contracts/EvolveStorage.sol\":2806:2815  competion */\n      dup2\n        /* \"contracts/EvolveStorage.sol\":2806:2822  competion.status */\n      0x06\n      add\n      0x00\n        /* \"contracts/EvolveStorage.sol\":2806:2848  competion.status = CompetionStatus.PENDING */\n      0x0100\n      exp\n      dup2\n      sload\n      dup2\n      0xff\n      mul\n      not\n      and\n      swap1\n      dup4\n      0x02\n      dup2\n      gt\n      iszero\n      tag_108\n      jumpi\n      tag_109\n      tag_110\n      jump\t// in\n    tag_109:\n    tag_108:\n      mul\n      or\n      swap1\n      sstore\n      pop\n        /* \"contracts/EvolveStorage.sol\":2776:3033  if(_status == 0){... */\n      jump(tag_111)\n    tag_107:\n        /* \"contracts/EvolveStorage.sol\":2878:2879  1 */\n      0x01\n        /* \"contracts/EvolveStorage.sol\":2867:2874  _status */\n      dup4\n        /* \"contracts/EvolveStorage.sol\":2867:2879  _status == 1 */\n      0xff\n      and\n      eq\n        /* \"contracts/EvolveStorage.sol\":2864:3033  if(_status == 1){... */\n      iszero\n      tag_112\n      jumpi\n        /* \"contracts/EvolveStorage.sol\":2913:2937  CompetionStatus.CANCELED */\n      0x01\n        /* \"contracts/EvolveStorage.sol\":2894:2903  competion */\n      dup2\n        /* \"contracts/EvolveStorage.sol\":2894:2910  competion.status */\n      0x06\n      add\n      0x00\n        /* \"contracts/EvolveStorage.sol\":2894:2937  competion.status = CompetionStatus.CANCELED */\n      0x0100\n      exp\n      dup2\n      sload\n      dup2\n      0xff\n      mul\n      not\n      and\n      swap1\n      dup4\n      0x02\n      dup2\n      gt\n      iszero\n      tag_113\n      jumpi\n      tag_114\n      tag_110\n      jump\t// in\n    tag_114:\n    tag_113:\n      mul\n      or\n      swap1\n      sstore\n      pop\n        /* \"contracts/EvolveStorage.sol\":2864:3033  if(_status == 1){... */\n      jump(tag_115)\n    tag_112:\n        /* \"contracts/EvolveStorage.sol\":2967:2968  2 */\n      0x02\n        /* \"contracts/EvolveStorage.sol\":2956:2963  _status */\n      dup4\n        /* \"contracts/EvolveStorage.sol\":2956:2968  _status == 2 */\n      0xff\n      and\n      eq\n        /* \"contracts/EvolveStorage.sol\":2953:3033  if(_status == 2){... */\n      iszero\n      tag_116\n      jumpi\n        /* \"contracts/EvolveStorage.sol\":3002:3022  CompetionStatus.DONE */\n      0x02\n        /* \"contracts/EvolveStorage.sol\":2983:2992  competion */\n      dup2\n        /* \"contracts/EvolveStorage.sol\":2983:2999  competion.status */\n      0x06\n      add\n      0x00\n        /* \"contracts/EvolveStorage.sol\":2983:3022  competion.status = CompetionStatus.DONE */\n      0x0100\n      exp\n      dup2\n      sload\n      dup2\n      0xff\n      mul\n      not\n      and\n      swap1\n      dup4\n      0x02\n      dup2\n      gt\n      iszero\n      tag_117\n      jumpi\n      tag_118\n      tag_110\n      jump\t// in\n    tag_118:\n    tag_117:\n      mul\n      or\n      swap1\n      sstore\n      pop\n        /* \"contracts/EvolveStorage.sol\":2953:3033  if(_status == 2){... */\n    tag_116:\n        /* \"contracts/EvolveStorage.sol\":2864:3033  if(_status == 1){... */\n    tag_115:\n        /* \"contracts/EvolveStorage.sol\":2776:3033  if(_status == 0){... */\n    tag_111:\n        /* \"contracts/EvolveStorage.sol\":3049:3053  true */\n      0x01\n        /* \"contracts/EvolveStorage.sol\":3042:3053  return true */\n      swap2\n      pop\n      pop\n        /* \"contracts/EvolveStorage.sol\":2396:3060  function updateCompetionStatus(uint _competionId, uint8 _status) external override ownerOrFactory returns(bool){... */\n      swap3\n      swap2\n      pop\n      pop\n      jump\t// out\n        /* \"contracts/EvolveStorage.sol\":517:561  mapping(uint256 => Preset) public presetList */\n    tag_30:\n      mstore(0x20, 0x04)\n      dup1\n      0x00\n      mstore\n      keccak256(0x00, 0x40)\n      0x00\n      swap2\n      pop\n      swap1\n      pop\n      dup1\n      0x00\n      add\n      sload\n      swap1\n      dup1\n      0x01\n      add\n      sload\n      swap1\n      dup1\n      0x02\n      add\n      sload\n      swap1\n      dup1\n      0x03\n      add\n      sload\n      swap1\n      pop\n      dup5\n      jump\t// out\n        /* \"contracts/EvolveStorage.sol\":1063:1223  function updateFactoryAddress(address _factory) external override onlyOwner returns(bool result){... */\n    tag_36:\n        /* \"contracts/EvolveStorage.sol\":1147:1158  bool result */\n      0x00\n        /* \"@openzeppelin/contracts/access/Ownable.sol\":1259:1271  _msgSender() */\n      tag_120\n        /* \"@openzeppelin/contracts/access/Ownable.sol\":1259:1269  _msgSender */\n      tag_88\n        /* \"@openzeppelin/contracts/access/Ownable.sol\":1259:1271  _msgSender() */\n      jump\t// in\n    tag_120:\n        /* \"@openzeppelin/contracts/access/Ownable.sol\":1248:1271  owner() == _msgSender() */\n      0xffffffffffffffffffffffffffffffffffffffff\n      and\n        /* \"@openzeppelin/contracts/access/Ownable.sol\":1248:1255  owner() */\n      tag_121\n        /* \"@openzeppelin/contracts/access/Ownable.sol\":1248:1253  owner */\n      tag_60\n        /* \"@openzeppelin/contracts/access/Ownable.sol\":1248:1255  owner() */\n      jump\t// in\n    tag_121:\n        /* \"@openzeppelin/contracts/access/Ownable.sol\":1248:1271  owner() == _msgSender() */\n      0xffffffffffffffffffffffffffffffffffffffff\n      and\n      eq\n        /* \"@openzeppelin/contracts/access/Ownable.sol\":1240:1308  require(owner() == _msgSender(), \"Ownable: caller is not the owner\") */\n      tag_122\n      jumpi\n      mload(0x40)\n      0x08c379a000000000000000000000000000000000000000000000000000000000\n      dup2\n      mstore\n      0x04\n      add\n      tag_123\n      swap1\n      tag_124\n      jump\t// in\n    tag_123:\n      mload(0x40)\n      dup1\n      swap2\n      sub\n      swap1\n      revert\n    tag_122:\n        /* \"contracts/EvolveStorage.sol\":1185:1193  _factory */\n      dup2\n        /* \"contracts/EvolveStorage.sol\":1169:1182  factoryAddrss */\n      0x01\n      0x00\n        /* \"contracts/EvolveStorage.sol\":1169:1193  factoryAddrss = _factory */\n      0x0100\n      exp\n      dup2\n      sload\n      dup2\n      0xffffffffffffffffffffffffffffffffffffffff\n      mul\n      not\n      and\n      swap1\n      dup4\n      0xffffffffffffffffffffffffffffffffffffffff\n      and\n      mul\n      or\n      swap1\n      sstore\n      pop\n        /* \"contracts/EvolveStorage.sol\":1212:1216  true */\n      0x01\n        /* \"contracts/EvolveStorage.sol\":1203:1216  result = true */\n      swap1\n      pop\n        /* \"contracts/EvolveStorage.sol\":1063:1223  function updateFactoryAddress(address _factory) external override onlyOwner returns(bool result){... */\n      swap2\n      swap1\n      pop\n      jump\t// out\n        /* \"contracts/EvolveStorage.sol\":435:472  uint256 public startCompetitionId = 0 */\n    tag_39:\n      sload(0x02)\n      dup2\n      jump\t// out\n        /* \"@openzeppelin/contracts/access/Ownable.sol\":1668:1769  function renounceOwnership() public virtual onlyOwner {... */\n    tag_43:\n        /* \"@openzeppelin/contracts/access/Ownable.sol\":1259:1271  _msgSender() */\n      tag_127\n        /* \"@openzeppelin/contracts/access/Ownable.sol\":1259:1269  _msgSender */\n      tag_88\n        /* \"@openzeppelin/contracts/access/Ownable.sol\":1259:1271  _msgSender() */\n      jump\t// in\n    tag_127:\n        /* \"@openzeppelin/contracts/access/Ownable.sol\":1248:1271  owner() == _msgSender() */\n      0xffffffffffffffffffffffffffffffffffffffff\n      and\n        /* \"@openzeppelin/contracts/access/Ownable.sol\":1248:1255  owner() */\n      tag_128\n        /* \"@openzeppelin/contracts/access/Ownable.sol\":1248:1253  owner */\n      tag_60\n        /* \"@openzeppelin/contracts/access/Ownable.sol\":1248:1255  owner() */\n      jump\t// in\n    tag_128:\n        /* \"@openzeppelin/contracts/access/Ownable.sol\":1248:1271  owner() == _msgSender() */\n      0xffffffffffffffffffffffffffffffffffffffff\n      and\n      eq\n        /* \"@openzeppelin/contracts/access/Ownable.sol\":1240:1308  require(owner() == _msgSender(), \"Ownable: caller is not the owner\") */\n      tag_129\n      jumpi\n      mload(0x40)\n      0x08c379a000000000000000000000000000000000000000000000000000000000\n      dup2\n      mstore\n      0x04\n      add\n      tag_130\n      swap1\n      tag_124\n      jump\t// in\n    tag_130:\n      mload(0x40)\n      dup1\n      swap2\n      sub\n      swap1\n      revert\n    tag_129:\n        /* \"@openzeppelin/contracts/access/Ownable.sol\":1732:1762  _transferOwnership(address(0)) */\n      tag_132\n        /* \"@openzeppelin/contracts/access/Ownable.sol\":1759:1760  0 */\n      0x00\n        /* \"@openzeppelin/contracts/access/Ownable.sol\":1732:1750  _transferOwnership */\n      tag_133\n        /* \"@openzeppelin/contracts/access/Ownable.sol\":1732:1762  _transferOwnership(address(0)) */\n      jump\t// in\n    tag_132:\n        /* \"@openzeppelin/contracts/access/Ownable.sol\":1668:1769  function renounceOwnership() public virtual onlyOwner {... */\n      jump\t// out\n        /* \"contracts/EvolveStorage.sol\":3886:4302  function addNewPreset(uint256 _matchPrice, uint256 _numberOfTeamMemebr, uint256 _createAt ) external override ownerOrFactory returns(uint presetId) {... */\n    tag_47:\n        /* \"contracts/EvolveStorage.sol\":4019:4032  uint presetId */\n      0x00\n        /* \"contracts/EvolveStorage.sol\":915:928  factoryAddrss */\n      0x01\n      0x00\n      swap1\n      sload\n      swap1\n      0x0100\n      exp\n      swap1\n      div\n      0xffffffffffffffffffffffffffffffffffffffff\n      and\n        /* \"contracts/EvolveStorage.sol\":899:928  _msgSender() == factoryAddrss */\n      0xffffffffffffffffffffffffffffffffffffffff\n      and\n        /* \"contracts/EvolveStorage.sol\":899:911  _msgSender() */\n      tag_135\n        /* \"contracts/EvolveStorage.sol\":899:909  _msgSender */\n      tag_88\n        /* \"contracts/EvolveStorage.sol\":899:911  _msgSender() */\n      jump\t// in\n    tag_135:\n        /* \"contracts/EvolveStorage.sol\":899:928  _msgSender() == factoryAddrss */\n      0xffffffffffffffffffffffffffffffffffffffff\n      and\n      eq\n        /* \"contracts/EvolveStorage.sol\":899:955  _msgSender() == factoryAddrss || _msgSender() == owner() */\n      dup1\n      tag_136\n      jumpi\n      pop\n        /* \"contracts/EvolveStorage.sol\":948:955  owner() */\n      tag_137\n        /* \"contracts/EvolveStorage.sol\":948:953  owner */\n      tag_60\n        /* \"contracts/EvolveStorage.sol\":948:955  owner() */\n      jump\t// in\n    tag_137:\n        /* \"contracts/EvolveStorage.sol\":932:955  _msgSender() == owner() */\n      0xffffffffffffffffffffffffffffffffffffffff\n      and\n        /* \"contracts/EvolveStorage.sol\":932:944  _msgSender() */\n      tag_138\n        /* \"contracts/EvolveStorage.sol\":932:942  _msgSender */\n      tag_88\n        /* \"contracts/EvolveStorage.sol\":932:944  _msgSender() */\n      jump\t// in\n    tag_138:\n        /* \"contracts/EvolveStorage.sol\":932:955  _msgSender() == owner() */\n      0xffffffffffffffffffffffffffffffffffffffff\n      and\n      eq\n        /* \"contracts/EvolveStorage.sol\":899:955  _msgSender() == factoryAddrss || _msgSender() == owner() */\n    tag_136:\n        /* \"contracts/EvolveStorage.sol\":899:979  _msgSender() == factoryAddrss || _msgSender() == owner() || owner() == tx.origin */\n      dup1\n      tag_139\n      jumpi\n      pop\n        /* \"contracts/EvolveStorage.sol\":970:979  tx.origin */\n      origin\n        /* \"contracts/EvolveStorage.sol\":959:979  owner() == tx.origin */\n      0xffffffffffffffffffffffffffffffffffffffff\n      and\n        /* \"contracts/EvolveStorage.sol\":959:966  owner() */\n      tag_140\n        /* \"contracts/EvolveStorage.sol\":959:964  owner */\n      tag_60\n        /* \"contracts/EvolveStorage.sol\":959:966  owner() */\n      jump\t// in\n    tag_140:\n        /* \"contracts/EvolveStorage.sol\":959:979  owner() == tx.origin */\n      0xffffffffffffffffffffffffffffffffffffffff\n      and\n      eq\n        /* \"contracts/EvolveStorage.sol\":899:979  _msgSender() == factoryAddrss || _msgSender() == owner() || owner() == tx.origin */\n    tag_139:\n        /* \"contracts/EvolveStorage.sol\":891:1038  require(_msgSender() == factoryAddrss || _msgSender() == owner() || owner() == tx.origin , \"To call this method you have to be owner or subAdmin!\") */\n      tag_141\n      jumpi\n      mload(0x40)\n      0x08c379a000000000000000000000000000000000000000000000000000000000\n      dup2\n      mstore\n      0x04\n      add\n      tag_142\n      swap1\n      tag_96\n      jump\t// in\n    tag_142:\n      mload(0x40)\n      dup1\n      swap2\n      sub\n      swap1\n      revert\n    tag_141:\n        /* \"contracts/EvolveStorage.sol\":4044:4062  uint _lastPresetId */\n      0x00\n        /* \"contracts/EvolveStorage.sol\":4065:4078  startPresetId */\n      sload(0x03)\n        /* \"contracts/EvolveStorage.sol\":4044:4078  uint _lastPresetId = startPresetId */\n      swap1\n      pop\n        /* \"contracts/EvolveStorage.sol\":4088:4115  Preset memory currentPreset */\n      0x00\n        /* \"contracts/EvolveStorage.sol\":4118:4186  Preset(_matchPrice, _numberOfTeamMemebr, block.timestamp, _createAt) */\n      mload(0x40)\n      dup1\n      0x80\n      add\n      0x40\n      mstore\n      dup1\n        /* \"contracts/EvolveStorage.sol\":4125:4136  _matchPrice */\n      dup8\n        /* \"contracts/EvolveStorage.sol\":4118:4186  Preset(_matchPrice, _numberOfTeamMemebr, block.timestamp, _createAt) */\n      dup2\n      mstore\n      0x20\n      add\n        /* \"contracts/EvolveStorage.sol\":4138:4157  _numberOfTeamMemebr */\n      dup7\n        /* \"contracts/EvolveStorage.sol\":4118:4186  Preset(_matchPrice, _numberOfTeamMemebr, block.timestamp, _createAt) */\n      dup2\n      mstore\n      0x20\n      add\n        /* \"contracts/EvolveStorage.sol\":4159:4174  block.timestamp */\n      timestamp\n        /* \"contracts/EvolveStorage.sol\":4118:4186  Preset(_matchPrice, _numberOfTeamMemebr, block.timestamp, _createAt) */\n      dup2\n      mstore\n      0x20\n      add\n        /* \"contracts/EvolveStorage.sol\":4176:4185  _createAt */\n      dup6\n        /* \"contracts/EvolveStorage.sol\":4118:4186  Preset(_matchPrice, _numberOfTeamMemebr, block.timestamp, _createAt) */\n      dup2\n      mstore\n      pop\n        /* \"contracts/EvolveStorage.sol\":4088:4186  Preset memory currentPreset = Preset(_matchPrice, _numberOfTeamMemebr, block.timestamp, _createAt) */\n      swap1\n      pop\n        /* \"contracts/EvolveStorage.sol\":4224:4237  currentPreset */\n      dup1\n        /* \"contracts/EvolveStorage.sol\":4196:4206  presetList */\n      0x04\n        /* \"contracts/EvolveStorage.sol\":4196:4221  presetList[_lastPresetId] */\n      0x00\n        /* \"contracts/EvolveStorage.sol\":4207:4220  _lastPresetId */\n      dup5\n        /* \"contracts/EvolveStorage.sol\":4196:4221  presetList[_lastPresetId] */\n      dup2\n      mstore\n      0x20\n      add\n      swap1\n      dup2\n      mstore\n      0x20\n      add\n      0x00\n      keccak256\n        /* \"contracts/EvolveStorage.sol\":4196:4237  presetList[_lastPresetId] = currentPreset */\n      0x00\n      dup3\n      add\n      mload\n      dup2\n      0x00\n      add\n      sstore\n      0x20\n      dup3\n      add\n      mload\n      dup2\n      0x01\n      add\n      sstore\n      0x40\n      dup3\n      add\n      mload\n      dup2\n      0x02\n      add\n      sstore\n      0x60\n      dup3\n      add\n      mload\n      dup2\n      0x03\n      add\n      sstore\n      swap1\n      pop\n      pop\n        /* \"contracts/EvolveStorage.sol\":4264:4265  1 */\n      0x01\n        /* \"contracts/EvolveStorage.sol\":4247:4260  startPresetId */\n      0x03\n      0x00\n        /* \"contracts/EvolveStorage.sol\":4247:4265  startPresetId += 1 */\n      dup3\n      dup3\n      sload\n      tag_144\n      swap2\n      swap1\n      tag_145\n      jump\t// in\n    tag_144:\n      swap3\n      pop\n      pop\n      dup2\n      swap1\n      sstore\n      pop\n        /* \"contracts/EvolveStorage.sol\":4282:4295  _lastPresetId */\n      dup2\n        /* \"contracts/EvolveStorage.sol\":4275:4295  return _lastPresetId */\n      swap3\n      pop\n      pop\n      pop\n        /* \"contracts/EvolveStorage.sol\":3886:4302  function addNewPreset(uint256 _matchPrice, uint256 _numberOfTeamMemebr, uint256 _createAt ) external override ownerOrFactory returns(uint presetId) {... */\n      swap4\n      swap3\n      pop\n      pop\n      pop\n      jump\t// out\n        /* \"contracts/EvolveStorage.sol\":567:618  mapping(uint256 => Competion ) public competionList */\n    tag_51:\n      mstore(0x20, 0x05)\n      dup1\n      0x00\n      mstore\n      keccak256(0x00, 0x40)\n      0x00\n      swap2\n      pop\n      swap1\n      pop\n      dup1\n      0x00\n      add\n      mload(0x40)\n      dup1\n      0x80\n      add\n      0x40\n      mstore\n      swap1\n      dup2\n      0x00\n      dup3\n      add\n      sload\n      dup2\n      mstore\n      0x20\n      add\n      0x01\n      dup3\n      add\n      sload\n      dup2\n      mstore\n      0x20\n      add\n      0x02\n      dup3\n      add\n      sload\n      dup2\n      mstore\n      0x20\n      add\n      0x03\n      dup3\n      add\n      sload\n      dup2\n      mstore\n      pop\n      pop\n      swap1\n      dup1\n      0x06\n      add\n      0x00\n      swap1\n      sload\n      swap1\n      0x0100\n      exp\n      swap1\n      div\n      0xff\n      and\n      swap1\n      dup1\n      0x06\n      add\n      0x01\n      swap1\n      sload\n      swap1\n      0x0100\n      exp\n      swap1\n      div\n      0xff\n      and\n      swap1\n      dup1\n      0x07\n      add\n      sload\n      swap1\n      dup1\n      0x08\n      add\n      sload\n      swap1\n      pop\n      dup6\n      jump\t// out\n        /* \"contracts/EvolveStorage.sol\":3066:3621  function addNewCompetion(uint256 _presetId, address[] calldata _teamA, address[] calldata _teamB, uint256 _priceRate, uint256 _createAt) external override ownerOrFactory returns(uint256 competitionId){... */\n    tag_57:\n        /* \"contracts/EvolveStorage.sol\":3244:3265  uint256 competitionId */\n      0x00\n        /* \"contracts/EvolveStorage.sol\":915:928  factoryAddrss */\n      0x01\n      0x00\n      swap1\n      sload\n      swap1\n      0x0100\n      exp\n      swap1\n      div\n      0xffffffffffffffffffffffffffffffffffffffff\n      and\n        /* \"contracts/EvolveStorage.sol\":899:928  _msgSender() == factoryAddrss */\n      0xffffffffffffffffffffffffffffffffffffffff\n      and\n        /* \"contracts/EvolveStorage.sol\":899:911  _msgSender() */\n      tag_147\n        /* \"contracts/EvolveStorage.sol\":899:909  _msgSender */\n      tag_88\n        /* \"contracts/EvolveStorage.sol\":899:911  _msgSender() */\n      jump\t// in\n    tag_147:\n        /* \"contracts/EvolveStorage.sol\":899:928  _msgSender() == factoryAddrss */\n      0xffffffffffffffffffffffffffffffffffffffff\n      and\n      eq\n        /* \"contracts/EvolveStorage.sol\":899:955  _msgSender() == factoryAddrss || _msgSender() == owner() */\n      dup1\n      tag_148\n      jumpi\n      pop\n        /* \"contracts/EvolveStorage.sol\":948:955  owner() */\n      tag_149\n        /* \"contracts/EvolveStorage.sol\":948:953  owner */\n      tag_60\n        /* \"contracts/EvolveStorage.sol\":948:955  owner() */\n      jump\t// in\n    tag_149:\n        /* \"contracts/EvolveStorage.sol\":932:955  _msgSender() == owner() */\n      0xffffffffffffffffffffffffffffffffffffffff\n      and\n        /* \"contracts/EvolveStorage.sol\":932:944  _msgSender() */\n      tag_150\n        /* \"contracts/EvolveStorage.sol\":932:942  _msgSender */\n      tag_88\n        /* \"contracts/EvolveStorage.sol\":932:944  _msgSender() */\n      jump\t// in\n    tag_150:\n        /* \"contracts/EvolveStorage.sol\":932:955  _msgSender() == owner() */\n      0xffffffffffffffffffffffffffffffffffffffff\n      and\n      eq\n        /* \"contracts/EvolveStorage.sol\":899:955  _msgSender() == factoryAddrss || _msgSender() == owner() */\n    tag_148:\n        /* \"contracts/EvolveStorage.sol\":899:979  _msgSender() == factoryAddrss || _msgSender() == owner() || owner() == tx.origin */\n      dup1\n      tag_151\n      jumpi\n      pop\n        /* \"contracts/EvolveStorage.sol\":970:979  tx.origin */\n      origin\n        /* \"contracts/EvolveStorage.sol\":959:979  owner() == tx.origin */\n      0xffffffffffffffffffffffffffffffffffffffff\n      and\n        /* \"contracts/EvolveStorage.sol\":959:966  owner() */\n      tag_152\n        /* \"contracts/EvolveStorage.sol\":959:964  owner */\n      tag_60\n        /* \"contracts/EvolveStorage.sol\":959:966  owner() */\n      jump\t// in\n    tag_152:\n        /* \"contracts/EvolveStorage.sol\":959:979  owner() == tx.origin */\n      0xffffffffffffffffffffffffffffffffffffffff\n      and\n      eq\n        /* \"contracts/EvolveStorage.sol\":899:979  _msgSender() == factoryAddrss || _msgSender() == owner() || owner() == tx.origin */\n    tag_151:\n        /* \"contracts/EvolveStorage.sol\":891:1038  require(_msgSender() == factoryAddrss || _msgSender() == owner() || owner() == tx.origin , \"To call this method you have to be owner or subAdmin!\") */\n      tag_153\n      jumpi\n      mload(0x40)\n      0x08c379a000000000000000000000000000000000000000000000000000000000\n      dup2\n      mstore\n      0x04\n      add\n      tag_154\n      swap1\n      tag_96\n      jump\t// in\n    tag_154:\n      mload(0x40)\n      dup1\n      swap2\n      sub\n      swap1\n      revert\n    tag_153:\n        /* \"contracts/EvolveStorage.sol\":3284:3313  isExistsPresetList(_presetId) */\n      tag_156\n        /* \"contracts/EvolveStorage.sol\":3303:3312  _presetId */\n      dup9\n        /* \"contracts/EvolveStorage.sol\":3284:3302  isExistsPresetList */\n      tag_157\n        /* \"contracts/EvolveStorage.sol\":3284:3313  isExistsPresetList(_presetId) */\n      jump\t// in\n    tag_156:\n        /* \"contracts/EvolveStorage.sol\":3276:3349  require(isExistsPresetList(_presetId), \"can't find preset with this id!\") */\n      tag_158\n      jumpi\n      mload(0x40)\n      0x08c379a000000000000000000000000000000000000000000000000000000000\n      dup2\n      mstore\n      0x04\n      add\n      tag_159\n      swap1\n      tag_160\n      jump\t// in\n    tag_159:\n      mload(0x40)\n      dup1\n      swap2\n      sub\n      swap1\n      revert\n    tag_158:\n        /* \"contracts/EvolveStorage.sol\":3375:3393  startCompetitionId */\n      sload(0x02)\n        /* \"contracts/EvolveStorage.sol\":3359:3393  competitionId = startCompetitionId */\n      swap1\n      pop\n        /* \"contracts/EvolveStorage.sol\":3434:3551  Competion(presetList[_presetId],_teamA, _teamB, CompetionStatus.PENDING, CompetionWinner.OPEN, _priceRate, _createAt) */\n      mload(0x40)\n      dup1\n      0xe0\n      add\n      0x40\n      mstore\n      dup1\n        /* \"contracts/EvolveStorage.sol\":3444:3454  presetList */\n      0x04\n        /* \"contracts/EvolveStorage.sol\":3444:3465  presetList[_presetId] */\n      0x00\n        /* \"contracts/EvolveStorage.sol\":3455:3464  _presetId */\n      dup12\n        /* \"contracts/EvolveStorage.sol\":3444:3465  presetList[_presetId] */\n      dup2\n      mstore\n      0x20\n      add\n      swap1\n      dup2\n      mstore\n      0x20\n      add\n      0x00\n      keccak256\n        /* \"contracts/EvolveStorage.sol\":3434:3551  Competion(presetList[_presetId],_teamA, _teamB, CompetionStatus.PENDING, CompetionWinner.OPEN, _priceRate, _createAt) */\n      mload(0x40)\n      dup1\n      0x80\n      add\n      0x40\n      mstore\n      swap1\n      dup2\n      0x00\n      dup3\n      add\n      sload\n      dup2\n      mstore\n      0x20\n      add\n      0x01\n      dup3\n      add\n      sload\n      dup2\n      mstore\n      0x20\n      add\n      0x02\n      dup3\n      add\n      sload\n      dup2\n      mstore\n      0x20\n      add\n      0x03\n      dup3\n      add\n      sload\n      dup2\n      mstore\n      pop\n      pop\n      dup2\n      mstore\n      0x20\n      add\n        /* \"contracts/EvolveStorage.sol\":3466:3472  _teamA */\n      dup9\n      dup9\n        /* \"contracts/EvolveStorage.sol\":3434:3551  Competion(presetList[_presetId],_teamA, _teamB, CompetionStatus.PENDING, CompetionWinner.OPEN, _priceRate, _createAt) */\n      dup1\n      dup1\n      0x20\n      mul\n      0x20\n      add\n      mload(0x40)\n      swap1\n      dup2\n      add\n      0x40\n      mstore\n      dup1\n      swap4\n      swap3\n      swap2\n      swap1\n      dup2\n      dup2\n      mstore\n      0x20\n      add\n      dup4\n      dup4\n      0x20\n      mul\n      dup1\n      dup3\n      dup5\n      calldatacopy\n      0x00\n      dup2\n      dup5\n      add\n      mstore\n      not(0x1f)\n      0x1f\n      dup3\n      add\n      and\n      swap1\n      pop\n      dup1\n      dup4\n      add\n      swap3\n      pop\n      pop\n      pop\n      pop\n      pop\n      pop\n      pop\n      dup2\n      mstore\n      0x20\n      add\n        /* \"contracts/EvolveStorage.sol\":3474:3480  _teamB */\n      dup7\n      dup7\n        /* \"contracts/EvolveStorage.sol\":3434:3551  Competion(presetList[_presetId],_teamA, _teamB, CompetionStatus.PENDING, CompetionWinner.OPEN, _priceRate, _createAt) */\n      dup1\n      dup1\n      0x20\n      mul\n      0x20\n      add\n      mload(0x40)\n      swap1\n      dup2\n      add\n      0x40\n      mstore\n      dup1\n      swap4\n      swap3\n      swap2\n      swap1\n      dup2\n      dup2\n      mstore\n      0x20\n      add\n      dup4\n      dup4\n      0x20\n      mul\n      dup1\n      dup3\n      dup5\n      calldatacopy\n      0x00\n      dup2\n      dup5\n      add\n      mstore\n      not(0x1f)\n      0x1f\n      dup3\n      add\n      and\n      swap1\n      pop\n      dup1\n      dup4\n      add\n      swap3\n      pop\n      pop\n      pop\n      pop\n      pop\n      pop\n      pop\n      dup2\n      mstore\n      0x20\n      add\n        /* \"contracts/EvolveStorage.sol\":3482:3505  CompetionStatus.PENDING */\n      0x00\n        /* \"contracts/EvolveStorage.sol\":3434:3551  Competion(presetList[_presetId],_teamA, _teamB, CompetionStatus.PENDING, CompetionWinner.OPEN, _priceRate, _createAt) */\n      0x02\n      dup2\n      gt\n      iszero\n      tag_161\n      jumpi\n      tag_162\n      tag_110\n      jump\t// in\n    tag_162:\n    tag_161:\n      dup2\n      mstore\n      0x20\n      add\n        /* \"contracts/EvolveStorage.sol\":3507:3527  CompetionWinner.OPEN */\n      0x03\n        /* \"contracts/EvolveStorage.sol\":3434:3551  Competion(presetList[_presetId],_teamA, _teamB, CompetionStatus.PENDING, CompetionWinner.OPEN, _priceRate, _createAt) */\n      dup1\n      dup2\n      gt\n      iszero\n      tag_163\n      jumpi\n      tag_164\n      tag_110\n      jump\t// in\n    tag_164:\n    tag_163:\n      dup2\n      mstore\n      0x20\n      add\n        /* \"contracts/EvolveStorage.sol\":3529:3539  _priceRate */\n      dup5\n        /* \"contracts/EvolveStorage.sol\":3434:3551  Competion(presetList[_presetId],_teamA, _teamB, CompetionStatus.PENDING, CompetionWinner.OPEN, _priceRate, _createAt) */\n      dup2\n      mstore\n      0x20\n      add\n        /* \"contracts/EvolveStorage.sol\":3541:3550  _createAt */\n      dup4\n        /* \"contracts/EvolveStorage.sol\":3434:3551  Competion(presetList[_presetId],_teamA, _teamB, CompetionStatus.PENDING, CompetionWinner.OPEN, _priceRate, _createAt) */\n      dup2\n      mstore\n      pop\n        /* \"contracts/EvolveStorage.sol\":3403:3416  competionList */\n      0x05\n        /* \"contracts/EvolveStorage.sol\":3403:3431  competionList[competitionId] */\n      0x00\n        /* \"contracts/EvolveStorage.sol\":3417:3430  competitionId */\n      dup4\n        /* \"contracts/EvolveStorage.sol\":3403:3431  competionList[competitionId] */\n      dup2\n      mstore\n      0x20\n      add\n      swap1\n      dup2\n      mstore\n      0x20\n      add\n      0x00\n      keccak256\n        /* \"contracts/EvolveStorage.sol\":3403:3551  competionList[competitionId] = Competion(presetList[_presetId],_teamA, _teamB, CompetionStatus.PENDING, CompetionWinner.OPEN, _priceRate, _createAt) */\n      0x00\n      dup3\n      add\n      mload\n      dup2\n      0x00\n      add\n      0x00\n      dup3\n      add\n      mload\n      dup2\n      0x00\n      add\n      sstore\n      0x20\n      dup3\n      add\n      mload\n      dup2\n      0x01\n      add\n      sstore\n      0x40\n      dup3\n      add\n      mload\n      dup2\n      0x02\n      add\n      sstore\n      0x60\n      dup3\n      add\n      mload\n      dup2\n      0x03\n      add\n      sstore\n      pop\n      pop\n      0x20\n      dup3\n      add\n      mload\n      dup2\n      0x04\n      add\n      swap1\n      dup1\n      mload\n      swap1\n      0x20\n      add\n      swap1\n      tag_165\n      swap3\n      swap2\n      swap1\n      tag_166\n      jump\t// in\n    tag_165:\n      pop\n      0x40\n      dup3\n      add\n      mload\n      dup2\n      0x05\n      add\n      swap1\n      dup1\n      mload\n      swap1\n      0x20\n      add\n      swap1\n      tag_167\n      swap3\n      swap2\n      swap1\n      tag_166\n      jump\t// in\n    tag_167:\n      pop\n      0x60\n      dup3\n      add\n      mload\n      dup2\n      0x06\n      add\n      exp(0x0100, 0x00)\n      dup2\n      sload\n      dup2\n      0xff\n      mul\n      not\n      and\n      swap1\n      dup4\n      0x02\n      dup2\n      gt\n      iszero\n      tag_168\n      jumpi\n      tag_169\n      tag_110\n      jump\t// in\n    tag_169:\n    tag_168:\n      mul\n      or\n      swap1\n      sstore\n      pop\n      0x80\n      dup3\n      add\n      mload\n      dup2\n      0x06\n      add\n      exp(0x0100, 0x01)\n      dup2\n      sload\n      dup2\n      0xff\n      mul\n      not\n      and\n      swap1\n      dup4\n      0x03\n      dup2\n      gt\n      iszero\n      tag_170\n      jumpi\n      tag_171\n      tag_110\n      jump\t// in\n    tag_171:\n    tag_170:\n      mul\n      or\n      swap1\n      sstore\n      pop\n      0xa0\n      dup3\n      add\n      mload\n      dup2\n      0x07\n      add\n      sstore\n      0xc0\n      dup3\n      add\n      mload\n      dup2\n      0x08\n      add\n      sstore\n      swap1\n      pop\n      pop\n        /* \"contracts/EvolveStorage.sol\":3583:3584  1 */\n      0x01\n        /* \"contracts/EvolveStorage.sol\":3561:3579  startCompetitionId */\n      0x02\n      0x00\n        /* \"contracts/EvolveStorage.sol\":3561:3584  startCompetitionId += 1 */\n      dup3\n      dup3\n      sload\n      tag_172\n      swap2\n      swap1\n      tag_145\n      jump\t// in\n    tag_172:\n      swap3\n      pop\n      pop\n      dup2\n      swap1\n      sstore\n      pop\n        /* \"contracts/EvolveStorage.sol\":3066:3621  function addNewCompetion(uint256 _presetId, address[] calldata _teamA, address[] calldata _teamB, uint256 _priceRate, uint256 _createAt) external override ownerOrFactory returns(uint256 competitionId){... */\n      swap8\n      swap7\n      pop\n      pop\n      pop\n      pop\n      pop\n      pop\n      pop\n      jump\t// out\n        /* \"@openzeppelin/contracts/access/Ownable.sol\":1036:1121  function owner() public view virtual returns (address) {... */\n    tag_60:\n        /* \"@openzeppelin/contracts/access/Ownable.sol\":1082:1089  address */\n      0x00\n        /* \"@openzeppelin/contracts/access/Ownable.sol\":1108:1114  _owner */\n      dup1\n      0x00\n      swap1\n      sload\n      swap1\n      0x0100\n      exp\n      swap1\n      div\n      0xffffffffffffffffffffffffffffffffffffffff\n      and\n        /* \"@openzeppelin/contracts/access/Ownable.sol\":1101:1114  return _owner */\n      swap1\n      pop\n        /* \"@openzeppelin/contracts/access/Ownable.sol\":1036:1121  function owner() public view virtual returns (address) {... */\n      swap1\n      jump\t// out\n        /* \"contracts/EvolveStorage.sol\":1546:2331  function updateCompetionWinner(uint _competionId, uint8 _winnerTeam) external override ownerOrFactory returns(bool){... */\n    tag_65:\n        /* \"contracts/EvolveStorage.sol\":1656:1660  bool */\n      0x00\n        /* \"contracts/EvolveStorage.sol\":915:928  factoryAddrss */\n      0x01\n      0x00\n      swap1\n      sload\n      swap1\n      0x0100\n      exp\n      swap1\n      div\n      0xffffffffffffffffffffffffffffffffffffffff\n      and\n        /* \"contracts/EvolveStorage.sol\":899:928  _msgSender() == factoryAddrss */\n      0xffffffffffffffffffffffffffffffffffffffff\n      and\n        /* \"contracts/EvolveStorage.sol\":899:911  _msgSender() */\n      tag_175\n        /* \"contracts/EvolveStorage.sol\":899:909  _msgSender */\n      tag_88\n        /* \"contracts/EvolveStorage.sol\":899:911  _msgSender() */\n      jump\t// in\n    tag_175:\n        /* \"contracts/EvolveStorage.sol\":899:928  _msgSender() == factoryAddrss */\n      0xffffffffffffffffffffffffffffffffffffffff\n      and\n      eq\n        /* \"contracts/EvolveStorage.sol\":899:955  _msgSender() == factoryAddrss || _msgSender() == owner() */\n      dup1\n      tag_176\n      jumpi\n      pop\n        /* \"contracts/EvolveStorage.sol\":948:955  owner() */\n      tag_177\n        /* \"contracts/EvolveStorage.sol\":948:953  owner */\n      tag_60\n        /* \"contracts/EvolveStorage.sol\":948:955  owner() */\n      jump\t// in\n    tag_177:\n        /* \"contracts/EvolveStorage.sol\":932:955  _msgSender() == owner() */\n      0xffffffffffffffffffffffffffffffffffffffff\n      and\n        /* \"contracts/EvolveStorage.sol\":932:944  _msgSender() */\n      tag_178\n        /* \"contracts/EvolveStorage.sol\":932:942  _msgSender */\n      tag_88\n        /* \"contracts/EvolveStorage.sol\":932:944  _msgSender() */\n      jump\t// in\n    tag_178:\n        /* \"contracts/EvolveStorage.sol\":932:955  _msgSender() == owner() */\n      0xffffffffffffffffffffffffffffffffffffffff\n      and\n      eq\n        /* \"contracts/EvolveStorage.sol\":899:955  _msgSender() == factoryAddrss || _msgSender() == owner() */\n    tag_176:\n        /* \"contracts/EvolveStorage.sol\":899:979  _msgSender() == factoryAddrss || _msgSender() == owner() || owner() == tx.origin */\n      dup1\n      tag_179\n      jumpi\n      pop\n        /* \"contracts/EvolveStorage.sol\":970:979  tx.origin */\n      origin\n        /* \"contracts/EvolveStorage.sol\":959:979  owner() == tx.origin */\n      0xffffffffffffffffffffffffffffffffffffffff\n      and\n        /* \"contracts/EvolveStorage.sol\":959:966  owner() */\n      tag_180\n        /* \"contracts/EvolveStorage.sol\":959:964  owner */\n      tag_60\n        /* \"contracts/EvolveStorage.sol\":959:966  owner() */\n      jump\t// in\n    tag_180:\n        /* \"contracts/EvolveStorage.sol\":959:979  owner() == tx.origin */\n      0xffffffffffffffffffffffffffffffffffffffff\n      and\n      eq\n        /* \"contracts/EvolveStorage.sol\":899:979  _msgSender() == factoryAddrss || _msgSender() == owner() || owner() == tx.origin */\n    tag_179:\n        /* \"contracts/EvolveStorage.sol\":891:1038  require(_msgSender() == factoryAddrss || _msgSender() == owner() || owner() == tx.origin , \"To call this method you have to be owner or subAdmin!\") */\n      tag_181\n      jumpi\n      mload(0x40)\n      0x08c379a000000000000000000000000000000000000000000000000000000000\n      dup2\n      mstore\n      0x04\n      add\n      tag_182\n      swap1\n      tag_96\n      jump\t// in\n    tag_182:\n      mload(0x40)\n      dup1\n      swap2\n      sub\n      swap1\n      revert\n    tag_181:\n        /* \"contracts/EvolveStorage.sol\":1679:1714  isExistsCompetionList(_competionId) */\n      tag_184\n        /* \"contracts/EvolveStorage.sol\":1701:1713  _competionId */\n      dup4\n        /* \"contracts/EvolveStorage.sol\":1679:1700  isExistsCompetionList */\n      tag_99\n        /* \"contracts/EvolveStorage.sol\":1679:1714  isExistsCompetionList(_competionId) */\n      jump\t// in\n    tag_184:\n        /* \"contracts/EvolveStorage.sol\":1671:1762  require(isExistsCompetionList(_competionId), \"can't find competion with this competionId!\") */\n      tag_185\n      jumpi\n      mload(0x40)\n      0x08c379a000000000000000000000000000000000000000000000000000000000\n      dup2\n      mstore\n      0x04\n      add\n      tag_186\n      swap1\n      tag_102\n      jump\t// in\n    tag_186:\n      mload(0x40)\n      dup1\n      swap2\n      sub\n      swap1\n      revert\n    tag_185:\n        /* \"contracts/EvolveStorage.sol\":1795:1796  0 */\n      0x00\n        /* \"contracts/EvolveStorage.sol\":1780:1791  _winnerTeam */\n      dup3\n        /* \"contracts/EvolveStorage.sol\":1780:1796  _winnerTeam >= 0 */\n      0xff\n      and\n      lt\n      iszero\n        /* \"contracts/EvolveStorage.sol\":1780:1816  _winnerTeam >= 0 && _winnerTeam <= 3 */\n      dup1\n      iszero\n      tag_187\n      jumpi\n      pop\n        /* \"contracts/EvolveStorage.sol\":1815:1816  3 */\n      0x03\n        /* \"contracts/EvolveStorage.sol\":1800:1811  _winnerTeam */\n      dup3\n        /* \"contracts/EvolveStorage.sol\":1800:1816  _winnerTeam <= 3 */\n      0xff\n      and\n      gt\n      iszero\n        /* \"contracts/EvolveStorage.sol\":1780:1816  _winnerTeam >= 0 && _winnerTeam <= 3 */\n    tag_187:\n        /* \"contracts/EvolveStorage.sol\":1772:1861  require(_winnerTeam >= 0 && _winnerTeam <= 3, \"winner need to be somting between 0 to 3\") */\n      tag_188\n      jumpi\n      mload(0x40)\n      0x08c379a000000000000000000000000000000000000000000000000000000000\n      dup2\n      mstore\n      0x04\n      add\n      tag_189\n      swap1\n      tag_190\n      jump\t// in\n    tag_189:\n      mload(0x40)\n      dup1\n      swap2\n      sub\n      swap1\n      revert\n    tag_188:\n        /* \"contracts/EvolveStorage.sol\":1871:1898  Competion storage competion */\n      0x00\n        /* \"contracts/EvolveStorage.sol\":1901:1914  competionList */\n      0x05\n        /* \"contracts/EvolveStorage.sol\":1901:1928  competionList[_competionId] */\n      0x00\n        /* \"contracts/EvolveStorage.sol\":1915:1927  _competionId */\n      dup6\n        /* \"contracts/EvolveStorage.sol\":1901:1928  competionList[_competionId] */\n      dup2\n      mstore\n      0x20\n      add\n      swap1\n      dup2\n      mstore\n      0x20\n      add\n      0x00\n      keccak256\n        /* \"contracts/EvolveStorage.sol\":1871:1928  Competion storage competion = competionList[_competionId] */\n      swap1\n      pop\n        /* \"contracts/EvolveStorage.sol\":1956:1957  0 */\n      0x00\n        /* \"contracts/EvolveStorage.sol\":1941:1952  _winnerTeam */\n      dup4\n        /* \"contracts/EvolveStorage.sol\":1941:1957  _winnerTeam == 0 */\n      0xff\n      and\n      eq\n        /* \"contracts/EvolveStorage.sol\":1938:2295  if(_winnerTeam == 0){... */\n      iszero\n      tag_191\n      jumpi\n        /* \"contracts/EvolveStorage.sol\":1992:2013  CompetionWinner.TEAMA */\n      0x00\n        /* \"contracts/EvolveStorage.sol\":1972:1981  competion */\n      dup2\n        /* \"contracts/EvolveStorage.sol\":1972:1989  competion.winners */\n      0x06\n      add\n      0x01\n        /* \"contracts/EvolveStorage.sol\":1972:2013  competion.winners = CompetionWinner.TEAMA */\n      0x0100\n      exp\n      dup2\n      sload\n      dup2\n      0xff\n      mul\n      not\n      and\n      swap1\n      dup4\n      0x03\n      dup2\n      gt\n      iszero\n      tag_192\n      jumpi\n      tag_193\n      tag_110\n      jump\t// in\n    tag_193:\n    tag_192:\n      mul\n      or\n      swap1\n      sstore\n      pop\n        /* \"contracts/EvolveStorage.sol\":1938:2295  if(_winnerTeam == 0){... */\n      jump(tag_194)\n    tag_191:\n        /* \"contracts/EvolveStorage.sol\":2047:2048  1 */\n      0x01\n        /* \"contracts/EvolveStorage.sol\":2032:2043  _winnerTeam */\n      dup4\n        /* \"contracts/EvolveStorage.sol\":2032:2048  _winnerTeam == 1 */\n      0xff\n      and\n      eq\n        /* \"contracts/EvolveStorage.sol\":2029:2295  if(_winnerTeam == 1){... */\n      iszero\n      tag_195\n      jumpi\n        /* \"contracts/EvolveStorage.sol\":2083:2104  CompetionWinner.TEAMB */\n      0x01\n        /* \"contracts/EvolveStorage.sol\":2063:2072  competion */\n      dup2\n        /* \"contracts/EvolveStorage.sol\":2063:2080  competion.winners */\n      0x06\n      add\n      0x01\n        /* \"contracts/EvolveStorage.sol\":2063:2104  competion.winners = CompetionWinner.TEAMB */\n      0x0100\n      exp\n      dup2\n      sload\n      dup2\n      0xff\n      mul\n      not\n      and\n      swap1\n      dup4\n      0x03\n      dup2\n      gt\n      iszero\n      tag_196\n      jumpi\n      tag_197\n      tag_110\n      jump\t// in\n    tag_197:\n    tag_196:\n      mul\n      or\n      swap1\n      sstore\n      pop\n        /* \"contracts/EvolveStorage.sol\":2029:2295  if(_winnerTeam == 1){... */\n      jump(tag_198)\n    tag_195:\n        /* \"contracts/EvolveStorage.sol\":2138:2139  2 */\n      0x02\n        /* \"contracts/EvolveStorage.sol\":2123:2134  _winnerTeam */\n      dup4\n        /* \"contracts/EvolveStorage.sol\":2123:2139  _winnerTeam == 2 */\n      0xff\n      and\n      eq\n        /* \"contracts/EvolveStorage.sol\":2120:2295  if(_winnerTeam == 2){... */\n      iszero\n      tag_199\n      jumpi\n        /* \"contracts/EvolveStorage.sol\":2174:2194  CompetionWinner.DRAW */\n      0x02\n        /* \"contracts/EvolveStorage.sol\":2154:2163  competion */\n      dup2\n        /* \"contracts/EvolveStorage.sol\":2154:2171  competion.winners */\n      0x06\n      add\n      0x01\n        /* \"contracts/EvolveStorage.sol\":2154:2194  competion.winners = CompetionWinner.DRAW */\n      0x0100\n      exp\n      dup2\n      sload\n      dup2\n      0xff\n      mul\n      not\n      and\n      swap1\n      dup4\n      0x03\n      dup2\n      gt\n      iszero\n      tag_200\n      jumpi\n      tag_201\n      tag_110\n      jump\t// in\n    tag_201:\n    tag_200:\n      mul\n      or\n      swap1\n      sstore\n      pop\n        /* \"contracts/EvolveStorage.sol\":2120:2295  if(_winnerTeam == 2){... */\n      jump(tag_202)\n    tag_199:\n        /* \"contracts/EvolveStorage.sol\":2228:2229  3 */\n      0x03\n        /* \"contracts/EvolveStorage.sol\":2213:2224  _winnerTeam */\n      dup4\n        /* \"contracts/EvolveStorage.sol\":2213:2229  _winnerTeam == 3 */\n      0xff\n      and\n      eq\n        /* \"contracts/EvolveStorage.sol\":2210:2295  if(_winnerTeam == 3){... */\n      iszero\n      tag_203\n      jumpi\n        /* \"contracts/EvolveStorage.sol\":2264:2284  CompetionWinner.OPEN */\n      0x03\n        /* \"contracts/EvolveStorage.sol\":2244:2253  competion */\n      dup2\n        /* \"contracts/EvolveStorage.sol\":2244:2261  competion.winners */\n      0x06\n      add\n      0x01\n        /* \"contracts/EvolveStorage.sol\":2244:2284  competion.winners = CompetionWinner.OPEN */\n      0x0100\n      exp\n      dup2\n      sload\n      dup2\n      0xff\n      mul\n      not\n      and\n      swap1\n      dup4\n      0x03\n      dup2\n      gt\n      iszero\n      tag_204\n      jumpi\n      tag_205\n      tag_110\n      jump\t// in\n    tag_205:\n    tag_204:\n      mul\n      or\n      swap1\n      sstore\n      pop\n        /* \"contracts/EvolveStorage.sol\":2210:2295  if(_winnerTeam == 3){... */\n    tag_203:\n        /* \"contracts/EvolveStorage.sol\":2120:2295  if(_winnerTeam == 2){... */\n    tag_202:\n        /* \"contracts/EvolveStorage.sol\":2029:2295  if(_winnerTeam == 1){... */\n    tag_198:\n        /* \"contracts/EvolveStorage.sol\":1938:2295  if(_winnerTeam == 0){... */\n    tag_194:\n        /* \"contracts/EvolveStorage.sol\":2320:2324  true */\n      0x01\n        /* \"contracts/EvolveStorage.sol\":2313:2324  return true */\n      swap2\n      pop\n      pop\n        /* \"contracts/EvolveStorage.sol\":1546:2331  function updateCompetionWinner(uint _competionId, uint8 _winnerTeam) external override ownerOrFactory returns(bool){... */\n      swap3\n      swap2\n      pop\n      pop\n      jump\t// out\n        /* \"contracts/EvolveStorage.sol\":4414:4626  function getPreset(uint256 _presetId) external view override returns(uint256 matchPrice,uint256 numberOfTeamMemebr){... */\n    tag_69:\n        /* \"contracts/EvolveStorage.sol\":4483:4501  uint256 matchPrice */\n      0x00\n        /* \"contracts/EvolveStorage.sol\":4502:4528  uint256 numberOfTeamMemebr */\n      dup1\n        /* \"contracts/EvolveStorage.sol\":4544:4554  presetList */\n      0x04\n        /* \"contracts/EvolveStorage.sol\":4544:4565  presetList[_presetId] */\n      0x00\n        /* \"contracts/EvolveStorage.sol\":4555:4564  _presetId */\n      dup5\n        /* \"contracts/EvolveStorage.sol\":4544:4565  presetList[_presetId] */\n      dup2\n      mstore\n      0x20\n      add\n      swap1\n      dup2\n      mstore\n      0x20\n      add\n      0x00\n      keccak256\n        /* \"contracts/EvolveStorage.sol\":4544:4576  presetList[_presetId].matchPrice */\n      0x00\n      add\n      sload\n        /* \"contracts/EvolveStorage.sol\":4578:4588  presetList */\n      0x04\n        /* \"contracts/EvolveStorage.sol\":4578:4599  presetList[_presetId] */\n      0x00\n        /* \"contracts/EvolveStorage.sol\":4589:4598  _presetId */\n      dup6\n        /* \"contracts/EvolveStorage.sol\":4578:4599  presetList[_presetId] */\n      dup2\n      mstore\n      0x20\n      add\n      swap1\n      dup2\n      mstore\n      0x20\n      add\n      0x00\n      keccak256\n        /* \"contracts/EvolveStorage.sol\":4578:4618  presetList[_presetId].numberOfTeamMemebr */\n      0x01\n      add\n      sload\n        /* \"contracts/EvolveStorage.sol\":4536:4619  return (presetList[_presetId].matchPrice, presetList[_presetId].numberOfTeamMemebr) */\n      swap2\n      pop\n      swap2\n      pop\n        /* \"contracts/EvolveStorage.sol\":4414:4626  function getPreset(uint256 _presetId) external view override returns(uint256 matchPrice,uint256 numberOfTeamMemebr){... */\n      swap2\n      pop\n      swap2\n      jump\t// out\n        /* \"contracts/EvolveStorage.sol\":401:429  address public factoryAddrss */\n    tag_73:\n      0x01\n      0x00\n      swap1\n      sload\n      swap1\n      0x0100\n      exp\n      swap1\n      div\n      0xffffffffffffffffffffffffffffffffffffffff\n      and\n      dup2\n      jump\t// out\n        /* \"contracts/EvolveStorage.sol\":4632:5365  function getCompetion(uint256 _competionId) external view override ... */\n    tag_77:\n        /* \"contracts/EvolveStorage.sol\":4716:4735  uint256 presetPrice */\n      0x00\n        /* \"contracts/EvolveStorage.sol\":4736:4755  uint256 playerCount */\n      dup1\n        /* \"contracts/EvolveStorage.sol\":4756:4779  address[] memory _teamA */\n      0x60\n        /* \"contracts/EvolveStorage.sol\":4781:4804  address[] memory _teamB */\n      dup1\n        /* \"contracts/EvolveStorage.sol\":4806:4827  uint _competionStatus */\n      0x00\n        /* \"contracts/EvolveStorage.sol\":4829:4850  uint _competionWinner */\n      dup1\n        /* \"contracts/EvolveStorage.sol\":4852:4870  uint256 _priceRate */\n      0x00\n        /* \"contracts/EvolveStorage.sol\":4881:4910  Preset memory competionPreset */\n      dup1\n        /* \"contracts/EvolveStorage.sol\":4913:4926  competionList */\n      0x05\n        /* \"contracts/EvolveStorage.sol\":4913:4940  competionList[_competionId] */\n      0x00\n        /* \"contracts/EvolveStorage.sol\":4927:4939  _competionId */\n      dup11\n        /* \"contracts/EvolveStorage.sol\":4913:4940  competionList[_competionId] */\n      dup2\n      mstore\n      0x20\n      add\n      swap1\n      dup2\n      mstore\n      0x20\n      add\n      0x00\n      keccak256\n        /* \"contracts/EvolveStorage.sol\":4913:4947  competionList[_competionId].preset */\n      0x00\n      add\n        /* \"contracts/EvolveStorage.sol\":4881:4947  Preset memory competionPreset = competionList[_competionId].preset */\n      mload(0x40)\n      dup1\n      0x80\n      add\n      0x40\n      mstore\n      swap1\n      dup2\n      0x00\n      dup3\n      add\n      sload\n      dup2\n      mstore\n      0x20\n      add\n      0x01\n      dup3\n      add\n      sload\n      dup2\n      mstore\n      0x20\n      add\n      0x02\n      dup3\n      add\n      sload\n      dup2\n      mstore\n      0x20\n      add\n      0x03\n      dup3\n      add\n      sload\n      dup2\n      mstore\n      pop\n      pop\n      swap1\n      pop\n        /* \"contracts/EvolveStorage.sol\":4971:4986  competionPreset */\n      dup1\n        /* \"contracts/EvolveStorage.sol\":4971:4997  competionPreset.matchPrice */\n      0x00\n      add\n      mload\n        /* \"contracts/EvolveStorage.sol\":4957:4997  presetPrice = competionPreset.matchPrice */\n      swap8\n      pop\n        /* \"contracts/EvolveStorage.sol\":5021:5036  competionPreset */\n      dup1\n        /* \"contracts/EvolveStorage.sol\":5021:5055  competionPreset.numberOfTeamMemebr */\n      0x20\n      add\n      mload\n        /* \"contracts/EvolveStorage.sol\":5007:5055  playerCount = competionPreset.numberOfTeamMemebr */\n      swap7\n      pop\n        /* \"contracts/EvolveStorage.sol\":5074:5087  competionList */\n      0x05\n        /* \"contracts/EvolveStorage.sol\":5074:5101  competionList[_competionId] */\n      0x00\n        /* \"contracts/EvolveStorage.sol\":5088:5100  _competionId */\n      dup11\n        /* \"contracts/EvolveStorage.sol\":5074:5101  competionList[_competionId] */\n      dup2\n      mstore\n      0x20\n      add\n      swap1\n      dup2\n      mstore\n      0x20\n      add\n      0x00\n      keccak256\n        /* \"contracts/EvolveStorage.sol\":5074:5107  competionList[_competionId].teamA */\n      0x04\n      add\n        /* \"contracts/EvolveStorage.sol\":5065:5107  _teamA = competionList[_competionId].teamA */\n      dup1\n      sload\n      dup1\n      0x20\n      mul\n      0x20\n      add\n      mload(0x40)\n      swap1\n      dup2\n      add\n      0x40\n      mstore\n      dup1\n      swap3\n      swap2\n      swap1\n      dup2\n      dup2\n      mstore\n      0x20\n      add\n      dup3\n      dup1\n      sload\n      dup1\n      iszero\n      tag_208\n      jumpi\n      0x20\n      mul\n      dup3\n      add\n      swap2\n      swap1\n      0x00\n      mstore\n      keccak256(0x00, 0x20)\n      swap1\n    tag_209:\n      dup2\n      0x00\n      swap1\n      sload\n      swap1\n      0x0100\n      exp\n      swap1\n      div\n      0xffffffffffffffffffffffffffffffffffffffff\n      and\n      0xffffffffffffffffffffffffffffffffffffffff\n      and\n      dup2\n      mstore\n      0x20\n      add\n      swap1\n      0x01\n      add\n      swap1\n      dup1\n      dup4\n      gt\n      tag_209\n      jumpi\n    tag_208:\n      pop\n      pop\n      pop\n      pop\n      pop\n      swap6\n      pop\n        /* \"contracts/EvolveStorage.sol\":5126:5139  competionList */\n      0x05\n        /* \"contracts/EvolveStorage.sol\":5126:5153  competionList[_competionId] */\n      0x00\n        /* \"contracts/EvolveStorage.sol\":5140:5152  _competionId */\n      dup11\n        /* \"contracts/EvolveStorage.sol\":5126:5153  competionList[_competionId] */\n      dup2\n      mstore\n      0x20\n      add\n      swap1\n      dup2\n      mstore\n      0x20\n      add\n      0x00\n      keccak256\n        /* \"contracts/EvolveStorage.sol\":5126:5159  competionList[_competionId].teamB */\n      0x05\n      add\n        /* \"contracts/EvolveStorage.sol\":5117:5159  _teamB = competionList[_competionId].teamB */\n      dup1\n      sload\n      dup1\n      0x20\n      mul\n      0x20\n      add\n      mload(0x40)\n      swap1\n      dup2\n      add\n      0x40\n      mstore\n      dup1\n      swap3\n      swap2\n      swap1\n      dup2\n      dup2\n      mstore\n      0x20\n      add\n      dup3\n      dup1\n      sload\n      dup1\n      iszero\n      tag_210\n      jumpi\n      0x20\n      mul\n      dup3\n      add\n      swap2\n      swap1\n      0x00\n      mstore\n      keccak256(0x00, 0x20)\n      swap1\n    tag_211:\n      dup2\n      0x00\n      swap1\n      sload\n      swap1\n      0x0100\n      exp\n      swap1\n      div\n      0xffffffffffffffffffffffffffffffffffffffff\n      and\n      0xffffffffffffffffffffffffffffffffffffffff\n      and\n      dup2\n      mstore\n      0x20\n      add\n      swap1\n      0x01\n      add\n      swap1\n      dup1\n      dup4\n      gt\n      tag_211\n      jumpi\n    tag_210:\n      pop\n      pop\n      pop\n      pop\n      pop\n      swap5\n      pop\n        /* \"contracts/EvolveStorage.sol\":5193:5206  competionList */\n      0x05\n        /* \"contracts/EvolveStorage.sol\":5193:5220  competionList[_competionId] */\n      0x00\n        /* \"contracts/EvolveStorage.sol\":5207:5219  _competionId */\n      dup11\n        /* \"contracts/EvolveStorage.sol\":5193:5220  competionList[_competionId] */\n      dup2\n      mstore\n      0x20\n      add\n      swap1\n      dup2\n      mstore\n      0x20\n      add\n      0x00\n      keccak256\n        /* \"contracts/EvolveStorage.sol\":5193:5227  competionList[_competionId].status */\n      0x06\n      add\n      0x00\n      swap1\n      sload\n      swap1\n      0x0100\n      exp\n      swap1\n      div\n      0xff\n      and\n        /* \"contracts/EvolveStorage.sol\":5188:5228  uint(competionList[_competionId].status) */\n      0x02\n      dup2\n      gt\n      iszero\n      tag_212\n      jumpi\n      tag_213\n      tag_110\n      jump\t// in\n    tag_213:\n    tag_212:\n        /* \"contracts/EvolveStorage.sol\":5169:5228  _competionStatus = uint(competionList[_competionId].status) */\n      swap4\n      pop\n        /* \"contracts/EvolveStorage.sol\":5262:5275  competionList */\n      0x05\n        /* \"contracts/EvolveStorage.sol\":5262:5289  competionList[_competionId] */\n      0x00\n        /* \"contracts/EvolveStorage.sol\":5276:5288  _competionId */\n      dup11\n        /* \"contracts/EvolveStorage.sol\":5262:5289  competionList[_competionId] */\n      dup2\n      mstore\n      0x20\n      add\n      swap1\n      dup2\n      mstore\n      0x20\n      add\n      0x00\n      keccak256\n        /* \"contracts/EvolveStorage.sol\":5262:5297  competionList[_competionId].winners */\n      0x06\n      add\n      0x01\n      swap1\n      sload\n      swap1\n      0x0100\n      exp\n      swap1\n      div\n      0xff\n      and\n        /* \"contracts/EvolveStorage.sol\":5257:5298  uint(competionList[_competionId].winners) */\n      0x03\n      dup2\n      gt\n      iszero\n      tag_214\n      jumpi\n      tag_215\n      tag_110\n      jump\t// in\n    tag_215:\n    tag_214:\n        /* \"contracts/EvolveStorage.sol\":5238:5298  _competionWinner = uint(competionList[_competionId].winners) */\n      swap3\n      pop\n        /* \"contracts/EvolveStorage.sol\":5321:5334  competionList */\n      0x05\n        /* \"contracts/EvolveStorage.sol\":5321:5348  competionList[_competionId] */\n      0x00\n        /* \"contracts/EvolveStorage.sol\":5335:5347  _competionId */\n      dup11\n        /* \"contracts/EvolveStorage.sol\":5321:5348  competionList[_competionId] */\n      dup2\n      mstore\n      0x20\n      add\n      swap1\n      dup2\n      mstore\n      0x20\n      add\n      0x00\n      keccak256\n        /* \"contracts/EvolveStorage.sol\":5321:5358  competionList[_competionId].priceRate */\n      0x07\n      add\n      sload\n        /* \"contracts/EvolveStorage.sol\":5308:5358  _priceRate = competionList[_competionId].priceRate */\n      swap2\n      pop\n        /* \"contracts/EvolveStorage.sol\":4871:5365  {... */\n      pop\n        /* \"contracts/EvolveStorage.sol\":4632:5365  function getCompetion(uint256 _competionId) external view override ... */\n      swap2\n      swap4\n      swap6\n      swap8\n      swap1\n      swap3\n      swap5\n      swap7\n      pop\n      jump\t// out\n        /* \"contracts/EvolveStorage.sol\":478:510  uint256 public startPresetId = 0 */\n    tag_81:\n      sload(0x03)\n      dup2\n      jump\t// out\n        /* \"@openzeppelin/contracts/access/Ownable.sol\":1918:2116  function transferOwnership(address newOwner) public virtual onlyOwner {... */\n    tag_85:\n        /* \"@openzeppelin/contracts/access/Ownable.sol\":1259:1271  _msgSender() */\n      tag_217\n        /* \"@openzeppelin/contracts/access/Ownable.sol\":1259:1269  _msgSender */\n      tag_88\n        /* \"@openzeppelin/contracts/access/Ownable.sol\":1259:1271  _msgSender() */\n      jump\t// in\n    tag_217:\n        /* \"@openzeppelin/contracts/access/Ownable.sol\":1248:1271  owner() == _msgSender() */\n      0xffffffffffffffffffffffffffffffffffffffff\n      and\n        /* \"@openzeppelin/contracts/access/Ownable.sol\":1248:1255  owner() */\n      tag_218\n        /* \"@openzeppelin/contracts/access/Ownable.sol\":1248:1253  owner */\n      tag_60\n        /* \"@openzeppelin/contracts/access/Ownable.sol\":1248:1255  owner() */\n      jump\t// in\n    tag_218:\n        /* \"@openzeppelin/contracts/access/Ownable.sol\":1248:1271  owner() == _msgSender() */\n      0xffffffffffffffffffffffffffffffffffffffff\n      and\n      eq\n        /* \"@openzeppelin/contracts/access/Ownable.sol\":1240:1308  require(owner() == _msgSender(), \"Ownable: caller is not the owner\") */\n      tag_219\n      jumpi\n      mload(0x40)\n      0x08c379a000000000000000000000000000000000000000000000000000000000\n      dup2\n      mstore\n      0x04\n      add\n      tag_220\n      swap1\n      tag_124\n      jump\t// in\n    tag_220:\n      mload(0x40)\n      dup1\n      swap2\n      sub\n      swap1\n      revert\n    tag_219:\n        /* \"@openzeppelin/contracts/access/Ownable.sol\":2026:2027  0 */\n      0x00\n        /* \"@openzeppelin/contracts/access/Ownable.sol\":2006:2028  newOwner != address(0) */\n      0xffffffffffffffffffffffffffffffffffffffff\n      and\n        /* \"@openzeppelin/contracts/access/Ownable.sol\":2006:2014  newOwner */\n      dup2\n        /* \"@openzeppelin/contracts/access/Ownable.sol\":2006:2028  newOwner != address(0) */\n      0xffffffffffffffffffffffffffffffffffffffff\n      and\n      eq\n      iszero\n        /* \"@openzeppelin/contracts/access/Ownable.sol\":1998:2071  require(newOwner != address(0), \"Ownable: new owner is the zero address\") */\n      tag_222\n      jumpi\n      mload(0x40)\n      0x08c379a000000000000000000000000000000000000000000000000000000000\n      dup2\n      mstore\n      0x04\n      add\n      tag_223\n      swap1\n      tag_224\n      jump\t// in\n    tag_223:\n      mload(0x40)\n      dup1\n      swap2\n      sub\n      swap1\n      revert\n    tag_222:\n        /* \"@openzeppelin/contracts/access/Ownable.sol\":2081:2109  _transferOwnership(newOwner) */\n      tag_225\n        /* \"@openzeppelin/contracts/access/Ownable.sol\":2100:2108  newOwner */\n      dup2\n        /* \"@openzeppelin/contracts/access/Ownable.sol\":2081:2099  _transferOwnership */\n      tag_133\n        /* \"@openzeppelin/contracts/access/Ownable.sol\":2081:2109  _transferOwnership(newOwner) */\n      jump\t// in\n    tag_225:\n        /* \"@openzeppelin/contracts/access/Ownable.sol\":1918:2116  function transferOwnership(address newOwner) public virtual onlyOwner {... */\n      pop\n      jump\t// out\n        /* \"@openzeppelin/contracts/utils/Context.sol\":640:736  function _msgSender() internal view virtual returns (address) {... */\n    tag_88:\n        /* \"@openzeppelin/contracts/utils/Context.sol\":693:700  address */\n      0x00\n        /* \"@openzeppelin/contracts/utils/Context.sol\":719:729  msg.sender */\n      caller\n        /* \"@openzeppelin/contracts/utils/Context.sol\":712:729  return msg.sender */\n      swap1\n      pop\n        /* \"@openzeppelin/contracts/utils/Context.sol\":640:736  function _msgSender() internal view virtual returns (address) {... */\n      swap1\n      jump\t// out\n        /* \"contracts/EvolveStorage.sol\":5394:5579  function isExistsCompetionList(uint key) internal view returns (bool) {... */\n    tag_99:\n        /* \"contracts/EvolveStorage.sol\":5458:5462  bool */\n      0x00\n        /* \"contracts/EvolveStorage.sol\":5512:5513  0 */\n      dup1\n        /* \"contracts/EvolveStorage.sol\":5477:5490  competionList */\n      0x05\n        /* \"contracts/EvolveStorage.sol\":5477:5495  competionList[key] */\n      0x00\n        /* \"contracts/EvolveStorage.sol\":5491:5494  key */\n      dup5\n        /* \"contracts/EvolveStorage.sol\":5477:5495  competionList[key] */\n      dup2\n      mstore\n      0x20\n      add\n      swap1\n      dup2\n      mstore\n      0x20\n      add\n      0x00\n      keccak256\n        /* \"contracts/EvolveStorage.sol\":5477:5501  competionList[key].teamA */\n      0x04\n      add\n        /* \"contracts/EvolveStorage.sol\":5477:5508  competionList[key].teamA.length */\n      dup1\n      sload\n      swap1\n      pop\n        /* \"contracts/EvolveStorage.sol\":5477:5513  competionList[key].teamA.length != 0 */\n      eq\n        /* \"contracts/EvolveStorage.sol\":5474:5550  if(competionList[key].teamA.length != 0){... */\n      tag_228\n      jumpi\n        /* \"contracts/EvolveStorage.sol\":5535:5539  true */\n      0x01\n        /* \"contracts/EvolveStorage.sol\":5528:5539  return true */\n      swap1\n      pop\n      jump(tag_227)\n        /* \"contracts/EvolveStorage.sol\":5474:5550  if(competionList[key].teamA.length != 0){... */\n    tag_228:\n        /* \"contracts/EvolveStorage.sol\":5567:5572  false */\n      0x00\n        /* \"contracts/EvolveStorage.sol\":5560:5572  return false */\n      swap1\n      pop\n        /* \"contracts/EvolveStorage.sol\":5394:5579  function isExistsCompetionList(uint key) internal view returns (bool) {... */\n    tag_227:\n      swap2\n      swap1\n      pop\n      jump\t// out\n        /* \"@openzeppelin/contracts/access/Ownable.sol\":2270:2457  function _transferOwnership(address newOwner) internal virtual {... */\n    tag_133:\n        /* \"@openzeppelin/contracts/access/Ownable.sol\":2343:2359  address oldOwner */\n      0x00\n        /* \"@openzeppelin/contracts/access/Ownable.sol\":2362:2368  _owner */\n      dup1\n      0x00\n      swap1\n      sload\n      swap1\n      0x0100\n      exp\n      swap1\n      div\n      0xffffffffffffffffffffffffffffffffffffffff\n      and\n        /* \"@openzeppelin/contracts/access/Ownable.sol\":2343:2368  address oldOwner = _owner */\n      swap1\n      pop\n        /* \"@openzeppelin/contracts/access/Ownable.sol\":2387:2395  newOwner */\n      dup2\n        /* \"@openzeppelin/contracts/access/Ownable.sol\":2378:2384  _owner */\n      0x00\n      dup1\n        /* \"@openzeppelin/contracts/access/Ownable.sol\":2378:2395  _owner = newOwner */\n      0x0100\n      exp\n      dup2\n      sload\n      dup2\n      0xffffffffffffffffffffffffffffffffffffffff\n      mul\n      not\n      and\n      swap1\n      dup4\n      0xffffffffffffffffffffffffffffffffffffffff\n      and\n      mul\n      or\n      swap1\n      sstore\n      pop\n        /* \"@openzeppelin/contracts/access/Ownable.sol\":2441:2449  newOwner */\n      dup2\n        /* \"@openzeppelin/contracts/access/Ownable.sol\":2410:2450  OwnershipTransferred(oldOwner, newOwner) */\n      0xffffffffffffffffffffffffffffffffffffffff\n      and\n        /* \"@openzeppelin/contracts/access/Ownable.sol\":2431:2439  oldOwner */\n      dup2\n        /* \"@openzeppelin/contracts/access/Ownable.sol\":2410:2450  OwnershipTransferred(oldOwner, newOwner) */\n      0xffffffffffffffffffffffffffffffffffffffff\n      and\n      0x8be0079c531659141344cd1fd0a4f28419497f9722a3daafe3b4186f6b6457e0\n      mload(0x40)\n      mload(0x40)\n      dup1\n      swap2\n      sub\n      swap1\n      log3\n        /* \"@openzeppelin/contracts/access/Ownable.sol\":2333:2457  {... */\n      pop\n        /* \"@openzeppelin/contracts/access/Ownable.sol\":2270:2457  function _transferOwnership(address newOwner) internal virtual {... */\n      pop\n      jump\t// out\n        /* \"contracts/EvolveStorage.sol\":5585:5759  function isExistsPresetList(uint256 key) internal view returns (bool) {... */\n    tag_157:\n        /* \"contracts/EvolveStorage.sol\":5649:5653  bool */\n      0x00\n        /* \"contracts/EvolveStorage.sol\":5692:5693  0 */\n      dup1\n        /* \"contracts/EvolveStorage.sol\":5668:5678  presetList */\n      0x04\n        /* \"contracts/EvolveStorage.sol\":5668:5683  presetList[key] */\n      0x00\n        /* \"contracts/EvolveStorage.sol\":5679:5682  key */\n      dup5\n        /* \"contracts/EvolveStorage.sol\":5668:5683  presetList[key] */\n      dup2\n      mstore\n      0x20\n      add\n      swap1\n      dup2\n      mstore\n      0x20\n      add\n      0x00\n      keccak256\n        /* \"contracts/EvolveStorage.sol\":5668:5688  presetList[key].date */\n      0x02\n      add\n      sload\n        /* \"contracts/EvolveStorage.sol\":5668:5693  presetList[key].date != 0 */\n      eq\n        /* \"contracts/EvolveStorage.sol\":5665:5730  if(presetList[key].date != 0){... */\n      tag_231\n      jumpi\n        /* \"contracts/EvolveStorage.sol\":5715:5719  true */\n      0x01\n        /* \"contracts/EvolveStorage.sol\":5708:5719  return true */\n      swap1\n      pop\n      jump(tag_230)\n        /* \"contracts/EvolveStorage.sol\":5665:5730  if(presetList[key].date != 0){... */\n    tag_231:\n        /* \"contracts/EvolveStorage.sol\":5747:5752  false */\n      0x00\n        /* \"contracts/EvolveStorage.sol\":5740:5752  return false */\n      swap1\n      pop\n        /* \"contracts/EvolveStorage.sol\":5585:5759  function isExistsPresetList(uint256 key) internal view returns (bool) {... */\n    tag_230:\n      swap2\n      swap1\n      pop\n      jump\t// out\n    tag_166:\n      dup3\n      dup1\n      sload\n      dup3\n      dup3\n      sstore\n      swap1\n      0x00\n      mstore\n      keccak256(0x00, 0x20)\n      swap1\n      dup2\n      add\n      swap3\n      dup3\n      iszero\n      tag_232\n      jumpi\n      swap2\n      0x20\n      mul\n      dup3\n      add\n    tag_233:\n      dup3\n      dup2\n      gt\n      iszero\n      tag_234\n      jumpi\n      dup3\n      mload\n      dup3\n      exp(0x0100, 0x00)\n      dup2\n      sload\n      dup2\n      0xffffffffffffffffffffffffffffffffffffffff\n      mul\n      not\n      and\n      swap1\n      dup4\n      0xffffffffffffffffffffffffffffffffffffffff\n      and\n      mul\n      or\n      swap1\n      sstore\n      pop\n      swap2\n      0x20\n      add\n      swap2\n      swap1\n      0x01\n      add\n      swap1\n      jump(tag_233)\n    tag_234:\n    tag_232:\n      pop\n      swap1\n      pop\n      tag_235\n      swap2\n      swap1\n      tag_236\n      jump\t// in\n    tag_235:\n      pop\n      swap1\n      jump\t// out\n    tag_236:\n    tag_237:\n      dup1\n      dup3\n      gt\n      iszero\n      tag_238\n      jumpi\n      0x00\n      dup2\n      0x00\n      swap1\n      sstore\n      pop\n      0x01\n      add\n      jump(tag_237)\n    tag_238:\n      pop\n      swap1\n      jump\t// out\n        /* \"#utility.yul\":88:205   */\n    tag_240:\n        /* \"#utility.yul\":197:198   */\n      0x00\n        /* \"#utility.yul\":194:195   */\n      dup1\n        /* \"#utility.yul\":187:199   */\n      revert\n        /* \"#utility.yul\":211:328   */\n    tag_241:\n        /* \"#utility.yul\":320:321   */\n      0x00\n        /* \"#utility.yul\":317:318   */\n      dup1\n        /* \"#utility.yul\":310:322   */\n      revert\n        /* \"#utility.yul\":334:411   */\n    tag_242:\n        /* \"#utility.yul\":371:378   */\n      0x00\n        /* \"#utility.yul\":400:405   */\n      dup2\n        /* \"#utility.yul\":389:405   */\n      swap1\n      pop\n        /* \"#utility.yul\":334:411   */\n      swap2\n      swap1\n      pop\n      jump\t// out\n        /* \"#utility.yul\":417:539   */\n    tag_243:\n        /* \"#utility.yul\":490:514   */\n      tag_299\n        /* \"#utility.yul\":508:513   */\n      dup2\n        /* \"#utility.yul\":490:514   */\n      tag_242\n      jump\t// in\n    tag_299:\n        /* \"#utility.yul\":483:488   */\n      dup2\n        /* \"#utility.yul\":480:515   */\n      eq\n        /* \"#utility.yul\":470:533   */\n      tag_300\n      jumpi\n        /* \"#utility.yul\":529:530   */\n      0x00\n        /* \"#utility.yul\":526:527   */\n      dup1\n        /* \"#utility.yul\":519:531   */\n      revert\n        /* \"#utility.yul\":470:533   */\n    tag_300:\n        /* \"#utility.yul\":417:539   */\n      pop\n      jump\t// out\n        /* \"#utility.yul\":545:684   */\n    tag_244:\n        /* \"#utility.yul\":591:596   */\n      0x00\n        /* \"#utility.yul\":629:635   */\n      dup2\n        /* \"#utility.yul\":616:636   */\n      calldataload\n        /* \"#utility.yul\":607:636   */\n      swap1\n      pop\n        /* \"#utility.yul\":645:678   */\n      tag_302\n        /* \"#utility.yul\":672:677   */\n      dup2\n        /* \"#utility.yul\":645:678   */\n      tag_243\n      jump\t// in\n    tag_302:\n        /* \"#utility.yul\":545:684   */\n      swap3\n      swap2\n      pop\n      pop\n      jump\t// out\n        /* \"#utility.yul\":690:776   */\n    tag_245:\n        /* \"#utility.yul\":725:732   */\n      0x00\n        /* \"#utility.yul\":765:769   */\n      0xff\n        /* \"#utility.yul\":758:763   */\n      dup3\n        /* \"#utility.yul\":754:770   */\n      and\n        /* \"#utility.yul\":743:770   */\n      swap1\n      pop\n        /* \"#utility.yul\":690:776   */\n      swap2\n      swap1\n      pop\n      jump\t// out\n        /* \"#utility.yul\":782:900   */\n    tag_246:\n        /* \"#utility.yul\":853:875   */\n      tag_305\n        /* \"#utility.yul\":869:874   */\n      dup2\n        /* \"#utility.yul\":853:875   */\n      tag_245\n      jump\t// in\n    tag_305:\n        /* \"#utility.yul\":846:851   */\n      dup2\n        /* \"#utility.yul\":843:876   */\n      eq\n        /* \"#utility.yul\":833:894   */\n      tag_306\n      jumpi\n        /* \"#utility.yul\":890:891   */\n      0x00\n        /* \"#utility.yul\":887:888   */\n      dup1\n        /* \"#utility.yul\":880:892   */\n      revert\n        /* \"#utility.yul\":833:894   */\n    tag_306:\n        /* \"#utility.yul\":782:900   */\n      pop\n      jump\t// out\n        /* \"#utility.yul\":906:1041   */\n    tag_247:\n        /* \"#utility.yul\":950:955   */\n      0x00\n        /* \"#utility.yul\":988:994   */\n      dup2\n        /* \"#utility.yul\":975:995   */\n      calldataload\n        /* \"#utility.yul\":966:995   */\n      swap1\n      pop\n        /* \"#utility.yul\":1004:1035   */\n      tag_308\n        /* \"#utility.yul\":1029:1034   */\n      dup2\n        /* \"#utility.yul\":1004:1035   */\n      tag_246\n      jump\t// in\n    tag_308:\n        /* \"#utility.yul\":906:1041   */\n      swap3\n      swap2\n      pop\n      pop\n      jump\t// out\n        /* \"#utility.yul\":1047:1517   */\n    tag_23:\n        /* \"#utility.yul\":1113:1119   */\n      0x00\n        /* \"#utility.yul\":1121:1127   */\n      dup1\n        /* \"#utility.yul\":1170:1172   */\n      0x40\n        /* \"#utility.yul\":1158:1167   */\n      dup4\n        /* \"#utility.yul\":1149:1156   */\n      dup6\n        /* \"#utility.yul\":1145:1168   */\n      sub\n        /* \"#utility.yul\":1141:1173   */\n      slt\n        /* \"#utility.yul\":1138:1257   */\n      iszero\n      tag_310\n      jumpi\n        /* \"#utility.yul\":1176:1255   */\n      tag_311\n      tag_240\n      jump\t// in\n    tag_311:\n        /* \"#utility.yul\":1138:1257   */\n    tag_310:\n        /* \"#utility.yul\":1296:1297   */\n      0x00\n        /* \"#utility.yul\":1321:1374   */\n      tag_312\n        /* \"#utility.yul\":1366:1373   */\n      dup6\n        /* \"#utility.yul\":1357:1363   */\n      dup3\n        /* \"#utility.yul\":1346:1355   */\n      dup7\n        /* \"#utility.yul\":1342:1364   */\n      add\n        /* \"#utility.yul\":1321:1374   */\n      tag_244\n      jump\t// in\n    tag_312:\n        /* \"#utility.yul\":1311:1374   */\n      swap3\n      pop\n        /* \"#utility.yul\":1267:1384   */\n      pop\n        /* \"#utility.yul\":1423:1425   */\n      0x20\n        /* \"#utility.yul\":1449:1500   */\n      tag_313\n        /* \"#utility.yul\":1492:1499   */\n      dup6\n        /* \"#utility.yul\":1483:1489   */\n      dup3\n        /* \"#utility.yul\":1472:1481   */\n      dup7\n        /* \"#utility.yul\":1468:1490   */\n      add\n        /* \"#utility.yul\":1449:1500   */\n      tag_247\n      jump\t// in\n    tag_313:\n        /* \"#utility.yul\":1439:1500   */\n      swap2\n      pop\n        /* \"#utility.yul\":1394:1510   */\n      pop\n        /* \"#utility.yul\":1047:1517   */\n      swap3\n      pop\n      swap3\n      swap1\n      pop\n      jump\t// out\n        /* \"#utility.yul\":1523:1613   */\n    tag_248:\n        /* \"#utility.yul\":1557:1564   */\n      0x00\n        /* \"#utility.yul\":1600:1605   */\n      dup2\n        /* \"#utility.yul\":1593:1606   */\n      iszero\n        /* \"#utility.yul\":1586:1607   */\n      iszero\n        /* \"#utility.yul\":1575:1607   */\n      swap1\n      pop\n        /* \"#utility.yul\":1523:1613   */\n      swap2\n      swap1\n      pop\n      jump\t// out\n        /* \"#utility.yul\":1619:1728   */\n    tag_249:\n        /* \"#utility.yul\":1700:1721   */\n      tag_316\n        /* \"#utility.yul\":1715:1720   */\n      dup2\n        /* \"#utility.yul\":1700:1721   */\n      tag_248\n      jump\t// in\n    tag_316:\n        /* \"#utility.yul\":1695:1698   */\n      dup3\n        /* \"#utility.yul\":1688:1722   */\n      mstore\n        /* \"#utility.yul\":1619:1728   */\n      pop\n      pop\n      jump\t// out\n        /* \"#utility.yul\":1734:1944   */\n    tag_26:\n        /* \"#utility.yul\":1821:1825   */\n      0x00\n        /* \"#utility.yul\":1859:1861   */\n      0x20\n        /* \"#utility.yul\":1848:1857   */\n      dup3\n        /* \"#utility.yul\":1844:1862   */\n      add\n        /* \"#utility.yul\":1836:1862   */\n      swap1\n      pop\n        /* \"#utility.yul\":1872:1937   */\n      tag_318\n        /* \"#utility.yul\":1934:1935   */\n      0x00\n        /* \"#utility.yul\":1923:1932   */\n      dup4\n        /* \"#utility.yul\":1919:1936   */\n      add\n        /* \"#utility.yul\":1910:1916   */\n      dup5\n        /* \"#utility.yul\":1872:1937   */\n      tag_249\n      jump\t// in\n    tag_318:\n        /* \"#utility.yul\":1734:1944   */\n      swap3\n      swap2\n      pop\n      pop\n      jump\t// out\n        /* \"#utility.yul\":1950:2279   */\n    tag_29:\n        /* \"#utility.yul\":2009:2015   */\n      0x00\n        /* \"#utility.yul\":2058:2060   */\n      0x20\n        /* \"#utility.yul\":2046:2055   */\n      dup3\n        /* \"#utility.yul\":2037:2044   */\n      dup5\n        /* \"#utility.yul\":2033:2056   */\n      sub\n        /* \"#utility.yul\":2029:2061   */\n      slt\n        /* \"#utility.yul\":2026:2145   */\n      iszero\n      tag_320\n      jumpi\n        /* \"#utility.yul\":2064:2143   */\n      tag_321\n      tag_240\n      jump\t// in\n    tag_321:\n        /* \"#utility.yul\":2026:2145   */\n    tag_320:\n        /* \"#utility.yul\":2184:2185   */\n      0x00\n        /* \"#utility.yul\":2209:2262   */\n      tag_322\n        /* \"#utility.yul\":2254:2261   */\n      dup5\n        /* \"#utility.yul\":2245:2251   */\n      dup3\n        /* \"#utility.yul\":2234:2243   */\n      dup6\n        /* \"#utility.yul\":2230:2252   */\n      add\n        /* \"#utility.yul\":2209:2262   */\n      tag_244\n      jump\t// in\n    tag_322:\n        /* \"#utility.yul\":2199:2262   */\n      swap2\n      pop\n        /* \"#utility.yul\":2155:2272   */\n      pop\n        /* \"#utility.yul\":1950:2279   */\n      swap3\n      swap2\n      pop\n      pop\n      jump\t// out\n        /* \"#utility.yul\":2285:2403   */\n    tag_250:\n        /* \"#utility.yul\":2372:2396   */\n      tag_324\n        /* \"#utility.yul\":2390:2395   */\n      dup2\n        /* \"#utility.yul\":2372:2396   */\n      tag_242\n      jump\t// in\n    tag_324:\n        /* \"#utility.yul\":2367:2370   */\n      dup3\n        /* \"#utility.yul\":2360:2397   */\n      mstore\n        /* \"#utility.yul\":2285:2403   */\n      pop\n      pop\n      jump\t// out\n        /* \"#utility.yul\":2409:2962   */\n    tag_32:\n        /* \"#utility.yul\":2586:2590   */\n      0x00\n        /* \"#utility.yul\":2624:2627   */\n      0x80\n        /* \"#utility.yul\":2613:2622   */\n      dup3\n        /* \"#utility.yul\":2609:2628   */\n      add\n        /* \"#utility.yul\":2601:2628   */\n      swap1\n      pop\n        /* \"#utility.yul\":2638:2709   */\n      tag_326\n        /* \"#utility.yul\":2706:2707   */\n      0x00\n        /* \"#utility.yul\":2695:2704   */\n      dup4\n        /* \"#utility.yul\":2691:2708   */\n      add\n        /* \"#utility.yul\":2682:2688   */\n      dup8\n        /* \"#utility.yul\":2638:2709   */\n      tag_250\n      jump\t// in\n    tag_326:\n        /* \"#utility.yul\":2719:2791   */\n      tag_327\n        /* \"#utility.yul\":2787:2789   */\n      0x20\n        /* \"#utility.yul\":2776:2785   */\n      dup4\n        /* \"#utility.yul\":2772:2790   */\n      add\n        /* \"#utility.yul\":2763:2769   */\n      dup7\n        /* \"#utility.yul\":2719:2791   */\n      tag_250\n      jump\t// in\n    tag_327:\n        /* \"#utility.yul\":2801:2873   */\n      tag_328\n        /* \"#utility.yul\":2869:2871   */\n      0x40\n        /* \"#utility.yul\":2858:2867   */\n      dup4\n        /* \"#utility.yul\":2854:2872   */\n      add\n        /* \"#utility.yul\":2845:2851   */\n      dup6\n        /* \"#utility.yul\":2801:2873   */\n      tag_250\n      jump\t// in\n    tag_328:\n        /* \"#utility.yul\":2883:2955   */\n      tag_329\n        /* \"#utility.yul\":2951:2953   */\n      0x60\n        /* \"#utility.yul\":2940:2949   */\n      dup4\n        /* \"#utility.yul\":2936:2954   */\n      add\n        /* \"#utility.yul\":2927:2933   */\n      dup5\n        /* \"#utility.yul\":2883:2955   */\n      tag_250\n      jump\t// in\n    tag_329:\n        /* \"#utility.yul\":2409:2962   */\n      swap6\n      swap5\n      pop\n      pop\n      pop\n      pop\n      pop\n      jump\t// out\n        /* \"#utility.yul\":2968:3094   */\n    tag_251:\n        /* \"#utility.yul\":3005:3012   */\n      0x00\n        /* \"#utility.yul\":3045:3087   */\n      0xffffffffffffffffffffffffffffffffffffffff\n        /* \"#utility.yul\":3038:3043   */\n      dup3\n        /* \"#utility.yul\":3034:3088   */\n      and\n        /* \"#utility.yul\":3023:3088   */\n      swap1\n      pop\n        /* \"#utility.yul\":2968:3094   */\n      swap2\n      swap1\n      pop\n      jump\t// out\n        /* \"#utility.yul\":3100:3196   */\n    tag_252:\n        /* \"#utility.yul\":3137:3144   */\n      0x00\n        /* \"#utility.yul\":3166:3190   */\n      tag_332\n        /* \"#utility.yul\":3184:3189   */\n      dup3\n        /* \"#utility.yul\":3166:3190   */\n      tag_251\n      jump\t// in\n    tag_332:\n        /* \"#utility.yul\":3155:3190   */\n      swap1\n      pop\n        /* \"#utility.yul\":3100:3196   */\n      swap2\n      swap1\n      pop\n      jump\t// out\n        /* \"#utility.yul\":3202:3324   */\n    tag_253:\n        /* \"#utility.yul\":3275:3299   */\n      tag_334\n        /* \"#utility.yul\":3293:3298   */\n      dup2\n        /* \"#utility.yul\":3275:3299   */\n      tag_252\n      jump\t// in\n    tag_334:\n        /* \"#utility.yul\":3268:3273   */\n      dup2\n        /* \"#utility.yul\":3265:3300   */\n      eq\n        /* \"#utility.yul\":3255:3318   */\n      tag_335\n      jumpi\n        /* \"#utility.yul\":3314:3315   */\n      0x00\n        /* \"#utility.yul\":3311:3312   */\n      dup1\n        /* \"#utility.yul\":3304:3316   */\n      revert\n        /* \"#utility.yul\":3255:3318   */\n    tag_335:\n        /* \"#utility.yul\":3202:3324   */\n      pop\n      jump\t// out\n        /* \"#utility.yul\":3330:3469   */\n    tag_254:\n        /* \"#utility.yul\":3376:3381   */\n      0x00\n        /* \"#utility.yul\":3414:3420   */\n      dup2\n        /* \"#utility.yul\":3401:3421   */\n      calldataload\n        /* \"#utility.yul\":3392:3421   */\n      swap1\n      pop\n        /* \"#utility.yul\":3430:3463   */\n      tag_337\n        /* \"#utility.yul\":3457:3462   */\n      dup2\n        /* \"#utility.yul\":3430:3463   */\n      tag_253\n      jump\t// in\n    tag_337:\n        /* \"#utility.yul\":3330:3469   */\n      swap3\n      swap2\n      pop\n      pop\n      jump\t// out\n        /* \"#utility.yul\":3475:3804   */\n    tag_35:\n        /* \"#utility.yul\":3534:3540   */\n      0x00\n        /* \"#utility.yul\":3583:3585   */\n      0x20\n        /* \"#utility.yul\":3571:3580   */\n      dup3\n        /* \"#utility.yul\":3562:3569   */\n      dup5\n        /* \"#utility.yul\":3558:3581   */\n      sub\n        /* \"#utility.yul\":3554:3586   */\n      slt\n        /* \"#utility.yul\":3551:3670   */\n      iszero\n      tag_339\n      jumpi\n        /* \"#utility.yul\":3589:3668   */\n      tag_340\n      tag_240\n      jump\t// in\n    tag_340:\n        /* \"#utility.yul\":3551:3670   */\n    tag_339:\n        /* \"#utility.yul\":3709:3710   */\n      0x00\n        /* \"#utility.yul\":3734:3787   */\n      tag_341\n        /* \"#utility.yul\":3779:3786   */\n      dup5\n        /* \"#utility.yul\":3770:3776   */\n      dup3\n        /* \"#utility.yul\":3759:3768   */\n      dup6\n        /* \"#utility.yul\":3755:3777   */\n      add\n        /* \"#utility.yul\":3734:3787   */\n      tag_254\n      jump\t// in\n    tag_341:\n        /* \"#utility.yul\":3724:3787   */\n      swap2\n      pop\n        /* \"#utility.yul\":3680:3797   */\n      pop\n        /* \"#utility.yul\":3475:3804   */\n      swap3\n      swap2\n      pop\n      pop\n      jump\t// out\n        /* \"#utility.yul\":3810:4032   */\n    tag_41:\n        /* \"#utility.yul\":3903:3907   */\n      0x00\n        /* \"#utility.yul\":3941:3943   */\n      0x20\n        /* \"#utility.yul\":3930:3939   */\n      dup3\n        /* \"#utility.yul\":3926:3944   */\n      add\n        /* \"#utility.yul\":3918:3944   */\n      swap1\n      pop\n        /* \"#utility.yul\":3954:4025   */\n      tag_343\n        /* \"#utility.yul\":4022:4023   */\n      0x00\n        /* \"#utility.yul\":4011:4020   */\n      dup4\n        /* \"#utility.yul\":4007:4024   */\n      add\n        /* \"#utility.yul\":3998:4004   */\n      dup5\n        /* \"#utility.yul\":3954:4025   */\n      tag_250\n      jump\t// in\n    tag_343:\n        /* \"#utility.yul\":3810:4032   */\n      swap3\n      swap2\n      pop\n      pop\n      jump\t// out\n        /* \"#utility.yul\":4038:4657   */\n    tag_46:\n        /* \"#utility.yul\":4115:4121   */\n      0x00\n        /* \"#utility.yul\":4123:4129   */\n      dup1\n        /* \"#utility.yul\":4131:4137   */\n      0x00\n        /* \"#utility.yul\":4180:4182   */\n      0x60\n        /* \"#utility.yul\":4168:4177   */\n      dup5\n        /* \"#utility.yul\":4159:4166   */\n      dup7\n        /* \"#utility.yul\":4155:4178   */\n      sub\n        /* \"#utility.yul\":4151:4183   */\n      slt\n        /* \"#utility.yul\":4148:4267   */\n      iszero\n      tag_345\n      jumpi\n        /* \"#utility.yul\":4186:4265   */\n      tag_346\n      tag_240\n      jump\t// in\n    tag_346:\n        /* \"#utility.yul\":4148:4267   */\n    tag_345:\n        /* \"#utility.yul\":4306:4307   */\n      0x00\n        /* \"#utility.yul\":4331:4384   */\n      tag_347\n        /* \"#utility.yul\":4376:4383   */\n      dup7\n        /* \"#utility.yul\":4367:4373   */\n      dup3\n        /* \"#utility.yul\":4356:4365   */\n      dup8\n        /* \"#utility.yul\":4352:4374   */\n      add\n        /* \"#utility.yul\":4331:4384   */\n      tag_244\n      jump\t// in\n    tag_347:\n        /* \"#utility.yul\":4321:4384   */\n      swap4\n      pop\n        /* \"#utility.yul\":4277:4394   */\n      pop\n        /* \"#utility.yul\":4433:4435   */\n      0x20\n        /* \"#utility.yul\":4459:4512   */\n      tag_348\n        /* \"#utility.yul\":4504:4511   */\n      dup7\n        /* \"#utility.yul\":4495:4501   */\n      dup3\n        /* \"#utility.yul\":4484:4493   */\n      dup8\n        /* \"#utility.yul\":4480:4502   */\n      add\n        /* \"#utility.yul\":4459:4512   */\n      tag_244\n      jump\t// in\n    tag_348:\n        /* \"#utility.yul\":4449:4512   */\n      swap3\n      pop\n        /* \"#utility.yul\":4404:4522   */\n      pop\n        /* \"#utility.yul\":4561:4563   */\n      0x40\n        /* \"#utility.yul\":4587:4640   */\n      tag_349\n        /* \"#utility.yul\":4632:4639   */\n      dup7\n        /* \"#utility.yul\":4623:4629   */\n      dup3\n        /* \"#utility.yul\":4612:4621   */\n      dup8\n        /* \"#utility.yul\":4608:4630   */\n      add\n        /* \"#utility.yul\":4587:4640   */\n      tag_244\n      jump\t// in\n    tag_349:\n        /* \"#utility.yul\":4577:4640   */\n      swap2\n      pop\n        /* \"#utility.yul\":4532:4650   */\n      pop\n        /* \"#utility.yul\":4038:4657   */\n      swap3\n      pop\n      swap3\n      pop\n      swap3\n      jump\t// out\n        /* \"#utility.yul\":4663:4771   */\n    tag_255:\n        /* \"#utility.yul\":4740:4764   */\n      tag_351\n        /* \"#utility.yul\":4758:4763   */\n      dup2\n        /* \"#utility.yul\":4740:4764   */\n      tag_242\n      jump\t// in\n    tag_351:\n        /* \"#utility.yul\":4735:4738   */\n      dup3\n        /* \"#utility.yul\":4728:4765   */\n      mstore\n        /* \"#utility.yul\":4663:4771   */\n      pop\n      pop\n      jump\t// out\n        /* \"#utility.yul\":4845:5720   */\n    tag_256:\n        /* \"#utility.yul\":4988:4992   */\n      0x80\n        /* \"#utility.yul\":4983:4986   */\n      dup3\n        /* \"#utility.yul\":4979:4993   */\n      add\n        /* \"#utility.yul\":5081:5085   */\n      0x00\n        /* \"#utility.yul\":5074:5079   */\n      dup3\n        /* \"#utility.yul\":5070:5086   */\n      add\n        /* \"#utility.yul\":5064:5087   */\n      mload\n        /* \"#utility.yul\":5100:5163   */\n      tag_353\n        /* \"#utility.yul\":5157:5161   */\n      0x00\n        /* \"#utility.yul\":5152:5155   */\n      dup6\n        /* \"#utility.yul\":5148:5162   */\n      add\n        /* \"#utility.yul\":5134:5146   */\n      dup3\n        /* \"#utility.yul\":5100:5163   */\n      tag_255\n      jump\t// in\n    tag_353:\n        /* \"#utility.yul\":5003:5173   */\n      pop\n        /* \"#utility.yul\":5269:5273   */\n      0x20\n        /* \"#utility.yul\":5262:5267   */\n      dup3\n        /* \"#utility.yul\":5258:5274   */\n      add\n        /* \"#utility.yul\":5252:5275   */\n      mload\n        /* \"#utility.yul\":5288:5351   */\n      tag_354\n        /* \"#utility.yul\":5345:5349   */\n      0x20\n        /* \"#utility.yul\":5340:5343   */\n      dup6\n        /* \"#utility.yul\":5336:5350   */\n      add\n        /* \"#utility.yul\":5322:5334   */\n      dup3\n        /* \"#utility.yul\":5288:5351   */\n      tag_255\n      jump\t// in\n    tag_354:\n        /* \"#utility.yul\":5183:5361   */\n      pop\n        /* \"#utility.yul\":5443:5447   */\n      0x40\n        /* \"#utility.yul\":5436:5441   */\n      dup3\n        /* \"#utility.yul\":5432:5448   */\n      add\n        /* \"#utility.yul\":5426:5449   */\n      mload\n        /* \"#utility.yul\":5462:5525   */\n      tag_355\n        /* \"#utility.yul\":5519:5523   */\n      0x40\n        /* \"#utility.yul\":5514:5517   */\n      dup6\n        /* \"#utility.yul\":5510:5524   */\n      add\n        /* \"#utility.yul\":5496:5508   */\n      dup3\n        /* \"#utility.yul\":5462:5525   */\n      tag_255\n      jump\t// in\n    tag_355:\n        /* \"#utility.yul\":5371:5535   */\n      pop\n        /* \"#utility.yul\":5621:5625   */\n      0x60\n        /* \"#utility.yul\":5614:5619   */\n      dup3\n        /* \"#utility.yul\":5610:5626   */\n      add\n        /* \"#utility.yul\":5604:5627   */\n      mload\n        /* \"#utility.yul\":5640:5703   */\n      tag_356\n        /* \"#utility.yul\":5697:5701   */\n      0x60\n        /* \"#utility.yul\":5692:5695   */\n      dup6\n        /* \"#utility.yul\":5688:5702   */\n      add\n        /* \"#utility.yul\":5674:5686   */\n      dup3\n        /* \"#utility.yul\":5640:5703   */\n      tag_255\n      jump\t// in\n    tag_356:\n        /* \"#utility.yul\":5545:5713   */\n      pop\n        /* \"#utility.yul\":4957:5720   */\n      pop\n        /* \"#utility.yul\":4845:5720   */\n      pop\n      pop\n      jump\t// out\n        /* \"#utility.yul\":5726:5906   */\n    tag_110:\n        /* \"#utility.yul\":5774:5851   */\n      0x4e487b7100000000000000000000000000000000000000000000000000000000\n        /* \"#utility.yul\":5771:5772   */\n      0x00\n        /* \"#utility.yul\":5764:5852   */\n      mstore\n        /* \"#utility.yul\":5871:5875   */\n      0x21\n        /* \"#utility.yul\":5868:5869   */\n      0x04\n        /* \"#utility.yul\":5861:5876   */\n      mstore\n        /* \"#utility.yul\":5895:5899   */\n      0x24\n        /* \"#utility.yul\":5892:5893   */\n      0x00\n        /* \"#utility.yul\":5885:5900   */\n      revert\n        /* \"#utility.yul\":5912:6036   */\n    tag_257:\n        /* \"#utility.yul\":6004:6005   */\n      0x03\n        /* \"#utility.yul\":5997:6002   */\n      dup2\n        /* \"#utility.yul\":5994:6006   */\n      lt\n        /* \"#utility.yul\":5984:6030   */\n      tag_359\n      jumpi\n        /* \"#utility.yul\":6010:6028   */\n      tag_360\n      tag_110\n      jump\t// in\n    tag_360:\n        /* \"#utility.yul\":5984:6030   */\n    tag_359:\n        /* \"#utility.yul\":5912:6036   */\n      pop\n      jump\t// out\n        /* \"#utility.yul\":6042:6191   */\n    tag_258:\n        /* \"#utility.yul\":6098:6105   */\n      0x00\n        /* \"#utility.yul\":6127:6132   */\n      dup2\n        /* \"#utility.yul\":6116:6132   */\n      swap1\n      pop\n        /* \"#utility.yul\":6133:6185   */\n      tag_362\n        /* \"#utility.yul\":6179:6184   */\n      dup3\n        /* \"#utility.yul\":6133:6185   */\n      tag_257\n      jump\t// in\n    tag_362:\n        /* \"#utility.yul\":6042:6191   */\n      swap2\n      swap1\n      pop\n      jump\t// out\n        /* \"#utility.yul\":6197:6346   */\n    tag_259:\n        /* \"#utility.yul\":6264:6273   */\n      0x00\n        /* \"#utility.yul\":6297:6340   */\n      tag_364\n        /* \"#utility.yul\":6334:6339   */\n      dup3\n        /* \"#utility.yul\":6297:6340   */\n      tag_258\n      jump\t// in\n    tag_364:\n        /* \"#utility.yul\":6284:6340   */\n      swap1\n      pop\n        /* \"#utility.yul\":6197:6346   */\n      swap2\n      swap1\n      pop\n      jump\t// out\n        /* \"#utility.yul\":6352:6517   */\n    tag_260:\n        /* \"#utility.yul\":6456:6510   */\n      tag_366\n        /* \"#utility.yul\":6504:6509   */\n      dup2\n        /* \"#utility.yul\":6456:6510   */\n      tag_259\n      jump\t// in\n    tag_366:\n        /* \"#utility.yul\":6451:6454   */\n      dup3\n        /* \"#utility.yul\":6444:6511   */\n      mstore\n        /* \"#utility.yul\":6352:6517   */\n      pop\n      pop\n      jump\t// out\n        /* \"#utility.yul\":6523:6647   */\n    tag_261:\n        /* \"#utility.yul\":6615:6616   */\n      0x04\n        /* \"#utility.yul\":6608:6613   */\n      dup2\n        /* \"#utility.yul\":6605:6617   */\n      lt\n        /* \"#utility.yul\":6595:6641   */\n      tag_368\n      jumpi\n        /* \"#utility.yul\":6621:6639   */\n      tag_369\n      tag_110\n      jump\t// in\n    tag_369:\n        /* \"#utility.yul\":6595:6641   */\n    tag_368:\n        /* \"#utility.yul\":6523:6647   */\n      pop\n      jump\t// out\n        /* \"#utility.yul\":6653:6802   */\n    tag_262:\n        /* \"#utility.yul\":6709:6716   */\n      0x00\n        /* \"#utility.yul\":6738:6743   */\n      dup2\n        /* \"#utility.yul\":6727:6743   */\n      swap1\n      pop\n        /* \"#utility.yul\":6744:6796   */\n      tag_371\n        /* \"#utility.yul\":6790:6795   */\n      dup3\n        /* \"#utility.yul\":6744:6796   */\n      tag_261\n      jump\t// in\n    tag_371:\n        /* \"#utility.yul\":6653:6802   */\n      swap2\n      swap1\n      pop\n      jump\t// out\n        /* \"#utility.yul\":6808:6957   */\n    tag_263:\n        /* \"#utility.yul\":6875:6884   */\n      0x00\n        /* \"#utility.yul\":6908:6951   */\n      tag_373\n        /* \"#utility.yul\":6945:6950   */\n      dup3\n        /* \"#utility.yul\":6908:6951   */\n      tag_262\n      jump\t// in\n    tag_373:\n        /* \"#utility.yul\":6895:6951   */\n      swap1\n      pop\n        /* \"#utility.yul\":6808:6957   */\n      swap2\n      swap1\n      pop\n      jump\t// out\n        /* \"#utility.yul\":6963:7128   */\n    tag_264:\n        /* \"#utility.yul\":7067:7121   */\n      tag_375\n        /* \"#utility.yul\":7115:7120   */\n      dup2\n        /* \"#utility.yul\":7067:7121   */\n      tag_263\n      jump\t// in\n    tag_375:\n        /* \"#utility.yul\":7062:7065   */\n      dup3\n        /* \"#utility.yul\":7055:7122   */\n      mstore\n        /* \"#utility.yul\":6963:7128   */\n      pop\n      pop\n      jump\t// out\n        /* \"#utility.yul\":7134:7961   */\n    tag_53:\n        /* \"#utility.yul\":7419:7423   */\n      0x00\n        /* \"#utility.yul\":7457:7460   */\n      0x0100\n        /* \"#utility.yul\":7446:7455   */\n      dup3\n        /* \"#utility.yul\":7442:7461   */\n      add\n        /* \"#utility.yul\":7434:7461   */\n      swap1\n      pop\n        /* \"#utility.yul\":7471:7588   */\n      tag_377\n        /* \"#utility.yul\":7585:7586   */\n      0x00\n        /* \"#utility.yul\":7574:7583   */\n      dup4\n        /* \"#utility.yul\":7570:7587   */\n      add\n        /* \"#utility.yul\":7561:7567   */\n      dup9\n        /* \"#utility.yul\":7471:7588   */\n      tag_256\n      jump\t// in\n    tag_377:\n        /* \"#utility.yul\":7598:7688   */\n      tag_378\n        /* \"#utility.yul\":7683:7686   */\n      0x80\n        /* \"#utility.yul\":7672:7681   */\n      dup4\n        /* \"#utility.yul\":7668:7687   */\n      add\n        /* \"#utility.yul\":7659:7665   */\n      dup8\n        /* \"#utility.yul\":7598:7688   */\n      tag_260\n      jump\t// in\n    tag_378:\n        /* \"#utility.yul\":7698:7788   */\n      tag_379\n        /* \"#utility.yul\":7783:7786   */\n      0xa0\n        /* \"#utility.yul\":7772:7781   */\n      dup4\n        /* \"#utility.yul\":7768:7787   */\n      add\n        /* \"#utility.yul\":7759:7765   */\n      dup7\n        /* \"#utility.yul\":7698:7788   */\n      tag_264\n      jump\t// in\n    tag_379:\n        /* \"#utility.yul\":7798:7871   */\n      tag_380\n        /* \"#utility.yul\":7866:7869   */\n      0xc0\n        /* \"#utility.yul\":7855:7864   */\n      dup4\n        /* \"#utility.yul\":7851:7870   */\n      add\n        /* \"#utility.yul\":7842:7848   */\n      dup6\n        /* \"#utility.yul\":7798:7871   */\n      tag_250\n      jump\t// in\n    tag_380:\n        /* \"#utility.yul\":7881:7954   */\n      tag_381\n        /* \"#utility.yul\":7949:7952   */\n      0xe0\n        /* \"#utility.yul\":7938:7947   */\n      dup4\n        /* \"#utility.yul\":7934:7953   */\n      add\n        /* \"#utility.yul\":7925:7931   */\n      dup5\n        /* \"#utility.yul\":7881:7954   */\n      tag_250\n      jump\t// in\n    tag_381:\n        /* \"#utility.yul\":7134:7961   */\n      swap7\n      swap6\n      pop\n      pop\n      pop\n      pop\n      pop\n      pop\n      jump\t// out\n        /* \"#utility.yul\":7967:8084   */\n    tag_265:\n        /* \"#utility.yul\":8076:8077   */\n      0x00\n        /* \"#utility.yul\":8073:8074   */\n      dup1\n        /* \"#utility.yul\":8066:8078   */\n      revert\n        /* \"#utility.yul\":8090:8207   */\n    tag_266:\n        /* \"#utility.yul\":8199:8200   */\n      0x00\n        /* \"#utility.yul\":8196:8197   */\n      dup1\n        /* \"#utility.yul\":8189:8201   */\n      revert\n        /* \"#utility.yul\":8213:8330   */\n    tag_267:\n        /* \"#utility.yul\":8322:8323   */\n      0x00\n        /* \"#utility.yul\":8319:8320   */\n      dup1\n        /* \"#utility.yul\":8312:8324   */\n      revert\n        /* \"#utility.yul\":8353:8921   */\n    tag_268:\n        /* \"#utility.yul\":8426:8434   */\n      0x00\n        /* \"#utility.yul\":8436:8442   */\n      dup1\n        /* \"#utility.yul\":8486:8489   */\n      dup4\n        /* \"#utility.yul\":8479:8483   */\n      0x1f\n        /* \"#utility.yul\":8471:8477   */\n      dup5\n        /* \"#utility.yul\":8467:8484   */\n      add\n        /* \"#utility.yul\":8463:8490   */\n      slt\n        /* \"#utility.yul\":8453:8575   */\n      tag_386\n      jumpi\n        /* \"#utility.yul\":8494:8573   */\n      tag_387\n      tag_265\n      jump\t// in\n    tag_387:\n        /* \"#utility.yul\":8453:8575   */\n    tag_386:\n        /* \"#utility.yul\":8607:8613   */\n      dup3\n        /* \"#utility.yul\":8594:8614   */\n      calldataload\n        /* \"#utility.yul\":8584:8614   */\n      swap1\n      pop\n        /* \"#utility.yul\":8637:8655   */\n      0xffffffffffffffff\n        /* \"#utility.yul\":8629:8635   */\n      dup2\n        /* \"#utility.yul\":8626:8656   */\n      gt\n        /* \"#utility.yul\":8623:8740   */\n      iszero\n      tag_388\n      jumpi\n        /* \"#utility.yul\":8659:8738   */\n      tag_389\n      tag_266\n      jump\t// in\n    tag_389:\n        /* \"#utility.yul\":8623:8740   */\n    tag_388:\n        /* \"#utility.yul\":8773:8777   */\n      0x20\n        /* \"#utility.yul\":8765:8771   */\n      dup4\n        /* \"#utility.yul\":8761:8778   */\n      add\n        /* \"#utility.yul\":8749:8778   */\n      swap2\n      pop\n        /* \"#utility.yul\":8827:8830   */\n      dup4\n        /* \"#utility.yul\":8819:8823   */\n      0x20\n        /* \"#utility.yul\":8811:8817   */\n      dup3\n        /* \"#utility.yul\":8807:8824   */\n      mul\n        /* \"#utility.yul\":8797:8805   */\n      dup4\n        /* \"#utility.yul\":8793:8825   */\n      add\n        /* \"#utility.yul\":8790:8831   */\n      gt\n        /* \"#utility.yul\":8787:8915   */\n      iszero\n      tag_390\n      jumpi\n        /* \"#utility.yul\":8834:8913   */\n      tag_391\n      tag_267\n      jump\t// in\n    tag_391:\n        /* \"#utility.yul\":8787:8915   */\n    tag_390:\n        /* \"#utility.yul\":8353:8921   */\n      swap3\n      pop\n      swap3\n      swap1\n      pop\n      jump\t// out\n        /* \"#utility.yul\":8927:10298   */\n    tag_56:\n        /* \"#utility.yul\":9076:9082   */\n      0x00\n        /* \"#utility.yul\":9084:9090   */\n      dup1\n        /* \"#utility.yul\":9092:9098   */\n      0x00\n        /* \"#utility.yul\":9100:9106   */\n      dup1\n        /* \"#utility.yul\":9108:9114   */\n      0x00\n        /* \"#utility.yul\":9116:9122   */\n      dup1\n        /* \"#utility.yul\":9124:9130   */\n      0x00\n        /* \"#utility.yul\":9173:9176   */\n      0xa0\n        /* \"#utility.yul\":9161:9170   */\n      dup9\n        /* \"#utility.yul\":9152:9159   */\n      dup11\n        /* \"#utility.yul\":9148:9171   */\n      sub\n        /* \"#utility.yul\":9144:9177   */\n      slt\n        /* \"#utility.yul\":9141:9261   */\n      iszero\n      tag_393\n      jumpi\n        /* \"#utility.yul\":9180:9259   */\n      tag_394\n      tag_240\n      jump\t// in\n    tag_394:\n        /* \"#utility.yul\":9141:9261   */\n    tag_393:\n        /* \"#utility.yul\":9300:9301   */\n      0x00\n        /* \"#utility.yul\":9325:9378   */\n      tag_395\n        /* \"#utility.yul\":9370:9377   */\n      dup11\n        /* \"#utility.yul\":9361:9367   */\n      dup3\n        /* \"#utility.yul\":9350:9359   */\n      dup12\n        /* \"#utility.yul\":9346:9368   */\n      add\n        /* \"#utility.yul\":9325:9378   */\n      tag_244\n      jump\t// in\n    tag_395:\n        /* \"#utility.yul\":9315:9378   */\n      swap8\n      pop\n        /* \"#utility.yul\":9271:9388   */\n      pop\n        /* \"#utility.yul\":9455:9457   */\n      0x20\n        /* \"#utility.yul\":9444:9453   */\n      dup9\n        /* \"#utility.yul\":9440:9458   */\n      add\n        /* \"#utility.yul\":9427:9459   */\n      calldataload\n        /* \"#utility.yul\":9486:9504   */\n      0xffffffffffffffff\n        /* \"#utility.yul\":9478:9484   */\n      dup2\n        /* \"#utility.yul\":9475:9505   */\n      gt\n        /* \"#utility.yul\":9472:9589   */\n      iszero\n      tag_396\n      jumpi\n        /* \"#utility.yul\":9508:9587   */\n      tag_397\n      tag_241\n      jump\t// in\n    tag_397:\n        /* \"#utility.yul\":9472:9589   */\n    tag_396:\n        /* \"#utility.yul\":9621:9701   */\n      tag_398\n        /* \"#utility.yul\":9693:9700   */\n      dup11\n        /* \"#utility.yul\":9684:9690   */\n      dup3\n        /* \"#utility.yul\":9673:9682   */\n      dup12\n        /* \"#utility.yul\":9669:9691   */\n      add\n        /* \"#utility.yul\":9621:9701   */\n      tag_268\n      jump\t// in\n    tag_398:\n        /* \"#utility.yul\":9603:9701   */\n      swap7\n      pop\n      swap7\n      pop\n        /* \"#utility.yul\":9398:9711   */\n      pop\n        /* \"#utility.yul\":9778:9780   */\n      0x40\n        /* \"#utility.yul\":9767:9776   */\n      dup9\n        /* \"#utility.yul\":9763:9781   */\n      add\n        /* \"#utility.yul\":9750:9782   */\n      calldataload\n        /* \"#utility.yul\":9809:9827   */\n      0xffffffffffffffff\n        /* \"#utility.yul\":9801:9807   */\n      dup2\n        /* \"#utility.yul\":9798:9828   */\n      gt\n        /* \"#utility.yul\":9795:9912   */\n      iszero\n      tag_399\n      jumpi\n        /* \"#utility.yul\":9831:9910   */\n      tag_400\n      tag_241\n      jump\t// in\n    tag_400:\n        /* \"#utility.yul\":9795:9912   */\n    tag_399:\n        /* \"#utility.yul\":9944:10024   */\n      tag_401\n        /* \"#utility.yul\":10016:10023   */\n      dup11\n        /* \"#utility.yul\":10007:10013   */\n      dup3\n        /* \"#utility.yul\":9996:10005   */\n      dup12\n        /* \"#utility.yul\":9992:10014   */\n      add\n        /* \"#utility.yul\":9944:10024   */\n      tag_268\n      jump\t// in\n    tag_401:\n        /* \"#utility.yul\":9926:10024   */\n      swap5\n      pop\n      swap5\n      pop\n        /* \"#utility.yul\":9721:10034   */\n      pop\n        /* \"#utility.yul\":10073:10075   */\n      0x60\n        /* \"#utility.yul\":10099:10152   */\n      tag_402\n        /* \"#utility.yul\":10144:10151   */\n      dup11\n        /* \"#utility.yul\":10135:10141   */\n      dup3\n        /* \"#utility.yul\":10124:10133   */\n      dup12\n        /* \"#utility.yul\":10120:10142   */\n      add\n        /* \"#utility.yul\":10099:10152   */\n      tag_244\n      jump\t// in\n    tag_402:\n        /* \"#utility.yul\":10089:10152   */\n      swap3\n      pop\n        /* \"#utility.yul\":10044:10162   */\n      pop\n        /* \"#utility.yul\":10201:10204   */\n      0x80\n        /* \"#utility.yul\":10228:10281   */\n      tag_403\n        /* \"#utility.yul\":10273:10280   */\n      dup11\n        /* \"#utility.yul\":10264:10270   */\n      dup3\n        /* \"#utility.yul\":10253:10262   */\n      dup12\n        /* \"#utility.yul\":10249:10271   */\n      add\n        /* \"#utility.yul\":10228:10281   */\n      tag_244\n      jump\t// in\n    tag_403:\n        /* \"#utility.yul\":10218:10281   */\n      swap2\n      pop\n        /* \"#utility.yul\":10172:10291   */\n      pop\n        /* \"#utility.yul\":8927:10298   */\n      swap3\n      swap6\n      swap9\n      swap2\n      swap5\n      swap8\n      pop\n      swap3\n      swap6\n      pop\n      jump\t// out\n        /* \"#utility.yul\":10304:10422   */\n    tag_269:\n        /* \"#utility.yul\":10391:10415   */\n      tag_405\n        /* \"#utility.yul\":10409:10414   */\n      dup2\n        /* \"#utility.yul\":10391:10415   */\n      tag_252\n      jump\t// in\n    tag_405:\n        /* \"#utility.yul\":10386:10389   */\n      dup3\n        /* \"#utility.yul\":10379:10416   */\n      mstore\n        /* \"#utility.yul\":10304:10422   */\n      pop\n      pop\n      jump\t// out\n        /* \"#utility.yul\":10428:10650   */\n    tag_62:\n        /* \"#utility.yul\":10521:10525   */\n      0x00\n        /* \"#utility.yul\":10559:10561   */\n      0x20\n        /* \"#utility.yul\":10548:10557   */\n      dup3\n        /* \"#utility.yul\":10544:10562   */\n      add\n        /* \"#utility.yul\":10536:10562   */\n      swap1\n      pop\n        /* \"#utility.yul\":10572:10643   */\n      tag_407\n        /* \"#utility.yul\":10640:10641   */\n      0x00\n        /* \"#utility.yul\":10629:10638   */\n      dup4\n        /* \"#utility.yul\":10625:10642   */\n      add\n        /* \"#utility.yul\":10616:10622   */\n      dup5\n        /* \"#utility.yul\":10572:10643   */\n      tag_269\n      jump\t// in\n    tag_407:\n        /* \"#utility.yul\":10428:10650   */\n      swap3\n      swap2\n      pop\n      pop\n      jump\t// out\n        /* \"#utility.yul\":10656:10988   */\n    tag_71:\n        /* \"#utility.yul\":10777:10781   */\n      0x00\n        /* \"#utility.yul\":10815:10817   */\n      0x40\n        /* \"#utility.yul\":10804:10813   */\n      dup3\n        /* \"#utility.yul\":10800:10818   */\n      add\n        /* \"#utility.yul\":10792:10818   */\n      swap1\n      pop\n        /* \"#utility.yul\":10828:10899   */\n      tag_409\n        /* \"#utility.yul\":10896:10897   */\n      0x00\n        /* \"#utility.yul\":10885:10894   */\n      dup4\n        /* \"#utility.yul\":10881:10898   */\n      add\n        /* \"#utility.yul\":10872:10878   */\n      dup6\n        /* \"#utility.yul\":10828:10899   */\n      tag_250\n      jump\t// in\n    tag_409:\n        /* \"#utility.yul\":10909:10981   */\n      tag_410\n        /* \"#utility.yul\":10977:10979   */\n      0x20\n        /* \"#utility.yul\":10966:10975   */\n      dup4\n        /* \"#utility.yul\":10962:10980   */\n      add\n        /* \"#utility.yul\":10953:10959   */\n      dup5\n        /* \"#utility.yul\":10909:10981   */\n      tag_250\n      jump\t// in\n    tag_410:\n        /* \"#utility.yul\":10656:10988   */\n      swap4\n      swap3\n      pop\n      pop\n      pop\n      jump\t// out\n        /* \"#utility.yul\":10994:11108   */\n    tag_270:\n        /* \"#utility.yul\":11061:11067   */\n      0x00\n        /* \"#utility.yul\":11095:11100   */\n      dup2\n        /* \"#utility.yul\":11089:11101   */\n      mload\n        /* \"#utility.yul\":11079:11101   */\n      swap1\n      pop\n        /* \"#utility.yul\":10994:11108   */\n      swap2\n      swap1\n      pop\n      jump\t// out\n        /* \"#utility.yul\":11114:11298   */\n    tag_271:\n        /* \"#utility.yul\":11213:11224   */\n      0x00\n        /* \"#utility.yul\":11247:11253   */\n      dup3\n        /* \"#utility.yul\":11242:11245   */\n      dup3\n        /* \"#utility.yul\":11235:11254   */\n      mstore\n        /* \"#utility.yul\":11287:11291   */\n      0x20\n        /* \"#utility.yul\":11282:11285   */\n      dup3\n        /* \"#utility.yul\":11278:11292   */\n      add\n        /* \"#utility.yul\":11263:11292   */\n      swap1\n      pop\n        /* \"#utility.yul\":11114:11298   */\n      swap3\n      swap2\n      pop\n      pop\n      jump\t// out\n        /* \"#utility.yul\":11304:11436   */\n    tag_272:\n        /* \"#utility.yul\":11371:11375   */\n      0x00\n        /* \"#utility.yul\":11394:11397   */\n      dup2\n        /* \"#utility.yul\":11386:11397   */\n      swap1\n      pop\n        /* \"#utility.yul\":11424:11428   */\n      0x20\n        /* \"#utility.yul\":11419:11422   */\n      dup3\n        /* \"#utility.yul\":11415:11429   */\n      add\n        /* \"#utility.yul\":11407:11429   */\n      swap1\n      pop\n        /* \"#utility.yul\":11304:11436   */\n      swap2\n      swap1\n      pop\n      jump\t// out\n        /* \"#utility.yul\":11442:11550   */\n    tag_273:\n        /* \"#utility.yul\":11519:11543   */\n      tag_415\n        /* \"#utility.yul\":11537:11542   */\n      dup2\n        /* \"#utility.yul\":11519:11543   */\n      tag_252\n      jump\t// in\n    tag_415:\n        /* \"#utility.yul\":11514:11517   */\n      dup3\n        /* \"#utility.yul\":11507:11544   */\n      mstore\n        /* \"#utility.yul\":11442:11550   */\n      pop\n      pop\n      jump\t// out\n        /* \"#utility.yul\":11556:11735   */\n    tag_274:\n        /* \"#utility.yul\":11625:11635   */\n      0x00\n        /* \"#utility.yul\":11646:11692   */\n      tag_417\n        /* \"#utility.yul\":11688:11691   */\n      dup4\n        /* \"#utility.yul\":11680:11686   */\n      dup4\n        /* \"#utility.yul\":11646:11692   */\n      tag_273\n      jump\t// in\n    tag_417:\n        /* \"#utility.yul\":11724:11728   */\n      0x20\n        /* \"#utility.yul\":11719:11722   */\n      dup4\n        /* \"#utility.yul\":11715:11729   */\n      add\n        /* \"#utility.yul\":11701:11729   */\n      swap1\n      pop\n        /* \"#utility.yul\":11556:11735   */\n      swap3\n      swap2\n      pop\n      pop\n      jump\t// out\n        /* \"#utility.yul\":11741:11854   */\n    tag_275:\n        /* \"#utility.yul\":11811:11815   */\n      0x00\n        /* \"#utility.yul\":11843:11847   */\n      0x20\n        /* \"#utility.yul\":11838:11841   */\n      dup3\n        /* \"#utility.yul\":11834:11848   */\n      add\n        /* \"#utility.yul\":11826:11848   */\n      swap1\n      pop\n        /* \"#utility.yul\":11741:11854   */\n      swap2\n      swap1\n      pop\n      jump\t// out\n        /* \"#utility.yul\":11890:12622   */\n    tag_276:\n        /* \"#utility.yul\":12009:12012   */\n      0x00\n        /* \"#utility.yul\":12038:12092   */\n      tag_420\n        /* \"#utility.yul\":12086:12091   */\n      dup3\n        /* \"#utility.yul\":12038:12092   */\n      tag_270\n      jump\t// in\n    tag_420:\n        /* \"#utility.yul\":12108:12194   */\n      tag_421\n        /* \"#utility.yul\":12187:12193   */\n      dup2\n        /* \"#utility.yul\":12182:12185   */\n      dup6\n        /* \"#utility.yul\":12108:12194   */\n      tag_271\n      jump\t// in\n    tag_421:\n        /* \"#utility.yul\":12101:12194   */\n      swap4\n      pop\n        /* \"#utility.yul\":12218:12274   */\n      tag_422\n        /* \"#utility.yul\":12268:12273   */\n      dup4\n        /* \"#utility.yul\":12218:12274   */\n      tag_272\n      jump\t// in\n    tag_422:\n        /* \"#utility.yul\":12297:12304   */\n      dup1\n        /* \"#utility.yul\":12328:12329   */\n      0x00\n        /* \"#utility.yul\":12313:12597   */\n    tag_423:\n        /* \"#utility.yul\":12338:12344   */\n      dup4\n        /* \"#utility.yul\":12335:12336   */\n      dup2\n        /* \"#utility.yul\":12332:12345   */\n      lt\n        /* \"#utility.yul\":12313:12597   */\n      iszero\n      tag_425\n      jumpi\n        /* \"#utility.yul\":12414:12420   */\n      dup2\n        /* \"#utility.yul\":12408:12421   */\n      mload\n        /* \"#utility.yul\":12441:12504   */\n      tag_426\n        /* \"#utility.yul\":12500:12503   */\n      dup9\n        /* \"#utility.yul\":12485:12498   */\n      dup3\n        /* \"#utility.yul\":12441:12504   */\n      tag_274\n      jump\t// in\n    tag_426:\n        /* \"#utility.yul\":12434:12504   */\n      swap8\n      pop\n        /* \"#utility.yul\":12527:12587   */\n      tag_427\n        /* \"#utility.yul\":12580:12586   */\n      dup4\n        /* \"#utility.yul\":12527:12587   */\n      tag_275\n      jump\t// in\n    tag_427:\n        /* \"#utility.yul\":12517:12587   */\n      swap3\n      pop\n        /* \"#utility.yul\":12373:12597   */\n      pop\n        /* \"#utility.yul\":12360:12361   */\n      0x01\n        /* \"#utility.yul\":12357:12358   */\n      dup2\n        /* \"#utility.yul\":12353:12362   */\n      add\n        /* \"#utility.yul\":12348:12362   */\n      swap1\n      pop\n        /* \"#utility.yul\":12313:12597   */\n      jump(tag_423)\n    tag_425:\n        /* \"#utility.yul\":12317:12331   */\n      pop\n        /* \"#utility.yul\":12613:12616   */\n      dup6\n        /* \"#utility.yul\":12606:12616   */\n      swap4\n      pop\n        /* \"#utility.yul\":12014:12622   */\n      pop\n      pop\n      pop\n        /* \"#utility.yul\":11890:12622   */\n      swap3\n      swap2\n      pop\n      pop\n      jump\t// out\n        /* \"#utility.yul\":12628:13816   */\n    tag_79:\n        /* \"#utility.yul\":12989:12993   */\n      0x00\n        /* \"#utility.yul\":13027:13030   */\n      0xe0\n        /* \"#utility.yul\":13016:13025   */\n      dup3\n        /* \"#utility.yul\":13012:13031   */\n      add\n        /* \"#utility.yul\":13004:13031   */\n      swap1\n      pop\n        /* \"#utility.yul\":13041:13112   */\n      tag_429\n        /* \"#utility.yul\":13109:13110   */\n      0x00\n        /* \"#utility.yul\":13098:13107   */\n      dup4\n        /* \"#utility.yul\":13094:13111   */\n      add\n        /* \"#utility.yul\":13085:13091   */\n      dup11\n        /* \"#utility.yul\":13041:13112   */\n      tag_250\n      jump\t// in\n    tag_429:\n        /* \"#utility.yul\":13122:13194   */\n      tag_430\n        /* \"#utility.yul\":13190:13192   */\n      0x20\n        /* \"#utility.yul\":13179:13188   */\n      dup4\n        /* \"#utility.yul\":13175:13193   */\n      add\n        /* \"#utility.yul\":13166:13172   */\n      dup10\n        /* \"#utility.yul\":13122:13194   */\n      tag_250\n      jump\t// in\n    tag_430:\n        /* \"#utility.yul\":13241:13250   */\n      dup2\n        /* \"#utility.yul\":13235:13239   */\n      dup2\n        /* \"#utility.yul\":13231:13251   */\n      sub\n        /* \"#utility.yul\":13226:13228   */\n      0x40\n        /* \"#utility.yul\":13215:13224   */\n      dup4\n        /* \"#utility.yul\":13211:13229   */\n      add\n        /* \"#utility.yul\":13204:13252   */\n      mstore\n        /* \"#utility.yul\":13269:13377   */\n      tag_431\n        /* \"#utility.yul\":13372:13376   */\n      dup2\n        /* \"#utility.yul\":13363:13369   */\n      dup9\n        /* \"#utility.yul\":13269:13377   */\n      tag_276\n      jump\t// in\n    tag_431:\n        /* \"#utility.yul\":13261:13377   */\n      swap1\n      pop\n        /* \"#utility.yul\":13424:13433   */\n      dup2\n        /* \"#utility.yul\":13418:13422   */\n      dup2\n        /* \"#utility.yul\":13414:13434   */\n      sub\n        /* \"#utility.yul\":13409:13411   */\n      0x60\n        /* \"#utility.yul\":13398:13407   */\n      dup4\n        /* \"#utility.yul\":13394:13412   */\n      add\n        /* \"#utility.yul\":13387:13435   */\n      mstore\n        /* \"#utility.yul\":13452:13560   */\n      tag_432\n        /* \"#utility.yul\":13555:13559   */\n      dup2\n        /* \"#utility.yul\":13546:13552   */\n      dup8\n        /* \"#utility.yul\":13452:13560   */\n      tag_276\n      jump\t// in\n    tag_432:\n        /* \"#utility.yul\":13444:13560   */\n      swap1\n      pop\n        /* \"#utility.yul\":13570:13643   */\n      tag_433\n        /* \"#utility.yul\":13638:13641   */\n      0x80\n        /* \"#utility.yul\":13627:13636   */\n      dup4\n        /* \"#utility.yul\":13623:13642   */\n      add\n        /* \"#utility.yul\":13614:13620   */\n      dup7\n        /* \"#utility.yul\":13570:13643   */\n      tag_250\n      jump\t// in\n    tag_433:\n        /* \"#utility.yul\":13653:13726   */\n      tag_434\n        /* \"#utility.yul\":13721:13724   */\n      0xa0\n        /* \"#utility.yul\":13710:13719   */\n      dup4\n        /* \"#utility.yul\":13706:13725   */\n      add\n        /* \"#utility.yul\":13697:13703   */\n      dup6\n        /* \"#utility.yul\":13653:13726   */\n      tag_250\n      jump\t// in\n    tag_434:\n        /* \"#utility.yul\":13736:13809   */\n      tag_435\n        /* \"#utility.yul\":13804:13807   */\n      0xc0\n        /* \"#utility.yul\":13793:13802   */\n      dup4\n        /* \"#utility.yul\":13789:13808   */\n      add\n        /* \"#utility.yul\":13780:13786   */\n      dup5\n        /* \"#utility.yul\":13736:13809   */\n      tag_250\n      jump\t// in\n    tag_435:\n        /* \"#utility.yul\":12628:13816   */\n      swap9\n      swap8\n      pop\n      pop\n      pop\n      pop\n      pop\n      pop\n      pop\n      pop\n      jump\t// out\n        /* \"#utility.yul\":13822:13991   */\n    tag_277:\n        /* \"#utility.yul\":13906:13917   */\n      0x00\n        /* \"#utility.yul\":13940:13946   */\n      dup3\n        /* \"#utility.yul\":13935:13938   */\n      dup3\n        /* \"#utility.yul\":13928:13947   */\n      mstore\n        /* \"#utility.yul\":13980:13984   */\n      0x20\n        /* \"#utility.yul\":13975:13978   */\n      dup3\n        /* \"#utility.yul\":13971:13985   */\n      add\n        /* \"#utility.yul\":13956:13985   */\n      swap1\n      pop\n        /* \"#utility.yul\":13822:13991   */\n      swap3\n      swap2\n      pop\n      pop\n      jump\t// out\n        /* \"#utility.yul\":13997:14237   */\n    tag_278:\n        /* \"#utility.yul\":14137:14171   */\n      0x546f2063616c6c2074686973206d6574686f6420796f75206861766520746f20\n        /* \"#utility.yul\":14133:14134   */\n      0x00\n        /* \"#utility.yul\":14125:14131   */\n      dup3\n        /* \"#utility.yul\":14121:14135   */\n      add\n        /* \"#utility.yul\":14114:14172   */\n      mstore\n        /* \"#utility.yul\":14206:14229   */\n      0x6265206f776e6572206f722073756241646d696e210000000000000000000000\n        /* \"#utility.yul\":14201:14203   */\n      0x20\n        /* \"#utility.yul\":14193:14199   */\n      dup3\n        /* \"#utility.yul\":14189:14204   */\n      add\n        /* \"#utility.yul\":14182:14230   */\n      mstore\n        /* \"#utility.yul\":13997:14237   */\n      pop\n      jump\t// out\n        /* \"#utility.yul\":14243:14609   */\n    tag_279:\n        /* \"#utility.yul\":14385:14388   */\n      0x00\n        /* \"#utility.yul\":14406:14473   */\n      tag_439\n        /* \"#utility.yul\":14470:14472   */\n      0x35\n        /* \"#utility.yul\":14465:14468   */\n      dup4\n        /* \"#utility.yul\":14406:14473   */\n      tag_277\n      jump\t// in\n    tag_439:\n        /* \"#utility.yul\":14399:14473   */\n      swap2\n      pop\n        /* \"#utility.yul\":14482:14575   */\n      tag_440\n        /* \"#utility.yul\":14571:14574   */\n      dup3\n        /* \"#utility.yul\":14482:14575   */\n      tag_278\n      jump\t// in\n    tag_440:\n        /* \"#utility.yul\":14600:14602   */\n      0x40\n        /* \"#utility.yul\":14595:14598   */\n      dup3\n        /* \"#utility.yul\":14591:14603   */\n      add\n        /* \"#utility.yul\":14584:14603   */\n      swap1\n      pop\n        /* \"#utility.yul\":14243:14609   */\n      swap2\n      swap1\n      pop\n      jump\t// out\n        /* \"#utility.yul\":14615:15034   */\n    tag_96:\n        /* \"#utility.yul\":14781:14785   */\n      0x00\n        /* \"#utility.yul\":14819:14821   */\n      0x20\n        /* \"#utility.yul\":14808:14817   */\n      dup3\n        /* \"#utility.yul\":14804:14822   */\n      add\n        /* \"#utility.yul\":14796:14822   */\n      swap1\n      pop\n        /* \"#utility.yul\":14868:14877   */\n      dup2\n        /* \"#utility.yul\":14862:14866   */\n      dup2\n        /* \"#utility.yul\":14858:14878   */\n      sub\n        /* \"#utility.yul\":14854:14855   */\n      0x00\n        /* \"#utility.yul\":14843:14852   */\n      dup4\n        /* \"#utility.yul\":14839:14856   */\n      add\n        /* \"#utility.yul\":14832:14879   */\n      mstore\n        /* \"#utility.yul\":14896:15027   */\n      tag_442\n        /* \"#utility.yul\":15022:15026   */\n      dup2\n        /* \"#utility.yul\":14896:15027   */\n      tag_279\n      jump\t// in\n    tag_442:\n        /* \"#utility.yul\":14888:15027   */\n      swap1\n      pop\n        /* \"#utility.yul\":14615:15034   */\n      swap2\n      swap1\n      pop\n      jump\t// out\n        /* \"#utility.yul\":15040:15270   */\n    tag_280:\n        /* \"#utility.yul\":15180:15214   */\n      0x63616e27742066696e6420636f6d706574696f6e207769746820746869732063\n        /* \"#utility.yul\":15176:15177   */\n      0x00\n        /* \"#utility.yul\":15168:15174   */\n      dup3\n        /* \"#utility.yul\":15164:15178   */\n      add\n        /* \"#utility.yul\":15157:15215   */\n      mstore\n        /* \"#utility.yul\":15249:15262   */\n      0x6f6d706574696f6e496421000000000000000000000000000000000000000000\n        /* \"#utility.yul\":15244:15246   */\n      0x20\n        /* \"#utility.yul\":15236:15242   */\n      dup3\n        /* \"#utility.yul\":15232:15247   */\n      add\n        /* \"#utility.yul\":15225:15263   */\n      mstore\n        /* \"#utility.yul\":15040:15270   */\n      pop\n      jump\t// out\n        /* \"#utility.yul\":15276:15642   */\n    tag_281:\n        /* \"#utility.yul\":15418:15421   */\n      0x00\n        /* \"#utility.yul\":15439:15506   */\n      tag_445\n        /* \"#utility.yul\":15503:15505   */\n      0x2b\n        /* \"#utility.yul\":15498:15501   */\n      dup4\n        /* \"#utility.yul\":15439:15506   */\n      tag_277\n      jump\t// in\n    tag_445:\n        /* \"#utility.yul\":15432:15506   */\n      swap2\n      pop\n        /* \"#utility.yul\":15515:15608   */\n      tag_446\n        /* \"#utility.yul\":15604:15607   */\n      dup3\n        /* \"#utility.yul\":15515:15608   */\n      tag_280\n      jump\t// in\n    tag_446:\n        /* \"#utility.yul\":15633:15635   */\n      0x40\n        /* \"#utility.yul\":15628:15631   */\n      dup3\n        /* \"#utility.yul\":15624:15636   */\n      add\n        /* \"#utility.yul\":15617:15636   */\n      swap1\n      pop\n        /* \"#utility.yul\":15276:15642   */\n      swap2\n      swap1\n      pop\n      jump\t// out\n        /* \"#utility.yul\":15648:16067   */\n    tag_102:\n        /* \"#utility.yul\":15814:15818   */\n      0x00\n        /* \"#utility.yul\":15852:15854   */\n      0x20\n        /* \"#utility.yul\":15841:15850   */\n      dup3\n        /* \"#utility.yul\":15837:15855   */\n      add\n        /* \"#utility.yul\":15829:15855   */\n      swap1\n      pop\n        /* \"#utility.yul\":15901:15910   */\n      dup2\n        /* \"#utility.yul\":15895:15899   */\n      dup2\n        /* \"#utility.yul\":15891:15911   */\n      sub\n        /* \"#utility.yul\":15887:15888   */\n      0x00\n        /* \"#utility.yul\":15876:15885   */\n      dup4\n        /* \"#utility.yul\":15872:15889   */\n      add\n        /* \"#utility.yul\":15865:15912   */\n      mstore\n        /* \"#utility.yul\":15929:16060   */\n      tag_448\n        /* \"#utility.yul\":16055:16059   */\n      dup2\n        /* \"#utility.yul\":15929:16060   */\n      tag_281\n      jump\t// in\n    tag_448:\n        /* \"#utility.yul\":15921:16060   */\n      swap1\n      pop\n        /* \"#utility.yul\":15648:16067   */\n      swap2\n      swap1\n      pop\n      jump\t// out\n        /* \"#utility.yul\":16073:16300   */\n    tag_282:\n        /* \"#utility.yul\":16213:16247   */\n      0x737461747573206e65656420746f20626520736f6d74696e6720626574776565\n        /* \"#utility.yul\":16209:16210   */\n      0x00\n        /* \"#utility.yul\":16201:16207   */\n      dup3\n        /* \"#utility.yul\":16197:16211   */\n      add\n        /* \"#utility.yul\":16190:16248   */\n      mstore\n        /* \"#utility.yul\":16282:16292   */\n      0x6e203020746f2032000000000000000000000000000000000000000000000000\n        /* \"#utility.yul\":16277:16279   */\n      0x20\n        /* \"#utility.yul\":16269:16275   */\n      dup3\n        /* \"#utility.yul\":16265:16280   */\n      add\n        /* \"#utility.yul\":16258:16293   */\n      mstore\n        /* \"#utility.yul\":16073:16300   */\n      pop\n      jump\t// out\n        /* \"#utility.yul\":16306:16672   */\n    tag_283:\n        /* \"#utility.yul\":16448:16451   */\n      0x00\n        /* \"#utility.yul\":16469:16536   */\n      tag_451\n        /* \"#utility.yul\":16533:16535   */\n      0x28\n        /* \"#utility.yul\":16528:16531   */\n      dup4\n        /* \"#utility.yul\":16469:16536   */\n      tag_277\n      jump\t// in\n    tag_451:\n        /* \"#utility.yul\":16462:16536   */\n      swap2\n      pop\n        /* \"#utility.yul\":16545:16638   */\n      tag_452\n        /* \"#utility.yul\":16634:16637   */\n      dup3\n        /* \"#utility.yul\":16545:16638   */\n      tag_282\n      jump\t// in\n    tag_452:\n        /* \"#utility.yul\":16663:16665   */\n      0x40\n        /* \"#utility.yul\":16658:16661   */\n      dup3\n        /* \"#utility.yul\":16654:16666   */\n      add\n        /* \"#utility.yul\":16647:16666   */\n      swap1\n      pop\n        /* \"#utility.yul\":16306:16672   */\n      swap2\n      swap1\n      pop\n      jump\t// out\n        /* \"#utility.yul\":16678:17097   */\n    tag_106:\n        /* \"#utility.yul\":16844:16848   */\n      0x00\n        /* \"#utility.yul\":16882:16884   */\n      0x20\n        /* \"#utility.yul\":16871:16880   */\n      dup3\n        /* \"#utility.yul\":16867:16885   */\n      add\n        /* \"#utility.yul\":16859:16885   */\n      swap1\n      pop\n        /* \"#utility.yul\":16931:16940   */\n      dup2\n        /* \"#utility.yul\":16925:16929   */\n      dup2\n        /* \"#utility.yul\":16921:16941   */\n      sub\n        /* \"#utility.yul\":16917:16918   */\n      0x00\n        /* \"#utility.yul\":16906:16915   */\n      dup4\n        /* \"#utility.yul\":16902:16919   */\n      add\n        /* \"#utility.yul\":16895:16942   */\n      mstore\n        /* \"#utility.yul\":16959:17090   */\n      tag_454\n        /* \"#utility.yul\":17085:17089   */\n      dup2\n        /* \"#utility.yul\":16959:17090   */\n      tag_283\n      jump\t// in\n    tag_454:\n        /* \"#utility.yul\":16951:17090   */\n      swap1\n      pop\n        /* \"#utility.yul\":16678:17097   */\n      swap2\n      swap1\n      pop\n      jump\t// out\n        /* \"#utility.yul\":17103:17285   */\n    tag_284:\n        /* \"#utility.yul\":17243:17277   */\n      0x4f776e61626c653a2063616c6c6572206973206e6f7420746865206f776e6572\n        /* \"#utility.yul\":17239:17240   */\n      0x00\n        /* \"#utility.yul\":17231:17237   */\n      dup3\n        /* \"#utility.yul\":17227:17241   */\n      add\n        /* \"#utility.yul\":17220:17278   */\n      mstore\n        /* \"#utility.yul\":17103:17285   */\n      pop\n      jump\t// out\n        /* \"#utility.yul\":17291:17657   */\n    tag_285:\n        /* \"#utility.yul\":17433:17436   */\n      0x00\n        /* \"#utility.yul\":17454:17521   */\n      tag_457\n        /* \"#utility.yul\":17518:17520   */\n      0x20\n        /* \"#utility.yul\":17513:17516   */\n      dup4\n        /* \"#utility.yul\":17454:17521   */\n      tag_277\n      jump\t// in\n    tag_457:\n        /* \"#utility.yul\":17447:17521   */\n      swap2\n      pop\n        /* \"#utility.yul\":17530:17623   */\n      tag_458\n        /* \"#utility.yul\":17619:17622   */\n      dup3\n        /* \"#utility.yul\":17530:17623   */\n      tag_284\n      jump\t// in\n    tag_458:\n        /* \"#utility.yul\":17648:17650   */\n      0x20\n        /* \"#utility.yul\":17643:17646   */\n      dup3\n        /* \"#utility.yul\":17639:17651   */\n      add\n        /* \"#utility.yul\":17632:17651   */\n      swap1\n      pop\n        /* \"#utility.yul\":17291:17657   */\n      swap2\n      swap1\n      pop\n      jump\t// out\n        /* \"#utility.yul\":17663:18082   */\n    tag_124:\n        /* \"#utility.yul\":17829:17833   */\n      0x00\n        /* \"#utility.yul\":17867:17869   */\n      0x20\n        /* \"#utility.yul\":17856:17865   */\n      dup3\n        /* \"#utility.yul\":17852:17870   */\n      add\n        /* \"#utility.yul\":17844:17870   */\n      swap1\n      pop\n        /* \"#utility.yul\":17916:17925   */\n      dup2\n        /* \"#utility.yul\":17910:17914   */\n      dup2\n        /* \"#utility.yul\":17906:17926   */\n      sub\n        /* \"#utility.yul\":17902:17903   */\n      0x00\n        /* \"#utility.yul\":17891:17900   */\n      dup4\n        /* \"#utility.yul\":17887:17904   */\n      add\n        /* \"#utility.yul\":17880:17927   */\n      mstore\n        /* \"#utility.yul\":17944:18075   */\n      tag_460\n        /* \"#utility.yul\":18070:18074   */\n      dup2\n        /* \"#utility.yul\":17944:18075   */\n      tag_285\n      jump\t// in\n    tag_460:\n        /* \"#utility.yul\":17936:18075   */\n      swap1\n      pop\n        /* \"#utility.yul\":17663:18082   */\n      swap2\n      swap1\n      pop\n      jump\t// out\n        /* \"#utility.yul\":18088:18268   */\n    tag_286:\n        /* \"#utility.yul\":18136:18213   */\n      0x4e487b7100000000000000000000000000000000000000000000000000000000\n        /* \"#utility.yul\":18133:18134   */\n      0x00\n        /* \"#utility.yul\":18126:18214   */\n      mstore\n        /* \"#utility.yul\":18233:18237   */\n      0x11\n        /* \"#utility.yul\":18230:18231   */\n      0x04\n        /* \"#utility.yul\":18223:18238   */\n      mstore\n        /* \"#utility.yul\":18257:18261   */\n      0x24\n        /* \"#utility.yul\":18254:18255   */\n      0x00\n        /* \"#utility.yul\":18247:18262   */\n      revert\n        /* \"#utility.yul\":18274:18579   */\n    tag_145:\n        /* \"#utility.yul\":18314:18317   */\n      0x00\n        /* \"#utility.yul\":18333:18353   */\n      tag_463\n        /* \"#utility.yul\":18351:18352   */\n      dup3\n        /* \"#utility.yul\":18333:18353   */\n      tag_242\n      jump\t// in\n    tag_463:\n        /* \"#utility.yul\":18328:18353   */\n      swap2\n      pop\n        /* \"#utility.yul\":18367:18387   */\n      tag_464\n        /* \"#utility.yul\":18385:18386   */\n      dup4\n        /* \"#utility.yul\":18367:18387   */\n      tag_242\n      jump\t// in\n    tag_464:\n        /* \"#utility.yul\":18362:18387   */\n      swap3\n      pop\n        /* \"#utility.yul\":18521:18522   */\n      dup3\n        /* \"#utility.yul\":18453:18519   */\n      0xffffffffffffffffffffffffffffffffffffffffffffffffffffffffffffffff\n        /* \"#utility.yul\":18449:18523   */\n      sub\n        /* \"#utility.yul\":18446:18447   */\n      dup3\n        /* \"#utility.yul\":18443:18524   */\n      gt\n        /* \"#utility.yul\":18440:18547   */\n      iszero\n      tag_465\n      jumpi\n        /* \"#utility.yul\":18527:18545   */\n      tag_466\n      tag_286\n      jump\t// in\n    tag_466:\n        /* \"#utility.yul\":18440:18547   */\n    tag_465:\n        /* \"#utility.yul\":18571:18572   */\n      dup3\n        /* \"#utility.yul\":18568:18569   */\n      dup3\n        /* \"#utility.yul\":18564:18573   */\n      add\n        /* \"#utility.yul\":18557:18573   */\n      swap1\n      pop\n        /* \"#utility.yul\":18274:18579   */\n      swap3\n      swap2\n      pop\n      pop\n      jump\t// out\n        /* \"#utility.yul\":18585:18766   */\n    tag_287:\n        /* \"#utility.yul\":18725:18758   */\n      0x63616e27742066696e6420707265736574207769746820746869732069642100\n        /* \"#utility.yul\":18721:18722   */\n      0x00\n        /* \"#utility.yul\":18713:18719   */\n      dup3\n        /* \"#utility.yul\":18709:18723   */\n      add\n        /* \"#utility.yul\":18702:18759   */\n      mstore\n        /* \"#utility.yul\":18585:18766   */\n      pop\n      jump\t// out\n        /* \"#utility.yul\":18772:19138   */\n    tag_288:\n        /* \"#utility.yul\":18914:18917   */\n      0x00\n        /* \"#utility.yul\":18935:19002   */\n      tag_469\n        /* \"#utility.yul\":18999:19001   */\n      0x1f\n        /* \"#utility.yul\":18994:18997   */\n      dup4\n        /* \"#utility.yul\":18935:19002   */\n      tag_277\n      jump\t// in\n    tag_469:\n        /* \"#utility.yul\":18928:19002   */\n      swap2\n      pop\n        /* \"#utility.yul\":19011:19104   */\n      tag_470\n        /* \"#utility.yul\":19100:19103   */\n      dup3\n        /* \"#utility.yul\":19011:19104   */\n      tag_287\n      jump\t// in\n    tag_470:\n        /* \"#utility.yul\":19129:19131   */\n      0x20\n        /* \"#utility.yul\":19124:19127   */\n      dup3\n        /* \"#utility.yul\":19120:19132   */\n      add\n        /* \"#utility.yul\":19113:19132   */\n      swap1\n      pop\n        /* \"#utility.yul\":18772:19138   */\n      swap2\n      swap1\n      pop\n      jump\t// out\n        /* \"#utility.yul\":19144:19563   */\n    tag_160:\n        /* \"#utility.yul\":19310:19314   */\n      0x00\n        /* \"#utility.yul\":19348:19350   */\n      0x20\n        /* \"#utility.yul\":19337:19346   */\n      dup3\n        /* \"#utility.yul\":19333:19351   */\n      add\n        /* \"#utility.yul\":19325:19351   */\n      swap1\n      pop\n        /* \"#utility.yul\":19397:19406   */\n      dup2\n        /* \"#utility.yul\":19391:19395   */\n      dup2\n        /* \"#utility.yul\":19387:19407   */\n      sub\n        /* \"#utility.yul\":19383:19384   */\n      0x00\n        /* \"#utility.yul\":19372:19381   */\n      dup4\n        /* \"#utility.yul\":19368:19385   */\n      add\n        /* \"#utility.yul\":19361:19408   */\n      mstore\n        /* \"#utility.yul\":19425:19556   */\n      tag_472\n        /* \"#utility.yul\":19551:19555   */\n      dup2\n        /* \"#utility.yul\":19425:19556   */\n      tag_288\n      jump\t// in\n    tag_472:\n        /* \"#utility.yul\":19417:19556   */\n      swap1\n      pop\n        /* \"#utility.yul\":19144:19563   */\n      swap2\n      swap1\n      pop\n      jump\t// out\n        /* \"#utility.yul\":19569:19796   */\n    tag_289:\n        /* \"#utility.yul\":19709:19743   */\n      0x77696e6e6572206e65656420746f20626520736f6d74696e6720626574776565\n        /* \"#utility.yul\":19705:19706   */\n      0x00\n        /* \"#utility.yul\":19697:19703   */\n      dup3\n        /* \"#utility.yul\":19693:19707   */\n      add\n        /* \"#utility.yul\":19686:19744   */\n      mstore\n        /* \"#utility.yul\":19778:19788   */\n      0x6e203020746f2033000000000000000000000000000000000000000000000000\n        /* \"#utility.yul\":19773:19775   */\n      0x20\n        /* \"#utility.yul\":19765:19771   */\n      dup3\n        /* \"#utility.yul\":19761:19776   */\n      add\n        /* \"#utility.yul\":19754:19789   */\n      mstore\n        /* \"#utility.yul\":19569:19796   */\n      pop\n      jump\t// out\n        /* \"#utility.yul\":19802:20168   */\n    tag_290:\n        /* \"#utility.yul\":19944:19947   */\n      0x00\n        /* \"#utility.yul\":19965:20032   */\n      tag_475\n        /* \"#utility.yul\":20029:20031   */\n      0x28\n        /* \"#utility.yul\":20024:20027   */\n      dup4\n        /* \"#utility.yul\":19965:20032   */\n      tag_277\n      jump\t// in\n    tag_475:\n        /* \"#utility.yul\":19958:20032   */\n      swap2\n      pop\n        /* \"#utility.yul\":20041:20134   */\n      tag_476\n        /* \"#utility.yul\":20130:20133   */\n      dup3\n        /* \"#utility.yul\":20041:20134   */\n      tag_289\n      jump\t// in\n    tag_476:\n        /* \"#utility.yul\":20159:20161   */\n      0x40\n        /* \"#utility.yul\":20154:20157   */\n      dup3\n        /* \"#utility.yul\":20150:20162   */\n      add\n        /* \"#utility.yul\":20143:20162   */\n      swap1\n      pop\n        /* \"#utility.yul\":19802:20168   */\n      swap2\n      swap1\n      pop\n      jump\t// out\n        /* \"#utility.yul\":20174:20593   */\n    tag_190:\n        /* \"#utility.yul\":20340:20344   */\n      0x00\n        /* \"#utility.yul\":20378:20380   */\n      0x20\n        /* \"#utility.yul\":20367:20376   */\n      dup3\n        /* \"#utility.yul\":20363:20381   */\n      add\n        /* \"#utility.yul\":20355:20381   */\n      swap1\n      pop\n        /* \"#utility.yul\":20427:20436   */\n      dup2\n        /* \"#utility.yul\":20421:20425   */\n      dup2\n        /* \"#utility.yul\":20417:20437   */\n      sub\n        /* \"#utility.yul\":20413:20414   */\n      0x00\n        /* \"#utility.yul\":20402:20411   */\n      dup4\n        /* \"#utility.yul\":20398:20415   */\n      add\n        /* \"#utility.yul\":20391:20438   */\n      mstore\n        /* \"#utility.yul\":20455:20586   */\n      tag_478\n        /* \"#utility.yul\":20581:20585   */\n      dup2\n        /* \"#utility.yul\":20455:20586   */\n      tag_290\n      jump\t// in\n    tag_478:\n        /* \"#utility.yul\":20447:20586   */\n      swap1\n      pop\n        /* \"#utility.yul\":20174:20593   */\n      swap2\n      swap1\n      pop\n      jump\t// out\n        /* \"#utility.yul\":20599:20824   */\n    tag_291:\n        /* \"#utility.yul\":20739:20773   */\n      0x4f776e61626c653a206e6577206f776e657220697320746865207a65726f2061\n        /* \"#utility.yul\":20735:20736   */\n      0x00\n        /* \"#utility.yul\":20727:20733   */\n      dup3\n        /* \"#utility.yul\":20723:20737   */\n      add\n        /* \"#utility.yul\":20716:20774   */\n      mstore\n        /* \"#utility.yul\":20808:20816   */\n      0x6464726573730000000000000000000000000000000000000000000000000000\n        /* \"#utility.yul\":20803:20805   */\n      0x20\n        /* \"#utility.yul\":20795:20801   */\n      dup3\n        /* \"#utility.yul\":20791:20806   */\n      add\n        /* \"#utility.yul\":20784:20817   */\n      mstore\n        /* \"#utility.yul\":20599:20824   */\n      pop\n      jump\t// out\n        /* \"#utility.yul\":20830:21196   */\n    tag_292:\n        /* \"#utility.yul\":20972:20975   */\n      0x00\n        /* \"#utility.yul\":20993:21060   */\n      tag_481\n        /* \"#utility.yul\":21057:21059   */\n      0x26\n        /* \"#utility.yul\":21052:21055   */\n      dup4\n        /* \"#utility.yul\":20993:21060   */\n      tag_277\n      jump\t// in\n    tag_481:\n        /* \"#utility.yul\":20986:21060   */\n      swap2\n      pop\n        /* \"#utility.yul\":21069:21162   */\n      tag_482\n        /* \"#utility.yul\":21158:21161   */\n      dup3\n        /* \"#utility.yul\":21069:21162   */\n      tag_291\n      jump\t// in\n    tag_482:\n        /* \"#utility.yul\":21187:21189   */\n      0x40\n        /* \"#utility.yul\":21182:21185   */\n      dup3\n        /* \"#utility.yul\":21178:21190   */\n      add\n        /* \"#utility.yul\":21171:21190   */\n      swap1\n      pop\n        /* \"#utility.yul\":20830:21196   */\n      swap2\n      swap1\n      pop\n      jump\t// out\n        /* \"#utility.yul\":21202:21621   */\n    tag_224:\n        /* \"#utility.yul\":21368:21372   */\n      0x00\n        /* \"#utility.yul\":21406:21408   */\n      0x20\n        /* \"#utility.yul\":21395:21404   */\n      dup3\n        /* \"#utility.yul\":21391:21409   */\n      add\n        /* \"#utility.yul\":21383:21409   */\n      swap1\n      pop\n        /* \"#utility.yul\":21455:21464   */\n      dup2\n        /* \"#utility.yul\":21449:21453   */\n      dup2\n        /* \"#utility.yul\":21445:21465   */\n      sub\n        /* \"#utility.yul\":21441:21442   */\n      0x00\n        /* \"#utility.yul\":21430:21439   */\n      dup4\n        /* \"#utility.yul\":21426:21443   */\n      add\n        /* \"#utility.yul\":21419:21466   */\n      mstore\n        /* \"#utility.yul\":21483:21614   */\n      tag_484\n        /* \"#utility.yul\":21609:21613   */\n      dup2\n        /* \"#utility.yul\":21483:21614   */\n      tag_292\n      jump\t// in\n    tag_484:\n        /* \"#utility.yul\":21475:21614   */\n      swap1\n      pop\n        /* \"#utility.yul\":21202:21621   */\n      swap2\n      swap1\n      pop\n      jump\t// out\n\n    auxdata: 0xa2646970667358221220c95b4e68f546c5d7f63b19be733f82436924b95beb4c4af91c65c1ab6910c22c64736f6c63430008090033\n}\n",
				"bytecode": {
					"linkReferences": {},
					"object": "6080604052600060025560006003553480156200001b57600080fd5b506200003c620000306200009260201b60201c565b6200009a60201b60201c565b6200004c6200009260201b60201c565b600160006101000a81548173ffffffffffffffffffffffffffffffffffffffff021916908373ffffffffffffffffffffffffffffffffffffffff1602179055506200015e565b600033905090565b60008060009054906101000a900473ffffffffffffffffffffffffffffffffffffffff169050816000806101000a81548173ffffffffffffffffffffffffffffffffffffffff021916908373ffffffffffffffffffffffffffffffffffffffff1602179055508173ffffffffffffffffffffffffffffffffffffffff168173ffffffffffffffffffffffffffffffffffffffff167f8be0079c531659141344cd1fd0a4f28419497f9722a3daafe3b4186f6b6457e060405160405180910390a35050565b6120b2806200016e6000396000f3fe608060405234801561001057600080fd5b50600436106100f55760003560e01c80638453489011610097578063caa9db8911610066578063caa9db89146102c8578063d4e3706a146102e6578063e98ce4441461031c578063f2fde38b1461033a576100f5565b806384534890146102195780638da5cb5b14610249578063985d8e0014610267578063aabc4b3c14610297576100f5565b806363db17a4116100d357806363db17a41461018d578063715018a6146101ab5780637ae996bd146101b55780637cb1c0d4146101e5576100f5565b80634f03c754146100fa578063511b4db71461012a578063551ee5701461015d575b600080fd5b610114600480360381019061010f919061161e565b610356565b6040516101219190611679565b60405180910390f35b610144600480360381019061013f9190611694565b6105e9565b60405161015494939291906116d0565b60405180910390f35b61017760048036038101906101729190611773565b610619565b6040516101849190611679565b60405180910390f35b6101956106e1565b6040516101a291906117a0565b60405180910390f35b6101b36106e7565b005b6101cf60048036038101906101ca91906117bb565b61076f565b6040516101dc91906117a0565b60405180910390f35b6101ff60048036038101906101fa9190611694565b61091a565b604051610210959493929190611931565b60405180910390f35b610233600480360381019061022e91906119ea565b61099c565b60405161024091906117a0565b60405180910390f35b610251610d3e565b60405161025e9190611ab5565b60405180910390f35b610281600480360381019061027c919061161e565b610d67565b60405161028e9190611679565b60405180910390f35b6102b160048036038101906102ac9190611694565b611039565b6040516102bf929190611ad0565b60405180910390f35b6102d0611073565b6040516102dd9190611ab5565b60405180910390f35b61030060048036038101906102fb9190611694565b611099565b6040516103139796959493929190611bb7565b60405180910390f35b6103246112cd565b60405161033191906117a0565b60405180910390f35b610354600480360381019061034f9190611773565b6112d3565b005b6000600160009054906101000a900473ffffffffffffffffffffffffffffffffffffffff1673ffffffffffffffffffffffffffffffffffffffff166103996113cb565b73ffffffffffffffffffffffffffffffffffffffff1614806103f457506103be610d3e565b73ffffffffffffffffffffffffffffffffffffffff166103dc6113cb565b73ffffffffffffffffffffffffffffffffffffffff16145b8061043157503273ffffffffffffffffffffffffffffffffffffffff16610419610d3e565b73ffffffffffffffffffffffffffffffffffffffff16145b610470576040517f08c379a000000000000000000000000000000000000000000000000000000000815260040161046790611cb7565b60405180910390fd5b610479836113d3565b6104b8576040517f08c379a00000000000000000000000000000000000000000000000000000000081526004016104af90611d49565b60405180910390fd5b60008260ff16101580156104d0575060028260ff1611155b61050f576040517f08c379a000000000000000000000000000000000000000000000000000000000815260040161050690611ddb565b60405180910390fd5b600060056000858152602001908152602001600020905060008360ff1614156105645760008160060160006101000a81548160ff0219169083600281111561055a57610559611872565b5b02179055506105de565b60018360ff1614156105a25760018160060160006101000a81548160ff0219169083600281111561059857610597611872565b5b02179055506105dd565b60028360ff1614156105dc5760028160060160006101000a81548160ff021916908360028111156105d6576105d5611872565b5b02179055505b5b5b600191505092915050565b60046020528060005260406000206000915090508060000154908060010154908060020154908060030154905084565b60006106236113cb565b73ffffffffffffffffffffffffffffffffffffffff16610641610d3e565b73ffffffffffffffffffffffffffffffffffffffff1614610697576040517f08c379a000000000000000000000000000000000000000000000000000000000815260040161068e90611e47565b60405180910390fd5b81600160006101000a81548173ffffffffffffffffffffffffffffffffffffffff021916908373ffffffffffffffffffffffffffffffffffffffff16021790555060019050919050565b60025481565b6106ef6113cb565b73ffffffffffffffffffffffffffffffffffffffff1661070d610d3e565b73ffffffffffffffffffffffffffffffffffffffff1614610763576040517f08c379a000000000000000000000000000000000000000000000000000000000815260040161075a90611e47565b60405180910390fd5b61076d6000611408565b565b6000600160009054906101000a900473ffffffffffffffffffffffffffffffffffffffff1673ffffffffffffffffffffffffffffffffffffffff166107b26113cb565b73ffffffffffffffffffffffffffffffffffffffff16148061080d57506107d7610d3e565b73ffffffffffffffffffffffffffffffffffffffff166107f56113cb565b73ffffffffffffffffffffffffffffffffffffffff16145b8061084a57503273ffffffffffffffffffffffffffffffffffffffff16610832610d3e565b73ffffffffffffffffffffffffffffffffffffffff16145b610889576040517f08c379a000000000000000000000000000000000000000000000000000000000815260040161088090611cb7565b60405180910390fd5b60006003549050600060405180608001604052808781526020018681526020014281526020018581525090508060046000848152602001908152602001600020600082015181600001556020820151816001015560408201518160020155606082015181600301559050506001600360008282546109079190611e96565b9250508190555081925050509392505050565b600560205280600052604060002060009150905080600001604051806080016040529081600082015481526020016001820154815260200160028201548152602001600382015481525050908060060160009054906101000a900460ff16908060060160019054906101000a900460ff16908060070154908060080154905085565b6000600160009054906101000a900473ffffffffffffffffffffffffffffffffffffffff1673ffffffffffffffffffffffffffffffffffffffff166109df6113cb565b73ffffffffffffffffffffffffffffffffffffffff161480610a3a5750610a04610d3e565b73ffffffffffffffffffffffffffffffffffffffff16610a226113cb565b73ffffffffffffffffffffffffffffffffffffffff16145b80610a7757503273ffffffffffffffffffffffffffffffffffffffff16610a5f610d3e565b73ffffffffffffffffffffffffffffffffffffffff16145b610ab6576040517f08c379a0000000000000000000000000000000000000000000000000000000008152600401610aad90611cb7565b60405180910390fd5b610abf886114cc565b610afe576040517f08c379a0000000000000000000000000000000000000000000000000000000008152600401610af590611f38565b60405180910390fd5b60025490506040518060e00160405280600460008b81526020019081526020016000206040518060800160405290816000820154815260200160018201548152602001600282015481526020016003820154815250508152602001888880806020026020016040519081016040528093929190818152602001838360200280828437600081840152601f19601f820116905080830192505050505050508152602001868680806020026020016040519081016040528093929190818152602001838360200280828437600081840152601f19601f82011690508083019250505050505050815260200160006002811115610bfb57610bfa611872565b5b8152602001600380811115610c1357610c12611872565b5b815260200184815260200183815250600560008381526020019081526020016000206000820151816000016000820151816000015560208201518160010155604082015181600201556060820151816003015550506020820151816004019080519060200190610c849291906114fe565b506040820151816005019080519060200190610ca19291906114fe565b5060608201518160060160006101000a81548160ff02191690836002811115610ccd57610ccc611872565b5b021790555060808201518160060160016101000a81548160ff02191690836003811115610cfd57610cfc611872565b5b021790555060a0820151816007015560c08201518160080155905050600160026000828254610d2c9190611e96565b92505081905550979650505050505050565b60008060009054906101000a900473ffffffffffffffffffffffffffffffffffffffff16905090565b6000600160009054906101000a900473ffffffffffffffffffffffffffffffffffffffff1673ffffffffffffffffffffffffffffffffffffffff16610daa6113cb565b73ffffffffffffffffffffffffffffffffffffffff161480610e055750610dcf610d3e565b73ffffffffffffffffffffffffffffffffffffffff16610ded6113cb565b73ffffffffffffffffffffffffffffffffffffffff16145b80610e4257503273ffffffffffffffffffffffffffffffffffffffff16610e2a610d3e565b73ffffffffffffffffffffffffffffffffffffffff16145b610e81576040517f08c379a0000000000000000000000000000000000000000000000000000000008152600401610e7890611cb7565b60405180910390fd5b610e8a836113d3565b610ec9576040517f08c379a0000000000000000000000000000000000000000000000000000000008152600401610ec090611d49565b60405180910390fd5b60008260ff1610158015610ee1575060038260ff1611155b610f20576040517f08c379a0000000000000000000000000000000000000000000000000000000008152600401610f1790611fca565b60405180910390fd5b600060056000858152602001908152602001600020905060008360ff161415610f755760008160060160016101000a81548160ff02191690836003811115610f6b57610f6a611872565b5b021790555061102e565b60018360ff161415610fb35760018160060160016101000a81548160ff02191690836003811115610fa957610fa8611872565b5b021790555061102d565b60028360ff161415610ff15760028160060160016101000a81548160ff02191690836003811115610fe757610fe6611872565b5b021790555061102c565b60038360ff16141561102b5760038160060160016101000a81548160ff0219169083600381111561102557611024611872565b5b02179055505b5b5b5b600191505092915050565b6000806004600084815260200190815260200160002060000154600460008581526020019081526020016000206001015491509150915091565b600160009054906101000a900473ffffffffffffffffffffffffffffffffffffffff1681565b600080606080600080600080600560008a815260200190815260200160002060000160405180608001604052908160008201548152602001600182015481526020016002820154815260200160038201548152505090508060000151975080602001519650600560008a815260200190815260200160002060040180548060200260200160405190810160405280929190818152602001828054801561119457602002820191906000526020600020905b8160009054906101000a900473ffffffffffffffffffffffffffffffffffffffff1673ffffffffffffffffffffffffffffffffffffffff168152602001906001019080831161114a575b50505050509550600560008a815260200190815260200160002060050180548060200260200160405190810160405280929190818152602001828054801561123157602002820191906000526020600020905b8160009054906101000a900473ffffffffffffffffffffffffffffffffffffffff1673ffffffffffffffffffffffffffffffffffffffff16815260200190600101908083116111e7575b50505050509450600560008a815260200190815260200160002060060160009054906101000a900460ff16600281111561126e5761126d611872565b5b9350600560008a815260200190815260200160002060060160019054906101000a900460ff1660038111156112a6576112a5611872565b5b9250600560008a815260200190815260200160002060070154915050919395979092949650565b60035481565b6112db6113cb565b73ffffffffffffffffffffffffffffffffffffffff166112f9610d3e565b73ffffffffffffffffffffffffffffffffffffffff161461134f576040517f08c379a000000000000000000000000000000000000000000000000000000000815260040161134690611e47565b60405180910390fd5b600073ffffffffffffffffffffffffffffffffffffffff168173ffffffffffffffffffffffffffffffffffffffff1614156113bf576040517f08c379a00000000000000000000000000000000000000000000000000000000081526004016113b69061205c565b60405180910390fd5b6113c881611408565b50565b600033905090565b6000806005600084815260200190815260200160002060040180549050146113fe5760019050611403565b600090505b919050565b60008060009054906101000a900473ffffffffffffffffffffffffffffffffffffffff169050816000806101000a81548173ffffffffffffffffffffffffffffffffffffffff021916908373ffffffffffffffffffffffffffffffffffffffff1602179055508173ffffffffffffffffffffffffffffffffffffffff168173ffffffffffffffffffffffffffffffffffffffff167f8be0079c531659141344cd1fd0a4f28419497f9722a3daafe3b4186f6b6457e060405160405180910390a35050565b6000806004600084815260200190815260200160002060020154146114f457600190506114f9565b600090505b919050565b828054828255906000526020600020908101928215611577579160200282015b828111156115765782518260006101000a81548173ffffffffffffffffffffffffffffffffffffffff021916908373ffffffffffffffffffffffffffffffffffffffff1602179055509160200191906001019061151e565b5b5090506115849190611588565b5090565b5b808211156115a1576000816000905550600101611589565b5090565b600080fd5b600080fd5b6000819050919050565b6115c2816115af565b81146115cd57600080fd5b50565b6000813590506115df816115b9565b92915050565b600060ff82169050919050565b6115fb816115e5565b811461160657600080fd5b50565b600081359050611618816115f2565b92915050565b60008060408385031215611635576116346115a5565b5b6000611643858286016115d0565b925050602061165485828601611609565b9150509250929050565b60008115159050919050565b6116738161165e565b82525050565b600060208201905061168e600083018461166a565b92915050565b6000602082840312156116aa576116a96115a5565b5b60006116b8848285016115d0565b91505092915050565b6116ca816115af565b82525050565b60006080820190506116e560008301876116c1565b6116f260208301866116c1565b6116ff60408301856116c1565b61170c60608301846116c1565b95945050505050565b600073ffffffffffffffffffffffffffffffffffffffff82169050919050565b600061174082611715565b9050919050565b61175081611735565b811461175b57600080fd5b50565b60008135905061176d81611747565b92915050565b600060208284031215611789576117886115a5565b5b60006117978482850161175e565b91505092915050565b60006020820190506117b560008301846116c1565b92915050565b6000806000606084860312156117d4576117d36115a5565b5b60006117e2868287016115d0565b93505060206117f3868287016115d0565b9250506040611804868287016115d0565b9150509250925092565b611817816115af565b82525050565b608082016000820151611833600085018261180e565b506020820151611846602085018261180e565b506040820151611859604085018261180e565b50606082015161186c606085018261180e565b50505050565b7f4e487b7100000000000000000000000000000000000000000000000000000000600052602160045260246000fd5b600381106118b2576118b1611872565b5b50565b60008190506118c3826118a1565b919050565b60006118d3826118b5565b9050919050565b6118e3816118c8565b82525050565b600481106118fa576118f9611872565b5b50565b600081905061190b826118e9565b919050565b600061191b826118fd565b9050919050565b61192b81611910565b82525050565b600061010082019050611947600083018861181d565b61195460808301876118da565b61196160a0830186611922565b61196e60c08301856116c1565b61197b60e08301846116c1565b9695505050505050565b600080fd5b600080fd5b600080fd5b60008083601f8401126119aa576119a9611985565b5b8235905067ffffffffffffffff8111156119c7576119c661198a565b5b6020830191508360208202830111156119e3576119e261198f565b5b9250929050565b600080600080600080600060a0888a031215611a0957611a086115a5565b5b6000611a178a828b016115d0565b975050602088013567ffffffffffffffff811115611a3857611a376115aa565b5b611a448a828b01611994565b9650965050604088013567ffffffffffffffff811115611a6757611a666115aa565b5b611a738a828b01611994565b94509450506060611a868a828b016115d0565b9250506080611a978a828b016115d0565b91505092959891949750929550565b611aaf81611735565b82525050565b6000602082019050611aca6000830184611aa6565b92915050565b6000604082019050611ae560008301856116c1565b611af260208301846116c1565b9392505050565b600081519050919050565b600082825260208201905092915050565b6000819050602082019050919050565b611b2e81611735565b82525050565b6000611b408383611b25565b60208301905092915050565b6000602082019050919050565b6000611b6482611af9565b611b6e8185611b04565b9350611b7983611b15565b8060005b83811015611baa578151611b918882611b34565b9750611b9c83611b4c565b925050600181019050611b7d565b5085935050505092915050565b600060e082019050611bcc600083018a6116c1565b611bd960208301896116c1565b8181036040830152611beb8188611b59565b90508181036060830152611bff8187611b59565b9050611c0e60808301866116c1565b611c1b60a08301856116c1565b611c2860c08301846116c1565b98975050505050505050565b600082825260208201905092915050565b7f546f2063616c6c2074686973206d6574686f6420796f75206861766520746f2060008201527f6265206f776e6572206f722073756241646d696e210000000000000000000000602082015250565b6000611ca1603583611c34565b9150611cac82611c45565b604082019050919050565b60006020820190508181036000830152611cd081611c94565b9050919050565b7f63616e27742066696e6420636f6d706574696f6e20776974682074686973206360008201527f6f6d706574696f6e496421000000000000000000000000000000000000000000602082015250565b6000611d33602b83611c34565b9150611d3e82611cd7565b604082019050919050565b60006020820190508181036000830152611d6281611d26565b9050919050565b7f737461747573206e65656420746f20626520736f6d74696e672062657477656560008201527f6e203020746f2032000000000000000000000000000000000000000000000000602082015250565b6000611dc5602883611c34565b9150611dd082611d69565b604082019050919050565b60006020820190508181036000830152611df481611db8565b9050919050565b7f4f776e61626c653a2063616c6c6572206973206e6f7420746865206f776e6572600082015250565b6000611e31602083611c34565b9150611e3c82611dfb565b602082019050919050565b60006020820190508181036000830152611e6081611e24565b9050919050565b7f4e487b7100000000000000000000000000000000000000000000000000000000600052601160045260246000fd5b6000611ea1826115af565b9150611eac836115af565b9250827fffffffffffffffffffffffffffffffffffffffffffffffffffffffffffffffff03821115611ee157611ee0611e67565b5b828201905092915050565b7f63616e27742066696e6420707265736574207769746820746869732069642100600082015250565b6000611f22601f83611c34565b9150611f2d82611eec565b602082019050919050565b60006020820190508181036000830152611f5181611f15565b9050919050565b7f77696e6e6572206e65656420746f20626520736f6d74696e672062657477656560008201527f6e203020746f2033000000000000000000000000000000000000000000000000602082015250565b6000611fb4602883611c34565b9150611fbf82611f58565b604082019050919050565b60006020820190508181036000830152611fe381611fa7565b9050919050565b7f4f776e61626c653a206e6577206f776e657220697320746865207a65726f206160008201527f6464726573730000000000000000000000000000000000000000000000000000602082015250565b6000612046602683611c34565b915061205182611fea565b604082019050919050565b6000602082019050818103600083015261207581612039565b905091905056fea2646970667358221220c95b4e68f546c5d7f63b19be733f82436924b95beb4c4af91c65c1ab6910c22c64736f6c63430008090033",
					"opcodes": "PUSH1 0x80 PUSH1 0x40 MSTORE PUSH1 0x0 PUSH1 0x2 SSTORE PUSH1 0x0 PUSH1 0x3 SSTORE CALLVALUE DUP1 ISZERO PUSH3 0x1B JUMPI PUSH1 0x0 DUP1 REVERT JUMPDEST POP PUSH3 0x3C PUSH3 0x30 PUSH3 0x92 PUSH1 0x20 SHL PUSH1 0x20 SHR JUMP JUMPDEST PUSH3 0x9A PUSH1 0x20 SHL PUSH1 0x20 SHR JUMP JUMPDEST PUSH3 0x4C PUSH3 0x92 PUSH1 0x20 SHL PUSH1 0x20 SHR JUMP JUMPDEST PUSH1 0x1 PUSH1 0x0 PUSH2 0x100 EXP DUP2 SLOAD DUP2 PUSH20 0xFFFFFFFFFFFFFFFFFFFFFFFFFFFFFFFFFFFFFFFF MUL NOT AND SWAP1 DUP4 PUSH20 0xFFFFFFFFFFFFFFFFFFFFFFFFFFFFFFFFFFFFFFFF AND MUL OR SWAP1 SSTORE POP PUSH3 0x15E JUMP JUMPDEST PUSH1 0x0 CALLER SWAP1 POP SWAP1 JUMP JUMPDEST PUSH1 0x0 DUP1 PUSH1 0x0 SWAP1 SLOAD SWAP1 PUSH2 0x100 EXP SWAP1 DIV PUSH20 0xFFFFFFFFFFFFFFFFFFFFFFFFFFFFFFFFFFFFFFFF AND SWAP1 POP DUP2 PUSH1 0x0 DUP1 PUSH2 0x100 EXP DUP2 SLOAD DUP2 PUSH20 0xFFFFFFFFFFFFFFFFFFFFFFFFFFFFFFFFFFFFFFFF MUL NOT AND SWAP1 DUP4 PUSH20 0xFFFFFFFFFFFFFFFFFFFFFFFFFFFFFFFFFFFFFFFF AND MUL OR SWAP1 SSTORE POP DUP2 PUSH20 0xFFFFFFFFFFFFFFFFFFFFFFFFFFFFFFFFFFFFFFFF AND DUP2 PUSH20 0xFFFFFFFFFFFFFFFFFFFFFFFFFFFFFFFFFFFFFFFF AND PUSH32 0x8BE0079C531659141344CD1FD0A4F28419497F9722A3DAAFE3B4186F6B6457E0 PUSH1 0x40 MLOAD PUSH1 0x40 MLOAD DUP1 SWAP2 SUB SWAP1 LOG3 POP POP JUMP JUMPDEST PUSH2 0x20B2 DUP1 PUSH3 0x16E PUSH1 0x0 CODECOPY PUSH1 0x0 RETURN INVALID PUSH1 0x80 PUSH1 0x40 MSTORE CALLVALUE DUP1 ISZERO PUSH2 0x10 JUMPI PUSH1 0x0 DUP1 REVERT JUMPDEST POP PUSH1 0x4 CALLDATASIZE LT PUSH2 0xF5 JUMPI PUSH1 0x0 CALLDATALOAD PUSH1 0xE0 SHR DUP1 PUSH4 0x84534890 GT PUSH2 0x97 JUMPI DUP1 PUSH4 0xCAA9DB89 GT PUSH2 0x66 JUMPI DUP1 PUSH4 0xCAA9DB89 EQ PUSH2 0x2C8 JUMPI DUP1 PUSH4 0xD4E3706A EQ PUSH2 0x2E6 JUMPI DUP1 PUSH4 0xE98CE444 EQ PUSH2 0x31C JUMPI DUP1 PUSH4 0xF2FDE38B EQ PUSH2 0x33A JUMPI PUSH2 0xF5 JUMP JUMPDEST DUP1 PUSH4 0x84534890 EQ PUSH2 0x219 JUMPI DUP1 PUSH4 0x8DA5CB5B EQ PUSH2 0x249 JUMPI DUP1 PUSH4 0x985D8E00 EQ PUSH2 0x267 JUMPI DUP1 PUSH4 0xAABC4B3C EQ PUSH2 0x297 JUMPI PUSH2 0xF5 JUMP JUMPDEST DUP1 PUSH4 0x63DB17A4 GT PUSH2 0xD3 JUMPI DUP1 PUSH4 0x63DB17A4 EQ PUSH2 0x18D JUMPI DUP1 PUSH4 0x715018A6 EQ PUSH2 0x1AB JUMPI DUP1 PUSH4 0x7AE996BD EQ PUSH2 0x1B5 JUMPI DUP1 PUSH4 0x7CB1C0D4 EQ PUSH2 0x1E5 JUMPI PUSH2 0xF5 JUMP JUMPDEST DUP1 PUSH4 0x4F03C754 EQ PUSH2 0xFA JUMPI DUP1 PUSH4 0x511B4DB7 EQ PUSH2 0x12A JUMPI DUP1 PUSH4 0x551EE570 EQ PUSH2 0x15D JUMPI JUMPDEST PUSH1 0x0 DUP1 REVERT JUMPDEST PUSH2 0x114 PUSH1 0x4 DUP1 CALLDATASIZE SUB DUP2 ADD SWAP1 PUSH2 0x10F SWAP2 SWAP1 PUSH2 0x161E JUMP JUMPDEST PUSH2 0x356 JUMP JUMPDEST PUSH1 0x40 MLOAD PUSH2 0x121 SWAP2 SWAP1 PUSH2 0x1679 JUMP JUMPDEST PUSH1 0x40 MLOAD DUP1 SWAP2 SUB SWAP1 RETURN JUMPDEST PUSH2 0x144 PUSH1 0x4 DUP1 CALLDATASIZE SUB DUP2 ADD SWAP1 PUSH2 0x13F SWAP2 SWAP1 PUSH2 0x1694 JUMP JUMPDEST PUSH2 0x5E9 JUMP JUMPDEST PUSH1 0x40 MLOAD PUSH2 0x154 SWAP5 SWAP4 SWAP3 SWAP2 SWAP1 PUSH2 0x16D0 JUMP JUMPDEST PUSH1 0x40 MLOAD DUP1 SWAP2 SUB SWAP1 RETURN JUMPDEST PUSH2 0x177 PUSH1 0x4 DUP1 CALLDATASIZE SUB DUP2 ADD SWAP1 PUSH2 0x172 SWAP2 SWAP1 PUSH2 0x1773 JUMP JUMPDEST PUSH2 0x619 JUMP JUMPDEST PUSH1 0x40 MLOAD PUSH2 0x184 SWAP2 SWAP1 PUSH2 0x1679 JUMP JUMPDEST PUSH1 0x40 MLOAD DUP1 SWAP2 SUB SWAP1 RETURN JUMPDEST PUSH2 0x195 PUSH2 0x6E1 JUMP JUMPDEST PUSH1 0x40 MLOAD PUSH2 0x1A2 SWAP2 SWAP1 PUSH2 0x17A0 JUMP JUMPDEST PUSH1 0x40 MLOAD DUP1 SWAP2 SUB SWAP1 RETURN JUMPDEST PUSH2 0x1B3 PUSH2 0x6E7 JUMP JUMPDEST STOP JUMPDEST PUSH2 0x1CF PUSH1 0x4 DUP1 CALLDATASIZE SUB DUP2 ADD SWAP1 PUSH2 0x1CA SWAP2 SWAP1 PUSH2 0x17BB JUMP JUMPDEST PUSH2 0x76F JUMP JUMPDEST PUSH1 0x40 MLOAD PUSH2 0x1DC SWAP2 SWAP1 PUSH2 0x17A0 JUMP JUMPDEST PUSH1 0x40 MLOAD DUP1 SWAP2 SUB SWAP1 RETURN JUMPDEST PUSH2 0x1FF PUSH1 0x4 DUP1 CALLDATASIZE SUB DUP2 ADD SWAP1 PUSH2 0x1FA SWAP2 SWAP1 PUSH2 0x1694 JUMP JUMPDEST PUSH2 0x91A JUMP JUMPDEST PUSH1 0x40 MLOAD PUSH2 0x210 SWAP6 SWAP5 SWAP4 SWAP3 SWAP2 SWAP1 PUSH2 0x1931 JUMP JUMPDEST PUSH1 0x40 MLOAD DUP1 SWAP2 SUB SWAP1 RETURN JUMPDEST PUSH2 0x233 PUSH1 0x4 DUP1 CALLDATASIZE SUB DUP2 ADD SWAP1 PUSH2 0x22E SWAP2 SWAP1 PUSH2 0x19EA JUMP JUMPDEST PUSH2 0x99C JUMP JUMPDEST PUSH1 0x40 MLOAD PUSH2 0x240 SWAP2 SWAP1 PUSH2 0x17A0 JUMP JUMPDEST PUSH1 0x40 MLOAD DUP1 SWAP2 SUB SWAP1 RETURN JUMPDEST PUSH2 0x251 PUSH2 0xD3E JUMP JUMPDEST PUSH1 0x40 MLOAD PUSH2 0x25E SWAP2 SWAP1 PUSH2 0x1AB5 JUMP JUMPDEST PUSH1 0x40 MLOAD DUP1 SWAP2 SUB SWAP1 RETURN JUMPDEST PUSH2 0x281 PUSH1 0x4 DUP1 CALLDATASIZE SUB DUP2 ADD SWAP1 PUSH2 0x27C SWAP2 SWAP1 PUSH2 0x161E JUMP JUMPDEST PUSH2 0xD67 JUMP JUMPDEST PUSH1 0x40 MLOAD PUSH2 0x28E SWAP2 SWAP1 PUSH2 0x1679 JUMP JUMPDEST PUSH1 0x40 MLOAD DUP1 SWAP2 SUB SWAP1 RETURN JUMPDEST PUSH2 0x2B1 PUSH1 0x4 DUP1 CALLDATASIZE SUB DUP2 ADD SWAP1 PUSH2 0x2AC SWAP2 SWAP1 PUSH2 0x1694 JUMP JUMPDEST PUSH2 0x1039 JUMP JUMPDEST PUSH1 0x40 MLOAD PUSH2 0x2BF SWAP3 SWAP2 SWAP1 PUSH2 0x1AD0 JUMP JUMPDEST PUSH1 0x40 MLOAD DUP1 SWAP2 SUB SWAP1 RETURN JUMPDEST PUSH2 0x2D0 PUSH2 0x1073 JUMP JUMPDEST PUSH1 0x40 MLOAD PUSH2 0x2DD SWAP2 SWAP1 PUSH2 0x1AB5 JUMP JUMPDEST PUSH1 0x40 MLOAD DUP1 SWAP2 SUB SWAP1 RETURN JUMPDEST PUSH2 0x300 PUSH1 0x4 DUP1 CALLDATASIZE SUB DUP2 ADD SWAP1 PUSH2 0x2FB SWAP2 SWAP1 PUSH2 0x1694 JUMP JUMPDEST PUSH2 0x1099 JUMP JUMPDEST PUSH1 0x40 MLOAD PUSH2 0x313 SWAP8 SWAP7 SWAP6 SWAP5 SWAP4 SWAP3 SWAP2 SWAP1 PUSH2 0x1BB7 JUMP JUMPDEST PUSH1 0x40 MLOAD DUP1 SWAP2 SUB SWAP1 RETURN JUMPDEST PUSH2 0x324 PUSH2 0x12CD JUMP JUMPDEST PUSH1 0x40 MLOAD PUSH2 0x331 SWAP2 SWAP1 PUSH2 0x17A0 JUMP JUMPDEST PUSH1 0x40 MLOAD DUP1 SWAP2 SUB SWAP1 RETURN JUMPDEST PUSH2 0x354 PUSH1 0x4 DUP1 CALLDATASIZE SUB DUP2 ADD SWAP1 PUSH2 0x34F SWAP2 SWAP1 PUSH2 0x1773 JUMP JUMPDEST PUSH2 0x12D3 JUMP JUMPDEST STOP JUMPDEST PUSH1 0x0 PUSH1 0x1 PUSH1 0x0 SWAP1 SLOAD SWAP1 PUSH2 0x100 EXP SWAP1 DIV PUSH20 0xFFFFFFFFFFFFFFFFFFFFFFFFFFFFFFFFFFFFFFFF AND PUSH20 0xFFFFFFFFFFFFFFFFFFFFFFFFFFFFFFFFFFFFFFFF AND PUSH2 0x399 PUSH2 0x13CB JUMP JUMPDEST PUSH20 0xFFFFFFFFFFFFFFFFFFFFFFFFFFFFFFFFFFFFFFFF AND EQ DUP1 PUSH2 0x3F4 JUMPI POP PUSH2 0x3BE PUSH2 0xD3E JUMP JUMPDEST PUSH20 0xFFFFFFFFFFFFFFFFFFFFFFFFFFFFFFFFFFFFFFFF AND PUSH2 0x3DC PUSH2 0x13CB JUMP JUMPDEST PUSH20 0xFFFFFFFFFFFFFFFFFFFFFFFFFFFFFFFFFFFFFFFF AND EQ JUMPDEST DUP1 PUSH2 0x431 JUMPI POP ORIGIN PUSH20 0xFFFFFFFFFFFFFFFFFFFFFFFFFFFFFFFFFFFFFFFF AND PUSH2 0x419 PUSH2 0xD3E JUMP JUMPDEST PUSH20 0xFFFFFFFFFFFFFFFFFFFFFFFFFFFFFFFFFFFFFFFF AND EQ JUMPDEST PUSH2 0x470 JUMPI PUSH1 0x40 MLOAD PUSH32 0x8C379A000000000000000000000000000000000000000000000000000000000 DUP2 MSTORE PUSH1 0x4 ADD PUSH2 0x467 SWAP1 PUSH2 0x1CB7 JUMP JUMPDEST PUSH1 0x40 MLOAD DUP1 SWAP2 SUB SWAP1 REVERT JUMPDEST PUSH2 0x479 DUP4 PUSH2 0x13D3 JUMP JUMPDEST PUSH2 0x4B8 JUMPI PUSH1 0x40 MLOAD PUSH32 0x8C379A000000000000000000000000000000000000000000000000000000000 DUP2 MSTORE PUSH1 0x4 ADD PUSH2 0x4AF SWAP1 PUSH2 0x1D49 JUMP JUMPDEST PUSH1 0x40 MLOAD DUP1 SWAP2 SUB SWAP1 REVERT JUMPDEST PUSH1 0x0 DUP3 PUSH1 0xFF AND LT ISZERO DUP1 ISZERO PUSH2 0x4D0 JUMPI POP PUSH1 0x2 DUP3 PUSH1 0xFF AND GT ISZERO JUMPDEST PUSH2 0x50F JUMPI PUSH1 0x40 MLOAD PUSH32 0x8C379A000000000000000000000000000000000000000000000000000000000 DUP2 MSTORE PUSH1 0x4 ADD PUSH2 0x506 SWAP1 PUSH2 0x1DDB JUMP JUMPDEST PUSH1 0x40 MLOAD DUP1 SWAP2 SUB SWAP1 REVERT JUMPDEST PUSH1 0x0 PUSH1 0x5 PUSH1 0x0 DUP6 DUP2 MSTORE PUSH1 0x20 ADD SWAP1 DUP2 MSTORE PUSH1 0x20 ADD PUSH1 0x0 KECCAK256 SWAP1 POP PUSH1 0x0 DUP4 PUSH1 0xFF AND EQ ISZERO PUSH2 0x564 JUMPI PUSH1 0x0 DUP2 PUSH1 0x6 ADD PUSH1 0x0 PUSH2 0x100 EXP DUP2 SLOAD DUP2 PUSH1 0xFF MUL NOT AND SWAP1 DUP4 PUSH1 0x2 DUP2 GT ISZERO PUSH2 0x55A JUMPI PUSH2 0x559 PUSH2 0x1872 JUMP JUMPDEST JUMPDEST MUL OR SWAP1 SSTORE POP PUSH2 0x5DE JUMP JUMPDEST PUSH1 0x1 DUP4 PUSH1 0xFF AND EQ ISZERO PUSH2 0x5A2 JUMPI PUSH1 0x1 DUP2 PUSH1 0x6 ADD PUSH1 0x0 PUSH2 0x100 EXP DUP2 SLOAD DUP2 PUSH1 0xFF MUL NOT AND SWAP1 DUP4 PUSH1 0x2 DUP2 GT ISZERO PUSH2 0x598 JUMPI PUSH2 0x597 PUSH2 0x1872 JUMP JUMPDEST JUMPDEST MUL OR SWAP1 SSTORE POP PUSH2 0x5DD JUMP JUMPDEST PUSH1 0x2 DUP4 PUSH1 0xFF AND EQ ISZERO PUSH2 0x5DC JUMPI PUSH1 0x2 DUP2 PUSH1 0x6 ADD PUSH1 0x0 PUSH2 0x100 EXP DUP2 SLOAD DUP2 PUSH1 0xFF MUL NOT AND SWAP1 DUP4 PUSH1 0x2 DUP2 GT ISZERO PUSH2 0x5D6 JUMPI PUSH2 0x5D5 PUSH2 0x1872 JUMP JUMPDEST JUMPDEST MUL OR SWAP1 SSTORE POP JUMPDEST JUMPDEST JUMPDEST PUSH1 0x1 SWAP2 POP POP SWAP3 SWAP2 POP POP JUMP JUMPDEST PUSH1 0x4 PUSH1 0x20 MSTORE DUP1 PUSH1 0x0 MSTORE PUSH1 0x40 PUSH1 0x0 KECCAK256 PUSH1 0x0 SWAP2 POP SWAP1 POP DUP1 PUSH1 0x0 ADD SLOAD SWAP1 DUP1 PUSH1 0x1 ADD SLOAD SWAP1 DUP1 PUSH1 0x2 ADD SLOAD SWAP1 DUP1 PUSH1 0x3 ADD SLOAD SWAP1 POP DUP5 JUMP JUMPDEST PUSH1 0x0 PUSH2 0x623 PUSH2 0x13CB JUMP JUMPDEST PUSH20 0xFFFFFFFFFFFFFFFFFFFFFFFFFFFFFFFFFFFFFFFF AND PUSH2 0x641 PUSH2 0xD3E JUMP JUMPDEST PUSH20 0xFFFFFFFFFFFFFFFFFFFFFFFFFFFFFFFFFFFFFFFF AND EQ PUSH2 0x697 JUMPI PUSH1 0x40 MLOAD PUSH32 0x8C379A000000000000000000000000000000000000000000000000000000000 DUP2 MSTORE PUSH1 0x4 ADD PUSH2 0x68E SWAP1 PUSH2 0x1E47 JUMP JUMPDEST PUSH1 0x40 MLOAD DUP1 SWAP2 SUB SWAP1 REVERT JUMPDEST DUP2 PUSH1 0x1 PUSH1 0x0 PUSH2 0x100 EXP DUP2 SLOAD DUP2 PUSH20 0xFFFFFFFFFFFFFFFFFFFFFFFFFFFFFFFFFFFFFFFF MUL NOT AND SWAP1 DUP4 PUSH20 0xFFFFFFFFFFFFFFFFFFFFFFFFFFFFFFFFFFFFFFFF AND MUL OR SWAP1 SSTORE POP PUSH1 0x1 SWAP1 POP SWAP2 SWAP1 POP JUMP JUMPDEST PUSH1 0x2 SLOAD DUP2 JUMP JUMPDEST PUSH2 0x6EF PUSH2 0x13CB JUMP JUMPDEST PUSH20 0xFFFFFFFFFFFFFFFFFFFFFFFFFFFFFFFFFFFFFFFF AND PUSH2 0x70D PUSH2 0xD3E JUMP JUMPDEST PUSH20 0xFFFFFFFFFFFFFFFFFFFFFFFFFFFFFFFFFFFFFFFF AND EQ PUSH2 0x763 JUMPI PUSH1 0x40 MLOAD PUSH32 0x8C379A000000000000000000000000000000000000000000000000000000000 DUP2 MSTORE PUSH1 0x4 ADD PUSH2 0x75A SWAP1 PUSH2 0x1E47 JUMP JUMPDEST PUSH1 0x40 MLOAD DUP1 SWAP2 SUB SWAP1 REVERT JUMPDEST PUSH2 0x76D PUSH1 0x0 PUSH2 0x1408 JUMP JUMPDEST JUMP JUMPDEST PUSH1 0x0 PUSH1 0x1 PUSH1 0x0 SWAP1 SLOAD SWAP1 PUSH2 0x100 EXP SWAP1 DIV PUSH20 0xFFFFFFFFFFFFFFFFFFFFFFFFFFFFFFFFFFFFFFFF AND PUSH20 0xFFFFFFFFFFFFFFFFFFFFFFFFFFFFFFFFFFFFFFFF AND PUSH2 0x7B2 PUSH2 0x13CB JUMP JUMPDEST PUSH20 0xFFFFFFFFFFFFFFFFFFFFFFFFFFFFFFFFFFFFFFFF AND EQ DUP1 PUSH2 0x80D JUMPI POP PUSH2 0x7D7 PUSH2 0xD3E JUMP JUMPDEST PUSH20 0xFFFFFFFFFFFFFFFFFFFFFFFFFFFFFFFFFFFFFFFF AND PUSH2 0x7F5 PUSH2 0x13CB JUMP JUMPDEST PUSH20 0xFFFFFFFFFFFFFFFFFFFFFFFFFFFFFFFFFFFFFFFF AND EQ JUMPDEST DUP1 PUSH2 0x84A JUMPI POP ORIGIN PUSH20 0xFFFFFFFFFFFFFFFFFFFFFFFFFFFFFFFFFFFFFFFF AND PUSH2 0x832 PUSH2 0xD3E JUMP JUMPDEST PUSH20 0xFFFFFFFFFFFFFFFFFFFFFFFFFFFFFFFFFFFFFFFF AND EQ JUMPDEST PUSH2 0x889 JUMPI PUSH1 0x40 MLOAD PUSH32 0x8C379A000000000000000000000000000000000000000000000000000000000 DUP2 MSTORE PUSH1 0x4 ADD PUSH2 0x880 SWAP1 PUSH2 0x1CB7 JUMP JUMPDEST PUSH1 0x40 MLOAD DUP1 SWAP2 SUB SWAP1 REVERT JUMPDEST PUSH1 0x0 PUSH1 0x3 SLOAD SWAP1 POP PUSH1 0x0 PUSH1 0x40 MLOAD DUP1 PUSH1 0x80 ADD PUSH1 0x40 MSTORE DUP1 DUP8 DUP2 MSTORE PUSH1 0x20 ADD DUP7 DUP2 MSTORE PUSH1 0x20 ADD TIMESTAMP DUP2 MSTORE PUSH1 0x20 ADD DUP6 DUP2 MSTORE POP SWAP1 POP DUP1 PUSH1 0x4 PUSH1 0x0 DUP5 DUP2 MSTORE PUSH1 0x20 ADD SWAP1 DUP2 MSTORE PUSH1 0x20 ADD PUSH1 0x0 KECCAK256 PUSH1 0x0 DUP3 ADD MLOAD DUP2 PUSH1 0x0 ADD SSTORE PUSH1 0x20 DUP3 ADD MLOAD DUP2 PUSH1 0x1 ADD SSTORE PUSH1 0x40 DUP3 ADD MLOAD DUP2 PUSH1 0x2 ADD SSTORE PUSH1 0x60 DUP3 ADD MLOAD DUP2 PUSH1 0x3 ADD SSTORE SWAP1 POP POP PUSH1 0x1 PUSH1 0x3 PUSH1 0x0 DUP3 DUP3 SLOAD PUSH2 0x907 SWAP2 SWAP1 PUSH2 0x1E96 JUMP JUMPDEST SWAP3 POP POP DUP2 SWAP1 SSTORE POP DUP2 SWAP3 POP POP POP SWAP4 SWAP3 POP POP POP JUMP JUMPDEST PUSH1 0x5 PUSH1 0x20 MSTORE DUP1 PUSH1 0x0 MSTORE PUSH1 0x40 PUSH1 0x0 KECCAK256 PUSH1 0x0 SWAP2 POP SWAP1 POP DUP1 PUSH1 0x0 ADD PUSH1 0x40 MLOAD DUP1 PUSH1 0x80 ADD PUSH1 0x40 MSTORE SWAP1 DUP2 PUSH1 0x0 DUP3 ADD SLOAD DUP2 MSTORE PUSH1 0x20 ADD PUSH1 0x1 DUP3 ADD SLOAD DUP2 MSTORE PUSH1 0x20 ADD PUSH1 0x2 DUP3 ADD SLOAD DUP2 MSTORE PUSH1 0x20 ADD PUSH1 0x3 DUP3 ADD SLOAD DUP2 MSTORE POP POP SWAP1 DUP1 PUSH1 0x6 ADD PUSH1 0x0 SWAP1 SLOAD SWAP1 PUSH2 0x100 EXP SWAP1 DIV PUSH1 0xFF AND SWAP1 DUP1 PUSH1 0x6 ADD PUSH1 0x1 SWAP1 SLOAD SWAP1 PUSH2 0x100 EXP SWAP1 DIV PUSH1 0xFF AND SWAP1 DUP1 PUSH1 0x7 ADD SLOAD SWAP1 DUP1 PUSH1 0x8 ADD SLOAD SWAP1 POP DUP6 JUMP JUMPDEST PUSH1 0x0 PUSH1 0x1 PUSH1 0x0 SWAP1 SLOAD SWAP1 PUSH2 0x100 EXP SWAP1 DIV PUSH20 0xFFFFFFFFFFFFFFFFFFFFFFFFFFFFFFFFFFFFFFFF AND PUSH20 0xFFFFFFFFFFFFFFFFFFFFFFFFFFFFFFFFFFFFFFFF AND PUSH2 0x9DF PUSH2 0x13CB JUMP JUMPDEST PUSH20 0xFFFFFFFFFFFFFFFFFFFFFFFFFFFFFFFFFFFFFFFF AND EQ DUP1 PUSH2 0xA3A JUMPI POP PUSH2 0xA04 PUSH2 0xD3E JUMP JUMPDEST PUSH20 0xFFFFFFFFFFFFFFFFFFFFFFFFFFFFFFFFFFFFFFFF AND PUSH2 0xA22 PUSH2 0x13CB JUMP JUMPDEST PUSH20 0xFFFFFFFFFFFFFFFFFFFFFFFFFFFFFFFFFFFFFFFF AND EQ JUMPDEST DUP1 PUSH2 0xA77 JUMPI POP ORIGIN PUSH20 0xFFFFFFFFFFFFFFFFFFFFFFFFFFFFFFFFFFFFFFFF AND PUSH2 0xA5F PUSH2 0xD3E JUMP JUMPDEST PUSH20 0xFFFFFFFFFFFFFFFFFFFFFFFFFFFFFFFFFFFFFFFF AND EQ JUMPDEST PUSH2 0xAB6 JUMPI PUSH1 0x40 MLOAD PUSH32 0x8C379A000000000000000000000000000000000000000000000000000000000 DUP2 MSTORE PUSH1 0x4 ADD PUSH2 0xAAD SWAP1 PUSH2 0x1CB7 JUMP JUMPDEST PUSH1 0x40 MLOAD DUP1 SWAP2 SUB SWAP1 REVERT JUMPDEST PUSH2 0xABF DUP9 PUSH2 0x14CC JUMP JUMPDEST PUSH2 0xAFE JUMPI PUSH1 0x40 MLOAD PUSH32 0x8C379A000000000000000000000000000000000000000000000000000000000 DUP2 MSTORE PUSH1 0x4 ADD PUSH2 0xAF5 SWAP1 PUSH2 0x1F38 JUMP JUMPDEST PUSH1 0x40 MLOAD DUP1 SWAP2 SUB SWAP1 REVERT JUMPDEST PUSH1 0x2 SLOAD SWAP1 POP PUSH1 0x40 MLOAD DUP1 PUSH1 0xE0 ADD PUSH1 0x40 MSTORE DUP1 PUSH1 0x4 PUSH1 0x0 DUP12 DUP2 MSTORE PUSH1 0x20 ADD SWAP1 DUP2 MSTORE PUSH1 0x20 ADD PUSH1 0x0 KECCAK256 PUSH1 0x40 MLOAD DUP1 PUSH1 0x80 ADD PUSH1 0x40 MSTORE SWAP1 DUP2 PUSH1 0x0 DUP3 ADD SLOAD DUP2 MSTORE PUSH1 0x20 ADD PUSH1 0x1 DUP3 ADD SLOAD DUP2 MSTORE PUSH1 0x20 ADD PUSH1 0x2 DUP3 ADD SLOAD DUP2 MSTORE PUSH1 0x20 ADD PUSH1 0x3 DUP3 ADD SLOAD DUP2 MSTORE POP POP DUP2 MSTORE PUSH1 0x20 ADD DUP9 DUP9 DUP1 DUP1 PUSH1 0x20 MUL PUSH1 0x20 ADD PUSH1 0x40 MLOAD SWAP1 DUP2 ADD PUSH1 0x40 MSTORE DUP1 SWAP4 SWAP3 SWAP2 SWAP1 DUP2 DUP2 MSTORE PUSH1 0x20 ADD DUP4 DUP4 PUSH1 0x20 MUL DUP1 DUP3 DUP5 CALLDATACOPY PUSH1 0x0 DUP2 DUP5 ADD MSTORE PUSH1 0x1F NOT PUSH1 0x1F DUP3 ADD AND SWAP1 POP DUP1 DUP4 ADD SWAP3 POP POP POP POP POP POP POP DUP2 MSTORE PUSH1 0x20 ADD DUP7 DUP7 DUP1 DUP1 PUSH1 0x20 MUL PUSH1 0x20 ADD PUSH1 0x40 MLOAD SWAP1 DUP2 ADD PUSH1 0x40 MSTORE DUP1 SWAP4 SWAP3 SWAP2 SWAP1 DUP2 DUP2 MSTORE PUSH1 0x20 ADD DUP4 DUP4 PUSH1 0x20 MUL DUP1 DUP3 DUP5 CALLDATACOPY PUSH1 0x0 DUP2 DUP5 ADD MSTORE PUSH1 0x1F NOT PUSH1 0x1F DUP3 ADD AND SWAP1 POP DUP1 DUP4 ADD SWAP3 POP POP POP POP POP POP POP DUP2 MSTORE PUSH1 0x20 ADD PUSH1 0x0 PUSH1 0x2 DUP2 GT ISZERO PUSH2 0xBFB JUMPI PUSH2 0xBFA PUSH2 0x1872 JUMP JUMPDEST JUMPDEST DUP2 MSTORE PUSH1 0x20 ADD PUSH1 0x3 DUP1 DUP2 GT ISZERO PUSH2 0xC13 JUMPI PUSH2 0xC12 PUSH2 0x1872 JUMP JUMPDEST JUMPDEST DUP2 MSTORE PUSH1 0x20 ADD DUP5 DUP2 MSTORE PUSH1 0x20 ADD DUP4 DUP2 MSTORE POP PUSH1 0x5 PUSH1 0x0 DUP4 DUP2 MSTORE PUSH1 0x20 ADD SWAP1 DUP2 MSTORE PUSH1 0x20 ADD PUSH1 0x0 KECCAK256 PUSH1 0x0 DUP3 ADD MLOAD DUP2 PUSH1 0x0 ADD PUSH1 0x0 DUP3 ADD MLOAD DUP2 PUSH1 0x0 ADD SSTORE PUSH1 0x20 DUP3 ADD MLOAD DUP2 PUSH1 0x1 ADD SSTORE PUSH1 0x40 DUP3 ADD MLOAD DUP2 PUSH1 0x2 ADD SSTORE PUSH1 0x60 DUP3 ADD MLOAD DUP2 PUSH1 0x3 ADD SSTORE POP POP PUSH1 0x20 DUP3 ADD MLOAD DUP2 PUSH1 0x4 ADD SWAP1 DUP1 MLOAD SWAP1 PUSH1 0x20 ADD SWAP1 PUSH2 0xC84 SWAP3 SWAP2 SWAP1 PUSH2 0x14FE JUMP JUMPDEST POP PUSH1 0x40 DUP3 ADD MLOAD DUP2 PUSH1 0x5 ADD SWAP1 DUP1 MLOAD SWAP1 PUSH1 0x20 ADD SWAP1 PUSH2 0xCA1 SWAP3 SWAP2 SWAP1 PUSH2 0x14FE JUMP JUMPDEST POP PUSH1 0x60 DUP3 ADD MLOAD DUP2 PUSH1 0x6 ADD PUSH1 0x0 PUSH2 0x100 EXP DUP2 SLOAD DUP2 PUSH1 0xFF MUL NOT AND SWAP1 DUP4 PUSH1 0x2 DUP2 GT ISZERO PUSH2 0xCCD JUMPI PUSH2 0xCCC PUSH2 0x1872 JUMP JUMPDEST JUMPDEST MUL OR SWAP1 SSTORE POP PUSH1 0x80 DUP3 ADD MLOAD DUP2 PUSH1 0x6 ADD PUSH1 0x1 PUSH2 0x100 EXP DUP2 SLOAD DUP2 PUSH1 0xFF MUL NOT AND SWAP1 DUP4 PUSH1 0x3 DUP2 GT ISZERO PUSH2 0xCFD JUMPI PUSH2 0xCFC PUSH2 0x1872 JUMP JUMPDEST JUMPDEST MUL OR SWAP1 SSTORE POP PUSH1 0xA0 DUP3 ADD MLOAD DUP2 PUSH1 0x7 ADD SSTORE PUSH1 0xC0 DUP3 ADD MLOAD DUP2 PUSH1 0x8 ADD SSTORE SWAP1 POP POP PUSH1 0x1 PUSH1 0x2 PUSH1 0x0 DUP3 DUP3 SLOAD PUSH2 0xD2C SWAP2 SWAP1 PUSH2 0x1E96 JUMP JUMPDEST SWAP3 POP POP DUP2 SWAP1 SSTORE POP SWAP8 SWAP7 POP POP POP POP POP POP POP JUMP JUMPDEST PUSH1 0x0 DUP1 PUSH1 0x0 SWAP1 SLOAD SWAP1 PUSH2 0x100 EXP SWAP1 DIV PUSH20 0xFFFFFFFFFFFFFFFFFFFFFFFFFFFFFFFFFFFFFFFF AND SWAP1 POP SWAP1 JUMP JUMPDEST PUSH1 0x0 PUSH1 0x1 PUSH1 0x0 SWAP1 SLOAD SWAP1 PUSH2 0x100 EXP SWAP1 DIV PUSH20 0xFFFFFFFFFFFFFFFFFFFFFFFFFFFFFFFFFFFFFFFF AND PUSH20 0xFFFFFFFFFFFFFFFFFFFFFFFFFFFFFFFFFFFFFFFF AND PUSH2 0xDAA PUSH2 0x13CB JUMP JUMPDEST PUSH20 0xFFFFFFFFFFFFFFFFFFFFFFFFFFFFFFFFFFFFFFFF AND EQ DUP1 PUSH2 0xE05 JUMPI POP PUSH2 0xDCF PUSH2 0xD3E JUMP JUMPDEST PUSH20 0xFFFFFFFFFFFFFFFFFFFFFFFFFFFFFFFFFFFFFFFF AND PUSH2 0xDED PUSH2 0x13CB JUMP JUMPDEST PUSH20 0xFFFFFFFFFFFFFFFFFFFFFFFFFFFFFFFFFFFFFFFF AND EQ JUMPDEST DUP1 PUSH2 0xE42 JUMPI POP ORIGIN PUSH20 0xFFFFFFFFFFFFFFFFFFFFFFFFFFFFFFFFFFFFFFFF AND PUSH2 0xE2A PUSH2 0xD3E JUMP JUMPDEST PUSH20 0xFFFFFFFFFFFFFFFFFFFFFFFFFFFFFFFFFFFFFFFF AND EQ JUMPDEST PUSH2 0xE81 JUMPI PUSH1 0x40 MLOAD PUSH32 0x8C379A000000000000000000000000000000000000000000000000000000000 DUP2 MSTORE PUSH1 0x4 ADD PUSH2 0xE78 SWAP1 PUSH2 0x1CB7 JUMP JUMPDEST PUSH1 0x40 MLOAD DUP1 SWAP2 SUB SWAP1 REVERT JUMPDEST PUSH2 0xE8A DUP4 PUSH2 0x13D3 JUMP JUMPDEST PUSH2 0xEC9 JUMPI PUSH1 0x40 MLOAD PUSH32 0x8C379A000000000000000000000000000000000000000000000000000000000 DUP2 MSTORE PUSH1 0x4 ADD PUSH2 0xEC0 SWAP1 PUSH2 0x1D49 JUMP JUMPDEST PUSH1 0x40 MLOAD DUP1 SWAP2 SUB SWAP1 REVERT JUMPDEST PUSH1 0x0 DUP3 PUSH1 0xFF AND LT ISZERO DUP1 ISZERO PUSH2 0xEE1 JUMPI POP PUSH1 0x3 DUP3 PUSH1 0xFF AND GT ISZERO JUMPDEST PUSH2 0xF20 JUMPI PUSH1 0x40 MLOAD PUSH32 0x8C379A000000000000000000000000000000000000000000000000000000000 DUP2 MSTORE PUSH1 0x4 ADD PUSH2 0xF17 SWAP1 PUSH2 0x1FCA JUMP JUMPDEST PUSH1 0x40 MLOAD DUP1 SWAP2 SUB SWAP1 REVERT JUMPDEST PUSH1 0x0 PUSH1 0x5 PUSH1 0x0 DUP6 DUP2 MSTORE PUSH1 0x20 ADD SWAP1 DUP2 MSTORE PUSH1 0x20 ADD PUSH1 0x0 KECCAK256 SWAP1 POP PUSH1 0x0 DUP4 PUSH1 0xFF AND EQ ISZERO PUSH2 0xF75 JUMPI PUSH1 0x0 DUP2 PUSH1 0x6 ADD PUSH1 0x1 PUSH2 0x100 EXP DUP2 SLOAD DUP2 PUSH1 0xFF MUL NOT AND SWAP1 DUP4 PUSH1 0x3 DUP2 GT ISZERO PUSH2 0xF6B JUMPI PUSH2 0xF6A PUSH2 0x1872 JUMP JUMPDEST JUMPDEST MUL OR SWAP1 SSTORE POP PUSH2 0x102E JUMP JUMPDEST PUSH1 0x1 DUP4 PUSH1 0xFF AND EQ ISZERO PUSH2 0xFB3 JUMPI PUSH1 0x1 DUP2 PUSH1 0x6 ADD PUSH1 0x1 PUSH2 0x100 EXP DUP2 SLOAD DUP2 PUSH1 0xFF MUL NOT AND SWAP1 DUP4 PUSH1 0x3 DUP2 GT ISZERO PUSH2 0xFA9 JUMPI PUSH2 0xFA8 PUSH2 0x1872 JUMP JUMPDEST JUMPDEST MUL OR SWAP1 SSTORE POP PUSH2 0x102D JUMP JUMPDEST PUSH1 0x2 DUP4 PUSH1 0xFF AND EQ ISZERO PUSH2 0xFF1 JUMPI PUSH1 0x2 DUP2 PUSH1 0x6 ADD PUSH1 0x1 PUSH2 0x100 EXP DUP2 SLOAD DUP2 PUSH1 0xFF MUL NOT AND SWAP1 DUP4 PUSH1 0x3 DUP2 GT ISZERO PUSH2 0xFE7 JUMPI PUSH2 0xFE6 PUSH2 0x1872 JUMP JUMPDEST JUMPDEST MUL OR SWAP1 SSTORE POP PUSH2 0x102C JUMP JUMPDEST PUSH1 0x3 DUP4 PUSH1 0xFF AND EQ ISZERO PUSH2 0x102B JUMPI PUSH1 0x3 DUP2 PUSH1 0x6 ADD PUSH1 0x1 PUSH2 0x100 EXP DUP2 SLOAD DUP2 PUSH1 0xFF MUL NOT AND SWAP1 DUP4 PUSH1 0x3 DUP2 GT ISZERO PUSH2 0x1025 JUMPI PUSH2 0x1024 PUSH2 0x1872 JUMP JUMPDEST JUMPDEST MUL OR SWAP1 SSTORE POP JUMPDEST JUMPDEST JUMPDEST JUMPDEST PUSH1 0x1 SWAP2 POP POP SWAP3 SWAP2 POP POP JUMP JUMPDEST PUSH1 0x0 DUP1 PUSH1 0x4 PUSH1 0x0 DUP5 DUP2 MSTORE PUSH1 0x20 ADD SWAP1 DUP2 MSTORE PUSH1 0x20 ADD PUSH1 0x0 KECCAK256 PUSH1 0x0 ADD SLOAD PUSH1 0x4 PUSH1 0x0 DUP6 DUP2 MSTORE PUSH1 0x20 ADD SWAP1 DUP2 MSTORE PUSH1 0x20 ADD PUSH1 0x0 KECCAK256 PUSH1 0x1 ADD SLOAD SWAP2 POP SWAP2 POP SWAP2 POP SWAP2 JUMP JUMPDEST PUSH1 0x1 PUSH1 0x0 SWAP1 SLOAD SWAP1 PUSH2 0x100 EXP SWAP1 DIV PUSH20 0xFFFFFFFFFFFFFFFFFFFFFFFFFFFFFFFFFFFFFFFF AND DUP2 JUMP JUMPDEST PUSH1 0x0 DUP1 PUSH1 0x60 DUP1 PUSH1 0x0 DUP1 PUSH1 0x0 DUP1 PUSH1 0x5 PUSH1 0x0 DUP11 DUP2 MSTORE PUSH1 0x20 ADD SWAP1 DUP2 MSTORE PUSH1 0x20 ADD PUSH1 0x0 KECCAK256 PUSH1 0x0 ADD PUSH1 0x40 MLOAD DUP1 PUSH1 0x80 ADD PUSH1 0x40 MSTORE SWAP1 DUP2 PUSH1 0x0 DUP3 ADD SLOAD DUP2 MSTORE PUSH1 0x20 ADD PUSH1 0x1 DUP3 ADD SLOAD DUP2 MSTORE PUSH1 0x20 ADD PUSH1 0x2 DUP3 ADD SLOAD DUP2 MSTORE PUSH1 0x20 ADD PUSH1 0x3 DUP3 ADD SLOAD DUP2 MSTORE POP POP SWAP1 POP DUP1 PUSH1 0x0 ADD MLOAD SWAP8 POP DUP1 PUSH1 0x20 ADD MLOAD SWAP7 POP PUSH1 0x5 PUSH1 0x0 DUP11 DUP2 MSTORE PUSH1 0x20 ADD SWAP1 DUP2 MSTORE PUSH1 0x20 ADD PUSH1 0x0 KECCAK256 PUSH1 0x4 ADD DUP1 SLOAD DUP1 PUSH1 0x20 MUL PUSH1 0x20 ADD PUSH1 0x40 MLOAD SWAP1 DUP2 ADD PUSH1 0x40 MSTORE DUP1 SWAP3 SWAP2 SWAP1 DUP2 DUP2 MSTORE PUSH1 0x20 ADD DUP3 DUP1 SLOAD DUP1 ISZERO PUSH2 0x1194 JUMPI PUSH1 0x20 MUL DUP3 ADD SWAP2 SWAP1 PUSH1 0x0 MSTORE PUSH1 0x20 PUSH1 0x0 KECCAK256 SWAP1 JUMPDEST DUP2 PUSH1 0x0 SWAP1 SLOAD SWAP1 PUSH2 0x100 EXP SWAP1 DIV PUSH20 0xFFFFFFFFFFFFFFFFFFFFFFFFFFFFFFFFFFFFFFFF AND PUSH20 0xFFFFFFFFFFFFFFFFFFFFFFFFFFFFFFFFFFFFFFFF AND DUP2 MSTORE PUSH1 0x20 ADD SWAP1 PUSH1 0x1 ADD SWAP1 DUP1 DUP4 GT PUSH2 0x114A JUMPI JUMPDEST POP POP POP POP POP SWAP6 POP PUSH1 0x5 PUSH1 0x0 DUP11 DUP2 MSTORE PUSH1 0x20 ADD SWAP1 DUP2 MSTORE PUSH1 0x20 ADD PUSH1 0x0 KECCAK256 PUSH1 0x5 ADD DUP1 SLOAD DUP1 PUSH1 0x20 MUL PUSH1 0x20 ADD PUSH1 0x40 MLOAD SWAP1 DUP2 ADD PUSH1 0x40 MSTORE DUP1 SWAP3 SWAP2 SWAP1 DUP2 DUP2 MSTORE PUSH1 0x20 ADD DUP3 DUP1 SLOAD DUP1 ISZERO PUSH2 0x1231 JUMPI PUSH1 0x20 MUL DUP3 ADD SWAP2 SWAP1 PUSH1 0x0 MSTORE PUSH1 0x20 PUSH1 0x0 KECCAK256 SWAP1 JUMPDEST DUP2 PUSH1 0x0 SWAP1 SLOAD SWAP1 PUSH2 0x100 EXP SWAP1 DIV PUSH20 0xFFFFFFFFFFFFFFFFFFFFFFFFFFFFFFFFFFFFFFFF AND PUSH20 0xFFFFFFFFFFFFFFFFFFFFFFFFFFFFFFFFFFFFFFFF AND DUP2 MSTORE PUSH1 0x20 ADD SWAP1 PUSH1 0x1 ADD SWAP1 DUP1 DUP4 GT PUSH2 0x11E7 JUMPI JUMPDEST POP POP POP POP POP SWAP5 POP PUSH1 0x5 PUSH1 0x0 DUP11 DUP2 MSTORE PUSH1 0x20 ADD SWAP1 DUP2 MSTORE PUSH1 0x20 ADD PUSH1 0x0 KECCAK256 PUSH1 0x6 ADD PUSH1 0x0 SWAP1 SLOAD SWAP1 PUSH2 0x100 EXP SWAP1 DIV PUSH1 0xFF AND PUSH1 0x2 DUP2 GT ISZERO PUSH2 0x126E JUMPI PUSH2 0x126D PUSH2 0x1872 JUMP JUMPDEST JUMPDEST SWAP4 POP PUSH1 0x5 PUSH1 0x0 DUP11 DUP2 MSTORE PUSH1 0x20 ADD SWAP1 DUP2 MSTORE PUSH1 0x20 ADD PUSH1 0x0 KECCAK256 PUSH1 0x6 ADD PUSH1 0x1 SWAP1 SLOAD SWAP1 PUSH2 0x100 EXP SWAP1 DIV PUSH1 0xFF AND PUSH1 0x3 DUP2 GT ISZERO PUSH2 0x12A6 JUMPI PUSH2 0x12A5 PUSH2 0x1872 JUMP JUMPDEST JUMPDEST SWAP3 POP PUSH1 0x5 PUSH1 0x0 DUP11 DUP2 MSTORE PUSH1 0x20 ADD SWAP1 DUP2 MSTORE PUSH1 0x20 ADD PUSH1 0x0 KECCAK256 PUSH1 0x7 ADD SLOAD SWAP2 POP POP SWAP2 SWAP4 SWAP6 SWAP8 SWAP1 SWAP3 SWAP5 SWAP7 POP JUMP JUMPDEST PUSH1 0x3 SLOAD DUP2 JUMP JUMPDEST PUSH2 0x12DB PUSH2 0x13CB JUMP JUMPDEST PUSH20 0xFFFFFFFFFFFFFFFFFFFFFFFFFFFFFFFFFFFFFFFF AND PUSH2 0x12F9 PUSH2 0xD3E JUMP JUMPDEST PUSH20 0xFFFFFFFFFFFFFFFFFFFFFFFFFFFFFFFFFFFFFFFF AND EQ PUSH2 0x134F JUMPI PUSH1 0x40 MLOAD PUSH32 0x8C379A000000000000000000000000000000000000000000000000000000000 DUP2 MSTORE PUSH1 0x4 ADD PUSH2 0x1346 SWAP1 PUSH2 0x1E47 JUMP JUMPDEST PUSH1 0x40 MLOAD DUP1 SWAP2 SUB SWAP1 REVERT JUMPDEST PUSH1 0x0 PUSH20 0xFFFFFFFFFFFFFFFFFFFFFFFFFFFFFFFFFFFFFFFF AND DUP2 PUSH20 0xFFFFFFFFFFFFFFFFFFFFFFFFFFFFFFFFFFFFFFFF AND EQ ISZERO PUSH2 0x13BF JUMPI PUSH1 0x40 MLOAD PUSH32 0x8C379A000000000000000000000000000000000000000000000000000000000 DUP2 MSTORE PUSH1 0x4 ADD PUSH2 0x13B6 SWAP1 PUSH2 0x205C JUMP JUMPDEST PUSH1 0x40 MLOAD DUP1 SWAP2 SUB SWAP1 REVERT JUMPDEST PUSH2 0x13C8 DUP2 PUSH2 0x1408 JUMP JUMPDEST POP JUMP JUMPDEST PUSH1 0x0 CALLER SWAP1 POP SWAP1 JUMP JUMPDEST PUSH1 0x0 DUP1 PUSH1 0x5 PUSH1 0x0 DUP5 DUP2 MSTORE PUSH1 0x20 ADD SWAP1 DUP2 MSTORE PUSH1 0x20 ADD PUSH1 0x0 KECCAK256 PUSH1 0x4 ADD DUP1 SLOAD SWAP1 POP EQ PUSH2 0x13FE JUMPI PUSH1 0x1 SWAP1 POP PUSH2 0x1403 JUMP JUMPDEST PUSH1 0x0 SWAP1 POP JUMPDEST SWAP2 SWAP1 POP JUMP JUMPDEST PUSH1 0x0 DUP1 PUSH1 0x0 SWAP1 SLOAD SWAP1 PUSH2 0x100 EXP SWAP1 DIV PUSH20 0xFFFFFFFFFFFFFFFFFFFFFFFFFFFFFFFFFFFFFFFF AND SWAP1 POP DUP2 PUSH1 0x0 DUP1 PUSH2 0x100 EXP DUP2 SLOAD DUP2 PUSH20 0xFFFFFFFFFFFFFFFFFFFFFFFFFFFFFFFFFFFFFFFF MUL NOT AND SWAP1 DUP4 PUSH20 0xFFFFFFFFFFFFFFFFFFFFFFFFFFFFFFFFFFFFFFFF AND MUL OR SWAP1 SSTORE POP DUP2 PUSH20 0xFFFFFFFFFFFFFFFFFFFFFFFFFFFFFFFFFFFFFFFF AND DUP2 PUSH20 0xFFFFFFFFFFFFFFFFFFFFFFFFFFFFFFFFFFFFFFFF AND PUSH32 0x8BE0079C531659141344CD1FD0A4F28419497F9722A3DAAFE3B4186F6B6457E0 PUSH1 0x40 MLOAD PUSH1 0x40 MLOAD DUP1 SWAP2 SUB SWAP1 LOG3 POP POP JUMP JUMPDEST PUSH1 0x0 DUP1 PUSH1 0x4 PUSH1 0x0 DUP5 DUP2 MSTORE PUSH1 0x20 ADD SWAP1 DUP2 MSTORE PUSH1 0x20 ADD PUSH1 0x0 KECCAK256 PUSH1 0x2 ADD SLOAD EQ PUSH2 0x14F4 JUMPI PUSH1 0x1 SWAP1 POP PUSH2 0x14F9 JUMP JUMPDEST PUSH1 0x0 SWAP1 POP JUMPDEST SWAP2 SWAP1 POP JUMP JUMPDEST DUP3 DUP1 SLOAD DUP3 DUP3 SSTORE SWAP1 PUSH1 0x0 MSTORE PUSH1 0x20 PUSH1 0x0 KECCAK256 SWAP1 DUP2 ADD SWAP3 DUP3 ISZERO PUSH2 0x1577 JUMPI SWAP2 PUSH1 0x20 MUL DUP3 ADD JUMPDEST DUP3 DUP2 GT ISZERO PUSH2 0x1576 JUMPI DUP3 MLOAD DUP3 PUSH1 0x0 PUSH2 0x100 EXP DUP2 SLOAD DUP2 PUSH20 0xFFFFFFFFFFFFFFFFFFFFFFFFFFFFFFFFFFFFFFFF MUL NOT AND SWAP1 DUP4 PUSH20 0xFFFFFFFFFFFFFFFFFFFFFFFFFFFFFFFFFFFFFFFF AND MUL OR SWAP1 SSTORE POP SWAP2 PUSH1 0x20 ADD SWAP2 SWAP1 PUSH1 0x1 ADD SWAP1 PUSH2 0x151E JUMP JUMPDEST JUMPDEST POP SWAP1 POP PUSH2 0x1584 SWAP2 SWAP1 PUSH2 0x1588 JUMP JUMPDEST POP SWAP1 JUMP JUMPDEST JUMPDEST DUP1 DUP3 GT ISZERO PUSH2 0x15A1 JUMPI PUSH1 0x0 DUP2 PUSH1 0x0 SWAP1 SSTORE POP PUSH1 0x1 ADD PUSH2 0x1589 JUMP JUMPDEST POP SWAP1 JUMP JUMPDEST PUSH1 0x0 DUP1 REVERT JUMPDEST PUSH1 0x0 DUP1 REVERT JUMPDEST PUSH1 0x0 DUP2 SWAP1 POP SWAP2 SWAP1 POP JUMP JUMPDEST PUSH2 0x15C2 DUP2 PUSH2 0x15AF JUMP JUMPDEST DUP2 EQ PUSH2 0x15CD JUMPI PUSH1 0x0 DUP1 REVERT JUMPDEST POP JUMP JUMPDEST PUSH1 0x0 DUP2 CALLDATALOAD SWAP1 POP PUSH2 0x15DF DUP2 PUSH2 0x15B9 JUMP JUMPDEST SWAP3 SWAP2 POP POP JUMP JUMPDEST PUSH1 0x0 PUSH1 0xFF DUP3 AND SWAP1 POP SWAP2 SWAP1 POP JUMP JUMPDEST PUSH2 0x15FB DUP2 PUSH2 0x15E5 JUMP JUMPDEST DUP2 EQ PUSH2 0x1606 JUMPI PUSH1 0x0 DUP1 REVERT JUMPDEST POP JUMP JUMPDEST PUSH1 0x0 DUP2 CALLDATALOAD SWAP1 POP PUSH2 0x1618 DUP2 PUSH2 0x15F2 JUMP JUMPDEST SWAP3 SWAP2 POP POP JUMP JUMPDEST PUSH1 0x0 DUP1 PUSH1 0x40 DUP4 DUP6 SUB SLT ISZERO PUSH2 0x1635 JUMPI PUSH2 0x1634 PUSH2 0x15A5 JUMP JUMPDEST JUMPDEST PUSH1 0x0 PUSH2 0x1643 DUP6 DUP3 DUP7 ADD PUSH2 0x15D0 JUMP JUMPDEST SWAP3 POP POP PUSH1 0x20 PUSH2 0x1654 DUP6 DUP3 DUP7 ADD PUSH2 0x1609 JUMP JUMPDEST SWAP2 POP POP SWAP3 POP SWAP3 SWAP1 POP JUMP JUMPDEST PUSH1 0x0 DUP2 ISZERO ISZERO SWAP1 POP SWAP2 SWAP1 POP JUMP JUMPDEST PUSH2 0x1673 DUP2 PUSH2 0x165E JUMP JUMPDEST DUP3 MSTORE POP POP JUMP JUMPDEST PUSH1 0x0 PUSH1 0x20 DUP3 ADD SWAP1 POP PUSH2 0x168E PUSH1 0x0 DUP4 ADD DUP5 PUSH2 0x166A JUMP JUMPDEST SWAP3 SWAP2 POP POP JUMP JUMPDEST PUSH1 0x0 PUSH1 0x20 DUP3 DUP5 SUB SLT ISZERO PUSH2 0x16AA JUMPI PUSH2 0x16A9 PUSH2 0x15A5 JUMP JUMPDEST JUMPDEST PUSH1 0x0 PUSH2 0x16B8 DUP5 DUP3 DUP6 ADD PUSH2 0x15D0 JUMP JUMPDEST SWAP2 POP POP SWAP3 SWAP2 POP POP JUMP JUMPDEST PUSH2 0x16CA DUP2 PUSH2 0x15AF JUMP JUMPDEST DUP3 MSTORE POP POP JUMP JUMPDEST PUSH1 0x0 PUSH1 0x80 DUP3 ADD SWAP1 POP PUSH2 0x16E5 PUSH1 0x0 DUP4 ADD DUP8 PUSH2 0x16C1 JUMP JUMPDEST PUSH2 0x16F2 PUSH1 0x20 DUP4 ADD DUP7 PUSH2 0x16C1 JUMP JUMPDEST PUSH2 0x16FF PUSH1 0x40 DUP4 ADD DUP6 PUSH2 0x16C1 JUMP JUMPDEST PUSH2 0x170C PUSH1 0x60 DUP4 ADD DUP5 PUSH2 0x16C1 JUMP JUMPDEST SWAP6 SWAP5 POP POP POP POP POP JUMP JUMPDEST PUSH1 0x0 PUSH20 0xFFFFFFFFFFFFFFFFFFFFFFFFFFFFFFFFFFFFFFFF DUP3 AND SWAP1 POP SWAP2 SWAP1 POP JUMP JUMPDEST PUSH1 0x0 PUSH2 0x1740 DUP3 PUSH2 0x1715 JUMP JUMPDEST SWAP1 POP SWAP2 SWAP1 POP JUMP JUMPDEST PUSH2 0x1750 DUP2 PUSH2 0x1735 JUMP JUMPDEST DUP2 EQ PUSH2 0x175B JUMPI PUSH1 0x0 DUP1 REVERT JUMPDEST POP JUMP JUMPDEST PUSH1 0x0 DUP2 CALLDATALOAD SWAP1 POP PUSH2 0x176D DUP2 PUSH2 0x1747 JUMP JUMPDEST SWAP3 SWAP2 POP POP JUMP JUMPDEST PUSH1 0x0 PUSH1 0x20 DUP3 DUP5 SUB SLT ISZERO PUSH2 0x1789 JUMPI PUSH2 0x1788 PUSH2 0x15A5 JUMP JUMPDEST JUMPDEST PUSH1 0x0 PUSH2 0x1797 DUP5 DUP3 DUP6 ADD PUSH2 0x175E JUMP JUMPDEST SWAP2 POP POP SWAP3 SWAP2 POP POP JUMP JUMPDEST PUSH1 0x0 PUSH1 0x20 DUP3 ADD SWAP1 POP PUSH2 0x17B5 PUSH1 0x0 DUP4 ADD DUP5 PUSH2 0x16C1 JUMP JUMPDEST SWAP3 SWAP2 POP POP JUMP JUMPDEST PUSH1 0x0 DUP1 PUSH1 0x0 PUSH1 0x60 DUP5 DUP7 SUB SLT ISZERO PUSH2 0x17D4 JUMPI PUSH2 0x17D3 PUSH2 0x15A5 JUMP JUMPDEST JUMPDEST PUSH1 0x0 PUSH2 0x17E2 DUP7 DUP3 DUP8 ADD PUSH2 0x15D0 JUMP JUMPDEST SWAP4 POP POP PUSH1 0x20 PUSH2 0x17F3 DUP7 DUP3 DUP8 ADD PUSH2 0x15D0 JUMP JUMPDEST SWAP3 POP POP PUSH1 0x40 PUSH2 0x1804 DUP7 DUP3 DUP8 ADD PUSH2 0x15D0 JUMP JUMPDEST SWAP2 POP POP SWAP3 POP SWAP3 POP SWAP3 JUMP JUMPDEST PUSH2 0x1817 DUP2 PUSH2 0x15AF JUMP JUMPDEST DUP3 MSTORE POP POP JUMP JUMPDEST PUSH1 0x80 DUP3 ADD PUSH1 0x0 DUP3 ADD MLOAD PUSH2 0x1833 PUSH1 0x0 DUP6 ADD DUP3 PUSH2 0x180E JUMP JUMPDEST POP PUSH1 0x20 DUP3 ADD MLOAD PUSH2 0x1846 PUSH1 0x20 DUP6 ADD DUP3 PUSH2 0x180E JUMP JUMPDEST POP PUSH1 0x40 DUP3 ADD MLOAD PUSH2 0x1859 PUSH1 0x40 DUP6 ADD DUP3 PUSH2 0x180E JUMP JUMPDEST POP PUSH1 0x60 DUP3 ADD MLOAD PUSH2 0x186C PUSH1 0x60 DUP6 ADD DUP3 PUSH2 0x180E JUMP JUMPDEST POP POP POP POP JUMP JUMPDEST PUSH32 0x4E487B7100000000000000000000000000000000000000000000000000000000 PUSH1 0x0 MSTORE PUSH1 0x21 PUSH1 0x4 MSTORE PUSH1 0x24 PUSH1 0x0 REVERT JUMPDEST PUSH1 0x3 DUP2 LT PUSH2 0x18B2 JUMPI PUSH2 0x18B1 PUSH2 0x1872 JUMP JUMPDEST JUMPDEST POP JUMP JUMPDEST PUSH1 0x0 DUP2 SWAP1 POP PUSH2 0x18C3 DUP3 PUSH2 0x18A1 JUMP JUMPDEST SWAP2 SWAP1 POP JUMP JUMPDEST PUSH1 0x0 PUSH2 0x18D3 DUP3 PUSH2 0x18B5 JUMP JUMPDEST SWAP1 POP SWAP2 SWAP1 POP JUMP JUMPDEST PUSH2 0x18E3 DUP2 PUSH2 0x18C8 JUMP JUMPDEST DUP3 MSTORE POP POP JUMP JUMPDEST PUSH1 0x4 DUP2 LT PUSH2 0x18FA JUMPI PUSH2 0x18F9 PUSH2 0x1872 JUMP JUMPDEST JUMPDEST POP JUMP JUMPDEST PUSH1 0x0 DUP2 SWAP1 POP PUSH2 0x190B DUP3 PUSH2 0x18E9 JUMP JUMPDEST SWAP2 SWAP1 POP JUMP JUMPDEST PUSH1 0x0 PUSH2 0x191B DUP3 PUSH2 0x18FD JUMP JUMPDEST SWAP1 POP SWAP2 SWAP1 POP JUMP JUMPDEST PUSH2 0x192B DUP2 PUSH2 0x1910 JUMP JUMPDEST DUP3 MSTORE POP POP JUMP JUMPDEST PUSH1 0x0 PUSH2 0x100 DUP3 ADD SWAP1 POP PUSH2 0x1947 PUSH1 0x0 DUP4 ADD DUP9 PUSH2 0x181D JUMP JUMPDEST PUSH2 0x1954 PUSH1 0x80 DUP4 ADD DUP8 PUSH2 0x18DA JUMP JUMPDEST PUSH2 0x1961 PUSH1 0xA0 DUP4 ADD DUP7 PUSH2 0x1922 JUMP JUMPDEST PUSH2 0x196E PUSH1 0xC0 DUP4 ADD DUP6 PUSH2 0x16C1 JUMP JUMPDEST PUSH2 0x197B PUSH1 0xE0 DUP4 ADD DUP5 PUSH2 0x16C1 JUMP JUMPDEST SWAP7 SWAP6 POP POP POP POP POP POP JUMP JUMPDEST PUSH1 0x0 DUP1 REVERT JUMPDEST PUSH1 0x0 DUP1 REVERT JUMPDEST PUSH1 0x0 DUP1 REVERT JUMPDEST PUSH1 0x0 DUP1 DUP4 PUSH1 0x1F DUP5 ADD SLT PUSH2 0x19AA JUMPI PUSH2 0x19A9 PUSH2 0x1985 JUMP JUMPDEST JUMPDEST DUP3 CALLDATALOAD SWAP1 POP PUSH8 0xFFFFFFFFFFFFFFFF DUP2 GT ISZERO PUSH2 0x19C7 JUMPI PUSH2 0x19C6 PUSH2 0x198A JUMP JUMPDEST JUMPDEST PUSH1 0x20 DUP4 ADD SWAP2 POP DUP4 PUSH1 0x20 DUP3 MUL DUP4 ADD GT ISZERO PUSH2 0x19E3 JUMPI PUSH2 0x19E2 PUSH2 0x198F JUMP JUMPDEST JUMPDEST SWAP3 POP SWAP3 SWAP1 POP JUMP JUMPDEST PUSH1 0x0 DUP1 PUSH1 0x0 DUP1 PUSH1 0x0 DUP1 PUSH1 0x0 PUSH1 0xA0 DUP9 DUP11 SUB SLT ISZERO PUSH2 0x1A09 JUMPI PUSH2 0x1A08 PUSH2 0x15A5 JUMP JUMPDEST JUMPDEST PUSH1 0x0 PUSH2 0x1A17 DUP11 DUP3 DUP12 ADD PUSH2 0x15D0 JUMP JUMPDEST SWAP8 POP POP PUSH1 0x20 DUP9 ADD CALLDATALOAD PUSH8 0xFFFFFFFFFFFFFFFF DUP2 GT ISZERO PUSH2 0x1A38 JUMPI PUSH2 0x1A37 PUSH2 0x15AA JUMP JUMPDEST JUMPDEST PUSH2 0x1A44 DUP11 DUP3 DUP12 ADD PUSH2 0x1994 JUMP JUMPDEST SWAP7 POP SWAP7 POP POP PUSH1 0x40 DUP9 ADD CALLDATALOAD PUSH8 0xFFFFFFFFFFFFFFFF DUP2 GT ISZERO PUSH2 0x1A67 JUMPI PUSH2 0x1A66 PUSH2 0x15AA JUMP JUMPDEST JUMPDEST PUSH2 0x1A73 DUP11 DUP3 DUP12 ADD PUSH2 0x1994 JUMP JUMPDEST SWAP5 POP SWAP5 POP POP PUSH1 0x60 PUSH2 0x1A86 DUP11 DUP3 DUP12 ADD PUSH2 0x15D0 JUMP JUMPDEST SWAP3 POP POP PUSH1 0x80 PUSH2 0x1A97 DUP11 DUP3 DUP12 ADD PUSH2 0x15D0 JUMP JUMPDEST SWAP2 POP POP SWAP3 SWAP6 SWAP9 SWAP2 SWAP5 SWAP8 POP SWAP3 SWAP6 POP JUMP JUMPDEST PUSH2 0x1AAF DUP2 PUSH2 0x1735 JUMP JUMPDEST DUP3 MSTORE POP POP JUMP JUMPDEST PUSH1 0x0 PUSH1 0x20 DUP3 ADD SWAP1 POP PUSH2 0x1ACA PUSH1 0x0 DUP4 ADD DUP5 PUSH2 0x1AA6 JUMP JUMPDEST SWAP3 SWAP2 POP POP JUMP JUMPDEST PUSH1 0x0 PUSH1 0x40 DUP3 ADD SWAP1 POP PUSH2 0x1AE5 PUSH1 0x0 DUP4 ADD DUP6 PUSH2 0x16C1 JUMP JUMPDEST PUSH2 0x1AF2 PUSH1 0x20 DUP4 ADD DUP5 PUSH2 0x16C1 JUMP JUMPDEST SWAP4 SWAP3 POP POP POP JUMP JUMPDEST PUSH1 0x0 DUP2 MLOAD SWAP1 POP SWAP2 SWAP1 POP JUMP JUMPDEST PUSH1 0x0 DUP3 DUP3 MSTORE PUSH1 0x20 DUP3 ADD SWAP1 POP SWAP3 SWAP2 POP POP JUMP JUMPDEST PUSH1 0x0 DUP2 SWAP1 POP PUSH1 0x20 DUP3 ADD SWAP1 POP SWAP2 SWAP1 POP JUMP JUMPDEST PUSH2 0x1B2E DUP2 PUSH2 0x1735 JUMP JUMPDEST DUP3 MSTORE POP POP JUMP JUMPDEST PUSH1 0x0 PUSH2 0x1B40 DUP4 DUP4 PUSH2 0x1B25 JUMP JUMPDEST PUSH1 0x20 DUP4 ADD SWAP1 POP SWAP3 SWAP2 POP POP JUMP JUMPDEST PUSH1 0x0 PUSH1 0x20 DUP3 ADD SWAP1 POP SWAP2 SWAP1 POP JUMP JUMPDEST PUSH1 0x0 PUSH2 0x1B64 DUP3 PUSH2 0x1AF9 JUMP JUMPDEST PUSH2 0x1B6E DUP2 DUP6 PUSH2 0x1B04 JUMP JUMPDEST SWAP4 POP PUSH2 0x1B79 DUP4 PUSH2 0x1B15 JUMP JUMPDEST DUP1 PUSH1 0x0 JUMPDEST DUP4 DUP2 LT ISZERO PUSH2 0x1BAA JUMPI DUP2 MLOAD PUSH2 0x1B91 DUP9 DUP3 PUSH2 0x1B34 JUMP JUMPDEST SWAP8 POP PUSH2 0x1B9C DUP4 PUSH2 0x1B4C JUMP JUMPDEST SWAP3 POP POP PUSH1 0x1 DUP2 ADD SWAP1 POP PUSH2 0x1B7D JUMP JUMPDEST POP DUP6 SWAP4 POP POP POP POP SWAP3 SWAP2 POP POP JUMP JUMPDEST PUSH1 0x0 PUSH1 0xE0 DUP3 ADD SWAP1 POP PUSH2 0x1BCC PUSH1 0x0 DUP4 ADD DUP11 PUSH2 0x16C1 JUMP JUMPDEST PUSH2 0x1BD9 PUSH1 0x20 DUP4 ADD DUP10 PUSH2 0x16C1 JUMP JUMPDEST DUP2 DUP2 SUB PUSH1 0x40 DUP4 ADD MSTORE PUSH2 0x1BEB DUP2 DUP9 PUSH2 0x1B59 JUMP JUMPDEST SWAP1 POP DUP2 DUP2 SUB PUSH1 0x60 DUP4 ADD MSTORE PUSH2 0x1BFF DUP2 DUP8 PUSH2 0x1B59 JUMP JUMPDEST SWAP1 POP PUSH2 0x1C0E PUSH1 0x80 DUP4 ADD DUP7 PUSH2 0x16C1 JUMP JUMPDEST PUSH2 0x1C1B PUSH1 0xA0 DUP4 ADD DUP6 PUSH2 0x16C1 JUMP JUMPDEST PUSH2 0x1C28 PUSH1 0xC0 DUP4 ADD DUP5 PUSH2 0x16C1 JUMP JUMPDEST SWAP9 SWAP8 POP POP POP POP POP POP POP POP JUMP JUMPDEST PUSH1 0x0 DUP3 DUP3 MSTORE PUSH1 0x20 DUP3 ADD SWAP1 POP SWAP3 SWAP2 POP POP JUMP JUMPDEST PUSH32 0x546F2063616C6C2074686973206D6574686F6420796F75206861766520746F20 PUSH1 0x0 DUP3 ADD MSTORE PUSH32 0x6265206F776E6572206F722073756241646D696E210000000000000000000000 PUSH1 0x20 DUP3 ADD MSTORE POP JUMP JUMPDEST PUSH1 0x0 PUSH2 0x1CA1 PUSH1 0x35 DUP4 PUSH2 0x1C34 JUMP JUMPDEST SWAP2 POP PUSH2 0x1CAC DUP3 PUSH2 0x1C45 JUMP JUMPDEST PUSH1 0x40 DUP3 ADD SWAP1 POP SWAP2 SWAP1 POP JUMP JUMPDEST PUSH1 0x0 PUSH1 0x20 DUP3 ADD SWAP1 POP DUP2 DUP2 SUB PUSH1 0x0 DUP4 ADD MSTORE PUSH2 0x1CD0 DUP2 PUSH2 0x1C94 JUMP JUMPDEST SWAP1 POP SWAP2 SWAP1 POP JUMP JUMPDEST PUSH32 0x63616E27742066696E6420636F6D706574696F6E207769746820746869732063 PUSH1 0x0 DUP3 ADD MSTORE PUSH32 0x6F6D706574696F6E496421000000000000000000000000000000000000000000 PUSH1 0x20 DUP3 ADD MSTORE POP JUMP JUMPDEST PUSH1 0x0 PUSH2 0x1D33 PUSH1 0x2B DUP4 PUSH2 0x1C34 JUMP JUMPDEST SWAP2 POP PUSH2 0x1D3E DUP3 PUSH2 0x1CD7 JUMP JUMPDEST PUSH1 0x40 DUP3 ADD SWAP1 POP SWAP2 SWAP1 POP JUMP JUMPDEST PUSH1 0x0 PUSH1 0x20 DUP3 ADD SWAP1 POP DUP2 DUP2 SUB PUSH1 0x0 DUP4 ADD MSTORE PUSH2 0x1D62 DUP2 PUSH2 0x1D26 JUMP JUMPDEST SWAP1 POP SWAP2 SWAP1 POP JUMP JUMPDEST PUSH32 0x737461747573206E65656420746F20626520736F6D74696E6720626574776565 PUSH1 0x0 DUP3 ADD MSTORE PUSH32 0x6E203020746F2032000000000000000000000000000000000000000000000000 PUSH1 0x20 DUP3 ADD MSTORE POP JUMP JUMPDEST PUSH1 0x0 PUSH2 0x1DC5 PUSH1 0x28 DUP4 PUSH2 0x1C34 JUMP JUMPDEST SWAP2 POP PUSH2 0x1DD0 DUP3 PUSH2 0x1D69 JUMP JUMPDEST PUSH1 0x40 DUP3 ADD SWAP1 POP SWAP2 SWAP1 POP JUMP JUMPDEST PUSH1 0x0 PUSH1 0x20 DUP3 ADD SWAP1 POP DUP2 DUP2 SUB PUSH1 0x0 DUP4 ADD MSTORE PUSH2 0x1DF4 DUP2 PUSH2 0x1DB8 JUMP JUMPDEST SWAP1 POP SWAP2 SWAP1 POP JUMP JUMPDEST PUSH32 0x4F776E61626C653A2063616C6C6572206973206E6F7420746865206F776E6572 PUSH1 0x0 DUP3 ADD MSTORE POP JUMP JUMPDEST PUSH1 0x0 PUSH2 0x1E31 PUSH1 0x20 DUP4 PUSH2 0x1C34 JUMP JUMPDEST SWAP2 POP PUSH2 0x1E3C DUP3 PUSH2 0x1DFB JUMP JUMPDEST PUSH1 0x20 DUP3 ADD SWAP1 POP SWAP2 SWAP1 POP JUMP JUMPDEST PUSH1 0x0 PUSH1 0x20 DUP3 ADD SWAP1 POP DUP2 DUP2 SUB PUSH1 0x0 DUP4 ADD MSTORE PUSH2 0x1E60 DUP2 PUSH2 0x1E24 JUMP JUMPDEST SWAP1 POP SWAP2 SWAP1 POP JUMP JUMPDEST PUSH32 0x4E487B7100000000000000000000000000000000000000000000000000000000 PUSH1 0x0 MSTORE PUSH1 0x11 PUSH1 0x4 MSTORE PUSH1 0x24 PUSH1 0x0 REVERT JUMPDEST PUSH1 0x0 PUSH2 0x1EA1 DUP3 PUSH2 0x15AF JUMP JUMPDEST SWAP2 POP PUSH2 0x1EAC DUP4 PUSH2 0x15AF JUMP JUMPDEST SWAP3 POP DUP3 PUSH32 0xFFFFFFFFFFFFFFFFFFFFFFFFFFFFFFFFFFFFFFFFFFFFFFFFFFFFFFFFFFFFFFFF SUB DUP3 GT ISZERO PUSH2 0x1EE1 JUMPI PUSH2 0x1EE0 PUSH2 0x1E67 JUMP JUMPDEST JUMPDEST DUP3 DUP3 ADD SWAP1 POP SWAP3 SWAP2 POP POP JUMP JUMPDEST PUSH32 0x63616E27742066696E6420707265736574207769746820746869732069642100 PUSH1 0x0 DUP3 ADD MSTORE POP JUMP JUMPDEST PUSH1 0x0 PUSH2 0x1F22 PUSH1 0x1F DUP4 PUSH2 0x1C34 JUMP JUMPDEST SWAP2 POP PUSH2 0x1F2D DUP3 PUSH2 0x1EEC JUMP JUMPDEST PUSH1 0x20 DUP3 ADD SWAP1 POP SWAP2 SWAP1 POP JUMP JUMPDEST PUSH1 0x0 PUSH1 0x20 DUP3 ADD SWAP1 POP DUP2 DUP2 SUB PUSH1 0x0 DUP4 ADD MSTORE PUSH2 0x1F51 DUP2 PUSH2 0x1F15 JUMP JUMPDEST SWAP1 POP SWAP2 SWAP1 POP JUMP JUMPDEST PUSH32 0x77696E6E6572206E65656420746F20626520736F6D74696E6720626574776565 PUSH1 0x0 DUP3 ADD MSTORE PUSH32 0x6E203020746F2033000000000000000000000000000000000000000000000000 PUSH1 0x20 DUP3 ADD MSTORE POP JUMP JUMPDEST PUSH1 0x0 PUSH2 0x1FB4 PUSH1 0x28 DUP4 PUSH2 0x1C34 JUMP JUMPDEST SWAP2 POP PUSH2 0x1FBF DUP3 PUSH2 0x1F58 JUMP JUMPDEST PUSH1 0x40 DUP3 ADD SWAP1 POP SWAP2 SWAP1 POP JUMP JUMPDEST PUSH1 0x0 PUSH1 0x20 DUP3 ADD SWAP1 POP DUP2 DUP2 SUB PUSH1 0x0 DUP4 ADD MSTORE PUSH2 0x1FE3 DUP2 PUSH2 0x1FA7 JUMP JUMPDEST SWAP1 POP SWAP2 SWAP1 POP JUMP JUMPDEST PUSH32 0x4F776E61626C653A206E6577206F776E657220697320746865207A65726F2061 PUSH1 0x0 DUP3 ADD MSTORE PUSH32 0x6464726573730000000000000000000000000000000000000000000000000000 PUSH1 0x20 DUP3 ADD MSTORE POP JUMP JUMPDEST PUSH1 0x0 PUSH2 0x2046 PUSH1 0x26 DUP4 PUSH2 0x1C34 JUMP JUMPDEST SWAP2 POP PUSH2 0x2051 DUP3 PUSH2 0x1FEA JUMP JUMPDEST PUSH1 0x40 DUP3 ADD SWAP1 POP SWAP2 SWAP1 POP JUMP JUMPDEST PUSH1 0x0 PUSH1 0x20 DUP3 ADD SWAP1 POP DUP2 DUP2 SUB PUSH1 0x0 DUP4 ADD MSTORE PUSH2 0x2075 DUP2 PUSH2 0x2039 JUMP JUMPDEST SWAP1 POP SWAP2 SWAP1 POP JUMP INVALID LOG2 PUSH5 0x6970667358 0x22 SLT KECCAK256 0xC9 JUMPDEST 0x4E PUSH9 0xF546C5D7F63B19BE73 EXTCODEHASH DUP3 NUMBER PUSH10 0x24B95BEB4C4AF91C65C1 0xAB PUSH10 0x10C22C64736F6C634300 ADDMOD MULMOD STOP CALLER "
				},
				"gasEstimates": {
					"creation": {
						"codeDepositCost": "1674000",
						"executionCost": "infinite",
						"totalCost": "infinite"
					},
					"external": {
						"addNewCompetion(uint256,address[],address[],uint256,uint256)": "infinite",
						"addNewPreset(uint256,uint256,uint256)": "infinite",
						"competionList(uint256)": "infinite",
						"factoryAddrss()": "2536",
						"getCompetion(uint256)": "infinite",
						"getPreset(uint256)": "infinite",
						"owner()": "2567",
						"presetList(uint256)": "infinite",
						"renounceOwnership()": "30419",
						"startCompetitionId()": "2452",
						"startPresetId()": "2495",
						"transferOwnership(address)": "30811",
						"updateCompetionStatus(uint256,uint8)": "infinite",
						"updateCompetionWinner(uint256,uint8)": "32209",
						"updateFactoryAddress(address)": "27232"
					},
					"internal": {
						"isExistsCompetionList(uint256)": "2260",
						"isExistsPresetList(uint256)": "2252"
					}
				},
				"methodIdentifiers": {
					"addNewCompetion(uint256,address[],address[],uint256,uint256)": "84534890",
					"addNewPreset(uint256,uint256,uint256)": "7ae996bd",
					"competionList(uint256)": "7cb1c0d4",
					"factoryAddrss()": "caa9db89",
					"getCompetion(uint256)": "d4e3706a",
					"getPreset(uint256)": "aabc4b3c",
					"owner()": "8da5cb5b",
					"presetList(uint256)": "511b4db7",
					"renounceOwnership()": "715018a6",
					"startCompetitionId()": "63db17a4",
					"startPresetId()": "e98ce444",
					"transferOwnership(address)": "f2fde38b",
					"updateCompetionStatus(uint256,uint8)": "4f03c754",
					"updateCompetionWinner(uint256,uint8)": "985d8e00",
					"updateFactoryAddress(address)": "551ee570"
				}
			},
			"storageLayout": {
				"storage": [
					{
						"astId": 7,
						"contract": "contracts/EvolveStorage.sol:EvolveStorage",
						"label": "_owner",
						"offset": 0,
						"slot": "0",
						"type": "t_address"
					},
					{
						"astId": 456,
						"contract": "contracts/EvolveStorage.sol:EvolveStorage",
						"label": "factoryAddrss",
						"offset": 0,
						"slot": "1",
						"type": "t_address"
					},
					{
						"astId": 459,
						"contract": "contracts/EvolveStorage.sol:EvolveStorage",
						"label": "startCompetitionId",
						"offset": 0,
						"slot": "2",
						"type": "t_uint256"
					},
					{
						"astId": 462,
						"contract": "contracts/EvolveStorage.sol:EvolveStorage",
						"label": "startPresetId",
						"offset": 0,
						"slot": "3",
						"type": "t_uint256"
					},
					{
						"astId": 467,
						"contract": "contracts/EvolveStorage.sol:EvolveStorage",
						"label": "presetList",
						"offset": 0,
						"slot": "4",
						"type": "t_mapping(t_uint256,t_struct(Preset)943_storage)"
					},
					{
						"astId": 472,
						"contract": "contracts/EvolveStorage.sol:EvolveStorage",
						"label": "competionList",
						"offset": 0,
						"slot": "5",
						"type": "t_mapping(t_uint256,t_struct(Competion)963_storage)"
					}
				],
				"types": {
					"t_address": {
						"encoding": "inplace",
						"label": "address",
						"numberOfBytes": "20"
					},
					"t_array(t_address)dyn_storage": {
						"base": "t_address",
						"encoding": "dynamic_array",
						"label": "address[]",
						"numberOfBytes": "32"
					},
					"t_enum(CompetionStatus)967": {
						"encoding": "inplace",
						"label": "enum IEvolveStorage.CompetionStatus",
						"numberOfBytes": "1"
					},
					"t_enum(CompetionWinner)972": {
						"encoding": "inplace",
						"label": "enum IEvolveStorage.CompetionWinner",
						"numberOfBytes": "1"
					},
					"t_mapping(t_uint256,t_struct(Competion)963_storage)": {
						"encoding": "mapping",
						"key": "t_uint256",
						"label": "mapping(uint256 => struct IEvolveStorage.Competion)",
						"numberOfBytes": "32",
						"value": "t_struct(Competion)963_storage"
					},
					"t_mapping(t_uint256,t_struct(Preset)943_storage)": {
						"encoding": "mapping",
						"key": "t_uint256",
						"label": "mapping(uint256 => struct IEvolveStorage.Preset)",
						"numberOfBytes": "32",
						"value": "t_struct(Preset)943_storage"
					},
					"t_struct(Competion)963_storage": {
						"encoding": "inplace",
						"label": "struct IEvolveStorage.Competion",
						"members": [
							{
								"astId": 946,
								"contract": "contracts/EvolveStorage.sol:EvolveStorage",
								"label": "preset",
								"offset": 0,
								"slot": "0",
								"type": "t_struct(Preset)943_storage"
							},
							{
								"astId": 949,
								"contract": "contracts/EvolveStorage.sol:EvolveStorage",
								"label": "teamA",
								"offset": 0,
								"slot": "4",
								"type": "t_array(t_address)dyn_storage"
							},
							{
								"astId": 952,
								"contract": "contracts/EvolveStorage.sol:EvolveStorage",
								"label": "teamB",
								"offset": 0,
								"slot": "5",
								"type": "t_array(t_address)dyn_storage"
							},
							{
								"astId": 955,
								"contract": "contracts/EvolveStorage.sol:EvolveStorage",
								"label": "status",
								"offset": 0,
								"slot": "6",
								"type": "t_enum(CompetionStatus)967"
							},
							{
								"astId": 958,
								"contract": "contracts/EvolveStorage.sol:EvolveStorage",
								"label": "winners",
								"offset": 1,
								"slot": "6",
								"type": "t_enum(CompetionWinner)972"
							},
							{
								"astId": 960,
								"contract": "contracts/EvolveStorage.sol:EvolveStorage",
								"label": "priceRate",
								"offset": 0,
								"slot": "7",
								"type": "t_uint256"
							},
							{
								"astId": 962,
								"contract": "contracts/EvolveStorage.sol:EvolveStorage",
								"label": "createAt",
								"offset": 0,
								"slot": "8",
								"type": "t_uint256"
							}
						],
						"numberOfBytes": "288"
					},
					"t_struct(Preset)943_storage": {
						"encoding": "inplace",
						"label": "struct IEvolveStorage.Preset",
						"members": [
							{
								"astId": 936,
								"contract": "contracts/EvolveStorage.sol:EvolveStorage",
								"label": "matchPrice",
								"offset": 0,
								"slot": "0",
								"type": "t_uint256"
							},
							{
								"astId": 938,
								"contract": "contracts/EvolveStorage.sol:EvolveStorage",
								"label": "numberOfTeamMemebr",
								"offset": 0,
								"slot": "1",
								"type": "t_uint256"
							},
							{
								"astId": 940,
								"contract": "contracts/EvolveStorage.sol:EvolveStorage",
								"label": "date",
								"offset": 0,
								"slot": "2",
								"type": "t_uint256"
							},
							{
								"astId": 942,
								"contract": "contracts/EvolveStorage.sol:EvolveStorage",
								"label": "createAt",
								"offset": 0,
								"slot": "3",
								"type": "t_uint256"
							}
						],
						"numberOfBytes": "128"
					},
					"t_uint256": {
						"encoding": "inplace",
						"label": "uint256",
						"numberOfBytes": "32"
					}
				}
			},
			"userdoc": {
				"kind": "user",
				"methods": {},
				"version": 1
			}
		}
	}
}