{
	"contracts/EvolveStorage.sol": {
		"EvolveStorage": {
			"abi": [
				{
					"inputs": [],
					"stateMutability": "nonpayable",
					"type": "constructor"
				},
				{
					"anonymous": false,
					"inputs": [
						{
							"indexed": true,
							"internalType": "address",
							"name": "previousOwner",
							"type": "address"
						},
						{
							"indexed": true,
							"internalType": "address",
							"name": "newOwner",
							"type": "address"
						}
					],
					"name": "OwnershipTransferred",
					"type": "event"
				},
				{
					"inputs": [
						{
							"internalType": "uint256",
							"name": "_presetId",
							"type": "uint256"
						},
						{
							"internalType": "address[]",
							"name": "_teamA",
							"type": "address[]"
						},
						{
							"internalType": "address[]",
							"name": "_teamB",
							"type": "address[]"
						},
						{
							"internalType": "uint256",
							"name": "_priceRate",
							"type": "uint256"
						},
						{
							"internalType": "uint256",
							"name": "_createAt",
							"type": "uint256"
						}
					],
					"name": "addNewCompetion",
					"outputs": [
						{
							"internalType": "uint256",
							"name": "competionId",
							"type": "uint256"
						}
					],
					"stateMutability": "nonpayable",
					"type": "function"
				},
				{
					"inputs": [
						{
							"internalType": "uint256",
							"name": "_matchPrice",
							"type": "uint256"
						},
						{
							"internalType": "uint256",
							"name": "_numberOfTeamMemebr",
							"type": "uint256"
						},
						{
							"internalType": "uint256",
							"name": "_createAt",
							"type": "uint256"
						}
					],
					"name": "addNewPreset",
					"outputs": [
						{
							"internalType": "uint256",
							"name": "presetId",
							"type": "uint256"
						}
					],
					"stateMutability": "nonpayable",
					"type": "function"
				},
				{
					"inputs": [
						{
							"internalType": "uint256",
							"name": "",
							"type": "uint256"
						}
					],
					"name": "competionList",
					"outputs": [
						{
							"components": [
								{
									"internalType": "uint256",
									"name": "matchPrice",
									"type": "uint256"
								},
								{
									"internalType": "uint256",
									"name": "numberOfTeamMemebr",
									"type": "uint256"
								},
								{
									"internalType": "uint256",
									"name": "date",
									"type": "uint256"
								},
								{
									"internalType": "uint256",
									"name": "createAt",
									"type": "uint256"
								}
							],
							"internalType": "struct IEvolveStorage.Preset",
							"name": "preset",
							"type": "tuple"
						},
						{
							"internalType": "enum IEvolveStorage.CompetionStatus",
							"name": "status",
							"type": "uint8"
						},
						{
							"internalType": "enum IEvolveStorage.CompetionWinner",
							"name": "winners",
							"type": "uint8"
						},
						{
							"internalType": "uint256",
							"name": "priceRate",
							"type": "uint256"
						},
						{
							"internalType": "uint256",
							"name": "createAt",
							"type": "uint256"
						}
					],
					"stateMutability": "view",
					"type": "function"
				},
				{
					"inputs": [],
					"name": "factoryAddrss",
					"outputs": [
						{
							"internalType": "address",
							"name": "",
							"type": "address"
						}
					],
					"stateMutability": "view",
					"type": "function"
				},
				{
					"inputs": [
						{
							"internalType": "uint256",
							"name": "_competionId",
							"type": "uint256"
						}
					],
					"name": "getCompetion",
					"outputs": [
						{
							"internalType": "uint256",
							"name": "presetPrice",
							"type": "uint256"
						},
						{
							"internalType": "uint256",
							"name": "playerCount",
							"type": "uint256"
						},
						{
							"internalType": "address[]",
							"name": "_teamA",
							"type": "address[]"
						},
						{
							"internalType": "address[]",
							"name": "_teamB",
							"type": "address[]"
						},
						{
							"internalType": "uint256",
							"name": "_competionStatus",
							"type": "uint256"
						},
						{
							"internalType": "uint256",
							"name": "_competionWinner",
							"type": "uint256"
						},
						{
							"internalType": "uint256",
							"name": "_priceRate",
							"type": "uint256"
						}
					],
					"stateMutability": "view",
					"type": "function"
				},
				{
					"inputs": [
						{
							"internalType": "uint256",
							"name": "_presetId",
							"type": "uint256"
						}
					],
					"name": "getPreset",
					"outputs": [
						{
							"internalType": "uint256",
							"name": "",
							"type": "uint256"
						},
						{
							"internalType": "uint256",
							"name": "",
							"type": "uint256"
						},
						{
							"internalType": "uint256",
							"name": "",
							"type": "uint256"
						}
					],
					"stateMutability": "view",
					"type": "function"
				},
				{
					"inputs": [],
					"name": "owner",
					"outputs": [
						{
							"internalType": "address",
							"name": "",
							"type": "address"
						}
					],
					"stateMutability": "view",
					"type": "function"
				},
				{
					"inputs": [
						{
							"internalType": "uint256",
							"name": "",
							"type": "uint256"
						}
					],
					"name": "presetList",
					"outputs": [
						{
							"internalType": "uint256",
							"name": "matchPrice",
							"type": "uint256"
						},
						{
							"internalType": "uint256",
							"name": "numberOfTeamMemebr",
							"type": "uint256"
						},
						{
							"internalType": "uint256",
							"name": "date",
							"type": "uint256"
						},
						{
							"internalType": "uint256",
							"name": "createAt",
							"type": "uint256"
						}
					],
					"stateMutability": "view",
					"type": "function"
				},
				{
					"inputs": [],
					"name": "renounceOwnership",
					"outputs": [],
					"stateMutability": "nonpayable",
					"type": "function"
				},
				{
					"inputs": [
						{
							"internalType": "address",
							"name": "newOwner",
							"type": "address"
						}
					],
					"name": "transferOwnership",
					"outputs": [],
					"stateMutability": "nonpayable",
					"type": "function"
				},
				{
					"inputs": [
						{
							"internalType": "uint256",
							"name": "_competionId",
							"type": "uint256"
						},
						{
							"internalType": "uint8",
							"name": "_status",
							"type": "uint8"
						}
					],
					"name": "updateCompetionStatus",
					"outputs": [
						{
							"internalType": "bool",
							"name": "",
							"type": "bool"
						}
					],
					"stateMutability": "nonpayable",
					"type": "function"
				},
				{
					"inputs": [
						{
							"internalType": "uint256",
							"name": "_competionId",
							"type": "uint256"
						},
						{
							"internalType": "uint8",
							"name": "_winnerTeam",
							"type": "uint8"
						}
					],
					"name": "updateCompetionWinner",
					"outputs": [
						{
							"internalType": "bool",
							"name": "",
							"type": "bool"
						}
					],
					"stateMutability": "nonpayable",
					"type": "function"
				},
				{
					"inputs": [
						{
							"internalType": "address",
							"name": "_factory",
							"type": "address"
						}
					],
					"name": "updateFactoryAddress",
					"outputs": [
						{
							"internalType": "bool",
							"name": "result",
							"type": "bool"
						}
					],
					"stateMutability": "nonpayable",
					"type": "function"
				}
			],
			"devdoc": {
				"kind": "dev",
				"methods": {
					"owner()": {
						"details": "Returns the address of the current owner."
					},
					"renounceOwnership()": {
						"details": "Leaves the contract without owner. It will not be possible to call `onlyOwner` functions anymore. Can only be called by the current owner. NOTE: Renouncing ownership will leave the contract without an owner, thereby removing any functionality that is only available to the owner."
					},
					"transferOwnership(address)": {
						"details": "Transfers ownership of the contract to a new account (`newOwner`). Can only be called by the current owner."
					}
				},
				"version": 1
			},
			"evm": {
				"assembly": "    /* \"contracts/EvolveStorage.sol\":303:5762  contract EvolveStorage is  Context, Ownable, IEvolveStorage{... */\n  mstore(0x40, 0x80)\n    /* \"contracts/EvolveStorage.sol\":473:474  0 */\n  0x00\n    /* \"contracts/EvolveStorage.sol\":435:474  uint256 internal startCompetitionId = 0 */\n  0x02\n  sstore\n    /* \"contracts/EvolveStorage.sol\":513:514  0 */\n  0x00\n    /* \"contracts/EvolveStorage.sol\":480:514  uint256 internal startPresetId = 0 */\n  0x03\n  sstore\n    /* \"contracts/EvolveStorage.sol\":647:705  constructor(){... */\n  callvalue\n  dup1\n  iszero\n  tag_1\n  jumpi\n  0x00\n  dup1\n  revert\ntag_1:\n  pop\n    /* \"@openzeppelin/contracts/access/Ownable.sol\":921:953  _transferOwnership(_msgSender()) */\n  tag_5\n    /* \"@openzeppelin/contracts/access/Ownable.sol\":940:952  _msgSender() */\n  tag_6\n    /* \"@openzeppelin/contracts/access/Ownable.sol\":940:950  _msgSender */\n  shl(0x20, tag_7)\n    /* \"@openzeppelin/contracts/access/Ownable.sol\":940:952  _msgSender() */\n  0x20\n  shr\n  jump\t// in\ntag_6:\n    /* \"@openzeppelin/contracts/access/Ownable.sol\":921:939  _transferOwnership */\n  shl(0x20, tag_8)\n    /* \"@openzeppelin/contracts/access/Ownable.sol\":921:953  _transferOwnership(_msgSender()) */\n  0x20\n  shr\n  jump\t// in\ntag_5:\n    /* \"contracts/EvolveStorage.sol\":686:698  _msgSender() */\n  tag_10\n    /* \"contracts/EvolveStorage.sol\":686:696  _msgSender */\n  shl(0x20, tag_7)\n    /* \"contracts/EvolveStorage.sol\":686:698  _msgSender() */\n  0x20\n  shr\n  jump\t// in\ntag_10:\n    /* \"contracts/EvolveStorage.sol\":670:683  factoryAddrss */\n  0x01\n  0x00\n    /* \"contracts/EvolveStorage.sol\":670:698  factoryAddrss = _msgSender() */\n  0x0100\n  exp\n  dup2\n  sload\n  dup2\n  0xffffffffffffffffffffffffffffffffffffffff\n  mul\n  not\n  and\n  swap1\n  dup4\n  0xffffffffffffffffffffffffffffffffffffffff\n  and\n  mul\n  or\n  swap1\n  sstore\n  pop\n    /* \"contracts/EvolveStorage.sol\":303:5762  contract EvolveStorage is  Context, Ownable, IEvolveStorage{... */\n  jump(tag_11)\n    /* \"@openzeppelin/contracts/utils/Context.sol\":640:736  function _msgSender() internal view virtual returns (address) {... */\ntag_7:\n    /* \"@openzeppelin/contracts/utils/Context.sol\":693:700  address */\n  0x00\n    /* \"@openzeppelin/contracts/utils/Context.sol\":719:729  msg.sender */\n  caller\n    /* \"@openzeppelin/contracts/utils/Context.sol\":712:729  return msg.sender */\n  swap1\n  pop\n    /* \"@openzeppelin/contracts/utils/Context.sol\":640:736  function _msgSender() internal view virtual returns (address) {... */\n  swap1\n  jump\t// out\n    /* \"@openzeppelin/contracts/access/Ownable.sol\":2270:2457  function _transferOwnership(address newOwner) internal virtual {... */\ntag_8:\n    /* \"@openzeppelin/contracts/access/Ownable.sol\":2343:2359  address oldOwner */\n  0x00\n    /* \"@openzeppelin/contracts/access/Ownable.sol\":2362:2368  _owner */\n  dup1\n  0x00\n  swap1\n  sload\n  swap1\n  0x0100\n  exp\n  swap1\n  div\n  0xffffffffffffffffffffffffffffffffffffffff\n  and\n    /* \"@openzeppelin/contracts/access/Ownable.sol\":2343:2368  address oldOwner = _owner */\n  swap1\n  pop\n    /* \"@openzeppelin/contracts/access/Ownable.sol\":2387:2395  newOwner */\n  dup2\n    /* \"@openzeppelin/contracts/access/Ownable.sol\":2378:2384  _owner */\n  0x00\n  dup1\n    /* \"@openzeppelin/contracts/access/Ownable.sol\":2378:2395  _owner = newOwner */\n  0x0100\n  exp\n  dup2\n  sload\n  dup2\n  0xffffffffffffffffffffffffffffffffffffffff\n  mul\n  not\n  and\n  swap1\n  dup4\n  0xffffffffffffffffffffffffffffffffffffffff\n  and\n  mul\n  or\n  swap1\n  sstore\n  pop\n    /* \"@openzeppelin/contracts/access/Ownable.sol\":2441:2449  newOwner */\n  dup2\n    /* \"@openzeppelin/contracts/access/Ownable.sol\":2410:2450  OwnershipTransferred(oldOwner, newOwner) */\n  0xffffffffffffffffffffffffffffffffffffffff\n  and\n    /* \"@openzeppelin/contracts/access/Ownable.sol\":2431:2439  oldOwner */\n  dup2\n    /* \"@openzeppelin/contracts/access/Ownable.sol\":2410:2450  OwnershipTransferred(oldOwner, newOwner) */\n  0xffffffffffffffffffffffffffffffffffffffff\n  and\n  0x8be0079c531659141344cd1fd0a4f28419497f9722a3daafe3b4186f6b6457e0\n  mload(0x40)\n  mload(0x40)\n  dup1\n  swap2\n  sub\n  swap1\n  log3\n    /* \"@openzeppelin/contracts/access/Ownable.sol\":2333:2457  {... */\n  pop\n    /* \"@openzeppelin/contracts/access/Ownable.sol\":2270:2457  function _transferOwnership(address newOwner) internal virtual {... */\n  pop\n  jump\t// out\n    /* \"contracts/EvolveStorage.sol\":303:5762  contract EvolveStorage is  Context, Ownable, IEvolveStorage{... */\ntag_11:\n  dataSize(sub_0)\n  dup1\n  dataOffset(sub_0)\n  0x00\n  codecopy\n  0x00\n  return\nstop\n\nsub_0: assembly {\n        /* \"contracts/EvolveStorage.sol\":303:5762  contract EvolveStorage is  Context, Ownable, IEvolveStorage{... */\n      mstore(0x40, 0x80)\n      callvalue\n      dup1\n      iszero\n      tag_1\n      jumpi\n      0x00\n      dup1\n      revert\n    tag_1:\n      pop\n      jumpi(tag_2, lt(calldatasize, 0x04))\n      shr(0xe0, calldataload(0x00))\n      dup1\n      0x84534890\n      gt\n      tag_16\n      jumpi\n      dup1\n      0xaabc4b3c\n      gt\n      tag_17\n      jumpi\n      dup1\n      0xaabc4b3c\n      eq\n      tag_12\n      jumpi\n      dup1\n      0xcaa9db89\n      eq\n      tag_13\n      jumpi\n      dup1\n      0xd4e3706a\n      eq\n      tag_14\n      jumpi\n      dup1\n      0xf2fde38b\n      eq\n      tag_15\n      jumpi\n      jump(tag_2)\n    tag_17:\n      dup1\n      0x84534890\n      eq\n      tag_9\n      jumpi\n      dup1\n      0x8da5cb5b\n      eq\n      tag_10\n      jumpi\n      dup1\n      0x985d8e00\n      eq\n      tag_11\n      jumpi\n      jump(tag_2)\n    tag_16:\n      dup1\n      0x4f03c754\n      eq\n      tag_3\n      jumpi\n      dup1\n      0x511b4db7\n      eq\n      tag_4\n      jumpi\n      dup1\n      0x551ee570\n      eq\n      tag_5\n      jumpi\n      dup1\n      0x715018a6\n      eq\n      tag_6\n      jumpi\n      dup1\n      0x7ae996bd\n      eq\n      tag_7\n      jumpi\n      dup1\n      0x7cb1c0d4\n      eq\n      tag_8\n      jumpi\n    tag_2:\n      0x00\n      dup1\n      revert\n        /* \"contracts/EvolveStorage.sol\":2417:3081  function updateCompetionStatus(uint _competionId, uint8 _status) external override ownerOrFactory returns(bool){... */\n    tag_3:\n      tag_18\n      0x04\n      dup1\n      calldatasize\n      sub\n      dup2\n      add\n      swap1\n      tag_19\n      swap2\n      swap1\n      tag_20\n      jump\t// in\n    tag_19:\n      tag_21\n      jump\t// in\n    tag_18:\n      mload(0x40)\n      tag_22\n      swap2\n      swap1\n      tag_23\n      jump\t// in\n    tag_22:\n      mload(0x40)\n      dup1\n      swap2\n      sub\n      swap1\n      return\n        /* \"contracts/EvolveStorage.sol\":538:582  mapping(uint256 => Preset) public presetList */\n    tag_4:\n      tag_24\n      0x04\n      dup1\n      calldatasize\n      sub\n      dup2\n      add\n      swap1\n      tag_25\n      swap2\n      swap1\n      tag_26\n      jump\t// in\n    tag_25:\n      tag_27\n      jump\t// in\n    tag_24:\n      mload(0x40)\n      tag_28\n      swap5\n      swap4\n      swap3\n      swap2\n      swap1\n      tag_29\n      jump\t// in\n    tag_28:\n      mload(0x40)\n      dup1\n      swap2\n      sub\n      swap1\n      return\n        /* \"contracts/EvolveStorage.sol\":1084:1244  function updateFactoryAddress(address _factory) external override onlyOwner returns(bool result){... */\n    tag_5:\n      tag_30\n      0x04\n      dup1\n      calldatasize\n      sub\n      dup2\n      add\n      swap1\n      tag_31\n      swap2\n      swap1\n      tag_32\n      jump\t// in\n    tag_31:\n      tag_33\n      jump\t// in\n    tag_30:\n      mload(0x40)\n      tag_34\n      swap2\n      swap1\n      tag_23\n      jump\t// in\n    tag_34:\n      mload(0x40)\n      dup1\n      swap2\n      sub\n      swap1\n      return\n        /* \"@openzeppelin/contracts/access/Ownable.sol\":1668:1769  function renounceOwnership() public virtual onlyOwner {... */\n    tag_6:\n      tag_35\n      tag_36\n      jump\t// in\n    tag_35:\n      stop\n        /* \"contracts/EvolveStorage.sol\":3875:4291  function addNewPreset(uint256 _matchPrice, uint256 _numberOfTeamMemebr, uint256 _createAt ) external override ownerOrFactory returns(uint presetId) {... */\n    tag_7:\n      tag_37\n      0x04\n      dup1\n      calldatasize\n      sub\n      dup2\n      add\n      swap1\n      tag_38\n      swap2\n      swap1\n      tag_39\n      jump\t// in\n    tag_38:\n      tag_40\n      jump\t// in\n    tag_37:\n      mload(0x40)\n      tag_41\n      swap2\n      swap1\n      tag_42\n      jump\t// in\n    tag_41:\n      mload(0x40)\n      dup1\n      swap2\n      sub\n      swap1\n      return\n        /* \"contracts/EvolveStorage.sol\":588:639  mapping(uint256 => Competion ) public competionList */\n    tag_8:\n      tag_43\n      0x04\n      dup1\n      calldatasize\n      sub\n      dup2\n      add\n      swap1\n      tag_44\n      swap2\n      swap1\n      tag_26\n      jump\t// in\n    tag_44:\n      tag_45\n      jump\t// in\n    tag_43:\n      mload(0x40)\n      tag_46\n      swap6\n      swap5\n      swap4\n      swap3\n      swap2\n      swap1\n      tag_47\n      jump\t// in\n    tag_46:\n      mload(0x40)\n      dup1\n      swap2\n      sub\n      swap1\n      return\n        /* \"contracts/EvolveStorage.sol\":3087:3610  function addNewCompetion(uint256 _presetId, address[] calldata _teamA, address[] calldata _teamB, uint256 _priceRate, uint256 _createAt) external override ownerOrFactory returns(uint competionId){... */\n    tag_9:\n      tag_48\n      0x04\n      dup1\n      calldatasize\n      sub\n      dup2\n      add\n      swap1\n      tag_49\n      swap2\n      swap1\n      tag_50\n      jump\t// in\n    tag_49:\n      tag_51\n      jump\t// in\n    tag_48:\n      mload(0x40)\n      tag_52\n      swap2\n      swap1\n      tag_42\n      jump\t// in\n    tag_52:\n      mload(0x40)\n      dup1\n      swap2\n      sub\n      swap1\n      return\n        /* \"@openzeppelin/contracts/access/Ownable.sol\":1036:1121  function owner() public view virtual returns (address) {... */\n    tag_10:\n      tag_53\n      tag_54\n      jump\t// in\n    tag_53:\n      mload(0x40)\n      tag_55\n      swap2\n      swap1\n      tag_56\n      jump\t// in\n    tag_55:\n      mload(0x40)\n      dup1\n      swap2\n      sub\n      swap1\n      return\n        /* \"contracts/EvolveStorage.sol\":1567:2352  function updateCompetionWinner(uint _competionId, uint8 _winnerTeam) external override ownerOrFactory returns(bool){... */\n    tag_11:\n      tag_57\n      0x04\n      dup1\n      calldatasize\n      sub\n      dup2\n      add\n      swap1\n      tag_58\n      swap2\n      swap1\n      tag_20\n      jump\t// in\n    tag_58:\n      tag_59\n      jump\t// in\n    tag_57:\n      mload(0x40)\n      tag_60\n      swap2\n      swap1\n      tag_23\n      jump\t// in\n    tag_60:\n      mload(0x40)\n      dup1\n      swap2\n      sub\n      swap1\n      return\n        /* \"contracts/EvolveStorage.sol\":4403:4621  function getPreset(uint256 _presetId) external view override returns(uint256,uint256,uint256){... */\n    tag_12:\n      tag_61\n      0x04\n      dup1\n      calldatasize\n      sub\n      dup2\n      add\n      swap1\n      tag_62\n      swap2\n      swap1\n      tag_26\n      jump\t// in\n    tag_62:\n      tag_63\n      jump\t// in\n    tag_61:\n      mload(0x40)\n      tag_64\n      swap4\n      swap3\n      swap2\n      swap1\n      tag_65\n      jump\t// in\n    tag_64:\n      mload(0x40)\n      dup1\n      swap2\n      sub\n      swap1\n      return\n        /* \"contracts/EvolveStorage.sol\":401:429  address public factoryAddrss */\n    tag_13:\n      tag_66\n      tag_67\n      jump\t// in\n    tag_66:\n      mload(0x40)\n      tag_68\n      swap2\n      swap1\n      tag_56\n      jump\t// in\n    tag_68:\n      mload(0x40)\n      dup1\n      swap2\n      sub\n      swap1\n      return\n        /* \"contracts/EvolveStorage.sol\":4627:5360  function getCompetion(uint256 _competionId) external view override ... */\n    tag_14:\n      tag_69\n      0x04\n      dup1\n      calldatasize\n      sub\n      dup2\n      add\n      swap1\n      tag_70\n      swap2\n      swap1\n      tag_26\n      jump\t// in\n    tag_70:\n      tag_71\n      jump\t// in\n    tag_69:\n      mload(0x40)\n      tag_72\n      swap8\n      swap7\n      swap6\n      swap5\n      swap4\n      swap3\n      swap2\n      swap1\n      tag_73\n      jump\t// in\n    tag_72:\n      mload(0x40)\n      dup1\n      swap2\n      sub\n      swap1\n      return\n        /* \"@openzeppelin/contracts/access/Ownable.sol\":1918:2116  function transferOwnership(address newOwner) public virtual onlyOwner {... */\n    tag_15:\n      tag_74\n      0x04\n      dup1\n      calldatasize\n      sub\n      dup2\n      add\n      swap1\n      tag_75\n      swap2\n      swap1\n      tag_32\n      jump\t// in\n    tag_75:\n      tag_76\n      jump\t// in\n    tag_74:\n      stop\n        /* \"contracts/EvolveStorage.sol\":2417:3081  function updateCompetionStatus(uint _competionId, uint8 _status) external override ownerOrFactory returns(bool){... */\n    tag_21:\n        /* \"contracts/EvolveStorage.sol\":2523:2527  bool */\n      0x00\n        /* \"contracts/EvolveStorage.sol\":936:949  factoryAddrss */\n      0x01\n      0x00\n      swap1\n      sload\n      swap1\n      0x0100\n      exp\n      swap1\n      div\n      0xffffffffffffffffffffffffffffffffffffffff\n      and\n        /* \"contracts/EvolveStorage.sol\":920:949  _msgSender() == factoryAddrss */\n      0xffffffffffffffffffffffffffffffffffffffff\n      and\n        /* \"contracts/EvolveStorage.sol\":920:932  _msgSender() */\n      tag_78\n        /* \"contracts/EvolveStorage.sol\":920:930  _msgSender */\n      tag_79\n        /* \"contracts/EvolveStorage.sol\":920:932  _msgSender() */\n      jump\t// in\n    tag_78:\n        /* \"contracts/EvolveStorage.sol\":920:949  _msgSender() == factoryAddrss */\n      0xffffffffffffffffffffffffffffffffffffffff\n      and\n      eq\n        /* \"contracts/EvolveStorage.sol\":920:976  _msgSender() == factoryAddrss || _msgSender() == owner() */\n      dup1\n      tag_80\n      jumpi\n      pop\n        /* \"contracts/EvolveStorage.sol\":969:976  owner() */\n      tag_81\n        /* \"contracts/EvolveStorage.sol\":969:974  owner */\n      tag_54\n        /* \"contracts/EvolveStorage.sol\":969:976  owner() */\n      jump\t// in\n    tag_81:\n        /* \"contracts/EvolveStorage.sol\":953:976  _msgSender() == owner() */\n      0xffffffffffffffffffffffffffffffffffffffff\n      and\n        /* \"contracts/EvolveStorage.sol\":953:965  _msgSender() */\n      tag_82\n        /* \"contracts/EvolveStorage.sol\":953:963  _msgSender */\n      tag_79\n        /* \"contracts/EvolveStorage.sol\":953:965  _msgSender() */\n      jump\t// in\n    tag_82:\n        /* \"contracts/EvolveStorage.sol\":953:976  _msgSender() == owner() */\n      0xffffffffffffffffffffffffffffffffffffffff\n      and\n      eq\n        /* \"contracts/EvolveStorage.sol\":920:976  _msgSender() == factoryAddrss || _msgSender() == owner() */\n    tag_80:\n        /* \"contracts/EvolveStorage.sol\":920:1000  _msgSender() == factoryAddrss || _msgSender() == owner() || owner() == tx.origin */\n      dup1\n      tag_83\n      jumpi\n      pop\n        /* \"contracts/EvolveStorage.sol\":991:1000  tx.origin */\n      origin\n        /* \"contracts/EvolveStorage.sol\":980:1000  owner() == tx.origin */\n      0xffffffffffffffffffffffffffffffffffffffff\n      and\n        /* \"contracts/EvolveStorage.sol\":980:987  owner() */\n      tag_84\n        /* \"contracts/EvolveStorage.sol\":980:985  owner */\n      tag_54\n        /* \"contracts/EvolveStorage.sol\":980:987  owner() */\n      jump\t// in\n    tag_84:\n        /* \"contracts/EvolveStorage.sol\":980:1000  owner() == tx.origin */\n      0xffffffffffffffffffffffffffffffffffffffff\n      and\n      eq\n        /* \"contracts/EvolveStorage.sol\":920:1000  _msgSender() == factoryAddrss || _msgSender() == owner() || owner() == tx.origin */\n    tag_83:\n        /* \"contracts/EvolveStorage.sol\":912:1059  require(_msgSender() == factoryAddrss || _msgSender() == owner() || owner() == tx.origin , \"To call this method you have to be owner or subAdmin!\") */\n      tag_85\n      jumpi\n      mload(0x40)\n      0x08c379a000000000000000000000000000000000000000000000000000000000\n      dup2\n      mstore\n      0x04\n      add\n      tag_86\n      swap1\n      tag_87\n      jump\t// in\n    tag_86:\n      mload(0x40)\n      dup1\n      swap2\n      sub\n      swap1\n      revert\n    tag_85:\n        /* \"contracts/EvolveStorage.sol\":2546:2581  isExistsCompetionList(_competionId) */\n      tag_89\n        /* \"contracts/EvolveStorage.sol\":2568:2580  _competionId */\n      dup4\n        /* \"contracts/EvolveStorage.sol\":2546:2567  isExistsCompetionList */\n      tag_90\n        /* \"contracts/EvolveStorage.sol\":2546:2581  isExistsCompetionList(_competionId) */\n      jump\t// in\n    tag_89:\n        /* \"contracts/EvolveStorage.sol\":2538:2629  require(isExistsCompetionList(_competionId), \"can't find competion with this competionId!\") */\n      tag_91\n      jumpi\n      mload(0x40)\n      0x08c379a000000000000000000000000000000000000000000000000000000000\n      dup2\n      mstore\n      0x04\n      add\n      tag_92\n      swap1\n      tag_93\n      jump\t// in\n    tag_92:\n      mload(0x40)\n      dup1\n      swap2\n      sub\n      swap1\n      revert\n    tag_91:\n        /* \"contracts/EvolveStorage.sol\":2658:2659  0 */\n      0x00\n        /* \"contracts/EvolveStorage.sol\":2647:2654  _status */\n      dup3\n        /* \"contracts/EvolveStorage.sol\":2647:2659  _status >= 0 */\n      0xff\n      and\n      lt\n      iszero\n        /* \"contracts/EvolveStorage.sol\":2647:2675  _status >= 0 && _status <= 2 */\n      dup1\n      iszero\n      tag_94\n      jumpi\n      pop\n        /* \"contracts/EvolveStorage.sol\":2674:2675  2 */\n      0x02\n        /* \"contracts/EvolveStorage.sol\":2663:2670  _status */\n      dup3\n        /* \"contracts/EvolveStorage.sol\":2663:2675  _status <= 2 */\n      0xff\n      and\n      gt\n      iszero\n        /* \"contracts/EvolveStorage.sol\":2647:2675  _status >= 0 && _status <= 2 */\n    tag_94:\n        /* \"contracts/EvolveStorage.sol\":2639:2720  require(_status >= 0 && _status <= 2, \"status need to be somting between 0 to 2\") */\n      tag_95\n      jumpi\n      mload(0x40)\n      0x08c379a000000000000000000000000000000000000000000000000000000000\n      dup2\n      mstore\n      0x04\n      add\n      tag_96\n      swap1\n      tag_97\n      jump\t// in\n    tag_96:\n      mload(0x40)\n      dup1\n      swap2\n      sub\n      swap1\n      revert\n    tag_95:\n        /* \"contracts/EvolveStorage.sol\":2730:2757  Competion storage competion */\n      0x00\n        /* \"contracts/EvolveStorage.sol\":2760:2773  competionList */\n      0x05\n        /* \"contracts/EvolveStorage.sol\":2760:2787  competionList[_competionId] */\n      0x00\n        /* \"contracts/EvolveStorage.sol\":2774:2786  _competionId */\n      dup6\n        /* \"contracts/EvolveStorage.sol\":2760:2787  competionList[_competionId] */\n      dup2\n      mstore\n      0x20\n      add\n      swap1\n      dup2\n      mstore\n      0x20\n      add\n      0x00\n      keccak256\n        /* \"contracts/EvolveStorage.sol\":2730:2787  Competion storage competion = competionList[_competionId] */\n      swap1\n      pop\n        /* \"contracts/EvolveStorage.sol\":2811:2812  0 */\n      0x00\n        /* \"contracts/EvolveStorage.sol\":2800:2807  _status */\n      dup4\n        /* \"contracts/EvolveStorage.sol\":2800:2812  _status == 0 */\n      0xff\n      and\n      eq\n        /* \"contracts/EvolveStorage.sol\":2797:3054  if(_status == 0){... */\n      iszero\n      tag_98\n      jumpi\n        /* \"contracts/EvolveStorage.sol\":2846:2869  CompetionStatus.PENDING */\n      0x00\n        /* \"contracts/EvolveStorage.sol\":2827:2836  competion */\n      dup2\n        /* \"contracts/EvolveStorage.sol\":2827:2843  competion.status */\n      0x06\n      add\n      0x00\n        /* \"contracts/EvolveStorage.sol\":2827:2869  competion.status = CompetionStatus.PENDING */\n      0x0100\n      exp\n      dup2\n      sload\n      dup2\n      0xff\n      mul\n      not\n      and\n      swap1\n      dup4\n      0x02\n      dup2\n      gt\n      iszero\n      tag_99\n      jumpi\n      tag_100\n      tag_101\n      jump\t// in\n    tag_100:\n    tag_99:\n      mul\n      or\n      swap1\n      sstore\n      pop\n        /* \"contracts/EvolveStorage.sol\":2797:3054  if(_status == 0){... */\n      jump(tag_102)\n    tag_98:\n        /* \"contracts/EvolveStorage.sol\":2899:2900  1 */\n      0x01\n        /* \"contracts/EvolveStorage.sol\":2888:2895  _status */\n      dup4\n        /* \"contracts/EvolveStorage.sol\":2888:2900  _status == 1 */\n      0xff\n      and\n      eq\n        /* \"contracts/EvolveStorage.sol\":2885:3054  if(_status == 1){... */\n      iszero\n      tag_103\n      jumpi\n        /* \"contracts/EvolveStorage.sol\":2934:2958  CompetionStatus.CANCELED */\n      0x01\n        /* \"contracts/EvolveStorage.sol\":2915:2924  competion */\n      dup2\n        /* \"contracts/EvolveStorage.sol\":2915:2931  competion.status */\n      0x06\n      add\n      0x00\n        /* \"contracts/EvolveStorage.sol\":2915:2958  competion.status = CompetionStatus.CANCELED */\n      0x0100\n      exp\n      dup2\n      sload\n      dup2\n      0xff\n      mul\n      not\n      and\n      swap1\n      dup4\n      0x02\n      dup2\n      gt\n      iszero\n      tag_104\n      jumpi\n      tag_105\n      tag_101\n      jump\t// in\n    tag_105:\n    tag_104:\n      mul\n      or\n      swap1\n      sstore\n      pop\n        /* \"contracts/EvolveStorage.sol\":2885:3054  if(_status == 1){... */\n      jump(tag_106)\n    tag_103:\n        /* \"contracts/EvolveStorage.sol\":2988:2989  2 */\n      0x02\n        /* \"contracts/EvolveStorage.sol\":2977:2984  _status */\n      dup4\n        /* \"contracts/EvolveStorage.sol\":2977:2989  _status == 2 */\n      0xff\n      and\n      eq\n        /* \"contracts/EvolveStorage.sol\":2974:3054  if(_status == 2){... */\n      iszero\n      tag_107\n      jumpi\n        /* \"contracts/EvolveStorage.sol\":3023:3043  CompetionStatus.DONE */\n      0x02\n        /* \"contracts/EvolveStorage.sol\":3004:3013  competion */\n      dup2\n        /* \"contracts/EvolveStorage.sol\":3004:3020  competion.status */\n      0x06\n      add\n      0x00\n        /* \"contracts/EvolveStorage.sol\":3004:3043  competion.status = CompetionStatus.DONE */\n      0x0100\n      exp\n      dup2\n      sload\n      dup2\n      0xff\n      mul\n      not\n      and\n      swap1\n      dup4\n      0x02\n      dup2\n      gt\n      iszero\n      tag_108\n      jumpi\n      tag_109\n      tag_101\n      jump\t// in\n    tag_109:\n    tag_108:\n      mul\n      or\n      swap1\n      sstore\n      pop\n        /* \"contracts/EvolveStorage.sol\":2974:3054  if(_status == 2){... */\n    tag_107:\n        /* \"contracts/EvolveStorage.sol\":2885:3054  if(_status == 1){... */\n    tag_106:\n        /* \"contracts/EvolveStorage.sol\":2797:3054  if(_status == 0){... */\n    tag_102:\n        /* \"contracts/EvolveStorage.sol\":3070:3074  true */\n      0x01\n        /* \"contracts/EvolveStorage.sol\":3063:3074  return true */\n      swap2\n      pop\n      pop\n        /* \"contracts/EvolveStorage.sol\":2417:3081  function updateCompetionStatus(uint _competionId, uint8 _status) external override ownerOrFactory returns(bool){... */\n      swap3\n      swap2\n      pop\n      pop\n      jump\t// out\n        /* \"contracts/EvolveStorage.sol\":538:582  mapping(uint256 => Preset) public presetList */\n    tag_27:\n      mstore(0x20, 0x04)\n      dup1\n      0x00\n      mstore\n      keccak256(0x00, 0x40)\n      0x00\n      swap2\n      pop\n      swap1\n      pop\n      dup1\n      0x00\n      add\n      sload\n      swap1\n      dup1\n      0x01\n      add\n      sload\n      swap1\n      dup1\n      0x02\n      add\n      sload\n      swap1\n      dup1\n      0x03\n      add\n      sload\n      swap1\n      pop\n      dup5\n      jump\t// out\n        /* \"contracts/EvolveStorage.sol\":1084:1244  function updateFactoryAddress(address _factory) external override onlyOwner returns(bool result){... */\n    tag_33:\n        /* \"contracts/EvolveStorage.sol\":1168:1179  bool result */\n      0x00\n        /* \"@openzeppelin/contracts/access/Ownable.sol\":1259:1271  _msgSender() */\n      tag_111\n        /* \"@openzeppelin/contracts/access/Ownable.sol\":1259:1269  _msgSender */\n      tag_79\n        /* \"@openzeppelin/contracts/access/Ownable.sol\":1259:1271  _msgSender() */\n      jump\t// in\n    tag_111:\n        /* \"@openzeppelin/contracts/access/Ownable.sol\":1248:1271  owner() == _msgSender() */\n      0xffffffffffffffffffffffffffffffffffffffff\n      and\n        /* \"@openzeppelin/contracts/access/Ownable.sol\":1248:1255  owner() */\n      tag_112\n        /* \"@openzeppelin/contracts/access/Ownable.sol\":1248:1253  owner */\n      tag_54\n        /* \"@openzeppelin/contracts/access/Ownable.sol\":1248:1255  owner() */\n      jump\t// in\n    tag_112:\n        /* \"@openzeppelin/contracts/access/Ownable.sol\":1248:1271  owner() == _msgSender() */\n      0xffffffffffffffffffffffffffffffffffffffff\n      and\n      eq\n        /* \"@openzeppelin/contracts/access/Ownable.sol\":1240:1308  require(owner() == _msgSender(), \"Ownable: caller is not the owner\") */\n      tag_113\n      jumpi\n      mload(0x40)\n      0x08c379a000000000000000000000000000000000000000000000000000000000\n      dup2\n      mstore\n      0x04\n      add\n      tag_114\n      swap1\n      tag_115\n      jump\t// in\n    tag_114:\n      mload(0x40)\n      dup1\n      swap2\n      sub\n      swap1\n      revert\n    tag_113:\n        /* \"contracts/EvolveStorage.sol\":1206:1214  _factory */\n      dup2\n        /* \"contracts/EvolveStorage.sol\":1190:1203  factoryAddrss */\n      0x01\n      0x00\n        /* \"contracts/EvolveStorage.sol\":1190:1214  factoryAddrss = _factory */\n      0x0100\n      exp\n      dup2\n      sload\n      dup2\n      0xffffffffffffffffffffffffffffffffffffffff\n      mul\n      not\n      and\n      swap1\n      dup4\n      0xffffffffffffffffffffffffffffffffffffffff\n      and\n      mul\n      or\n      swap1\n      sstore\n      pop\n        /* \"contracts/EvolveStorage.sol\":1233:1237  true */\n      0x01\n        /* \"contracts/EvolveStorage.sol\":1224:1237  result = true */\n      swap1\n      pop\n        /* \"contracts/EvolveStorage.sol\":1084:1244  function updateFactoryAddress(address _factory) external override onlyOwner returns(bool result){... */\n      swap2\n      swap1\n      pop\n      jump\t// out\n        /* \"@openzeppelin/contracts/access/Ownable.sol\":1668:1769  function renounceOwnership() public virtual onlyOwner {... */\n    tag_36:\n        /* \"@openzeppelin/contracts/access/Ownable.sol\":1259:1271  _msgSender() */\n      tag_118\n        /* \"@openzeppelin/contracts/access/Ownable.sol\":1259:1269  _msgSender */\n      tag_79\n        /* \"@openzeppelin/contracts/access/Ownable.sol\":1259:1271  _msgSender() */\n      jump\t// in\n    tag_118:\n        /* \"@openzeppelin/contracts/access/Ownable.sol\":1248:1271  owner() == _msgSender() */\n      0xffffffffffffffffffffffffffffffffffffffff\n      and\n        /* \"@openzeppelin/contracts/access/Ownable.sol\":1248:1255  owner() */\n      tag_119\n        /* \"@openzeppelin/contracts/access/Ownable.sol\":1248:1253  owner */\n      tag_54\n        /* \"@openzeppelin/contracts/access/Ownable.sol\":1248:1255  owner() */\n      jump\t// in\n    tag_119:\n        /* \"@openzeppelin/contracts/access/Ownable.sol\":1248:1271  owner() == _msgSender() */\n      0xffffffffffffffffffffffffffffffffffffffff\n      and\n      eq\n        /* \"@openzeppelin/contracts/access/Ownable.sol\":1240:1308  require(owner() == _msgSender(), \"Ownable: caller is not the owner\") */\n      tag_120\n      jumpi\n      mload(0x40)\n      0x08c379a000000000000000000000000000000000000000000000000000000000\n      dup2\n      mstore\n      0x04\n      add\n      tag_121\n      swap1\n      tag_115\n      jump\t// in\n    tag_121:\n      mload(0x40)\n      dup1\n      swap2\n      sub\n      swap1\n      revert\n    tag_120:\n        /* \"@openzeppelin/contracts/access/Ownable.sol\":1732:1762  _transferOwnership(address(0)) */\n      tag_123\n        /* \"@openzeppelin/contracts/access/Ownable.sol\":1759:1760  0 */\n      0x00\n        /* \"@openzeppelin/contracts/access/Ownable.sol\":1732:1750  _transferOwnership */\n      tag_124\n        /* \"@openzeppelin/contracts/access/Ownable.sol\":1732:1762  _transferOwnership(address(0)) */\n      jump\t// in\n    tag_123:\n        /* \"@openzeppelin/contracts/access/Ownable.sol\":1668:1769  function renounceOwnership() public virtual onlyOwner {... */\n      jump\t// out\n        /* \"contracts/EvolveStorage.sol\":3875:4291  function addNewPreset(uint256 _matchPrice, uint256 _numberOfTeamMemebr, uint256 _createAt ) external override ownerOrFactory returns(uint presetId) {... */\n    tag_40:\n        /* \"contracts/EvolveStorage.sol\":4008:4021  uint presetId */\n      0x00\n        /* \"contracts/EvolveStorage.sol\":936:949  factoryAddrss */\n      0x01\n      0x00\n      swap1\n      sload\n      swap1\n      0x0100\n      exp\n      swap1\n      div\n      0xffffffffffffffffffffffffffffffffffffffff\n      and\n        /* \"contracts/EvolveStorage.sol\":920:949  _msgSender() == factoryAddrss */\n      0xffffffffffffffffffffffffffffffffffffffff\n      and\n        /* \"contracts/EvolveStorage.sol\":920:932  _msgSender() */\n      tag_126\n        /* \"contracts/EvolveStorage.sol\":920:930  _msgSender */\n      tag_79\n        /* \"contracts/EvolveStorage.sol\":920:932  _msgSender() */\n      jump\t// in\n    tag_126:\n        /* \"contracts/EvolveStorage.sol\":920:949  _msgSender() == factoryAddrss */\n      0xffffffffffffffffffffffffffffffffffffffff\n      and\n      eq\n        /* \"contracts/EvolveStorage.sol\":920:976  _msgSender() == factoryAddrss || _msgSender() == owner() */\n      dup1\n      tag_127\n      jumpi\n      pop\n        /* \"contracts/EvolveStorage.sol\":969:976  owner() */\n      tag_128\n        /* \"contracts/EvolveStorage.sol\":969:974  owner */\n      tag_54\n        /* \"contracts/EvolveStorage.sol\":969:976  owner() */\n      jump\t// in\n    tag_128:\n        /* \"contracts/EvolveStorage.sol\":953:976  _msgSender() == owner() */\n      0xffffffffffffffffffffffffffffffffffffffff\n      and\n        /* \"contracts/EvolveStorage.sol\":953:965  _msgSender() */\n      tag_129\n        /* \"contracts/EvolveStorage.sol\":953:963  _msgSender */\n      tag_79\n        /* \"contracts/EvolveStorage.sol\":953:965  _msgSender() */\n      jump\t// in\n    tag_129:\n        /* \"contracts/EvolveStorage.sol\":953:976  _msgSender() == owner() */\n      0xffffffffffffffffffffffffffffffffffffffff\n      and\n      eq\n        /* \"contracts/EvolveStorage.sol\":920:976  _msgSender() == factoryAddrss || _msgSender() == owner() */\n    tag_127:\n        /* \"contracts/EvolveStorage.sol\":920:1000  _msgSender() == factoryAddrss || _msgSender() == owner() || owner() == tx.origin */\n      dup1\n      tag_130\n      jumpi\n      pop\n        /* \"contracts/EvolveStorage.sol\":991:1000  tx.origin */\n      origin\n        /* \"contracts/EvolveStorage.sol\":980:1000  owner() == tx.origin */\n      0xffffffffffffffffffffffffffffffffffffffff\n      and\n        /* \"contracts/EvolveStorage.sol\":980:987  owner() */\n      tag_131\n        /* \"contracts/EvolveStorage.sol\":980:985  owner */\n      tag_54\n        /* \"contracts/EvolveStorage.sol\":980:987  owner() */\n      jump\t// in\n    tag_131:\n        /* \"contracts/EvolveStorage.sol\":980:1000  owner() == tx.origin */\n      0xffffffffffffffffffffffffffffffffffffffff\n      and\n      eq\n        /* \"contracts/EvolveStorage.sol\":920:1000  _msgSender() == factoryAddrss || _msgSender() == owner() || owner() == tx.origin */\n    tag_130:\n        /* \"contracts/EvolveStorage.sol\":912:1059  require(_msgSender() == factoryAddrss || _msgSender() == owner() || owner() == tx.origin , \"To call this method you have to be owner or subAdmin!\") */\n      tag_132\n      jumpi\n      mload(0x40)\n      0x08c379a000000000000000000000000000000000000000000000000000000000\n      dup2\n      mstore\n      0x04\n      add\n      tag_133\n      swap1\n      tag_87\n      jump\t// in\n    tag_133:\n      mload(0x40)\n      dup1\n      swap2\n      sub\n      swap1\n      revert\n    tag_132:\n        /* \"contracts/EvolveStorage.sol\":4033:4051  uint _lastPresetId */\n      0x00\n        /* \"contracts/EvolveStorage.sol\":4054:4067  startPresetId */\n      sload(0x03)\n        /* \"contracts/EvolveStorage.sol\":4033:4067  uint _lastPresetId = startPresetId */\n      swap1\n      pop\n        /* \"contracts/EvolveStorage.sol\":4077:4104  Preset memory currentPreset */\n      0x00\n        /* \"contracts/EvolveStorage.sol\":4107:4175  Preset(_matchPrice, _numberOfTeamMemebr, block.timestamp, _createAt) */\n      mload(0x40)\n      dup1\n      0x80\n      add\n      0x40\n      mstore\n      dup1\n        /* \"contracts/EvolveStorage.sol\":4114:4125  _matchPrice */\n      dup8\n        /* \"contracts/EvolveStorage.sol\":4107:4175  Preset(_matchPrice, _numberOfTeamMemebr, block.timestamp, _createAt) */\n      dup2\n      mstore\n      0x20\n      add\n        /* \"contracts/EvolveStorage.sol\":4127:4146  _numberOfTeamMemebr */\n      dup7\n        /* \"contracts/EvolveStorage.sol\":4107:4175  Preset(_matchPrice, _numberOfTeamMemebr, block.timestamp, _createAt) */\n      dup2\n      mstore\n      0x20\n      add\n        /* \"contracts/EvolveStorage.sol\":4148:4163  block.timestamp */\n      timestamp\n        /* \"contracts/EvolveStorage.sol\":4107:4175  Preset(_matchPrice, _numberOfTeamMemebr, block.timestamp, _createAt) */\n      dup2\n      mstore\n      0x20\n      add\n        /* \"contracts/EvolveStorage.sol\":4165:4174  _createAt */\n      dup6\n        /* \"contracts/EvolveStorage.sol\":4107:4175  Preset(_matchPrice, _numberOfTeamMemebr, block.timestamp, _createAt) */\n      dup2\n      mstore\n      pop\n        /* \"contracts/EvolveStorage.sol\":4077:4175  Preset memory currentPreset = Preset(_matchPrice, _numberOfTeamMemebr, block.timestamp, _createAt) */\n      swap1\n      pop\n        /* \"contracts/EvolveStorage.sol\":4213:4226  currentPreset */\n      dup1\n        /* \"contracts/EvolveStorage.sol\":4185:4195  presetList */\n      0x04\n        /* \"contracts/EvolveStorage.sol\":4185:4210  presetList[_lastPresetId] */\n      0x00\n        /* \"contracts/EvolveStorage.sol\":4196:4209  _lastPresetId */\n      dup5\n        /* \"contracts/EvolveStorage.sol\":4185:4210  presetList[_lastPresetId] */\n      dup2\n      mstore\n      0x20\n      add\n      swap1\n      dup2\n      mstore\n      0x20\n      add\n      0x00\n      keccak256\n        /* \"contracts/EvolveStorage.sol\":4185:4226  presetList[_lastPresetId] = currentPreset */\n      0x00\n      dup3\n      add\n      mload\n      dup2\n      0x00\n      add\n      sstore\n      0x20\n      dup3\n      add\n      mload\n      dup2\n      0x01\n      add\n      sstore\n      0x40\n      dup3\n      add\n      mload\n      dup2\n      0x02\n      add\n      sstore\n      0x60\n      dup3\n      add\n      mload\n      dup2\n      0x03\n      add\n      sstore\n      swap1\n      pop\n      pop\n        /* \"contracts/EvolveStorage.sol\":4253:4254  1 */\n      0x01\n        /* \"contracts/EvolveStorage.sol\":4236:4249  startPresetId */\n      0x03\n      0x00\n        /* \"contracts/EvolveStorage.sol\":4236:4254  startPresetId += 1 */\n      dup3\n      dup3\n      sload\n      tag_135\n      swap2\n      swap1\n      tag_136\n      jump\t// in\n    tag_135:\n      swap3\n      pop\n      pop\n      dup2\n      swap1\n      sstore\n      pop\n        /* \"contracts/EvolveStorage.sol\":4271:4284  _lastPresetId */\n      dup2\n        /* \"contracts/EvolveStorage.sol\":4264:4284  return _lastPresetId */\n      swap3\n      pop\n      pop\n      pop\n        /* \"contracts/EvolveStorage.sol\":3875:4291  function addNewPreset(uint256 _matchPrice, uint256 _numberOfTeamMemebr, uint256 _createAt ) external override ownerOrFactory returns(uint presetId) {... */\n      swap4\n      swap3\n      pop\n      pop\n      pop\n      jump\t// out\n        /* \"contracts/EvolveStorage.sol\":588:639  mapping(uint256 => Competion ) public competionList */\n    tag_45:\n      mstore(0x20, 0x05)\n      dup1\n      0x00\n      mstore\n      keccak256(0x00, 0x40)\n      0x00\n      swap2\n      pop\n      swap1\n      pop\n      dup1\n      0x00\n      add\n      mload(0x40)\n      dup1\n      0x80\n      add\n      0x40\n      mstore\n      swap1\n      dup2\n      0x00\n      dup3\n      add\n      sload\n      dup2\n      mstore\n      0x20\n      add\n      0x01\n      dup3\n      add\n      sload\n      dup2\n      mstore\n      0x20\n      add\n      0x02\n      dup3\n      add\n      sload\n      dup2\n      mstore\n      0x20\n      add\n      0x03\n      dup3\n      add\n      sload\n      dup2\n      mstore\n      pop\n      pop\n      swap1\n      dup1\n      0x06\n      add\n      0x00\n      swap1\n      sload\n      swap1\n      0x0100\n      exp\n      swap1\n      div\n      0xff\n      and\n      swap1\n      dup1\n      0x06\n      add\n      0x01\n      swap1\n      sload\n      swap1\n      0x0100\n      exp\n      swap1\n      div\n      0xff\n      and\n      swap1\n      dup1\n      0x07\n      add\n      sload\n      swap1\n      dup1\n      0x08\n      add\n      sload\n      swap1\n      pop\n      dup6\n      jump\t// out\n        /* \"contracts/EvolveStorage.sol\":3087:3610  function addNewCompetion(uint256 _presetId, address[] calldata _teamA, address[] calldata _teamB, uint256 _priceRate, uint256 _createAt) external override ownerOrFactory returns(uint competionId){... */\n    tag_51:\n        /* \"contracts/EvolveStorage.sol\":3265:3281  uint competionId */\n      0x00\n        /* \"contracts/EvolveStorage.sol\":936:949  factoryAddrss */\n      0x01\n      0x00\n      swap1\n      sload\n      swap1\n      0x0100\n      exp\n      swap1\n      div\n      0xffffffffffffffffffffffffffffffffffffffff\n      and\n        /* \"contracts/EvolveStorage.sol\":920:949  _msgSender() == factoryAddrss */\n      0xffffffffffffffffffffffffffffffffffffffff\n      and\n        /* \"contracts/EvolveStorage.sol\":920:932  _msgSender() */\n      tag_138\n        /* \"contracts/EvolveStorage.sol\":920:930  _msgSender */\n      tag_79\n        /* \"contracts/EvolveStorage.sol\":920:932  _msgSender() */\n      jump\t// in\n    tag_138:\n        /* \"contracts/EvolveStorage.sol\":920:949  _msgSender() == factoryAddrss */\n      0xffffffffffffffffffffffffffffffffffffffff\n      and\n      eq\n        /* \"contracts/EvolveStorage.sol\":920:976  _msgSender() == factoryAddrss || _msgSender() == owner() */\n      dup1\n      tag_139\n      jumpi\n      pop\n        /* \"contracts/EvolveStorage.sol\":969:976  owner() */\n      tag_140\n        /* \"contracts/EvolveStorage.sol\":969:974  owner */\n      tag_54\n        /* \"contracts/EvolveStorage.sol\":969:976  owner() */\n      jump\t// in\n    tag_140:\n        /* \"contracts/EvolveStorage.sol\":953:976  _msgSender() == owner() */\n      0xffffffffffffffffffffffffffffffffffffffff\n      and\n        /* \"contracts/EvolveStorage.sol\":953:965  _msgSender() */\n      tag_141\n        /* \"contracts/EvolveStorage.sol\":953:963  _msgSender */\n      tag_79\n        /* \"contracts/EvolveStorage.sol\":953:965  _msgSender() */\n      jump\t// in\n    tag_141:\n        /* \"contracts/EvolveStorage.sol\":953:976  _msgSender() == owner() */\n      0xffffffffffffffffffffffffffffffffffffffff\n      and\n      eq\n        /* \"contracts/EvolveStorage.sol\":920:976  _msgSender() == factoryAddrss || _msgSender() == owner() */\n    tag_139:\n        /* \"contracts/EvolveStorage.sol\":920:1000  _msgSender() == factoryAddrss || _msgSender() == owner() || owner() == tx.origin */\n      dup1\n      tag_142\n      jumpi\n      pop\n        /* \"contracts/EvolveStorage.sol\":991:1000  tx.origin */\n      origin\n        /* \"contracts/EvolveStorage.sol\":980:1000  owner() == tx.origin */\n      0xffffffffffffffffffffffffffffffffffffffff\n      and\n        /* \"contracts/EvolveStorage.sol\":980:987  owner() */\n      tag_143\n        /* \"contracts/EvolveStorage.sol\":980:985  owner */\n      tag_54\n        /* \"contracts/EvolveStorage.sol\":980:987  owner() */\n      jump\t// in\n    tag_143:\n        /* \"contracts/EvolveStorage.sol\":980:1000  owner() == tx.origin */\n      0xffffffffffffffffffffffffffffffffffffffff\n      and\n      eq\n        /* \"contracts/EvolveStorage.sol\":920:1000  _msgSender() == factoryAddrss || _msgSender() == owner() || owner() == tx.origin */\n    tag_142:\n        /* \"contracts/EvolveStorage.sol\":912:1059  require(_msgSender() == factoryAddrss || _msgSender() == owner() || owner() == tx.origin , \"To call this method you have to be owner or subAdmin!\") */\n      tag_144\n      jumpi\n      mload(0x40)\n      0x08c379a000000000000000000000000000000000000000000000000000000000\n      dup2\n      mstore\n      0x04\n      add\n      tag_145\n      swap1\n      tag_87\n      jump\t// in\n    tag_145:\n      mload(0x40)\n      dup1\n      swap2\n      sub\n      swap1\n      revert\n    tag_144:\n        /* \"contracts/EvolveStorage.sol\":3300:3329  isExistsPresetList(_presetId) */\n      tag_147\n        /* \"contracts/EvolveStorage.sol\":3319:3328  _presetId */\n      dup9\n        /* \"contracts/EvolveStorage.sol\":3300:3318  isExistsPresetList */\n      tag_148\n        /* \"contracts/EvolveStorage.sol\":3300:3329  isExistsPresetList(_presetId) */\n      jump\t// in\n    tag_147:\n        /* \"contracts/EvolveStorage.sol\":3292:3365  require(isExistsPresetList(_presetId), \"can't find preset with this id!\") */\n      tag_149\n      jumpi\n      mload(0x40)\n      0x08c379a000000000000000000000000000000000000000000000000000000000\n      dup2\n      mstore\n      0x04\n      add\n      tag_150\n      swap1\n      tag_151\n      jump\t// in\n    tag_150:\n      mload(0x40)\n      dup1\n      swap2\n      sub\n      swap1\n      revert\n    tag_149:\n        /* \"contracts/EvolveStorage.sol\":3411:3528  Competion(presetList[_presetId],_teamA, _teamB, CompetionStatus.PENDING, CompetionWinner.OPEN, _priceRate, _createAt) */\n      mload(0x40)\n      dup1\n      0xe0\n      add\n      0x40\n      mstore\n      dup1\n        /* \"contracts/EvolveStorage.sol\":3421:3431  presetList */\n      0x04\n        /* \"contracts/EvolveStorage.sol\":3421:3442  presetList[_presetId] */\n      0x00\n        /* \"contracts/EvolveStorage.sol\":3432:3441  _presetId */\n      dup12\n        /* \"contracts/EvolveStorage.sol\":3421:3442  presetList[_presetId] */\n      dup2\n      mstore\n      0x20\n      add\n      swap1\n      dup2\n      mstore\n      0x20\n      add\n      0x00\n      keccak256\n        /* \"contracts/EvolveStorage.sol\":3411:3528  Competion(presetList[_presetId],_teamA, _teamB, CompetionStatus.PENDING, CompetionWinner.OPEN, _priceRate, _createAt) */\n      mload(0x40)\n      dup1\n      0x80\n      add\n      0x40\n      mstore\n      swap1\n      dup2\n      0x00\n      dup3\n      add\n      sload\n      dup2\n      mstore\n      0x20\n      add\n      0x01\n      dup3\n      add\n      sload\n      dup2\n      mstore\n      0x20\n      add\n      0x02\n      dup3\n      add\n      sload\n      dup2\n      mstore\n      0x20\n      add\n      0x03\n      dup3\n      add\n      sload\n      dup2\n      mstore\n      pop\n      pop\n      dup2\n      mstore\n      0x20\n      add\n        /* \"contracts/EvolveStorage.sol\":3443:3449  _teamA */\n      dup9\n      dup9\n        /* \"contracts/EvolveStorage.sol\":3411:3528  Competion(presetList[_presetId],_teamA, _teamB, CompetionStatus.PENDING, CompetionWinner.OPEN, _priceRate, _createAt) */\n      dup1\n      dup1\n      0x20\n      mul\n      0x20\n      add\n      mload(0x40)\n      swap1\n      dup2\n      add\n      0x40\n      mstore\n      dup1\n      swap4\n      swap3\n      swap2\n      swap1\n      dup2\n      dup2\n      mstore\n      0x20\n      add\n      dup4\n      dup4\n      0x20\n      mul\n      dup1\n      dup3\n      dup5\n      calldatacopy\n      0x00\n      dup2\n      dup5\n      add\n      mstore\n      not(0x1f)\n      0x1f\n      dup3\n      add\n      and\n      swap1\n      pop\n      dup1\n      dup4\n      add\n      swap3\n      pop\n      pop\n      pop\n      pop\n      pop\n      pop\n      pop\n      dup2\n      mstore\n      0x20\n      add\n        /* \"contracts/EvolveStorage.sol\":3451:3457  _teamB */\n      dup7\n      dup7\n        /* \"contracts/EvolveStorage.sol\":3411:3528  Competion(presetList[_presetId],_teamA, _teamB, CompetionStatus.PENDING, CompetionWinner.OPEN, _priceRate, _createAt) */\n      dup1\n      dup1\n      0x20\n      mul\n      0x20\n      add\n      mload(0x40)\n      swap1\n      dup2\n      add\n      0x40\n      mstore\n      dup1\n      swap4\n      swap3\n      swap2\n      swap1\n      dup2\n      dup2\n      mstore\n      0x20\n      add\n      dup4\n      dup4\n      0x20\n      mul\n      dup1\n      dup3\n      dup5\n      calldatacopy\n      0x00\n      dup2\n      dup5\n      add\n      mstore\n      not(0x1f)\n      0x1f\n      dup3\n      add\n      and\n      swap1\n      pop\n      dup1\n      dup4\n      add\n      swap3\n      pop\n      pop\n      pop\n      pop\n      pop\n      pop\n      pop\n      dup2\n      mstore\n      0x20\n      add\n        /* \"contracts/EvolveStorage.sol\":3459:3482  CompetionStatus.PENDING */\n      0x00\n        /* \"contracts/EvolveStorage.sol\":3411:3528  Competion(presetList[_presetId],_teamA, _teamB, CompetionStatus.PENDING, CompetionWinner.OPEN, _priceRate, _createAt) */\n      0x02\n      dup2\n      gt\n      iszero\n      tag_152\n      jumpi\n      tag_153\n      tag_101\n      jump\t// in\n    tag_153:\n    tag_152:\n      dup2\n      mstore\n      0x20\n      add\n        /* \"contracts/EvolveStorage.sol\":3484:3504  CompetionWinner.OPEN */\n      0x03\n        /* \"contracts/EvolveStorage.sol\":3411:3528  Competion(presetList[_presetId],_teamA, _teamB, CompetionStatus.PENDING, CompetionWinner.OPEN, _priceRate, _createAt) */\n      dup1\n      dup2\n      gt\n      iszero\n      tag_154\n      jumpi\n      tag_155\n      tag_101\n      jump\t// in\n    tag_155:\n    tag_154:\n      dup2\n      mstore\n      0x20\n      add\n        /* \"contracts/EvolveStorage.sol\":3506:3516  _priceRate */\n      dup5\n        /* \"contracts/EvolveStorage.sol\":3411:3528  Competion(presetList[_presetId],_teamA, _teamB, CompetionStatus.PENDING, CompetionWinner.OPEN, _priceRate, _createAt) */\n      dup2\n      mstore\n      0x20\n      add\n        /* \"contracts/EvolveStorage.sol\":3518:3527  _createAt */\n      dup4\n        /* \"contracts/EvolveStorage.sol\":3411:3528  Competion(presetList[_presetId],_teamA, _teamB, CompetionStatus.PENDING, CompetionWinner.OPEN, _priceRate, _createAt) */\n      dup2\n      mstore\n      pop\n        /* \"contracts/EvolveStorage.sol\":3375:3388  competionList */\n      0x05\n        /* \"contracts/EvolveStorage.sol\":3375:3408  competionList[startCompetitionId] */\n      0x00\n        /* \"contracts/EvolveStorage.sol\":3389:3407  startCompetitionId */\n      sload(0x02)\n        /* \"contracts/EvolveStorage.sol\":3375:3408  competionList[startCompetitionId] */\n      dup2\n      mstore\n      0x20\n      add\n      swap1\n      dup2\n      mstore\n      0x20\n      add\n      0x00\n      keccak256\n        /* \"contracts/EvolveStorage.sol\":3375:3528  competionList[startCompetitionId] = Competion(presetList[_presetId],_teamA, _teamB, CompetionStatus.PENDING, CompetionWinner.OPEN, _priceRate, _createAt) */\n      0x00\n      dup3\n      add\n      mload\n      dup2\n      0x00\n      add\n      0x00\n      dup3\n      add\n      mload\n      dup2\n      0x00\n      add\n      sstore\n      0x20\n      dup3\n      add\n      mload\n      dup2\n      0x01\n      add\n      sstore\n      0x40\n      dup3\n      add\n      mload\n      dup2\n      0x02\n      add\n      sstore\n      0x60\n      dup3\n      add\n      mload\n      dup2\n      0x03\n      add\n      sstore\n      pop\n      pop\n      0x20\n      dup3\n      add\n      mload\n      dup2\n      0x04\n      add\n      swap1\n      dup1\n      mload\n      swap1\n      0x20\n      add\n      swap1\n      tag_156\n      swap3\n      swap2\n      swap1\n      tag_157\n      jump\t// in\n    tag_156:\n      pop\n      0x40\n      dup3\n      add\n      mload\n      dup2\n      0x05\n      add\n      swap1\n      dup1\n      mload\n      swap1\n      0x20\n      add\n      swap1\n      tag_158\n      swap3\n      swap2\n      swap1\n      tag_157\n      jump\t// in\n    tag_158:\n      pop\n      0x60\n      dup3\n      add\n      mload\n      dup2\n      0x06\n      add\n      exp(0x0100, 0x00)\n      dup2\n      sload\n      dup2\n      0xff\n      mul\n      not\n      and\n      swap1\n      dup4\n      0x02\n      dup2\n      gt\n      iszero\n      tag_159\n      jumpi\n      tag_160\n      tag_101\n      jump\t// in\n    tag_160:\n    tag_159:\n      mul\n      or\n      swap1\n      sstore\n      pop\n      0x80\n      dup3\n      add\n      mload\n      dup2\n      0x06\n      add\n      exp(0x0100, 0x01)\n      dup2\n      sload\n      dup2\n      0xff\n      mul\n      not\n      and\n      swap1\n      dup4\n      0x03\n      dup2\n      gt\n      iszero\n      tag_161\n      jumpi\n      tag_162\n      tag_101\n      jump\t// in\n    tag_162:\n    tag_161:\n      mul\n      or\n      swap1\n      sstore\n      pop\n      0xa0\n      dup3\n      add\n      mload\n      dup2\n      0x07\n      add\n      sstore\n      0xc0\n      dup3\n      add\n      mload\n      dup2\n      0x08\n      add\n      sstore\n      swap1\n      pop\n      pop\n        /* \"contracts/EvolveStorage.sol\":3552:3570  startCompetitionId */\n      sload(0x02)\n        /* \"contracts/EvolveStorage.sol\":3538:3570  competionId = startCompetitionId */\n      swap1\n      pop\n        /* \"contracts/EvolveStorage.sol\":3602:3603  1 */\n      0x01\n        /* \"contracts/EvolveStorage.sol\":3580:3598  startCompetitionId */\n      0x02\n      0x00\n        /* \"contracts/EvolveStorage.sol\":3580:3603  startCompetitionId += 1 */\n      dup3\n      dup3\n      sload\n      tag_163\n      swap2\n      swap1\n      tag_136\n      jump\t// in\n    tag_163:\n      swap3\n      pop\n      pop\n      dup2\n      swap1\n      sstore\n      pop\n        /* \"contracts/EvolveStorage.sol\":3087:3610  function addNewCompetion(uint256 _presetId, address[] calldata _teamA, address[] calldata _teamB, uint256 _priceRate, uint256 _createAt) external override ownerOrFactory returns(uint competionId){... */\n      swap8\n      swap7\n      pop\n      pop\n      pop\n      pop\n      pop\n      pop\n      pop\n      jump\t// out\n        /* \"@openzeppelin/contracts/access/Ownable.sol\":1036:1121  function owner() public view virtual returns (address) {... */\n    tag_54:\n        /* \"@openzeppelin/contracts/access/Ownable.sol\":1082:1089  address */\n      0x00\n        /* \"@openzeppelin/contracts/access/Ownable.sol\":1108:1114  _owner */\n      dup1\n      0x00\n      swap1\n      sload\n      swap1\n      0x0100\n      exp\n      swap1\n      div\n      0xffffffffffffffffffffffffffffffffffffffff\n      and\n        /* \"@openzeppelin/contracts/access/Ownable.sol\":1101:1114  return _owner */\n      swap1\n      pop\n        /* \"@openzeppelin/contracts/access/Ownable.sol\":1036:1121  function owner() public view virtual returns (address) {... */\n      swap1\n      jump\t// out\n        /* \"contracts/EvolveStorage.sol\":1567:2352  function updateCompetionWinner(uint _competionId, uint8 _winnerTeam) external override ownerOrFactory returns(bool){... */\n    tag_59:\n        /* \"contracts/EvolveStorage.sol\":1677:1681  bool */\n      0x00\n        /* \"contracts/EvolveStorage.sol\":936:949  factoryAddrss */\n      0x01\n      0x00\n      swap1\n      sload\n      swap1\n      0x0100\n      exp\n      swap1\n      div\n      0xffffffffffffffffffffffffffffffffffffffff\n      and\n        /* \"contracts/EvolveStorage.sol\":920:949  _msgSender() == factoryAddrss */\n      0xffffffffffffffffffffffffffffffffffffffff\n      and\n        /* \"contracts/EvolveStorage.sol\":920:932  _msgSender() */\n      tag_166\n        /* \"contracts/EvolveStorage.sol\":920:930  _msgSender */\n      tag_79\n        /* \"contracts/EvolveStorage.sol\":920:932  _msgSender() */\n      jump\t// in\n    tag_166:\n        /* \"contracts/EvolveStorage.sol\":920:949  _msgSender() == factoryAddrss */\n      0xffffffffffffffffffffffffffffffffffffffff\n      and\n      eq\n        /* \"contracts/EvolveStorage.sol\":920:976  _msgSender() == factoryAddrss || _msgSender() == owner() */\n      dup1\n      tag_167\n      jumpi\n      pop\n        /* \"contracts/EvolveStorage.sol\":969:976  owner() */\n      tag_168\n        /* \"contracts/EvolveStorage.sol\":969:974  owner */\n      tag_54\n        /* \"contracts/EvolveStorage.sol\":969:976  owner() */\n      jump\t// in\n    tag_168:\n        /* \"contracts/EvolveStorage.sol\":953:976  _msgSender() == owner() */\n      0xffffffffffffffffffffffffffffffffffffffff\n      and\n        /* \"contracts/EvolveStorage.sol\":953:965  _msgSender() */\n      tag_169\n        /* \"contracts/EvolveStorage.sol\":953:963  _msgSender */\n      tag_79\n        /* \"contracts/EvolveStorage.sol\":953:965  _msgSender() */\n      jump\t// in\n    tag_169:\n        /* \"contracts/EvolveStorage.sol\":953:976  _msgSender() == owner() */\n      0xffffffffffffffffffffffffffffffffffffffff\n      and\n      eq\n        /* \"contracts/EvolveStorage.sol\":920:976  _msgSender() == factoryAddrss || _msgSender() == owner() */\n    tag_167:\n        /* \"contracts/EvolveStorage.sol\":920:1000  _msgSender() == factoryAddrss || _msgSender() == owner() || owner() == tx.origin */\n      dup1\n      tag_170\n      jumpi\n      pop\n        /* \"contracts/EvolveStorage.sol\":991:1000  tx.origin */\n      origin\n        /* \"contracts/EvolveStorage.sol\":980:1000  owner() == tx.origin */\n      0xffffffffffffffffffffffffffffffffffffffff\n      and\n        /* \"contracts/EvolveStorage.sol\":980:987  owner() */\n      tag_171\n        /* \"contracts/EvolveStorage.sol\":980:985  owner */\n      tag_54\n        /* \"contracts/EvolveStorage.sol\":980:987  owner() */\n      jump\t// in\n    tag_171:\n        /* \"contracts/EvolveStorage.sol\":980:1000  owner() == tx.origin */\n      0xffffffffffffffffffffffffffffffffffffffff\n      and\n      eq\n        /* \"contracts/EvolveStorage.sol\":920:1000  _msgSender() == factoryAddrss || _msgSender() == owner() || owner() == tx.origin */\n    tag_170:\n        /* \"contracts/EvolveStorage.sol\":912:1059  require(_msgSender() == factoryAddrss || _msgSender() == owner() || owner() == tx.origin , \"To call this method you have to be owner or subAdmin!\") */\n      tag_172\n      jumpi\n      mload(0x40)\n      0x08c379a000000000000000000000000000000000000000000000000000000000\n      dup2\n      mstore\n      0x04\n      add\n      tag_173\n      swap1\n      tag_87\n      jump\t// in\n    tag_173:\n      mload(0x40)\n      dup1\n      swap2\n      sub\n      swap1\n      revert\n    tag_172:\n        /* \"contracts/EvolveStorage.sol\":1700:1735  isExistsCompetionList(_competionId) */\n      tag_175\n        /* \"contracts/EvolveStorage.sol\":1722:1734  _competionId */\n      dup4\n        /* \"contracts/EvolveStorage.sol\":1700:1721  isExistsCompetionList */\n      tag_90\n        /* \"contracts/EvolveStorage.sol\":1700:1735  isExistsCompetionList(_competionId) */\n      jump\t// in\n    tag_175:\n        /* \"contracts/EvolveStorage.sol\":1692:1783  require(isExistsCompetionList(_competionId), \"can't find competion with this competionId!\") */\n      tag_176\n      jumpi\n      mload(0x40)\n      0x08c379a000000000000000000000000000000000000000000000000000000000\n      dup2\n      mstore\n      0x04\n      add\n      tag_177\n      swap1\n      tag_93\n      jump\t// in\n    tag_177:\n      mload(0x40)\n      dup1\n      swap2\n      sub\n      swap1\n      revert\n    tag_176:\n        /* \"contracts/EvolveStorage.sol\":1816:1817  0 */\n      0x00\n        /* \"contracts/EvolveStorage.sol\":1801:1812  _winnerTeam */\n      dup3\n        /* \"contracts/EvolveStorage.sol\":1801:1817  _winnerTeam >= 0 */\n      0xff\n      and\n      lt\n      iszero\n        /* \"contracts/EvolveStorage.sol\":1801:1837  _winnerTeam >= 0 && _winnerTeam <= 3 */\n      dup1\n      iszero\n      tag_178\n      jumpi\n      pop\n        /* \"contracts/EvolveStorage.sol\":1836:1837  3 */\n      0x03\n        /* \"contracts/EvolveStorage.sol\":1821:1832  _winnerTeam */\n      dup3\n        /* \"contracts/EvolveStorage.sol\":1821:1837  _winnerTeam <= 3 */\n      0xff\n      and\n      gt\n      iszero\n        /* \"contracts/EvolveStorage.sol\":1801:1837  _winnerTeam >= 0 && _winnerTeam <= 3 */\n    tag_178:\n        /* \"contracts/EvolveStorage.sol\":1793:1882  require(_winnerTeam >= 0 && _winnerTeam <= 3, \"winner need to be somting between 0 to 3\") */\n      tag_179\n      jumpi\n      mload(0x40)\n      0x08c379a000000000000000000000000000000000000000000000000000000000\n      dup2\n      mstore\n      0x04\n      add\n      tag_180\n      swap1\n      tag_181\n      jump\t// in\n    tag_180:\n      mload(0x40)\n      dup1\n      swap2\n      sub\n      swap1\n      revert\n    tag_179:\n        /* \"contracts/EvolveStorage.sol\":1892:1919  Competion storage competion */\n      0x00\n        /* \"contracts/EvolveStorage.sol\":1922:1935  competionList */\n      0x05\n        /* \"contracts/EvolveStorage.sol\":1922:1949  competionList[_competionId] */\n      0x00\n        /* \"contracts/EvolveStorage.sol\":1936:1948  _competionId */\n      dup6\n        /* \"contracts/EvolveStorage.sol\":1922:1949  competionList[_competionId] */\n      dup2\n      mstore\n      0x20\n      add\n      swap1\n      dup2\n      mstore\n      0x20\n      add\n      0x00\n      keccak256\n        /* \"contracts/EvolveStorage.sol\":1892:1949  Competion storage competion = competionList[_competionId] */\n      swap1\n      pop\n        /* \"contracts/EvolveStorage.sol\":1977:1978  0 */\n      0x00\n        /* \"contracts/EvolveStorage.sol\":1962:1973  _winnerTeam */\n      dup4\n        /* \"contracts/EvolveStorage.sol\":1962:1978  _winnerTeam == 0 */\n      0xff\n      and\n      eq\n        /* \"contracts/EvolveStorage.sol\":1959:2316  if(_winnerTeam == 0){... */\n      iszero\n      tag_182\n      jumpi\n        /* \"contracts/EvolveStorage.sol\":2013:2034  CompetionWinner.TEAMA */\n      0x00\n        /* \"contracts/EvolveStorage.sol\":1993:2002  competion */\n      dup2\n        /* \"contracts/EvolveStorage.sol\":1993:2010  competion.winners */\n      0x06\n      add\n      0x01\n        /* \"contracts/EvolveStorage.sol\":1993:2034  competion.winners = CompetionWinner.TEAMA */\n      0x0100\n      exp\n      dup2\n      sload\n      dup2\n      0xff\n      mul\n      not\n      and\n      swap1\n      dup4\n      0x03\n      dup2\n      gt\n      iszero\n      tag_183\n      jumpi\n      tag_184\n      tag_101\n      jump\t// in\n    tag_184:\n    tag_183:\n      mul\n      or\n      swap1\n      sstore\n      pop\n        /* \"contracts/EvolveStorage.sol\":1959:2316  if(_winnerTeam == 0){... */\n      jump(tag_185)\n    tag_182:\n        /* \"contracts/EvolveStorage.sol\":2068:2069  1 */\n      0x01\n        /* \"contracts/EvolveStorage.sol\":2053:2064  _winnerTeam */\n      dup4\n        /* \"contracts/EvolveStorage.sol\":2053:2069  _winnerTeam == 1 */\n      0xff\n      and\n      eq\n        /* \"contracts/EvolveStorage.sol\":2050:2316  if(_winnerTeam == 1){... */\n      iszero\n      tag_186\n      jumpi\n        /* \"contracts/EvolveStorage.sol\":2104:2125  CompetionWinner.TEAMB */\n      0x01\n        /* \"contracts/EvolveStorage.sol\":2084:2093  competion */\n      dup2\n        /* \"contracts/EvolveStorage.sol\":2084:2101  competion.winners */\n      0x06\n      add\n      0x01\n        /* \"contracts/EvolveStorage.sol\":2084:2125  competion.winners = CompetionWinner.TEAMB */\n      0x0100\n      exp\n      dup2\n      sload\n      dup2\n      0xff\n      mul\n      not\n      and\n      swap1\n      dup4\n      0x03\n      dup2\n      gt\n      iszero\n      tag_187\n      jumpi\n      tag_188\n      tag_101\n      jump\t// in\n    tag_188:\n    tag_187:\n      mul\n      or\n      swap1\n      sstore\n      pop\n        /* \"contracts/EvolveStorage.sol\":2050:2316  if(_winnerTeam == 1){... */\n      jump(tag_189)\n    tag_186:\n        /* \"contracts/EvolveStorage.sol\":2159:2160  2 */\n      0x02\n        /* \"contracts/EvolveStorage.sol\":2144:2155  _winnerTeam */\n      dup4\n        /* \"contracts/EvolveStorage.sol\":2144:2160  _winnerTeam == 2 */\n      0xff\n      and\n      eq\n        /* \"contracts/EvolveStorage.sol\":2141:2316  if(_winnerTeam == 2){... */\n      iszero\n      tag_190\n      jumpi\n        /* \"contracts/EvolveStorage.sol\":2195:2215  CompetionWinner.DRAW */\n      0x02\n        /* \"contracts/EvolveStorage.sol\":2175:2184  competion */\n      dup2\n        /* \"contracts/EvolveStorage.sol\":2175:2192  competion.winners */\n      0x06\n      add\n      0x01\n        /* \"contracts/EvolveStorage.sol\":2175:2215  competion.winners = CompetionWinner.DRAW */\n      0x0100\n      exp\n      dup2\n      sload\n      dup2\n      0xff\n      mul\n      not\n      and\n      swap1\n      dup4\n      0x03\n      dup2\n      gt\n      iszero\n      tag_191\n      jumpi\n      tag_192\n      tag_101\n      jump\t// in\n    tag_192:\n    tag_191:\n      mul\n      or\n      swap1\n      sstore\n      pop\n        /* \"contracts/EvolveStorage.sol\":2141:2316  if(_winnerTeam == 2){... */\n      jump(tag_193)\n    tag_190:\n        /* \"contracts/EvolveStorage.sol\":2249:2250  3 */\n      0x03\n        /* \"contracts/EvolveStorage.sol\":2234:2245  _winnerTeam */\n      dup4\n        /* \"contracts/EvolveStorage.sol\":2234:2250  _winnerTeam == 3 */\n      0xff\n      and\n      eq\n        /* \"contracts/EvolveStorage.sol\":2231:2316  if(_winnerTeam == 3){... */\n      iszero\n      tag_194\n      jumpi\n        /* \"contracts/EvolveStorage.sol\":2285:2305  CompetionWinner.OPEN */\n      0x03\n        /* \"contracts/EvolveStorage.sol\":2265:2274  competion */\n      dup2\n        /* \"contracts/EvolveStorage.sol\":2265:2282  competion.winners */\n      0x06\n      add\n      0x01\n        /* \"contracts/EvolveStorage.sol\":2265:2305  competion.winners = CompetionWinner.OPEN */\n      0x0100\n      exp\n      dup2\n      sload\n      dup2\n      0xff\n      mul\n      not\n      and\n      swap1\n      dup4\n      0x03\n      dup2\n      gt\n      iszero\n      tag_195\n      jumpi\n      tag_196\n      tag_101\n      jump\t// in\n    tag_196:\n    tag_195:\n      mul\n      or\n      swap1\n      sstore\n      pop\n        /* \"contracts/EvolveStorage.sol\":2231:2316  if(_winnerTeam == 3){... */\n    tag_194:\n        /* \"contracts/EvolveStorage.sol\":2141:2316  if(_winnerTeam == 2){... */\n    tag_193:\n        /* \"contracts/EvolveStorage.sol\":2050:2316  if(_winnerTeam == 1){... */\n    tag_189:\n        /* \"contracts/EvolveStorage.sol\":1959:2316  if(_winnerTeam == 0){... */\n    tag_185:\n        /* \"contracts/EvolveStorage.sol\":2341:2345  true */\n      0x01\n        /* \"contracts/EvolveStorage.sol\":2334:2345  return true */\n      swap2\n      pop\n      pop\n        /* \"contracts/EvolveStorage.sol\":1567:2352  function updateCompetionWinner(uint _competionId, uint8 _winnerTeam) external override ownerOrFactory returns(bool){... */\n      swap3\n      swap2\n      pop\n      pop\n      jump\t// out\n        /* \"contracts/EvolveStorage.sol\":4403:4621  function getPreset(uint256 _presetId) external view override returns(uint256,uint256,uint256){... */\n    tag_63:\n        /* \"contracts/EvolveStorage.sol\":4472:4479  uint256 */\n      0x00\n        /* \"contracts/EvolveStorage.sol\":4480:4487  uint256 */\n      dup1\n        /* \"contracts/EvolveStorage.sol\":4488:4495  uint256 */\n      0x00\n        /* \"contracts/EvolveStorage.sol\":4511:4521  presetList */\n      0x04\n        /* \"contracts/EvolveStorage.sol\":4511:4532  presetList[_presetId] */\n      0x00\n        /* \"contracts/EvolveStorage.sol\":4522:4531  _presetId */\n      dup6\n        /* \"contracts/EvolveStorage.sol\":4511:4532  presetList[_presetId] */\n      dup2\n      mstore\n      0x20\n      add\n      swap1\n      dup2\n      mstore\n      0x20\n      add\n      0x00\n      keccak256\n        /* \"contracts/EvolveStorage.sol\":4511:4543  presetList[_presetId].matchPrice */\n      0x00\n      add\n      sload\n        /* \"contracts/EvolveStorage.sol\":4545:4555  presetList */\n      0x04\n        /* \"contracts/EvolveStorage.sol\":4545:4566  presetList[_presetId] */\n      0x00\n        /* \"contracts/EvolveStorage.sol\":4556:4565  _presetId */\n      dup7\n        /* \"contracts/EvolveStorage.sol\":4545:4566  presetList[_presetId] */\n      dup2\n      mstore\n      0x20\n      add\n      swap1\n      dup2\n      mstore\n      0x20\n      add\n      0x00\n      keccak256\n        /* \"contracts/EvolveStorage.sol\":4545:4585  presetList[_presetId].numberOfTeamMemebr */\n      0x01\n      add\n      sload\n        /* \"contracts/EvolveStorage.sol\":4587:4597  presetList */\n      0x04\n        /* \"contracts/EvolveStorage.sol\":4587:4608  presetList[_presetId] */\n      0x00\n        /* \"contracts/EvolveStorage.sol\":4598:4607  _presetId */\n      dup8\n        /* \"contracts/EvolveStorage.sol\":4587:4608  presetList[_presetId] */\n      dup2\n      mstore\n      0x20\n      add\n      swap1\n      dup2\n      mstore\n      0x20\n      add\n      0x00\n      keccak256\n        /* \"contracts/EvolveStorage.sol\":4587:4613  presetList[_presetId].date */\n      0x02\n      add\n      sload\n        /* \"contracts/EvolveStorage.sol\":4503:4614  return (presetList[_presetId].matchPrice, presetList[_presetId].numberOfTeamMemebr, presetList[_presetId].date) */\n      swap3\n      pop\n      swap3\n      pop\n      swap3\n      pop\n        /* \"contracts/EvolveStorage.sol\":4403:4621  function getPreset(uint256 _presetId) external view override returns(uint256,uint256,uint256){... */\n      swap2\n      swap4\n      swap1\n      swap3\n      pop\n      jump\t// out\n        /* \"contracts/EvolveStorage.sol\":401:429  address public factoryAddrss */\n    tag_67:\n      0x01\n      0x00\n      swap1\n      sload\n      swap1\n      0x0100\n      exp\n      swap1\n      div\n      0xffffffffffffffffffffffffffffffffffffffff\n      and\n      dup2\n      jump\t// out\n        /* \"contracts/EvolveStorage.sol\":4627:5360  function getCompetion(uint256 _competionId) external view override ... */\n    tag_71:\n        /* \"contracts/EvolveStorage.sol\":4711:4730  uint256 presetPrice */\n      0x00\n        /* \"contracts/EvolveStorage.sol\":4731:4750  uint256 playerCount */\n      dup1\n        /* \"contracts/EvolveStorage.sol\":4751:4774  address[] memory _teamA */\n      0x60\n        /* \"contracts/EvolveStorage.sol\":4776:4799  address[] memory _teamB */\n      dup1\n        /* \"contracts/EvolveStorage.sol\":4801:4822  uint _competionStatus */\n      0x00\n        /* \"contracts/EvolveStorage.sol\":4824:4845  uint _competionWinner */\n      dup1\n        /* \"contracts/EvolveStorage.sol\":4847:4865  uint256 _priceRate */\n      0x00\n        /* \"contracts/EvolveStorage.sol\":4876:4905  Preset memory competionPreset */\n      dup1\n        /* \"contracts/EvolveStorage.sol\":4908:4921  competionList */\n      0x05\n        /* \"contracts/EvolveStorage.sol\":4908:4935  competionList[_competionId] */\n      0x00\n        /* \"contracts/EvolveStorage.sol\":4922:4934  _competionId */\n      dup11\n        /* \"contracts/EvolveStorage.sol\":4908:4935  competionList[_competionId] */\n      dup2\n      mstore\n      0x20\n      add\n      swap1\n      dup2\n      mstore\n      0x20\n      add\n      0x00\n      keccak256\n        /* \"contracts/EvolveStorage.sol\":4908:4942  competionList[_competionId].preset */\n      0x00\n      add\n        /* \"contracts/EvolveStorage.sol\":4876:4942  Preset memory competionPreset = competionList[_competionId].preset */\n      mload(0x40)\n      dup1\n      0x80\n      add\n      0x40\n      mstore\n      swap1\n      dup2\n      0x00\n      dup3\n      add\n      sload\n      dup2\n      mstore\n      0x20\n      add\n      0x01\n      dup3\n      add\n      sload\n      dup2\n      mstore\n      0x20\n      add\n      0x02\n      dup3\n      add\n      sload\n      dup2\n      mstore\n      0x20\n      add\n      0x03\n      dup3\n      add\n      sload\n      dup2\n      mstore\n      pop\n      pop\n      swap1\n      pop\n        /* \"contracts/EvolveStorage.sol\":4966:4981  competionPreset */\n      dup1\n        /* \"contracts/EvolveStorage.sol\":4966:4992  competionPreset.matchPrice */\n      0x00\n      add\n      mload\n        /* \"contracts/EvolveStorage.sol\":4952:4992  presetPrice = competionPreset.matchPrice */\n      swap8\n      pop\n        /* \"contracts/EvolveStorage.sol\":5016:5031  competionPreset */\n      dup1\n        /* \"contracts/EvolveStorage.sol\":5016:5050  competionPreset.numberOfTeamMemebr */\n      0x20\n      add\n      mload\n        /* \"contracts/EvolveStorage.sol\":5002:5050  playerCount = competionPreset.numberOfTeamMemebr */\n      swap7\n      pop\n        /* \"contracts/EvolveStorage.sol\":5069:5082  competionList */\n      0x05\n        /* \"contracts/EvolveStorage.sol\":5069:5096  competionList[_competionId] */\n      0x00\n        /* \"contracts/EvolveStorage.sol\":5083:5095  _competionId */\n      dup11\n        /* \"contracts/EvolveStorage.sol\":5069:5096  competionList[_competionId] */\n      dup2\n      mstore\n      0x20\n      add\n      swap1\n      dup2\n      mstore\n      0x20\n      add\n      0x00\n      keccak256\n        /* \"contracts/EvolveStorage.sol\":5069:5102  competionList[_competionId].teamA */\n      0x04\n      add\n        /* \"contracts/EvolveStorage.sol\":5060:5102  _teamA = competionList[_competionId].teamA */\n      dup1\n      sload\n      dup1\n      0x20\n      mul\n      0x20\n      add\n      mload(0x40)\n      swap1\n      dup2\n      add\n      0x40\n      mstore\n      dup1\n      swap3\n      swap2\n      swap1\n      dup2\n      dup2\n      mstore\n      0x20\n      add\n      dup3\n      dup1\n      sload\n      dup1\n      iszero\n      tag_199\n      jumpi\n      0x20\n      mul\n      dup3\n      add\n      swap2\n      swap1\n      0x00\n      mstore\n      keccak256(0x00, 0x20)\n      swap1\n    tag_200:\n      dup2\n      0x00\n      swap1\n      sload\n      swap1\n      0x0100\n      exp\n      swap1\n      div\n      0xffffffffffffffffffffffffffffffffffffffff\n      and\n      0xffffffffffffffffffffffffffffffffffffffff\n      and\n      dup2\n      mstore\n      0x20\n      add\n      swap1\n      0x01\n      add\n      swap1\n      dup1\n      dup4\n      gt\n      tag_200\n      jumpi\n    tag_199:\n      pop\n      pop\n      pop\n      pop\n      pop\n      swap6\n      pop\n        /* \"contracts/EvolveStorage.sol\":5121:5134  competionList */\n      0x05\n        /* \"contracts/EvolveStorage.sol\":5121:5148  competionList[_competionId] */\n      0x00\n        /* \"contracts/EvolveStorage.sol\":5135:5147  _competionId */\n      dup11\n        /* \"contracts/EvolveStorage.sol\":5121:5148  competionList[_competionId] */\n      dup2\n      mstore\n      0x20\n      add\n      swap1\n      dup2\n      mstore\n      0x20\n      add\n      0x00\n      keccak256\n        /* \"contracts/EvolveStorage.sol\":5121:5154  competionList[_competionId].teamB */\n      0x05\n      add\n        /* \"contracts/EvolveStorage.sol\":5112:5154  _teamB = competionList[_competionId].teamB */\n      dup1\n      sload\n      dup1\n      0x20\n      mul\n      0x20\n      add\n      mload(0x40)\n      swap1\n      dup2\n      add\n      0x40\n      mstore\n      dup1\n      swap3\n      swap2\n      swap1\n      dup2\n      dup2\n      mstore\n      0x20\n      add\n      dup3\n      dup1\n      sload\n      dup1\n      iszero\n      tag_201\n      jumpi\n      0x20\n      mul\n      dup3\n      add\n      swap2\n      swap1\n      0x00\n      mstore\n      keccak256(0x00, 0x20)\n      swap1\n    tag_202:\n      dup2\n      0x00\n      swap1\n      sload\n      swap1\n      0x0100\n      exp\n      swap1\n      div\n      0xffffffffffffffffffffffffffffffffffffffff\n      and\n      0xffffffffffffffffffffffffffffffffffffffff\n      and\n      dup2\n      mstore\n      0x20\n      add\n      swap1\n      0x01\n      add\n      swap1\n      dup1\n      dup4\n      gt\n      tag_202\n      jumpi\n    tag_201:\n      pop\n      pop\n      pop\n      pop\n      pop\n      swap5\n      pop\n        /* \"contracts/EvolveStorage.sol\":5188:5201  competionList */\n      0x05\n        /* \"contracts/EvolveStorage.sol\":5188:5215  competionList[_competionId] */\n      0x00\n        /* \"contracts/EvolveStorage.sol\":5202:5214  _competionId */\n      dup11\n        /* \"contracts/EvolveStorage.sol\":5188:5215  competionList[_competionId] */\n      dup2\n      mstore\n      0x20\n      add\n      swap1\n      dup2\n      mstore\n      0x20\n      add\n      0x00\n      keccak256\n        /* \"contracts/EvolveStorage.sol\":5188:5222  competionList[_competionId].status */\n      0x06\n      add\n      0x00\n      swap1\n      sload\n      swap1\n      0x0100\n      exp\n      swap1\n      div\n      0xff\n      and\n        /* \"contracts/EvolveStorage.sol\":5183:5223  uint(competionList[_competionId].status) */\n      0x02\n      dup2\n      gt\n      iszero\n      tag_203\n      jumpi\n      tag_204\n      tag_101\n      jump\t// in\n    tag_204:\n    tag_203:\n        /* \"contracts/EvolveStorage.sol\":5164:5223  _competionStatus = uint(competionList[_competionId].status) */\n      swap4\n      pop\n        /* \"contracts/EvolveStorage.sol\":5257:5270  competionList */\n      0x05\n        /* \"contracts/EvolveStorage.sol\":5257:5284  competionList[_competionId] */\n      0x00\n        /* \"contracts/EvolveStorage.sol\":5271:5283  _competionId */\n      dup11\n        /* \"contracts/EvolveStorage.sol\":5257:5284  competionList[_competionId] */\n      dup2\n      mstore\n      0x20\n      add\n      swap1\n      dup2\n      mstore\n      0x20\n      add\n      0x00\n      keccak256\n        /* \"contracts/EvolveStorage.sol\":5257:5292  competionList[_competionId].winners */\n      0x06\n      add\n      0x01\n      swap1\n      sload\n      swap1\n      0x0100\n      exp\n      swap1\n      div\n      0xff\n      and\n        /* \"contracts/EvolveStorage.sol\":5252:5293  uint(competionList[_competionId].winners) */\n      0x03\n      dup2\n      gt\n      iszero\n      tag_205\n      jumpi\n      tag_206\n      tag_101\n      jump\t// in\n    tag_206:\n    tag_205:\n        /* \"contracts/EvolveStorage.sol\":5233:5293  _competionWinner = uint(competionList[_competionId].winners) */\n      swap3\n      pop\n        /* \"contracts/EvolveStorage.sol\":5316:5329  competionList */\n      0x05\n        /* \"contracts/EvolveStorage.sol\":5316:5343  competionList[_competionId] */\n      0x00\n        /* \"contracts/EvolveStorage.sol\":5330:5342  _competionId */\n      dup11\n        /* \"contracts/EvolveStorage.sol\":5316:5343  competionList[_competionId] */\n      dup2\n      mstore\n      0x20\n      add\n      swap1\n      dup2\n      mstore\n      0x20\n      add\n      0x00\n      keccak256\n        /* \"contracts/EvolveStorage.sol\":5316:5353  competionList[_competionId].priceRate */\n      0x07\n      add\n      sload\n        /* \"contracts/EvolveStorage.sol\":5303:5353  _priceRate = competionList[_competionId].priceRate */\n      swap2\n      pop\n        /* \"contracts/EvolveStorage.sol\":4866:5360  {... */\n      pop\n        /* \"contracts/EvolveStorage.sol\":4627:5360  function getCompetion(uint256 _competionId) external view override ... */\n      swap2\n      swap4\n      swap6\n      swap8\n      swap1\n      swap3\n      swap5\n      swap7\n      pop\n      jump\t// out\n        /* \"@openzeppelin/contracts/access/Ownable.sol\":1918:2116  function transferOwnership(address newOwner) public virtual onlyOwner {... */\n    tag_76:\n        /* \"@openzeppelin/contracts/access/Ownable.sol\":1259:1271  _msgSender() */\n      tag_208\n        /* \"@openzeppelin/contracts/access/Ownable.sol\":1259:1269  _msgSender */\n      tag_79\n        /* \"@openzeppelin/contracts/access/Ownable.sol\":1259:1271  _msgSender() */\n      jump\t// in\n    tag_208:\n        /* \"@openzeppelin/contracts/access/Ownable.sol\":1248:1271  owner() == _msgSender() */\n      0xffffffffffffffffffffffffffffffffffffffff\n      and\n        /* \"@openzeppelin/contracts/access/Ownable.sol\":1248:1255  owner() */\n      tag_209\n        /* \"@openzeppelin/contracts/access/Ownable.sol\":1248:1253  owner */\n      tag_54\n        /* \"@openzeppelin/contracts/access/Ownable.sol\":1248:1255  owner() */\n      jump\t// in\n    tag_209:\n        /* \"@openzeppelin/contracts/access/Ownable.sol\":1248:1271  owner() == _msgSender() */\n      0xffffffffffffffffffffffffffffffffffffffff\n      and\n      eq\n        /* \"@openzeppelin/contracts/access/Ownable.sol\":1240:1308  require(owner() == _msgSender(), \"Ownable: caller is not the owner\") */\n      tag_210\n      jumpi\n      mload(0x40)\n      0x08c379a000000000000000000000000000000000000000000000000000000000\n      dup2\n      mstore\n      0x04\n      add\n      tag_211\n      swap1\n      tag_115\n      jump\t// in\n    tag_211:\n      mload(0x40)\n      dup1\n      swap2\n      sub\n      swap1\n      revert\n    tag_210:\n        /* \"@openzeppelin/contracts/access/Ownable.sol\":2026:2027  0 */\n      0x00\n        /* \"@openzeppelin/contracts/access/Ownable.sol\":2006:2028  newOwner != address(0) */\n      0xffffffffffffffffffffffffffffffffffffffff\n      and\n        /* \"@openzeppelin/contracts/access/Ownable.sol\":2006:2014  newOwner */\n      dup2\n        /* \"@openzeppelin/contracts/access/Ownable.sol\":2006:2028  newOwner != address(0) */\n      0xffffffffffffffffffffffffffffffffffffffff\n      and\n      eq\n      iszero\n        /* \"@openzeppelin/contracts/access/Ownable.sol\":1998:2071  require(newOwner != address(0), \"Ownable: new owner is the zero address\") */\n      tag_213\n      jumpi\n      mload(0x40)\n      0x08c379a000000000000000000000000000000000000000000000000000000000\n      dup2\n      mstore\n      0x04\n      add\n      tag_214\n      swap1\n      tag_215\n      jump\t// in\n    tag_214:\n      mload(0x40)\n      dup1\n      swap2\n      sub\n      swap1\n      revert\n    tag_213:\n        /* \"@openzeppelin/contracts/access/Ownable.sol\":2081:2109  _transferOwnership(newOwner) */\n      tag_216\n        /* \"@openzeppelin/contracts/access/Ownable.sol\":2100:2108  newOwner */\n      dup2\n        /* \"@openzeppelin/contracts/access/Ownable.sol\":2081:2099  _transferOwnership */\n      tag_124\n        /* \"@openzeppelin/contracts/access/Ownable.sol\":2081:2109  _transferOwnership(newOwner) */\n      jump\t// in\n    tag_216:\n        /* \"@openzeppelin/contracts/access/Ownable.sol\":1918:2116  function transferOwnership(address newOwner) public virtual onlyOwner {... */\n      pop\n      jump\t// out\n        /* \"@openzeppelin/contracts/utils/Context.sol\":640:736  function _msgSender() internal view virtual returns (address) {... */\n    tag_79:\n        /* \"@openzeppelin/contracts/utils/Context.sol\":693:700  address */\n      0x00\n        /* \"@openzeppelin/contracts/utils/Context.sol\":719:729  msg.sender */\n      caller\n        /* \"@openzeppelin/contracts/utils/Context.sol\":712:729  return msg.sender */\n      swap1\n      pop\n        /* \"@openzeppelin/contracts/utils/Context.sol\":640:736  function _msgSender() internal view virtual returns (address) {... */\n      swap1\n      jump\t// out\n        /* \"contracts/EvolveStorage.sol\":5394:5579  function isExistsCompetionList(uint key) internal view returns (bool) {... */\n    tag_90:\n        /* \"contracts/EvolveStorage.sol\":5458:5462  bool */\n      0x00\n        /* \"contracts/EvolveStorage.sol\":5512:5513  0 */\n      dup1\n        /* \"contracts/EvolveStorage.sol\":5477:5490  competionList */\n      0x05\n        /* \"contracts/EvolveStorage.sol\":5477:5495  competionList[key] */\n      0x00\n        /* \"contracts/EvolveStorage.sol\":5491:5494  key */\n      dup5\n        /* \"contracts/EvolveStorage.sol\":5477:5495  competionList[key] */\n      dup2\n      mstore\n      0x20\n      add\n      swap1\n      dup2\n      mstore\n      0x20\n      add\n      0x00\n      keccak256\n        /* \"contracts/EvolveStorage.sol\":5477:5501  competionList[key].teamA */\n      0x04\n      add\n        /* \"contracts/EvolveStorage.sol\":5477:5508  competionList[key].teamA.length */\n      dup1\n      sload\n      swap1\n      pop\n        /* \"contracts/EvolveStorage.sol\":5477:5513  competionList[key].teamA.length != 0 */\n      eq\n        /* \"contracts/EvolveStorage.sol\":5474:5550  if(competionList[key].teamA.length != 0){... */\n      tag_219\n      jumpi\n        /* \"contracts/EvolveStorage.sol\":5535:5539  true */\n      0x01\n        /* \"contracts/EvolveStorage.sol\":5528:5539  return true */\n      swap1\n      pop\n      jump(tag_218)\n        /* \"contracts/EvolveStorage.sol\":5474:5550  if(competionList[key].teamA.length != 0){... */\n    tag_219:\n        /* \"contracts/EvolveStorage.sol\":5567:5572  false */\n      0x00\n        /* \"contracts/EvolveStorage.sol\":5560:5572  return false */\n      swap1\n      pop\n        /* \"contracts/EvolveStorage.sol\":5394:5579  function isExistsCompetionList(uint key) internal view returns (bool) {... */\n    tag_218:\n      swap2\n      swap1\n      pop\n      jump\t// out\n        /* \"@openzeppelin/contracts/access/Ownable.sol\":2270:2457  function _transferOwnership(address newOwner) internal virtual {... */\n    tag_124:\n        /* \"@openzeppelin/contracts/access/Ownable.sol\":2343:2359  address oldOwner */\n      0x00\n        /* \"@openzeppelin/contracts/access/Ownable.sol\":2362:2368  _owner */\n      dup1\n      0x00\n      swap1\n      sload\n      swap1\n      0x0100\n      exp\n      swap1\n      div\n      0xffffffffffffffffffffffffffffffffffffffff\n      and\n        /* \"@openzeppelin/contracts/access/Ownable.sol\":2343:2368  address oldOwner = _owner */\n      swap1\n      pop\n        /* \"@openzeppelin/contracts/access/Ownable.sol\":2387:2395  newOwner */\n      dup2\n        /* \"@openzeppelin/contracts/access/Ownable.sol\":2378:2384  _owner */\n      0x00\n      dup1\n        /* \"@openzeppelin/contracts/access/Ownable.sol\":2378:2395  _owner = newOwner */\n      0x0100\n      exp\n      dup2\n      sload\n      dup2\n      0xffffffffffffffffffffffffffffffffffffffff\n      mul\n      not\n      and\n      swap1\n      dup4\n      0xffffffffffffffffffffffffffffffffffffffff\n      and\n      mul\n      or\n      swap1\n      sstore\n      pop\n        /* \"@openzeppelin/contracts/access/Ownable.sol\":2441:2449  newOwner */\n      dup2\n        /* \"@openzeppelin/contracts/access/Ownable.sol\":2410:2450  OwnershipTransferred(oldOwner, newOwner) */\n      0xffffffffffffffffffffffffffffffffffffffff\n      and\n        /* \"@openzeppelin/contracts/access/Ownable.sol\":2431:2439  oldOwner */\n      dup2\n        /* \"@openzeppelin/contracts/access/Ownable.sol\":2410:2450  OwnershipTransferred(oldOwner, newOwner) */\n      0xffffffffffffffffffffffffffffffffffffffff\n      and\n      0x8be0079c531659141344cd1fd0a4f28419497f9722a3daafe3b4186f6b6457e0\n      mload(0x40)\n      mload(0x40)\n      dup1\n      swap2\n      sub\n      swap1\n      log3\n        /* \"@openzeppelin/contracts/access/Ownable.sol\":2333:2457  {... */\n      pop\n        /* \"@openzeppelin/contracts/access/Ownable.sol\":2270:2457  function _transferOwnership(address newOwner) internal virtual {... */\n      pop\n      jump\t// out\n        /* \"contracts/EvolveStorage.sol\":5585:5759  function isExistsPresetList(uint256 key) internal view returns (bool) {... */\n    tag_148:\n        /* \"contracts/EvolveStorage.sol\":5649:5653  bool */\n      0x00\n        /* \"contracts/EvolveStorage.sol\":5692:5693  0 */\n      dup1\n        /* \"contracts/EvolveStorage.sol\":5668:5678  presetList */\n      0x04\n        /* \"contracts/EvolveStorage.sol\":5668:5683  presetList[key] */\n      0x00\n        /* \"contracts/EvolveStorage.sol\":5679:5682  key */\n      dup5\n        /* \"contracts/EvolveStorage.sol\":5668:5683  presetList[key] */\n      dup2\n      mstore\n      0x20\n      add\n      swap1\n      dup2\n      mstore\n      0x20\n      add\n      0x00\n      keccak256\n        /* \"contracts/EvolveStorage.sol\":5668:5688  presetList[key].date */\n      0x02\n      add\n      sload\n        /* \"contracts/EvolveStorage.sol\":5668:5693  presetList[key].date != 0 */\n      eq\n        /* \"contracts/EvolveStorage.sol\":5665:5730  if(presetList[key].date != 0){... */\n      tag_222\n      jumpi\n        /* \"contracts/EvolveStorage.sol\":5715:5719  true */\n      0x01\n        /* \"contracts/EvolveStorage.sol\":5708:5719  return true */\n      swap1\n      pop\n      jump(tag_221)\n        /* \"contracts/EvolveStorage.sol\":5665:5730  if(presetList[key].date != 0){... */\n    tag_222:\n        /* \"contracts/EvolveStorage.sol\":5747:5752  false */\n      0x00\n        /* \"contracts/EvolveStorage.sol\":5740:5752  return false */\n      swap1\n      pop\n        /* \"contracts/EvolveStorage.sol\":5585:5759  function isExistsPresetList(uint256 key) internal view returns (bool) {... */\n    tag_221:\n      swap2\n      swap1\n      pop\n      jump\t// out\n    tag_157:\n      dup3\n      dup1\n      sload\n      dup3\n      dup3\n      sstore\n      swap1\n      0x00\n      mstore\n      keccak256(0x00, 0x20)\n      swap1\n      dup2\n      add\n      swap3\n      dup3\n      iszero\n      tag_223\n      jumpi\n      swap2\n      0x20\n      mul\n      dup3\n      add\n    tag_224:\n      dup3\n      dup2\n      gt\n      iszero\n      tag_225\n      jumpi\n      dup3\n      mload\n      dup3\n      exp(0x0100, 0x00)\n      dup2\n      sload\n      dup2\n      0xffffffffffffffffffffffffffffffffffffffff\n      mul\n      not\n      and\n      swap1\n      dup4\n      0xffffffffffffffffffffffffffffffffffffffff\n      and\n      mul\n      or\n      swap1\n      sstore\n      pop\n      swap2\n      0x20\n      add\n      swap2\n      swap1\n      0x01\n      add\n      swap1\n      jump(tag_224)\n    tag_225:\n    tag_223:\n      pop\n      swap1\n      pop\n      tag_226\n      swap2\n      swap1\n      tag_227\n      jump\t// in\n    tag_226:\n      pop\n      swap1\n      jump\t// out\n    tag_227:\n    tag_228:\n      dup1\n      dup3\n      gt\n      iszero\n      tag_229\n      jumpi\n      0x00\n      dup2\n      0x00\n      swap1\n      sstore\n      pop\n      0x01\n      add\n      jump(tag_228)\n    tag_229:\n      pop\n      swap1\n      jump\t// out\n        /* \"#utility.yul\":88:205   */\n    tag_231:\n        /* \"#utility.yul\":197:198   */\n      0x00\n        /* \"#utility.yul\":194:195   */\n      dup1\n        /* \"#utility.yul\":187:199   */\n      revert\n        /* \"#utility.yul\":211:328   */\n    tag_232:\n        /* \"#utility.yul\":320:321   */\n      0x00\n        /* \"#utility.yul\":317:318   */\n      dup1\n        /* \"#utility.yul\":310:322   */\n      revert\n        /* \"#utility.yul\":334:411   */\n    tag_233:\n        /* \"#utility.yul\":371:378   */\n      0x00\n        /* \"#utility.yul\":400:405   */\n      dup2\n        /* \"#utility.yul\":389:405   */\n      swap1\n      pop\n        /* \"#utility.yul\":334:411   */\n      swap2\n      swap1\n      pop\n      jump\t// out\n        /* \"#utility.yul\":417:539   */\n    tag_234:\n        /* \"#utility.yul\":490:514   */\n      tag_290\n        /* \"#utility.yul\":508:513   */\n      dup2\n        /* \"#utility.yul\":490:514   */\n      tag_233\n      jump\t// in\n    tag_290:\n        /* \"#utility.yul\":483:488   */\n      dup2\n        /* \"#utility.yul\":480:515   */\n      eq\n        /* \"#utility.yul\":470:533   */\n      tag_291\n      jumpi\n        /* \"#utility.yul\":529:530   */\n      0x00\n        /* \"#utility.yul\":526:527   */\n      dup1\n        /* \"#utility.yul\":519:531   */\n      revert\n        /* \"#utility.yul\":470:533   */\n    tag_291:\n        /* \"#utility.yul\":417:539   */\n      pop\n      jump\t// out\n        /* \"#utility.yul\":545:684   */\n    tag_235:\n        /* \"#utility.yul\":591:596   */\n      0x00\n        /* \"#utility.yul\":629:635   */\n      dup2\n        /* \"#utility.yul\":616:636   */\n      calldataload\n        /* \"#utility.yul\":607:636   */\n      swap1\n      pop\n        /* \"#utility.yul\":645:678   */\n      tag_293\n        /* \"#utility.yul\":672:677   */\n      dup2\n        /* \"#utility.yul\":645:678   */\n      tag_234\n      jump\t// in\n    tag_293:\n        /* \"#utility.yul\":545:684   */\n      swap3\n      swap2\n      pop\n      pop\n      jump\t// out\n        /* \"#utility.yul\":690:776   */\n    tag_236:\n        /* \"#utility.yul\":725:732   */\n      0x00\n        /* \"#utility.yul\":765:769   */\n      0xff\n        /* \"#utility.yul\":758:763   */\n      dup3\n        /* \"#utility.yul\":754:770   */\n      and\n        /* \"#utility.yul\":743:770   */\n      swap1\n      pop\n        /* \"#utility.yul\":690:776   */\n      swap2\n      swap1\n      pop\n      jump\t// out\n        /* \"#utility.yul\":782:900   */\n    tag_237:\n        /* \"#utility.yul\":853:875   */\n      tag_296\n        /* \"#utility.yul\":869:874   */\n      dup2\n        /* \"#utility.yul\":853:875   */\n      tag_236\n      jump\t// in\n    tag_296:\n        /* \"#utility.yul\":846:851   */\n      dup2\n        /* \"#utility.yul\":843:876   */\n      eq\n        /* \"#utility.yul\":833:894   */\n      tag_297\n      jumpi\n        /* \"#utility.yul\":890:891   */\n      0x00\n        /* \"#utility.yul\":887:888   */\n      dup1\n        /* \"#utility.yul\":880:892   */\n      revert\n        /* \"#utility.yul\":833:894   */\n    tag_297:\n        /* \"#utility.yul\":782:900   */\n      pop\n      jump\t// out\n        /* \"#utility.yul\":906:1041   */\n    tag_238:\n        /* \"#utility.yul\":950:955   */\n      0x00\n        /* \"#utility.yul\":988:994   */\n      dup2\n        /* \"#utility.yul\":975:995   */\n      calldataload\n        /* \"#utility.yul\":966:995   */\n      swap1\n      pop\n        /* \"#utility.yul\":1004:1035   */\n      tag_299\n        /* \"#utility.yul\":1029:1034   */\n      dup2\n        /* \"#utility.yul\":1004:1035   */\n      tag_237\n      jump\t// in\n    tag_299:\n        /* \"#utility.yul\":906:1041   */\n      swap3\n      swap2\n      pop\n      pop\n      jump\t// out\n        /* \"#utility.yul\":1047:1517   */\n    tag_20:\n        /* \"#utility.yul\":1113:1119   */\n      0x00\n        /* \"#utility.yul\":1121:1127   */\n      dup1\n        /* \"#utility.yul\":1170:1172   */\n      0x40\n        /* \"#utility.yul\":1158:1167   */\n      dup4\n        /* \"#utility.yul\":1149:1156   */\n      dup6\n        /* \"#utility.yul\":1145:1168   */\n      sub\n        /* \"#utility.yul\":1141:1173   */\n      slt\n        /* \"#utility.yul\":1138:1257   */\n      iszero\n      tag_301\n      jumpi\n        /* \"#utility.yul\":1176:1255   */\n      tag_302\n      tag_231\n      jump\t// in\n    tag_302:\n        /* \"#utility.yul\":1138:1257   */\n    tag_301:\n        /* \"#utility.yul\":1296:1297   */\n      0x00\n        /* \"#utility.yul\":1321:1374   */\n      tag_303\n        /* \"#utility.yul\":1366:1373   */\n      dup6\n        /* \"#utility.yul\":1357:1363   */\n      dup3\n        /* \"#utility.yul\":1346:1355   */\n      dup7\n        /* \"#utility.yul\":1342:1364   */\n      add\n        /* \"#utility.yul\":1321:1374   */\n      tag_235\n      jump\t// in\n    tag_303:\n        /* \"#utility.yul\":1311:1374   */\n      swap3\n      pop\n        /* \"#utility.yul\":1267:1384   */\n      pop\n        /* \"#utility.yul\":1423:1425   */\n      0x20\n        /* \"#utility.yul\":1449:1500   */\n      tag_304\n        /* \"#utility.yul\":1492:1499   */\n      dup6\n        /* \"#utility.yul\":1483:1489   */\n      dup3\n        /* \"#utility.yul\":1472:1481   */\n      dup7\n        /* \"#utility.yul\":1468:1490   */\n      add\n        /* \"#utility.yul\":1449:1500   */\n      tag_238\n      jump\t// in\n    tag_304:\n        /* \"#utility.yul\":1439:1500   */\n      swap2\n      pop\n        /* \"#utility.yul\":1394:1510   */\n      pop\n        /* \"#utility.yul\":1047:1517   */\n      swap3\n      pop\n      swap3\n      swap1\n      pop\n      jump\t// out\n        /* \"#utility.yul\":1523:1613   */\n    tag_239:\n        /* \"#utility.yul\":1557:1564   */\n      0x00\n        /* \"#utility.yul\":1600:1605   */\n      dup2\n        /* \"#utility.yul\":1593:1606   */\n      iszero\n        /* \"#utility.yul\":1586:1607   */\n      iszero\n        /* \"#utility.yul\":1575:1607   */\n      swap1\n      pop\n        /* \"#utility.yul\":1523:1613   */\n      swap2\n      swap1\n      pop\n      jump\t// out\n        /* \"#utility.yul\":1619:1728   */\n    tag_240:\n        /* \"#utility.yul\":1700:1721   */\n      tag_307\n        /* \"#utility.yul\":1715:1720   */\n      dup2\n        /* \"#utility.yul\":1700:1721   */\n      tag_239\n      jump\t// in\n    tag_307:\n        /* \"#utility.yul\":1695:1698   */\n      dup3\n        /* \"#utility.yul\":1688:1722   */\n      mstore\n        /* \"#utility.yul\":1619:1728   */\n      pop\n      pop\n      jump\t// out\n        /* \"#utility.yul\":1734:1944   */\n    tag_23:\n        /* \"#utility.yul\":1821:1825   */\n      0x00\n        /* \"#utility.yul\":1859:1861   */\n      0x20\n        /* \"#utility.yul\":1848:1857   */\n      dup3\n        /* \"#utility.yul\":1844:1862   */\n      add\n        /* \"#utility.yul\":1836:1862   */\n      swap1\n      pop\n        /* \"#utility.yul\":1872:1937   */\n      tag_309\n        /* \"#utility.yul\":1934:1935   */\n      0x00\n        /* \"#utility.yul\":1923:1932   */\n      dup4\n        /* \"#utility.yul\":1919:1936   */\n      add\n        /* \"#utility.yul\":1910:1916   */\n      dup5\n        /* \"#utility.yul\":1872:1937   */\n      tag_240\n      jump\t// in\n    tag_309:\n        /* \"#utility.yul\":1734:1944   */\n      swap3\n      swap2\n      pop\n      pop\n      jump\t// out\n        /* \"#utility.yul\":1950:2279   */\n    tag_26:\n        /* \"#utility.yul\":2009:2015   */\n      0x00\n        /* \"#utility.yul\":2058:2060   */\n      0x20\n        /* \"#utility.yul\":2046:2055   */\n      dup3\n        /* \"#utility.yul\":2037:2044   */\n      dup5\n        /* \"#utility.yul\":2033:2056   */\n      sub\n        /* \"#utility.yul\":2029:2061   */\n      slt\n        /* \"#utility.yul\":2026:2145   */\n      iszero\n      tag_311\n      jumpi\n        /* \"#utility.yul\":2064:2143   */\n      tag_312\n      tag_231\n      jump\t// in\n    tag_312:\n        /* \"#utility.yul\":2026:2145   */\n    tag_311:\n        /* \"#utility.yul\":2184:2185   */\n      0x00\n        /* \"#utility.yul\":2209:2262   */\n      tag_313\n        /* \"#utility.yul\":2254:2261   */\n      dup5\n        /* \"#utility.yul\":2245:2251   */\n      dup3\n        /* \"#utility.yul\":2234:2243   */\n      dup6\n        /* \"#utility.yul\":2230:2252   */\n      add\n        /* \"#utility.yul\":2209:2262   */\n      tag_235\n      jump\t// in\n    tag_313:\n        /* \"#utility.yul\":2199:2262   */\n      swap2\n      pop\n        /* \"#utility.yul\":2155:2272   */\n      pop\n        /* \"#utility.yul\":1950:2279   */\n      swap3\n      swap2\n      pop\n      pop\n      jump\t// out\n        /* \"#utility.yul\":2285:2403   */\n    tag_241:\n        /* \"#utility.yul\":2372:2396   */\n      tag_315\n        /* \"#utility.yul\":2390:2395   */\n      dup2\n        /* \"#utility.yul\":2372:2396   */\n      tag_233\n      jump\t// in\n    tag_315:\n        /* \"#utility.yul\":2367:2370   */\n      dup3\n        /* \"#utility.yul\":2360:2397   */\n      mstore\n        /* \"#utility.yul\":2285:2403   */\n      pop\n      pop\n      jump\t// out\n        /* \"#utility.yul\":2409:2962   */\n    tag_29:\n        /* \"#utility.yul\":2586:2590   */\n      0x00\n        /* \"#utility.yul\":2624:2627   */\n      0x80\n        /* \"#utility.yul\":2613:2622   */\n      dup3\n        /* \"#utility.yul\":2609:2628   */\n      add\n        /* \"#utility.yul\":2601:2628   */\n      swap1\n      pop\n        /* \"#utility.yul\":2638:2709   */\n      tag_317\n        /* \"#utility.yul\":2706:2707   */\n      0x00\n        /* \"#utility.yul\":2695:2704   */\n      dup4\n        /* \"#utility.yul\":2691:2708   */\n      add\n        /* \"#utility.yul\":2682:2688   */\n      dup8\n        /* \"#utility.yul\":2638:2709   */\n      tag_241\n      jump\t// in\n    tag_317:\n        /* \"#utility.yul\":2719:2791   */\n      tag_318\n        /* \"#utility.yul\":2787:2789   */\n      0x20\n        /* \"#utility.yul\":2776:2785   */\n      dup4\n        /* \"#utility.yul\":2772:2790   */\n      add\n        /* \"#utility.yul\":2763:2769   */\n      dup7\n        /* \"#utility.yul\":2719:2791   */\n      tag_241\n      jump\t// in\n    tag_318:\n        /* \"#utility.yul\":2801:2873   */\n      tag_319\n        /* \"#utility.yul\":2869:2871   */\n      0x40\n        /* \"#utility.yul\":2858:2867   */\n      dup4\n        /* \"#utility.yul\":2854:2872   */\n      add\n        /* \"#utility.yul\":2845:2851   */\n      dup6\n        /* \"#utility.yul\":2801:2873   */\n      tag_241\n      jump\t// in\n    tag_319:\n        /* \"#utility.yul\":2883:2955   */\n      tag_320\n        /* \"#utility.yul\":2951:2953   */\n      0x60\n        /* \"#utility.yul\":2940:2949   */\n      dup4\n        /* \"#utility.yul\":2936:2954   */\n      add\n        /* \"#utility.yul\":2927:2933   */\n      dup5\n        /* \"#utility.yul\":2883:2955   */\n      tag_241\n      jump\t// in\n    tag_320:\n        /* \"#utility.yul\":2409:2962   */\n      swap6\n      swap5\n      pop\n      pop\n      pop\n      pop\n      pop\n      jump\t// out\n        /* \"#utility.yul\":2968:3094   */\n    tag_242:\n        /* \"#utility.yul\":3005:3012   */\n      0x00\n        /* \"#utility.yul\":3045:3087   */\n      0xffffffffffffffffffffffffffffffffffffffff\n        /* \"#utility.yul\":3038:3043   */\n      dup3\n        /* \"#utility.yul\":3034:3088   */\n      and\n        /* \"#utility.yul\":3023:3088   */\n      swap1\n      pop\n        /* \"#utility.yul\":2968:3094   */\n      swap2\n      swap1\n      pop\n      jump\t// out\n        /* \"#utility.yul\":3100:3196   */\n    tag_243:\n        /* \"#utility.yul\":3137:3144   */\n      0x00\n        /* \"#utility.yul\":3166:3190   */\n      tag_323\n        /* \"#utility.yul\":3184:3189   */\n      dup3\n        /* \"#utility.yul\":3166:3190   */\n      tag_242\n      jump\t// in\n    tag_323:\n        /* \"#utility.yul\":3155:3190   */\n      swap1\n      pop\n        /* \"#utility.yul\":3100:3196   */\n      swap2\n      swap1\n      pop\n      jump\t// out\n        /* \"#utility.yul\":3202:3324   */\n    tag_244:\n        /* \"#utility.yul\":3275:3299   */\n      tag_325\n        /* \"#utility.yul\":3293:3298   */\n      dup2\n        /* \"#utility.yul\":3275:3299   */\n      tag_243\n      jump\t// in\n    tag_325:\n        /* \"#utility.yul\":3268:3273   */\n      dup2\n        /* \"#utility.yul\":3265:3300   */\n      eq\n        /* \"#utility.yul\":3255:3318   */\n      tag_326\n      jumpi\n        /* \"#utility.yul\":3314:3315   */\n      0x00\n        /* \"#utility.yul\":3311:3312   */\n      dup1\n        /* \"#utility.yul\":3304:3316   */\n      revert\n        /* \"#utility.yul\":3255:3318   */\n    tag_326:\n        /* \"#utility.yul\":3202:3324   */\n      pop\n      jump\t// out\n        /* \"#utility.yul\":3330:3469   */\n    tag_245:\n        /* \"#utility.yul\":3376:3381   */\n      0x00\n        /* \"#utility.yul\":3414:3420   */\n      dup2\n        /* \"#utility.yul\":3401:3421   */\n      calldataload\n        /* \"#utility.yul\":3392:3421   */\n      swap1\n      pop\n        /* \"#utility.yul\":3430:3463   */\n      tag_328\n        /* \"#utility.yul\":3457:3462   */\n      dup2\n        /* \"#utility.yul\":3430:3463   */\n      tag_244\n      jump\t// in\n    tag_328:\n        /* \"#utility.yul\":3330:3469   */\n      swap3\n      swap2\n      pop\n      pop\n      jump\t// out\n        /* \"#utility.yul\":3475:3804   */\n    tag_32:\n        /* \"#utility.yul\":3534:3540   */\n      0x00\n        /* \"#utility.yul\":3583:3585   */\n      0x20\n        /* \"#utility.yul\":3571:3580   */\n      dup3\n        /* \"#utility.yul\":3562:3569   */\n      dup5\n        /* \"#utility.yul\":3558:3581   */\n      sub\n        /* \"#utility.yul\":3554:3586   */\n      slt\n        /* \"#utility.yul\":3551:3670   */\n      iszero\n      tag_330\n      jumpi\n        /* \"#utility.yul\":3589:3668   */\n      tag_331\n      tag_231\n      jump\t// in\n    tag_331:\n        /* \"#utility.yul\":3551:3670   */\n    tag_330:\n        /* \"#utility.yul\":3709:3710   */\n      0x00\n        /* \"#utility.yul\":3734:3787   */\n      tag_332\n        /* \"#utility.yul\":3779:3786   */\n      dup5\n        /* \"#utility.yul\":3770:3776   */\n      dup3\n        /* \"#utility.yul\":3759:3768   */\n      dup6\n        /* \"#utility.yul\":3755:3777   */\n      add\n        /* \"#utility.yul\":3734:3787   */\n      tag_245\n      jump\t// in\n    tag_332:\n        /* \"#utility.yul\":3724:3787   */\n      swap2\n      pop\n        /* \"#utility.yul\":3680:3797   */\n      pop\n        /* \"#utility.yul\":3475:3804   */\n      swap3\n      swap2\n      pop\n      pop\n      jump\t// out\n        /* \"#utility.yul\":3810:4429   */\n    tag_39:\n        /* \"#utility.yul\":3887:3893   */\n      0x00\n        /* \"#utility.yul\":3895:3901   */\n      dup1\n        /* \"#utility.yul\":3903:3909   */\n      0x00\n        /* \"#utility.yul\":3952:3954   */\n      0x60\n        /* \"#utility.yul\":3940:3949   */\n      dup5\n        /* \"#utility.yul\":3931:3938   */\n      dup7\n        /* \"#utility.yul\":3927:3950   */\n      sub\n        /* \"#utility.yul\":3923:3955   */\n      slt\n        /* \"#utility.yul\":3920:4039   */\n      iszero\n      tag_334\n      jumpi\n        /* \"#utility.yul\":3958:4037   */\n      tag_335\n      tag_231\n      jump\t// in\n    tag_335:\n        /* \"#utility.yul\":3920:4039   */\n    tag_334:\n        /* \"#utility.yul\":4078:4079   */\n      0x00\n        /* \"#utility.yul\":4103:4156   */\n      tag_336\n        /* \"#utility.yul\":4148:4155   */\n      dup7\n        /* \"#utility.yul\":4139:4145   */\n      dup3\n        /* \"#utility.yul\":4128:4137   */\n      dup8\n        /* \"#utility.yul\":4124:4146   */\n      add\n        /* \"#utility.yul\":4103:4156   */\n      tag_235\n      jump\t// in\n    tag_336:\n        /* \"#utility.yul\":4093:4156   */\n      swap4\n      pop\n        /* \"#utility.yul\":4049:4166   */\n      pop\n        /* \"#utility.yul\":4205:4207   */\n      0x20\n        /* \"#utility.yul\":4231:4284   */\n      tag_337\n        /* \"#utility.yul\":4276:4283   */\n      dup7\n        /* \"#utility.yul\":4267:4273   */\n      dup3\n        /* \"#utility.yul\":4256:4265   */\n      dup8\n        /* \"#utility.yul\":4252:4274   */\n      add\n        /* \"#utility.yul\":4231:4284   */\n      tag_235\n      jump\t// in\n    tag_337:\n        /* \"#utility.yul\":4221:4284   */\n      swap3\n      pop\n        /* \"#utility.yul\":4176:4294   */\n      pop\n        /* \"#utility.yul\":4333:4335   */\n      0x40\n        /* \"#utility.yul\":4359:4412   */\n      tag_338\n        /* \"#utility.yul\":4404:4411   */\n      dup7\n        /* \"#utility.yul\":4395:4401   */\n      dup3\n        /* \"#utility.yul\":4384:4393   */\n      dup8\n        /* \"#utility.yul\":4380:4402   */\n      add\n        /* \"#utility.yul\":4359:4412   */\n      tag_235\n      jump\t// in\n    tag_338:\n        /* \"#utility.yul\":4349:4412   */\n      swap2\n      pop\n        /* \"#utility.yul\":4304:4422   */\n      pop\n        /* \"#utility.yul\":3810:4429   */\n      swap3\n      pop\n      swap3\n      pop\n      swap3\n      jump\t// out\n        /* \"#utility.yul\":4435:4657   */\n    tag_42:\n        /* \"#utility.yul\":4528:4532   */\n      0x00\n        /* \"#utility.yul\":4566:4568   */\n      0x20\n        /* \"#utility.yul\":4555:4564   */\n      dup3\n        /* \"#utility.yul\":4551:4569   */\n      add\n        /* \"#utility.yul\":4543:4569   */\n      swap1\n      pop\n        /* \"#utility.yul\":4579:4650   */\n      tag_340\n        /* \"#utility.yul\":4647:4648   */\n      0x00\n        /* \"#utility.yul\":4636:4645   */\n      dup4\n        /* \"#utility.yul\":4632:4649   */\n      add\n        /* \"#utility.yul\":4623:4629   */\n      dup5\n        /* \"#utility.yul\":4579:4650   */\n      tag_241\n      jump\t// in\n    tag_340:\n        /* \"#utility.yul\":4435:4657   */\n      swap3\n      swap2\n      pop\n      pop\n      jump\t// out\n        /* \"#utility.yul\":4663:4771   */\n    tag_246:\n        /* \"#utility.yul\":4740:4764   */\n      tag_342\n        /* \"#utility.yul\":4758:4763   */\n      dup2\n        /* \"#utility.yul\":4740:4764   */\n      tag_233\n      jump\t// in\n    tag_342:\n        /* \"#utility.yul\":4735:4738   */\n      dup3\n        /* \"#utility.yul\":4728:4765   */\n      mstore\n        /* \"#utility.yul\":4663:4771   */\n      pop\n      pop\n      jump\t// out\n        /* \"#utility.yul\":4845:5720   */\n    tag_247:\n        /* \"#utility.yul\":4988:4992   */\n      0x80\n        /* \"#utility.yul\":4983:4986   */\n      dup3\n        /* \"#utility.yul\":4979:4993   */\n      add\n        /* \"#utility.yul\":5081:5085   */\n      0x00\n        /* \"#utility.yul\":5074:5079   */\n      dup3\n        /* \"#utility.yul\":5070:5086   */\n      add\n        /* \"#utility.yul\":5064:5087   */\n      mload\n        /* \"#utility.yul\":5100:5163   */\n      tag_344\n        /* \"#utility.yul\":5157:5161   */\n      0x00\n        /* \"#utility.yul\":5152:5155   */\n      dup6\n        /* \"#utility.yul\":5148:5162   */\n      add\n        /* \"#utility.yul\":5134:5146   */\n      dup3\n        /* \"#utility.yul\":5100:5163   */\n      tag_246\n      jump\t// in\n    tag_344:\n        /* \"#utility.yul\":5003:5173   */\n      pop\n        /* \"#utility.yul\":5269:5273   */\n      0x20\n        /* \"#utility.yul\":5262:5267   */\n      dup3\n        /* \"#utility.yul\":5258:5274   */\n      add\n        /* \"#utility.yul\":5252:5275   */\n      mload\n        /* \"#utility.yul\":5288:5351   */\n      tag_345\n        /* \"#utility.yul\":5345:5349   */\n      0x20\n        /* \"#utility.yul\":5340:5343   */\n      dup6\n        /* \"#utility.yul\":5336:5350   */\n      add\n        /* \"#utility.yul\":5322:5334   */\n      dup3\n        /* \"#utility.yul\":5288:5351   */\n      tag_246\n      jump\t// in\n    tag_345:\n        /* \"#utility.yul\":5183:5361   */\n      pop\n        /* \"#utility.yul\":5443:5447   */\n      0x40\n        /* \"#utility.yul\":5436:5441   */\n      dup3\n        /* \"#utility.yul\":5432:5448   */\n      add\n        /* \"#utility.yul\":5426:5449   */\n      mload\n        /* \"#utility.yul\":5462:5525   */\n      tag_346\n        /* \"#utility.yul\":5519:5523   */\n      0x40\n        /* \"#utility.yul\":5514:5517   */\n      dup6\n        /* \"#utility.yul\":5510:5524   */\n      add\n        /* \"#utility.yul\":5496:5508   */\n      dup3\n        /* \"#utility.yul\":5462:5525   */\n      tag_246\n      jump\t// in\n    tag_346:\n        /* \"#utility.yul\":5371:5535   */\n      pop\n        /* \"#utility.yul\":5621:5625   */\n      0x60\n        /* \"#utility.yul\":5614:5619   */\n      dup3\n        /* \"#utility.yul\":5610:5626   */\n      add\n        /* \"#utility.yul\":5604:5627   */\n      mload\n        /* \"#utility.yul\":5640:5703   */\n      tag_347\n        /* \"#utility.yul\":5697:5701   */\n      0x60\n        /* \"#utility.yul\":5692:5695   */\n      dup6\n        /* \"#utility.yul\":5688:5702   */\n      add\n        /* \"#utility.yul\":5674:5686   */\n      dup3\n        /* \"#utility.yul\":5640:5703   */\n      tag_246\n      jump\t// in\n    tag_347:\n        /* \"#utility.yul\":5545:5713   */\n      pop\n        /* \"#utility.yul\":4957:5720   */\n      pop\n        /* \"#utility.yul\":4845:5720   */\n      pop\n      pop\n      jump\t// out\n        /* \"#utility.yul\":5726:5906   */\n    tag_101:\n        /* \"#utility.yul\":5774:5851   */\n      0x4e487b7100000000000000000000000000000000000000000000000000000000\n        /* \"#utility.yul\":5771:5772   */\n      0x00\n        /* \"#utility.yul\":5764:5852   */\n      mstore\n        /* \"#utility.yul\":5871:5875   */\n      0x21\n        /* \"#utility.yul\":5868:5869   */\n      0x04\n        /* \"#utility.yul\":5861:5876   */\n      mstore\n        /* \"#utility.yul\":5895:5899   */\n      0x24\n        /* \"#utility.yul\":5892:5893   */\n      0x00\n        /* \"#utility.yul\":5885:5900   */\n      revert\n        /* \"#utility.yul\":5912:6036   */\n    tag_248:\n        /* \"#utility.yul\":6004:6005   */\n      0x03\n        /* \"#utility.yul\":5997:6002   */\n      dup2\n        /* \"#utility.yul\":5994:6006   */\n      lt\n        /* \"#utility.yul\":5984:6030   */\n      tag_350\n      jumpi\n        /* \"#utility.yul\":6010:6028   */\n      tag_351\n      tag_101\n      jump\t// in\n    tag_351:\n        /* \"#utility.yul\":5984:6030   */\n    tag_350:\n        /* \"#utility.yul\":5912:6036   */\n      pop\n      jump\t// out\n        /* \"#utility.yul\":6042:6191   */\n    tag_249:\n        /* \"#utility.yul\":6098:6105   */\n      0x00\n        /* \"#utility.yul\":6127:6132   */\n      dup2\n        /* \"#utility.yul\":6116:6132   */\n      swap1\n      pop\n        /* \"#utility.yul\":6133:6185   */\n      tag_353\n        /* \"#utility.yul\":6179:6184   */\n      dup3\n        /* \"#utility.yul\":6133:6185   */\n      tag_248\n      jump\t// in\n    tag_353:\n        /* \"#utility.yul\":6042:6191   */\n      swap2\n      swap1\n      pop\n      jump\t// out\n        /* \"#utility.yul\":6197:6346   */\n    tag_250:\n        /* \"#utility.yul\":6264:6273   */\n      0x00\n        /* \"#utility.yul\":6297:6340   */\n      tag_355\n        /* \"#utility.yul\":6334:6339   */\n      dup3\n        /* \"#utility.yul\":6297:6340   */\n      tag_249\n      jump\t// in\n    tag_355:\n        /* \"#utility.yul\":6284:6340   */\n      swap1\n      pop\n        /* \"#utility.yul\":6197:6346   */\n      swap2\n      swap1\n      pop\n      jump\t// out\n        /* \"#utility.yul\":6352:6517   */\n    tag_251:\n        /* \"#utility.yul\":6456:6510   */\n      tag_357\n        /* \"#utility.yul\":6504:6509   */\n      dup2\n        /* \"#utility.yul\":6456:6510   */\n      tag_250\n      jump\t// in\n    tag_357:\n        /* \"#utility.yul\":6451:6454   */\n      dup3\n        /* \"#utility.yul\":6444:6511   */\n      mstore\n        /* \"#utility.yul\":6352:6517   */\n      pop\n      pop\n      jump\t// out\n        /* \"#utility.yul\":6523:6647   */\n    tag_252:\n        /* \"#utility.yul\":6615:6616   */\n      0x04\n        /* \"#utility.yul\":6608:6613   */\n      dup2\n        /* \"#utility.yul\":6605:6617   */\n      lt\n        /* \"#utility.yul\":6595:6641   */\n      tag_359\n      jumpi\n        /* \"#utility.yul\":6621:6639   */\n      tag_360\n      tag_101\n      jump\t// in\n    tag_360:\n        /* \"#utility.yul\":6595:6641   */\n    tag_359:\n        /* \"#utility.yul\":6523:6647   */\n      pop\n      jump\t// out\n        /* \"#utility.yul\":6653:6802   */\n    tag_253:\n        /* \"#utility.yul\":6709:6716   */\n      0x00\n        /* \"#utility.yul\":6738:6743   */\n      dup2\n        /* \"#utility.yul\":6727:6743   */\n      swap1\n      pop\n        /* \"#utility.yul\":6744:6796   */\n      tag_362\n        /* \"#utility.yul\":6790:6795   */\n      dup3\n        /* \"#utility.yul\":6744:6796   */\n      tag_252\n      jump\t// in\n    tag_362:\n        /* \"#utility.yul\":6653:6802   */\n      swap2\n      swap1\n      pop\n      jump\t// out\n        /* \"#utility.yul\":6808:6957   */\n    tag_254:\n        /* \"#utility.yul\":6875:6884   */\n      0x00\n        /* \"#utility.yul\":6908:6951   */\n      tag_364\n        /* \"#utility.yul\":6945:6950   */\n      dup3\n        /* \"#utility.yul\":6908:6951   */\n      tag_253\n      jump\t// in\n    tag_364:\n        /* \"#utility.yul\":6895:6951   */\n      swap1\n      pop\n        /* \"#utility.yul\":6808:6957   */\n      swap2\n      swap1\n      pop\n      jump\t// out\n        /* \"#utility.yul\":6963:7128   */\n    tag_255:\n        /* \"#utility.yul\":7067:7121   */\n      tag_366\n        /* \"#utility.yul\":7115:7120   */\n      dup2\n        /* \"#utility.yul\":7067:7121   */\n      tag_254\n      jump\t// in\n    tag_366:\n        /* \"#utility.yul\":7062:7065   */\n      dup3\n        /* \"#utility.yul\":7055:7122   */\n      mstore\n        /* \"#utility.yul\":6963:7128   */\n      pop\n      pop\n      jump\t// out\n        /* \"#utility.yul\":7134:7961   */\n    tag_47:\n        /* \"#utility.yul\":7419:7423   */\n      0x00\n        /* \"#utility.yul\":7457:7460   */\n      0x0100\n        /* \"#utility.yul\":7446:7455   */\n      dup3\n        /* \"#utility.yul\":7442:7461   */\n      add\n        /* \"#utility.yul\":7434:7461   */\n      swap1\n      pop\n        /* \"#utility.yul\":7471:7588   */\n      tag_368\n        /* \"#utility.yul\":7585:7586   */\n      0x00\n        /* \"#utility.yul\":7574:7583   */\n      dup4\n        /* \"#utility.yul\":7570:7587   */\n      add\n        /* \"#utility.yul\":7561:7567   */\n      dup9\n        /* \"#utility.yul\":7471:7588   */\n      tag_247\n      jump\t// in\n    tag_368:\n        /* \"#utility.yul\":7598:7688   */\n      tag_369\n        /* \"#utility.yul\":7683:7686   */\n      0x80\n        /* \"#utility.yul\":7672:7681   */\n      dup4\n        /* \"#utility.yul\":7668:7687   */\n      add\n        /* \"#utility.yul\":7659:7665   */\n      dup8\n        /* \"#utility.yul\":7598:7688   */\n      tag_251\n      jump\t// in\n    tag_369:\n        /* \"#utility.yul\":7698:7788   */\n      tag_370\n        /* \"#utility.yul\":7783:7786   */\n      0xa0\n        /* \"#utility.yul\":7772:7781   */\n      dup4\n        /* \"#utility.yul\":7768:7787   */\n      add\n        /* \"#utility.yul\":7759:7765   */\n      dup7\n        /* \"#utility.yul\":7698:7788   */\n      tag_255\n      jump\t// in\n    tag_370:\n        /* \"#utility.yul\":7798:7871   */\n      tag_371\n        /* \"#utility.yul\":7866:7869   */\n      0xc0\n        /* \"#utility.yul\":7855:7864   */\n      dup4\n        /* \"#utility.yul\":7851:7870   */\n      add\n        /* \"#utility.yul\":7842:7848   */\n      dup6\n        /* \"#utility.yul\":7798:7871   */\n      tag_241\n      jump\t// in\n    tag_371:\n        /* \"#utility.yul\":7881:7954   */\n      tag_372\n        /* \"#utility.yul\":7949:7952   */\n      0xe0\n        /* \"#utility.yul\":7938:7947   */\n      dup4\n        /* \"#utility.yul\":7934:7953   */\n      add\n        /* \"#utility.yul\":7925:7931   */\n      dup5\n        /* \"#utility.yul\":7881:7954   */\n      tag_241\n      jump\t// in\n    tag_372:\n        /* \"#utility.yul\":7134:7961   */\n      swap7\n      swap6\n      pop\n      pop\n      pop\n      pop\n      pop\n      pop\n      jump\t// out\n        /* \"#utility.yul\":7967:8084   */\n    tag_256:\n        /* \"#utility.yul\":8076:8077   */\n      0x00\n        /* \"#utility.yul\":8073:8074   */\n      dup1\n        /* \"#utility.yul\":8066:8078   */\n      revert\n        /* \"#utility.yul\":8090:8207   */\n    tag_257:\n        /* \"#utility.yul\":8199:8200   */\n      0x00\n        /* \"#utility.yul\":8196:8197   */\n      dup1\n        /* \"#utility.yul\":8189:8201   */\n      revert\n        /* \"#utility.yul\":8213:8330   */\n    tag_258:\n        /* \"#utility.yul\":8322:8323   */\n      0x00\n        /* \"#utility.yul\":8319:8320   */\n      dup1\n        /* \"#utility.yul\":8312:8324   */\n      revert\n        /* \"#utility.yul\":8353:8921   */\n    tag_259:\n        /* \"#utility.yul\":8426:8434   */\n      0x00\n        /* \"#utility.yul\":8436:8442   */\n      dup1\n        /* \"#utility.yul\":8486:8489   */\n      dup4\n        /* \"#utility.yul\":8479:8483   */\n      0x1f\n        /* \"#utility.yul\":8471:8477   */\n      dup5\n        /* \"#utility.yul\":8467:8484   */\n      add\n        /* \"#utility.yul\":8463:8490   */\n      slt\n        /* \"#utility.yul\":8453:8575   */\n      tag_377\n      jumpi\n        /* \"#utility.yul\":8494:8573   */\n      tag_378\n      tag_256\n      jump\t// in\n    tag_378:\n        /* \"#utility.yul\":8453:8575   */\n    tag_377:\n        /* \"#utility.yul\":8607:8613   */\n      dup3\n        /* \"#utility.yul\":8594:8614   */\n      calldataload\n        /* \"#utility.yul\":8584:8614   */\n      swap1\n      pop\n        /* \"#utility.yul\":8637:8655   */\n      0xffffffffffffffff\n        /* \"#utility.yul\":8629:8635   */\n      dup2\n        /* \"#utility.yul\":8626:8656   */\n      gt\n        /* \"#utility.yul\":8623:8740   */\n      iszero\n      tag_379\n      jumpi\n        /* \"#utility.yul\":8659:8738   */\n      tag_380\n      tag_257\n      jump\t// in\n    tag_380:\n        /* \"#utility.yul\":8623:8740   */\n    tag_379:\n        /* \"#utility.yul\":8773:8777   */\n      0x20\n        /* \"#utility.yul\":8765:8771   */\n      dup4\n        /* \"#utility.yul\":8761:8778   */\n      add\n        /* \"#utility.yul\":8749:8778   */\n      swap2\n      pop\n        /* \"#utility.yul\":8827:8830   */\n      dup4\n        /* \"#utility.yul\":8819:8823   */\n      0x20\n        /* \"#utility.yul\":8811:8817   */\n      dup3\n        /* \"#utility.yul\":8807:8824   */\n      mul\n        /* \"#utility.yul\":8797:8805   */\n      dup4\n        /* \"#utility.yul\":8793:8825   */\n      add\n        /* \"#utility.yul\":8790:8831   */\n      gt\n        /* \"#utility.yul\":8787:8915   */\n      iszero\n      tag_381\n      jumpi\n        /* \"#utility.yul\":8834:8913   */\n      tag_382\n      tag_258\n      jump\t// in\n    tag_382:\n        /* \"#utility.yul\":8787:8915   */\n    tag_381:\n        /* \"#utility.yul\":8353:8921   */\n      swap3\n      pop\n      swap3\n      swap1\n      pop\n      jump\t// out\n        /* \"#utility.yul\":8927:10298   */\n    tag_50:\n        /* \"#utility.yul\":9076:9082   */\n      0x00\n        /* \"#utility.yul\":9084:9090   */\n      dup1\n        /* \"#utility.yul\":9092:9098   */\n      0x00\n        /* \"#utility.yul\":9100:9106   */\n      dup1\n        /* \"#utility.yul\":9108:9114   */\n      0x00\n        /* \"#utility.yul\":9116:9122   */\n      dup1\n        /* \"#utility.yul\":9124:9130   */\n      0x00\n        /* \"#utility.yul\":9173:9176   */\n      0xa0\n        /* \"#utility.yul\":9161:9170   */\n      dup9\n        /* \"#utility.yul\":9152:9159   */\n      dup11\n        /* \"#utility.yul\":9148:9171   */\n      sub\n        /* \"#utility.yul\":9144:9177   */\n      slt\n        /* \"#utility.yul\":9141:9261   */\n      iszero\n      tag_384\n      jumpi\n        /* \"#utility.yul\":9180:9259   */\n      tag_385\n      tag_231\n      jump\t// in\n    tag_385:\n        /* \"#utility.yul\":9141:9261   */\n    tag_384:\n        /* \"#utility.yul\":9300:9301   */\n      0x00\n        /* \"#utility.yul\":9325:9378   */\n      tag_386\n        /* \"#utility.yul\":9370:9377   */\n      dup11\n        /* \"#utility.yul\":9361:9367   */\n      dup3\n        /* \"#utility.yul\":9350:9359   */\n      dup12\n        /* \"#utility.yul\":9346:9368   */\n      add\n        /* \"#utility.yul\":9325:9378   */\n      tag_235\n      jump\t// in\n    tag_386:\n        /* \"#utility.yul\":9315:9378   */\n      swap8\n      pop\n        /* \"#utility.yul\":9271:9388   */\n      pop\n        /* \"#utility.yul\":9455:9457   */\n      0x20\n        /* \"#utility.yul\":9444:9453   */\n      dup9\n        /* \"#utility.yul\":9440:9458   */\n      add\n        /* \"#utility.yul\":9427:9459   */\n      calldataload\n        /* \"#utility.yul\":9486:9504   */\n      0xffffffffffffffff\n        /* \"#utility.yul\":9478:9484   */\n      dup2\n        /* \"#utility.yul\":9475:9505   */\n      gt\n        /* \"#utility.yul\":9472:9589   */\n      iszero\n      tag_387\n      jumpi\n        /* \"#utility.yul\":9508:9587   */\n      tag_388\n      tag_232\n      jump\t// in\n    tag_388:\n        /* \"#utility.yul\":9472:9589   */\n    tag_387:\n        /* \"#utility.yul\":9621:9701   */\n      tag_389\n        /* \"#utility.yul\":9693:9700   */\n      dup11\n        /* \"#utility.yul\":9684:9690   */\n      dup3\n        /* \"#utility.yul\":9673:9682   */\n      dup12\n        /* \"#utility.yul\":9669:9691   */\n      add\n        /* \"#utility.yul\":9621:9701   */\n      tag_259\n      jump\t// in\n    tag_389:\n        /* \"#utility.yul\":9603:9701   */\n      swap7\n      pop\n      swap7\n      pop\n        /* \"#utility.yul\":9398:9711   */\n      pop\n        /* \"#utility.yul\":9778:9780   */\n      0x40\n        /* \"#utility.yul\":9767:9776   */\n      dup9\n        /* \"#utility.yul\":9763:9781   */\n      add\n        /* \"#utility.yul\":9750:9782   */\n      calldataload\n        /* \"#utility.yul\":9809:9827   */\n      0xffffffffffffffff\n        /* \"#utility.yul\":9801:9807   */\n      dup2\n        /* \"#utility.yul\":9798:9828   */\n      gt\n        /* \"#utility.yul\":9795:9912   */\n      iszero\n      tag_390\n      jumpi\n        /* \"#utility.yul\":9831:9910   */\n      tag_391\n      tag_232\n      jump\t// in\n    tag_391:\n        /* \"#utility.yul\":9795:9912   */\n    tag_390:\n        /* \"#utility.yul\":9944:10024   */\n      tag_392\n        /* \"#utility.yul\":10016:10023   */\n      dup11\n        /* \"#utility.yul\":10007:10013   */\n      dup3\n        /* \"#utility.yul\":9996:10005   */\n      dup12\n        /* \"#utility.yul\":9992:10014   */\n      add\n        /* \"#utility.yul\":9944:10024   */\n      tag_259\n      jump\t// in\n    tag_392:\n        /* \"#utility.yul\":9926:10024   */\n      swap5\n      pop\n      swap5\n      pop\n        /* \"#utility.yul\":9721:10034   */\n      pop\n        /* \"#utility.yul\":10073:10075   */\n      0x60\n        /* \"#utility.yul\":10099:10152   */\n      tag_393\n        /* \"#utility.yul\":10144:10151   */\n      dup11\n        /* \"#utility.yul\":10135:10141   */\n      dup3\n        /* \"#utility.yul\":10124:10133   */\n      dup12\n        /* \"#utility.yul\":10120:10142   */\n      add\n        /* \"#utility.yul\":10099:10152   */\n      tag_235\n      jump\t// in\n    tag_393:\n        /* \"#utility.yul\":10089:10152   */\n      swap3\n      pop\n        /* \"#utility.yul\":10044:10162   */\n      pop\n        /* \"#utility.yul\":10201:10204   */\n      0x80\n        /* \"#utility.yul\":10228:10281   */\n      tag_394\n        /* \"#utility.yul\":10273:10280   */\n      dup11\n        /* \"#utility.yul\":10264:10270   */\n      dup3\n        /* \"#utility.yul\":10253:10262   */\n      dup12\n        /* \"#utility.yul\":10249:10271   */\n      add\n        /* \"#utility.yul\":10228:10281   */\n      tag_235\n      jump\t// in\n    tag_394:\n        /* \"#utility.yul\":10218:10281   */\n      swap2\n      pop\n        /* \"#utility.yul\":10172:10291   */\n      pop\n        /* \"#utility.yul\":8927:10298   */\n      swap3\n      swap6\n      swap9\n      swap2\n      swap5\n      swap8\n      pop\n      swap3\n      swap6\n      pop\n      jump\t// out\n        /* \"#utility.yul\":10304:10422   */\n    tag_260:\n        /* \"#utility.yul\":10391:10415   */\n      tag_396\n        /* \"#utility.yul\":10409:10414   */\n      dup2\n        /* \"#utility.yul\":10391:10415   */\n      tag_243\n      jump\t// in\n    tag_396:\n        /* \"#utility.yul\":10386:10389   */\n      dup3\n        /* \"#utility.yul\":10379:10416   */\n      mstore\n        /* \"#utility.yul\":10304:10422   */\n      pop\n      pop\n      jump\t// out\n        /* \"#utility.yul\":10428:10650   */\n    tag_56:\n        /* \"#utility.yul\":10521:10525   */\n      0x00\n        /* \"#utility.yul\":10559:10561   */\n      0x20\n        /* \"#utility.yul\":10548:10557   */\n      dup3\n        /* \"#utility.yul\":10544:10562   */\n      add\n        /* \"#utility.yul\":10536:10562   */\n      swap1\n      pop\n        /* \"#utility.yul\":10572:10643   */\n      tag_398\n        /* \"#utility.yul\":10640:10641   */\n      0x00\n        /* \"#utility.yul\":10629:10638   */\n      dup4\n        /* \"#utility.yul\":10625:10642   */\n      add\n        /* \"#utility.yul\":10616:10622   */\n      dup5\n        /* \"#utility.yul\":10572:10643   */\n      tag_260\n      jump\t// in\n    tag_398:\n        /* \"#utility.yul\":10428:10650   */\n      swap3\n      swap2\n      pop\n      pop\n      jump\t// out\n        /* \"#utility.yul\":10656:11098   */\n    tag_65:\n        /* \"#utility.yul\":10805:10809   */\n      0x00\n        /* \"#utility.yul\":10843:10845   */\n      0x60\n        /* \"#utility.yul\":10832:10841   */\n      dup3\n        /* \"#utility.yul\":10828:10846   */\n      add\n        /* \"#utility.yul\":10820:10846   */\n      swap1\n      pop\n        /* \"#utility.yul\":10856:10927   */\n      tag_400\n        /* \"#utility.yul\":10924:10925   */\n      0x00\n        /* \"#utility.yul\":10913:10922   */\n      dup4\n        /* \"#utility.yul\":10909:10926   */\n      add\n        /* \"#utility.yul\":10900:10906   */\n      dup7\n        /* \"#utility.yul\":10856:10927   */\n      tag_241\n      jump\t// in\n    tag_400:\n        /* \"#utility.yul\":10937:11009   */\n      tag_401\n        /* \"#utility.yul\":11005:11007   */\n      0x20\n        /* \"#utility.yul\":10994:11003   */\n      dup4\n        /* \"#utility.yul\":10990:11008   */\n      add\n        /* \"#utility.yul\":10981:10987   */\n      dup6\n        /* \"#utility.yul\":10937:11009   */\n      tag_241\n      jump\t// in\n    tag_401:\n        /* \"#utility.yul\":11019:11091   */\n      tag_402\n        /* \"#utility.yul\":11087:11089   */\n      0x40\n        /* \"#utility.yul\":11076:11085   */\n      dup4\n        /* \"#utility.yul\":11072:11090   */\n      add\n        /* \"#utility.yul\":11063:11069   */\n      dup5\n        /* \"#utility.yul\":11019:11091   */\n      tag_241\n      jump\t// in\n    tag_402:\n        /* \"#utility.yul\":10656:11098   */\n      swap5\n      swap4\n      pop\n      pop\n      pop\n      pop\n      jump\t// out\n        /* \"#utility.yul\":11104:11218   */\n    tag_261:\n        /* \"#utility.yul\":11171:11177   */\n      0x00\n        /* \"#utility.yul\":11205:11210   */\n      dup2\n        /* \"#utility.yul\":11199:11211   */\n      mload\n        /* \"#utility.yul\":11189:11211   */\n      swap1\n      pop\n        /* \"#utility.yul\":11104:11218   */\n      swap2\n      swap1\n      pop\n      jump\t// out\n        /* \"#utility.yul\":11224:11408   */\n    tag_262:\n        /* \"#utility.yul\":11323:11334   */\n      0x00\n        /* \"#utility.yul\":11357:11363   */\n      dup3\n        /* \"#utility.yul\":11352:11355   */\n      dup3\n        /* \"#utility.yul\":11345:11364   */\n      mstore\n        /* \"#utility.yul\":11397:11401   */\n      0x20\n        /* \"#utility.yul\":11392:11395   */\n      dup3\n        /* \"#utility.yul\":11388:11402   */\n      add\n        /* \"#utility.yul\":11373:11402   */\n      swap1\n      pop\n        /* \"#utility.yul\":11224:11408   */\n      swap3\n      swap2\n      pop\n      pop\n      jump\t// out\n        /* \"#utility.yul\":11414:11546   */\n    tag_263:\n        /* \"#utility.yul\":11481:11485   */\n      0x00\n        /* \"#utility.yul\":11504:11507   */\n      dup2\n        /* \"#utility.yul\":11496:11507   */\n      swap1\n      pop\n        /* \"#utility.yul\":11534:11538   */\n      0x20\n        /* \"#utility.yul\":11529:11532   */\n      dup3\n        /* \"#utility.yul\":11525:11539   */\n      add\n        /* \"#utility.yul\":11517:11539   */\n      swap1\n      pop\n        /* \"#utility.yul\":11414:11546   */\n      swap2\n      swap1\n      pop\n      jump\t// out\n        /* \"#utility.yul\":11552:11660   */\n    tag_264:\n        /* \"#utility.yul\":11629:11653   */\n      tag_407\n        /* \"#utility.yul\":11647:11652   */\n      dup2\n        /* \"#utility.yul\":11629:11653   */\n      tag_243\n      jump\t// in\n    tag_407:\n        /* \"#utility.yul\":11624:11627   */\n      dup3\n        /* \"#utility.yul\":11617:11654   */\n      mstore\n        /* \"#utility.yul\":11552:11660   */\n      pop\n      pop\n      jump\t// out\n        /* \"#utility.yul\":11666:11845   */\n    tag_265:\n        /* \"#utility.yul\":11735:11745   */\n      0x00\n        /* \"#utility.yul\":11756:11802   */\n      tag_409\n        /* \"#utility.yul\":11798:11801   */\n      dup4\n        /* \"#utility.yul\":11790:11796   */\n      dup4\n        /* \"#utility.yul\":11756:11802   */\n      tag_264\n      jump\t// in\n    tag_409:\n        /* \"#utility.yul\":11834:11838   */\n      0x20\n        /* \"#utility.yul\":11829:11832   */\n      dup4\n        /* \"#utility.yul\":11825:11839   */\n      add\n        /* \"#utility.yul\":11811:11839   */\n      swap1\n      pop\n        /* \"#utility.yul\":11666:11845   */\n      swap3\n      swap2\n      pop\n      pop\n      jump\t// out\n        /* \"#utility.yul\":11851:11964   */\n    tag_266:\n        /* \"#utility.yul\":11921:11925   */\n      0x00\n        /* \"#utility.yul\":11953:11957   */\n      0x20\n        /* \"#utility.yul\":11948:11951   */\n      dup3\n        /* \"#utility.yul\":11944:11958   */\n      add\n        /* \"#utility.yul\":11936:11958   */\n      swap1\n      pop\n        /* \"#utility.yul\":11851:11964   */\n      swap2\n      swap1\n      pop\n      jump\t// out\n        /* \"#utility.yul\":12000:12732   */\n    tag_267:\n        /* \"#utility.yul\":12119:12122   */\n      0x00\n        /* \"#utility.yul\":12148:12202   */\n      tag_412\n        /* \"#utility.yul\":12196:12201   */\n      dup3\n        /* \"#utility.yul\":12148:12202   */\n      tag_261\n      jump\t// in\n    tag_412:\n        /* \"#utility.yul\":12218:12304   */\n      tag_413\n        /* \"#utility.yul\":12297:12303   */\n      dup2\n        /* \"#utility.yul\":12292:12295   */\n      dup6\n        /* \"#utility.yul\":12218:12304   */\n      tag_262\n      jump\t// in\n    tag_413:\n        /* \"#utility.yul\":12211:12304   */\n      swap4\n      pop\n        /* \"#utility.yul\":12328:12384   */\n      tag_414\n        /* \"#utility.yul\":12378:12383   */\n      dup4\n        /* \"#utility.yul\":12328:12384   */\n      tag_263\n      jump\t// in\n    tag_414:\n        /* \"#utility.yul\":12407:12414   */\n      dup1\n        /* \"#utility.yul\":12438:12439   */\n      0x00\n        /* \"#utility.yul\":12423:12707   */\n    tag_415:\n        /* \"#utility.yul\":12448:12454   */\n      dup4\n        /* \"#utility.yul\":12445:12446   */\n      dup2\n        /* \"#utility.yul\":12442:12455   */\n      lt\n        /* \"#utility.yul\":12423:12707   */\n      iszero\n      tag_417\n      jumpi\n        /* \"#utility.yul\":12524:12530   */\n      dup2\n        /* \"#utility.yul\":12518:12531   */\n      mload\n        /* \"#utility.yul\":12551:12614   */\n      tag_418\n        /* \"#utility.yul\":12610:12613   */\n      dup9\n        /* \"#utility.yul\":12595:12608   */\n      dup3\n        /* \"#utility.yul\":12551:12614   */\n      tag_265\n      jump\t// in\n    tag_418:\n        /* \"#utility.yul\":12544:12614   */\n      swap8\n      pop\n        /* \"#utility.yul\":12637:12697   */\n      tag_419\n        /* \"#utility.yul\":12690:12696   */\n      dup4\n        /* \"#utility.yul\":12637:12697   */\n      tag_266\n      jump\t// in\n    tag_419:\n        /* \"#utility.yul\":12627:12697   */\n      swap3\n      pop\n        /* \"#utility.yul\":12483:12707   */\n      pop\n        /* \"#utility.yul\":12470:12471   */\n      0x01\n        /* \"#utility.yul\":12467:12468   */\n      dup2\n        /* \"#utility.yul\":12463:12472   */\n      add\n        /* \"#utility.yul\":12458:12472   */\n      swap1\n      pop\n        /* \"#utility.yul\":12423:12707   */\n      jump(tag_415)\n    tag_417:\n        /* \"#utility.yul\":12427:12441   */\n      pop\n        /* \"#utility.yul\":12723:12726   */\n      dup6\n        /* \"#utility.yul\":12716:12726   */\n      swap4\n      pop\n        /* \"#utility.yul\":12124:12732   */\n      pop\n      pop\n      pop\n        /* \"#utility.yul\":12000:12732   */\n      swap3\n      swap2\n      pop\n      pop\n      jump\t// out\n        /* \"#utility.yul\":12738:13926   */\n    tag_73:\n        /* \"#utility.yul\":13099:13103   */\n      0x00\n        /* \"#utility.yul\":13137:13140   */\n      0xe0\n        /* \"#utility.yul\":13126:13135   */\n      dup3\n        /* \"#utility.yul\":13122:13141   */\n      add\n        /* \"#utility.yul\":13114:13141   */\n      swap1\n      pop\n        /* \"#utility.yul\":13151:13222   */\n      tag_421\n        /* \"#utility.yul\":13219:13220   */\n      0x00\n        /* \"#utility.yul\":13208:13217   */\n      dup4\n        /* \"#utility.yul\":13204:13221   */\n      add\n        /* \"#utility.yul\":13195:13201   */\n      dup11\n        /* \"#utility.yul\":13151:13222   */\n      tag_241\n      jump\t// in\n    tag_421:\n        /* \"#utility.yul\":13232:13304   */\n      tag_422\n        /* \"#utility.yul\":13300:13302   */\n      0x20\n        /* \"#utility.yul\":13289:13298   */\n      dup4\n        /* \"#utility.yul\":13285:13303   */\n      add\n        /* \"#utility.yul\":13276:13282   */\n      dup10\n        /* \"#utility.yul\":13232:13304   */\n      tag_241\n      jump\t// in\n    tag_422:\n        /* \"#utility.yul\":13351:13360   */\n      dup2\n        /* \"#utility.yul\":13345:13349   */\n      dup2\n        /* \"#utility.yul\":13341:13361   */\n      sub\n        /* \"#utility.yul\":13336:13338   */\n      0x40\n        /* \"#utility.yul\":13325:13334   */\n      dup4\n        /* \"#utility.yul\":13321:13339   */\n      add\n        /* \"#utility.yul\":13314:13362   */\n      mstore\n        /* \"#utility.yul\":13379:13487   */\n      tag_423\n        /* \"#utility.yul\":13482:13486   */\n      dup2\n        /* \"#utility.yul\":13473:13479   */\n      dup9\n        /* \"#utility.yul\":13379:13487   */\n      tag_267\n      jump\t// in\n    tag_423:\n        /* \"#utility.yul\":13371:13487   */\n      swap1\n      pop\n        /* \"#utility.yul\":13534:13543   */\n      dup2\n        /* \"#utility.yul\":13528:13532   */\n      dup2\n        /* \"#utility.yul\":13524:13544   */\n      sub\n        /* \"#utility.yul\":13519:13521   */\n      0x60\n        /* \"#utility.yul\":13508:13517   */\n      dup4\n        /* \"#utility.yul\":13504:13522   */\n      add\n        /* \"#utility.yul\":13497:13545   */\n      mstore\n        /* \"#utility.yul\":13562:13670   */\n      tag_424\n        /* \"#utility.yul\":13665:13669   */\n      dup2\n        /* \"#utility.yul\":13656:13662   */\n      dup8\n        /* \"#utility.yul\":13562:13670   */\n      tag_267\n      jump\t// in\n    tag_424:\n        /* \"#utility.yul\":13554:13670   */\n      swap1\n      pop\n        /* \"#utility.yul\":13680:13753   */\n      tag_425\n        /* \"#utility.yul\":13748:13751   */\n      0x80\n        /* \"#utility.yul\":13737:13746   */\n      dup4\n        /* \"#utility.yul\":13733:13752   */\n      add\n        /* \"#utility.yul\":13724:13730   */\n      dup7\n        /* \"#utility.yul\":13680:13753   */\n      tag_241\n      jump\t// in\n    tag_425:\n        /* \"#utility.yul\":13763:13836   */\n      tag_426\n        /* \"#utility.yul\":13831:13834   */\n      0xa0\n        /* \"#utility.yul\":13820:13829   */\n      dup4\n        /* \"#utility.yul\":13816:13835   */\n      add\n        /* \"#utility.yul\":13807:13813   */\n      dup6\n        /* \"#utility.yul\":13763:13836   */\n      tag_241\n      jump\t// in\n    tag_426:\n        /* \"#utility.yul\":13846:13919   */\n      tag_427\n        /* \"#utility.yul\":13914:13917   */\n      0xc0\n        /* \"#utility.yul\":13903:13912   */\n      dup4\n        /* \"#utility.yul\":13899:13918   */\n      add\n        /* \"#utility.yul\":13890:13896   */\n      dup5\n        /* \"#utility.yul\":13846:13919   */\n      tag_241\n      jump\t// in\n    tag_427:\n        /* \"#utility.yul\":12738:13926   */\n      swap9\n      swap8\n      pop\n      pop\n      pop\n      pop\n      pop\n      pop\n      pop\n      pop\n      jump\t// out\n        /* \"#utility.yul\":13932:14101   */\n    tag_268:\n        /* \"#utility.yul\":14016:14027   */\n      0x00\n        /* \"#utility.yul\":14050:14056   */\n      dup3\n        /* \"#utility.yul\":14045:14048   */\n      dup3\n        /* \"#utility.yul\":14038:14057   */\n      mstore\n        /* \"#utility.yul\":14090:14094   */\n      0x20\n        /* \"#utility.yul\":14085:14088   */\n      dup3\n        /* \"#utility.yul\":14081:14095   */\n      add\n        /* \"#utility.yul\":14066:14095   */\n      swap1\n      pop\n        /* \"#utility.yul\":13932:14101   */\n      swap3\n      swap2\n      pop\n      pop\n      jump\t// out\n        /* \"#utility.yul\":14107:14347   */\n    tag_269:\n        /* \"#utility.yul\":14247:14281   */\n      0x546f2063616c6c2074686973206d6574686f6420796f75206861766520746f20\n        /* \"#utility.yul\":14243:14244   */\n      0x00\n        /* \"#utility.yul\":14235:14241   */\n      dup3\n        /* \"#utility.yul\":14231:14245   */\n      add\n        /* \"#utility.yul\":14224:14282   */\n      mstore\n        /* \"#utility.yul\":14316:14339   */\n      0x6265206f776e6572206f722073756241646d696e210000000000000000000000\n        /* \"#utility.yul\":14311:14313   */\n      0x20\n        /* \"#utility.yul\":14303:14309   */\n      dup3\n        /* \"#utility.yul\":14299:14314   */\n      add\n        /* \"#utility.yul\":14292:14340   */\n      mstore\n        /* \"#utility.yul\":14107:14347   */\n      pop\n      jump\t// out\n        /* \"#utility.yul\":14353:14719   */\n    tag_270:\n        /* \"#utility.yul\":14495:14498   */\n      0x00\n        /* \"#utility.yul\":14516:14583   */\n      tag_431\n        /* \"#utility.yul\":14580:14582   */\n      0x35\n        /* \"#utility.yul\":14575:14578   */\n      dup4\n        /* \"#utility.yul\":14516:14583   */\n      tag_268\n      jump\t// in\n    tag_431:\n        /* \"#utility.yul\":14509:14583   */\n      swap2\n      pop\n        /* \"#utility.yul\":14592:14685   */\n      tag_432\n        /* \"#utility.yul\":14681:14684   */\n      dup3\n        /* \"#utility.yul\":14592:14685   */\n      tag_269\n      jump\t// in\n    tag_432:\n        /* \"#utility.yul\":14710:14712   */\n      0x40\n        /* \"#utility.yul\":14705:14708   */\n      dup3\n        /* \"#utility.yul\":14701:14713   */\n      add\n        /* \"#utility.yul\":14694:14713   */\n      swap1\n      pop\n        /* \"#utility.yul\":14353:14719   */\n      swap2\n      swap1\n      pop\n      jump\t// out\n        /* \"#utility.yul\":14725:15144   */\n    tag_87:\n        /* \"#utility.yul\":14891:14895   */\n      0x00\n        /* \"#utility.yul\":14929:14931   */\n      0x20\n        /* \"#utility.yul\":14918:14927   */\n      dup3\n        /* \"#utility.yul\":14914:14932   */\n      add\n        /* \"#utility.yul\":14906:14932   */\n      swap1\n      pop\n        /* \"#utility.yul\":14978:14987   */\n      dup2\n        /* \"#utility.yul\":14972:14976   */\n      dup2\n        /* \"#utility.yul\":14968:14988   */\n      sub\n        /* \"#utility.yul\":14964:14965   */\n      0x00\n        /* \"#utility.yul\":14953:14962   */\n      dup4\n        /* \"#utility.yul\":14949:14966   */\n      add\n        /* \"#utility.yul\":14942:14989   */\n      mstore\n        /* \"#utility.yul\":15006:15137   */\n      tag_434\n        /* \"#utility.yul\":15132:15136   */\n      dup2\n        /* \"#utility.yul\":15006:15137   */\n      tag_270\n      jump\t// in\n    tag_434:\n        /* \"#utility.yul\":14998:15137   */\n      swap1\n      pop\n        /* \"#utility.yul\":14725:15144   */\n      swap2\n      swap1\n      pop\n      jump\t// out\n        /* \"#utility.yul\":15150:15380   */\n    tag_271:\n        /* \"#utility.yul\":15290:15324   */\n      0x63616e27742066696e6420636f6d706574696f6e207769746820746869732063\n        /* \"#utility.yul\":15286:15287   */\n      0x00\n        /* \"#utility.yul\":15278:15284   */\n      dup3\n        /* \"#utility.yul\":15274:15288   */\n      add\n        /* \"#utility.yul\":15267:15325   */\n      mstore\n        /* \"#utility.yul\":15359:15372   */\n      0x6f6d706574696f6e496421000000000000000000000000000000000000000000\n        /* \"#utility.yul\":15354:15356   */\n      0x20\n        /* \"#utility.yul\":15346:15352   */\n      dup3\n        /* \"#utility.yul\":15342:15357   */\n      add\n        /* \"#utility.yul\":15335:15373   */\n      mstore\n        /* \"#utility.yul\":15150:15380   */\n      pop\n      jump\t// out\n        /* \"#utility.yul\":15386:15752   */\n    tag_272:\n        /* \"#utility.yul\":15528:15531   */\n      0x00\n        /* \"#utility.yul\":15549:15616   */\n      tag_437\n        /* \"#utility.yul\":15613:15615   */\n      0x2b\n        /* \"#utility.yul\":15608:15611   */\n      dup4\n        /* \"#utility.yul\":15549:15616   */\n      tag_268\n      jump\t// in\n    tag_437:\n        /* \"#utility.yul\":15542:15616   */\n      swap2\n      pop\n        /* \"#utility.yul\":15625:15718   */\n      tag_438\n        /* \"#utility.yul\":15714:15717   */\n      dup3\n        /* \"#utility.yul\":15625:15718   */\n      tag_271\n      jump\t// in\n    tag_438:\n        /* \"#utility.yul\":15743:15745   */\n      0x40\n        /* \"#utility.yul\":15738:15741   */\n      dup3\n        /* \"#utility.yul\":15734:15746   */\n      add\n        /* \"#utility.yul\":15727:15746   */\n      swap1\n      pop\n        /* \"#utility.yul\":15386:15752   */\n      swap2\n      swap1\n      pop\n      jump\t// out\n        /* \"#utility.yul\":15758:16177   */\n    tag_93:\n        /* \"#utility.yul\":15924:15928   */\n      0x00\n        /* \"#utility.yul\":15962:15964   */\n      0x20\n        /* \"#utility.yul\":15951:15960   */\n      dup3\n        /* \"#utility.yul\":15947:15965   */\n      add\n        /* \"#utility.yul\":15939:15965   */\n      swap1\n      pop\n        /* \"#utility.yul\":16011:16020   */\n      dup2\n        /* \"#utility.yul\":16005:16009   */\n      dup2\n        /* \"#utility.yul\":16001:16021   */\n      sub\n        /* \"#utility.yul\":15997:15998   */\n      0x00\n        /* \"#utility.yul\":15986:15995   */\n      dup4\n        /* \"#utility.yul\":15982:15999   */\n      add\n        /* \"#utility.yul\":15975:16022   */\n      mstore\n        /* \"#utility.yul\":16039:16170   */\n      tag_440\n        /* \"#utility.yul\":16165:16169   */\n      dup2\n        /* \"#utility.yul\":16039:16170   */\n      tag_272\n      jump\t// in\n    tag_440:\n        /* \"#utility.yul\":16031:16170   */\n      swap1\n      pop\n        /* \"#utility.yul\":15758:16177   */\n      swap2\n      swap1\n      pop\n      jump\t// out\n        /* \"#utility.yul\":16183:16410   */\n    tag_273:\n        /* \"#utility.yul\":16323:16357   */\n      0x737461747573206e65656420746f20626520736f6d74696e6720626574776565\n        /* \"#utility.yul\":16319:16320   */\n      0x00\n        /* \"#utility.yul\":16311:16317   */\n      dup3\n        /* \"#utility.yul\":16307:16321   */\n      add\n        /* \"#utility.yul\":16300:16358   */\n      mstore\n        /* \"#utility.yul\":16392:16402   */\n      0x6e203020746f2032000000000000000000000000000000000000000000000000\n        /* \"#utility.yul\":16387:16389   */\n      0x20\n        /* \"#utility.yul\":16379:16385   */\n      dup3\n        /* \"#utility.yul\":16375:16390   */\n      add\n        /* \"#utility.yul\":16368:16403   */\n      mstore\n        /* \"#utility.yul\":16183:16410   */\n      pop\n      jump\t// out\n        /* \"#utility.yul\":16416:16782   */\n    tag_274:\n        /* \"#utility.yul\":16558:16561   */\n      0x00\n        /* \"#utility.yul\":16579:16646   */\n      tag_443\n        /* \"#utility.yul\":16643:16645   */\n      0x28\n        /* \"#utility.yul\":16638:16641   */\n      dup4\n        /* \"#utility.yul\":16579:16646   */\n      tag_268\n      jump\t// in\n    tag_443:\n        /* \"#utility.yul\":16572:16646   */\n      swap2\n      pop\n        /* \"#utility.yul\":16655:16748   */\n      tag_444\n        /* \"#utility.yul\":16744:16747   */\n      dup3\n        /* \"#utility.yul\":16655:16748   */\n      tag_273\n      jump\t// in\n    tag_444:\n        /* \"#utility.yul\":16773:16775   */\n      0x40\n        /* \"#utility.yul\":16768:16771   */\n      dup3\n        /* \"#utility.yul\":16764:16776   */\n      add\n        /* \"#utility.yul\":16757:16776   */\n      swap1\n      pop\n        /* \"#utility.yul\":16416:16782   */\n      swap2\n      swap1\n      pop\n      jump\t// out\n        /* \"#utility.yul\":16788:17207   */\n    tag_97:\n        /* \"#utility.yul\":16954:16958   */\n      0x00\n        /* \"#utility.yul\":16992:16994   */\n      0x20\n        /* \"#utility.yul\":16981:16990   */\n      dup3\n        /* \"#utility.yul\":16977:16995   */\n      add\n        /* \"#utility.yul\":16969:16995   */\n      swap1\n      pop\n        /* \"#utility.yul\":17041:17050   */\n      dup2\n        /* \"#utility.yul\":17035:17039   */\n      dup2\n        /* \"#utility.yul\":17031:17051   */\n      sub\n        /* \"#utility.yul\":17027:17028   */\n      0x00\n        /* \"#utility.yul\":17016:17025   */\n      dup4\n        /* \"#utility.yul\":17012:17029   */\n      add\n        /* \"#utility.yul\":17005:17052   */\n      mstore\n        /* \"#utility.yul\":17069:17200   */\n      tag_446\n        /* \"#utility.yul\":17195:17199   */\n      dup2\n        /* \"#utility.yul\":17069:17200   */\n      tag_274\n      jump\t// in\n    tag_446:\n        /* \"#utility.yul\":17061:17200   */\n      swap1\n      pop\n        /* \"#utility.yul\":16788:17207   */\n      swap2\n      swap1\n      pop\n      jump\t// out\n        /* \"#utility.yul\":17213:17395   */\n    tag_275:\n        /* \"#utility.yul\":17353:17387   */\n      0x4f776e61626c653a2063616c6c6572206973206e6f7420746865206f776e6572\n        /* \"#utility.yul\":17349:17350   */\n      0x00\n        /* \"#utility.yul\":17341:17347   */\n      dup3\n        /* \"#utility.yul\":17337:17351   */\n      add\n        /* \"#utility.yul\":17330:17388   */\n      mstore\n        /* \"#utility.yul\":17213:17395   */\n      pop\n      jump\t// out\n        /* \"#utility.yul\":17401:17767   */\n    tag_276:\n        /* \"#utility.yul\":17543:17546   */\n      0x00\n        /* \"#utility.yul\":17564:17631   */\n      tag_449\n        /* \"#utility.yul\":17628:17630   */\n      0x20\n        /* \"#utility.yul\":17623:17626   */\n      dup4\n        /* \"#utility.yul\":17564:17631   */\n      tag_268\n      jump\t// in\n    tag_449:\n        /* \"#utility.yul\":17557:17631   */\n      swap2\n      pop\n        /* \"#utility.yul\":17640:17733   */\n      tag_450\n        /* \"#utility.yul\":17729:17732   */\n      dup3\n        /* \"#utility.yul\":17640:17733   */\n      tag_275\n      jump\t// in\n    tag_450:\n        /* \"#utility.yul\":17758:17760   */\n      0x20\n        /* \"#utility.yul\":17753:17756   */\n      dup3\n        /* \"#utility.yul\":17749:17761   */\n      add\n        /* \"#utility.yul\":17742:17761   */\n      swap1\n      pop\n        /* \"#utility.yul\":17401:17767   */\n      swap2\n      swap1\n      pop\n      jump\t// out\n        /* \"#utility.yul\":17773:18192   */\n    tag_115:\n        /* \"#utility.yul\":17939:17943   */\n      0x00\n        /* \"#utility.yul\":17977:17979   */\n      0x20\n        /* \"#utility.yul\":17966:17975   */\n      dup3\n        /* \"#utility.yul\":17962:17980   */\n      add\n        /* \"#utility.yul\":17954:17980   */\n      swap1\n      pop\n        /* \"#utility.yul\":18026:18035   */\n      dup2\n        /* \"#utility.yul\":18020:18024   */\n      dup2\n        /* \"#utility.yul\":18016:18036   */\n      sub\n        /* \"#utility.yul\":18012:18013   */\n      0x00\n        /* \"#utility.yul\":18001:18010   */\n      dup4\n        /* \"#utility.yul\":17997:18014   */\n      add\n        /* \"#utility.yul\":17990:18037   */\n      mstore\n        /* \"#utility.yul\":18054:18185   */\n      tag_452\n        /* \"#utility.yul\":18180:18184   */\n      dup2\n        /* \"#utility.yul\":18054:18185   */\n      tag_276\n      jump\t// in\n    tag_452:\n        /* \"#utility.yul\":18046:18185   */\n      swap1\n      pop\n        /* \"#utility.yul\":17773:18192   */\n      swap2\n      swap1\n      pop\n      jump\t// out\n        /* \"#utility.yul\":18198:18378   */\n    tag_277:\n        /* \"#utility.yul\":18246:18323   */\n      0x4e487b7100000000000000000000000000000000000000000000000000000000\n        /* \"#utility.yul\":18243:18244   */\n      0x00\n        /* \"#utility.yul\":18236:18324   */\n      mstore\n        /* \"#utility.yul\":18343:18347   */\n      0x11\n        /* \"#utility.yul\":18340:18341   */\n      0x04\n        /* \"#utility.yul\":18333:18348   */\n      mstore\n        /* \"#utility.yul\":18367:18371   */\n      0x24\n        /* \"#utility.yul\":18364:18365   */\n      0x00\n        /* \"#utility.yul\":18357:18372   */\n      revert\n        /* \"#utility.yul\":18384:18689   */\n    tag_136:\n        /* \"#utility.yul\":18424:18427   */\n      0x00\n        /* \"#utility.yul\":18443:18463   */\n      tag_455\n        /* \"#utility.yul\":18461:18462   */\n      dup3\n        /* \"#utility.yul\":18443:18463   */\n      tag_233\n      jump\t// in\n    tag_455:\n        /* \"#utility.yul\":18438:18463   */\n      swap2\n      pop\n        /* \"#utility.yul\":18477:18497   */\n      tag_456\n        /* \"#utility.yul\":18495:18496   */\n      dup4\n        /* \"#utility.yul\":18477:18497   */\n      tag_233\n      jump\t// in\n    tag_456:\n        /* \"#utility.yul\":18472:18497   */\n      swap3\n      pop\n        /* \"#utility.yul\":18631:18632   */\n      dup3\n        /* \"#utility.yul\":18563:18629   */\n      0xffffffffffffffffffffffffffffffffffffffffffffffffffffffffffffffff\n        /* \"#utility.yul\":18559:18633   */\n      sub\n        /* \"#utility.yul\":18556:18557   */\n      dup3\n        /* \"#utility.yul\":18553:18634   */\n      gt\n        /* \"#utility.yul\":18550:18657   */\n      iszero\n      tag_457\n      jumpi\n        /* \"#utility.yul\":18637:18655   */\n      tag_458\n      tag_277\n      jump\t// in\n    tag_458:\n        /* \"#utility.yul\":18550:18657   */\n    tag_457:\n        /* \"#utility.yul\":18681:18682   */\n      dup3\n        /* \"#utility.yul\":18678:18679   */\n      dup3\n        /* \"#utility.yul\":18674:18683   */\n      add\n        /* \"#utility.yul\":18667:18683   */\n      swap1\n      pop\n        /* \"#utility.yul\":18384:18689   */\n      swap3\n      swap2\n      pop\n      pop\n      jump\t// out\n        /* \"#utility.yul\":18695:18876   */\n    tag_278:\n        /* \"#utility.yul\":18835:18868   */\n      0x63616e27742066696e6420707265736574207769746820746869732069642100\n        /* \"#utility.yul\":18831:18832   */\n      0x00\n        /* \"#utility.yul\":18823:18829   */\n      dup3\n        /* \"#utility.yul\":18819:18833   */\n      add\n        /* \"#utility.yul\":18812:18869   */\n      mstore\n        /* \"#utility.yul\":18695:18876   */\n      pop\n      jump\t// out\n        /* \"#utility.yul\":18882:19248   */\n    tag_279:\n        /* \"#utility.yul\":19024:19027   */\n      0x00\n        /* \"#utility.yul\":19045:19112   */\n      tag_461\n        /* \"#utility.yul\":19109:19111   */\n      0x1f\n        /* \"#utility.yul\":19104:19107   */\n      dup4\n        /* \"#utility.yul\":19045:19112   */\n      tag_268\n      jump\t// in\n    tag_461:\n        /* \"#utility.yul\":19038:19112   */\n      swap2\n      pop\n        /* \"#utility.yul\":19121:19214   */\n      tag_462\n        /* \"#utility.yul\":19210:19213   */\n      dup3\n        /* \"#utility.yul\":19121:19214   */\n      tag_278\n      jump\t// in\n    tag_462:\n        /* \"#utility.yul\":19239:19241   */\n      0x20\n        /* \"#utility.yul\":19234:19237   */\n      dup3\n        /* \"#utility.yul\":19230:19242   */\n      add\n        /* \"#utility.yul\":19223:19242   */\n      swap1\n      pop\n        /* \"#utility.yul\":18882:19248   */\n      swap2\n      swap1\n      pop\n      jump\t// out\n        /* \"#utility.yul\":19254:19673   */\n    tag_151:\n        /* \"#utility.yul\":19420:19424   */\n      0x00\n        /* \"#utility.yul\":19458:19460   */\n      0x20\n        /* \"#utility.yul\":19447:19456   */\n      dup3\n        /* \"#utility.yul\":19443:19461   */\n      add\n        /* \"#utility.yul\":19435:19461   */\n      swap1\n      pop\n        /* \"#utility.yul\":19507:19516   */\n      dup2\n        /* \"#utility.yul\":19501:19505   */\n      dup2\n        /* \"#utility.yul\":19497:19517   */\n      sub\n        /* \"#utility.yul\":19493:19494   */\n      0x00\n        /* \"#utility.yul\":19482:19491   */\n      dup4\n        /* \"#utility.yul\":19478:19495   */\n      add\n        /* \"#utility.yul\":19471:19518   */\n      mstore\n        /* \"#utility.yul\":19535:19666   */\n      tag_464\n        /* \"#utility.yul\":19661:19665   */\n      dup2\n        /* \"#utility.yul\":19535:19666   */\n      tag_279\n      jump\t// in\n    tag_464:\n        /* \"#utility.yul\":19527:19666   */\n      swap1\n      pop\n        /* \"#utility.yul\":19254:19673   */\n      swap2\n      swap1\n      pop\n      jump\t// out\n        /* \"#utility.yul\":19679:19906   */\n    tag_280:\n        /* \"#utility.yul\":19819:19853   */\n      0x77696e6e6572206e65656420746f20626520736f6d74696e6720626574776565\n        /* \"#utility.yul\":19815:19816   */\n      0x00\n        /* \"#utility.yul\":19807:19813   */\n      dup3\n        /* \"#utility.yul\":19803:19817   */\n      add\n        /* \"#utility.yul\":19796:19854   */\n      mstore\n        /* \"#utility.yul\":19888:19898   */\n      0x6e203020746f2033000000000000000000000000000000000000000000000000\n        /* \"#utility.yul\":19883:19885   */\n      0x20\n        /* \"#utility.yul\":19875:19881   */\n      dup3\n        /* \"#utility.yul\":19871:19886   */\n      add\n        /* \"#utility.yul\":19864:19899   */\n      mstore\n        /* \"#utility.yul\":19679:19906   */\n      pop\n      jump\t// out\n        /* \"#utility.yul\":19912:20278   */\n    tag_281:\n        /* \"#utility.yul\":20054:20057   */\n      0x00\n        /* \"#utility.yul\":20075:20142   */\n      tag_467\n        /* \"#utility.yul\":20139:20141   */\n      0x28\n        /* \"#utility.yul\":20134:20137   */\n      dup4\n        /* \"#utility.yul\":20075:20142   */\n      tag_268\n      jump\t// in\n    tag_467:\n        /* \"#utility.yul\":20068:20142   */\n      swap2\n      pop\n        /* \"#utility.yul\":20151:20244   */\n      tag_468\n        /* \"#utility.yul\":20240:20243   */\n      dup3\n        /* \"#utility.yul\":20151:20244   */\n      tag_280\n      jump\t// in\n    tag_468:\n        /* \"#utility.yul\":20269:20271   */\n      0x40\n        /* \"#utility.yul\":20264:20267   */\n      dup3\n        /* \"#utility.yul\":20260:20272   */\n      add\n        /* \"#utility.yul\":20253:20272   */\n      swap1\n      pop\n        /* \"#utility.yul\":19912:20278   */\n      swap2\n      swap1\n      pop\n      jump\t// out\n        /* \"#utility.yul\":20284:20703   */\n    tag_181:\n        /* \"#utility.yul\":20450:20454   */\n      0x00\n        /* \"#utility.yul\":20488:20490   */\n      0x20\n        /* \"#utility.yul\":20477:20486   */\n      dup3\n        /* \"#utility.yul\":20473:20491   */\n      add\n        /* \"#utility.yul\":20465:20491   */\n      swap1\n      pop\n        /* \"#utility.yul\":20537:20546   */\n      dup2\n        /* \"#utility.yul\":20531:20535   */\n      dup2\n        /* \"#utility.yul\":20527:20547   */\n      sub\n        /* \"#utility.yul\":20523:20524   */\n      0x00\n        /* \"#utility.yul\":20512:20521   */\n      dup4\n        /* \"#utility.yul\":20508:20525   */\n      add\n        /* \"#utility.yul\":20501:20548   */\n      mstore\n        /* \"#utility.yul\":20565:20696   */\n      tag_470\n        /* \"#utility.yul\":20691:20695   */\n      dup2\n        /* \"#utility.yul\":20565:20696   */\n      tag_281\n      jump\t// in\n    tag_470:\n        /* \"#utility.yul\":20557:20696   */\n      swap1\n      pop\n        /* \"#utility.yul\":20284:20703   */\n      swap2\n      swap1\n      pop\n      jump\t// out\n        /* \"#utility.yul\":20709:20934   */\n    tag_282:\n        /* \"#utility.yul\":20849:20883   */\n      0x4f776e61626c653a206e6577206f776e657220697320746865207a65726f2061\n        /* \"#utility.yul\":20845:20846   */\n      0x00\n        /* \"#utility.yul\":20837:20843   */\n      dup3\n        /* \"#utility.yul\":20833:20847   */\n      add\n        /* \"#utility.yul\":20826:20884   */\n      mstore\n        /* \"#utility.yul\":20918:20926   */\n      0x6464726573730000000000000000000000000000000000000000000000000000\n        /* \"#utility.yul\":20913:20915   */\n      0x20\n        /* \"#utility.yul\":20905:20911   */\n      dup3\n        /* \"#utility.yul\":20901:20916   */\n      add\n        /* \"#utility.yul\":20894:20927   */\n      mstore\n        /* \"#utility.yul\":20709:20934   */\n      pop\n      jump\t// out\n        /* \"#utility.yul\":20940:21306   */\n    tag_283:\n        /* \"#utility.yul\":21082:21085   */\n      0x00\n        /* \"#utility.yul\":21103:21170   */\n      tag_473\n        /* \"#utility.yul\":21167:21169   */\n      0x26\n        /* \"#utility.yul\":21162:21165   */\n      dup4\n        /* \"#utility.yul\":21103:21170   */\n      tag_268\n      jump\t// in\n    tag_473:\n        /* \"#utility.yul\":21096:21170   */\n      swap2\n      pop\n        /* \"#utility.yul\":21179:21272   */\n      tag_474\n        /* \"#utility.yul\":21268:21271   */\n      dup3\n        /* \"#utility.yul\":21179:21272   */\n      tag_282\n      jump\t// in\n    tag_474:\n        /* \"#utility.yul\":21297:21299   */\n      0x40\n        /* \"#utility.yul\":21292:21295   */\n      dup3\n        /* \"#utility.yul\":21288:21300   */\n      add\n        /* \"#utility.yul\":21281:21300   */\n      swap1\n      pop\n        /* \"#utility.yul\":20940:21306   */\n      swap2\n      swap1\n      pop\n      jump\t// out\n        /* \"#utility.yul\":21312:21731   */\n    tag_215:\n        /* \"#utility.yul\":21478:21482   */\n      0x00\n        /* \"#utility.yul\":21516:21518   */\n      0x20\n        /* \"#utility.yul\":21505:21514   */\n      dup3\n        /* \"#utility.yul\":21501:21519   */\n      add\n        /* \"#utility.yul\":21493:21519   */\n      swap1\n      pop\n        /* \"#utility.yul\":21565:21574   */\n      dup2\n        /* \"#utility.yul\":21559:21563   */\n      dup2\n        /* \"#utility.yul\":21555:21575   */\n      sub\n        /* \"#utility.yul\":21551:21552   */\n      0x00\n        /* \"#utility.yul\":21540:21549   */\n      dup4\n        /* \"#utility.yul\":21536:21553   */\n      add\n        /* \"#utility.yul\":21529:21576   */\n      mstore\n        /* \"#utility.yul\":21593:21724   */\n      tag_476\n        /* \"#utility.yul\":21719:21723   */\n      dup2\n        /* \"#utility.yul\":21593:21724   */\n      tag_283\n      jump\t// in\n    tag_476:\n        /* \"#utility.yul\":21585:21724   */\n      swap1\n      pop\n        /* \"#utility.yul\":21312:21731   */\n      swap2\n      swap1\n      pop\n      jump\t// out\n\n    auxdata: 0xa26469706673582212209089fe69a104ec0e6516423e8493b72484bc9e7173e12f9d3a613caf62f5aed964736f6c63430008090033\n}\n",
				"bytecode": {
					"linkReferences": {},
					"object": "6080604052600060025560006003553480156200001b57600080fd5b506200003c620000306200009260201b60201c565b6200009a60201b60201c565b6200004c6200009260201b60201c565b600160006101000a81548173ffffffffffffffffffffffffffffffffffffffff021916908373ffffffffffffffffffffffffffffffffffffffff1602179055506200015e565b600033905090565b60008060009054906101000a900473ffffffffffffffffffffffffffffffffffffffff169050816000806101000a81548173ffffffffffffffffffffffffffffffffffffffff021916908373ffffffffffffffffffffffffffffffffffffffff1602179055508173ffffffffffffffffffffffffffffffffffffffff168173ffffffffffffffffffffffffffffffffffffffff167f8be0079c531659141344cd1fd0a4f28419497f9722a3daafe3b4186f6b6457e060405160405180910390a35050565b612072806200016e6000396000f3fe608060405234801561001057600080fd5b50600436106100cf5760003560e01c8063845348901161008c578063aabc4b3c11610066578063aabc4b3c14610253578063caa9db8914610285578063d4e3706a146102a3578063f2fde38b146102d9576100cf565b806384534890146101d55780638da5cb5b14610205578063985d8e0014610223576100cf565b80634f03c754146100d4578063511b4db714610104578063551ee57014610137578063715018a6146101675780637ae996bd146101715780637cb1c0d4146101a1575b600080fd5b6100ee60048036038101906100e991906115d0565b6102f5565b6040516100fb919061162b565b60405180910390f35b61011e60048036038101906101199190611646565b610588565b60405161012e9493929190611682565b60405180910390f35b610151600480360381019061014c9190611725565b6105b8565b60405161015e919061162b565b60405180910390f35b61016f610680565b005b61018b60048036038101906101869190611752565b610708565b60405161019891906117a5565b60405180910390f35b6101bb60048036038101906101b69190611646565b6108b3565b6040516101cc9594939291906118e3565b60405180910390f35b6101ef60048036038101906101ea919061199c565b610935565b6040516101fc91906117a5565b60405180910390f35b61020d610cd9565b60405161021a9190611a67565b60405180910390f35b61023d600480360381019061023891906115d0565b610d02565b60405161024a919061162b565b60405180910390f35b61026d60048036038101906102689190611646565b610fd4565b60405161027c93929190611a82565b60405180910390f35b61028d61102b565b60405161029a9190611a67565b60405180910390f35b6102bd60048036038101906102b89190611646565b611051565b6040516102d09796959493929190611b77565b60405180910390f35b6102f360048036038101906102ee9190611725565b611285565b005b6000600160009054906101000a900473ffffffffffffffffffffffffffffffffffffffff1673ffffffffffffffffffffffffffffffffffffffff1661033861137d565b73ffffffffffffffffffffffffffffffffffffffff161480610393575061035d610cd9565b73ffffffffffffffffffffffffffffffffffffffff1661037b61137d565b73ffffffffffffffffffffffffffffffffffffffff16145b806103d057503273ffffffffffffffffffffffffffffffffffffffff166103b8610cd9565b73ffffffffffffffffffffffffffffffffffffffff16145b61040f576040517f08c379a000000000000000000000000000000000000000000000000000000000815260040161040690611c77565b60405180910390fd5b61041883611385565b610457576040517f08c379a000000000000000000000000000000000000000000000000000000000815260040161044e90611d09565b60405180910390fd5b60008260ff161015801561046f575060028260ff1611155b6104ae576040517f08c379a00000000000000000000000000000000000000000000000000000000081526004016104a590611d9b565b60405180910390fd5b600060056000858152602001908152602001600020905060008360ff1614156105035760008160060160006101000a81548160ff021916908360028111156104f9576104f8611824565b5b021790555061057d565b60018360ff1614156105415760018160060160006101000a81548160ff0219169083600281111561053757610536611824565b5b021790555061057c565b60028360ff16141561057b5760028160060160006101000a81548160ff0219169083600281111561057557610574611824565b5b02179055505b5b5b600191505092915050565b60046020528060005260406000206000915090508060000154908060010154908060020154908060030154905084565b60006105c261137d565b73ffffffffffffffffffffffffffffffffffffffff166105e0610cd9565b73ffffffffffffffffffffffffffffffffffffffff1614610636576040517f08c379a000000000000000000000000000000000000000000000000000000000815260040161062d90611e07565b60405180910390fd5b81600160006101000a81548173ffffffffffffffffffffffffffffffffffffffff021916908373ffffffffffffffffffffffffffffffffffffffff16021790555060019050919050565b61068861137d565b73ffffffffffffffffffffffffffffffffffffffff166106a6610cd9565b73ffffffffffffffffffffffffffffffffffffffff16146106fc576040517f08c379a00000000000000000000000000000000000000000000000000000000081526004016106f390611e07565b60405180910390fd5b61070660006113ba565b565b6000600160009054906101000a900473ffffffffffffffffffffffffffffffffffffffff1673ffffffffffffffffffffffffffffffffffffffff1661074b61137d565b73ffffffffffffffffffffffffffffffffffffffff1614806107a65750610770610cd9565b73ffffffffffffffffffffffffffffffffffffffff1661078e61137d565b73ffffffffffffffffffffffffffffffffffffffff16145b806107e357503273ffffffffffffffffffffffffffffffffffffffff166107cb610cd9565b73ffffffffffffffffffffffffffffffffffffffff16145b610822576040517f08c379a000000000000000000000000000000000000000000000000000000000815260040161081990611c77565b60405180910390fd5b60006003549050600060405180608001604052808781526020018681526020014281526020018581525090508060046000848152602001908152602001600020600082015181600001556020820151816001015560408201518160020155606082015181600301559050506001600360008282546108a09190611e56565b9250508190555081925050509392505050565b600560205280600052604060002060009150905080600001604051806080016040529081600082015481526020016001820154815260200160028201548152602001600382015481525050908060060160009054906101000a900460ff16908060060160019054906101000a900460ff16908060070154908060080154905085565b6000600160009054906101000a900473ffffffffffffffffffffffffffffffffffffffff1673ffffffffffffffffffffffffffffffffffffffff1661097861137d565b73ffffffffffffffffffffffffffffffffffffffff1614806109d3575061099d610cd9565b73ffffffffffffffffffffffffffffffffffffffff166109bb61137d565b73ffffffffffffffffffffffffffffffffffffffff16145b80610a1057503273ffffffffffffffffffffffffffffffffffffffff166109f8610cd9565b73ffffffffffffffffffffffffffffffffffffffff16145b610a4f576040517f08c379a0000000000000000000000000000000000000000000000000000000008152600401610a4690611c77565b60405180910390fd5b610a588861147e565b610a97576040517f08c379a0000000000000000000000000000000000000000000000000000000008152600401610a8e90611ef8565b60405180910390fd5b6040518060e00160405280600460008b81526020019081526020016000206040518060800160405290816000820154815260200160018201548152602001600282015481526020016003820154815250508152602001888880806020026020016040519081016040528093929190818152602001838360200280828437600081840152601f19601f820116905080830192505050505050508152602001868680806020026020016040519081016040528093929190818152602001838360200280828437600081840152601f19601f82011690508083019250505050505050815260200160006002811115610b8f57610b8e611824565b5b8152602001600380811115610ba757610ba6611824565b5b8152602001848152602001838152506005600060025481526020019081526020016000206000820151816000016000820151816000015560208201518160010155604082015181600201556060820151816003015550506020820151816004019080519060200190610c1a9291906114b0565b506040820151816005019080519060200190610c379291906114b0565b5060608201518160060160006101000a81548160ff02191690836002811115610c6357610c62611824565b5b021790555060808201518160060160016101000a81548160ff02191690836003811115610c9357610c92611824565b5b021790555060a0820151816007015560c082015181600801559050506002549050600160026000828254610cc79190611e56565b92505081905550979650505050505050565b60008060009054906101000a900473ffffffffffffffffffffffffffffffffffffffff16905090565b6000600160009054906101000a900473ffffffffffffffffffffffffffffffffffffffff1673ffffffffffffffffffffffffffffffffffffffff16610d4561137d565b73ffffffffffffffffffffffffffffffffffffffff161480610da05750610d6a610cd9565b73ffffffffffffffffffffffffffffffffffffffff16610d8861137d565b73ffffffffffffffffffffffffffffffffffffffff16145b80610ddd57503273ffffffffffffffffffffffffffffffffffffffff16610dc5610cd9565b73ffffffffffffffffffffffffffffffffffffffff16145b610e1c576040517f08c379a0000000000000000000000000000000000000000000000000000000008152600401610e1390611c77565b60405180910390fd5b610e2583611385565b610e64576040517f08c379a0000000000000000000000000000000000000000000000000000000008152600401610e5b90611d09565b60405180910390fd5b60008260ff1610158015610e7c575060038260ff1611155b610ebb576040517f08c379a0000000000000000000000000000000000000000000000000000000008152600401610eb290611f8a565b60405180910390fd5b600060056000858152602001908152602001600020905060008360ff161415610f105760008160060160016101000a81548160ff02191690836003811115610f0657610f05611824565b5b0217905550610fc9565b60018360ff161415610f4e5760018160060160016101000a81548160ff02191690836003811115610f4457610f43611824565b5b0217905550610fc8565b60028360ff161415610f8c5760028160060160016101000a81548160ff02191690836003811115610f8257610f81611824565b5b0217905550610fc7565b60038360ff161415610fc65760038160060160016101000a81548160ff02191690836003811115610fc057610fbf611824565b5b02179055505b5b5b5b600191505092915050565b60008060006004600085815260200190815260200160002060000154600460008681526020019081526020016000206001015460046000878152602001908152602001600020600201549250925092509193909250565b600160009054906101000a900473ffffffffffffffffffffffffffffffffffffffff1681565b600080606080600080600080600560008a815260200190815260200160002060000160405180608001604052908160008201548152602001600182015481526020016002820154815260200160038201548152505090508060000151975080602001519650600560008a815260200190815260200160002060040180548060200260200160405190810160405280929190818152602001828054801561114c57602002820191906000526020600020905b8160009054906101000a900473ffffffffffffffffffffffffffffffffffffffff1673ffffffffffffffffffffffffffffffffffffffff1681526020019060010190808311611102575b50505050509550600560008a81526020019081526020016000206005018054806020026020016040519081016040528092919081815260200182805480156111e957602002820191906000526020600020905b8160009054906101000a900473ffffffffffffffffffffffffffffffffffffffff1673ffffffffffffffffffffffffffffffffffffffff168152602001906001019080831161119f575b50505050509450600560008a815260200190815260200160002060060160009054906101000a900460ff16600281111561122657611225611824565b5b9350600560008a815260200190815260200160002060060160019054906101000a900460ff16600381111561125e5761125d611824565b5b9250600560008a815260200190815260200160002060070154915050919395979092949650565b61128d61137d565b73ffffffffffffffffffffffffffffffffffffffff166112ab610cd9565b73ffffffffffffffffffffffffffffffffffffffff1614611301576040517f08c379a00000000000000000000000000000000000000000000000000000000081526004016112f890611e07565b60405180910390fd5b600073ffffffffffffffffffffffffffffffffffffffff168173ffffffffffffffffffffffffffffffffffffffff161415611371576040517f08c379a00000000000000000000000000000000000000000000000000000000081526004016113689061201c565b60405180910390fd5b61137a816113ba565b50565b600033905090565b6000806005600084815260200190815260200160002060040180549050146113b057600190506113b5565b600090505b919050565b60008060009054906101000a900473ffffffffffffffffffffffffffffffffffffffff169050816000806101000a81548173ffffffffffffffffffffffffffffffffffffffff021916908373ffffffffffffffffffffffffffffffffffffffff1602179055508173ffffffffffffffffffffffffffffffffffffffff168173ffffffffffffffffffffffffffffffffffffffff167f8be0079c531659141344cd1fd0a4f28419497f9722a3daafe3b4186f6b6457e060405160405180910390a35050565b6000806004600084815260200190815260200160002060020154146114a657600190506114ab565b600090505b919050565b828054828255906000526020600020908101928215611529579160200282015b828111156115285782518260006101000a81548173ffffffffffffffffffffffffffffffffffffffff021916908373ffffffffffffffffffffffffffffffffffffffff160217905550916020019190600101906114d0565b5b509050611536919061153a565b5090565b5b8082111561155357600081600090555060010161153b565b5090565b600080fd5b600080fd5b6000819050919050565b61157481611561565b811461157f57600080fd5b50565b6000813590506115918161156b565b92915050565b600060ff82169050919050565b6115ad81611597565b81146115b857600080fd5b50565b6000813590506115ca816115a4565b92915050565b600080604083850312156115e7576115e6611557565b5b60006115f585828601611582565b9250506020611606858286016115bb565b9150509250929050565b60008115159050919050565b61162581611610565b82525050565b6000602082019050611640600083018461161c565b92915050565b60006020828403121561165c5761165b611557565b5b600061166a84828501611582565b91505092915050565b61167c81611561565b82525050565b60006080820190506116976000830187611673565b6116a46020830186611673565b6116b16040830185611673565b6116be6060830184611673565b95945050505050565b600073ffffffffffffffffffffffffffffffffffffffff82169050919050565b60006116f2826116c7565b9050919050565b611702816116e7565b811461170d57600080fd5b50565b60008135905061171f816116f9565b92915050565b60006020828403121561173b5761173a611557565b5b600061174984828501611710565b91505092915050565b60008060006060848603121561176b5761176a611557565b5b600061177986828701611582565b935050602061178a86828701611582565b925050604061179b86828701611582565b9150509250925092565b60006020820190506117ba6000830184611673565b92915050565b6117c981611561565b82525050565b6080820160008201516117e560008501826117c0565b5060208201516117f860208501826117c0565b50604082015161180b60408501826117c0565b50606082015161181e60608501826117c0565b50505050565b7f4e487b7100000000000000000000000000000000000000000000000000000000600052602160045260246000fd5b6003811061186457611863611824565b5b50565b600081905061187582611853565b919050565b600061188582611867565b9050919050565b6118958161187a565b82525050565b600481106118ac576118ab611824565b5b50565b60008190506118bd8261189b565b919050565b60006118cd826118af565b9050919050565b6118dd816118c2565b82525050565b6000610100820190506118f960008301886117cf565b611906608083018761188c565b61191360a08301866118d4565b61192060c0830185611673565b61192d60e0830184611673565b9695505050505050565b600080fd5b600080fd5b600080fd5b60008083601f84011261195c5761195b611937565b5b8235905067ffffffffffffffff8111156119795761197861193c565b5b60208301915083602082028301111561199557611994611941565b5b9250929050565b600080600080600080600060a0888a0312156119bb576119ba611557565b5b60006119c98a828b01611582565b975050602088013567ffffffffffffffff8111156119ea576119e961155c565b5b6119f68a828b01611946565b9650965050604088013567ffffffffffffffff811115611a1957611a1861155c565b5b611a258a828b01611946565b94509450506060611a388a828b01611582565b9250506080611a498a828b01611582565b91505092959891949750929550565b611a61816116e7565b82525050565b6000602082019050611a7c6000830184611a58565b92915050565b6000606082019050611a976000830186611673565b611aa46020830185611673565b611ab16040830184611673565b949350505050565b600081519050919050565b600082825260208201905092915050565b6000819050602082019050919050565b611aee816116e7565b82525050565b6000611b008383611ae5565b60208301905092915050565b6000602082019050919050565b6000611b2482611ab9565b611b2e8185611ac4565b9350611b3983611ad5565b8060005b83811015611b6a578151611b518882611af4565b9750611b5c83611b0c565b925050600181019050611b3d565b5085935050505092915050565b600060e082019050611b8c600083018a611673565b611b996020830189611673565b8181036040830152611bab8188611b19565b90508181036060830152611bbf8187611b19565b9050611bce6080830186611673565b611bdb60a0830185611673565b611be860c0830184611673565b98975050505050505050565b600082825260208201905092915050565b7f546f2063616c6c2074686973206d6574686f6420796f75206861766520746f2060008201527f6265206f776e6572206f722073756241646d696e210000000000000000000000602082015250565b6000611c61603583611bf4565b9150611c6c82611c05565b604082019050919050565b60006020820190508181036000830152611c9081611c54565b9050919050565b7f63616e27742066696e6420636f6d706574696f6e20776974682074686973206360008201527f6f6d706574696f6e496421000000000000000000000000000000000000000000602082015250565b6000611cf3602b83611bf4565b9150611cfe82611c97565b604082019050919050565b60006020820190508181036000830152611d2281611ce6565b9050919050565b7f737461747573206e65656420746f20626520736f6d74696e672062657477656560008201527f6e203020746f2032000000000000000000000000000000000000000000000000602082015250565b6000611d85602883611bf4565b9150611d9082611d29565b604082019050919050565b60006020820190508181036000830152611db481611d78565b9050919050565b7f4f776e61626c653a2063616c6c6572206973206e6f7420746865206f776e6572600082015250565b6000611df1602083611bf4565b9150611dfc82611dbb565b602082019050919050565b60006020820190508181036000830152611e2081611de4565b9050919050565b7f4e487b7100000000000000000000000000000000000000000000000000000000600052601160045260246000fd5b6000611e6182611561565b9150611e6c83611561565b9250827fffffffffffffffffffffffffffffffffffffffffffffffffffffffffffffffff03821115611ea157611ea0611e27565b5b828201905092915050565b7f63616e27742066696e6420707265736574207769746820746869732069642100600082015250565b6000611ee2601f83611bf4565b9150611eed82611eac565b602082019050919050565b60006020820190508181036000830152611f1181611ed5565b9050919050565b7f77696e6e6572206e65656420746f20626520736f6d74696e672062657477656560008201527f6e203020746f2033000000000000000000000000000000000000000000000000602082015250565b6000611f74602883611bf4565b9150611f7f82611f18565b604082019050919050565b60006020820190508181036000830152611fa381611f67565b9050919050565b7f4f776e61626c653a206e6577206f776e657220697320746865207a65726f206160008201527f6464726573730000000000000000000000000000000000000000000000000000602082015250565b6000612006602683611bf4565b915061201182611faa565b604082019050919050565b6000602082019050818103600083015261203581611ff9565b905091905056fea26469706673582212209089fe69a104ec0e6516423e8493b72484bc9e7173e12f9d3a613caf62f5aed964736f6c63430008090033",
					"opcodes": "PUSH1 0x80 PUSH1 0x40 MSTORE PUSH1 0x0 PUSH1 0x2 SSTORE PUSH1 0x0 PUSH1 0x3 SSTORE CALLVALUE DUP1 ISZERO PUSH3 0x1B JUMPI PUSH1 0x0 DUP1 REVERT JUMPDEST POP PUSH3 0x3C PUSH3 0x30 PUSH3 0x92 PUSH1 0x20 SHL PUSH1 0x20 SHR JUMP JUMPDEST PUSH3 0x9A PUSH1 0x20 SHL PUSH1 0x20 SHR JUMP JUMPDEST PUSH3 0x4C PUSH3 0x92 PUSH1 0x20 SHL PUSH1 0x20 SHR JUMP JUMPDEST PUSH1 0x1 PUSH1 0x0 PUSH2 0x100 EXP DUP2 SLOAD DUP2 PUSH20 0xFFFFFFFFFFFFFFFFFFFFFFFFFFFFFFFFFFFFFFFF MUL NOT AND SWAP1 DUP4 PUSH20 0xFFFFFFFFFFFFFFFFFFFFFFFFFFFFFFFFFFFFFFFF AND MUL OR SWAP1 SSTORE POP PUSH3 0x15E JUMP JUMPDEST PUSH1 0x0 CALLER SWAP1 POP SWAP1 JUMP JUMPDEST PUSH1 0x0 DUP1 PUSH1 0x0 SWAP1 SLOAD SWAP1 PUSH2 0x100 EXP SWAP1 DIV PUSH20 0xFFFFFFFFFFFFFFFFFFFFFFFFFFFFFFFFFFFFFFFF AND SWAP1 POP DUP2 PUSH1 0x0 DUP1 PUSH2 0x100 EXP DUP2 SLOAD DUP2 PUSH20 0xFFFFFFFFFFFFFFFFFFFFFFFFFFFFFFFFFFFFFFFF MUL NOT AND SWAP1 DUP4 PUSH20 0xFFFFFFFFFFFFFFFFFFFFFFFFFFFFFFFFFFFFFFFF AND MUL OR SWAP1 SSTORE POP DUP2 PUSH20 0xFFFFFFFFFFFFFFFFFFFFFFFFFFFFFFFFFFFFFFFF AND DUP2 PUSH20 0xFFFFFFFFFFFFFFFFFFFFFFFFFFFFFFFFFFFFFFFF AND PUSH32 0x8BE0079C531659141344CD1FD0A4F28419497F9722A3DAAFE3B4186F6B6457E0 PUSH1 0x40 MLOAD PUSH1 0x40 MLOAD DUP1 SWAP2 SUB SWAP1 LOG3 POP POP JUMP JUMPDEST PUSH2 0x2072 DUP1 PUSH3 0x16E PUSH1 0x0 CODECOPY PUSH1 0x0 RETURN INVALID PUSH1 0x80 PUSH1 0x40 MSTORE CALLVALUE DUP1 ISZERO PUSH2 0x10 JUMPI PUSH1 0x0 DUP1 REVERT JUMPDEST POP PUSH1 0x4 CALLDATASIZE LT PUSH2 0xCF JUMPI PUSH1 0x0 CALLDATALOAD PUSH1 0xE0 SHR DUP1 PUSH4 0x84534890 GT PUSH2 0x8C JUMPI DUP1 PUSH4 0xAABC4B3C GT PUSH2 0x66 JUMPI DUP1 PUSH4 0xAABC4B3C EQ PUSH2 0x253 JUMPI DUP1 PUSH4 0xCAA9DB89 EQ PUSH2 0x285 JUMPI DUP1 PUSH4 0xD4E3706A EQ PUSH2 0x2A3 JUMPI DUP1 PUSH4 0xF2FDE38B EQ PUSH2 0x2D9 JUMPI PUSH2 0xCF JUMP JUMPDEST DUP1 PUSH4 0x84534890 EQ PUSH2 0x1D5 JUMPI DUP1 PUSH4 0x8DA5CB5B EQ PUSH2 0x205 JUMPI DUP1 PUSH4 0x985D8E00 EQ PUSH2 0x223 JUMPI PUSH2 0xCF JUMP JUMPDEST DUP1 PUSH4 0x4F03C754 EQ PUSH2 0xD4 JUMPI DUP1 PUSH4 0x511B4DB7 EQ PUSH2 0x104 JUMPI DUP1 PUSH4 0x551EE570 EQ PUSH2 0x137 JUMPI DUP1 PUSH4 0x715018A6 EQ PUSH2 0x167 JUMPI DUP1 PUSH4 0x7AE996BD EQ PUSH2 0x171 JUMPI DUP1 PUSH4 0x7CB1C0D4 EQ PUSH2 0x1A1 JUMPI JUMPDEST PUSH1 0x0 DUP1 REVERT JUMPDEST PUSH2 0xEE PUSH1 0x4 DUP1 CALLDATASIZE SUB DUP2 ADD SWAP1 PUSH2 0xE9 SWAP2 SWAP1 PUSH2 0x15D0 JUMP JUMPDEST PUSH2 0x2F5 JUMP JUMPDEST PUSH1 0x40 MLOAD PUSH2 0xFB SWAP2 SWAP1 PUSH2 0x162B JUMP JUMPDEST PUSH1 0x40 MLOAD DUP1 SWAP2 SUB SWAP1 RETURN JUMPDEST PUSH2 0x11E PUSH1 0x4 DUP1 CALLDATASIZE SUB DUP2 ADD SWAP1 PUSH2 0x119 SWAP2 SWAP1 PUSH2 0x1646 JUMP JUMPDEST PUSH2 0x588 JUMP JUMPDEST PUSH1 0x40 MLOAD PUSH2 0x12E SWAP5 SWAP4 SWAP3 SWAP2 SWAP1 PUSH2 0x1682 JUMP JUMPDEST PUSH1 0x40 MLOAD DUP1 SWAP2 SUB SWAP1 RETURN JUMPDEST PUSH2 0x151 PUSH1 0x4 DUP1 CALLDATASIZE SUB DUP2 ADD SWAP1 PUSH2 0x14C SWAP2 SWAP1 PUSH2 0x1725 JUMP JUMPDEST PUSH2 0x5B8 JUMP JUMPDEST PUSH1 0x40 MLOAD PUSH2 0x15E SWAP2 SWAP1 PUSH2 0x162B JUMP JUMPDEST PUSH1 0x40 MLOAD DUP1 SWAP2 SUB SWAP1 RETURN JUMPDEST PUSH2 0x16F PUSH2 0x680 JUMP JUMPDEST STOP JUMPDEST PUSH2 0x18B PUSH1 0x4 DUP1 CALLDATASIZE SUB DUP2 ADD SWAP1 PUSH2 0x186 SWAP2 SWAP1 PUSH2 0x1752 JUMP JUMPDEST PUSH2 0x708 JUMP JUMPDEST PUSH1 0x40 MLOAD PUSH2 0x198 SWAP2 SWAP1 PUSH2 0x17A5 JUMP JUMPDEST PUSH1 0x40 MLOAD DUP1 SWAP2 SUB SWAP1 RETURN JUMPDEST PUSH2 0x1BB PUSH1 0x4 DUP1 CALLDATASIZE SUB DUP2 ADD SWAP1 PUSH2 0x1B6 SWAP2 SWAP1 PUSH2 0x1646 JUMP JUMPDEST PUSH2 0x8B3 JUMP JUMPDEST PUSH1 0x40 MLOAD PUSH2 0x1CC SWAP6 SWAP5 SWAP4 SWAP3 SWAP2 SWAP1 PUSH2 0x18E3 JUMP JUMPDEST PUSH1 0x40 MLOAD DUP1 SWAP2 SUB SWAP1 RETURN JUMPDEST PUSH2 0x1EF PUSH1 0x4 DUP1 CALLDATASIZE SUB DUP2 ADD SWAP1 PUSH2 0x1EA SWAP2 SWAP1 PUSH2 0x199C JUMP JUMPDEST PUSH2 0x935 JUMP JUMPDEST PUSH1 0x40 MLOAD PUSH2 0x1FC SWAP2 SWAP1 PUSH2 0x17A5 JUMP JUMPDEST PUSH1 0x40 MLOAD DUP1 SWAP2 SUB SWAP1 RETURN JUMPDEST PUSH2 0x20D PUSH2 0xCD9 JUMP JUMPDEST PUSH1 0x40 MLOAD PUSH2 0x21A SWAP2 SWAP1 PUSH2 0x1A67 JUMP JUMPDEST PUSH1 0x40 MLOAD DUP1 SWAP2 SUB SWAP1 RETURN JUMPDEST PUSH2 0x23D PUSH1 0x4 DUP1 CALLDATASIZE SUB DUP2 ADD SWAP1 PUSH2 0x238 SWAP2 SWAP1 PUSH2 0x15D0 JUMP JUMPDEST PUSH2 0xD02 JUMP JUMPDEST PUSH1 0x40 MLOAD PUSH2 0x24A SWAP2 SWAP1 PUSH2 0x162B JUMP JUMPDEST PUSH1 0x40 MLOAD DUP1 SWAP2 SUB SWAP1 RETURN JUMPDEST PUSH2 0x26D PUSH1 0x4 DUP1 CALLDATASIZE SUB DUP2 ADD SWAP1 PUSH2 0x268 SWAP2 SWAP1 PUSH2 0x1646 JUMP JUMPDEST PUSH2 0xFD4 JUMP JUMPDEST PUSH1 0x40 MLOAD PUSH2 0x27C SWAP4 SWAP3 SWAP2 SWAP1 PUSH2 0x1A82 JUMP JUMPDEST PUSH1 0x40 MLOAD DUP1 SWAP2 SUB SWAP1 RETURN JUMPDEST PUSH2 0x28D PUSH2 0x102B JUMP JUMPDEST PUSH1 0x40 MLOAD PUSH2 0x29A SWAP2 SWAP1 PUSH2 0x1A67 JUMP JUMPDEST PUSH1 0x40 MLOAD DUP1 SWAP2 SUB SWAP1 RETURN JUMPDEST PUSH2 0x2BD PUSH1 0x4 DUP1 CALLDATASIZE SUB DUP2 ADD SWAP1 PUSH2 0x2B8 SWAP2 SWAP1 PUSH2 0x1646 JUMP JUMPDEST PUSH2 0x1051 JUMP JUMPDEST PUSH1 0x40 MLOAD PUSH2 0x2D0 SWAP8 SWAP7 SWAP6 SWAP5 SWAP4 SWAP3 SWAP2 SWAP1 PUSH2 0x1B77 JUMP JUMPDEST PUSH1 0x40 MLOAD DUP1 SWAP2 SUB SWAP1 RETURN JUMPDEST PUSH2 0x2F3 PUSH1 0x4 DUP1 CALLDATASIZE SUB DUP2 ADD SWAP1 PUSH2 0x2EE SWAP2 SWAP1 PUSH2 0x1725 JUMP JUMPDEST PUSH2 0x1285 JUMP JUMPDEST STOP JUMPDEST PUSH1 0x0 PUSH1 0x1 PUSH1 0x0 SWAP1 SLOAD SWAP1 PUSH2 0x100 EXP SWAP1 DIV PUSH20 0xFFFFFFFFFFFFFFFFFFFFFFFFFFFFFFFFFFFFFFFF AND PUSH20 0xFFFFFFFFFFFFFFFFFFFFFFFFFFFFFFFFFFFFFFFF AND PUSH2 0x338 PUSH2 0x137D JUMP JUMPDEST PUSH20 0xFFFFFFFFFFFFFFFFFFFFFFFFFFFFFFFFFFFFFFFF AND EQ DUP1 PUSH2 0x393 JUMPI POP PUSH2 0x35D PUSH2 0xCD9 JUMP JUMPDEST PUSH20 0xFFFFFFFFFFFFFFFFFFFFFFFFFFFFFFFFFFFFFFFF AND PUSH2 0x37B PUSH2 0x137D JUMP JUMPDEST PUSH20 0xFFFFFFFFFFFFFFFFFFFFFFFFFFFFFFFFFFFFFFFF AND EQ JUMPDEST DUP1 PUSH2 0x3D0 JUMPI POP ORIGIN PUSH20 0xFFFFFFFFFFFFFFFFFFFFFFFFFFFFFFFFFFFFFFFF AND PUSH2 0x3B8 PUSH2 0xCD9 JUMP JUMPDEST PUSH20 0xFFFFFFFFFFFFFFFFFFFFFFFFFFFFFFFFFFFFFFFF AND EQ JUMPDEST PUSH2 0x40F JUMPI PUSH1 0x40 MLOAD PUSH32 0x8C379A000000000000000000000000000000000000000000000000000000000 DUP2 MSTORE PUSH1 0x4 ADD PUSH2 0x406 SWAP1 PUSH2 0x1C77 JUMP JUMPDEST PUSH1 0x40 MLOAD DUP1 SWAP2 SUB SWAP1 REVERT JUMPDEST PUSH2 0x418 DUP4 PUSH2 0x1385 JUMP JUMPDEST PUSH2 0x457 JUMPI PUSH1 0x40 MLOAD PUSH32 0x8C379A000000000000000000000000000000000000000000000000000000000 DUP2 MSTORE PUSH1 0x4 ADD PUSH2 0x44E SWAP1 PUSH2 0x1D09 JUMP JUMPDEST PUSH1 0x40 MLOAD DUP1 SWAP2 SUB SWAP1 REVERT JUMPDEST PUSH1 0x0 DUP3 PUSH1 0xFF AND LT ISZERO DUP1 ISZERO PUSH2 0x46F JUMPI POP PUSH1 0x2 DUP3 PUSH1 0xFF AND GT ISZERO JUMPDEST PUSH2 0x4AE JUMPI PUSH1 0x40 MLOAD PUSH32 0x8C379A000000000000000000000000000000000000000000000000000000000 DUP2 MSTORE PUSH1 0x4 ADD PUSH2 0x4A5 SWAP1 PUSH2 0x1D9B JUMP JUMPDEST PUSH1 0x40 MLOAD DUP1 SWAP2 SUB SWAP1 REVERT JUMPDEST PUSH1 0x0 PUSH1 0x5 PUSH1 0x0 DUP6 DUP2 MSTORE PUSH1 0x20 ADD SWAP1 DUP2 MSTORE PUSH1 0x20 ADD PUSH1 0x0 KECCAK256 SWAP1 POP PUSH1 0x0 DUP4 PUSH1 0xFF AND EQ ISZERO PUSH2 0x503 JUMPI PUSH1 0x0 DUP2 PUSH1 0x6 ADD PUSH1 0x0 PUSH2 0x100 EXP DUP2 SLOAD DUP2 PUSH1 0xFF MUL NOT AND SWAP1 DUP4 PUSH1 0x2 DUP2 GT ISZERO PUSH2 0x4F9 JUMPI PUSH2 0x4F8 PUSH2 0x1824 JUMP JUMPDEST JUMPDEST MUL OR SWAP1 SSTORE POP PUSH2 0x57D JUMP JUMPDEST PUSH1 0x1 DUP4 PUSH1 0xFF AND EQ ISZERO PUSH2 0x541 JUMPI PUSH1 0x1 DUP2 PUSH1 0x6 ADD PUSH1 0x0 PUSH2 0x100 EXP DUP2 SLOAD DUP2 PUSH1 0xFF MUL NOT AND SWAP1 DUP4 PUSH1 0x2 DUP2 GT ISZERO PUSH2 0x537 JUMPI PUSH2 0x536 PUSH2 0x1824 JUMP JUMPDEST JUMPDEST MUL OR SWAP1 SSTORE POP PUSH2 0x57C JUMP JUMPDEST PUSH1 0x2 DUP4 PUSH1 0xFF AND EQ ISZERO PUSH2 0x57B JUMPI PUSH1 0x2 DUP2 PUSH1 0x6 ADD PUSH1 0x0 PUSH2 0x100 EXP DUP2 SLOAD DUP2 PUSH1 0xFF MUL NOT AND SWAP1 DUP4 PUSH1 0x2 DUP2 GT ISZERO PUSH2 0x575 JUMPI PUSH2 0x574 PUSH2 0x1824 JUMP JUMPDEST JUMPDEST MUL OR SWAP1 SSTORE POP JUMPDEST JUMPDEST JUMPDEST PUSH1 0x1 SWAP2 POP POP SWAP3 SWAP2 POP POP JUMP JUMPDEST PUSH1 0x4 PUSH1 0x20 MSTORE DUP1 PUSH1 0x0 MSTORE PUSH1 0x40 PUSH1 0x0 KECCAK256 PUSH1 0x0 SWAP2 POP SWAP1 POP DUP1 PUSH1 0x0 ADD SLOAD SWAP1 DUP1 PUSH1 0x1 ADD SLOAD SWAP1 DUP1 PUSH1 0x2 ADD SLOAD SWAP1 DUP1 PUSH1 0x3 ADD SLOAD SWAP1 POP DUP5 JUMP JUMPDEST PUSH1 0x0 PUSH2 0x5C2 PUSH2 0x137D JUMP JUMPDEST PUSH20 0xFFFFFFFFFFFFFFFFFFFFFFFFFFFFFFFFFFFFFFFF AND PUSH2 0x5E0 PUSH2 0xCD9 JUMP JUMPDEST PUSH20 0xFFFFFFFFFFFFFFFFFFFFFFFFFFFFFFFFFFFFFFFF AND EQ PUSH2 0x636 JUMPI PUSH1 0x40 MLOAD PUSH32 0x8C379A000000000000000000000000000000000000000000000000000000000 DUP2 MSTORE PUSH1 0x4 ADD PUSH2 0x62D SWAP1 PUSH2 0x1E07 JUMP JUMPDEST PUSH1 0x40 MLOAD DUP1 SWAP2 SUB SWAP1 REVERT JUMPDEST DUP2 PUSH1 0x1 PUSH1 0x0 PUSH2 0x100 EXP DUP2 SLOAD DUP2 PUSH20 0xFFFFFFFFFFFFFFFFFFFFFFFFFFFFFFFFFFFFFFFF MUL NOT AND SWAP1 DUP4 PUSH20 0xFFFFFFFFFFFFFFFFFFFFFFFFFFFFFFFFFFFFFFFF AND MUL OR SWAP1 SSTORE POP PUSH1 0x1 SWAP1 POP SWAP2 SWAP1 POP JUMP JUMPDEST PUSH2 0x688 PUSH2 0x137D JUMP JUMPDEST PUSH20 0xFFFFFFFFFFFFFFFFFFFFFFFFFFFFFFFFFFFFFFFF AND PUSH2 0x6A6 PUSH2 0xCD9 JUMP JUMPDEST PUSH20 0xFFFFFFFFFFFFFFFFFFFFFFFFFFFFFFFFFFFFFFFF AND EQ PUSH2 0x6FC JUMPI PUSH1 0x40 MLOAD PUSH32 0x8C379A000000000000000000000000000000000000000000000000000000000 DUP2 MSTORE PUSH1 0x4 ADD PUSH2 0x6F3 SWAP1 PUSH2 0x1E07 JUMP JUMPDEST PUSH1 0x40 MLOAD DUP1 SWAP2 SUB SWAP1 REVERT JUMPDEST PUSH2 0x706 PUSH1 0x0 PUSH2 0x13BA JUMP JUMPDEST JUMP JUMPDEST PUSH1 0x0 PUSH1 0x1 PUSH1 0x0 SWAP1 SLOAD SWAP1 PUSH2 0x100 EXP SWAP1 DIV PUSH20 0xFFFFFFFFFFFFFFFFFFFFFFFFFFFFFFFFFFFFFFFF AND PUSH20 0xFFFFFFFFFFFFFFFFFFFFFFFFFFFFFFFFFFFFFFFF AND PUSH2 0x74B PUSH2 0x137D JUMP JUMPDEST PUSH20 0xFFFFFFFFFFFFFFFFFFFFFFFFFFFFFFFFFFFFFFFF AND EQ DUP1 PUSH2 0x7A6 JUMPI POP PUSH2 0x770 PUSH2 0xCD9 JUMP JUMPDEST PUSH20 0xFFFFFFFFFFFFFFFFFFFFFFFFFFFFFFFFFFFFFFFF AND PUSH2 0x78E PUSH2 0x137D JUMP JUMPDEST PUSH20 0xFFFFFFFFFFFFFFFFFFFFFFFFFFFFFFFFFFFFFFFF AND EQ JUMPDEST DUP1 PUSH2 0x7E3 JUMPI POP ORIGIN PUSH20 0xFFFFFFFFFFFFFFFFFFFFFFFFFFFFFFFFFFFFFFFF AND PUSH2 0x7CB PUSH2 0xCD9 JUMP JUMPDEST PUSH20 0xFFFFFFFFFFFFFFFFFFFFFFFFFFFFFFFFFFFFFFFF AND EQ JUMPDEST PUSH2 0x822 JUMPI PUSH1 0x40 MLOAD PUSH32 0x8C379A000000000000000000000000000000000000000000000000000000000 DUP2 MSTORE PUSH1 0x4 ADD PUSH2 0x819 SWAP1 PUSH2 0x1C77 JUMP JUMPDEST PUSH1 0x40 MLOAD DUP1 SWAP2 SUB SWAP1 REVERT JUMPDEST PUSH1 0x0 PUSH1 0x3 SLOAD SWAP1 POP PUSH1 0x0 PUSH1 0x40 MLOAD DUP1 PUSH1 0x80 ADD PUSH1 0x40 MSTORE DUP1 DUP8 DUP2 MSTORE PUSH1 0x20 ADD DUP7 DUP2 MSTORE PUSH1 0x20 ADD TIMESTAMP DUP2 MSTORE PUSH1 0x20 ADD DUP6 DUP2 MSTORE POP SWAP1 POP DUP1 PUSH1 0x4 PUSH1 0x0 DUP5 DUP2 MSTORE PUSH1 0x20 ADD SWAP1 DUP2 MSTORE PUSH1 0x20 ADD PUSH1 0x0 KECCAK256 PUSH1 0x0 DUP3 ADD MLOAD DUP2 PUSH1 0x0 ADD SSTORE PUSH1 0x20 DUP3 ADD MLOAD DUP2 PUSH1 0x1 ADD SSTORE PUSH1 0x40 DUP3 ADD MLOAD DUP2 PUSH1 0x2 ADD SSTORE PUSH1 0x60 DUP3 ADD MLOAD DUP2 PUSH1 0x3 ADD SSTORE SWAP1 POP POP PUSH1 0x1 PUSH1 0x3 PUSH1 0x0 DUP3 DUP3 SLOAD PUSH2 0x8A0 SWAP2 SWAP1 PUSH2 0x1E56 JUMP JUMPDEST SWAP3 POP POP DUP2 SWAP1 SSTORE POP DUP2 SWAP3 POP POP POP SWAP4 SWAP3 POP POP POP JUMP JUMPDEST PUSH1 0x5 PUSH1 0x20 MSTORE DUP1 PUSH1 0x0 MSTORE PUSH1 0x40 PUSH1 0x0 KECCAK256 PUSH1 0x0 SWAP2 POP SWAP1 POP DUP1 PUSH1 0x0 ADD PUSH1 0x40 MLOAD DUP1 PUSH1 0x80 ADD PUSH1 0x40 MSTORE SWAP1 DUP2 PUSH1 0x0 DUP3 ADD SLOAD DUP2 MSTORE PUSH1 0x20 ADD PUSH1 0x1 DUP3 ADD SLOAD DUP2 MSTORE PUSH1 0x20 ADD PUSH1 0x2 DUP3 ADD SLOAD DUP2 MSTORE PUSH1 0x20 ADD PUSH1 0x3 DUP3 ADD SLOAD DUP2 MSTORE POP POP SWAP1 DUP1 PUSH1 0x6 ADD PUSH1 0x0 SWAP1 SLOAD SWAP1 PUSH2 0x100 EXP SWAP1 DIV PUSH1 0xFF AND SWAP1 DUP1 PUSH1 0x6 ADD PUSH1 0x1 SWAP1 SLOAD SWAP1 PUSH2 0x100 EXP SWAP1 DIV PUSH1 0xFF AND SWAP1 DUP1 PUSH1 0x7 ADD SLOAD SWAP1 DUP1 PUSH1 0x8 ADD SLOAD SWAP1 POP DUP6 JUMP JUMPDEST PUSH1 0x0 PUSH1 0x1 PUSH1 0x0 SWAP1 SLOAD SWAP1 PUSH2 0x100 EXP SWAP1 DIV PUSH20 0xFFFFFFFFFFFFFFFFFFFFFFFFFFFFFFFFFFFFFFFF AND PUSH20 0xFFFFFFFFFFFFFFFFFFFFFFFFFFFFFFFFFFFFFFFF AND PUSH2 0x978 PUSH2 0x137D JUMP JUMPDEST PUSH20 0xFFFFFFFFFFFFFFFFFFFFFFFFFFFFFFFFFFFFFFFF AND EQ DUP1 PUSH2 0x9D3 JUMPI POP PUSH2 0x99D PUSH2 0xCD9 JUMP JUMPDEST PUSH20 0xFFFFFFFFFFFFFFFFFFFFFFFFFFFFFFFFFFFFFFFF AND PUSH2 0x9BB PUSH2 0x137D JUMP JUMPDEST PUSH20 0xFFFFFFFFFFFFFFFFFFFFFFFFFFFFFFFFFFFFFFFF AND EQ JUMPDEST DUP1 PUSH2 0xA10 JUMPI POP ORIGIN PUSH20 0xFFFFFFFFFFFFFFFFFFFFFFFFFFFFFFFFFFFFFFFF AND PUSH2 0x9F8 PUSH2 0xCD9 JUMP JUMPDEST PUSH20 0xFFFFFFFFFFFFFFFFFFFFFFFFFFFFFFFFFFFFFFFF AND EQ JUMPDEST PUSH2 0xA4F JUMPI PUSH1 0x40 MLOAD PUSH32 0x8C379A000000000000000000000000000000000000000000000000000000000 DUP2 MSTORE PUSH1 0x4 ADD PUSH2 0xA46 SWAP1 PUSH2 0x1C77 JUMP JUMPDEST PUSH1 0x40 MLOAD DUP1 SWAP2 SUB SWAP1 REVERT JUMPDEST PUSH2 0xA58 DUP9 PUSH2 0x147E JUMP JUMPDEST PUSH2 0xA97 JUMPI PUSH1 0x40 MLOAD PUSH32 0x8C379A000000000000000000000000000000000000000000000000000000000 DUP2 MSTORE PUSH1 0x4 ADD PUSH2 0xA8E SWAP1 PUSH2 0x1EF8 JUMP JUMPDEST PUSH1 0x40 MLOAD DUP1 SWAP2 SUB SWAP1 REVERT JUMPDEST PUSH1 0x40 MLOAD DUP1 PUSH1 0xE0 ADD PUSH1 0x40 MSTORE DUP1 PUSH1 0x4 PUSH1 0x0 DUP12 DUP2 MSTORE PUSH1 0x20 ADD SWAP1 DUP2 MSTORE PUSH1 0x20 ADD PUSH1 0x0 KECCAK256 PUSH1 0x40 MLOAD DUP1 PUSH1 0x80 ADD PUSH1 0x40 MSTORE SWAP1 DUP2 PUSH1 0x0 DUP3 ADD SLOAD DUP2 MSTORE PUSH1 0x20 ADD PUSH1 0x1 DUP3 ADD SLOAD DUP2 MSTORE PUSH1 0x20 ADD PUSH1 0x2 DUP3 ADD SLOAD DUP2 MSTORE PUSH1 0x20 ADD PUSH1 0x3 DUP3 ADD SLOAD DUP2 MSTORE POP POP DUP2 MSTORE PUSH1 0x20 ADD DUP9 DUP9 DUP1 DUP1 PUSH1 0x20 MUL PUSH1 0x20 ADD PUSH1 0x40 MLOAD SWAP1 DUP2 ADD PUSH1 0x40 MSTORE DUP1 SWAP4 SWAP3 SWAP2 SWAP1 DUP2 DUP2 MSTORE PUSH1 0x20 ADD DUP4 DUP4 PUSH1 0x20 MUL DUP1 DUP3 DUP5 CALLDATACOPY PUSH1 0x0 DUP2 DUP5 ADD MSTORE PUSH1 0x1F NOT PUSH1 0x1F DUP3 ADD AND SWAP1 POP DUP1 DUP4 ADD SWAP3 POP POP POP POP POP POP POP DUP2 MSTORE PUSH1 0x20 ADD DUP7 DUP7 DUP1 DUP1 PUSH1 0x20 MUL PUSH1 0x20 ADD PUSH1 0x40 MLOAD SWAP1 DUP2 ADD PUSH1 0x40 MSTORE DUP1 SWAP4 SWAP3 SWAP2 SWAP1 DUP2 DUP2 MSTORE PUSH1 0x20 ADD DUP4 DUP4 PUSH1 0x20 MUL DUP1 DUP3 DUP5 CALLDATACOPY PUSH1 0x0 DUP2 DUP5 ADD MSTORE PUSH1 0x1F NOT PUSH1 0x1F DUP3 ADD AND SWAP1 POP DUP1 DUP4 ADD SWAP3 POP POP POP POP POP POP POP DUP2 MSTORE PUSH1 0x20 ADD PUSH1 0x0 PUSH1 0x2 DUP2 GT ISZERO PUSH2 0xB8F JUMPI PUSH2 0xB8E PUSH2 0x1824 JUMP JUMPDEST JUMPDEST DUP2 MSTORE PUSH1 0x20 ADD PUSH1 0x3 DUP1 DUP2 GT ISZERO PUSH2 0xBA7 JUMPI PUSH2 0xBA6 PUSH2 0x1824 JUMP JUMPDEST JUMPDEST DUP2 MSTORE PUSH1 0x20 ADD DUP5 DUP2 MSTORE PUSH1 0x20 ADD DUP4 DUP2 MSTORE POP PUSH1 0x5 PUSH1 0x0 PUSH1 0x2 SLOAD DUP2 MSTORE PUSH1 0x20 ADD SWAP1 DUP2 MSTORE PUSH1 0x20 ADD PUSH1 0x0 KECCAK256 PUSH1 0x0 DUP3 ADD MLOAD DUP2 PUSH1 0x0 ADD PUSH1 0x0 DUP3 ADD MLOAD DUP2 PUSH1 0x0 ADD SSTORE PUSH1 0x20 DUP3 ADD MLOAD DUP2 PUSH1 0x1 ADD SSTORE PUSH1 0x40 DUP3 ADD MLOAD DUP2 PUSH1 0x2 ADD SSTORE PUSH1 0x60 DUP3 ADD MLOAD DUP2 PUSH1 0x3 ADD SSTORE POP POP PUSH1 0x20 DUP3 ADD MLOAD DUP2 PUSH1 0x4 ADD SWAP1 DUP1 MLOAD SWAP1 PUSH1 0x20 ADD SWAP1 PUSH2 0xC1A SWAP3 SWAP2 SWAP1 PUSH2 0x14B0 JUMP JUMPDEST POP PUSH1 0x40 DUP3 ADD MLOAD DUP2 PUSH1 0x5 ADD SWAP1 DUP1 MLOAD SWAP1 PUSH1 0x20 ADD SWAP1 PUSH2 0xC37 SWAP3 SWAP2 SWAP1 PUSH2 0x14B0 JUMP JUMPDEST POP PUSH1 0x60 DUP3 ADD MLOAD DUP2 PUSH1 0x6 ADD PUSH1 0x0 PUSH2 0x100 EXP DUP2 SLOAD DUP2 PUSH1 0xFF MUL NOT AND SWAP1 DUP4 PUSH1 0x2 DUP2 GT ISZERO PUSH2 0xC63 JUMPI PUSH2 0xC62 PUSH2 0x1824 JUMP JUMPDEST JUMPDEST MUL OR SWAP1 SSTORE POP PUSH1 0x80 DUP3 ADD MLOAD DUP2 PUSH1 0x6 ADD PUSH1 0x1 PUSH2 0x100 EXP DUP2 SLOAD DUP2 PUSH1 0xFF MUL NOT AND SWAP1 DUP4 PUSH1 0x3 DUP2 GT ISZERO PUSH2 0xC93 JUMPI PUSH2 0xC92 PUSH2 0x1824 JUMP JUMPDEST JUMPDEST MUL OR SWAP1 SSTORE POP PUSH1 0xA0 DUP3 ADD MLOAD DUP2 PUSH1 0x7 ADD SSTORE PUSH1 0xC0 DUP3 ADD MLOAD DUP2 PUSH1 0x8 ADD SSTORE SWAP1 POP POP PUSH1 0x2 SLOAD SWAP1 POP PUSH1 0x1 PUSH1 0x2 PUSH1 0x0 DUP3 DUP3 SLOAD PUSH2 0xCC7 SWAP2 SWAP1 PUSH2 0x1E56 JUMP JUMPDEST SWAP3 POP POP DUP2 SWAP1 SSTORE POP SWAP8 SWAP7 POP POP POP POP POP POP POP JUMP JUMPDEST PUSH1 0x0 DUP1 PUSH1 0x0 SWAP1 SLOAD SWAP1 PUSH2 0x100 EXP SWAP1 DIV PUSH20 0xFFFFFFFFFFFFFFFFFFFFFFFFFFFFFFFFFFFFFFFF AND SWAP1 POP SWAP1 JUMP JUMPDEST PUSH1 0x0 PUSH1 0x1 PUSH1 0x0 SWAP1 SLOAD SWAP1 PUSH2 0x100 EXP SWAP1 DIV PUSH20 0xFFFFFFFFFFFFFFFFFFFFFFFFFFFFFFFFFFFFFFFF AND PUSH20 0xFFFFFFFFFFFFFFFFFFFFFFFFFFFFFFFFFFFFFFFF AND PUSH2 0xD45 PUSH2 0x137D JUMP JUMPDEST PUSH20 0xFFFFFFFFFFFFFFFFFFFFFFFFFFFFFFFFFFFFFFFF AND EQ DUP1 PUSH2 0xDA0 JUMPI POP PUSH2 0xD6A PUSH2 0xCD9 JUMP JUMPDEST PUSH20 0xFFFFFFFFFFFFFFFFFFFFFFFFFFFFFFFFFFFFFFFF AND PUSH2 0xD88 PUSH2 0x137D JUMP JUMPDEST PUSH20 0xFFFFFFFFFFFFFFFFFFFFFFFFFFFFFFFFFFFFFFFF AND EQ JUMPDEST DUP1 PUSH2 0xDDD JUMPI POP ORIGIN PUSH20 0xFFFFFFFFFFFFFFFFFFFFFFFFFFFFFFFFFFFFFFFF AND PUSH2 0xDC5 PUSH2 0xCD9 JUMP JUMPDEST PUSH20 0xFFFFFFFFFFFFFFFFFFFFFFFFFFFFFFFFFFFFFFFF AND EQ JUMPDEST PUSH2 0xE1C JUMPI PUSH1 0x40 MLOAD PUSH32 0x8C379A000000000000000000000000000000000000000000000000000000000 DUP2 MSTORE PUSH1 0x4 ADD PUSH2 0xE13 SWAP1 PUSH2 0x1C77 JUMP JUMPDEST PUSH1 0x40 MLOAD DUP1 SWAP2 SUB SWAP1 REVERT JUMPDEST PUSH2 0xE25 DUP4 PUSH2 0x1385 JUMP JUMPDEST PUSH2 0xE64 JUMPI PUSH1 0x40 MLOAD PUSH32 0x8C379A000000000000000000000000000000000000000000000000000000000 DUP2 MSTORE PUSH1 0x4 ADD PUSH2 0xE5B SWAP1 PUSH2 0x1D09 JUMP JUMPDEST PUSH1 0x40 MLOAD DUP1 SWAP2 SUB SWAP1 REVERT JUMPDEST PUSH1 0x0 DUP3 PUSH1 0xFF AND LT ISZERO DUP1 ISZERO PUSH2 0xE7C JUMPI POP PUSH1 0x3 DUP3 PUSH1 0xFF AND GT ISZERO JUMPDEST PUSH2 0xEBB JUMPI PUSH1 0x40 MLOAD PUSH32 0x8C379A000000000000000000000000000000000000000000000000000000000 DUP2 MSTORE PUSH1 0x4 ADD PUSH2 0xEB2 SWAP1 PUSH2 0x1F8A JUMP JUMPDEST PUSH1 0x40 MLOAD DUP1 SWAP2 SUB SWAP1 REVERT JUMPDEST PUSH1 0x0 PUSH1 0x5 PUSH1 0x0 DUP6 DUP2 MSTORE PUSH1 0x20 ADD SWAP1 DUP2 MSTORE PUSH1 0x20 ADD PUSH1 0x0 KECCAK256 SWAP1 POP PUSH1 0x0 DUP4 PUSH1 0xFF AND EQ ISZERO PUSH2 0xF10 JUMPI PUSH1 0x0 DUP2 PUSH1 0x6 ADD PUSH1 0x1 PUSH2 0x100 EXP DUP2 SLOAD DUP2 PUSH1 0xFF MUL NOT AND SWAP1 DUP4 PUSH1 0x3 DUP2 GT ISZERO PUSH2 0xF06 JUMPI PUSH2 0xF05 PUSH2 0x1824 JUMP JUMPDEST JUMPDEST MUL OR SWAP1 SSTORE POP PUSH2 0xFC9 JUMP JUMPDEST PUSH1 0x1 DUP4 PUSH1 0xFF AND EQ ISZERO PUSH2 0xF4E JUMPI PUSH1 0x1 DUP2 PUSH1 0x6 ADD PUSH1 0x1 PUSH2 0x100 EXP DUP2 SLOAD DUP2 PUSH1 0xFF MUL NOT AND SWAP1 DUP4 PUSH1 0x3 DUP2 GT ISZERO PUSH2 0xF44 JUMPI PUSH2 0xF43 PUSH2 0x1824 JUMP JUMPDEST JUMPDEST MUL OR SWAP1 SSTORE POP PUSH2 0xFC8 JUMP JUMPDEST PUSH1 0x2 DUP4 PUSH1 0xFF AND EQ ISZERO PUSH2 0xF8C JUMPI PUSH1 0x2 DUP2 PUSH1 0x6 ADD PUSH1 0x1 PUSH2 0x100 EXP DUP2 SLOAD DUP2 PUSH1 0xFF MUL NOT AND SWAP1 DUP4 PUSH1 0x3 DUP2 GT ISZERO PUSH2 0xF82 JUMPI PUSH2 0xF81 PUSH2 0x1824 JUMP JUMPDEST JUMPDEST MUL OR SWAP1 SSTORE POP PUSH2 0xFC7 JUMP JUMPDEST PUSH1 0x3 DUP4 PUSH1 0xFF AND EQ ISZERO PUSH2 0xFC6 JUMPI PUSH1 0x3 DUP2 PUSH1 0x6 ADD PUSH1 0x1 PUSH2 0x100 EXP DUP2 SLOAD DUP2 PUSH1 0xFF MUL NOT AND SWAP1 DUP4 PUSH1 0x3 DUP2 GT ISZERO PUSH2 0xFC0 JUMPI PUSH2 0xFBF PUSH2 0x1824 JUMP JUMPDEST JUMPDEST MUL OR SWAP1 SSTORE POP JUMPDEST JUMPDEST JUMPDEST JUMPDEST PUSH1 0x1 SWAP2 POP POP SWAP3 SWAP2 POP POP JUMP JUMPDEST PUSH1 0x0 DUP1 PUSH1 0x0 PUSH1 0x4 PUSH1 0x0 DUP6 DUP2 MSTORE PUSH1 0x20 ADD SWAP1 DUP2 MSTORE PUSH1 0x20 ADD PUSH1 0x0 KECCAK256 PUSH1 0x0 ADD SLOAD PUSH1 0x4 PUSH1 0x0 DUP7 DUP2 MSTORE PUSH1 0x20 ADD SWAP1 DUP2 MSTORE PUSH1 0x20 ADD PUSH1 0x0 KECCAK256 PUSH1 0x1 ADD SLOAD PUSH1 0x4 PUSH1 0x0 DUP8 DUP2 MSTORE PUSH1 0x20 ADD SWAP1 DUP2 MSTORE PUSH1 0x20 ADD PUSH1 0x0 KECCAK256 PUSH1 0x2 ADD SLOAD SWAP3 POP SWAP3 POP SWAP3 POP SWAP2 SWAP4 SWAP1 SWAP3 POP JUMP JUMPDEST PUSH1 0x1 PUSH1 0x0 SWAP1 SLOAD SWAP1 PUSH2 0x100 EXP SWAP1 DIV PUSH20 0xFFFFFFFFFFFFFFFFFFFFFFFFFFFFFFFFFFFFFFFF AND DUP2 JUMP JUMPDEST PUSH1 0x0 DUP1 PUSH1 0x60 DUP1 PUSH1 0x0 DUP1 PUSH1 0x0 DUP1 PUSH1 0x5 PUSH1 0x0 DUP11 DUP2 MSTORE PUSH1 0x20 ADD SWAP1 DUP2 MSTORE PUSH1 0x20 ADD PUSH1 0x0 KECCAK256 PUSH1 0x0 ADD PUSH1 0x40 MLOAD DUP1 PUSH1 0x80 ADD PUSH1 0x40 MSTORE SWAP1 DUP2 PUSH1 0x0 DUP3 ADD SLOAD DUP2 MSTORE PUSH1 0x20 ADD PUSH1 0x1 DUP3 ADD SLOAD DUP2 MSTORE PUSH1 0x20 ADD PUSH1 0x2 DUP3 ADD SLOAD DUP2 MSTORE PUSH1 0x20 ADD PUSH1 0x3 DUP3 ADD SLOAD DUP2 MSTORE POP POP SWAP1 POP DUP1 PUSH1 0x0 ADD MLOAD SWAP8 POP DUP1 PUSH1 0x20 ADD MLOAD SWAP7 POP PUSH1 0x5 PUSH1 0x0 DUP11 DUP2 MSTORE PUSH1 0x20 ADD SWAP1 DUP2 MSTORE PUSH1 0x20 ADD PUSH1 0x0 KECCAK256 PUSH1 0x4 ADD DUP1 SLOAD DUP1 PUSH1 0x20 MUL PUSH1 0x20 ADD PUSH1 0x40 MLOAD SWAP1 DUP2 ADD PUSH1 0x40 MSTORE DUP1 SWAP3 SWAP2 SWAP1 DUP2 DUP2 MSTORE PUSH1 0x20 ADD DUP3 DUP1 SLOAD DUP1 ISZERO PUSH2 0x114C JUMPI PUSH1 0x20 MUL DUP3 ADD SWAP2 SWAP1 PUSH1 0x0 MSTORE PUSH1 0x20 PUSH1 0x0 KECCAK256 SWAP1 JUMPDEST DUP2 PUSH1 0x0 SWAP1 SLOAD SWAP1 PUSH2 0x100 EXP SWAP1 DIV PUSH20 0xFFFFFFFFFFFFFFFFFFFFFFFFFFFFFFFFFFFFFFFF AND PUSH20 0xFFFFFFFFFFFFFFFFFFFFFFFFFFFFFFFFFFFFFFFF AND DUP2 MSTORE PUSH1 0x20 ADD SWAP1 PUSH1 0x1 ADD SWAP1 DUP1 DUP4 GT PUSH2 0x1102 JUMPI JUMPDEST POP POP POP POP POP SWAP6 POP PUSH1 0x5 PUSH1 0x0 DUP11 DUP2 MSTORE PUSH1 0x20 ADD SWAP1 DUP2 MSTORE PUSH1 0x20 ADD PUSH1 0x0 KECCAK256 PUSH1 0x5 ADD DUP1 SLOAD DUP1 PUSH1 0x20 MUL PUSH1 0x20 ADD PUSH1 0x40 MLOAD SWAP1 DUP2 ADD PUSH1 0x40 MSTORE DUP1 SWAP3 SWAP2 SWAP1 DUP2 DUP2 MSTORE PUSH1 0x20 ADD DUP3 DUP1 SLOAD DUP1 ISZERO PUSH2 0x11E9 JUMPI PUSH1 0x20 MUL DUP3 ADD SWAP2 SWAP1 PUSH1 0x0 MSTORE PUSH1 0x20 PUSH1 0x0 KECCAK256 SWAP1 JUMPDEST DUP2 PUSH1 0x0 SWAP1 SLOAD SWAP1 PUSH2 0x100 EXP SWAP1 DIV PUSH20 0xFFFFFFFFFFFFFFFFFFFFFFFFFFFFFFFFFFFFFFFF AND PUSH20 0xFFFFFFFFFFFFFFFFFFFFFFFFFFFFFFFFFFFFFFFF AND DUP2 MSTORE PUSH1 0x20 ADD SWAP1 PUSH1 0x1 ADD SWAP1 DUP1 DUP4 GT PUSH2 0x119F JUMPI JUMPDEST POP POP POP POP POP SWAP5 POP PUSH1 0x5 PUSH1 0x0 DUP11 DUP2 MSTORE PUSH1 0x20 ADD SWAP1 DUP2 MSTORE PUSH1 0x20 ADD PUSH1 0x0 KECCAK256 PUSH1 0x6 ADD PUSH1 0x0 SWAP1 SLOAD SWAP1 PUSH2 0x100 EXP SWAP1 DIV PUSH1 0xFF AND PUSH1 0x2 DUP2 GT ISZERO PUSH2 0x1226 JUMPI PUSH2 0x1225 PUSH2 0x1824 JUMP JUMPDEST JUMPDEST SWAP4 POP PUSH1 0x5 PUSH1 0x0 DUP11 DUP2 MSTORE PUSH1 0x20 ADD SWAP1 DUP2 MSTORE PUSH1 0x20 ADD PUSH1 0x0 KECCAK256 PUSH1 0x6 ADD PUSH1 0x1 SWAP1 SLOAD SWAP1 PUSH2 0x100 EXP SWAP1 DIV PUSH1 0xFF AND PUSH1 0x3 DUP2 GT ISZERO PUSH2 0x125E JUMPI PUSH2 0x125D PUSH2 0x1824 JUMP JUMPDEST JUMPDEST SWAP3 POP PUSH1 0x5 PUSH1 0x0 DUP11 DUP2 MSTORE PUSH1 0x20 ADD SWAP1 DUP2 MSTORE PUSH1 0x20 ADD PUSH1 0x0 KECCAK256 PUSH1 0x7 ADD SLOAD SWAP2 POP POP SWAP2 SWAP4 SWAP6 SWAP8 SWAP1 SWAP3 SWAP5 SWAP7 POP JUMP JUMPDEST PUSH2 0x128D PUSH2 0x137D JUMP JUMPDEST PUSH20 0xFFFFFFFFFFFFFFFFFFFFFFFFFFFFFFFFFFFFFFFF AND PUSH2 0x12AB PUSH2 0xCD9 JUMP JUMPDEST PUSH20 0xFFFFFFFFFFFFFFFFFFFFFFFFFFFFFFFFFFFFFFFF AND EQ PUSH2 0x1301 JUMPI PUSH1 0x40 MLOAD PUSH32 0x8C379A000000000000000000000000000000000000000000000000000000000 DUP2 MSTORE PUSH1 0x4 ADD PUSH2 0x12F8 SWAP1 PUSH2 0x1E07 JUMP JUMPDEST PUSH1 0x40 MLOAD DUP1 SWAP2 SUB SWAP1 REVERT JUMPDEST PUSH1 0x0 PUSH20 0xFFFFFFFFFFFFFFFFFFFFFFFFFFFFFFFFFFFFFFFF AND DUP2 PUSH20 0xFFFFFFFFFFFFFFFFFFFFFFFFFFFFFFFFFFFFFFFF AND EQ ISZERO PUSH2 0x1371 JUMPI PUSH1 0x40 MLOAD PUSH32 0x8C379A000000000000000000000000000000000000000000000000000000000 DUP2 MSTORE PUSH1 0x4 ADD PUSH2 0x1368 SWAP1 PUSH2 0x201C JUMP JUMPDEST PUSH1 0x40 MLOAD DUP1 SWAP2 SUB SWAP1 REVERT JUMPDEST PUSH2 0x137A DUP2 PUSH2 0x13BA JUMP JUMPDEST POP JUMP JUMPDEST PUSH1 0x0 CALLER SWAP1 POP SWAP1 JUMP JUMPDEST PUSH1 0x0 DUP1 PUSH1 0x5 PUSH1 0x0 DUP5 DUP2 MSTORE PUSH1 0x20 ADD SWAP1 DUP2 MSTORE PUSH1 0x20 ADD PUSH1 0x0 KECCAK256 PUSH1 0x4 ADD DUP1 SLOAD SWAP1 POP EQ PUSH2 0x13B0 JUMPI PUSH1 0x1 SWAP1 POP PUSH2 0x13B5 JUMP JUMPDEST PUSH1 0x0 SWAP1 POP JUMPDEST SWAP2 SWAP1 POP JUMP JUMPDEST PUSH1 0x0 DUP1 PUSH1 0x0 SWAP1 SLOAD SWAP1 PUSH2 0x100 EXP SWAP1 DIV PUSH20 0xFFFFFFFFFFFFFFFFFFFFFFFFFFFFFFFFFFFFFFFF AND SWAP1 POP DUP2 PUSH1 0x0 DUP1 PUSH2 0x100 EXP DUP2 SLOAD DUP2 PUSH20 0xFFFFFFFFFFFFFFFFFFFFFFFFFFFFFFFFFFFFFFFF MUL NOT AND SWAP1 DUP4 PUSH20 0xFFFFFFFFFFFFFFFFFFFFFFFFFFFFFFFFFFFFFFFF AND MUL OR SWAP1 SSTORE POP DUP2 PUSH20 0xFFFFFFFFFFFFFFFFFFFFFFFFFFFFFFFFFFFFFFFF AND DUP2 PUSH20 0xFFFFFFFFFFFFFFFFFFFFFFFFFFFFFFFFFFFFFFFF AND PUSH32 0x8BE0079C531659141344CD1FD0A4F28419497F9722A3DAAFE3B4186F6B6457E0 PUSH1 0x40 MLOAD PUSH1 0x40 MLOAD DUP1 SWAP2 SUB SWAP1 LOG3 POP POP JUMP JUMPDEST PUSH1 0x0 DUP1 PUSH1 0x4 PUSH1 0x0 DUP5 DUP2 MSTORE PUSH1 0x20 ADD SWAP1 DUP2 MSTORE PUSH1 0x20 ADD PUSH1 0x0 KECCAK256 PUSH1 0x2 ADD SLOAD EQ PUSH2 0x14A6 JUMPI PUSH1 0x1 SWAP1 POP PUSH2 0x14AB JUMP JUMPDEST PUSH1 0x0 SWAP1 POP JUMPDEST SWAP2 SWAP1 POP JUMP JUMPDEST DUP3 DUP1 SLOAD DUP3 DUP3 SSTORE SWAP1 PUSH1 0x0 MSTORE PUSH1 0x20 PUSH1 0x0 KECCAK256 SWAP1 DUP2 ADD SWAP3 DUP3 ISZERO PUSH2 0x1529 JUMPI SWAP2 PUSH1 0x20 MUL DUP3 ADD JUMPDEST DUP3 DUP2 GT ISZERO PUSH2 0x1528 JUMPI DUP3 MLOAD DUP3 PUSH1 0x0 PUSH2 0x100 EXP DUP2 SLOAD DUP2 PUSH20 0xFFFFFFFFFFFFFFFFFFFFFFFFFFFFFFFFFFFFFFFF MUL NOT AND SWAP1 DUP4 PUSH20 0xFFFFFFFFFFFFFFFFFFFFFFFFFFFFFFFFFFFFFFFF AND MUL OR SWAP1 SSTORE POP SWAP2 PUSH1 0x20 ADD SWAP2 SWAP1 PUSH1 0x1 ADD SWAP1 PUSH2 0x14D0 JUMP JUMPDEST JUMPDEST POP SWAP1 POP PUSH2 0x1536 SWAP2 SWAP1 PUSH2 0x153A JUMP JUMPDEST POP SWAP1 JUMP JUMPDEST JUMPDEST DUP1 DUP3 GT ISZERO PUSH2 0x1553 JUMPI PUSH1 0x0 DUP2 PUSH1 0x0 SWAP1 SSTORE POP PUSH1 0x1 ADD PUSH2 0x153B JUMP JUMPDEST POP SWAP1 JUMP JUMPDEST PUSH1 0x0 DUP1 REVERT JUMPDEST PUSH1 0x0 DUP1 REVERT JUMPDEST PUSH1 0x0 DUP2 SWAP1 POP SWAP2 SWAP1 POP JUMP JUMPDEST PUSH2 0x1574 DUP2 PUSH2 0x1561 JUMP JUMPDEST DUP2 EQ PUSH2 0x157F JUMPI PUSH1 0x0 DUP1 REVERT JUMPDEST POP JUMP JUMPDEST PUSH1 0x0 DUP2 CALLDATALOAD SWAP1 POP PUSH2 0x1591 DUP2 PUSH2 0x156B JUMP JUMPDEST SWAP3 SWAP2 POP POP JUMP JUMPDEST PUSH1 0x0 PUSH1 0xFF DUP3 AND SWAP1 POP SWAP2 SWAP1 POP JUMP JUMPDEST PUSH2 0x15AD DUP2 PUSH2 0x1597 JUMP JUMPDEST DUP2 EQ PUSH2 0x15B8 JUMPI PUSH1 0x0 DUP1 REVERT JUMPDEST POP JUMP JUMPDEST PUSH1 0x0 DUP2 CALLDATALOAD SWAP1 POP PUSH2 0x15CA DUP2 PUSH2 0x15A4 JUMP JUMPDEST SWAP3 SWAP2 POP POP JUMP JUMPDEST PUSH1 0x0 DUP1 PUSH1 0x40 DUP4 DUP6 SUB SLT ISZERO PUSH2 0x15E7 JUMPI PUSH2 0x15E6 PUSH2 0x1557 JUMP JUMPDEST JUMPDEST PUSH1 0x0 PUSH2 0x15F5 DUP6 DUP3 DUP7 ADD PUSH2 0x1582 JUMP JUMPDEST SWAP3 POP POP PUSH1 0x20 PUSH2 0x1606 DUP6 DUP3 DUP7 ADD PUSH2 0x15BB JUMP JUMPDEST SWAP2 POP POP SWAP3 POP SWAP3 SWAP1 POP JUMP JUMPDEST PUSH1 0x0 DUP2 ISZERO ISZERO SWAP1 POP SWAP2 SWAP1 POP JUMP JUMPDEST PUSH2 0x1625 DUP2 PUSH2 0x1610 JUMP JUMPDEST DUP3 MSTORE POP POP JUMP JUMPDEST PUSH1 0x0 PUSH1 0x20 DUP3 ADD SWAP1 POP PUSH2 0x1640 PUSH1 0x0 DUP4 ADD DUP5 PUSH2 0x161C JUMP JUMPDEST SWAP3 SWAP2 POP POP JUMP JUMPDEST PUSH1 0x0 PUSH1 0x20 DUP3 DUP5 SUB SLT ISZERO PUSH2 0x165C JUMPI PUSH2 0x165B PUSH2 0x1557 JUMP JUMPDEST JUMPDEST PUSH1 0x0 PUSH2 0x166A DUP5 DUP3 DUP6 ADD PUSH2 0x1582 JUMP JUMPDEST SWAP2 POP POP SWAP3 SWAP2 POP POP JUMP JUMPDEST PUSH2 0x167C DUP2 PUSH2 0x1561 JUMP JUMPDEST DUP3 MSTORE POP POP JUMP JUMPDEST PUSH1 0x0 PUSH1 0x80 DUP3 ADD SWAP1 POP PUSH2 0x1697 PUSH1 0x0 DUP4 ADD DUP8 PUSH2 0x1673 JUMP JUMPDEST PUSH2 0x16A4 PUSH1 0x20 DUP4 ADD DUP7 PUSH2 0x1673 JUMP JUMPDEST PUSH2 0x16B1 PUSH1 0x40 DUP4 ADD DUP6 PUSH2 0x1673 JUMP JUMPDEST PUSH2 0x16BE PUSH1 0x60 DUP4 ADD DUP5 PUSH2 0x1673 JUMP JUMPDEST SWAP6 SWAP5 POP POP POP POP POP JUMP JUMPDEST PUSH1 0x0 PUSH20 0xFFFFFFFFFFFFFFFFFFFFFFFFFFFFFFFFFFFFFFFF DUP3 AND SWAP1 POP SWAP2 SWAP1 POP JUMP JUMPDEST PUSH1 0x0 PUSH2 0x16F2 DUP3 PUSH2 0x16C7 JUMP JUMPDEST SWAP1 POP SWAP2 SWAP1 POP JUMP JUMPDEST PUSH2 0x1702 DUP2 PUSH2 0x16E7 JUMP JUMPDEST DUP2 EQ PUSH2 0x170D JUMPI PUSH1 0x0 DUP1 REVERT JUMPDEST POP JUMP JUMPDEST PUSH1 0x0 DUP2 CALLDATALOAD SWAP1 POP PUSH2 0x171F DUP2 PUSH2 0x16F9 JUMP JUMPDEST SWAP3 SWAP2 POP POP JUMP JUMPDEST PUSH1 0x0 PUSH1 0x20 DUP3 DUP5 SUB SLT ISZERO PUSH2 0x173B JUMPI PUSH2 0x173A PUSH2 0x1557 JUMP JUMPDEST JUMPDEST PUSH1 0x0 PUSH2 0x1749 DUP5 DUP3 DUP6 ADD PUSH2 0x1710 JUMP JUMPDEST SWAP2 POP POP SWAP3 SWAP2 POP POP JUMP JUMPDEST PUSH1 0x0 DUP1 PUSH1 0x0 PUSH1 0x60 DUP5 DUP7 SUB SLT ISZERO PUSH2 0x176B JUMPI PUSH2 0x176A PUSH2 0x1557 JUMP JUMPDEST JUMPDEST PUSH1 0x0 PUSH2 0x1779 DUP7 DUP3 DUP8 ADD PUSH2 0x1582 JUMP JUMPDEST SWAP4 POP POP PUSH1 0x20 PUSH2 0x178A DUP7 DUP3 DUP8 ADD PUSH2 0x1582 JUMP JUMPDEST SWAP3 POP POP PUSH1 0x40 PUSH2 0x179B DUP7 DUP3 DUP8 ADD PUSH2 0x1582 JUMP JUMPDEST SWAP2 POP POP SWAP3 POP SWAP3 POP SWAP3 JUMP JUMPDEST PUSH1 0x0 PUSH1 0x20 DUP3 ADD SWAP1 POP PUSH2 0x17BA PUSH1 0x0 DUP4 ADD DUP5 PUSH2 0x1673 JUMP JUMPDEST SWAP3 SWAP2 POP POP JUMP JUMPDEST PUSH2 0x17C9 DUP2 PUSH2 0x1561 JUMP JUMPDEST DUP3 MSTORE POP POP JUMP JUMPDEST PUSH1 0x80 DUP3 ADD PUSH1 0x0 DUP3 ADD MLOAD PUSH2 0x17E5 PUSH1 0x0 DUP6 ADD DUP3 PUSH2 0x17C0 JUMP JUMPDEST POP PUSH1 0x20 DUP3 ADD MLOAD PUSH2 0x17F8 PUSH1 0x20 DUP6 ADD DUP3 PUSH2 0x17C0 JUMP JUMPDEST POP PUSH1 0x40 DUP3 ADD MLOAD PUSH2 0x180B PUSH1 0x40 DUP6 ADD DUP3 PUSH2 0x17C0 JUMP JUMPDEST POP PUSH1 0x60 DUP3 ADD MLOAD PUSH2 0x181E PUSH1 0x60 DUP6 ADD DUP3 PUSH2 0x17C0 JUMP JUMPDEST POP POP POP POP JUMP JUMPDEST PUSH32 0x4E487B7100000000000000000000000000000000000000000000000000000000 PUSH1 0x0 MSTORE PUSH1 0x21 PUSH1 0x4 MSTORE PUSH1 0x24 PUSH1 0x0 REVERT JUMPDEST PUSH1 0x3 DUP2 LT PUSH2 0x1864 JUMPI PUSH2 0x1863 PUSH2 0x1824 JUMP JUMPDEST JUMPDEST POP JUMP JUMPDEST PUSH1 0x0 DUP2 SWAP1 POP PUSH2 0x1875 DUP3 PUSH2 0x1853 JUMP JUMPDEST SWAP2 SWAP1 POP JUMP JUMPDEST PUSH1 0x0 PUSH2 0x1885 DUP3 PUSH2 0x1867 JUMP JUMPDEST SWAP1 POP SWAP2 SWAP1 POP JUMP JUMPDEST PUSH2 0x1895 DUP2 PUSH2 0x187A JUMP JUMPDEST DUP3 MSTORE POP POP JUMP JUMPDEST PUSH1 0x4 DUP2 LT PUSH2 0x18AC JUMPI PUSH2 0x18AB PUSH2 0x1824 JUMP JUMPDEST JUMPDEST POP JUMP JUMPDEST PUSH1 0x0 DUP2 SWAP1 POP PUSH2 0x18BD DUP3 PUSH2 0x189B JUMP JUMPDEST SWAP2 SWAP1 POP JUMP JUMPDEST PUSH1 0x0 PUSH2 0x18CD DUP3 PUSH2 0x18AF JUMP JUMPDEST SWAP1 POP SWAP2 SWAP1 POP JUMP JUMPDEST PUSH2 0x18DD DUP2 PUSH2 0x18C2 JUMP JUMPDEST DUP3 MSTORE POP POP JUMP JUMPDEST PUSH1 0x0 PUSH2 0x100 DUP3 ADD SWAP1 POP PUSH2 0x18F9 PUSH1 0x0 DUP4 ADD DUP9 PUSH2 0x17CF JUMP JUMPDEST PUSH2 0x1906 PUSH1 0x80 DUP4 ADD DUP8 PUSH2 0x188C JUMP JUMPDEST PUSH2 0x1913 PUSH1 0xA0 DUP4 ADD DUP7 PUSH2 0x18D4 JUMP JUMPDEST PUSH2 0x1920 PUSH1 0xC0 DUP4 ADD DUP6 PUSH2 0x1673 JUMP JUMPDEST PUSH2 0x192D PUSH1 0xE0 DUP4 ADD DUP5 PUSH2 0x1673 JUMP JUMPDEST SWAP7 SWAP6 POP POP POP POP POP POP JUMP JUMPDEST PUSH1 0x0 DUP1 REVERT JUMPDEST PUSH1 0x0 DUP1 REVERT JUMPDEST PUSH1 0x0 DUP1 REVERT JUMPDEST PUSH1 0x0 DUP1 DUP4 PUSH1 0x1F DUP5 ADD SLT PUSH2 0x195C JUMPI PUSH2 0x195B PUSH2 0x1937 JUMP JUMPDEST JUMPDEST DUP3 CALLDATALOAD SWAP1 POP PUSH8 0xFFFFFFFFFFFFFFFF DUP2 GT ISZERO PUSH2 0x1979 JUMPI PUSH2 0x1978 PUSH2 0x193C JUMP JUMPDEST JUMPDEST PUSH1 0x20 DUP4 ADD SWAP2 POP DUP4 PUSH1 0x20 DUP3 MUL DUP4 ADD GT ISZERO PUSH2 0x1995 JUMPI PUSH2 0x1994 PUSH2 0x1941 JUMP JUMPDEST JUMPDEST SWAP3 POP SWAP3 SWAP1 POP JUMP JUMPDEST PUSH1 0x0 DUP1 PUSH1 0x0 DUP1 PUSH1 0x0 DUP1 PUSH1 0x0 PUSH1 0xA0 DUP9 DUP11 SUB SLT ISZERO PUSH2 0x19BB JUMPI PUSH2 0x19BA PUSH2 0x1557 JUMP JUMPDEST JUMPDEST PUSH1 0x0 PUSH2 0x19C9 DUP11 DUP3 DUP12 ADD PUSH2 0x1582 JUMP JUMPDEST SWAP8 POP POP PUSH1 0x20 DUP9 ADD CALLDATALOAD PUSH8 0xFFFFFFFFFFFFFFFF DUP2 GT ISZERO PUSH2 0x19EA JUMPI PUSH2 0x19E9 PUSH2 0x155C JUMP JUMPDEST JUMPDEST PUSH2 0x19F6 DUP11 DUP3 DUP12 ADD PUSH2 0x1946 JUMP JUMPDEST SWAP7 POP SWAP7 POP POP PUSH1 0x40 DUP9 ADD CALLDATALOAD PUSH8 0xFFFFFFFFFFFFFFFF DUP2 GT ISZERO PUSH2 0x1A19 JUMPI PUSH2 0x1A18 PUSH2 0x155C JUMP JUMPDEST JUMPDEST PUSH2 0x1A25 DUP11 DUP3 DUP12 ADD PUSH2 0x1946 JUMP JUMPDEST SWAP5 POP SWAP5 POP POP PUSH1 0x60 PUSH2 0x1A38 DUP11 DUP3 DUP12 ADD PUSH2 0x1582 JUMP JUMPDEST SWAP3 POP POP PUSH1 0x80 PUSH2 0x1A49 DUP11 DUP3 DUP12 ADD PUSH2 0x1582 JUMP JUMPDEST SWAP2 POP POP SWAP3 SWAP6 SWAP9 SWAP2 SWAP5 SWAP8 POP SWAP3 SWAP6 POP JUMP JUMPDEST PUSH2 0x1A61 DUP2 PUSH2 0x16E7 JUMP JUMPDEST DUP3 MSTORE POP POP JUMP JUMPDEST PUSH1 0x0 PUSH1 0x20 DUP3 ADD SWAP1 POP PUSH2 0x1A7C PUSH1 0x0 DUP4 ADD DUP5 PUSH2 0x1A58 JUMP JUMPDEST SWAP3 SWAP2 POP POP JUMP JUMPDEST PUSH1 0x0 PUSH1 0x60 DUP3 ADD SWAP1 POP PUSH2 0x1A97 PUSH1 0x0 DUP4 ADD DUP7 PUSH2 0x1673 JUMP JUMPDEST PUSH2 0x1AA4 PUSH1 0x20 DUP4 ADD DUP6 PUSH2 0x1673 JUMP JUMPDEST PUSH2 0x1AB1 PUSH1 0x40 DUP4 ADD DUP5 PUSH2 0x1673 JUMP JUMPDEST SWAP5 SWAP4 POP POP POP POP JUMP JUMPDEST PUSH1 0x0 DUP2 MLOAD SWAP1 POP SWAP2 SWAP1 POP JUMP JUMPDEST PUSH1 0x0 DUP3 DUP3 MSTORE PUSH1 0x20 DUP3 ADD SWAP1 POP SWAP3 SWAP2 POP POP JUMP JUMPDEST PUSH1 0x0 DUP2 SWAP1 POP PUSH1 0x20 DUP3 ADD SWAP1 POP SWAP2 SWAP1 POP JUMP JUMPDEST PUSH2 0x1AEE DUP2 PUSH2 0x16E7 JUMP JUMPDEST DUP3 MSTORE POP POP JUMP JUMPDEST PUSH1 0x0 PUSH2 0x1B00 DUP4 DUP4 PUSH2 0x1AE5 JUMP JUMPDEST PUSH1 0x20 DUP4 ADD SWAP1 POP SWAP3 SWAP2 POP POP JUMP JUMPDEST PUSH1 0x0 PUSH1 0x20 DUP3 ADD SWAP1 POP SWAP2 SWAP1 POP JUMP JUMPDEST PUSH1 0x0 PUSH2 0x1B24 DUP3 PUSH2 0x1AB9 JUMP JUMPDEST PUSH2 0x1B2E DUP2 DUP6 PUSH2 0x1AC4 JUMP JUMPDEST SWAP4 POP PUSH2 0x1B39 DUP4 PUSH2 0x1AD5 JUMP JUMPDEST DUP1 PUSH1 0x0 JUMPDEST DUP4 DUP2 LT ISZERO PUSH2 0x1B6A JUMPI DUP2 MLOAD PUSH2 0x1B51 DUP9 DUP3 PUSH2 0x1AF4 JUMP JUMPDEST SWAP8 POP PUSH2 0x1B5C DUP4 PUSH2 0x1B0C JUMP JUMPDEST SWAP3 POP POP PUSH1 0x1 DUP2 ADD SWAP1 POP PUSH2 0x1B3D JUMP JUMPDEST POP DUP6 SWAP4 POP POP POP POP SWAP3 SWAP2 POP POP JUMP JUMPDEST PUSH1 0x0 PUSH1 0xE0 DUP3 ADD SWAP1 POP PUSH2 0x1B8C PUSH1 0x0 DUP4 ADD DUP11 PUSH2 0x1673 JUMP JUMPDEST PUSH2 0x1B99 PUSH1 0x20 DUP4 ADD DUP10 PUSH2 0x1673 JUMP JUMPDEST DUP2 DUP2 SUB PUSH1 0x40 DUP4 ADD MSTORE PUSH2 0x1BAB DUP2 DUP9 PUSH2 0x1B19 JUMP JUMPDEST SWAP1 POP DUP2 DUP2 SUB PUSH1 0x60 DUP4 ADD MSTORE PUSH2 0x1BBF DUP2 DUP8 PUSH2 0x1B19 JUMP JUMPDEST SWAP1 POP PUSH2 0x1BCE PUSH1 0x80 DUP4 ADD DUP7 PUSH2 0x1673 JUMP JUMPDEST PUSH2 0x1BDB PUSH1 0xA0 DUP4 ADD DUP6 PUSH2 0x1673 JUMP JUMPDEST PUSH2 0x1BE8 PUSH1 0xC0 DUP4 ADD DUP5 PUSH2 0x1673 JUMP JUMPDEST SWAP9 SWAP8 POP POP POP POP POP POP POP POP JUMP JUMPDEST PUSH1 0x0 DUP3 DUP3 MSTORE PUSH1 0x20 DUP3 ADD SWAP1 POP SWAP3 SWAP2 POP POP JUMP JUMPDEST PUSH32 0x546F2063616C6C2074686973206D6574686F6420796F75206861766520746F20 PUSH1 0x0 DUP3 ADD MSTORE PUSH32 0x6265206F776E6572206F722073756241646D696E210000000000000000000000 PUSH1 0x20 DUP3 ADD MSTORE POP JUMP JUMPDEST PUSH1 0x0 PUSH2 0x1C61 PUSH1 0x35 DUP4 PUSH2 0x1BF4 JUMP JUMPDEST SWAP2 POP PUSH2 0x1C6C DUP3 PUSH2 0x1C05 JUMP JUMPDEST PUSH1 0x40 DUP3 ADD SWAP1 POP SWAP2 SWAP1 POP JUMP JUMPDEST PUSH1 0x0 PUSH1 0x20 DUP3 ADD SWAP1 POP DUP2 DUP2 SUB PUSH1 0x0 DUP4 ADD MSTORE PUSH2 0x1C90 DUP2 PUSH2 0x1C54 JUMP JUMPDEST SWAP1 POP SWAP2 SWAP1 POP JUMP JUMPDEST PUSH32 0x63616E27742066696E6420636F6D706574696F6E207769746820746869732063 PUSH1 0x0 DUP3 ADD MSTORE PUSH32 0x6F6D706574696F6E496421000000000000000000000000000000000000000000 PUSH1 0x20 DUP3 ADD MSTORE POP JUMP JUMPDEST PUSH1 0x0 PUSH2 0x1CF3 PUSH1 0x2B DUP4 PUSH2 0x1BF4 JUMP JUMPDEST SWAP2 POP PUSH2 0x1CFE DUP3 PUSH2 0x1C97 JUMP JUMPDEST PUSH1 0x40 DUP3 ADD SWAP1 POP SWAP2 SWAP1 POP JUMP JUMPDEST PUSH1 0x0 PUSH1 0x20 DUP3 ADD SWAP1 POP DUP2 DUP2 SUB PUSH1 0x0 DUP4 ADD MSTORE PUSH2 0x1D22 DUP2 PUSH2 0x1CE6 JUMP JUMPDEST SWAP1 POP SWAP2 SWAP1 POP JUMP JUMPDEST PUSH32 0x737461747573206E65656420746F20626520736F6D74696E6720626574776565 PUSH1 0x0 DUP3 ADD MSTORE PUSH32 0x6E203020746F2032000000000000000000000000000000000000000000000000 PUSH1 0x20 DUP3 ADD MSTORE POP JUMP JUMPDEST PUSH1 0x0 PUSH2 0x1D85 PUSH1 0x28 DUP4 PUSH2 0x1BF4 JUMP JUMPDEST SWAP2 POP PUSH2 0x1D90 DUP3 PUSH2 0x1D29 JUMP JUMPDEST PUSH1 0x40 DUP3 ADD SWAP1 POP SWAP2 SWAP1 POP JUMP JUMPDEST PUSH1 0x0 PUSH1 0x20 DUP3 ADD SWAP1 POP DUP2 DUP2 SUB PUSH1 0x0 DUP4 ADD MSTORE PUSH2 0x1DB4 DUP2 PUSH2 0x1D78 JUMP JUMPDEST SWAP1 POP SWAP2 SWAP1 POP JUMP JUMPDEST PUSH32 0x4F776E61626C653A2063616C6C6572206973206E6F7420746865206F776E6572 PUSH1 0x0 DUP3 ADD MSTORE POP JUMP JUMPDEST PUSH1 0x0 PUSH2 0x1DF1 PUSH1 0x20 DUP4 PUSH2 0x1BF4 JUMP JUMPDEST SWAP2 POP PUSH2 0x1DFC DUP3 PUSH2 0x1DBB JUMP JUMPDEST PUSH1 0x20 DUP3 ADD SWAP1 POP SWAP2 SWAP1 POP JUMP JUMPDEST PUSH1 0x0 PUSH1 0x20 DUP3 ADD SWAP1 POP DUP2 DUP2 SUB PUSH1 0x0 DUP4 ADD MSTORE PUSH2 0x1E20 DUP2 PUSH2 0x1DE4 JUMP JUMPDEST SWAP1 POP SWAP2 SWAP1 POP JUMP JUMPDEST PUSH32 0x4E487B7100000000000000000000000000000000000000000000000000000000 PUSH1 0x0 MSTORE PUSH1 0x11 PUSH1 0x4 MSTORE PUSH1 0x24 PUSH1 0x0 REVERT JUMPDEST PUSH1 0x0 PUSH2 0x1E61 DUP3 PUSH2 0x1561 JUMP JUMPDEST SWAP2 POP PUSH2 0x1E6C DUP4 PUSH2 0x1561 JUMP JUMPDEST SWAP3 POP DUP3 PUSH32 0xFFFFFFFFFFFFFFFFFFFFFFFFFFFFFFFFFFFFFFFFFFFFFFFFFFFFFFFFFFFFFFFF SUB DUP3 GT ISZERO PUSH2 0x1EA1 JUMPI PUSH2 0x1EA0 PUSH2 0x1E27 JUMP JUMPDEST JUMPDEST DUP3 DUP3 ADD SWAP1 POP SWAP3 SWAP2 POP POP JUMP JUMPDEST PUSH32 0x63616E27742066696E6420707265736574207769746820746869732069642100 PUSH1 0x0 DUP3 ADD MSTORE POP JUMP JUMPDEST PUSH1 0x0 PUSH2 0x1EE2 PUSH1 0x1F DUP4 PUSH2 0x1BF4 JUMP JUMPDEST SWAP2 POP PUSH2 0x1EED DUP3 PUSH2 0x1EAC JUMP JUMPDEST PUSH1 0x20 DUP3 ADD SWAP1 POP SWAP2 SWAP1 POP JUMP JUMPDEST PUSH1 0x0 PUSH1 0x20 DUP3 ADD SWAP1 POP DUP2 DUP2 SUB PUSH1 0x0 DUP4 ADD MSTORE PUSH2 0x1F11 DUP2 PUSH2 0x1ED5 JUMP JUMPDEST SWAP1 POP SWAP2 SWAP1 POP JUMP JUMPDEST PUSH32 0x77696E6E6572206E65656420746F20626520736F6D74696E6720626574776565 PUSH1 0x0 DUP3 ADD MSTORE PUSH32 0x6E203020746F2033000000000000000000000000000000000000000000000000 PUSH1 0x20 DUP3 ADD MSTORE POP JUMP JUMPDEST PUSH1 0x0 PUSH2 0x1F74 PUSH1 0x28 DUP4 PUSH2 0x1BF4 JUMP JUMPDEST SWAP2 POP PUSH2 0x1F7F DUP3 PUSH2 0x1F18 JUMP JUMPDEST PUSH1 0x40 DUP3 ADD SWAP1 POP SWAP2 SWAP1 POP JUMP JUMPDEST PUSH1 0x0 PUSH1 0x20 DUP3 ADD SWAP1 POP DUP2 DUP2 SUB PUSH1 0x0 DUP4 ADD MSTORE PUSH2 0x1FA3 DUP2 PUSH2 0x1F67 JUMP JUMPDEST SWAP1 POP SWAP2 SWAP1 POP JUMP JUMPDEST PUSH32 0x4F776E61626C653A206E6577206F776E657220697320746865207A65726F2061 PUSH1 0x0 DUP3 ADD MSTORE PUSH32 0x6464726573730000000000000000000000000000000000000000000000000000 PUSH1 0x20 DUP3 ADD MSTORE POP JUMP JUMPDEST PUSH1 0x0 PUSH2 0x2006 PUSH1 0x26 DUP4 PUSH2 0x1BF4 JUMP JUMPDEST SWAP2 POP PUSH2 0x2011 DUP3 PUSH2 0x1FAA JUMP JUMPDEST PUSH1 0x40 DUP3 ADD SWAP1 POP SWAP2 SWAP1 POP JUMP JUMPDEST PUSH1 0x0 PUSH1 0x20 DUP3 ADD SWAP1 POP DUP2 DUP2 SUB PUSH1 0x0 DUP4 ADD MSTORE PUSH2 0x2035 DUP2 PUSH2 0x1FF9 JUMP JUMPDEST SWAP1 POP SWAP2 SWAP1 POP JUMP INVALID LOG2 PUSH5 0x6970667358 0x22 SLT KECCAK256 SWAP1 DUP10 INVALID PUSH10 0xA104EC0E6516423E8493 0xB7 0x24 DUP5 0xBC SWAP15 PUSH18 0x73E12F9D3A613CAF62F5AED964736F6C6343 STOP ADDMOD MULMOD STOP CALLER "
				},
				"gasEstimates": {
					"creation": {
						"codeDepositCost": "1661200",
						"executionCost": "infinite",
						"totalCost": "infinite"
					},
					"external": {
						"addNewCompetion(uint256,address[],address[],uint256,uint256)": "infinite",
						"addNewPreset(uint256,uint256,uint256)": "infinite",
						"competionList(uint256)": "infinite",
						"factoryAddrss()": "2558",
						"getCompetion(uint256)": "infinite",
						"getPreset(uint256)": "infinite",
						"owner()": "2567",
						"presetList(uint256)": "infinite",
						"renounceOwnership()": "30441",
						"transferOwnership(address)": "30811",
						"updateCompetionStatus(uint256,uint8)": "infinite",
						"updateCompetionWinner(uint256,uint8)": "32209",
						"updateFactoryAddress(address)": "27209"
					},
					"internal": {
						"isExistsCompetionList(uint256)": "2260",
						"isExistsPresetList(uint256)": "2252"
					}
				},
				"methodIdentifiers": {
					"addNewCompetion(uint256,address[],address[],uint256,uint256)": "84534890",
					"addNewPreset(uint256,uint256,uint256)": "7ae996bd",
					"competionList(uint256)": "7cb1c0d4",
					"factoryAddrss()": "caa9db89",
					"getCompetion(uint256)": "d4e3706a",
					"getPreset(uint256)": "aabc4b3c",
					"owner()": "8da5cb5b",
					"presetList(uint256)": "511b4db7",
					"renounceOwnership()": "715018a6",
					"transferOwnership(address)": "f2fde38b",
					"updateCompetionStatus(uint256,uint8)": "4f03c754",
					"updateCompetionWinner(uint256,uint8)": "985d8e00",
					"updateFactoryAddress(address)": "551ee570"
				}
			},
			"storageLayout": {
				"storage": [
					{
						"astId": 7,
						"contract": "contracts/EvolveStorage.sol:EvolveStorage",
						"label": "_owner",
						"offset": 0,
						"slot": "0",
						"type": "t_address"
					},
					{
						"astId": 456,
						"contract": "contracts/EvolveStorage.sol:EvolveStorage",
						"label": "factoryAddrss",
						"offset": 0,
						"slot": "1",
						"type": "t_address"
					},
					{
						"astId": 459,
						"contract": "contracts/EvolveStorage.sol:EvolveStorage",
						"label": "startCompetitionId",
						"offset": 0,
						"slot": "2",
						"type": "t_uint256"
					},
					{
						"astId": 462,
						"contract": "contracts/EvolveStorage.sol:EvolveStorage",
						"label": "startPresetId",
						"offset": 0,
						"slot": "3",
						"type": "t_uint256"
					},
					{
						"astId": 467,
						"contract": "contracts/EvolveStorage.sol:EvolveStorage",
						"label": "presetList",
						"offset": 0,
						"slot": "4",
						"type": "t_mapping(t_uint256,t_struct(Preset)947_storage)"
					},
					{
						"astId": 472,
						"contract": "contracts/EvolveStorage.sol:EvolveStorage",
						"label": "competionList",
						"offset": 0,
						"slot": "5",
						"type": "t_mapping(t_uint256,t_struct(Competion)967_storage)"
					}
				],
				"types": {
					"t_address": {
						"encoding": "inplace",
						"label": "address",
						"numberOfBytes": "20"
					},
					"t_array(t_address)dyn_storage": {
						"base": "t_address",
						"encoding": "dynamic_array",
						"label": "address[]",
						"numberOfBytes": "32"
					},
					"t_enum(CompetionStatus)971": {
						"encoding": "inplace",
						"label": "enum IEvolveStorage.CompetionStatus",
						"numberOfBytes": "1"
					},
					"t_enum(CompetionWinner)976": {
						"encoding": "inplace",
						"label": "enum IEvolveStorage.CompetionWinner",
						"numberOfBytes": "1"
					},
					"t_mapping(t_uint256,t_struct(Competion)967_storage)": {
						"encoding": "mapping",
						"key": "t_uint256",
						"label": "mapping(uint256 => struct IEvolveStorage.Competion)",
						"numberOfBytes": "32",
						"value": "t_struct(Competion)967_storage"
					},
					"t_mapping(t_uint256,t_struct(Preset)947_storage)": {
						"encoding": "mapping",
						"key": "t_uint256",
						"label": "mapping(uint256 => struct IEvolveStorage.Preset)",
						"numberOfBytes": "32",
						"value": "t_struct(Preset)947_storage"
					},
					"t_struct(Competion)967_storage": {
						"encoding": "inplace",
						"label": "struct IEvolveStorage.Competion",
						"members": [
							{
								"astId": 950,
								"contract": "contracts/EvolveStorage.sol:EvolveStorage",
								"label": "preset",
								"offset": 0,
								"slot": "0",
								"type": "t_struct(Preset)947_storage"
							},
							{
								"astId": 953,
								"contract": "contracts/EvolveStorage.sol:EvolveStorage",
								"label": "teamA",
								"offset": 0,
								"slot": "4",
								"type": "t_array(t_address)dyn_storage"
							},
							{
								"astId": 956,
								"contract": "contracts/EvolveStorage.sol:EvolveStorage",
								"label": "teamB",
								"offset": 0,
								"slot": "5",
								"type": "t_array(t_address)dyn_storage"
							},
							{
								"astId": 959,
								"contract": "contracts/EvolveStorage.sol:EvolveStorage",
								"label": "status",
								"offset": 0,
								"slot": "6",
								"type": "t_enum(CompetionStatus)971"
							},
							{
								"astId": 962,
								"contract": "contracts/EvolveStorage.sol:EvolveStorage",
								"label": "winners",
								"offset": 1,
								"slot": "6",
								"type": "t_enum(CompetionWinner)976"
							},
							{
								"astId": 964,
								"contract": "contracts/EvolveStorage.sol:EvolveStorage",
								"label": "priceRate",
								"offset": 0,
								"slot": "7",
								"type": "t_uint256"
							},
							{
								"astId": 966,
								"contract": "contracts/EvolveStorage.sol:EvolveStorage",
								"label": "createAt",
								"offset": 0,
								"slot": "8",
								"type": "t_uint256"
							}
						],
						"numberOfBytes": "288"
					},
					"t_struct(Preset)947_storage": {
						"encoding": "inplace",
						"label": "struct IEvolveStorage.Preset",
						"members": [
							{
								"astId": 940,
								"contract": "contracts/EvolveStorage.sol:EvolveStorage",
								"label": "matchPrice",
								"offset": 0,
								"slot": "0",
								"type": "t_uint256"
							},
							{
								"astId": 942,
								"contract": "contracts/EvolveStorage.sol:EvolveStorage",
								"label": "numberOfTeamMemebr",
								"offset": 0,
								"slot": "1",
								"type": "t_uint256"
							},
							{
								"astId": 944,
								"contract": "contracts/EvolveStorage.sol:EvolveStorage",
								"label": "date",
								"offset": 0,
								"slot": "2",
								"type": "t_uint256"
							},
							{
								"astId": 946,
								"contract": "contracts/EvolveStorage.sol:EvolveStorage",
								"label": "createAt",
								"offset": 0,
								"slot": "3",
								"type": "t_uint256"
							}
						],
						"numberOfBytes": "128"
					},
					"t_uint256": {
						"encoding": "inplace",
						"label": "uint256",
						"numberOfBytes": "32"
					}
				}
			},
			"userdoc": {
				"kind": "user",
				"methods": {},
				"version": 1
			}
		}
	}
}