{
  "contractName": "EvolveFactory",
  "abi": [
    {
      "inputs": [
        {
          "internalType": "contract IEvolveStorage",
          "name": "_storageAddress",
          "type": "address"
        },
        {
          "internalType": "contract IEvolveBulkSender",
          "name": "_bulkSender",
          "type": "address"
        },
        {
          "internalType": "contract IERC20",
          "name": "_tokenAddress",
          "type": "address"
        },
        {
          "internalType": "address",
          "name": "_adminUpdater",
          "type": "address"
        }
      ],
      "stateMutability": "nonpayable",
      "type": "constructor"
    },
    {
      "anonymous": false,
      "inputs": [
        {
          "indexed": true,
          "internalType": "address",
          "name": "previousOwner",
          "type": "address"
        },
        {
          "indexed": true,
          "internalType": "address",
          "name": "newOwner",
          "type": "address"
        }
      ],
      "name": "OwnershipTransferred",
      "type": "event"
    },
    {
      "inputs": [],
      "name": "adminExpireDate",
      "outputs": [
        {
          "internalType": "uint256",
          "name": "_expierDate",
          "type": "uint256"
        }
      ],
      "stateMutability": "view",
      "type": "function",
      "constant": true
    },
    {
      "inputs": [],
      "name": "adminLifeTime",
      "outputs": [
        {
          "internalType": "uint256",
          "name": "",
          "type": "uint256"
        }
      ],
      "stateMutability": "view",
      "type": "function",
      "constant": true
    },
    {
      "inputs": [],
      "name": "adminUpdateTime",
      "outputs": [
        {
          "internalType": "uint256",
          "name": "",
          "type": "uint256"
        }
      ],
      "stateMutability": "view",
      "type": "function",
      "constant": true
    },
    {
      "inputs": [],
      "name": "adminUpdater",
      "outputs": [
        {
          "internalType": "address",
          "name": "",
          "type": "address"
        }
      ],
      "stateMutability": "view",
      "type": "function",
      "constant": true
    },
    {
      "inputs": [
        {
          "internalType": "uint256",
          "name": "_newLifeTime",
          "type": "uint256"
        }
      ],
      "name": "chnageAdminLifeTime",
      "outputs": [
        {
          "internalType": "bool",
          "name": "",
          "type": "bool"
        }
      ],
      "stateMutability": "nonpayable",
      "type": "function"
    },
    {
      "inputs": [],
      "name": "currentAdmin",
      "outputs": [
        {
          "internalType": "address",
          "name": "result",
          "type": "address"
        }
      ],
      "stateMutability": "view",
      "type": "function",
      "constant": true
    },
    {
      "inputs": [],
      "name": "evolveBulkSender",
      "outputs": [
        {
          "internalType": "contract IEvolveBulkSender",
          "name": "",
          "type": "address"
        }
      ],
      "stateMutability": "view",
      "type": "function",
      "constant": true
    },
    {
      "inputs": [],
      "name": "evolveStorage",
      "outputs": [
        {
          "internalType": "contract IEvolveStorage",
          "name": "",
          "type": "address"
        }
      ],
      "stateMutability": "view",
      "type": "function",
      "constant": true
    },
    {
      "inputs": [],
      "name": "giftTokenProvider",
      "outputs": [
        {
          "internalType": "address",
          "name": "",
          "type": "address"
        }
      ],
      "stateMutability": "view",
      "type": "function",
      "constant": true
    },
    {
      "inputs": [],
      "name": "owner",
      "outputs": [
        {
          "internalType": "address",
          "name": "",
          "type": "address"
        }
      ],
      "stateMutability": "view",
      "type": "function",
      "constant": true
    },
    {
      "inputs": [],
      "name": "renounceOwnership",
      "outputs": [],
      "stateMutability": "nonpayable",
      "type": "function"
    },
    {
      "inputs": [],
      "name": "tokenAddress",
      "outputs": [
        {
          "internalType": "contract IERC20",
          "name": "",
          "type": "address"
        }
      ],
      "stateMutability": "view",
      "type": "function",
      "constant": true
    },
    {
      "inputs": [],
      "name": "tokenPriceByUSD",
      "outputs": [
        {
          "internalType": "uint256",
          "name": "",
          "type": "uint256"
        }
      ],
      "stateMutability": "view",
      "type": "function",
      "constant": true
    },
    {
      "inputs": [
        {
          "internalType": "address",
          "name": "newOwner",
          "type": "address"
        }
      ],
      "name": "transferOwnership",
      "outputs": [],
      "stateMutability": "nonpayable",
      "type": "function"
    },
    {
      "inputs": [
        {
          "internalType": "address",
          "name": "_newAdminUpdater",
          "type": "address"
        }
      ],
      "name": "updateAdminUpdater",
      "outputs": [
        {
          "internalType": "bool",
          "name": "",
          "type": "bool"
        }
      ],
      "stateMutability": "nonpayable",
      "type": "function"
    },
    {
      "inputs": [
        {
          "internalType": "address",
          "name": "_newGiftProvider",
          "type": "address"
        }
      ],
      "name": "updateGiftTokenProvider",
      "outputs": [
        {
          "internalType": "bool",
          "name": "",
          "type": "bool"
        }
      ],
      "stateMutability": "nonpayable",
      "type": "function"
    },
    {
      "inputs": [
        {
          "internalType": "uint256",
          "name": "newRate",
          "type": "uint256"
        }
      ],
      "name": "updateTokenRate",
      "outputs": [
        {
          "internalType": "bool",
          "name": "",
          "type": "bool"
        }
      ],
      "stateMutability": "nonpayable",
      "type": "function"
    },
    {
      "inputs": [
        {
          "internalType": "contract IEvolveStorage",
          "name": "_storageAddress",
          "type": "address"
        }
      ],
      "name": "updateStorage",
      "outputs": [
        {
          "internalType": "bool",
          "name": "",
          "type": "bool"
        }
      ],
      "stateMutability": "nonpayable",
      "type": "function"
    },
    {
      "inputs": [
        {
          "internalType": "contract IEvolveBulkSender",
          "name": "_bulkSender",
          "type": "address"
        }
      ],
      "name": "updateBulkSender",
      "outputs": [
        {
          "internalType": "bool",
          "name": "",
          "type": "bool"
        }
      ],
      "stateMutability": "nonpayable",
      "type": "function"
    },
    {
      "inputs": [
        {
          "internalType": "contract IERC20",
          "name": "_tokenAddress",
          "type": "address"
        }
      ],
      "name": "updateTokenAddress",
      "outputs": [
        {
          "internalType": "bool",
          "name": "",
          "type": "bool"
        }
      ],
      "stateMutability": "nonpayable",
      "type": "function"
    },
    {
      "inputs": [
        {
          "internalType": "address",
          "name": "_newAdminAddress",
          "type": "address"
        }
      ],
      "name": "updateFactoryAdmin",
      "outputs": [
        {
          "internalType": "bool",
          "name": "",
          "type": "bool"
        }
      ],
      "stateMutability": "nonpayable",
      "type": "function"
    },
    {
      "inputs": [
        {
          "internalType": "uint256",
          "name": "_presetId",
          "type": "uint256"
        },
        {
          "internalType": "address[]",
          "name": "_teamA",
          "type": "address[]"
        },
        {
          "internalType": "address[]",
          "name": "_teamB",
          "type": "address[]"
        },
        {
          "internalType": "bool[]",
          "name": "_boolNeedReplace",
          "type": "bool[]"
        },
        {
          "internalType": "uint256",
          "name": "_createAt",
          "type": "uint256"
        }
      ],
      "name": "addNewCompetion",
      "outputs": [
        {
          "internalType": "uint256",
          "name": "competitionId",
          "type": "uint256"
        }
      ],
      "stateMutability": "nonpayable",
      "type": "function"
    },
    {
      "inputs": [
        {
          "internalType": "uint256",
          "name": "_competionId",
          "type": "uint256"
        },
        {
          "internalType": "uint8",
          "name": "_winnerTeam",
          "type": "uint8"
        }
      ],
      "name": "setCompetionWinner",
      "outputs": [
        {
          "internalType": "bool",
          "name": "",
          "type": "bool"
        }
      ],
      "stateMutability": "nonpayable",
      "type": "function"
    },
    {
      "inputs": [
        {
          "internalType": "uint256",
          "name": "_competionId",
          "type": "uint256"
        }
      ],
      "name": "cancelCompetion",
      "outputs": [
        {
          "internalType": "bool",
          "name": "",
          "type": "bool"
        }
      ],
      "stateMutability": "nonpayable",
      "type": "function"
    },
    {
      "inputs": [
        {
          "internalType": "address",
          "name": "_newFactory",
          "type": "address"
        }
      ],
      "name": "destroyFactory",
      "outputs": [
        {
          "internalType": "bool",
          "name": "",
          "type": "bool"
        }
      ],
      "stateMutability": "nonpayable",
      "type": "function"
    }
  ],
  "bytecode": "0x6080604052670de0b6b3a76400006008553480156200001d57600080fd5b50604051620022b9380380620022b98339810160408190526200004091620001fa565b806200004c33620000b2565b60028054336001600160a01b0319918216179091556001805482166001600160a01b0393841617905562093a806003554260045560058054821687841617905560078054909116918416919091179055620000a78362000102565b50505050506200028d565b600080546001600160a01b038381166001600160a01b0319831681178455604051919092169283917f8be0079c531659141344cd1fd0a4f28419497f9722a3daafe3b4186f6b6457e09190a35050565b600680546001600160a01b0319166001600160a01b03831617905560006200012962000132565b50600192915050565b60065460075460405163095ea7b360e01b81526001600160a01b03928316600482018190526e13426172c74d821da6d934589c0000602483018190526000949193909291169063095ea7b390604401602060405180830381600087803b1580156200019c57600080fd5b505af1158015620001b1573d6000803e3d6000fd5b505050506040513d601f19601f82011682018060405250810190620001d7919062000262565b5060019250505090565b6001600160a01b0381168114620001f757600080fd5b50565b600080600080608085870312156200021157600080fd5b84516200021e81620001e1565b60208601519094506200023181620001e1565b60408601519093506200024481620001e1565b60608601519092506200025781620001e1565b939692955090935050565b6000602082840312156200027557600080fd5b815180151581146200028657600080fd5b9392505050565b61201c806200029d6000396000f3fe608060405234801561001057600080fd5b50600436106101735760003560e01c80638fe3c05f116100de578063ba4bcd7211610097578063e1482b7511610071578063e1482b751461030e578063f2fde38b14610316578063fbaa710e14610329578063fd3e38071461033c57600080fd5b8063ba4bcd72146102e0578063be502888146102e8578063c6c85ca5146102fb57600080fd5b80638fe3c05f14610278578063953759061461028b5780639b89d02c1461029e5780639d76ea58146102b1578063b0f9925f146102c4578063b18e970a146102d757600080fd5b8063588f64e111610130578063588f64e11461021b57806362d957b21461022e5780636691461a14610237578063715018a61461024a57806381bf8ffa146102545780638da5cb5b1461026757600080fd5b8063117193991461017857806311d738991461019457806318bec9e6146101bf5780631b411462146101e25780633b0b4169146101f557806344a381f514610208575b600080fd5b61018160045481565b6040519081526020015b60405180910390f35b6006546101a7906001600160a01b031681565b6040516001600160a01b03909116815260200161018b565b6101d26101cd366004611908565b61034f565b604051901515815260200161018b565b6009546101a7906001600160a01b031681565b610181610203366004611971565b6103a5565b6101d2610216366004611908565b61074a565b6101d2610229366004611908565b61079e565b61018160035481565b6101d2610245366004611908565b6107ee565b61025261083c565b005b6101d2610262366004611a1c565b610872565b6000546001600160a01b03166101a7565b6101d2610286366004611a1c565b6108f3565b6001546101a7906001600160a01b031681565b6101d26102ac366004611a35565b610c1d565b6007546101a7906001600160a01b031681565b6101d26102d2366004611908565b611035565b61018160085481565b6101a761116e565b6005546101a7906001600160a01b031681565b6101d2610309366004611a1c565b6111aa565b6101816111de565b610252610324366004611908565b6111fc565b6101d2610337366004611908565b611297565b6101d261034a366004611908565b6112cb565b600080546001600160a01b031633146103835760405162461bcd60e51b815260040161037a90611a6b565b60405180910390fd5b50600180546001600160a01b0319166001600160a01b0383161781555b919050565b6002546000906001600160a01b0316336001600160a01b031614806103d457506000546001600160a01b031633145b6103f05760405162461bcd60e51b815260040161037a90611aa0565b86851461045e5760405162461bcd60e51b815260206004820152603660248201527f6d656d626572206f66207465616d2041206e65656420746f20626520657175616044820152756c20746f206d656d626572206f66207465616d20422160501b606482015260840161037a565b826104698689611b0b565b146104dc5760405162461bcd60e51b815260206004820152603a60248201527f73756d206f66206c656e677468206f66207465616d73206d757374206265206560448201527f7175616c20746f20626f6f6c207265706c616365206c69737421000000000000606482015260840161037a565b600554604051632aaf12cf60e21b8152600481018b905260009182916001600160a01b039091169063aabc4b3c90602401604080518083038186803b15801561052457600080fd5b505afa158015610538573d6000803e3d6000fd5b505050506040513d601f19601f8201168201806040525081019061055c9190611b23565b90925090508881146105ce5760405162461bcd60e51b815260206004820152603560248201527f7465616d206d656d626572206e65656420746f20626520657175616c207769746044820152746820707265736574207465616d206e756d6265722160581b606482015260840161037a565b60006105f48b8b8b8b8b8b600960009054906101000a90046001600160a01b03166113b1565b9050600061060684600854601261157a565b600654600754604051630e3f971360e41b81529293506000926001600160a01b039283169263e3f971309261064392879289921690600401611b47565b602060405180830381600087803b15801561065d57600080fd5b505af1158015610671573d6000803e3d6000fd5b505050506040513d601f19601f820116820180604052508101906106959190611bc1565b9050600560009054906101000a90046001600160a01b03166001600160a01b031663845348908f8f8f8f8f6008548e6040518863ffffffff1660e01b81526004016106e69796959493929190611c27565b602060405180830381600087803b15801561070057600080fd5b505af1158015610714573d6000803e3d6000fd5b505050506040513d601f19601f820116820180604052508101906107389190611c6b565b9e9d5050505050505050505050505050565b6001546000906001600160a01b031633148061077057506000546001600160a01b031633145b61078c5760405162461bcd60e51b815260040161037a90611c84565b610795826115a4565b50600192915050565b600080546001600160a01b031633146107c95760405162461bcd60e51b815260040161037a90611a6b565b50600580546001600160a01b0383166001600160a01b03199091161790556001919050565b600080546001600160a01b031633146108195760405162461bcd60e51b815260040161037a90611a6b565b600780546001600160a01b0319166001600160a01b03841617905561079561167e565b6000546001600160a01b031633146108665760405162461bcd60e51b815260040161037a90611a6b565b6108706000611729565b565b600080546001600160a01b0316331461089d5760405162461bcd60e51b815260040161037a90611a6b565b816108ea5760405162461bcd60e51b815260206004820152601860248201527f4c6966652074696d652063616e2774206265207a65726f210000000000000000604482015260640161037a565b50600355600190565b6002546000906001600160a01b0316336001600160a01b0316148061092257506000546001600160a01b031633145b61093e5760405162461bcd60e51b815260040161037a90611aa0565b600554604051636a71b83560e11b8152600481018490526000918291829182918291829182916001600160a01b03169063d4e3706a9060240160006040518083038186803b15801561098f57600080fd5b505afa1580156109a3573d6000803e3d6000fd5b505050506040513d6000823e601f3d908101601f191682016040526109cb9190810190611d8e565b965096509650965096509650965082600014610a295760405162461bcd60e51b815260206004820152601e60248201527f7468697320636f6d706574696f6e206973206e6f742070656e64696e67210000604482015260640161037a565b81600414610a495760405162461bcd60e51b815260040161037a90611e22565b600554604051624c2ec760e91b8152600481018b9052600260248201526001600160a01b039091169063985d8e0090604401602060405180830381600087803b158015610a9557600080fd5b505af1158015610aa9573d6000803e3d6000fd5b505050506040513d601f19601f82011682018060405250810190610acd9190611bc1565b506005546040516313c0f1d560e21b8152600481018b9052600160248201526001600160a01b0390911690634f03c75490604401602060405180830381600087803b158015610b1b57600080fd5b505af1158015610b2f573d6000803e3d6000fd5b505050506040513d601f19601f82011682018060405250810190610b539190611bc1565b506000610b608686611779565b905086815114610b6f57600080fd5b6000610b7d8984601261157a565b6006546007546040516302815d3f60e31b81529293506001600160a01b039182169263140ae9f892610bb9928692889290911690600401611b47565b602060405180830381600087803b158015610bd357600080fd5b505af1158015610be7573d6000803e3d6000fd5b505050506040513d601f19601f82011682018060405250810190610c0b9190611bc1565b5060019b9a5050505050505050505050565b6002546000906001600160a01b0316336001600160a01b03161480610c4c57506000546001600160a01b031633145b610c685760405162461bcd60e51b815260040161037a90611aa0565b600554604051636a71b83560e11b8152600481018590526000918291829182918291829182916001600160a01b03169063d4e3706a9060240160006040518083038186803b158015610cb957600080fd5b505afa158015610ccd573d6000803e3d6000fd5b505050506040513d6000823e601f3d908101601f19168201604052610cf59190810190611d8e565b965096509650965096509650965082600014610d535760405162461bcd60e51b815260206004820152601e60248201527f7468697320636f6d706574696f6e206973206e6f742070656e64696e67210000604482015260640161037a565b81600314610d735760405162461bcd60e51b815260040161037a90611e22565b600554604051624c2ec760e91b8152600481018c905260ff8b1660248201526001600160a01b039091169063985d8e0090604401602060405180830381600087803b158015610dc157600080fd5b505af1158015610dd5573d6000803e3d6000fd5b505050506040513d601f19601f82011682018060405250810190610df99190611bc1565b506005546040516313c0f1d560e21b8152600481018c9052600260248201526001600160a01b0390911690634f03c75490604401602060405180830381600087803b158015610e4757600080fd5b505af1158015610e5b573d6000803e3d6000fd5b505050506040513d601f19601f82011682018060405250810190610e7f9190611bc1565b5060606000610e8f8960026118af565b905060ff8b16610ea157869150610ed0565b8a60ff1660011415610eb557859150610ed0565b8a60ff1660021415610ed0575087610ecd8787611779565b91505b8782511480610eeb57508760028351610ee99190611e67565b145b610f835760405162461bcd60e51b815260206004820152605b60248201527f5f77696e6e65725465616d416464726573732e6c656e677468203d3d20706c6160448201527f796572436f756e74207c7c205f77696e6e65725465616d416464726573732e6c60648201527f656e677468203d3d20706c61796572436f756e742e6469762832290000000000608482015260a40161037a565b6000610f918285601261157a565b6006546007546040516302815d3f60e31b81529293506001600160a01b039182169263140ae9f892610fcd928692899290911690600401611b47565b602060405180830381600087803b158015610fe757600080fd5b505af1158015610ffb573d6000803e3d6000fd5b505050506040513d601f19601f8201168201806040525081019061101f9190611bc1565b5060019a50505050505050505050505b92915050565b600080546001600160a01b031633146110605760405162461bcd60e51b815260040161037a90611a6b565b6007546040516370a0823160e01b81523060048201526000916001600160a01b0316906370a082319060240160206040518083038186803b1580156110a457600080fd5b505afa1580156110b8573d6000803e3d6000fd5b505050506040513d601f19601f820116820180604052508101906110dc9190611c6b565b60075460405163a9059cbb60e01b81526001600160a01b0386811660048301526024820184905292935091169063a9059cbb90604401602060405180830381600087803b15801561112c57600080fd5b505af1158015611140573d6000803e3d6000fd5b505050506040513d601f19601f820116820180604052508101906111649190611bc1565b5060019392505050565b6003546004546000914291839161118591906118c2565b90508082106111975760009250505090565b6002546001600160a01b03169250505090565b600080546001600160a01b031633146111d55760405162461bcd60e51b815260040161037a90611a6b565b50600855600190565b60006111f76003546004546118c290919063ffffffff16565b905090565b6000546001600160a01b031633146112265760405162461bcd60e51b815260040161037a90611a6b565b6001600160a01b03811661128b5760405162461bcd60e51b815260206004820152602660248201527f4f776e61626c653a206e6577206f776e657220697320746865207a65726f206160448201526564647265737360d01b606482015260840161037a565b61129481611729565b50565b600080546001600160a01b031633146112c25760405162461bcd60e51b815260040161037a90611a6b565b610795826118ce565b6002546000906001600160a01b0316336001600160a01b031614806112fa57506000546001600160a01b031633145b6113165760405162461bcd60e51b815260040161037a90611aa0565b6009546001600160a01b038381169116141561138c5760405162461bcd60e51b815260206004820152602f60248201527f746865206e657720676966742070726f76696465722063616e6e6f742062652060448201526e73616d65206173206265666f72652160881b606482015260840161037a565b50600980546001600160a01b0383166001600160a01b03199091161790556001919050565b606060006113bf8689611b0b565b67ffffffffffffffff8111156113d7576113d7611ccb565b604051908082528060200260200182016040528015611400578160200160208202803683370190505b50905060005b888110156114a957600086868381811061142257611422611e89565b90506020020160208101906114379190611e9f565b90508061146a578a8a8381811061145057611450611e89565b90506020020160208101906114659190611908565b61146c565b845b83838151811061147e5761147e611e89565b6001600160a01b039092166020928302919091019091015250806114a181611ebc565b915050611406565b60005b8781101561156b5760008787846114c281611ebc565b95508181106114d3576114d3611e89565b90506020020160208101906114e89190611e9f565b905080611526578989836114fb81611ebc565b945081811061150c5761150c611e89565b90506020020160208101906115219190611908565b611528565b855b848461153381611ebc565b95508151811061154557611545611e89565b60200260200101906001600160a01b031690816001600160a01b031681525050506114ac565b50909998505050505050505050565b60008261158883600a611fbb565b6115929086611fc7565b61159c9190611e67565b949350505050565b6001546000906001600160a01b03163314806115ca57506000546001600160a01b031633145b6115e65760405162461bcd60e51b815260040161037a90611c84565b6002546001600160a01b03838116911614156116555760405162461bcd60e51b815260206004820152602860248201527f4e65772061646d696e2063616e27742062652073616d65206173206375727265604482015267373a1030b236b4b760c11b606482015260840161037a565b50600280546001600160a01b0383166001600160a01b0319909116179055426004556001919050565b60065460075460405163095ea7b360e01b81526001600160a01b03928316600482018190526e13426172c74d821da6d934589c0000602483018190526000949193909291169063095ea7b390604401602060405180830381600087803b1580156116e757600080fd5b505af11580156116fb573d6000803e3d6000fd5b505050506040513d601f19601f8201168201806040525081019061171f9190611bc1565b5060019250505090565b600080546001600160a01b038381166001600160a01b0319831681178455604051919092169283917f8be0079c531659141344cd1fd0a4f28419497f9722a3daafe3b4186f6b6457e09190a35050565b606060008251845161178b9190611b0b565b67ffffffffffffffff8111156117a3576117a3611ccb565b6040519080825280602002602001820160405280156117cc578160200160208202803683370190505b50905060005b8451811015611831578481815181106117ed576117ed611e89565b602002602001015182828151811061180757611807611e89565b6001600160a01b03909216602092830291909101909101528061182981611ebc565b9150506117d2565b60005b84518110156118a557848161184881611ebc565b92508151811061185a5761185a611e89565b602002602001015183838061186e90611ebc565b94508151811061188057611880611e89565b60200260200101906001600160a01b031690816001600160a01b031681525050611834565b5090949350505050565b60006118bb8284611fc7565b9392505050565b60006118bb8284611b0b565b600680546001600160a01b0319166001600160a01b038316179055600061079561167e565b6001600160a01b038116811461129457600080fd5b60006020828403121561191a57600080fd5b81356118bb816118f3565b60008083601f84011261193757600080fd5b50813567ffffffffffffffff81111561194f57600080fd5b6020830191508360208260051b850101111561196a57600080fd5b9250929050565b60008060008060008060008060a0898b03121561198d57600080fd5b88359750602089013567ffffffffffffffff808211156119ac57600080fd5b6119b88c838d01611925565b909950975060408b01359150808211156119d157600080fd5b6119dd8c838d01611925565b909750955060608b01359150808211156119f657600080fd5b50611a038b828c01611925565b999c989b50969995989497949560800135949350505050565b600060208284031215611a2e57600080fd5b5035919050565b60008060408385031215611a4857600080fd5b82359150602083013560ff81168114611a6057600080fd5b809150509250929050565b6020808252818101527f4f776e61626c653a2063616c6c6572206973206e6f7420746865206f776e6572604082015260600190565b60208082526035908201527f546f2063616c6c2074686973206d6574686f6420796f75206861766520746f206040820152746265206f776e6572206f722073756241646d696e2160581b606082015260800190565b634e487b7160e01b600052601160045260246000fd5b60008219821115611b1e57611b1e611af5565b500190565b60008060408385031215611b3657600080fd5b505080516020909101519092909150565b6000606082018583526020606081850152818651808452608086019150828801935060005b81811015611b915784516001600160a01b031683529383019391830191600101611b6c565b50506001600160a01b0395909516604094909401939093525091949350505050565b801515811461129457600080fd5b600060208284031215611bd357600080fd5b81516118bb81611bb3565b8183526000602080850194508260005b85811015611c1c578135611c01816118f3565b6001600160a01b031687529582019590820190600101611bee565b509495945050505050565b87815260a060208201526000611c4160a08301888a611bde565b8281036040840152611c54818789611bde565b606084019590955250506080015295945050505050565b600060208284031215611c7d57600080fd5b5051919050565b60208082526027908201527f6f6e6c792061646d696e2075706461746f722063616e2063616c6c2074686973604082015266081b595d1a1bd960ca1b606082015260800190565b634e487b7160e01b600052604160045260246000fd5b80516103a0816118f3565b600082601f830112611cfd57600080fd5b8151602067ffffffffffffffff80831115611d1a57611d1a611ccb565b8260051b604051601f19603f83011681018181108482111715611d3f57611d3f611ccb565b604052938452858101830193838101925087851115611d5d57600080fd5b83870191505b84821015611d8357611d7482611ce1565b83529183019190830190611d63565b979650505050505050565b600080600080600080600060e0888a031215611da957600080fd5b8751965060208801519550604088015167ffffffffffffffff80821115611dcf57600080fd5b611ddb8b838c01611cec565b965060608a0151915080821115611df157600080fd5b50611dfe8a828b01611cec565b9450506080880151925060a0880151915060c0880151905092959891949750929550565b60208082526025908201527f7468697320636f6d706574696f6e20616c7265616479206861766520612077696040820152646e6e65722160d81b606082015260800190565b600082611e8457634e487b7160e01b600052601260045260246000fd5b500490565b634e487b7160e01b600052603260045260246000fd5b600060208284031215611eb157600080fd5b81356118bb81611bb3565b6000600019821415611ed057611ed0611af5565b5060010190565b600181815b80851115611f12578160001904821115611ef857611ef8611af5565b80851615611f0557918102915b93841c9390800290611edc565b509250929050565b600082611f295750600161102f565b81611f365750600061102f565b8160018114611f4c5760028114611f5657611f72565b600191505061102f565b60ff841115611f6757611f67611af5565b50506001821b61102f565b5060208310610133831016604e8410600b8410161715611f95575081810a61102f565b611f9f8383611ed7565b8060001904821115611fb357611fb3611af5565b029392505050565b60006118bb8383611f1a565b6000816000190483118215151615611fe157611fe1611af5565b50029056fea264697066735822122057d2792bdf7369b5a5ac9ac7f0177385d176fc72b547743e9905e4a4a315d69d64736f6c63430008090033",
  "immutableReferences": {},
  "source": "/* SPDX-License-Identifier: MIT OR Apache-2.0 */\npragma solidity ^0.8.9;\nimport \"@openzeppelin/contracts/access/Ownable.sol\";\nimport \"@openzeppelin/contracts/utils/Context.sol\";\nimport \"@openzeppelin/contracts/utils/math/SafeMath.sol\";\nimport \"@openzeppelin/contracts/utils/Address.sol\";\nimport \"@openzeppelin/contracts/token/ERC20/ERC20.sol\";\nimport \"@openzeppelin/contracts/token/ERC20/utils/SafeERC20.sol\";\nimport \"./EvolveAccessControll.sol\";\nimport \"./IEvolveStorage.sol\";\nimport \"./IEvolveBulkSender.sol\";\nimport \"./IEvolveFactory.sol\";\ncontract EvolveFactory is Context, Ownable, EvolveAccessControll, IEvolveFactory {\n\n    using Address for address;\n    using SafeMath for uint256;\n    using SafeERC20 for ERC20;\n\n    IEvolveStorage public evolveStorage;\n    IEvolveBulkSender public evolveBulkSender;\n    IERC20 public tokenAddress;\n    uint256 public tokenPriceByUSD = 1e18;\n    address public giftTokenProvider;\n\n    constructor(IEvolveStorage _storageAddress , IEvolveBulkSender _bulkSender,IERC20 _tokenAddress, address _adminUpdater) EvolveAccessControll(_adminUpdater){\n        evolveStorage = _storageAddress;\n        tokenAddress = _tokenAddress;\n        _updateBulkSender(_bulkSender);\n    }\n\n    function updateGiftTokenProvider(address _newGiftProvider) external ownerOrAdmin returns(bool){\n        require(_newGiftProvider != giftTokenProvider, \"the new gift provider cannot be same as before!\");\n        giftTokenProvider = _newGiftProvider;\n        return true;\n    }\n\n    function updateTokenRate(uint newRate) external onlyOwner returns(bool){\n       tokenPriceByUSD = newRate;\n       return true; \n    }\n\n    function updateStorage(IEvolveStorage _storageAddress) external override onlyOwner returns(bool){\n        evolveStorage = _storageAddress;\n        return true;\n    }\n\n    function updateBulkSender(IEvolveBulkSender _bulkSender) external override onlyOwner returns(bool){\n        _updateBulkSender(_bulkSender);\n        return true;\n    }\n\n    function _updateBulkSender(IEvolveBulkSender _bulkSender) private returns(bool){\n        evolveBulkSender = _bulkSender;\n        approveToBulkSender();\n        return true;\n    }\n\n    function updateTokenAddress(IERC20 _tokenAddress) external override onlyOwner returns(bool){\n        tokenAddress = _tokenAddress;\n        approveToBulkSender();\n        return true;\n    }\n\n    function approveToBulkSender() private returns(bool){\n        address to = address(evolveBulkSender);\n        uint256 amount = 99999999999999999e18;\n\n        tokenAddress.approve(to, amount);\n        return true;\n    }\n\n\n    function updateFactoryAdmin(address _newAdminAddress) external override  isAdminUpdator returns(bool){\n        super.updateAdmin(_newAdminAddress);\n        return true;\n    }\n\n    function addNewCompetion(uint256 _presetId, address[] calldata _teamA, address[] calldata _teamB , bool[] calldata _boolNeedReplace, uint256 _createAt) external override ownerOrAdmin returns(uint256 competitionId){\n        require(_teamA.length == _teamB.length , \"member of team A need to be equal to member of team B!\");\n        require(_teamA.length + _teamB.length == _boolNeedReplace.length, \"sum of length of teams must be equal to bool replace list!\");\n        (uint matchPrice,uint playerNumber) = evolveStorage.getPreset(_presetId);\n\n        require(_teamA.length == playerNumber, \"team member need to be equal with preset team number!\");\n        address[] memory allPlayerAddressList = concatenateArraysWithReplaceAddress(_teamA, _teamB,_boolNeedReplace,giftTokenProvider);\n        \n        uint256 competionPriceByToken = calculateMatchPrice(matchPrice, tokenPriceByUSD, 18);\n        bool isBulked =  evolveBulkSender.bulkReceive(competionPriceByToken, allPlayerAddressList, address(tokenAddress));\n        \n        competitionId = evolveStorage.addNewCompetion(_presetId, _teamA, _teamB, tokenPriceByUSD, _createAt);\n        return competitionId;\n    }\n\n    \n\n    function setCompetionWinner(uint256 _competionId, uint8 _winnerTeam) external override  ownerOrAdmin returns(bool){\n\n       (uint256 presetPrice,uint256 playerCount,address[] memory _teamA, address[] memory _teamB, uint _competionStatus, uint _competionWinner, uint _priceRate) = evolveStorage.getCompetion(_competionId);\n\n       require(_competionStatus == 0, \"this competion is not pending!\");\n       require(_competionWinner == 3, \"this competion already have a winner!\");\n\n       evolveStorage.updateCompetionWinner(_competionId, _winnerTeam);\n       evolveStorage.updateCompetionStatus(_competionId, 2);\n\n       address[] memory _winnerTeamAddress;\n       uint competionReward = presetPrice.mul(2);\n\n       if(_winnerTeam == 0){\n           _winnerTeamAddress = _teamA;\n       }\n       else if(_winnerTeam == 1){\n           _winnerTeamAddress = _teamB;\n       }\n       else if(_winnerTeam == 2){\n           competionReward = presetPrice;\n           _winnerTeamAddress = concatenateArrays(_teamA, _teamB);\n       }\n\n       require(_winnerTeamAddress.length == playerCount || _winnerTeamAddress.length / 2  == playerCount  , \"_winnerTeamAddress.length == playerCount || _winnerTeamAddress.length == playerCount.div(2)\");\n       uint competionPriceByToken = calculateMatchPrice(competionReward, _priceRate, 18);\n       evolveBulkSender.bulkWithdraw(competionPriceByToken, _winnerTeamAddress, address(tokenAddress));\n\n       return true;\n    }\n\n    function cancelCompetion(uint256 _competionId) external override ownerOrAdmin returns(bool){\n\n        (uint256 presetPrice,uint256 playerCount,address[] memory _teamA, address[] memory _teamB, uint _competionStatus, uint _competionWinner, uint256 _priceRate ) = evolveStorage.getCompetion(_competionId);\n\n        require(_competionStatus == 0, \"this competion is not pending!\");\n        require(_competionWinner == 4, \"this competion already have a winner!\");\n\n        evolveStorage.updateCompetionWinner(_competionId, 2);\n        evolveStorage.updateCompetionStatus(_competionId, 1);\n        \n        address[] memory _winnerTeamAddress = concatenateArrays(_teamA, _teamB);\n\n        require(_winnerTeamAddress.length == playerCount);\n        uint competionPriceByToken = calculateMatchPrice(presetPrice, _priceRate, 18);\n        \n        evolveBulkSender.bulkWithdraw( competionPriceByToken, _winnerTeamAddress, address(tokenAddress));\n        return true;\n    }\n\n    function destroyFactory(address _newFactory) external override onlyOwner returns(bool){\n        uint tokenBalnce = tokenAddress.balanceOf(address(this));\n        tokenAddress.transfer(_newFactory, tokenBalnce);\n        return true;\n    }\n    \n\n    function concatenateArrays(address[] memory _Accounts, address[] memory _Accounts2) private pure returns(address[] memory) {\n        address[] memory returnArr = new address[](_Accounts.length + _Accounts2.length);\n\n        uint i=0;\n        for (; i < _Accounts.length; i++) {\n            returnArr[i] = _Accounts[i];\n        }\n\n        uint j=0;\n        while (j < _Accounts2.length) {\n            returnArr[i++] = _Accounts2[j++];\n        }\n\n        return returnArr;\n    } \n\n    function concatenateArraysWithReplaceAddress(address[] calldata _Accounts, address[] calldata _Accounts2 , bool[] calldata _replaceAddressList, address _replaceAddress) private pure returns(address[] memory) {\n        address[] memory returnArr = new address[](_Accounts.length + _Accounts2.length);\n\n        uint i=0;\n        for (; i < _Accounts.length; i++) {\n            bool _needReplace =  _replaceAddressList[i];\n            returnArr[i] = _needReplace ? _replaceAddress : _Accounts[i];\n        }\n\n        uint j=0;\n        while (j < _Accounts2.length) {\n            bool _needReplace =  _replaceAddressList[i++];\n            returnArr[i++] =_needReplace ?  _replaceAddress :  _Accounts2[j++];\n        }\n\n        return returnArr;\n    }\n\n    function calculateMatchPrice(uint _competionPrice, uint _priceRate, uint precision) private pure returns(uint){\n        return _competionPrice*(10**precision)/_priceRate;\n    }\n\n}",
  "sourcePath": "/home/fibo/Documents/workspace/evovleTrufProject/contracts/EvolveFactory.sol",
  "compiler": {
    "name": "solc",
    "version": "0.8.9+commit.e5eed63a.Emscripten.clang"
  },
  "schemaVersion": "3.4.7",
  "updatedAt": "2022-05-22T05:54:31.896Z",
  "networkType": "ethereum",
  "devdoc": {
    "kind": "dev",
    "methods": {
      "owner()": {
        "details": "Returns the address of the current owner."
      },
      "renounceOwnership()": {
        "details": "Leaves the contract without owner. It will not be possible to call `onlyOwner` functions anymore. Can only be called by the current owner. NOTE: Renouncing ownership will leave the contract without an owner, thereby removing any functionality that is only available to the owner."
      },
      "transferOwnership(address)": {
        "details": "Transfers ownership of the contract to a new account (`newOwner`). Can only be called by the current owner."
      }
    },
    "version": 1
  },
  "userdoc": {
    "kind": "user",
    "methods": {},
    "version": 1
  }
}