{
  "contractName": "EvolveAccessControll",
  "abi": [
    {
      "inputs": [
        {
          "internalType": "address",
          "name": "_adminUpdater",
          "type": "address"
        }
      ],
      "stateMutability": "nonpayable",
      "type": "constructor"
    },
    {
      "anonymous": false,
      "inputs": [
        {
          "indexed": true,
          "internalType": "address",
          "name": "previousOwner",
          "type": "address"
        },
        {
          "indexed": true,
          "internalType": "address",
          "name": "newOwner",
          "type": "address"
        }
      ],
      "name": "OwnershipTransferred",
      "type": "event"
    },
    {
      "inputs": [],
      "name": "adminLifeTime",
      "outputs": [
        {
          "internalType": "uint256",
          "name": "",
          "type": "uint256"
        }
      ],
      "stateMutability": "view",
      "type": "function"
    },
    {
      "inputs": [],
      "name": "adminUpdateTime",
      "outputs": [
        {
          "internalType": "uint256",
          "name": "",
          "type": "uint256"
        }
      ],
      "stateMutability": "view",
      "type": "function"
    },
    {
      "inputs": [],
      "name": "adminUpdater",
      "outputs": [
        {
          "internalType": "address",
          "name": "",
          "type": "address"
        }
      ],
      "stateMutability": "view",
      "type": "function"
    },
    {
      "inputs": [],
      "name": "owner",
      "outputs": [
        {
          "internalType": "address",
          "name": "",
          "type": "address"
        }
      ],
      "stateMutability": "view",
      "type": "function"
    },
    {
      "inputs": [],
      "name": "renounceOwnership",
      "outputs": [],
      "stateMutability": "nonpayable",
      "type": "function"
    },
    {
      "inputs": [
        {
          "internalType": "address",
          "name": "newOwner",
          "type": "address"
        }
      ],
      "name": "transferOwnership",
      "outputs": [],
      "stateMutability": "nonpayable",
      "type": "function"
    },
    {
      "inputs": [],
      "name": "currentAdmin",
      "outputs": [
        {
          "internalType": "address",
          "name": "result",
          "type": "address"
        }
      ],
      "stateMutability": "view",
      "type": "function"
    },
    {
      "inputs": [],
      "name": "adminExpireDate",
      "outputs": [
        {
          "internalType": "uint256",
          "name": "_expierDate",
          "type": "uint256"
        }
      ],
      "stateMutability": "view",
      "type": "function"
    },
    {
      "inputs": [
        {
          "internalType": "uint256",
          "name": "_newLifeTime",
          "type": "uint256"
        }
      ],
      "name": "chnageAdminLifeTime",
      "outputs": [
        {
          "internalType": "bool",
          "name": "",
          "type": "bool"
        }
      ],
      "stateMutability": "nonpayable",
      "type": "function"
    },
    {
      "inputs": [
        {
          "internalType": "address",
          "name": "_newAdminUpdater",
          "type": "address"
        }
      ],
      "name": "updateAdminUpdater",
      "outputs": [
        {
          "internalType": "bool",
          "name": "",
          "type": "bool"
        }
      ],
      "stateMutability": "nonpayable",
      "type": "function"
    }
  ],
  "bytecode": "0x608060405234801561001057600080fd5b506040516105a13803806105a183398101604081905261002f916100c6565b61003833610076565b600280546001600160a01b03199081163317909155600180549091166001600160a01b039290921691909117905562093a80600355426004556100f6565b600080546001600160a01b038381166001600160a01b0319831681178455604051919092169283917f8be0079c531659141344cd1fd0a4f28419497f9722a3daafe3b4186f6b6457e09190a35050565b6000602082840312156100d857600080fd5b81516001600160a01b03811681146100ef57600080fd5b9392505050565b61049c806101056000396000f3fe608060405234801561001057600080fd5b506004361061009e5760003560e01c80638da5cb5b116100665780638da5cb5b14610108578063953759061461012d578063ba4bcd7214610140578063e1482b7514610148578063f2fde38b1461015057600080fd5b806311719399146100a357806318bec9e6146100bf57806362d957b2146100e2578063715018a6146100eb57806381bf8ffa146100f5575b600080fd5b6100ac60045481565b6040519081526020015b60405180910390f35b6100d26100cd3660046103c9565b610163565b60405190151581526020016100b6565b6100ac60035481565b6100f36101ba565b005b6100d26101033660046103f2565b6101f0565b6000546001600160a01b03165b6040516001600160a01b0390911681526020016100b6565b600154610115906001600160a01b031681565b610115610271565b6100ac6102ad565b6100f361015e3660046103c9565b6102cb565b600080546001600160a01b031633146101975760405162461bcd60e51b815260040161018e9061040b565b60405180910390fd5b50600180546001600160a01b0383166001600160a01b0319909116178155919050565b6000546001600160a01b031633146101e45760405162461bcd60e51b815260040161018e9061040b565b6101ee6000610366565b565b600080546001600160a01b0316331461021b5760405162461bcd60e51b815260040161018e9061040b565b816102685760405162461bcd60e51b815260206004820152601860248201527f4c6966652074696d652063616e2774206265207a65726f210000000000000000604482015260640161018e565b50600355600190565b6003546004546000914291839161028891906103b6565b905080821061029a5760009250505090565b6002546001600160a01b03169250505090565b60006102c66003546004546103b690919063ffffffff16565b905090565b6000546001600160a01b031633146102f55760405162461bcd60e51b815260040161018e9061040b565b6001600160a01b03811661035a5760405162461bcd60e51b815260206004820152602660248201527f4f776e61626c653a206e6577206f776e657220697320746865207a65726f206160448201526564647265737360d01b606482015260840161018e565b61036381610366565b50565b600080546001600160a01b038381166001600160a01b0319831681178455604051919092169283917f8be0079c531659141344cd1fd0a4f28419497f9722a3daafe3b4186f6b6457e09190a35050565b60006103c28284610440565b9392505050565b6000602082840312156103db57600080fd5b81356001600160a01b03811681146103c257600080fd5b60006020828403121561040457600080fd5b5035919050565b6020808252818101527f4f776e61626c653a2063616c6c6572206973206e6f7420746865206f776e6572604082015260600190565b6000821982111561046157634e487b7160e01b600052601160045260246000fd5b50019056fea2646970667358221220896d5f75f60ddeb9cdecafe634479582fb9e9b8d63c4c3edf45851581969357164736f6c63430008090033",
  "immutableReferences": {},
  "source": "/* SPDX-License-Identifier: MIT OR Apache-2.0 */\npragma solidity ^0.8.9;\n\nimport \"@openzeppelin/contracts/access/Ownable.sol\";\nimport \"@openzeppelin/contracts/utils/Context.sol\";\nimport \"@openzeppelin/contracts/utils/Address.sol\";\nimport \"@openzeppelin/contracts/utils/math/SafeMath.sol\";\n\ncontract EvolveAccessControll is Context, Ownable{\n    using SafeMath for uint256;\n    using Address for address;\n\n    address public adminUpdater;\n    address private admin;\n    uint256 public adminLifeTime;\n    uint256 public adminUpdateTime;\n    constructor(address _adminUpdater){\n        admin = _msgSender();\n        adminUpdater= _adminUpdater;\n        // default life time is 1 week\n        adminLifeTime = 3600 * 24 * 7; \n        adminUpdateTime = block.timestamp;\n    }\n\n    modifier checkAdminExpireDate {\n        uint256 _timestamp = block.timestamp;\n        uint256 _expireTime = adminUpdateTime.add(adminLifeTime);\n        if(_timestamp >= _expireTime){\n            admin = address(0);\n        }\n        _;\n    }\n\n    modifier onlyAdmin {\n        require(admin == _msgSender(), \"Only sub admin can call this method.\");\n        _;\n    }\n\n    modifier ownerOrAdmin {\n        require(_msgSender() == admin || _msgSender() == owner(), \"To call this method you have to be owner or subAdmin!\");\n         _;\n    }\n\n    modifier isAdminUpdator{\n        require(adminUpdater == _msgSender() || _msgSender() == owner() , \"only admin updator can call this method\");\n        _;\n    }\n\n    function currentAdmin() external  view returns(address result){\n        uint256 _timestamp = block.timestamp;\n        uint256 _expireTime = adminUpdateTime.add(adminLifeTime);\n        if(_timestamp >= _expireTime){\n            result = address(0);\n        }else{\n            result = admin;\n        }\n    }\n\n    function adminExpireDate() external view returns(uint256 _expierDate){\n        _expierDate = adminUpdateTime.add(adminLifeTime);\n    }\n\n    function chnageAdminLifeTime(uint256 _newLifeTime) external  onlyOwner returns(bool){\n        require(_newLifeTime != 0, \"Life time can't be zero!\");\n        adminLifeTime = _newLifeTime;\n        return true;\n    }\n\n    function updateAdmin(address _newAdmin) internal  isAdminUpdator returns(bool){\n        require(admin != _newAdmin, \"New admin can't be same as current admin\");\n        admin = _newAdmin;\n        uint256 _timestamp = block.timestamp;\n        adminUpdateTime = _timestamp;\n        return true;\n    }\n\n    function updateAdminUpdater(address _newAdminUpdater) external  onlyOwner returns (bool){\n        adminUpdater = _newAdminUpdater;\n        return true;\n    }\n}",
  "sourcePath": "/home/fibo/Documents/workspace/evovleTrufProject/contracts/EvolveAccessControll.sol",
  "compiler": {
    "name": "solc",
    "version": "0.8.9+commit.e5eed63a.Emscripten.clang"
  },
  "schemaVersion": "3.4.7",
  "updatedAt": "2022-05-20T08:40:09.405Z",
  "devdoc": {
    "kind": "dev",
    "methods": {
      "owner()": {
        "details": "Returns the address of the current owner."
      },
      "renounceOwnership()": {
        "details": "Leaves the contract without owner. It will not be possible to call `onlyOwner` functions anymore. Can only be called by the current owner. NOTE: Renouncing ownership will leave the contract without an owner, thereby removing any functionality that is only available to the owner."
      },
      "transferOwnership(address)": {
        "details": "Transfers ownership of the contract to a new account (`newOwner`). Can only be called by the current owner."
      }
    },
    "version": 1
  },
  "userdoc": {
    "kind": "user",
    "methods": {},
    "version": 1
  }
}