{
  "contractName": "EvolveBulkSender",
  "abi": [
    {
      "inputs": [],
      "stateMutability": "nonpayable",
      "type": "constructor"
    },
    {
      "anonymous": false,
      "inputs": [
        {
          "indexed": true,
          "internalType": "address",
          "name": "_receiver",
          "type": "address"
        },
        {
          "indexed": true,
          "internalType": "address[]",
          "name": "_payers",
          "type": "address[]"
        },
        {
          "indexed": false,
          "internalType": "uint256",
          "name": "_amount",
          "type": "uint256"
        },
        {
          "indexed": false,
          "internalType": "address",
          "name": "_executor",
          "type": "address"
        }
      ],
      "name": "BulkReceive",
      "type": "event"
    },
    {
      "anonymous": false,
      "inputs": [
        {
          "indexed": true,
          "internalType": "address",
          "name": "_payer",
          "type": "address"
        },
        {
          "indexed": true,
          "internalType": "address[]",
          "name": "_receiver",
          "type": "address[]"
        },
        {
          "indexed": false,
          "internalType": "uint256",
          "name": "_amount",
          "type": "uint256"
        },
        {
          "indexed": false,
          "internalType": "address",
          "name": "_executor",
          "type": "address"
        }
      ],
      "name": "BulkWithdraw",
      "type": "event"
    },
    {
      "anonymous": false,
      "inputs": [
        {
          "indexed": true,
          "internalType": "address",
          "name": "previousOwner",
          "type": "address"
        },
        {
          "indexed": true,
          "internalType": "address",
          "name": "newOwner",
          "type": "address"
        }
      ],
      "name": "OwnershipTransferred",
      "type": "event"
    },
    {
      "inputs": [],
      "name": "owner",
      "outputs": [
        {
          "internalType": "address",
          "name": "",
          "type": "address"
        }
      ],
      "stateMutability": "view",
      "type": "function"
    },
    {
      "inputs": [],
      "name": "renounceOwnership",
      "outputs": [],
      "stateMutability": "nonpayable",
      "type": "function"
    },
    {
      "inputs": [
        {
          "internalType": "address",
          "name": "newOwner",
          "type": "address"
        }
      ],
      "name": "transferOwnership",
      "outputs": [],
      "stateMutability": "nonpayable",
      "type": "function"
    },
    {
      "inputs": [],
      "name": "factoryAddress",
      "outputs": [
        {
          "internalType": "address",
          "name": "",
          "type": "address"
        }
      ],
      "stateMutability": "view",
      "type": "function"
    },
    {
      "inputs": [
        {
          "internalType": "address",
          "name": "_newFactoryAddress",
          "type": "address"
        }
      ],
      "name": "updateFactoryAddress",
      "outputs": [
        {
          "internalType": "bool",
          "name": "",
          "type": "bool"
        }
      ],
      "stateMutability": "nonpayable",
      "type": "function"
    },
    {
      "inputs": [
        {
          "internalType": "uint256",
          "name": "_amount",
          "type": "uint256"
        },
        {
          "internalType": "address[]",
          "name": "_payers",
          "type": "address[]"
        },
        {
          "internalType": "address",
          "name": "_ERCTokenAddress",
          "type": "address"
        }
      ],
      "name": "bulkReceive",
      "outputs": [
        {
          "internalType": "bool",
          "name": "",
          "type": "bool"
        }
      ],
      "stateMutability": "nonpayable",
      "type": "function"
    },
    {
      "inputs": [
        {
          "internalType": "uint256",
          "name": "_amount",
          "type": "uint256"
        },
        {
          "internalType": "address[]",
          "name": "_receivers",
          "type": "address[]"
        },
        {
          "internalType": "address",
          "name": "_ERC20Address",
          "type": "address"
        }
      ],
      "name": "bulkWithdraw",
      "outputs": [
        {
          "internalType": "bool",
          "name": "",
          "type": "bool"
        }
      ],
      "stateMutability": "nonpayable",
      "type": "function"
    }
  ],
  "bytecode": "0x608060405234801561001057600080fd5b5061001a33610031565b600180546001600160a01b03191633179055610081565b600080546001600160a01b038381166001600160a01b0319831681178455604051919092169283917f8be0079c531659141344cd1fd0a4f28419497f9722a3daafe3b4186f6b6457e09190a35050565b610b9b806100906000396000f3fe608060405234801561001057600080fd5b506004361061007d5760003560e01c80638da5cb5b1161005b5780638da5cb5b146100c7578063966dae0e146100ec578063e3f97130146100fd578063f2fde38b1461011057600080fd5b8063140ae9f814610082578063551ee570146100aa578063715018a6146100bd575b600080fd5b6100956100903660046108c5565b610123565b60405190151581526020015b60405180910390f35b6100956100b83660046109a6565b61019b565b6100c56101e8565b005b6000546001600160a01b03165b6040516001600160a01b0390911681526020016100a1565b6001546001600160a01b03166100d4565b61009561010b3660046108c5565b61021e565b6100c561011e3660046109a6565b610282565b60006101376001546001600160a01b031690565b6001600160a01b0316336001600160a01b0316148061016057506000546001600160a01b031633145b6101855760405162461bcd60e51b815260040161017c906109c1565b60405180910390fd5b61019084848461031d565b5060015b9392505050565b600080546001600160a01b031633146101c65760405162461bcd60e51b815260040161017c90610a15565b50600180546001600160a01b0319166001600160a01b0383161781555b919050565b6000546001600160a01b031633146102125760405162461bcd60e51b815260040161017c90610a15565b61021c6000610470565b565b60006102326001546001600160a01b031690565b6001600160a01b0316336001600160a01b0316148061025b57506000546001600160a01b031633145b6102775760405162461bcd60e51b815260040161017c906109c1565b6101908484846104c0565b6000546001600160a01b031633146102ac5760405162461bcd60e51b815260040161017c90610a15565b6001600160a01b0381166103115760405162461bcd60e51b815260206004820152602660248201527f4f776e61626c653a206e6577206f776e657220697320746865207a65726f206160448201526564647265737360d01b606482015260840161017c565b61031a81610470565b50565b6001546001600160a01b031661039b5760405162461bcd60e51b815260206004820152603a60248201527f466163746f7279206164647265737320696e206e6f7420646566696e6564206160448201527f6e64207765206e65656420666f722070617920616d6f756e7421000000000000606482015260840161017c565b8060005b83518110156104025760015484516103f0916001600160a01b0316908690849081106103cd576103cd610a4a565b602002602001015187856001600160a01b03166105e0909392919063ffffffff16565b806103fa81610a60565b91505061039f565b50826040516104119190610a89565b6040519081900390206001546001600160a01b03167fb2075be88731c8e582e9ba28dc49db7ce378e050590608d557b8fd22af4cb81886335b604080519283526001600160a01b0390911660208301520160405180910390a350505050565b600080546001600160a01b038381166001600160a01b0319831681178455604051919092169283917f8be0079c531659141344cd1fd0a4f28419497f9722a3daafe3b4186f6b6457e09190a35050565b6001546001600160a01b031661053e5760405162461bcd60e51b815260206004820152603e60248201527f466163746f7279206164647265737320696e206e6f7420646566696e6564206160448201527f6e64207765206e65656420666f72207265636965766520616d6f756e74210000606482015260840161017c565b8060005b83518110156105945761058284828151811061056057610560610a4a565b60209081029190910101516001546001600160a01b03858116929116886105e0565b8061058c81610a60565b915050610542565b50826040516105a39190610a89565b6040519081900390206001546001600160a01b03167f2d6e5aaa5a85603975ea2cf2262e24e32f9a22d4c942aa7efbc82f6700486df0863361044a565b604080516001600160a01b0385811660248301528416604482015260648082018490528251808303909101815260849091019091526020810180516001600160e01b03166323b872dd60e01b17905261063a908590610640565b50505050565b6000610695826040518060400160405280602081526020017f5361666545524332303a206c6f772d6c6576656c2063616c6c206661696c6564815250856001600160a01b03166107179092919063ffffffff16565b80519091501561071257808060200190518101906106b39190610ac8565b6107125760405162461bcd60e51b815260206004820152602a60248201527f5361666545524332303a204552433230206f7065726174696f6e20646964206e6044820152691bdd081cdd58d8d9595960b21b606482015260840161017c565b505050565b6060610726848460008561072e565b949350505050565b60608247101561078f5760405162461bcd60e51b815260206004820152602660248201527f416464726573733a20696e73756666696369656e742062616c616e636520666f6044820152651c8818d85b1b60d21b606482015260840161017c565b6001600160a01b0385163b6107e65760405162461bcd60e51b815260206004820152601d60248201527f416464726573733a2063616c6c20746f206e6f6e2d636f6e7472616374000000604482015260640161017c565b600080866001600160a01b031685876040516108029190610b16565b60006040518083038185875af1925050503d806000811461083f576040519150601f19603f3d011682016040523d82523d6000602084013e610844565b606091505b509150915061085482828661085f565b979650505050505050565b6060831561086e575081610194565b82511561087e5782518084602001fd5b8160405162461bcd60e51b815260040161017c9190610b32565b634e487b7160e01b600052604160045260246000fd5b80356001600160a01b03811681146101e357600080fd5b6000806000606084860312156108da57600080fd5b8335925060208085013567ffffffffffffffff808211156108fa57600080fd5b818701915087601f83011261090e57600080fd5b81358181111561092057610920610898565b8060051b604051601f19603f8301168101818110858211171561094557610945610898565b60405291825284820192508381018501918a83111561096357600080fd5b938501935b8285101561098857610979856108ae565b84529385019392850192610968565b80975050505050505061099d604085016108ae565b90509250925092565b6000602082840312156109b857600080fd5b610194826108ae565b60208082526034908201527f546f2063616c6c2074686973206d6574686f6420796f75206861766520746f206040820152736265206f776e6572206f7220666163746f72792160601b606082015260800190565b6020808252818101527f4f776e61626c653a2063616c6c6572206973206e6f7420746865206f776e6572604082015260600190565b634e487b7160e01b600052603260045260246000fd5b6000600019821415610a8257634e487b7160e01b600052601160045260246000fd5b5060010190565b815160009082906020808601845b83811015610abc5781516001600160a01b031685529382019390820190600101610a97565b50929695505050505050565b600060208284031215610ada57600080fd5b8151801515811461019457600080fd5b60005b83811015610b05578181015183820152602001610aed565b8381111561063a5750506000910152565b60008251610b28818460208701610aea565b9190910192915050565b6020815260008251806020840152610b51816040850160208701610aea565b601f01601f1916919091016040019291505056fea264697066735822122070c95f4c10b6b9c196740b82ea30305882c8dc3ea42f2b3311ce693e8973c92164736f6c63430008090033",
  "immutableReferences": {},
  "source": "/* SPDX-License-Identifier: MIT OR Apache-2.0 */\npragma solidity ^0.8.9;\n\nimport \"@openzeppelin/contracts/access/Ownable.sol\";\nimport \"@openzeppelin/contracts/utils/Context.sol\";\nimport \"@openzeppelin/contracts/utils/Address.sol\";\nimport \"@openzeppelin/contracts/utils/math/SafeMath.sol\";\nimport \"@openzeppelin/contracts/token/ERC20/ERC20.sol\";\nimport \"@openzeppelin/contracts/token/ERC20/utils/SafeERC20.sol\";\n\nimport \"./IEvolveBulkSender.sol\";\n\ncontract EvolveBulkSender is Context, Ownable, IEvolveBulkSender{\n    using SafeMath for uint256;\n    using Address for address;\n    using SafeERC20 for IERC20;\n    \n    address private _factoryAddress ;\n\n    constructor(){\n        _factoryAddress = _msgSender();\n    }\n\n    /* -------------------------------------------------------------------------- */\n    /*                                  Modifiers                                 */\n    modifier onlyFactory {\n        require(_msgSender() == _factoryAddress, \"Only factory can call this method.\");\n        _;\n    }\n    modifier factoryOrOwner() {\n        require(_msgSender() == factoryAddress() || _msgSender() == owner(), \"To call this method you have to be owner or factory!\");\n        _;\n    }\n    /* -------------------------------------------------------------------------- */\n\n    /* -------------------------------------------------------------------------- */\n    /*                                   Events                                   */\n    \n    event BulkReceive(address indexed _receiver, address[] indexed _payers, uint256 _amount, address _executor);\n    event BulkWithdraw(address indexed _payer, address[] indexed _receiver, uint256 _amount, address _executor);\n    /* -------------------------------------------------------------------------- */\n\n    /* -------------------------------------------------------------------------- */\n    /*                                 factory funcs                              */\n    function factoryAddress() public override view returns (address) {\n        return _factoryAddress;\n    }\n    \n    function updateFactoryAddress(address _newFactoryAddress) external override onlyOwner() returns(bool){\n        _updateFactoryAddress(_newFactoryAddress);\n        return true;\n    }\n\n    function _updateFactoryAddress(address _newFactoryAddress) private returns(bool){\n        _factoryAddress = _newFactoryAddress;\n        return true;\n    }\n    /* -------------------------------------------------------------------------- */\n\n    function bulkReceive(uint256 _amount, address[] memory _payers, address _ERCTokenAddress) external override factoryOrOwner()  returns (bool) {\n        _bulkReceive(_amount,_payers,_ERCTokenAddress );\n        return true;\n    }\n\n    function _bulkReceive(uint256 _amount, address[] memory _payers, address _ERCTokenAddress) private {\n        require(_factoryAddress != address(0) , \"Factory address in not defined and we need for recieve amount!\");\n\n        IERC20 token = IERC20(_ERCTokenAddress);\n\n        for (uint256 i = 0; i < _payers.length; i++ ){\n            token.safeTransferFrom(_payers[i], _factoryAddress , _amount);\n        }\n\n        emit BulkReceive( _factoryAddress, _payers , _amount, _msgSender());\n    }\n\n    function bulkWithdraw(uint256 _amount, address[] memory _receivers, address _ERC20Address) external override  factoryOrOwner() returns(bool) {\n        _bulkWithdraw(_amount, _receivers, _ERC20Address);\n        return true;\n    }\n\n    function _bulkWithdraw(uint256 _amount, address[] memory _receivers, address _ERC20Address) private  {\n        require(_factoryAddress != address(0) , \"Factory address in not defined and we need for pay amount!\");\n\n        IERC20 token = IERC20(_ERC20Address);\n\n        for (uint256 i = 0; i < _receivers.length; i++ ){\n            token.safeTransferFrom( _factoryAddress, _receivers[i], _amount);\n        }\n\n        emit BulkWithdraw(_factoryAddress, _receivers, _amount, _msgSender());\n    }\n\n}",
  "sourcePath": "/home/fibo/Documents/workspace/evovleTrufProject/contracts/EvolveBulkSender.sol",
  "compiler": {
    "name": "solc",
    "version": "0.8.9+commit.e5eed63a.Emscripten.clang"
  },
  "schemaVersion": "3.4.7",
  "updatedAt": "2022-05-20T08:40:09.408Z",
  "devdoc": {
    "kind": "dev",
    "methods": {
      "owner()": {
        "details": "Returns the address of the current owner."
      },
      "renounceOwnership()": {
        "details": "Leaves the contract without owner. It will not be possible to call `onlyOwner` functions anymore. Can only be called by the current owner. NOTE: Renouncing ownership will leave the contract without an owner, thereby removing any functionality that is only available to the owner."
      },
      "transferOwnership(address)": {
        "details": "Transfers ownership of the contract to a new account (`newOwner`). Can only be called by the current owner."
      }
    },
    "version": 1
  },
  "userdoc": {
    "kind": "user",
    "methods": {},
    "version": 1
  }
}