{
  "contractName": "EvolveStorage",
  "abi": [
    {
      "inputs": [],
      "stateMutability": "nonpayable",
      "type": "constructor"
    },
    {
      "anonymous": false,
      "inputs": [
        {
          "indexed": true,
          "internalType": "address",
          "name": "previousOwner",
          "type": "address"
        },
        {
          "indexed": true,
          "internalType": "address",
          "name": "newOwner",
          "type": "address"
        }
      ],
      "name": "OwnershipTransferred",
      "type": "event"
    },
    {
      "inputs": [
        {
          "internalType": "uint256",
          "name": "",
          "type": "uint256"
        }
      ],
      "name": "competionList",
      "outputs": [
        {
          "components": [
            {
              "internalType": "uint256",
              "name": "matchPrice",
              "type": "uint256"
            },
            {
              "internalType": "uint256",
              "name": "numberOfTeamMemebr",
              "type": "uint256"
            },
            {
              "internalType": "uint256",
              "name": "date",
              "type": "uint256"
            },
            {
              "internalType": "uint256",
              "name": "createAt",
              "type": "uint256"
            }
          ],
          "internalType": "struct IEvolveStorage.Preset",
          "name": "preset",
          "type": "tuple"
        },
        {
          "internalType": "enum IEvolveStorage.CompetionStatus",
          "name": "status",
          "type": "uint8"
        },
        {
          "internalType": "enum IEvolveStorage.CompetionWinner",
          "name": "winners",
          "type": "uint8"
        },
        {
          "internalType": "uint256",
          "name": "priceRate",
          "type": "uint256"
        },
        {
          "internalType": "uint256",
          "name": "createAt",
          "type": "uint256"
        }
      ],
      "stateMutability": "view",
      "type": "function",
      "constant": true
    },
    {
      "inputs": [],
      "name": "factoryAddrss",
      "outputs": [
        {
          "internalType": "address",
          "name": "",
          "type": "address"
        }
      ],
      "stateMutability": "view",
      "type": "function",
      "constant": true
    },
    {
      "inputs": [],
      "name": "owner",
      "outputs": [
        {
          "internalType": "address",
          "name": "",
          "type": "address"
        }
      ],
      "stateMutability": "view",
      "type": "function",
      "constant": true
    },
    {
      "inputs": [
        {
          "internalType": "uint256",
          "name": "",
          "type": "uint256"
        }
      ],
      "name": "presetList",
      "outputs": [
        {
          "internalType": "uint256",
          "name": "matchPrice",
          "type": "uint256"
        },
        {
          "internalType": "uint256",
          "name": "numberOfTeamMemebr",
          "type": "uint256"
        },
        {
          "internalType": "uint256",
          "name": "date",
          "type": "uint256"
        },
        {
          "internalType": "uint256",
          "name": "createAt",
          "type": "uint256"
        }
      ],
      "stateMutability": "view",
      "type": "function",
      "constant": true
    },
    {
      "inputs": [],
      "name": "renounceOwnership",
      "outputs": [],
      "stateMutability": "nonpayable",
      "type": "function"
    },
    {
      "inputs": [],
      "name": "startCompetitionId",
      "outputs": [
        {
          "internalType": "uint256",
          "name": "",
          "type": "uint256"
        }
      ],
      "stateMutability": "view",
      "type": "function",
      "constant": true
    },
    {
      "inputs": [],
      "name": "startPresetId",
      "outputs": [
        {
          "internalType": "uint256",
          "name": "",
          "type": "uint256"
        }
      ],
      "stateMutability": "view",
      "type": "function",
      "constant": true
    },
    {
      "inputs": [
        {
          "internalType": "address",
          "name": "newOwner",
          "type": "address"
        }
      ],
      "name": "transferOwnership",
      "outputs": [],
      "stateMutability": "nonpayable",
      "type": "function"
    },
    {
      "inputs": [
        {
          "internalType": "address",
          "name": "_factory",
          "type": "address"
        }
      ],
      "name": "updateFactoryAddress",
      "outputs": [
        {
          "internalType": "bool",
          "name": "result",
          "type": "bool"
        }
      ],
      "stateMutability": "nonpayable",
      "type": "function"
    },
    {
      "inputs": [
        {
          "internalType": "uint256",
          "name": "_competionId",
          "type": "uint256"
        },
        {
          "internalType": "uint8",
          "name": "_winnerTeam",
          "type": "uint8"
        }
      ],
      "name": "updateCompetionWinner",
      "outputs": [
        {
          "internalType": "bool",
          "name": "",
          "type": "bool"
        }
      ],
      "stateMutability": "nonpayable",
      "type": "function"
    },
    {
      "inputs": [
        {
          "internalType": "uint256",
          "name": "_competionId",
          "type": "uint256"
        },
        {
          "internalType": "uint8",
          "name": "_status",
          "type": "uint8"
        }
      ],
      "name": "updateCompetionStatus",
      "outputs": [
        {
          "internalType": "bool",
          "name": "",
          "type": "bool"
        }
      ],
      "stateMutability": "nonpayable",
      "type": "function"
    },
    {
      "inputs": [
        {
          "internalType": "uint256",
          "name": "_presetId",
          "type": "uint256"
        },
        {
          "internalType": "address[]",
          "name": "_teamA",
          "type": "address[]"
        },
        {
          "internalType": "address[]",
          "name": "_teamB",
          "type": "address[]"
        },
        {
          "internalType": "uint256",
          "name": "_priceRate",
          "type": "uint256"
        },
        {
          "internalType": "uint256",
          "name": "_createAt",
          "type": "uint256"
        }
      ],
      "name": "addNewCompetion",
      "outputs": [
        {
          "internalType": "uint256",
          "name": "competitionId",
          "type": "uint256"
        }
      ],
      "stateMutability": "nonpayable",
      "type": "function"
    },
    {
      "inputs": [
        {
          "internalType": "uint256",
          "name": "_matchPrice",
          "type": "uint256"
        },
        {
          "internalType": "uint256",
          "name": "_numberOfTeamMemebr",
          "type": "uint256"
        },
        {
          "internalType": "uint256",
          "name": "_createAt",
          "type": "uint256"
        }
      ],
      "name": "addNewPreset",
      "outputs": [
        {
          "internalType": "uint256",
          "name": "presetId",
          "type": "uint256"
        }
      ],
      "stateMutability": "nonpayable",
      "type": "function"
    },
    {
      "inputs": [
        {
          "internalType": "uint256",
          "name": "_presetId",
          "type": "uint256"
        }
      ],
      "name": "getPreset",
      "outputs": [
        {
          "internalType": "uint256",
          "name": "matchPrice",
          "type": "uint256"
        },
        {
          "internalType": "uint256",
          "name": "numberOfTeamMemebr",
          "type": "uint256"
        }
      ],
      "stateMutability": "view",
      "type": "function",
      "constant": true
    },
    {
      "inputs": [
        {
          "internalType": "uint256",
          "name": "_competionId",
          "type": "uint256"
        }
      ],
      "name": "getCompetion",
      "outputs": [
        {
          "internalType": "uint256",
          "name": "presetPrice",
          "type": "uint256"
        },
        {
          "internalType": "uint256",
          "name": "playerCount",
          "type": "uint256"
        },
        {
          "internalType": "address[]",
          "name": "_teamA",
          "type": "address[]"
        },
        {
          "internalType": "address[]",
          "name": "_teamB",
          "type": "address[]"
        },
        {
          "internalType": "uint256",
          "name": "_competionStatus",
          "type": "uint256"
        },
        {
          "internalType": "uint256",
          "name": "_competionWinner",
          "type": "uint256"
        },
        {
          "internalType": "uint256",
          "name": "_priceRate",
          "type": "uint256"
        }
      ],
      "stateMutability": "view",
      "type": "function",
      "constant": true
    }
  ],
  "bytecode": "0x60806040526000600255600060035534801561001a57600080fd5b506100243361003b565b600180546001600160a01b0319163317905561008b565b600080546001600160a01b038381166001600160a01b0319831681178455604051919092169283917f8be0079c531659141344cd1fd0a4f28419497f9722a3daafe3b4186f6b6457e09190a35050565b6111308061009a6000396000f3fe608060405234801561001057600080fd5b50600436106100f55760003560e01c80638453489011610097578063caa9db8911610066578063caa9db89146102c8578063d4e3706a146102db578063e98ce44414610301578063f2fde38b1461030a57600080fd5b806384534890146102405780638da5cb5b14610253578063985d8e0014610278578063aabc4b3c1461028b57600080fd5b806363db17a4116100d357806363db17a41461018a578063715018a6146101a15780637ae996bd146101ab5780637cb1c0d4146101be57600080fd5b80634f03c754146100fa578063511b4db714610122578063551ee57014610177575b600080fd5b61010d610108366004610d67565b61031d565b60405190151581526020015b60405180910390f35b610157610130366004610d9d565b60046020526000908152604090208054600182015460028301546003909301549192909184565b604080519485526020850193909352918301526060820152608001610119565b61010d610185366004610db6565b6104a0565b61019360025481565b604051908152602001610119565b6101a96104ef565b005b6101936101b9366004610de6565b610525565b61022f6101cc366004610d9d565b6005602090815260009182526040918290208251608081018452815481526001820154928101929092526002810154928201929092526003820154606082015260068201546007830154600890930154919260ff80831693610100909304169185565b604051610119959493929190610e28565b61019361024e366004610ee1565b610604565b6000546001600160a01b03165b6040516001600160a01b039091168152602001610119565b61010d610286366004610d67565b610890565b6102b3610299366004610d9d565b600090815260046020526040902080546001909101549091565b60408051928352602083019190915201610119565b600154610260906001600160a01b031681565b6102ee6102e9366004610d9d565b610a23565b6040516101199796959493929190610fae565b61019360035481565b6101a9610318366004610db6565b610bbc565b6001546000906001600160a01b0316336001600160a01b0316148061034c57506000546001600160a01b031633145b806103705750326103656000546001600160a01b031690565b6001600160a01b0316145b6103955760405162461bcd60e51b815260040161038c90610fff565b60405180910390fd5b61039e83610c57565b6103ba5760405162461bcd60e51b815260040161038c90611054565b60028260ff16111561041f5760405162461bcd60e51b815260206004820152602860248201527f737461747573206e65656420746f20626520736f6d74696e6720626574776565604482015267371018103a37901960c11b606482015260840161038c565b600083815260056020526040902060ff8316610451576006810180546000919060ff19166001835b0217905550610496565b8260ff1660011415610472576006810180546001919060ff19168280610447565b8260ff1660021415610496576006810180546002919060ff19166001835b02179055505b5060019392505050565b600080546001600160a01b031633146104cb5760405162461bcd60e51b815260040161038c9061109f565b50600180546001600160a01b0319166001600160a01b039290921691909117815590565b6000546001600160a01b031633146105195760405162461bcd60e51b815260040161038c9061109f565b6105236000610c7e565b565b6001546000906001600160a01b0316336001600160a01b0316148061055457506000546001600160a01b031633145b8061057857503261056d6000546001600160a01b031690565b6001600160a01b0316145b6105945760405162461bcd60e51b815260040161038c90610fff565b60038054604080516080810182528781526020808201888152428385019081526060840189815260008781526004909452948320845181559151600180840191909155905160028301559351908601558454939491936105f59084906110d4565b90915550919695505050505050565b6001546000906001600160a01b0316336001600160a01b0316148061063357506000546001600160a01b031633145b8061065757503261064c6000546001600160a01b031690565b6001600160a01b0316145b6106735760405162461bcd60e51b815260040161038c90610fff565b61067c88610cce565b6106c85760405162461bcd60e51b815260206004820152601f60248201527f63616e27742066696e6420707265736574207769746820746869732069642100604482015260640161038c565b50600280546040805160008b8152600460209081529083902061016083018452805460e084019081526001820154610100850152958101546101208401526003015461014083015293815281518985028181018601909352898152929390928184019290918b918b91829190850190849080828437600092019190915250505090825250604080516020888102828101820190935288825292830192909189918991829185019084908082843760009201829052509385525050602090920191508152602001600381526020808201869052604091820185905260008481526005825282902083518051825580830151600183015592830151600282015560609092015160038301558281015180516107e79260048501920190610ced565b5060408201518051610803916005840191602090910190610ced565b50606082015160068201805460ff1916600183600281111561082757610827610e12565b0217905550608082015160068201805461ff00191661010083600381111561085157610851610e12565b021790555060a0820151816007015560c0820151816008015590505060016002600082825461088091906110d4565b9091555050979650505050505050565b6001546000906001600160a01b0316336001600160a01b031614806108bf57506000546001600160a01b031633145b806108e35750326108d86000546001600160a01b031690565b6001600160a01b0316145b6108ff5760405162461bcd60e51b815260040161038c90610fff565b61090883610c57565b6109245760405162461bcd60e51b815260040161038c90611054565b60038260ff1611156109895760405162461bcd60e51b815260206004820152602860248201527f77696e6e6572206e65656420746f20626520736f6d74696e67206265747765656044820152676e203020746f203360c01b606482015260840161038c565b600083815260056020526040902060ff83166109b7576006810180546000919061ff00191661010083610447565b8260ff16600114156109db576006810180546001919061ff00191661010083610447565b8260ff16600214156109ff576006810180546002919061ff00191661010083610447565b8260ff1660031415610496576006810180546003919061ff00191661010083610490565b6000818152600560208181526040808420815160808101835281548082526001830154828601819052600284015483860152600384015460608481019190915289895296865260049093018054855181880281018801909652808652919793969586958594859490939192830182828015610ac757602002820191906000526020600020905b81546001600160a01b03168152600190910190602001808311610aa9575b50505050509550600560008a8152602001908152602001600020600501805480602002602001604051908101604052809291908181526020018280548015610b3857602002820191906000526020600020905b81546001600160a01b03168152600190910190602001808311610b1a575b50505060008c8152600560205260409020600601549297505060ff90911690506002811115610b6957610b69610e12565b60008a815260056020526040902060060154909450610100900460ff166003811115610b9757610b97610e12565b6000998a52600560205260409099206007015497999698959794969395949392505050565b6000546001600160a01b03163314610be65760405162461bcd60e51b815260040161038c9061109f565b6001600160a01b038116610c4b5760405162461bcd60e51b815260206004820152602660248201527f4f776e61626c653a206e6577206f776e657220697320746865207a65726f206160448201526564647265737360d01b606482015260840161038c565b610c5481610c7e565b50565b60008181526005602052604081206004015415610c7657506001919050565b506000919050565b600080546001600160a01b038381166001600160a01b0319831681178455604051919092169283917f8be0079c531659141344cd1fd0a4f28419497f9722a3daafe3b4186f6b6457e09190a35050565b60008181526004602052604081206002015415610c7657506001919050565b828054828255906000526020600020908101928215610d42579160200282015b82811115610d4257825182546001600160a01b0319166001600160a01b03909116178255602090920191600190910190610d0d565b50610d4e929150610d52565b5090565b5b80821115610d4e5760008155600101610d53565b60008060408385031215610d7a57600080fd5b82359150602083013560ff81168114610d9257600080fd5b809150509250929050565b600060208284031215610daf57600080fd5b5035919050565b600060208284031215610dc857600080fd5b81356001600160a01b0381168114610ddf57600080fd5b9392505050565b600080600060608486031215610dfb57600080fd5b505081359360208301359350604090920135919050565b634e487b7160e01b600052602160045260246000fd5b6000610100820190508651825260208701516020830152604087015160408301526060870151606083015260038610610e6357610e63610e12565b85608083015260048510610e7957610e79610e12565b8460a08301528360c08301528260e08301529695505050505050565b60008083601f840112610ea757600080fd5b50813567ffffffffffffffff811115610ebf57600080fd5b6020830191508360208260051b8501011115610eda57600080fd5b9250929050565b600080600080600080600060a0888a031215610efc57600080fd5b87359650602088013567ffffffffffffffff80821115610f1b57600080fd5b610f278b838c01610e95565b909850965060408a0135915080821115610f4057600080fd5b50610f4d8a828b01610e95565b989b979a5095989597966060870135966080013595509350505050565b600081518084526020808501945080840160005b83811015610fa35781516001600160a01b031687529582019590820190600101610f7e565b509495945050505050565b87815286602082015260e060408201526000610fcd60e0830188610f6a565b8281036060840152610fdf8188610f6a565b6080840196909652505060a081019290925260c090910152949350505050565b60208082526035908201527f546f2063616c6c2074686973206d6574686f6420796f75206861766520746f206040820152746265206f776e6572206f722073756241646d696e2160581b606082015260800190565b6020808252602b908201527f63616e27742066696e6420636f6d706574696f6e20776974682074686973206360408201526a6f6d706574696f6e49642160a81b606082015260800190565b6020808252818101527f4f776e61626c653a2063616c6c6572206973206e6f7420746865206f776e6572604082015260600190565b600082198211156110f557634e487b7160e01b600052601160045260246000fd5b50019056fea26469706673582212205a71db0e966a1babfd9d7062faffff874a210953d1b8a8a722bd16756932198564736f6c63430008090033",
  "immutableReferences": {},
  "source": "\r\n/* SPDX-License-Identifier: MIT OR Apache-2.0 */\r\npragma solidity ^0.8.9;\r\npragma experimental ABIEncoderV2;\r\nimport \"@openzeppelin/contracts/access/Ownable.sol\";\r\nimport \"@openzeppelin/contracts/utils/Context.sol\";\r\nimport \"@openzeppelin/contracts/utils/math/SafeMath.sol\";\r\nimport \"./IEvolveStorage.sol\";\r\n\r\ncontract EvolveStorage is  Context, Ownable, IEvolveStorage{\r\n    using SafeMath for uint256;\r\n\r\n    address public factoryAddrss;\r\n    uint256 public startCompetitionId = 0;\r\n    uint256 public startPresetId = 0;\r\n\r\n    mapping(uint256 => Preset) public presetList;\r\n    mapping(uint256 => Competion ) public competionList;\r\n\r\n\r\n    constructor(){\r\n        factoryAddrss = _msgSender();\r\n    }\r\n   /* -------------------------------------------------------------------------- */\r\n   /*                                 permissions                                */\r\n    modifier ownerOrFactory {\r\n        require(_msgSender() == factoryAddrss || _msgSender() == owner() || owner() == tx.origin , \"To call this method you have to be owner or subAdmin!\");\r\n         _;\r\n    }\r\n\r\n    function updateFactoryAddress(address _factory) external override onlyOwner returns(bool result){\r\n        factoryAddrss = _factory;\r\n        result = true;\r\n    }\r\n   /* -------------------------------------------------------------------------- */\r\n\r\n    /* -------------------------------------------------------------------------- */\r\n    /*                        work with Competition methods                       */\r\n\r\n\r\n\r\n    //    enum CompetionWinner {TEAMA , TEAMB , DRAW, OPEN}\r\n    function updateCompetionWinner(uint _competionId, uint8 _winnerTeam) external override ownerOrFactory returns(bool){\r\n        require(isExistsCompetionList(_competionId), \"can't find competion with this competionId!\");\r\n        require(_winnerTeam >= 0 && _winnerTeam <= 3, \"winner need to be somting between 0 to 3\");\r\n        Competion storage competion = competionList[_competionId];\r\n        if(_winnerTeam == 0){\r\n            competion.winners = CompetionWinner.TEAMA;\r\n        }else if(_winnerTeam == 1){\r\n            competion.winners = CompetionWinner.TEAMB;\r\n        }else if(_winnerTeam == 2){\r\n            competion.winners = CompetionWinner.DRAW;\r\n        }else if(_winnerTeam == 3){\r\n            competion.winners = CompetionWinner.OPEN;\r\n        }\r\n        \r\n        return true;\r\n    }\r\n\r\n\r\n\r\n    //  enum CompetionStatus { PENDING, CANCELED, DONE }\r\n    function updateCompetionStatus(uint _competionId, uint8 _status) external override ownerOrFactory returns(bool){\r\n        require(isExistsCompetionList(_competionId), \"can't find competion with this competionId!\");\r\n        require(_status >= 0 && _status <= 2, \"status need to be somting between 0 to 2\");\r\n        Competion storage competion = competionList[_competionId];\r\n        if(_status == 0){\r\n            competion.status = CompetionStatus.PENDING;\r\n        }else if(_status == 1){\r\n            competion.status = CompetionStatus.CANCELED;\r\n        }else if(_status == 2){\r\n            competion.status = CompetionStatus.DONE;\r\n        }\r\n        return true;\r\n    }\r\n\r\n    function addNewCompetion(uint256 _presetId, address[] calldata _teamA, address[] calldata _teamB, uint256 _priceRate, uint256 _createAt) external override ownerOrFactory returns(uint256 competitionId){\r\n        require(isExistsPresetList(_presetId), \"can't find preset with this id!\");\r\n        competitionId = startCompetitionId;\r\n        competionList[competitionId] = Competion(presetList[_presetId],_teamA, _teamB, CompetionStatus.PENDING, CompetionWinner.OPEN, _priceRate, _createAt);\r\n        startCompetitionId += 1;\r\n        return competitionId;\r\n    }\r\n\r\n\r\n    /* -------------------------------------------------------------------------- */\r\n\r\n\r\n\r\n\r\n\r\n   /* -------------------------------------------------------------------------- */\r\n   /*                           work with presetMethods                          */\r\n    function addNewPreset(uint256 _matchPrice, uint256 _numberOfTeamMemebr, uint256 _createAt ) external override ownerOrFactory returns(uint presetId) {\r\n        uint _lastPresetId = startPresetId;\r\n        Preset memory currentPreset = Preset(_matchPrice, _numberOfTeamMemebr, block.timestamp, _createAt);\r\n        presetList[_lastPresetId] = currentPreset;\r\n        startPresetId += 1;\r\n        return _lastPresetId;\r\n    }\r\n   /* -------------------------------------------------------------------------- */\r\n\r\n    // read methods \r\n\r\n    function getPreset(uint256 _presetId) external view override returns(uint256 matchPrice,uint256 numberOfTeamMemebr){\r\n     return (presetList[_presetId].matchPrice, presetList[_presetId].numberOfTeamMemebr);\r\n    }\r\n\r\n    function getCompetion(uint256 _competionId) external view override \r\n        returns(uint256 presetPrice,uint256 playerCount,address[] memory _teamA, address[] memory _teamB, uint _competionStatus, uint _competionWinner, uint256 _priceRate){\r\n        Preset memory competionPreset = competionList[_competionId].preset;\r\n        presetPrice = competionPreset.matchPrice;\r\n        playerCount = competionPreset.numberOfTeamMemebr;\r\n        _teamA = competionList[_competionId].teamA;\r\n        _teamB = competionList[_competionId].teamB;\r\n        _competionStatus = uint(competionList[_competionId].status);\r\n        _competionWinner = uint(competionList[_competionId].winners);\r\n        _priceRate = competionList[_competionId].priceRate;\r\n    }\r\n\r\n    // utilse methods\r\n\r\n    function isExistsCompetionList(uint key) internal view returns (bool) {\r\n        if(competionList[key].teamA.length != 0){\r\n            return true;\r\n        } \r\n        return false;\r\n    }\r\n     function isExistsPresetList(uint256 key) internal view returns (bool) {\r\n        if(presetList[key].date != 0){\r\n            return true;\r\n        } \r\n        return false;\r\n    }\r\n\r\n}",
  "sourcePath": "C:\\Users\\Windows 10\\Desktop\\smart-contract-storage\\contracts\\EvolveStorage.sol",
  "compiler": {
    "name": "solc",
    "version": "0.8.9+commit.e5eed63a.Emscripten.clang"
  },
  "schemaVersion": "3.4.7",
  "updatedAt": "2022-05-26T14:50:20.223Z",
  "networkType": "ethereum",
  "devdoc": {
    "kind": "dev",
    "methods": {
      "owner()": {
        "details": "Returns the address of the current owner."
      },
      "renounceOwnership()": {
        "details": "Leaves the contract without owner. It will not be possible to call `onlyOwner` functions anymore. Can only be called by the current owner. NOTE: Renouncing ownership will leave the contract without an owner, thereby removing any functionality that is only available to the owner."
      },
      "transferOwnership(address)": {
        "details": "Transfers ownership of the contract to a new account (`newOwner`). Can only be called by the current owner."
      }
    },
    "version": 1
  },
  "userdoc": {
    "kind": "user",
    "methods": {},
    "version": 1
  }
}