{
  "contractName": "EvolveAdminUpdater",
  "abi": [
    {
      "inputs": [
        {
          "internalType": "contract IEvolveFactory",
          "name": "_factoryAddress",
          "type": "address"
        }
      ],
      "stateMutability": "nonpayable",
      "type": "constructor"
    },
    {
      "anonymous": false,
      "inputs": [
        {
          "indexed": true,
          "internalType": "address",
          "name": "previousOwner",
          "type": "address"
        },
        {
          "indexed": true,
          "internalType": "address",
          "name": "newOwner",
          "type": "address"
        }
      ],
      "name": "OwnershipTransferred",
      "type": "event"
    },
    {
      "inputs": [],
      "name": "factory",
      "outputs": [
        {
          "internalType": "contract IEvolveFactory",
          "name": "",
          "type": "address"
        }
      ],
      "stateMutability": "view",
      "type": "function",
      "constant": true
    },
    {
      "inputs": [],
      "name": "owner",
      "outputs": [
        {
          "internalType": "address",
          "name": "",
          "type": "address"
        }
      ],
      "stateMutability": "view",
      "type": "function",
      "constant": true
    },
    {
      "inputs": [],
      "name": "renounceOwnership",
      "outputs": [],
      "stateMutability": "nonpayable",
      "type": "function"
    },
    {
      "inputs": [
        {
          "internalType": "address",
          "name": "newOwner",
          "type": "address"
        }
      ],
      "name": "transferOwnership",
      "outputs": [],
      "stateMutability": "nonpayable",
      "type": "function"
    },
    {
      "inputs": [
        {
          "internalType": "contract IEvolveFactory",
          "name": "_newFactoryAddress",
          "type": "address"
        }
      ],
      "name": "updateFactory",
      "outputs": [
        {
          "internalType": "bool",
          "name": "",
          "type": "bool"
        }
      ],
      "stateMutability": "nonpayable",
      "type": "function"
    },
    {
      "inputs": [
        {
          "internalType": "address payable",
          "name": "_newAdmin",
          "type": "address"
        }
      ],
      "name": "updateFactoryAdmin",
      "outputs": [
        {
          "internalType": "bool",
          "name": "",
          "type": "bool"
        }
      ],
      "stateMutability": "payable",
      "type": "function",
      "payable": true
    }
  ],
  "bytecode": "0x608060405234801561001057600080fd5b5060405161067338038061067383398101604081905261002f916100bb565b6100383361006b565b600180546001600160a01b03199081163317909155600280549091166001600160a01b03929092169190911790556100eb565b600080546001600160a01b038381166001600160a01b0319831681178455604051919092169283917f8be0079c531659141344cd1fd0a4f28419497f9722a3daafe3b4186f6b6457e09190a35050565b6000602082840312156100cd57600080fd5b81516001600160a01b03811681146100e457600080fd5b9392505050565b610579806100fa6000396000f3fe6080604052600436106100555760003560e01c806344a381f51461005a578063715018a6146100825780638da5cb5b14610099578063c45a0155146100cb578063d9f165dc146100eb578063f2fde38b1461010b575b600080fd5b61006d6100683660046104c8565b61012b565b60405190151581526020015b60405180910390f35b34801561008e57600080fd5b50610097610342565b005b3480156100a557600080fd5b506000546001600160a01b03165b6040516001600160a01b039091168152602001610079565b3480156100d757600080fd5b506002546100b3906001600160a01b031681565b3480156100f757600080fd5b5061006d6101063660046104c8565b610378565b34801561011757600080fd5b506100976101263660046104c8565b6103c8565b600080546001600160a01b031633148061015857506001546001600160a01b0316336001600160a01b0316145b6101bb5760405162461bcd60e51b815260206004820152602960248201527f6d6574686f642063616e2063616c6c206a7573742077697468206f776e6572206044820152686f722061646d696e2160b81b60648201526084015b60405180910390fd5b6001600160a01b0382166102115760405162461bcd60e51b815260206004820152601c60248201527f6164646d696e20616464726573732063616e2774206265206e756c6c0000000060448201526064016101b2565b346102705760405162461bcd60e51b815260206004820152602960248201527f796f752063612774207472616e736665722061646d696e207769746f75742061604482015268373c903b30b63ab29760b91b60648201526084016101b2565b6002546040516344a381f560e01b81526001600160a01b038481166004830152909116906344a381f590602401602060405180830381600087803b1580156102b757600080fd5b505af11580156102cb573d6000803e3d6000fd5b505050506040513d601f19601f820116820180604052508101906102ef91906104ec565b50600180546001600160a01b0384166001600160a01b031990911681179091556040513480156108fc02916000818181858888f19350505050158015610339573d6000803e3d6000fd5b50600192915050565b6000546001600160a01b0316331461036c5760405162461bcd60e51b81526004016101b29061050e565b6103766000610463565b565b600080546001600160a01b031633146103a35760405162461bcd60e51b81526004016101b29061050e565b50600280546001600160a01b0383166001600160a01b03199091161790556001919050565b6000546001600160a01b031633146103f25760405162461bcd60e51b81526004016101b29061050e565b6001600160a01b0381166104575760405162461bcd60e51b815260206004820152602660248201527f4f776e61626c653a206e6577206f776e657220697320746865207a65726f206160448201526564647265737360d01b60648201526084016101b2565b61046081610463565b50565b600080546001600160a01b038381166001600160a01b0319831681178455604051919092169283917f8be0079c531659141344cd1fd0a4f28419497f9722a3daafe3b4186f6b6457e09190a35050565b6001600160a01b038116811461046057600080fd5b6000602082840312156104da57600080fd5b81356104e5816104b3565b9392505050565b6000602082840312156104fe57600080fd5b815180151581146104e557600080fd5b6020808252818101527f4f776e61626c653a2063616c6c6572206973206e6f7420746865206f776e657260408201526060019056fea26469706673582212207fdb5fd8c528897f7cc7e6f08776d656b9ea73ad4088599ed2d9eea745edea0364736f6c63430008090033",
  "immutableReferences": {},
  "source": "/* SPDX-License-Identifier: MIT OR Apache-2.0 */\npragma solidity ^0.8.9;\nimport \"@openzeppelin/contracts/access/Ownable.sol\";\nimport \"@openzeppelin/contracts/utils/Context.sol\";\nimport \"@openzeppelin/contracts/utils/Address.sol\";\nimport \"./IEvolveFactory.sol\";\n\ncontract EvolveAdminUpdater is Context, Ownable {\n    using Address for address;\n    address admin;\n    IEvolveFactory public factory;\n    \n    constructor(IEvolveFactory _factoryAddress ){\n        admin = _msgSender();\n        factory = _factoryAddress;\n    }\n\n    modifier adminOrOwner{\n        require(_msgSender() == owner() || _msgSender() == admin, \"method can call just with owner or admin!\");\n        _;\n    }\n\n    function updateFactory(IEvolveFactory _newFactoryAddress) external onlyOwner returns(bool){\n        factory = _newFactoryAddress;\n        return true;\n    }\n\n    function updateFactoryAdmin(address payable _newAdmin) external payable adminOrOwner returns(bool){\n        require(_newAdmin != address(0), \"addmin address can't be null\");\n        require(msg.value != 0, \"you ca't transfer admin witout any value.\");\n        factory.updateFactoryAdmin(_newAdmin);\n\n        admin = _newAdmin;\n        _newAdmin.transfer(msg.value);\n\n        return true;\n    }\n\n}",
  "sourcePath": "C:\\evolve-smartcontract-2\\contracts\\EvolveAdminUpdater.sol",
  "compiler": {
    "name": "solc",
    "version": "0.8.9+commit.e5eed63a.Emscripten.clang"
  },
  "schemaVersion": "3.4.7",
  "updatedAt": "2022-05-30T21:32:17.239Z",
  "networkType": "ethereum",
  "devdoc": {
    "kind": "dev",
    "methods": {
      "owner()": {
        "details": "Returns the address of the current owner."
      },
      "renounceOwnership()": {
        "details": "Leaves the contract without owner. It will not be possible to call `onlyOwner` functions anymore. Can only be called by the current owner. NOTE: Renouncing ownership will leave the contract without an owner, thereby removing any functionality that is only available to the owner."
      },
      "transferOwnership(address)": {
        "details": "Transfers ownership of the contract to a new account (`newOwner`). Can only be called by the current owner."
      }
    },
    "version": 1
  },
  "userdoc": {
    "kind": "user",
    "methods": {},
    "version": 1
  }
}